{
	"Taxpayer.sol": {
		"Taxpayer": {
			"abi": [
				{
					"inputs": [
						{
							"internalType": "address",
							"name": "p1",
							"type": "address"
						},
						{
							"internalType": "address",
							"name": "p2",
							"type": "address"
						}
					],
					"stateMutability": "nonpayable",
					"type": "constructor"
				},
				{
					"inputs": [],
					"name": "applyOAPIfEligible",
					"outputs": [],
					"stateMutability": "nonpayable",
					"type": "function"
				},
				{
					"inputs": [
						{
							"internalType": "uint256",
							"name": "value",
							"type": "uint256"
						}
					],
					"name": "calculateTax",
					"outputs": [
						{
							"internalType": "uint256",
							"name": "",
							"type": "uint256"
						}
					],
					"stateMutability": "view",
					"type": "function"
				},
				{
					"inputs": [],
					"name": "divorce",
					"outputs": [],
					"stateMutability": "nonpayable",
					"type": "function"
				},
				{
					"inputs": [],
					"name": "echidna_age_allowance_base_consistency_single",
					"outputs": [
						{
							"internalType": "bool",
							"name": "",
							"type": "bool"
						}
					],
					"stateMutability": "view",
					"type": "function"
				},
				{
					"inputs": [
						{
							"internalType": "address",
							"name": "lot",
							"type": "address"
						}
					],
					"name": "echidna_commit_consistency",
					"outputs": [
						{
							"internalType": "bool",
							"name": "",
							"type": "bool"
						}
					],
					"stateMutability": "view",
					"type": "function"
				},
				{
					"inputs": [],
					"name": "echidna_iscontract_is_true",
					"outputs": [
						{
							"internalType": "bool",
							"name": "",
							"type": "bool"
						}
					],
					"stateMutability": "view",
					"type": "function"
				},
				{
					"inputs": [],
					"name": "echidna_marriage_consistency",
					"outputs": [
						{
							"internalType": "bool",
							"name": "",
							"type": "bool"
						}
					],
					"stateMutability": "view",
					"type": "function"
				},
				{
					"inputs": [],
					"name": "echidna_mutual_marriage_and_flags",
					"outputs": [
						{
							"internalType": "bool",
							"name": "",
							"type": "bool"
						}
					],
					"stateMutability": "view",
					"type": "function"
				},
				{
					"inputs": [],
					"name": "echidna_no_tax_below_allowance",
					"outputs": [
						{
							"internalType": "bool",
							"name": "",
							"type": "bool"
						}
					],
					"stateMutability": "view",
					"type": "function"
				},
				{
					"inputs": [],
					"name": "echidna_not_self_spouse",
					"outputs": [
						{
							"internalType": "bool",
							"name": "",
							"type": "bool"
						}
					],
					"stateMutability": "view",
					"type": "function"
				},
				{
					"inputs": [],
					"name": "echidna_owner_is_constant",
					"outputs": [
						{
							"internalType": "bool",
							"name": "",
							"type": "bool"
						}
					],
					"stateMutability": "view",
					"type": "function"
				},
				{
					"inputs": [],
					"name": "echidna_spousal_allowance_sum_constant",
					"outputs": [
						{
							"internalType": "bool",
							"name": "",
							"type": "bool"
						}
					],
					"stateMutability": "view",
					"type": "function"
				},
				{
					"inputs": [],
					"name": "echidna_taxable_non_negative",
					"outputs": [
						{
							"internalType": "bool",
							"name": "",
							"type": "bool"
						}
					],
					"stateMutability": "view",
					"type": "function"
				},
				{
					"inputs": [],
					"name": "getAge",
					"outputs": [
						{
							"internalType": "uint256",
							"name": "",
							"type": "uint256"
						}
					],
					"stateMutability": "view",
					"type": "function"
				},
				{
					"inputs": [],
					"name": "getDefaultAllowance",
					"outputs": [
						{
							"internalType": "uint256",
							"name": "",
							"type": "uint256"
						}
					],
					"stateMutability": "view",
					"type": "function"
				},
				{
					"inputs": [],
					"name": "getIncome",
					"outputs": [
						{
							"internalType": "uint256",
							"name": "",
							"type": "uint256"
						}
					],
					"stateMutability": "view",
					"type": "function"
				},
				{
					"inputs": [],
					"name": "getInitialTaxAllowance",
					"outputs": [
						{
							"internalType": "uint256",
							"name": "",
							"type": "uint256"
						}
					],
					"stateMutability": "view",
					"type": "function"
				},
				{
					"inputs": [],
					"name": "getIsMarried",
					"outputs": [
						{
							"internalType": "bool",
							"name": "",
							"type": "bool"
						}
					],
					"stateMutability": "view",
					"type": "function"
				},
				{
					"inputs": [],
					"name": "getSpouse",
					"outputs": [
						{
							"internalType": "address",
							"name": "",
							"type": "address"
						}
					],
					"stateMutability": "view",
					"type": "function"
				},
				{
					"inputs": [],
					"name": "getTaxAllowance",
					"outputs": [
						{
							"internalType": "uint256",
							"name": "",
							"type": "uint256"
						}
					],
					"stateMutability": "view",
					"type": "function"
				},
				{
					"inputs": [],
					"name": "haveBirthday",
					"outputs": [],
					"stateMutability": "nonpayable",
					"type": "function"
				},
				{
					"inputs": [],
					"name": "isContract",
					"outputs": [
						{
							"internalType": "bool",
							"name": "",
							"type": "bool"
						}
					],
					"stateMutability": "view",
					"type": "function"
				},
				{
					"inputs": [
						{
							"internalType": "address",
							"name": "lot",
							"type": "address"
						},
						{
							"internalType": "uint256",
							"name": "r",
							"type": "uint256"
						}
					],
					"name": "joinLottery",
					"outputs": [],
					"stateMutability": "nonpayable",
					"type": "function"
				},
				{
					"inputs": [
						{
							"internalType": "address",
							"name": "new_spouse",
							"type": "address"
						}
					],
					"name": "marry",
					"outputs": [],
					"stateMutability": "nonpayable",
					"type": "function"
				},
				{
					"inputs": [
						{
							"internalType": "address",
							"name": "p",
							"type": "address"
						}
					],
					"name": "notifyDivorceFromPartner",
					"outputs": [],
					"stateMutability": "nonpayable",
					"type": "function"
				},
				{
					"inputs": [],
					"name": "owner",
					"outputs": [
						{
							"internalType": "address",
							"name": "",
							"type": "address"
						}
					],
					"stateMutability": "view",
					"type": "function"
				},
				{
					"inputs": [
						{
							"internalType": "uint256",
							"name": "amount",
							"type": "uint256"
						},
						{
							"internalType": "address",
							"name": "from",
							"type": "address"
						}
					],
					"name": "receiveAllowance",
					"outputs": [],
					"stateMutability": "nonpayable",
					"type": "function"
				},
				{
					"inputs": [
						{
							"internalType": "address",
							"name": "lot",
							"type": "address"
						},
						{
							"internalType": "uint256",
							"name": "r",
							"type": "uint256"
						}
					],
					"name": "revealLottery",
					"outputs": [],
					"stateMutability": "nonpayable",
					"type": "function"
				},
				{
					"inputs": [
						{
							"internalType": "uint256",
							"name": "_income",
							"type": "uint256"
						}
					],
					"name": "setIncome",
					"outputs": [],
					"stateMutability": "nonpayable",
					"type": "function"
				},
				{
					"inputs": [
						{
							"internalType": "address",
							"name": "a",
							"type": "address"
						}
					],
					"name": "setSpouse",
					"outputs": [],
					"stateMutability": "nonpayable",
					"type": "function"
				},
				{
					"inputs": [
						{
							"internalType": "uint256",
							"name": "ta",
							"type": "uint256"
						}
					],
					"name": "setTaxAllowance",
					"outputs": [],
					"stateMutability": "nonpayable",
					"type": "function"
				},
				{
					"inputs": [
						{
							"internalType": "uint256",
							"name": "ta",
							"type": "uint256"
						}
					],
					"name": "setTaxAllowanceBySpouse",
					"outputs": [],
					"stateMutability": "nonpayable",
					"type": "function"
				},
				{
					"inputs": [],
					"name": "taxableIncome",
					"outputs": [
						{
							"internalType": "uint256",
							"name": "",
							"type": "uint256"
						}
					],
					"stateMutability": "view",
					"type": "function"
				},
				{
					"inputs": [
						{
							"internalType": "uint256",
							"name": "change",
							"type": "uint256"
						}
					],
					"name": "transferAllowance",
					"outputs": [],
					"stateMutability": "nonpayable",
					"type": "function"
				},
				{
					"inputs": [
						{
							"internalType": "address",
							"name": "partner",
							"type": "address"
						}
					],
					"name": "updateMarriageFromPartner",
					"outputs": [],
					"stateMutability": "nonpayable",
					"type": "function"
				}
			],
			"devdoc": {
				"kind": "dev",
				"methods": {},
				"version": 1
			},
			"evm": {
				"assembly": "    /* \"Taxpayer.sol\":49:12018  contract Taxpayer {... */\n  mstore(0x40, 0xc0)\n    /* \"Taxpayer.sol\":1414:1808  constructor(address p1, address p2) {... */\n  callvalue\n  dup1\n  iszero\n  tag_1\n  jumpi\n  revert(0x00, 0x00)\ntag_1:\n  pop\n  mload(0x40)\n  sub(codesize, bytecodeSize)\n  dup1\n  bytecodeSize\n  dup4\n  codecopy\n  dup2\n  dup2\n  add\n  0x40\n  mstore\n  dup2\n  add\n  swap1\n  tag_2\n  swap2\n  swap1\n  tag_3\n  jump\t// in\ntag_2:\n    /* \"Taxpayer.sol\":1461:1462  0 */\n  0x00\n    /* \"Taxpayer.sol\":1455:1458  age */\n  0x00\n    /* \"Taxpayer.sol\":1455:1462  age = 0 */\n  dup2\n  swap1\n  sstore\n  pop\n    /* \"Taxpayer.sol\":1479:1484  false */\n  0x00\n    /* \"Taxpayer.sol\":1467:1476  isMarried */\n  0x01\n  0x00\n    /* \"Taxpayer.sol\":1467:1484  isMarried = false */\n  0x0100\n  exp\n  dup2\n  sload\n  dup2\n  0xff\n  mul\n  not\n  and\n  swap1\n  dup4\n  iszero\n  iszero\n  mul\n  or\n  swap1\n  sstore\n  pop\n    /* \"Taxpayer.sol\":1499:1501  p1 */\n  dup2\n    /* \"Taxpayer.sol\":1489:1496  parent1 */\n  0x02\n  0x00\n    /* \"Taxpayer.sol\":1489:1501  parent1 = p1 */\n  0x0100\n  exp\n  dup2\n  sload\n  dup2\n  0xffffffffffffffffffffffffffffffffffffffff\n  mul\n  not\n  and\n  swap1\n  dup4\n  0xffffffffffffffffffffffffffffffffffffffff\n  and\n  mul\n  or\n  swap1\n  sstore\n  pop\n    /* \"Taxpayer.sol\":1516:1518  p2 */\n  dup1\n    /* \"Taxpayer.sol\":1506:1513  parent2 */\n  0x03\n  0x00\n    /* \"Taxpayer.sol\":1506:1518  parent2 = p2 */\n  0x0100\n  exp\n  dup2\n  sload\n  dup2\n  0xffffffffffffffffffffffffffffffffffffffff\n  mul\n  not\n  and\n  swap1\n  dup4\n  0xffffffffffffffffffffffffffffffffffffffff\n  and\n  mul\n  or\n  swap1\n  sstore\n  pop\n    /* \"Taxpayer.sol\":1531:1541  msg.sender */\n  caller\n    /* \"Taxpayer.sol\":1523:1528  owner */\n  0x04\n  0x00\n    /* \"Taxpayer.sol\":1523:1541  owner = msg.sender */\n  0x0100\n  exp\n  dup2\n  sload\n  dup2\n  0xffffffffffffffffffffffffffffffffffffffff\n  mul\n  not\n  and\n  swap1\n  dup4\n  0xffffffffffffffffffffffffffffffffffffffff\n  and\n  mul\n  or\n  swap1\n  sstore\n  pop\n    /* \"Taxpayer.sol\":1562:1572  msg.sender */\n  caller\n    /* \"Taxpayer.sol\":1546:1572  INITIAL_OWNER = msg.sender */\n  0xffffffffffffffffffffffffffffffffffffffff\n  and\n  0x80\n  dup2\n  0xffffffffffffffffffffffffffffffffffffffff\n  and\n  dup2\n  mstore\n  pop\n  pop\n    /* \"Taxpayer.sol\":420:424  5000 */\n  0x1388\n    /* \"Taxpayer.sol\":1577:1618  INITIAL_TAX_ALLOWANCE = DEFAULT_ALLOWANCE */\n  0xa0\n  dup2\n  dup2\n  mstore\n  pop\n  pop\n    /* \"Taxpayer.sol\":1678:1679  0 */\n  0x00\n    /* \"Taxpayer.sol\":1661:1667  spouse */\n  0x01\n  0x02\n    /* \"Taxpayer.sol\":1661:1680  spouse = address(0) */\n  0x0100\n  exp\n  dup2\n  sload\n  dup2\n  0xffffffffffffffffffffffffffffffffffffffff\n  mul\n  not\n  and\n  swap1\n  dup4\n  0xffffffffffffffffffffffffffffffffffffffff\n  and\n  mul\n  or\n  swap1\n  sstore\n  pop\n    /* \"Taxpayer.sol\":1694:1695  0 */\n  0x00\n    /* \"Taxpayer.sol\":1685:1691  income */\n  0x06\n    /* \"Taxpayer.sol\":1685:1695  income = 0 */\n  dup2\n  swap1\n  sstore\n  pop\n    /* \"Taxpayer.sol\":1716:1737  INITIAL_TAX_ALLOWANCE */\n  mload(0xa0)\n    /* \"Taxpayer.sol\":1700:1713  tax_allowance */\n  0x05\n    /* \"Taxpayer.sol\":1700:1737  tax_allowance = INITIAL_TAX_ALLOWANCE */\n  dup2\n  swap1\n  sstore\n  pop\n    /* \"Taxpayer.sol\":1755:1759  true */\n  0x01\n    /* \"Taxpayer.sol\":1742:1752  iscontract */\n  dup1\n  0x01\n    /* \"Taxpayer.sol\":1742:1759  iscontract = true */\n  0x0100\n  exp\n  dup2\n  sload\n  dup2\n  0xff\n  mul\n  not\n  and\n  swap1\n  dup4\n  iszero\n  iszero\n  mul\n  or\n  swap1\n  sstore\n  pop\n    /* \"Taxpayer.sol\":1414:1808  constructor(address p1, address p2) {... */\n  pop\n  pop\n    /* \"Taxpayer.sol\":49:12018  contract Taxpayer {... */\n  jump(tag_6)\n    /* \"#utility.yul\":88:205   */\ntag_8:\n    /* \"#utility.yul\":197:198   */\n  0x00\n    /* \"#utility.yul\":194:195   */\n  0x00\n    /* \"#utility.yul\":187:199   */\n  revert\n    /* \"#utility.yul\":334:460   */\ntag_10:\n    /* \"#utility.yul\":371:378   */\n  0x00\n    /* \"#utility.yul\":411:453   */\n  0xffffffffffffffffffffffffffffffffffffffff\n    /* \"#utility.yul\":404:409   */\n  dup3\n    /* \"#utility.yul\":400:454   */\n  and\n    /* \"#utility.yul\":389:454   */\n  swap1\n  pop\n    /* \"#utility.yul\":334:460   */\n  swap2\n  swap1\n  pop\n  jump\t// out\n    /* \"#utility.yul\":466:562   */\ntag_11:\n    /* \"#utility.yul\":503:510   */\n  0x00\n    /* \"#utility.yul\":532:556   */\n  tag_20\n    /* \"#utility.yul\":550:555   */\n  dup3\n    /* \"#utility.yul\":532:556   */\n  tag_10\n  jump\t// in\ntag_20:\n    /* \"#utility.yul\":521:556   */\n  swap1\n  pop\n    /* \"#utility.yul\":466:562   */\n  swap2\n  swap1\n  pop\n  jump\t// out\n    /* \"#utility.yul\":568:690   */\ntag_12:\n    /* \"#utility.yul\":641:665   */\n  tag_22\n    /* \"#utility.yul\":659:664   */\n  dup2\n    /* \"#utility.yul\":641:665   */\n  tag_11\n  jump\t// in\ntag_22:\n    /* \"#utility.yul\":634:639   */\n  dup2\n    /* \"#utility.yul\":631:666   */\n  eq\n    /* \"#utility.yul\":621:684   */\n  tag_23\n  jumpi\n    /* \"#utility.yul\":680:681   */\n  0x00\n    /* \"#utility.yul\":677:678   */\n  0x00\n    /* \"#utility.yul\":670:682   */\n  revert\n    /* \"#utility.yul\":621:684   */\ntag_23:\n    /* \"#utility.yul\":568:690   */\n  pop\n  jump\t// out\n    /* \"#utility.yul\":696:839   */\ntag_13:\n    /* \"#utility.yul\":753:758   */\n  0x00\n    /* \"#utility.yul\":784:790   */\n  dup2\n    /* \"#utility.yul\":778:791   */\n  mload\n    /* \"#utility.yul\":769:791   */\n  swap1\n  pop\n    /* \"#utility.yul\":800:833   */\n  tag_25\n    /* \"#utility.yul\":827:832   */\n  dup2\n    /* \"#utility.yul\":800:833   */\n  tag_12\n  jump\t// in\ntag_25:\n    /* \"#utility.yul\":696:839   */\n  swap3\n  swap2\n  pop\n  pop\n  jump\t// out\n    /* \"#utility.yul\":845:1352   */\ntag_3:\n    /* \"#utility.yul\":924:930   */\n  0x00\n    /* \"#utility.yul\":932:938   */\n  0x00\n    /* \"#utility.yul\":981:983   */\n  0x40\n    /* \"#utility.yul\":969:978   */\n  dup4\n    /* \"#utility.yul\":960:967   */\n  dup6\n    /* \"#utility.yul\":956:979   */\n  sub\n    /* \"#utility.yul\":952:984   */\n  slt\n    /* \"#utility.yul\":949:1068   */\n  iszero\n  tag_27\n  jumpi\n    /* \"#utility.yul\":987:1066   */\n  tag_28\n  tag_8\n  jump\t// in\ntag_28:\n    /* \"#utility.yul\":949:1068   */\ntag_27:\n    /* \"#utility.yul\":1107:1108   */\n  0x00\n    /* \"#utility.yul\":1132:1196   */\n  tag_29\n    /* \"#utility.yul\":1188:1195   */\n  dup6\n    /* \"#utility.yul\":1179:1185   */\n  dup3\n    /* \"#utility.yul\":1168:1177   */\n  dup7\n    /* \"#utility.yul\":1164:1186   */\n  add\n    /* \"#utility.yul\":1132:1196   */\n  tag_13\n  jump\t// in\ntag_29:\n    /* \"#utility.yul\":1122:1196   */\n  swap3\n  pop\n    /* \"#utility.yul\":1078:1206   */\n  pop\n    /* \"#utility.yul\":1245:1247   */\n  0x20\n    /* \"#utility.yul\":1271:1335   */\n  tag_30\n    /* \"#utility.yul\":1327:1334   */\n  dup6\n    /* \"#utility.yul\":1318:1324   */\n  dup3\n    /* \"#utility.yul\":1307:1316   */\n  dup7\n    /* \"#utility.yul\":1303:1325   */\n  add\n    /* \"#utility.yul\":1271:1335   */\n  tag_13\n  jump\t// in\ntag_30:\n    /* \"#utility.yul\":1261:1335   */\n  swap2\n  pop\n    /* \"#utility.yul\":1216:1345   */\n  pop\n    /* \"#utility.yul\":845:1352   */\n  swap3\n  pop\n  swap3\n  swap1\n  pop\n  jump\t// out\n    /* \"Taxpayer.sol\":49:12018  contract Taxpayer {... */\ntag_6:\n  mload(0x80)\n  mload(0xa0)\n  codecopy(0x00, dataOffset(sub_0), dataSize(sub_0))\n  0x00\n  assignImmutable(\"0xc1912fee45d61c87cc5ea59dae311904cd86b84fee17cc96966216f811ce6a79\")\n  0x00\n  assignImmutable(\"0x6be2aa321936c272e905a60cf786322052136e6e0ff4aeb1bdad00f3244d95d9\")\n  return(0x00, dataSize(sub_0))\nstop\n\nsub_0: assembly {\n        /* \"Taxpayer.sol\":49:12018  contract Taxpayer {... */\n      mstore(0x40, 0x80)\n      callvalue\n      dup1\n      iszero\n      tag_1\n      jumpi\n      revert(0x00, 0x00)\n    tag_1:\n      pop\n      jumpi(tag_2, lt(calldatasize, 0x04))\n      shr(0xe0, calldataload(0x00))\n      dup1\n      0x5f68c439\n      gt\n      tag_38\n      jumpi\n      dup1\n      0xc043decc\n      gt\n      tag_39\n      jumpi\n      dup1\n      0xd852545e\n      gt\n      tag_40\n      jumpi\n      dup1\n      0xd852545e\n      eq\n      tag_33\n      jumpi\n      dup1\n      0xdfb986a2\n      eq\n      tag_34\n      jumpi\n      dup1\n      0xdff44b2f\n      eq\n      tag_35\n      jumpi\n      dup1\n      0xf247e3de\n      eq\n      tag_36\n      jumpi\n      dup1\n      0xf7ec2f35\n      eq\n      tag_37\n      jumpi\n      jump(tag_2)\n    tag_40:\n      dup1\n      0xc043decc\n      eq\n      tag_29\n      jumpi\n      dup1\n      0xc800409f\n      eq\n      tag_30\n      jumpi\n      dup1\n      0xcb01a92b\n      eq\n      tag_31\n      jumpi\n      dup1\n      0xd25d32b6\n      eq\n      tag_32\n      jumpi\n      jump(tag_2)\n    tag_39:\n      dup1\n      0x8da5cb5b\n      gt\n      tag_41\n      jumpi\n      dup1\n      0x8da5cb5b\n      eq\n      tag_24\n      jumpi\n      dup1\n      0x967e6e65\n      eq\n      tag_25\n      jumpi\n      dup1\n      0xa2f1309e\n      eq\n      tag_26\n      jumpi\n      dup1\n      0xae81f068\n      eq\n      tag_27\n      jumpi\n      dup1\n      0xbccb358e\n      eq\n      tag_28\n      jumpi\n      jump(tag_2)\n    tag_41:\n      dup1\n      0x5f68c439\n      eq\n      tag_20\n      jumpi\n      dup1\n      0x6aa393f8\n      eq\n      tag_21\n      jumpi\n      dup1\n      0x790aa8de\n      eq\n      tag_22\n      jumpi\n      dup1\n      0x8bc87745\n      eq\n      tag_23\n      jumpi\n      jump(tag_2)\n    tag_38:\n      dup1\n      0x37f65b79\n      gt\n      tag_42\n      jumpi\n      dup1\n      0x4ad8a7ae\n      gt\n      tag_43\n      jumpi\n      dup1\n      0x4ad8a7ae\n      eq\n      tag_15\n      jumpi\n      dup1\n      0x4bc96425\n      eq\n      tag_16\n      jumpi\n      dup1\n      0x4f0b03f9\n      eq\n      tag_17\n      jumpi\n      dup1\n      0x594db753\n      eq\n      tag_18\n      jumpi\n      dup1\n      0x5976d63b\n      eq\n      tag_19\n      jumpi\n      jump(tag_2)\n    tag_43:\n      dup1\n      0x37f65b79\n      eq\n      tag_11\n      jumpi\n      dup1\n      0x38fb27ba\n      eq\n      tag_12\n      jumpi\n      dup1\n      0x3c876c25\n      eq\n      tag_13\n      jumpi\n      dup1\n      0x483a9310\n      eq\n      tag_14\n      jumpi\n      jump(tag_2)\n    tag_42:\n      dup1\n      0x1704031e\n      gt\n      tag_44\n      jumpi\n      dup1\n      0x1704031e\n      eq\n      tag_7\n      jumpi\n      dup1\n      0x25803d64\n      eq\n      tag_8\n      jumpi\n      dup1\n      0x27a80e0d\n      eq\n      tag_9\n      jumpi\n      dup1\n      0x308f838a\n      eq\n      tag_10\n      jumpi\n      jump(tag_2)\n    tag_44:\n      dup1\n      0x10731c65\n      eq\n      tag_3\n      jumpi\n      dup1\n      0x108ece4d\n      eq\n      tag_4\n      jumpi\n      dup1\n      0x13461762\n      eq\n      tag_5\n      jumpi\n      dup1\n      0x14b95631\n      eq\n      tag_6\n      jumpi\n    tag_2:\n      revert(0x00, 0x00)\n        /* \"Taxpayer.sol\":5147:5929  function echidna_mutual_marriage_and_flags() public view returns(bool) {... */\n    tag_3:\n      tag_45\n      tag_46\n      jump\t// in\n    tag_45:\n      mload(0x40)\n      tag_47\n      swap2\n      swap1\n      tag_48\n      jump\t// in\n    tag_47:\n      mload(0x40)\n      dup1\n      swap2\n      sub\n      swap1\n      return\n        /* \"Taxpayer.sol\":811:883  function getSpouse() public view returns(address) {... */\n    tag_4:\n      tag_49\n      tag_50\n      jump\t// in\n    tag_49:\n      mload(0x40)\n      tag_51\n      swap2\n      swap1\n      tag_52\n      jump\t// in\n    tag_51:\n      mload(0x40)\n      dup1\n      swap2\n      sub\n      swap1\n      return\n        /* \"Taxpayer.sol\":11139:11409  function revealLottery(address lot, uint256 r) public onlyOwner {... */\n    tag_5:\n      tag_53\n      0x04\n      dup1\n      calldatasize\n      sub\n      dup2\n      add\n      swap1\n      tag_54\n      swap2\n      swap1\n      tag_55\n      jump\t// in\n    tag_54:\n      tag_56\n      jump\t// in\n    tag_53:\n      stop\n        /* \"Taxpayer.sol\":1313:1386  function setIncome(uint _income) public onlyOwner {... */\n    tag_6:\n      tag_57\n      0x04\n      dup1\n      calldatasize\n      sub\n      dup2\n      add\n      swap1\n      tag_58\n      swap2\n      swap1\n      tag_59\n      jump\t// in\n    tag_58:\n      tag_60\n      jump\t// in\n    tag_57:\n      stop\n        /* \"Taxpayer.sol\":11461:11634  function applyOAPIfEligible() public onlyOwner {... */\n    tag_7:\n      tag_61\n      tag_62\n      jump\t// in\n    tag_61:\n      stop\n        /* \"Taxpayer.sol\":9930:10105  function setTaxAllowance(uint ta) public {... */\n    tag_8:\n      tag_63\n      0x04\n      dup1\n      calldatasize\n      sub\n      dup2\n      add\n      swap1\n      tag_64\n      swap2\n      swap1\n      tag_59\n      jump\t// in\n    tag_64:\n      tag_65\n      jump\t// in\n    tag_63:\n      stop\n        /* \"Taxpayer.sol\":4822:5036  function echidna_marriage_consistency() public view returns(bool) {... */\n    tag_9:\n      tag_66\n      tag_67\n      jump\t// in\n    tag_66:\n      mload(0x40)\n      tag_68\n      swap2\n      swap1\n      tag_48\n      jump\t// in\n    tag_68:\n      mload(0x40)\n      dup1\n      swap2\n      sub\n      swap1\n      return\n        /* \"Taxpayer.sol\":9546:9717  function receiveAllowance(uint amount, address from) public {... */\n    tag_10:\n      tag_69\n      0x04\n      dup1\n      calldatasize\n      sub\n      dup2\n      add\n      swap1\n      tag_70\n      swap2\n      swap1\n      tag_71\n      jump\t// in\n    tag_70:\n      tag_72\n      jump\t// in\n    tag_69:\n      stop\n        /* \"Taxpayer.sol\":9779:9925  function haveBirthday() public onlyOwner {... */\n    tag_11:\n      tag_73\n      tag_74\n      jump\t// in\n    tag_73:\n      stop\n        /* \"Taxpayer.sol\":4308:4540  function notifyDivorceFromPartner(address p) public {... */\n    tag_12:\n      tag_75\n      0x04\n      dup1\n      calldatasize\n      sub\n      dup2\n      add\n      swap1\n      tag_76\n      swap2\n      swap1\n      tag_77\n      jump\t// in\n    tag_76:\n      tag_78\n      jump\t// in\n    tag_75:\n      stop\n        /* \"Taxpayer.sol\":11708:11856  function taxableIncome() public view returns(uint) {... */\n    tag_13:\n      tag_79\n      tag_80\n      jump\t// in\n    tag_79:\n      mload(0x40)\n      tag_81\n      swap2\n      swap1\n      tag_82\n      jump\t// in\n    tag_81:\n      mload(0x40)\n      dup1\n      swap2\n      sub\n      swap1\n      return\n        /* \"Taxpayer.sol\":11885:12012  function calculateTax(uint value) public view returns (uint) {... */\n    tag_14:\n      tag_83\n      0x04\n      dup1\n      calldatasize\n      sub\n      dup2\n      add\n      swap1\n      tag_84\n      swap2\n      swap1\n      tag_59\n      jump\t// in\n    tag_84:\n      tag_85\n      jump\t// in\n    tag_83:\n      mload(0x40)\n      tag_86\n      swap2\n      swap1\n      tag_82\n      jump\t// in\n    tag_86:\n      mload(0x40)\n      dup1\n      swap2\n      sub\n      swap1\n      return\n        /* \"Taxpayer.sol\":10772:11133  function joinLottery(address lot, uint256 r) public onlyOwner {... */\n    tag_15:\n      tag_87\n      0x04\n      dup1\n      calldatasize\n      sub\n      dup2\n      add\n      swap1\n      tag_88\n      swap2\n      swap1\n      tag_55\n      jump\t// in\n    tag_88:\n      tag_89\n      jump\t// in\n    tag_87:\n      stop\n        /* \"Taxpayer.sol\":6544:6648  function echidna_owner_is_constant() public view returns (bool) {... */\n    tag_16:\n      tag_90\n      tag_91\n      jump\t// in\n    tag_90:\n      mload(0x40)\n      tag_92\n      swap2\n      swap1\n      tag_48\n      jump\t// in\n    tag_92:\n      mload(0x40)\n      dup1\n      swap2\n      sub\n      swap1\n      return\n        /* \"Taxpayer.sol\":1257:1311  function setSpouse(address a) public {... */\n    tag_17:\n      tag_93\n      0x04\n      dup1\n      calldatasize\n      sub\n      dup2\n      add\n      swap1\n      tag_94\n      swap2\n      swap1\n      tag_77\n      jump\t// in\n    tag_94:\n      tag_95\n      jump\t// in\n    tag_93:\n      stop\n        /* \"Taxpayer.sol\":1083:1182  function getDefaultAllowance() public view returns (uint) {... */\n    tag_18:\n      tag_96\n      tag_97\n      jump\t// in\n    tag_96:\n      mload(0x40)\n      tag_98\n      swap2\n      swap1\n      tag_82\n      jump\t// in\n    tag_98:\n      mload(0x40)\n      dup1\n      swap2\n      sub\n      swap1\n      return\n        /* \"Taxpayer.sol\":6748:6841  function echidna_iscontract_is_true() public view returns (bool) {... */\n    tag_19:\n      tag_99\n      tag_100\n      jump\t// in\n    tag_99:\n      mload(0x40)\n      tag_101\n      swap2\n      swap1\n      tag_48\n      jump\t// in\n    tag_101:\n      mload(0x40)\n      dup1\n      swap2\n      sub\n      swap1\n      return\n        /* \"Taxpayer.sol\":9139:9542  function transferAllowance(uint change) public onlyOwner {... */\n    tag_20:\n      tag_102\n      0x04\n      dup1\n      calldatasize\n      sub\n      dup2\n      add\n      swap1\n      tag_103\n      swap2\n      swap1\n      tag_59\n      jump\t// in\n    tag_103:\n      tag_104\n      jump\t// in\n    tag_102:\n      stop\n        /* \"Taxpayer.sol\":955:1081  function getInitialTaxAllowance() public view returns (uint) {... */\n    tag_21:\n      tag_105\n      tag_106\n      jump\t// in\n    tag_105:\n      mload(0x40)\n      tag_107\n      swap2\n      swap1\n      tag_82\n      jump\t// in\n    tag_107:\n      mload(0x40)\n      dup1\n      swap2\n      sub\n      swap1\n      return\n        /* \"Taxpayer.sol\":8554:9082  function echidna_commit_consistency(address lot) public view returns (bool) {... */\n    tag_22:\n      tag_108\n      0x04\n      dup1\n      calldatasize\n      sub\n      dup2\n      add\n      swap1\n      tag_109\n      swap2\n      swap1\n      tag_77\n      jump\t// in\n    tag_109:\n      tag_110\n      jump\t// in\n    tag_108:\n      mload(0x40)\n      tag_111\n      swap2\n      swap1\n      tag_48\n      jump\t// in\n    tag_111:\n      mload(0x40)\n      dup1\n      swap2\n      sub\n      swap1\n      return\n        /* \"Taxpayer.sol\":734:809  function getIsMarried() public view returns(bool) {... */\n    tag_23:\n      tag_112\n      tag_113\n      jump\t// in\n    tag_112:\n      mload(0x40)\n      tag_114\n      swap2\n      swap1\n      tag_48\n      jump\t// in\n    tag_114:\n      mload(0x40)\n      dup1\n      swap2\n      sub\n      swap1\n      return\n        /* \"Taxpayer.sol\":249:269  address public owner */\n    tag_24:\n      tag_115\n      tag_116\n      jump\t// in\n    tag_115:\n      mload(0x40)\n      tag_117\n      swap2\n      swap1\n      tag_52\n      jump\t// in\n    tag_117:\n      mload(0x40)\n      dup1\n      swap2\n      sub\n      swap1\n      return\n        /* \"Taxpayer.sol\":1184:1246  function getAge() public view returns (uint) {... */\n    tag_25:\n      tag_118\n      tag_119\n      jump\t// in\n    tag_118:\n      mload(0x40)\n      tag_120\n      swap2\n      swap1\n      tag_82\n      jump\t// in\n    tag_120:\n      mload(0x40)\n      dup1\n      swap2\n      sub\n      swap1\n      return\n        /* \"Taxpayer.sol\":6280:6475  function echidna_no_tax_below_allowance() public view returns (bool) {... */\n    tag_26:\n      tag_121\n      tag_122\n      jump\t// in\n    tag_121:\n      mload(0x40)\n      tag_123\n      swap2\n      swap1\n      tag_48\n      jump\t// in\n    tag_123:\n      mload(0x40)\n      dup1\n      swap2\n      sub\n      swap1\n      return\n        /* \"Taxpayer.sol\":6925:7172  function echidna_age_allowance_base_consistency_single() public view returns (bool) {... */\n    tag_27:\n      tag_124\n      tag_125\n      jump\t// in\n    tag_124:\n      mload(0x40)\n      tag_126\n      swap2\n      swap1\n      tag_48\n      jump\t// in\n    tag_126:\n      mload(0x40)\n      dup1\n      swap2\n      sub\n      swap1\n      return\n        /* \"Taxpayer.sol\":2050:3488  function marry(address new_spouse) public onlyOwner {... */\n    tag_28:\n      tag_127\n      0x04\n      dup1\n      calldatasize\n      sub\n      dup2\n      add\n      swap1\n      tag_128\n      swap2\n      swap1\n      tag_77\n      jump\t// in\n    tag_128:\n      tag_129\n      jump\t// in\n    tag_127:\n      stop\n        /* \"Taxpayer.sol\":10602:10686  function getTaxAllowance() public view returns(uint) {... */\n    tag_29:\n      tag_130\n      tag_131\n      jump\t// in\n    tag_130:\n      mload(0x40)\n      tag_132\n      swap2\n      swap1\n      tag_82\n      jump\t// in\n    tag_132:\n      mload(0x40)\n      dup1\n      swap2\n      sub\n      swap1\n      return\n        /* \"Taxpayer.sol\":6144:6276  function echidna_taxable_non_negative() public view returns (bool) {... */\n    tag_30:\n      tag_133\n      tag_134\n      jump\t// in\n    tag_133:\n      mload(0x40)\n      tag_135\n      swap2\n      swap1\n      tag_48\n      jump\t// in\n    tag_135:\n      mload(0x40)\n      dup1\n      swap2\n      sub\n      swap1\n      return\n        /* \"Taxpayer.sol\":3541:3717  function updateMarriageFromPartner(address partner) public {... */\n    tag_31:\n      tag_136\n      0x04\n      dup1\n      calldatasize\n      sub\n      dup2\n      add\n      swap1\n      tag_137\n      swap2\n      swap1\n      tag_77\n      jump\t// in\n    tag_137:\n      tag_138\n      jump\t// in\n    tag_136:\n      stop\n        /* \"Taxpayer.sol\":4610:4740  function setTaxAllowanceBySpouse(uint ta) public {... */\n    tag_32:\n      tag_139\n      0x04\n      dup1\n      calldatasize\n      sub\n      dup2\n      add\n      swap1\n      tag_140\n      swap2\n      swap1\n      tag_59\n      jump\t// in\n    tag_140:\n      tag_141\n      jump\t// in\n    tag_139:\n      stop\n        /* \"Taxpayer.sol\":7246:8497  function echidna_spousal_allowance_sum_constant() public view returns (bool) {... */\n    tag_33:\n      tag_142\n      tag_143\n      jump\t// in\n    tag_142:\n      mload(0x40)\n      tag_144\n      swap2\n      swap1\n      tag_48\n      jump\t// in\n    tag_144:\n      mload(0x40)\n      dup1\n      swap2\n      sub\n      swap1\n      return\n        /* \"Taxpayer.sol\":5981:6084  function echidna_not_self_spouse() public view returns (bool) {... */\n    tag_34:\n      tag_145\n      tag_146\n      jump\t// in\n    tag_145:\n      mload(0x40)\n      tag_147\n      swap2\n      swap1\n      tag_48\n      jump\t// in\n    tag_147:\n      mload(0x40)\n      dup1\n      swap2\n      sub\n      swap1\n      return\n        /* \"Taxpayer.sol\":3722:4305  function divorce() public onlyOwner {... */\n    tag_35:\n      tag_148\n      tag_149\n      jump\t// in\n    tag_148:\n      stop\n        /* \"Taxpayer.sol\":885:953  function getIncome() public view returns (uint) {... */\n    tag_36:\n      tag_150\n      tag_151\n      jump\t// in\n    tag_150:\n      mload(0x40)\n      tag_152\n      swap2\n      swap1\n      tag_82\n      jump\t// in\n    tag_152:\n      mload(0x40)\n      dup1\n      swap2\n      sub\n      swap1\n      return\n        /* \"Taxpayer.sol\":10691:10766  function isContract() public view returns(bool){... */\n    tag_37:\n      tag_153\n      tag_154\n      jump\t// in\n    tag_153:\n      mload(0x40)\n      tag_155\n      swap2\n      swap1\n      tag_48\n      jump\t// in\n    tag_155:\n      mload(0x40)\n      dup1\n      swap2\n      sub\n      swap1\n      return\n        /* \"Taxpayer.sol\":5147:5929  function echidna_mutual_marriage_and_flags() public view returns(bool) {... */\n    tag_46:\n        /* \"Taxpayer.sol\":5212:5216  bool */\n      0x00\n        /* \"Taxpayer.sol\":5245:5246  0 */\n      0x00\n        /* \"Taxpayer.sol\":5227:5247  spouse == address(0) */\n      0xffffffffffffffffffffffffffffffffffffffff\n      and\n        /* \"Taxpayer.sol\":5227:5233  spouse */\n      0x01\n      0x02\n      swap1\n      sload\n      swap1\n      0x0100\n      exp\n      swap1\n      div\n      0xffffffffffffffffffffffffffffffffffffffff\n      and\n        /* \"Taxpayer.sol\":5227:5247  spouse == address(0) */\n      0xffffffffffffffffffffffffffffffffffffffff\n      and\n      sub\n        /* \"Taxpayer.sol\":5224:5354  if(spouse == address(0)) {... */\n      tag_157\n      jumpi\n        /* \"Taxpayer.sol\":5338:5347  isMarried */\n      0x01\n      0x00\n      swap1\n      sload\n      swap1\n      0x0100\n      exp\n      swap1\n      div\n      0xff\n      and\n        /* \"Taxpayer.sol\":5337:5347  !isMarried */\n      iszero\n        /* \"Taxpayer.sol\":5330:5347  return !isMarried */\n      swap1\n      pop\n      jump(tag_156)\n        /* \"Taxpayer.sol\":5224:5354  if(spouse == address(0)) {... */\n    tag_157:\n        /* \"Taxpayer.sol\":5397:5406  isMarried */\n      0x01\n      0x00\n      swap1\n      sload\n      swap1\n      0x0100\n      exp\n      swap1\n      div\n      0xff\n      and\n        /* \"Taxpayer.sol\":5393:5435  if(!isMarried) {... */\n      tag_158\n      jumpi\n        /* \"Taxpayer.sol\":5423:5428  false */\n      0x00\n        /* \"Taxpayer.sol\":5416:5428  return false */\n      swap1\n      pop\n      jump(tag_156)\n        /* \"Taxpayer.sol\":5393:5435  if(!isMarried) {... */\n    tag_158:\n        /* \"Taxpayer.sol\":5514:5530  Taxpayer partner */\n      0x00\n        /* \"Taxpayer.sol\":5542:5548  spouse */\n      0x01\n      0x02\n      swap1\n      sload\n      swap1\n      0x0100\n      exp\n      swap1\n      div\n      0xffffffffffffffffffffffffffffffffffffffff\n      and\n        /* \"Taxpayer.sol\":5514:5549  Taxpayer partner = Taxpayer(spouse) */\n      swap1\n      pop\n        /* \"Taxpayer.sol\":5625:5632  partner */\n      dup1\n        /* \"Taxpayer.sol\":5625:5642  partner.getSpouse */\n      0xffffffffffffffffffffffffffffffffffffffff\n      and\n      0x108ece4d\n        /* \"Taxpayer.sol\":5625:5644  partner.getSpouse() */\n      mload(0x40)\n      dup2\n      0xffffffff\n      and\n      0xe0\n      shl\n      dup2\n      mstore\n      0x04\n      add\n      0x20\n      mload(0x40)\n      dup1\n      dup4\n      sub\n      dup2\n      dup7\n      gas\n      staticcall\n      swap3\n      pop\n      pop\n      pop\n      dup1\n      iszero\n      tag_159\n      jumpi\n      pop\n      mload(0x40)\n      returndatasize\n      not(0x1f)\n      0x1f\n      dup3\n      add\n      and\n      dup3\n      add\n      dup1\n      0x40\n      mstore\n      pop\n      dup2\n      add\n      swap1\n      tag_160\n      swap2\n      swap1\n      tag_161\n      jump\t// in\n    tag_160:\n      0x01\n    tag_159:\n        /* \"Taxpayer.sol\":5621:5769  try partner.getSpouse() returns (address ps) {... */\n      tag_162\n      jumpi\n        /* \"Taxpayer.sol\":5757:5762  false */\n      0x00\n        /* \"Taxpayer.sol\":5750:5762  return false */\n      swap2\n      pop\n      pop\n      jump(tag_156)\n        /* \"Taxpayer.sol\":5621:5769  try partner.getSpouse() returns (address ps) {... */\n    tag_162:\n        /* \"Taxpayer.sol\":5691:5695  this */\n      address\n        /* \"Taxpayer.sol\":5677:5696  ps != address(this) */\n      0xffffffffffffffffffffffffffffffffffffffff\n      and\n        /* \"Taxpayer.sol\":5677:5679  ps */\n      dup2\n        /* \"Taxpayer.sol\":5677:5696  ps != address(this) */\n      0xffffffffffffffffffffffffffffffffffffffff\n      and\n      eq\n        /* \"Taxpayer.sol\":5674:5729  if(ps != address(this)) {... */\n      tag_167\n      jumpi\n        /* \"Taxpayer.sol\":5715:5720  false */\n      0x00\n        /* \"Taxpayer.sol\":5708:5720  return false */\n      swap3\n      pop\n      pop\n      pop\n      jump(tag_156)\n        /* \"Taxpayer.sol\":5674:5729  if(ps != address(this)) {... */\n    tag_167:\n        /* \"Taxpayer.sol\":5645:5735  returns (address ps) {... */\n      pop\n        /* \"Taxpayer.sol\":5779:5786  partner */\n      dup1\n        /* \"Taxpayer.sol\":5779:5799  partner.getIsMarried */\n      0xffffffffffffffffffffffffffffffffffffffff\n      and\n      0x8bc87745\n        /* \"Taxpayer.sol\":5779:5801  partner.getIsMarried() */\n      mload(0x40)\n      dup2\n      0xffffffff\n      and\n      0xe0\n      shl\n      dup2\n      mstore\n      0x04\n      add\n      0x20\n      mload(0x40)\n      dup1\n      dup4\n      sub\n      dup2\n      dup7\n      gas\n      staticcall\n      swap3\n      pop\n      pop\n      pop\n      dup1\n      iszero\n      tag_168\n      jumpi\n      pop\n      mload(0x40)\n      returndatasize\n      not(0x1f)\n      0x1f\n      dup3\n      add\n      and\n      dup3\n      add\n      dup1\n      0x40\n      mstore\n      pop\n      dup2\n      add\n      swap1\n      tag_169\n      swap2\n      swap1\n      tag_170\n      jump\t// in\n    tag_169:\n      0x01\n    tag_168:\n        /* \"Taxpayer.sol\":5775:5907  try partner.getIsMarried() returns (bool pm) {... */\n      tag_171\n      jumpi\n        /* \"Taxpayer.sol\":5895:5900  false */\n      0x00\n        /* \"Taxpayer.sol\":5888:5900  return false */\n      swap2\n      pop\n      pop\n      jump(tag_156)\n        /* \"Taxpayer.sol\":5775:5907  try partner.getIsMarried() returns (bool pm) {... */\n    tag_171:\n        /* \"Taxpayer.sol\":5832:5834  pm */\n      dup1\n        /* \"Taxpayer.sol\":5828:5867  if(!pm) {... */\n      tag_176\n      jumpi\n        /* \"Taxpayer.sol\":5853:5858  false */\n      0x00\n        /* \"Taxpayer.sol\":5846:5858  return false */\n      swap3\n      pop\n      pop\n      pop\n      jump(tag_156)\n        /* \"Taxpayer.sol\":5828:5867  if(!pm) {... */\n    tag_176:\n        /* \"Taxpayer.sol\":5802:5873  returns (bool pm) {... */\n      pop\n        /* \"Taxpayer.sol\":5920:5924  true */\n      0x01\n        /* \"Taxpayer.sol\":5913:5924  return true */\n      swap2\n      pop\n      pop\n        /* \"Taxpayer.sol\":5147:5929  function echidna_mutual_marriage_and_flags() public view returns(bool) {... */\n    tag_156:\n      swap1\n      jump\t// out\n        /* \"Taxpayer.sol\":811:883  function getSpouse() public view returns(address) {... */\n    tag_50:\n        /* \"Taxpayer.sol\":852:859  address */\n      0x00\n        /* \"Taxpayer.sol\":874:880  spouse */\n      0x01\n      0x02\n      swap1\n      sload\n      swap1\n      0x0100\n      exp\n      swap1\n      div\n      0xffffffffffffffffffffffffffffffffffffffff\n      and\n        /* \"Taxpayer.sol\":867:880  return spouse */\n      swap1\n      pop\n        /* \"Taxpayer.sol\":811:883  function getSpouse() public view returns(address) {... */\n      swap1\n      jump\t// out\n        /* \"Taxpayer.sol\":11139:11409  function revealLottery(address lot, uint256 r) public onlyOwner {... */\n    tag_56:\n        /* \"Taxpayer.sol\":1936:1941  owner */\n      0x04\n      0x00\n      swap1\n      sload\n      swap1\n      0x0100\n      exp\n      swap1\n      div\n      0xffffffffffffffffffffffffffffffffffffffff\n      and\n        /* \"Taxpayer.sol\":1922:1941  msg.sender == owner */\n      0xffffffffffffffffffffffffffffffffffffffff\n      and\n        /* \"Taxpayer.sol\":1922:1932  msg.sender */\n      caller\n        /* \"Taxpayer.sol\":1922:1941  msg.sender == owner */\n      0xffffffffffffffffffffffffffffffffffffffff\n      and\n      eq\n        /* \"Taxpayer.sol\":1914:1956  require(msg.sender == owner, \"Only owner\") */\n      tag_179\n      jumpi\n      mload(0x40)\n      0x08c379a000000000000000000000000000000000000000000000000000000000\n      dup2\n      mstore\n      0x04\n      add\n      tag_180\n      swap1\n      tag_181\n      jump\t// in\n    tag_180:\n      mload(0x40)\n      dup1\n      swap2\n      sub\n      swap1\n      revert\n    tag_179:\n        /* \"Taxpayer.sol\":11232:11233  0 */\n      0x00\n        /* \"Taxpayer.sol\":11217:11234  lot != address(0) */\n      0xffffffffffffffffffffffffffffffffffffffff\n      and\n        /* \"Taxpayer.sol\":11217:11220  lot */\n      dup3\n        /* \"Taxpayer.sol\":11217:11234  lot != address(0) */\n      0xffffffffffffffffffffffffffffffffffffffff\n      and\n      sub\n        /* \"Taxpayer.sol\":11209:11250  require(lot != address(0), \"Invalid lot\") */\n      tag_183\n      jumpi\n      mload(0x40)\n      0x08c379a000000000000000000000000000000000000000000000000000000000\n      dup2\n      mstore\n      0x04\n      add\n      tag_184\n      swap1\n      tag_185\n      jump\t// in\n    tag_184:\n      mload(0x40)\n      dup1\n      swap2\n      sub\n      swap1\n      revert\n    tag_183:\n        /* \"Taxpayer.sol\":11271:11272  0 */\n      0x00\n        /* \"Taxpayer.sol\":11264:11267  rev */\n      sload(0x07)\n        /* \"Taxpayer.sol\":11264:11272  rev != 0 */\n      sub\n        /* \"Taxpayer.sol\":11256:11296  require(rev != 0, \"No committed reveal\") */\n      tag_186\n      jumpi\n      mload(0x40)\n      0x08c379a000000000000000000000000000000000000000000000000000000000\n      dup2\n      mstore\n      0x04\n      add\n      tag_187\n      swap1\n      tag_188\n      jump\t// in\n    tag_187:\n      mload(0x40)\n      dup1\n      swap2\n      sub\n      swap1\n      revert\n    tag_186:\n        /* \"Taxpayer.sol\":11315:11318  lot */\n      dup2\n        /* \"Taxpayer.sol\":11307:11326  Lottery(lot).reveal */\n      0xffffffffffffffffffffffffffffffffffffffff\n      and\n      0xc2ca0ac5\n        /* \"Taxpayer.sol\":11327:11328  r */\n      dup3\n        /* \"Taxpayer.sol\":11307:11329  Lottery(lot).reveal(r) */\n      mload(0x40)\n      dup3\n      0xffffffff\n      and\n      0xe0\n      shl\n      dup2\n      mstore\n      0x04\n      add\n      tag_189\n      swap2\n      swap1\n      tag_82\n      jump\t// in\n    tag_189:\n      0x00\n      mload(0x40)\n      dup1\n      dup4\n      sub\n      dup2\n      0x00\n      dup8\n      dup1\n      extcodesize\n      iszero\n      dup1\n      iszero\n      tag_190\n      jumpi\n      revert(0x00, 0x00)\n    tag_190:\n      pop\n      gas\n      call\n      swap3\n      pop\n      pop\n      pop\n      dup1\n      iszero\n      tag_191\n      jumpi\n      pop\n      0x01\n    tag_191:\n        /* \"Taxpayer.sol\":11303:11405  try Lottery(lot).reveal(r) {... */\n      tag_192\n      jumpi\n        /* \"Taxpayer.sol\":11367:11398  revert(\"Lottery reveal failed\") */\n      mload(0x40)\n      0x08c379a000000000000000000000000000000000000000000000000000000000\n      dup2\n      mstore\n      0x04\n      add\n      tag_196\n      swap1\n      tag_197\n      jump\t// in\n    tag_196:\n      mload(0x40)\n      dup1\n      swap2\n      sub\n      swap1\n      revert\n        /* \"Taxpayer.sol\":11303:11405  try Lottery(lot).reveal(r) {... */\n    tag_192:\n        /* \"Taxpayer.sol\":11344:11345  0 */\n      0x00\n        /* \"Taxpayer.sol\":11338:11341  rev */\n      0x07\n        /* \"Taxpayer.sol\":11338:11345  rev = 0 */\n      dup2\n      swap1\n      sstore\n      pop\n        /* \"Taxpayer.sol\":11139:11409  function revealLottery(address lot, uint256 r) public onlyOwner {... */\n      pop\n      pop\n      jump\t// out\n        /* \"Taxpayer.sol\":1313:1386  function setIncome(uint _income) public onlyOwner {... */\n    tag_60:\n        /* \"Taxpayer.sol\":1936:1941  owner */\n      0x04\n      0x00\n      swap1\n      sload\n      swap1\n      0x0100\n      exp\n      swap1\n      div\n      0xffffffffffffffffffffffffffffffffffffffff\n      and\n        /* \"Taxpayer.sol\":1922:1941  msg.sender == owner */\n      0xffffffffffffffffffffffffffffffffffffffff\n      and\n        /* \"Taxpayer.sol\":1922:1932  msg.sender */\n      caller\n        /* \"Taxpayer.sol\":1922:1941  msg.sender == owner */\n      0xffffffffffffffffffffffffffffffffffffffff\n      and\n      eq\n        /* \"Taxpayer.sol\":1914:1956  require(msg.sender == owner, \"Only owner\") */\n      tag_200\n      jumpi\n      mload(0x40)\n      0x08c379a000000000000000000000000000000000000000000000000000000000\n      dup2\n      mstore\n      0x04\n      add\n      tag_201\n      swap1\n      tag_181\n      jump\t// in\n    tag_201:\n      mload(0x40)\n      dup1\n      swap2\n      sub\n      swap1\n      revert\n    tag_200:\n        /* \"Taxpayer.sol\":1376:1383  _income */\n      dup1\n        /* \"Taxpayer.sol\":1367:1373  income */\n      0x06\n        /* \"Taxpayer.sol\":1367:1383  income = _income */\n      dup2\n      swap1\n      sstore\n      pop\n        /* \"Taxpayer.sol\":1313:1386  function setIncome(uint _income) public onlyOwner {... */\n      pop\n      jump\t// out\n        /* \"Taxpayer.sol\":11461:11634  function applyOAPIfEligible() public onlyOwner {... */\n    tag_62:\n        /* \"Taxpayer.sol\":1936:1941  owner */\n      0x04\n      0x00\n      swap1\n      sload\n      swap1\n      0x0100\n      exp\n      swap1\n      div\n      0xffffffffffffffffffffffffffffffffffffffff\n      and\n        /* \"Taxpayer.sol\":1922:1941  msg.sender == owner */\n      0xffffffffffffffffffffffffffffffffffffffff\n      and\n        /* \"Taxpayer.sol\":1922:1932  msg.sender */\n      caller\n        /* \"Taxpayer.sol\":1922:1941  msg.sender == owner */\n      0xffffffffffffffffffffffffffffffffffffffff\n      and\n      eq\n        /* \"Taxpayer.sol\":1914:1956  require(msg.sender == owner, \"Only owner\") */\n      tag_204\n      jumpi\n      mload(0x40)\n      0x08c379a000000000000000000000000000000000000000000000000000000000\n      dup2\n      mstore\n      0x04\n      add\n      tag_205\n      swap1\n      tag_181\n      jump\t// in\n    tag_205:\n      mload(0x40)\n      dup1\n      swap2\n      sub\n      swap1\n      revert\n    tag_204:\n        /* \"Taxpayer.sol\":11524:11526  65 */\n      0x41\n        /* \"Taxpayer.sol\":11517:11520  age */\n      sload(0x00)\n        /* \"Taxpayer.sol\":11517:11526  age >= 65 */\n      lt\n        /* \"Taxpayer.sol\":11514:11630  if(age >= 65) {... */\n      tag_207\n      jumpi\n        /* \"Taxpayer.sol\":524:528  7000 */\n      0x1b58\n        /* \"Taxpayer.sol\":11536:11549  tax_allowance */\n      0x05\n        /* \"Taxpayer.sol\":11536:11565  tax_allowance = ALLOWANCE_OAP */\n      dup2\n      swap1\n      sstore\n      pop\n        /* \"Taxpayer.sol\":11514:11630  if(age >= 65) {... */\n      jump(tag_208)\n    tag_207:\n        /* \"Taxpayer.sol\":420:424  5000 */\n      0x1388\n        /* \"Taxpayer.sol\":11590:11603  tax_allowance */\n      0x05\n        /* \"Taxpayer.sol\":11590:11623  tax_allowance = DEFAULT_ALLOWANCE */\n      dup2\n      swap1\n      sstore\n      pop\n        /* \"Taxpayer.sol\":11514:11630  if(age >= 65) {... */\n    tag_208:\n        /* \"Taxpayer.sol\":11461:11634  function applyOAPIfEligible() public onlyOwner {... */\n      jump\t// out\n        /* \"Taxpayer.sol\":9930:10105  function setTaxAllowance(uint ta) public {... */\n    tag_65:\n        /* \"Taxpayer.sol\":9999:10004  owner */\n      0x04\n      0x00\n      swap1\n      sload\n      swap1\n      0x0100\n      exp\n      swap1\n      div\n      0xffffffffffffffffffffffffffffffffffffffff\n      and\n        /* \"Taxpayer.sol\":9985:10004  msg.sender == owner */\n      0xffffffffffffffffffffffffffffffffffffffff\n      and\n        /* \"Taxpayer.sol\":9985:9995  msg.sender */\n      caller\n        /* \"Taxpayer.sol\":9985:10004  msg.sender == owner */\n      0xffffffffffffffffffffffffffffffffffffffff\n      and\n      eq\n        /* \"Taxpayer.sol\":9985:10028  msg.sender == owner || msg.sender == spouse */\n      dup1\n      tag_210\n      jumpi\n      pop\n        /* \"Taxpayer.sol\":10022:10028  spouse */\n      0x01\n      0x02\n      swap1\n      sload\n      swap1\n      0x0100\n      exp\n      swap1\n      div\n      0xffffffffffffffffffffffffffffffffffffffff\n      and\n        /* \"Taxpayer.sol\":10008:10028  msg.sender == spouse */\n      0xffffffffffffffffffffffffffffffffffffffff\n      and\n        /* \"Taxpayer.sol\":10008:10018  msg.sender */\n      caller\n        /* \"Taxpayer.sol\":10008:10028  msg.sender == spouse */\n      0xffffffffffffffffffffffffffffffffffffffff\n      and\n      eq\n        /* \"Taxpayer.sol\":9985:10028  msg.sender == owner || msg.sender == spouse */\n    tag_210:\n        /* \"Taxpayer.sol\":9985:10064  msg.sender == owner || msg.sender == spouse || isAuthorizedContract(msg.sender) */\n      dup1\n      tag_211\n      jumpi\n      pop\n        /* \"Taxpayer.sol\":10032:10064  isAuthorizedContract(msg.sender) */\n      tag_212\n        /* \"Taxpayer.sol\":10053:10063  msg.sender */\n      caller\n        /* \"Taxpayer.sol\":10032:10052  isAuthorizedContract */\n      tag_213\n        /* \"Taxpayer.sol\":10032:10064  isAuthorizedContract(msg.sender) */\n      jump\t// in\n    tag_212:\n        /* \"Taxpayer.sol\":9985:10064  msg.sender == owner || msg.sender == spouse || isAuthorizedContract(msg.sender) */\n    tag_211:\n        /* \"Taxpayer.sol\":9977:10100  require(msg.sender == owner || msg.sender == spouse || isAuthorizedContract(msg.sender), \"Not authorized to set allowance\") */\n      tag_214\n      jumpi\n      mload(0x40)\n      0x08c379a000000000000000000000000000000000000000000000000000000000\n      dup2\n      mstore\n      0x04\n      add\n      tag_215\n      swap1\n      tag_216\n      jump\t// in\n    tag_215:\n      mload(0x40)\n      dup1\n      swap2\n      sub\n      swap1\n      revert\n    tag_214:\n        /* \"Taxpayer.sol\":9930:10105  function setTaxAllowance(uint ta) public {... */\n      pop\n      jump\t// out\n        /* \"Taxpayer.sol\":4822:5036  function echidna_marriage_consistency() public view returns(bool) {... */\n    tag_67:\n        /* \"Taxpayer.sol\":4882:4886  bool */\n      0x00\n        /* \"Taxpayer.sol\":4915:4916  0 */\n      0x00\n        /* \"Taxpayer.sol\":4897:4917  spouse == address(0) */\n      0xffffffffffffffffffffffffffffffffffffffff\n      and\n        /* \"Taxpayer.sol\":4897:4903  spouse */\n      0x01\n      0x02\n      swap1\n      sload\n      swap1\n      0x0100\n      exp\n      swap1\n      div\n      0xffffffffffffffffffffffffffffffffffffffff\n      and\n        /* \"Taxpayer.sol\":4897:4917  spouse == address(0) */\n      0xffffffffffffffffffffffffffffffffffffffff\n      and\n      sub\n        /* \"Taxpayer.sol\":4894:4936  if(spouse == address(0))... */\n      tag_218\n      jumpi\n        /* \"Taxpayer.sol\":4932:4936  true */\n      0x01\n        /* \"Taxpayer.sol\":4925:4936  return true */\n      swap1\n      pop\n      jump(tag_217)\n        /* \"Taxpayer.sol\":4894:4936  if(spouse == address(0))... */\n    tag_218:\n        /* \"Taxpayer.sol\":4947:4963  Taxpayer partner */\n      0x00\n        /* \"Taxpayer.sol\":4975:4981  spouse */\n      0x01\n      0x02\n      swap1\n      sload\n      swap1\n      0x0100\n      exp\n      swap1\n      div\n      0xffffffffffffffffffffffffffffffffffffffff\n      and\n        /* \"Taxpayer.sol\":4947:4982  Taxpayer partner = Taxpayer(spouse) */\n      swap1\n      pop\n        /* \"Taxpayer.sol\":5026:5030  this */\n      address\n        /* \"Taxpayer.sol\":4995:5031  partner.getSpouse() == address(this) */\n      0xffffffffffffffffffffffffffffffffffffffff\n      and\n        /* \"Taxpayer.sol\":4995:5002  partner */\n      dup2\n        /* \"Taxpayer.sol\":4995:5012  partner.getSpouse */\n      0xffffffffffffffffffffffffffffffffffffffff\n      and\n      0x108ece4d\n        /* \"Taxpayer.sol\":4995:5014  partner.getSpouse() */\n      mload(0x40)\n      dup2\n      0xffffffff\n      and\n      0xe0\n      shl\n      dup2\n      mstore\n      0x04\n      add\n      0x20\n      mload(0x40)\n      dup1\n      dup4\n      sub\n      dup2\n      dup7\n      gas\n      staticcall\n      iszero\n      dup1\n      iszero\n      tag_220\n      jumpi\n      returndatacopy(0x00, 0x00, returndatasize)\n      revert(0x00, returndatasize)\n    tag_220:\n      pop\n      pop\n      pop\n      pop\n      mload(0x40)\n      returndatasize\n      not(0x1f)\n      0x1f\n      dup3\n      add\n      and\n      dup3\n      add\n      dup1\n      0x40\n      mstore\n      pop\n      dup2\n      add\n      swap1\n      tag_221\n      swap2\n      swap1\n      tag_161\n      jump\t// in\n    tag_221:\n        /* \"Taxpayer.sol\":4995:5031  partner.getSpouse() == address(this) */\n      0xffffffffffffffffffffffffffffffffffffffff\n      and\n      eq\n        /* \"Taxpayer.sol\":4988:5031  return partner.getSpouse() == address(this) */\n      swap2\n      pop\n      pop\n        /* \"Taxpayer.sol\":4822:5036  function echidna_marriage_consistency() public view returns(bool) {... */\n    tag_217:\n      swap1\n      jump\t// out\n        /* \"Taxpayer.sol\":9546:9717  function receiveAllowance(uint amount, address from) public {... */\n    tag_72:\n        /* \"Taxpayer.sol\":9632:9638  spouse */\n      0x01\n      0x02\n      swap1\n      sload\n      swap1\n      0x0100\n      exp\n      swap1\n      div\n      0xffffffffffffffffffffffffffffffffffffffff\n      and\n        /* \"Taxpayer.sol\":9618:9638  msg.sender == spouse */\n      0xffffffffffffffffffffffffffffffffffffffff\n      and\n        /* \"Taxpayer.sol\":9618:9628  msg.sender */\n      caller\n        /* \"Taxpayer.sol\":9618:9638  msg.sender == spouse */\n      0xffffffffffffffffffffffffffffffffffffffff\n      and\n      eq\n        /* \"Taxpayer.sol\":9618:9660  msg.sender == spouse || msg.sender == from */\n      dup1\n      tag_223\n      jumpi\n      pop\n        /* \"Taxpayer.sol\":9656:9660  from */\n      dup1\n        /* \"Taxpayer.sol\":9642:9660  msg.sender == from */\n      0xffffffffffffffffffffffffffffffffffffffff\n      and\n        /* \"Taxpayer.sol\":9642:9652  msg.sender */\n      caller\n        /* \"Taxpayer.sol\":9642:9660  msg.sender == from */\n      0xffffffffffffffffffffffffffffffffffffffff\n      and\n      eq\n        /* \"Taxpayer.sol\":9618:9660  msg.sender == spouse || msg.sender == from */\n    tag_223:\n        /* \"Taxpayer.sol\":9610:9686  require(msg.sender == spouse || msg.sender == from, \"Only spouse or origin\") */\n      tag_224\n      jumpi\n      mload(0x40)\n      0x08c379a000000000000000000000000000000000000000000000000000000000\n      dup2\n      mstore\n      0x04\n      add\n      tag_225\n      swap1\n      tag_226\n      jump\t// in\n    tag_225:\n      mload(0x40)\n      dup1\n      swap2\n      sub\n      swap1\n      revert\n    tag_224:\n        /* \"Taxpayer.sol\":9707:9713  amount */\n      dup2\n        /* \"Taxpayer.sol\":9690:9703  tax_allowance */\n      0x05\n      0x00\n        /* \"Taxpayer.sol\":9690:9713  tax_allowance += amount */\n      dup3\n      dup3\n      sload\n      tag_227\n      swap2\n      swap1\n      tag_228\n      jump\t// in\n    tag_227:\n      swap3\n      pop\n      pop\n      dup2\n      swap1\n      sstore\n      pop\n        /* \"Taxpayer.sol\":9546:9717  function receiveAllowance(uint amount, address from) public {... */\n      pop\n      pop\n      jump\t// out\n        /* \"Taxpayer.sol\":9779:9925  function haveBirthday() public onlyOwner {... */\n    tag_74:\n        /* \"Taxpayer.sol\":1936:1941  owner */\n      0x04\n      0x00\n      swap1\n      sload\n      swap1\n      0x0100\n      exp\n      swap1\n      div\n      0xffffffffffffffffffffffffffffffffffffffff\n      and\n        /* \"Taxpayer.sol\":1922:1941  msg.sender == owner */\n      0xffffffffffffffffffffffffffffffffffffffff\n      and\n        /* \"Taxpayer.sol\":1922:1932  msg.sender */\n      caller\n        /* \"Taxpayer.sol\":1922:1941  msg.sender == owner */\n      0xffffffffffffffffffffffffffffffffffffffff\n      and\n      eq\n        /* \"Taxpayer.sol\":1914:1956  require(msg.sender == owner, \"Only owner\") */\n      tag_230\n      jumpi\n      mload(0x40)\n      0x08c379a000000000000000000000000000000000000000000000000000000000\n      dup2\n      mstore\n      0x04\n      add\n      tag_231\n      swap1\n      tag_181\n      jump\t// in\n    tag_231:\n      mload(0x40)\n      dup1\n      swap2\n      sub\n      swap1\n      revert\n    tag_230:\n        /* \"Taxpayer.sol\":9824:9827  age */\n      0x00\n      0x00\n        /* \"Taxpayer.sol\":9824:9829  age++ */\n      dup2\n      sload\n      dup1\n      swap3\n      swap2\n      swap1\n      tag_233\n      swap1\n      tag_234\n      jump\t// in\n    tag_233:\n      swap2\n      swap1\n      pop\n      sstore\n      pop\n        /* \"Taxpayer.sol\":9837:9846  isMarried */\n      0x01\n      0x00\n      swap1\n      sload\n      swap1\n      0x0100\n      exp\n      swap1\n      div\n      0xff\n      and\n        /* \"Taxpayer.sol\":9836:9846  !isMarried */\n      iszero\n        /* \"Taxpayer.sol\":9836:9870  !isMarried && spouse == address(0) */\n      dup1\n      iszero\n      tag_235\n      jumpi\n      pop\n        /* \"Taxpayer.sol\":9868:9869  0 */\n      0x00\n        /* \"Taxpayer.sol\":9850:9870  spouse == address(0) */\n      0xffffffffffffffffffffffffffffffffffffffff\n      and\n        /* \"Taxpayer.sol\":9850:9856  spouse */\n      0x01\n      0x02\n      swap1\n      sload\n      swap1\n      0x0100\n      exp\n      swap1\n      div\n      0xffffffffffffffffffffffffffffffffffffffff\n      and\n        /* \"Taxpayer.sol\":9850:9870  spouse == address(0) */\n      0xffffffffffffffffffffffffffffffffffffffff\n      and\n      eq\n        /* \"Taxpayer.sol\":9836:9870  !isMarried && spouse == address(0) */\n    tag_235:\n        /* \"Taxpayer.sol\":9833:9922  if(!isMarried && spouse == address(0)) {  // only if single... */\n      iszero\n      tag_236\n      jumpi\n        /* \"Taxpayer.sol\":9897:9917  applyOAPIfEligible() */\n      tag_237\n        /* \"Taxpayer.sol\":9897:9915  applyOAPIfEligible */\n      tag_62\n        /* \"Taxpayer.sol\":9897:9917  applyOAPIfEligible() */\n      jump\t// in\n    tag_237:\n        /* \"Taxpayer.sol\":9833:9922  if(!isMarried && spouse == address(0)) {  // only if single... */\n    tag_236:\n        /* \"Taxpayer.sol\":9779:9925  function haveBirthday() public onlyOwner {... */\n      jump\t// out\n        /* \"Taxpayer.sol\":4308:4540  function notifyDivorceFromPartner(address p) public {... */\n    tag_78:\n        /* \"Taxpayer.sol\":4386:4387  p */\n      dup1\n        /* \"Taxpayer.sol\":4372:4387  msg.sender == p */\n      0xffffffffffffffffffffffffffffffffffffffff\n      and\n        /* \"Taxpayer.sol\":4372:4382  msg.sender */\n      caller\n        /* \"Taxpayer.sol\":4372:4387  msg.sender == p */\n      0xffffffffffffffffffffffffffffffffffffffff\n      and\n      eq\n        /* \"Taxpayer.sol\":4364:4415  require(msg.sender == p, \"Only partner can notify\") */\n      tag_239\n      jumpi\n      mload(0x40)\n      0x08c379a000000000000000000000000000000000000000000000000000000000\n      dup2\n      mstore\n      0x04\n      add\n      tag_240\n      swap1\n      tag_241\n      jump\t// in\n    tag_240:\n      mload(0x40)\n      dup1\n      swap2\n      sub\n      swap1\n      revert\n    tag_239:\n        /* \"Taxpayer.sol\":4436:4437  0 */\n      0x00\n        /* \"Taxpayer.sol\":4419:4425  spouse */\n      0x01\n      0x02\n        /* \"Taxpayer.sol\":4419:4438  spouse = address(0) */\n      0x0100\n      exp\n      dup2\n      sload\n      dup2\n      0xffffffffffffffffffffffffffffffffffffffff\n      mul\n      not\n      and\n      swap1\n      dup4\n      0xffffffffffffffffffffffffffffffffffffffff\n      and\n      mul\n      or\n      swap1\n      sstore\n      pop\n        /* \"Taxpayer.sol\":4454:4459  false */\n      0x00\n        /* \"Taxpayer.sol\":4442:4451  isMarried */\n      0x01\n      0x00\n        /* \"Taxpayer.sol\":4442:4459  isMarried = false */\n      0x0100\n      exp\n      dup2\n      sload\n      dup2\n      0xff\n      mul\n      not\n      and\n      swap1\n      dup4\n      iszero\n      iszero\n      mul\n      or\n      swap1\n      sstore\n      pop\n        /* \"Taxpayer.sol\":4509:4536  determineDefaultAllowance() */\n      tag_242\n        /* \"Taxpayer.sol\":4509:4534  determineDefaultAllowance */\n      tag_243\n        /* \"Taxpayer.sol\":4509:4536  determineDefaultAllowance() */\n      jump\t// in\n    tag_242:\n        /* \"Taxpayer.sol\":4493:4506  tax_allowance */\n      0x05\n        /* \"Taxpayer.sol\":4493:4536  tax_allowance = determineDefaultAllowance() */\n      dup2\n      swap1\n      sstore\n      pop\n        /* \"Taxpayer.sol\":4308:4540  function notifyDivorceFromPartner(address p) public {... */\n      pop\n      jump\t// out\n        /* \"Taxpayer.sol\":11708:11856  function taxableIncome() public view returns(uint) {... */\n    tag_80:\n        /* \"Taxpayer.sol\":11753:11757  uint */\n      0x00\n        /* \"Taxpayer.sol\":11778:11791  tax_allowance */\n      sload(0x05)\n        /* \"Taxpayer.sol\":11768:11774  income */\n      sload(0x06)\n        /* \"Taxpayer.sol\":11768:11791  income <= tax_allowance */\n      gt\n        /* \"Taxpayer.sol\":11765:11816  if(income <= tax_allowance) {... */\n      tag_245\n      jumpi\n        /* \"Taxpayer.sol\":11808:11809  0 */\n      0x00\n        /* \"Taxpayer.sol\":11801:11809  return 0 */\n      swap1\n      pop\n      jump(tag_244)\n        /* \"Taxpayer.sol\":11765:11816  if(income <= tax_allowance) {... */\n    tag_245:\n        /* \"Taxpayer.sol\":11838:11851  tax_allowance */\n      sload(0x05)\n        /* \"Taxpayer.sol\":11829:11835  income */\n      sload(0x06)\n        /* \"Taxpayer.sol\":11829:11851  income - tax_allowance */\n      tag_246\n      swap2\n      swap1\n      tag_247\n      jump\t// in\n    tag_246:\n        /* \"Taxpayer.sol\":11822:11851  return income - tax_allowance */\n      swap1\n      pop\n        /* \"Taxpayer.sol\":11708:11856  function taxableIncome() public view returns(uint) {... */\n    tag_244:\n      swap1\n      jump\t// out\n        /* \"Taxpayer.sol\":11885:12012  function calculateTax(uint value) public view returns (uint) {... */\n    tag_85:\n        /* \"Taxpayer.sol\":11940:11944  uint */\n      0x00\n        /* \"Taxpayer.sol\":11952:11958  uint t */\n      0x00\n        /* \"Taxpayer.sol\":11961:11976  taxableIncome() */\n      tag_249\n        /* \"Taxpayer.sol\":11961:11974  taxableIncome */\n      tag_80\n        /* \"Taxpayer.sol\":11961:11976  taxableIncome() */\n      jump\t// in\n    tag_249:\n        /* \"Taxpayer.sol\":11952:11976  uint t = taxableIncome() */\n      swap1\n      pop\n        /* \"Taxpayer.sol\":12003:12007  1000 */\n      0x03e8\n        /* \"Taxpayer.sol\":11994:11999  value */\n      dup4\n        /* \"Taxpayer.sol\":11990:11991  t */\n      dup3\n        /* \"Taxpayer.sol\":11990:11999  t * value */\n      tag_250\n      swap2\n      swap1\n      tag_251\n      jump\t// in\n    tag_250:\n        /* \"Taxpayer.sol\":11989:12007  (t * value) / 1000 */\n      tag_252\n      swap2\n      swap1\n      tag_253\n      jump\t// in\n    tag_252:\n        /* \"Taxpayer.sol\":11982:12007  return (t * value) / 1000 */\n      swap2\n      pop\n      pop\n        /* \"Taxpayer.sol\":11885:12012  function calculateTax(uint value) public view returns (uint) {... */\n      swap2\n      swap1\n      pop\n      jump\t// out\n        /* \"Taxpayer.sol\":10772:11133  function joinLottery(address lot, uint256 r) public onlyOwner {... */\n    tag_89:\n        /* \"Taxpayer.sol\":1936:1941  owner */\n      0x04\n      0x00\n      swap1\n      sload\n      swap1\n      0x0100\n      exp\n      swap1\n      div\n      0xffffffffffffffffffffffffffffffffffffffff\n      and\n        /* \"Taxpayer.sol\":1922:1941  msg.sender == owner */\n      0xffffffffffffffffffffffffffffffffffffffff\n      and\n        /* \"Taxpayer.sol\":1922:1932  msg.sender */\n      caller\n        /* \"Taxpayer.sol\":1922:1941  msg.sender == owner */\n      0xffffffffffffffffffffffffffffffffffffffff\n      and\n      eq\n        /* \"Taxpayer.sol\":1914:1956  require(msg.sender == owner, \"Only owner\") */\n      tag_255\n      jumpi\n      mload(0x40)\n      0x08c379a000000000000000000000000000000000000000000000000000000000\n      dup2\n      mstore\n      0x04\n      add\n      tag_256\n      swap1\n      tag_181\n      jump\t// in\n    tag_256:\n      mload(0x40)\n      dup1\n      swap2\n      sub\n      swap1\n      revert\n    tag_255:\n        /* \"Taxpayer.sol\":10863:10864  0 */\n      0x00\n        /* \"Taxpayer.sol\":10848:10865  lot != address(0) */\n      0xffffffffffffffffffffffffffffffffffffffff\n      and\n        /* \"Taxpayer.sol\":10848:10851  lot */\n      dup3\n        /* \"Taxpayer.sol\":10848:10865  lot != address(0) */\n      0xffffffffffffffffffffffffffffffffffffffff\n      and\n      sub\n        /* \"Taxpayer.sol\":10840:10881  require(lot != address(0), \"Invalid lot\") */\n      tag_258\n      jumpi\n      mload(0x40)\n      0x08c379a000000000000000000000000000000000000000000000000000000000\n      dup2\n      mstore\n      0x04\n      add\n      tag_259\n      swap1\n      tag_185\n      jump\t// in\n    tag_259:\n      mload(0x40)\n      dup1\n      swap2\n      sub\n      swap1\n      revert\n    tag_258:\n        /* \"Taxpayer.sol\":10945:10946  0 */\n      0x00\n        /* \"Taxpayer.sol\":10927:10930  lot */\n      dup3\n        /* \"Taxpayer.sol\":10927:10942  lot.code.length */\n      0xffffffffffffffffffffffffffffffffffffffff\n      and\n      extcodesize\n        /* \"Taxpayer.sol\":10927:10946  lot.code.length > 0 */\n      gt\n        /* \"Taxpayer.sol\":10919:10965  require(lot.code.length > 0, \"Not a contract\") */\n      tag_260\n      jumpi\n      mload(0x40)\n      0x08c379a000000000000000000000000000000000000000000000000000000000\n      dup2\n      mstore\n      0x04\n      add\n      tag_261\n      swap1\n      tag_262\n      jump\t// in\n    tag_261:\n      mload(0x40)\n      dup1\n      swap2\n      sub\n      swap1\n      revert\n    tag_260:\n        /* \"Taxpayer.sol\":10984:10987  lot */\n      dup2\n        /* \"Taxpayer.sol\":10976:10995  Lottery(lot).commit */\n      0xffffffffffffffffffffffffffffffffffffffff\n      and\n      0xf14fcbc8\n        /* \"Taxpayer.sol\":11017:11018  r */\n      dup3\n        /* \"Taxpayer.sol\":11006:11019  abi.encode(r) */\n      add(0x20, mload(0x40))\n      tag_263\n      swap2\n      swap1\n      tag_82\n      jump\t// in\n    tag_263:\n      mload(0x40)\n      0x20\n      dup2\n      dup4\n      sub\n      sub\n      dup2\n      mstore\n      swap1\n      0x40\n      mstore\n        /* \"Taxpayer.sol\":10996:11020  keccak256(abi.encode(r)) */\n      dup1\n      mload\n      swap1\n      0x20\n      add\n      keccak256\n        /* \"Taxpayer.sol\":10976:11021  Lottery(lot).commit(keccak256(abi.encode(r))) */\n      mload(0x40)\n      dup3\n      0xffffffff\n      and\n      0xe0\n      shl\n      dup2\n      mstore\n      0x04\n      add\n      tag_264\n      swap2\n      swap1\n      tag_265\n      jump\t// in\n    tag_264:\n      0x00\n      mload(0x40)\n      dup1\n      dup4\n      sub\n      dup2\n      0x00\n      dup8\n      dup1\n      extcodesize\n      iszero\n      dup1\n      iszero\n      tag_266\n      jumpi\n      revert(0x00, 0x00)\n    tag_266:\n      pop\n      gas\n      call\n      swap3\n      pop\n      pop\n      pop\n      dup1\n      iszero\n      tag_267\n      jumpi\n      pop\n      0x01\n    tag_267:\n        /* \"Taxpayer.sol\":10972:11129  try Lottery(lot).commit(keccak256(abi.encode(r))) {   // try-catch to avoid failure... */\n      tag_268\n      jumpi\n        /* \"Taxpayer.sol\":11091:11122  revert(\"Lottery commit failed\") */\n      mload(0x40)\n      0x08c379a000000000000000000000000000000000000000000000000000000000\n      dup2\n      mstore\n      0x04\n      add\n      tag_272\n      swap1\n      tag_273\n      jump\t// in\n    tag_272:\n      mload(0x40)\n      dup1\n      swap2\n      sub\n      swap1\n      revert\n        /* \"Taxpayer.sol\":10972:11129  try Lottery(lot).commit(keccak256(abi.encode(r))) {   // try-catch to avoid failure... */\n    tag_268:\n        /* \"Taxpayer.sol\":11068:11069  r */\n      dup1\n        /* \"Taxpayer.sol\":11062:11065  rev */\n      0x07\n        /* \"Taxpayer.sol\":11062:11069  rev = r */\n      dup2\n      swap1\n      sstore\n      pop\n        /* \"Taxpayer.sol\":10772:11133  function joinLottery(address lot, uint256 r) public onlyOwner {... */\n      pop\n      pop\n      jump\t// out\n        /* \"Taxpayer.sol\":6544:6648  function echidna_owner_is_constant() public view returns (bool) {... */\n    tag_91:\n        /* \"Taxpayer.sol\":6602:6606  bool */\n      0x00\n        /* \"Taxpayer.sol\":6630:6643  INITIAL_OWNER */\n      immutable(\"0x6be2aa321936c272e905a60cf786322052136e6e0ff4aeb1bdad00f3244d95d9\")\n        /* \"Taxpayer.sol\":6621:6643  owner == INITIAL_OWNER */\n      0xffffffffffffffffffffffffffffffffffffffff\n      and\n        /* \"Taxpayer.sol\":6621:6626  owner */\n      0x04\n      0x00\n      swap1\n      sload\n      swap1\n      0x0100\n      exp\n      swap1\n      div\n      0xffffffffffffffffffffffffffffffffffffffff\n      and\n        /* \"Taxpayer.sol\":6621:6643  owner == INITIAL_OWNER */\n      0xffffffffffffffffffffffffffffffffffffffff\n      and\n      eq\n        /* \"Taxpayer.sol\":6614:6643  return owner == INITIAL_OWNER */\n      swap1\n      pop\n        /* \"Taxpayer.sol\":6544:6648  function echidna_owner_is_constant() public view returns (bool) {... */\n      swap1\n      jump\t// out\n        /* \"Taxpayer.sol\":1257:1311  function setSpouse(address a) public {... */\n    tag_95:\n        /* \"Taxpayer.sol\":1307:1308  a */\n      dup1\n        /* \"Taxpayer.sol\":1298:1304  spouse */\n      0x01\n      0x02\n        /* \"Taxpayer.sol\":1298:1308  spouse = a */\n      0x0100\n      exp\n      dup2\n      sload\n      dup2\n      0xffffffffffffffffffffffffffffffffffffffff\n      mul\n      not\n      and\n      swap1\n      dup4\n      0xffffffffffffffffffffffffffffffffffffffff\n      and\n      mul\n      or\n      swap1\n      sstore\n      pop\n        /* \"Taxpayer.sol\":1257:1311  function setSpouse(address a) public {... */\n      pop\n      jump\t// out\n        /* \"Taxpayer.sol\":1083:1182  function getDefaultAllowance() public view returns (uint) {... */\n    tag_97:\n        /* \"Taxpayer.sol\":1135:1139  uint */\n      0x00\n        /* \"Taxpayer.sol\":1152:1179  determineDefaultAllowance() */\n      tag_278\n        /* \"Taxpayer.sol\":1152:1177  determineDefaultAllowance */\n      tag_243\n        /* \"Taxpayer.sol\":1152:1179  determineDefaultAllowance() */\n      jump\t// in\n    tag_278:\n        /* \"Taxpayer.sol\":1145:1179  return determineDefaultAllowance() */\n      swap1\n      pop\n        /* \"Taxpayer.sol\":1083:1182  function getDefaultAllowance() public view returns (uint) {... */\n      swap1\n      jump\t// out\n        /* \"Taxpayer.sol\":6748:6841  function echidna_iscontract_is_true() public view returns (bool) {... */\n    tag_100:\n        /* \"Taxpayer.sol\":6807:6811  bool */\n      0x00\n        /* \"Taxpayer.sol\":6826:6836  iscontract */\n      0x01\n      dup1\n      sload\n      swap1\n      0x0100\n      exp\n      swap1\n      div\n      0xff\n      and\n        /* \"Taxpayer.sol\":6819:6836  return iscontract */\n      swap1\n      pop\n        /* \"Taxpayer.sol\":6748:6841  function echidna_iscontract_is_true() public view returns (bool) {... */\n      swap1\n      jump\t// out\n        /* \"Taxpayer.sol\":9139:9542  function transferAllowance(uint change) public onlyOwner {... */\n    tag_104:\n        /* \"Taxpayer.sol\":1936:1941  owner */\n      0x04\n      0x00\n      swap1\n      sload\n      swap1\n      0x0100\n      exp\n      swap1\n      div\n      0xffffffffffffffffffffffffffffffffffffffff\n      and\n        /* \"Taxpayer.sol\":1922:1941  msg.sender == owner */\n      0xffffffffffffffffffffffffffffffffffffffff\n      and\n        /* \"Taxpayer.sol\":1922:1932  msg.sender */\n      caller\n        /* \"Taxpayer.sol\":1922:1941  msg.sender == owner */\n      0xffffffffffffffffffffffffffffffffffffffff\n      and\n      eq\n        /* \"Taxpayer.sol\":1914:1956  require(msg.sender == owner, \"Only owner\") */\n      tag_281\n      jumpi\n      mload(0x40)\n      0x08c379a000000000000000000000000000000000000000000000000000000000\n      dup2\n      mstore\n      0x04\n      add\n      tag_282\n      swap1\n      tag_181\n      jump\t// in\n    tag_282:\n      mload(0x40)\n      dup1\n      swap2\n      sub\n      swap1\n      revert\n    tag_281:\n        /* \"Taxpayer.sol\":9229:9230  0 */\n      0x00\n        /* \"Taxpayer.sol\":9211:9231  spouse != address(0) */\n      0xffffffffffffffffffffffffffffffffffffffff\n      and\n        /* \"Taxpayer.sol\":9211:9217  spouse */\n      0x01\n      0x02\n      swap1\n      sload\n      swap1\n      0x0100\n      exp\n      swap1\n      div\n      0xffffffffffffffffffffffffffffffffffffffff\n      and\n        /* \"Taxpayer.sol\":9211:9231  spouse != address(0) */\n      0xffffffffffffffffffffffffffffffffffffffff\n      and\n      sub\n        /* \"Taxpayer.sol\":9203:9245  require(spouse != address(0), \"No spouse\") */\n      tag_284\n      jumpi\n      mload(0x40)\n      0x08c379a000000000000000000000000000000000000000000000000000000000\n      dup2\n      mstore\n      0x04\n      add\n      tag_285\n      swap1\n      tag_286\n      jump\t// in\n    tag_285:\n      mload(0x40)\n      dup1\n      swap2\n      sub\n      swap1\n      revert\n    tag_284:\n        /* \"Taxpayer.sol\":9266:9267  0 */\n      0x00\n        /* \"Taxpayer.sol\":9257:9263  change */\n      dup2\n        /* \"Taxpayer.sol\":9257:9267  change > 0 */\n      gt\n        /* \"Taxpayer.sol\":9249:9283  require(change > 0, \"Zero change\") */\n      tag_287\n      jumpi\n      mload(0x40)\n      0x08c379a000000000000000000000000000000000000000000000000000000000\n      dup2\n      mstore\n      0x04\n      add\n      tag_288\n      swap1\n      tag_289\n      jump\t// in\n    tag_288:\n      mload(0x40)\n      dup1\n      swap2\n      sub\n      swap1\n      revert\n    tag_287:\n        /* \"Taxpayer.sol\":9305:9318  tax_allowance */\n      sload(0x05)\n        /* \"Taxpayer.sol\":9295:9301  change */\n      dup2\n        /* \"Taxpayer.sol\":9295:9318  change <= tax_allowance */\n      gt\n      iszero\n        /* \"Taxpayer.sol\":9287:9343  require(change <= tax_allowance, \"Not enough allowance\") */\n      tag_290\n      jumpi\n      mload(0x40)\n      0x08c379a000000000000000000000000000000000000000000000000000000000\n      dup2\n      mstore\n      0x04\n      add\n      tag_291\n      swap1\n      tag_292\n      jump\t// in\n    tag_291:\n      mload(0x40)\n      dup1\n      swap2\n      sub\n      swap1\n      revert\n    tag_290:\n        /* \"Taxpayer.sol\":9365:9371  change */\n      dup1\n        /* \"Taxpayer.sol\":9348:9361  tax_allowance */\n      0x05\n      0x00\n        /* \"Taxpayer.sol\":9348:9371  tax_allowance -= change */\n      dup3\n      dup3\n      sload\n      tag_293\n      swap2\n      swap1\n      tag_247\n      jump\t// in\n    tag_293:\n      swap3\n      pop\n      pop\n      dup2\n      swap1\n      sstore\n      pop\n        /* \"Taxpayer.sol\":9414:9420  spouse */\n      0x01\n      0x02\n      swap1\n      sload\n      swap1\n      0x0100\n      exp\n      swap1\n      div\n      0xffffffffffffffffffffffffffffffffffffffff\n      and\n        /* \"Taxpayer.sol\":9405:9438  Taxpayer(spouse).receiveAllowance */\n      0xffffffffffffffffffffffffffffffffffffffff\n      and\n      0x308f838a\n        /* \"Taxpayer.sol\":9439:9445  change */\n      dup3\n        /* \"Taxpayer.sol\":9455:9459  this */\n      address\n        /* \"Taxpayer.sol\":9405:9461  Taxpayer(spouse).receiveAllowance(change, address(this)) */\n      mload(0x40)\n      dup4\n      0xffffffff\n      and\n      0xe0\n      shl\n      dup2\n      mstore\n      0x04\n      add\n      tag_294\n      swap3\n      swap2\n      swap1\n      tag_295\n      jump\t// in\n    tag_294:\n      0x00\n      mload(0x40)\n      dup1\n      dup4\n      sub\n      dup2\n      0x00\n      dup8\n      dup1\n      extcodesize\n      iszero\n      dup1\n      iszero\n      tag_296\n      jumpi\n      revert(0x00, 0x00)\n    tag_296:\n      pop\n      gas\n      call\n      swap3\n      pop\n      pop\n      pop\n      dup1\n      iszero\n      tag_297\n      jumpi\n      pop\n      0x01\n    tag_297:\n        /* \"Taxpayer.sol\":9401:9539  try Taxpayer(spouse).receiveAllowance(change, address(this)) {... */\n      tag_298\n      jumpi\n        /* \"Taxpayer.sol\":9499:9534  revert(\"Failed to transfer spouse\") */\n      mload(0x40)\n      0x08c379a000000000000000000000000000000000000000000000000000000000\n      dup2\n      mstore\n      0x04\n      add\n      tag_302\n      swap1\n      tag_303\n      jump\t// in\n    tag_302:\n      mload(0x40)\n      dup1\n      swap2\n      sub\n      swap1\n      revert\n        /* \"Taxpayer.sol\":9401:9539  try Taxpayer(spouse).receiveAllowance(change, address(this)) {... */\n    tag_298:\n        /* \"Taxpayer.sol\":9139:9542  function transferAllowance(uint change) public onlyOwner {... */\n      pop\n      jump\t// out\n        /* \"Taxpayer.sol\":955:1081  function getInitialTaxAllowance() public view returns (uint) {... */\n    tag_106:\n        /* \"Taxpayer.sol\":1010:1014  uint */\n      0x00\n        /* \"Taxpayer.sol\":1027:1048  INITIAL_TAX_ALLOWANCE */\n      immutable(\"0xc1912fee45d61c87cc5ea59dae311904cd86b84fee17cc96966216f811ce6a79\")\n        /* \"Taxpayer.sol\":1020:1048  return INITIAL_TAX_ALLOWANCE */\n      swap1\n      pop\n        /* \"Taxpayer.sol\":955:1081  function getInitialTaxAllowance() public view returns (uint) {... */\n      swap1\n      jump\t// out\n        /* \"Taxpayer.sol\":8554:9082  function echidna_commit_consistency(address lot) public view returns (bool) {... */\n    tag_110:\n        /* \"Taxpayer.sol\":8624:8628  bool */\n      0x00\n        /* \"Taxpayer.sol\":8700:8701  0 */\n      0x00\n        /* \"Taxpayer.sol\":8693:8696  rev */\n      sload(0x07)\n        /* \"Taxpayer.sol\":8693:8701  rev == 0 */\n      sub\n        /* \"Taxpayer.sol\":8690:8729  if(rev == 0) {... */\n      tag_307\n      jumpi\n        /* \"Taxpayer.sol\":8718:8722  true */\n      0x01\n        /* \"Taxpayer.sol\":8711:8722  return true */\n      swap1\n      pop\n      jump(tag_306)\n        /* \"Taxpayer.sol\":8690:8729  if(rev == 0) {... */\n    tag_307:\n        /* \"Taxpayer.sol\":8787:8788  0 */\n      0x00\n        /* \"Taxpayer.sol\":8772:8789  lot == address(0) */\n      0xffffffffffffffffffffffffffffffffffffffff\n      and\n        /* \"Taxpayer.sol\":8772:8775  lot */\n      dup3\n        /* \"Taxpayer.sol\":8772:8789  lot == address(0) */\n      0xffffffffffffffffffffffffffffffffffffffff\n      and\n      eq\n        /* \"Taxpayer.sol\":8772:8813  lot == address(0) || lot.code.length == 0 */\n      dup1\n      tag_308\n      jumpi\n      pop\n        /* \"Taxpayer.sol\":8812:8813  0 */\n      0x00\n        /* \"Taxpayer.sol\":8793:8796  lot */\n      dup3\n        /* \"Taxpayer.sol\":8793:8808  lot.code.length */\n      0xffffffffffffffffffffffffffffffffffffffff\n      and\n      extcodesize\n        /* \"Taxpayer.sol\":8793:8813  lot.code.length == 0 */\n      eq\n        /* \"Taxpayer.sol\":8772:8813  lot == address(0) || lot.code.length == 0 */\n    tag_308:\n        /* \"Taxpayer.sol\":8769:8860  if(lot == address(0) || lot.code.length == 0) {... */\n      iszero\n      tag_309\n      jumpi\n        /* \"Taxpayer.sol\":8830:8834  true */\n      0x01\n        /* \"Taxpayer.sol\":8823:8834  return true */\n      swap1\n      pop\n      jump(tag_306)\n        /* \"Taxpayer.sol\":8769:8860  if(lot == address(0) || lot.code.length == 0) {... */\n    tag_309:\n        /* \"Taxpayer.sol\":8878:8881  lot */\n      dup2\n        /* \"Taxpayer.sol\":8870:8890  Lottery(lot).commits */\n      0xffffffffffffffffffffffffffffffffffffffff\n      and\n      0x7b43a8e6\n        /* \"Taxpayer.sol\":8899:8903  this */\n      address\n        /* \"Taxpayer.sol\":8870:8905  Lottery(lot).commits(address(this)) */\n      mload(0x40)\n      dup3\n      0xffffffff\n      and\n      0xe0\n      shl\n      dup2\n      mstore\n      0x04\n      add\n      tag_310\n      swap2\n      swap1\n      tag_52\n      jump\t// in\n    tag_310:\n      0x20\n      mload(0x40)\n      dup1\n      dup4\n      sub\n      dup2\n      dup7\n      gas\n      staticcall\n      swap3\n      pop\n      pop\n      pop\n      dup1\n      iszero\n      tag_311\n      jumpi\n      pop\n      mload(0x40)\n      returndatasize\n      not(0x1f)\n      0x1f\n      dup3\n      add\n      and\n      dup3\n      add\n      dup1\n      0x40\n      mstore\n      pop\n      dup2\n      add\n      swap1\n      tag_312\n      swap2\n      swap1\n      tag_313\n      jump\t// in\n    tag_312:\n      0x01\n    tag_311:\n        /* \"Taxpayer.sol\":8866:9077  try Lottery(lot).commits(address(this)) returns (bytes32 c) {... */\n      tag_314\n      jumpi\n        /* \"Taxpayer.sol\":9001:9006  false */\n      0x00\n        /* \"Taxpayer.sol\":8994:9006  return false */\n      swap1\n      pop\n      jump(tag_306)\n        /* \"Taxpayer.sol\":8866:9077  try Lottery(lot).commits(address(this)) returns (bytes32 c) {... */\n    tag_314:\n        /* \"Taxpayer.sol\":8967:8970  rev */\n      sload(0x07)\n        /* \"Taxpayer.sol\":8956:8971  abi.encode(rev) */\n      add(0x20, mload(0x40))\n      tag_319\n      swap2\n      swap1\n      tag_82\n      jump\t// in\n    tag_319:\n      mload(0x40)\n      0x20\n      dup2\n      dup4\n      sub\n      sub\n      dup2\n      mstore\n      swap1\n      0x40\n      mstore\n        /* \"Taxpayer.sol\":8946:8972  keccak256(abi.encode(rev)) */\n      dup1\n      mload\n      swap1\n      0x20\n      add\n      keccak256\n        /* \"Taxpayer.sol\":8941:8942  c */\n      dup2\n        /* \"Taxpayer.sol\":8941:8972  c == keccak256(abi.encode(rev)) */\n      eq\n        /* \"Taxpayer.sol\":8934:8972  return c == keccak256(abi.encode(rev)) */\n      swap2\n      pop\n      pop\n        /* \"Taxpayer.sol\":8554:9082  function echidna_commit_consistency(address lot) public view returns (bool) {... */\n    tag_306:\n      swap2\n      swap1\n      pop\n      jump\t// out\n        /* \"Taxpayer.sol\":734:809  function getIsMarried() public view returns(bool) {... */\n    tag_113:\n        /* \"Taxpayer.sol\":778:782  bool */\n      0x00\n        /* \"Taxpayer.sol\":797:806  isMarried */\n      0x01\n      0x00\n      swap1\n      sload\n      swap1\n      0x0100\n      exp\n      swap1\n      div\n      0xff\n      and\n        /* \"Taxpayer.sol\":790:806  return isMarried */\n      swap1\n      pop\n        /* \"Taxpayer.sol\":734:809  function getIsMarried() public view returns(bool) {... */\n      swap1\n      jump\t// out\n        /* \"Taxpayer.sol\":249:269  address public owner */\n    tag_116:\n      0x04\n      0x00\n      swap1\n      sload\n      swap1\n      0x0100\n      exp\n      swap1\n      div\n      0xffffffffffffffffffffffffffffffffffffffff\n      and\n      dup2\n      jump\t// out\n        /* \"Taxpayer.sol\":1184:1246  function getAge() public view returns (uint) {... */\n    tag_119:\n        /* \"Taxpayer.sol\":1223:1227  uint */\n      0x00\n        /* \"Taxpayer.sol\":1240:1243  age */\n      sload(0x00)\n        /* \"Taxpayer.sol\":1233:1243  return age */\n      swap1\n      pop\n        /* \"Taxpayer.sol\":1184:1246  function getAge() public view returns (uint) {... */\n      swap1\n      jump\t// out\n        /* \"Taxpayer.sol\":6280:6475  function echidna_no_tax_below_allowance() public view returns (bool) {... */\n    tag_122:\n        /* \"Taxpayer.sol\":6343:6347  bool */\n      0x00\n        /* \"Taxpayer.sol\":6368:6381  tax_allowance */\n      sload(0x05)\n        /* \"Taxpayer.sol\":6358:6364  income */\n      sload(0x06)\n        /* \"Taxpayer.sol\":6358:6381  income <= tax_allowance */\n      gt\n        /* \"Taxpayer.sol\":6355:6454  if(income <= tax_allowance) {... */\n      tag_323\n      jumpi\n        /* \"Taxpayer.sol\":6419:6420  0 */\n      0x00\n        /* \"Taxpayer.sol\":6398:6415  calculateTax(200) */\n      tag_324\n        /* \"Taxpayer.sol\":6411:6414  200 */\n      0xc8\n        /* \"Taxpayer.sol\":6398:6410  calculateTax */\n      tag_85\n        /* \"Taxpayer.sol\":6398:6415  calculateTax(200) */\n      jump\t// in\n    tag_324:\n        /* \"Taxpayer.sol\":6398:6420  calculateTax(200) == 0 */\n      eq\n        /* \"Taxpayer.sol\":6391:6420  return calculateTax(200) == 0 */\n      swap1\n      pop\n      jump(tag_322)\n        /* \"Taxpayer.sol\":6355:6454  if(income <= tax_allowance) {... */\n    tag_323:\n        /* \"Taxpayer.sol\":6466:6470  true */\n      0x01\n        /* \"Taxpayer.sol\":6459:6470  return true */\n      swap1\n      pop\n        /* \"Taxpayer.sol\":6280:6475  function echidna_no_tax_below_allowance() public view returns (bool) {... */\n    tag_322:\n      swap1\n      jump\t// out\n        /* \"Taxpayer.sol\":6925:7172  function echidna_age_allowance_base_consistency_single() public view returns (bool) {... */\n    tag_125:\n        /* \"Taxpayer.sol\":7003:7007  bool */\n      0x00\n        /* \"Taxpayer.sol\":7036:7037  0 */\n      0x00\n        /* \"Taxpayer.sol\":7018:7038  spouse != address(0) */\n      0xffffffffffffffffffffffffffffffffffffffff\n      and\n        /* \"Taxpayer.sol\":7018:7024  spouse */\n      0x01\n      0x02\n      swap1\n      sload\n      swap1\n      0x0100\n      exp\n      swap1\n      div\n      0xffffffffffffffffffffffffffffffffffffffff\n      and\n        /* \"Taxpayer.sol\":7018:7038  spouse != address(0) */\n      0xffffffffffffffffffffffffffffffffffffffff\n      and\n      eq\n      iszero\n        /* \"Taxpayer.sol\":7018:7051  spouse != address(0) || isMarried */\n      dup1\n      tag_326\n      jumpi\n      pop\n        /* \"Taxpayer.sol\":7042:7051  isMarried */\n      0x01\n      0x00\n      swap1\n      sload\n      swap1\n      0x0100\n      exp\n      swap1\n      div\n      0xff\n      and\n        /* \"Taxpayer.sol\":7018:7051  spouse != address(0) || isMarried */\n    tag_326:\n        /* \"Taxpayer.sol\":7015:7111  if(spouse != address(0) || isMarried) {... */\n      iszero\n      tag_327\n      jumpi\n        /* \"Taxpayer.sol\":7068:7072  true */\n      0x01\n        /* \"Taxpayer.sol\":7061:7072  return true */\n      swap1\n      pop\n      jump(tag_325)\n        /* \"Taxpayer.sol\":7015:7111  if(spouse != address(0) || isMarried) {... */\n    tag_327:\n        /* \"Taxpayer.sol\":7140:7167  determineDefaultAllowance() */\n      tag_328\n        /* \"Taxpayer.sol\":7140:7165  determineDefaultAllowance */\n      tag_243\n        /* \"Taxpayer.sol\":7140:7167  determineDefaultAllowance() */\n      jump\t// in\n    tag_328:\n        /* \"Taxpayer.sol\":7123:7136  tax_allowance */\n      sload(0x05)\n        /* \"Taxpayer.sol\":7123:7167  tax_allowance == determineDefaultAllowance() */\n      eq\n        /* \"Taxpayer.sol\":7116:7167  return tax_allowance == determineDefaultAllowance() */\n      swap1\n      pop\n        /* \"Taxpayer.sol\":6925:7172  function echidna_age_allowance_base_consistency_single() public view returns (bool) {... */\n    tag_325:\n      swap1\n      jump\t// out\n        /* \"Taxpayer.sol\":2050:3488  function marry(address new_spouse) public onlyOwner {... */\n    tag_129:\n        /* \"Taxpayer.sol\":1936:1941  owner */\n      0x04\n      0x00\n      swap1\n      sload\n      swap1\n      0x0100\n      exp\n      swap1\n      div\n      0xffffffffffffffffffffffffffffffffffffffff\n      and\n        /* \"Taxpayer.sol\":1922:1941  msg.sender == owner */\n      0xffffffffffffffffffffffffffffffffffffffff\n      and\n        /* \"Taxpayer.sol\":1922:1932  msg.sender */\n      caller\n        /* \"Taxpayer.sol\":1922:1941  msg.sender == owner */\n      0xffffffffffffffffffffffffffffffffffffffff\n      and\n      eq\n        /* \"Taxpayer.sol\":1914:1956  require(msg.sender == owner, \"Only owner\") */\n      tag_330\n      jumpi\n      mload(0x40)\n      0x08c379a000000000000000000000000000000000000000000000000000000000\n      dup2\n      mstore\n      0x04\n      add\n      tag_331\n      swap1\n      tag_181\n      jump\t// in\n    tag_331:\n      mload(0x40)\n      dup1\n      swap2\n      sub\n      swap1\n      revert\n    tag_330:\n        /* \"Taxpayer.sol\":2115:2124  isMarried */\n      0x01\n      0x00\n      swap1\n      sload\n      swap1\n      0x0100\n      exp\n      swap1\n      div\n      0xff\n      and\n        /* \"Taxpayer.sol\":2114:2124  !isMarried */\n      iszero\n        /* \"Taxpayer.sol\":2106:2149  require(!isMarried, \"I am already married\") */\n      tag_333\n      jumpi\n      mload(0x40)\n      0x08c379a000000000000000000000000000000000000000000000000000000000\n      dup2\n      mstore\n      0x04\n      add\n      tag_334\n      swap1\n      tag_335\n      jump\t// in\n    tag_334:\n      mload(0x40)\n      dup1\n      swap2\n      sub\n      swap1\n      revert\n    tag_333:\n        /* \"Taxpayer.sol\":2183:2184  0 */\n      0x00\n        /* \"Taxpayer.sol\":2161:2185  new_spouse != address(0) */\n      0xffffffffffffffffffffffffffffffffffffffff\n      and\n        /* \"Taxpayer.sol\":2161:2171  new_spouse */\n      dup2\n        /* \"Taxpayer.sol\":2161:2185  new_spouse != address(0) */\n      0xffffffffffffffffffffffffffffffffffffffff\n      and\n      sub\n        /* \"Taxpayer.sol\":2153:2219  require(new_spouse != address(0), \"Spouse cannot be zero address\") */\n      tag_336\n      jumpi\n      mload(0x40)\n      0x08c379a000000000000000000000000000000000000000000000000000000000\n      dup2\n      mstore\n      0x04\n      add\n      tag_337\n      swap1\n      tag_338\n      jump\t// in\n    tag_337:\n      mload(0x40)\n      dup1\n      swap2\n      sub\n      swap1\n      revert\n    tag_336:\n        /* \"Taxpayer.sol\":2253:2257  this */\n      address\n        /* \"Taxpayer.sol\":2231:2258  new_spouse != address(this) */\n      0xffffffffffffffffffffffffffffffffffffffff\n      and\n        /* \"Taxpayer.sol\":2231:2241  new_spouse */\n      dup2\n        /* \"Taxpayer.sol\":2231:2258  new_spouse != address(this) */\n      0xffffffffffffffffffffffffffffffffffffffff\n      and\n      sub\n        /* \"Taxpayer.sol\":2223:2282  require(new_spouse != address(this), \"Cannot marry myself\") */\n      tag_339\n      jumpi\n      mload(0x40)\n      0x08c379a000000000000000000000000000000000000000000000000000000000\n      dup2\n      mstore\n      0x04\n      add\n      tag_340\n      swap1\n      tag_341\n      jump\t// in\n    tag_340:\n      mload(0x40)\n      dup1\n      swap2\n      sub\n      swap1\n      revert\n    tag_339:\n        /* \"Taxpayer.sol\":2308:2313  owner */\n      0x04\n      0x00\n      swap1\n      sload\n      swap1\n      0x0100\n      exp\n      swap1\n      div\n      0xffffffffffffffffffffffffffffffffffffffff\n      and\n        /* \"Taxpayer.sol\":2294:2313  new_spouse != owner */\n      0xffffffffffffffffffffffffffffffffffffffff\n      and\n        /* \"Taxpayer.sol\":2294:2304  new_spouse */\n      dup2\n        /* \"Taxpayer.sol\":2294:2313  new_spouse != owner */\n      0xffffffffffffffffffffffffffffffffffffffff\n      and\n      sub\n        /* \"Taxpayer.sol\":2286:2337  require(new_spouse != owner, \"Cannot marry owner?\") */\n      tag_342\n      jumpi\n      mload(0x40)\n      0x08c379a000000000000000000000000000000000000000000000000000000000\n      dup2\n      mstore\n      0x04\n      add\n      tag_343\n      swap1\n      tag_344\n      jump\t// in\n    tag_343:\n      mload(0x40)\n      dup1\n      swap2\n      sub\n      swap1\n      revert\n    tag_342:\n        /* \"Taxpayer.sol\":2377:2378  0 */\n      0x00\n        /* \"Taxpayer.sol\":2352:2362  new_spouse */\n      dup2\n        /* \"Taxpayer.sol\":2352:2374  new_spouse.code.length */\n      0xffffffffffffffffffffffffffffffffffffffff\n      and\n      extcodesize\n        /* \"Taxpayer.sol\":2352:2378  new_spouse.code.length > 0 */\n      gt\n        /* \"Taxpayer.sol\":2344:2408  require(new_spouse.code.length > 0, \"Spouse must be a contract\") */\n      tag_345\n      jumpi\n      mload(0x40)\n      0x08c379a000000000000000000000000000000000000000000000000000000000\n      dup2\n      mstore\n      0x04\n      add\n      tag_346\n      swap1\n      tag_347\n      jump\t// in\n    tag_346:\n      mload(0x40)\n      dup1\n      swap2\n      sub\n      swap1\n      revert\n    tag_345:\n        /* \"Taxpayer.sol\":2540:2559  bool partnerMarried */\n      0x00\n        /* \"Taxpayer.sol\":2576:2586  new_spouse */\n      dup2\n        /* \"Taxpayer.sol\":2567:2600  Taxpayer(new_spouse).getIsMarried */\n      0xffffffffffffffffffffffffffffffffffffffff\n      and\n      0x8bc87745\n        /* \"Taxpayer.sol\":2567:2602  Taxpayer(new_spouse).getIsMarried() */\n      mload(0x40)\n      dup2\n      0xffffffff\n      and\n      0xe0\n      shl\n      dup2\n      mstore\n      0x04\n      add\n      0x20\n      mload(0x40)\n      dup1\n      dup4\n      sub\n      dup2\n      dup7\n      gas\n      staticcall\n      swap3\n      pop\n      pop\n      pop\n      dup1\n      iszero\n      tag_348\n      jumpi\n      pop\n      mload(0x40)\n      returndatasize\n      not(0x1f)\n      0x1f\n      dup3\n      add\n      and\n      dup3\n      add\n      dup1\n      0x40\n      mstore\n      pop\n      dup2\n      add\n      swap1\n      tag_349\n      swap2\n      swap1\n      tag_170\n      jump\t// in\n    tag_349:\n      0x01\n    tag_348:\n        /* \"Taxpayer.sol\":2563:2700  try Taxpayer(new_spouse).getIsMarried() returns (bool pm) {... */\n      tag_350\n      jumpi\n        /* \"Taxpayer.sol\":2664:2695  revert(\"Spouse not compatible\") */\n      mload(0x40)\n      0x08c379a000000000000000000000000000000000000000000000000000000000\n      dup2\n      mstore\n      0x04\n      add\n      tag_354\n      swap1\n      tag_355\n      jump\t// in\n    tag_354:\n      mload(0x40)\n      dup1\n      swap2\n      sub\n      swap1\n      revert\n        /* \"Taxpayer.sol\":2563:2700  try Taxpayer(new_spouse).getIsMarried() returns (bool pm) {... */\n    tag_350:\n        /* \"Taxpayer.sol\":2644:2646  pm */\n      dup1\n        /* \"Taxpayer.sol\":2627:2646  partnerMarried = pm */\n      swap2\n      pop\n        /* \"Taxpayer.sol\":2603:2651  returns (bool pm) {... */\n      pop\n        /* \"Taxpayer.sol\":2712:2726  partnerMarried */\n      dup1\n        /* \"Taxpayer.sol\":2711:2726  !partnerMarried */\n      iszero\n        /* \"Taxpayer.sol\":2703:2753  require(!partnerMarried, \"Spouse already married\") */\n      tag_357\n      jumpi\n      mload(0x40)\n      0x08c379a000000000000000000000000000000000000000000000000000000000\n      dup2\n      mstore\n      0x04\n      add\n      tag_358\n      swap1\n      tag_359\n      jump\t// in\n    tag_358:\n      mload(0x40)\n      dup1\n      swap2\n      sub\n      swap1\n      revert\n    tag_357:\n        /* \"Taxpayer.sol\":2768:2778  new_spouse */\n      dup2\n        /* \"Taxpayer.sol\":2759:2765  spouse */\n      0x01\n      0x02\n        /* \"Taxpayer.sol\":2759:2778  spouse = new_spouse */\n      0x0100\n      exp\n      dup2\n      sload\n      dup2\n      0xffffffffffffffffffffffffffffffffffffffff\n      mul\n      not\n      and\n      swap1\n      dup4\n      0xffffffffffffffffffffffffffffffffffffffff\n      and\n      mul\n      or\n      swap1\n      sstore\n      pop\n        /* \"Taxpayer.sol\":2794:2798  true */\n      0x01\n        /* \"Taxpayer.sol\":2782:2791  isMarried */\n      dup1\n      0x00\n        /* \"Taxpayer.sol\":2782:2798  isMarried = true */\n      0x0100\n      exp\n      dup2\n      sload\n      dup2\n      0xff\n      mul\n      not\n      and\n      swap1\n      dup4\n      iszero\n      iszero\n      mul\n      or\n      swap1\n      sstore\n      pop\n        /* \"Taxpayer.sol\":2858:2885  determineDefaultAllowance() */\n      tag_360\n        /* \"Taxpayer.sol\":2858:2883  determineDefaultAllowance */\n      tag_243\n        /* \"Taxpayer.sol\":2858:2885  determineDefaultAllowance() */\n      jump\t// in\n    tag_360:\n        /* \"Taxpayer.sol\":2842:2855  tax_allowance */\n      0x05\n        /* \"Taxpayer.sol\":2842:2885  tax_allowance = determineDefaultAllowance() */\n      dup2\n      swap1\n      sstore\n      pop\n        /* \"Taxpayer.sol\":2972:2978  spouse */\n      0x01\n      0x02\n      swap1\n      sload\n      swap1\n      0x0100\n      exp\n      swap1\n      div\n      0xffffffffffffffffffffffffffffffffffffffff\n      and\n        /* \"Taxpayer.sol\":2963:3005  Taxpayer(spouse).updateMarriageFromPartner */\n      0xffffffffffffffffffffffffffffffffffffffff\n      and\n      0xcb01a92b\n        /* \"Taxpayer.sol\":3014:3018  this */\n      address\n        /* \"Taxpayer.sol\":2963:3020  Taxpayer(spouse).updateMarriageFromPartner(address(this)) */\n      mload(0x40)\n      dup3\n      0xffffffff\n      and\n      0xe0\n      shl\n      dup2\n      mstore\n      0x04\n      add\n      tag_361\n      swap2\n      swap1\n      tag_52\n      jump\t// in\n    tag_361:\n      0x00\n      mload(0x40)\n      dup1\n      dup4\n      sub\n      dup2\n      0x00\n      dup8\n      dup1\n      extcodesize\n      iszero\n      dup1\n      iszero\n      tag_362\n      jumpi\n      revert(0x00, 0x00)\n    tag_362:\n      pop\n      gas\n      call\n      swap3\n      pop\n      pop\n      pop\n      dup1\n      iszero\n      tag_363\n      jumpi\n      pop\n      0x01\n    tag_363:\n        /* \"Taxpayer.sol\":2959:3180  try Taxpayer(spouse).updateMarriageFromPartner(address(this)) {... */\n      tag_364\n      jumpi\n        /* \"Taxpayer.sol\":3110:3111  0 */\n      0x00\n        /* \"Taxpayer.sol\":3093:3099  spouse */\n      0x01\n      0x02\n        /* \"Taxpayer.sol\":3093:3112  spouse = address(0) */\n      0x0100\n      exp\n      dup2\n      sload\n      dup2\n      0xffffffffffffffffffffffffffffffffffffffff\n      mul\n      not\n      and\n      swap1\n      dup4\n      0xffffffffffffffffffffffffffffffffffffffff\n      and\n      mul\n      or\n      swap1\n      sstore\n      pop\n        /* \"Taxpayer.sol\":3130:3135  false */\n      0x00\n        /* \"Taxpayer.sol\":3118:3127  isMarried */\n      0x01\n      0x00\n        /* \"Taxpayer.sol\":3118:3135  isMarried = false */\n      0x0100\n      exp\n      dup2\n      sload\n      dup2\n      0xff\n      mul\n      not\n      and\n      swap1\n      dup4\n      iszero\n      iszero\n      mul\n      or\n      swap1\n      sstore\n      pop\n        /* \"Taxpayer.sol\":3141:3175  revert(\"Failed to update partner\") */\n      mload(0x40)\n      0x08c379a000000000000000000000000000000000000000000000000000000000\n      dup2\n      mstore\n      0x04\n      add\n      tag_368\n      swap1\n      tag_369\n      jump\t// in\n    tag_368:\n      mload(0x40)\n      dup1\n      swap2\n      sub\n      swap1\n      revert\n        /* \"Taxpayer.sol\":2959:3180  try Taxpayer(spouse).updateMarriageFromPartner(address(this)) {... */\n    tag_364:\n        /* \"Taxpayer.sol\":3248:3258  new_spouse */\n      dup2\n        /* \"Taxpayer.sol\":3239:3275  Taxpayer(new_spouse).setTaxAllowance */\n      0xffffffffffffffffffffffffffffffffffffffff\n      and\n      0x25803d64\n        /* \"Taxpayer.sol\":3285:3295  new_spouse */\n      dup4\n        /* \"Taxpayer.sol\":3276:3316  Taxpayer(new_spouse).getDefaultAllowance */\n      0xffffffffffffffffffffffffffffffffffffffff\n      and\n      0x594db753\n        /* \"Taxpayer.sol\":3276:3318  Taxpayer(new_spouse).getDefaultAllowance() */\n      mload(0x40)\n      dup2\n      0xffffffff\n      and\n      0xe0\n      shl\n      dup2\n      mstore\n      0x04\n      add\n      0x20\n      mload(0x40)\n      dup1\n      dup4\n      sub\n      dup2\n      dup7\n      gas\n      staticcall\n      iszero\n      dup1\n      iszero\n      tag_372\n      jumpi\n      returndatacopy(0x00, 0x00, returndatasize)\n      revert(0x00, returndatasize)\n    tag_372:\n      pop\n      pop\n      pop\n      pop\n      mload(0x40)\n      returndatasize\n      not(0x1f)\n      0x1f\n      dup3\n      add\n      and\n      dup3\n      add\n      dup1\n      0x40\n      mstore\n      pop\n      dup2\n      add\n      swap1\n      tag_373\n      swap2\n      swap1\n      tag_374\n      jump\t// in\n    tag_373:\n        /* \"Taxpayer.sol\":3239:3319  Taxpayer(new_spouse).setTaxAllowance(Taxpayer(new_spouse).getDefaultAllowance()) */\n      mload(0x40)\n      dup3\n      0xffffffff\n      and\n      0xe0\n      shl\n      dup2\n      mstore\n      0x04\n      add\n      tag_375\n      swap2\n      swap1\n      tag_82\n      jump\t// in\n    tag_375:\n      0x00\n      mload(0x40)\n      dup1\n      dup4\n      sub\n      dup2\n      0x00\n      dup8\n      dup1\n      extcodesize\n      iszero\n      dup1\n      iszero\n      tag_376\n      jumpi\n      revert(0x00, 0x00)\n    tag_376:\n      pop\n      gas\n      call\n      swap3\n      pop\n      pop\n      pop\n      dup1\n      iszero\n      tag_377\n      jumpi\n      pop\n      0x01\n    tag_377:\n        /* \"Taxpayer.sol\":3235:3481  try Taxpayer(new_spouse).setTaxAllowance(Taxpayer(new_spouse).getDefaultAllowance()) {... */\n      tag_378\n      jumpi\n        /* \"Taxpayer.sol\":3404:3405  0 */\n      0x00\n        /* \"Taxpayer.sol\":3387:3393  spouse */\n      0x01\n      0x02\n        /* \"Taxpayer.sol\":3387:3406  spouse = address(0) */\n      0x0100\n      exp\n      dup2\n      sload\n      dup2\n      0xffffffffffffffffffffffffffffffffffffffff\n      mul\n      not\n      and\n      swap1\n      dup4\n      0xffffffffffffffffffffffffffffffffffffffff\n      and\n      mul\n      or\n      swap1\n      sstore\n      pop\n        /* \"Taxpayer.sol\":3424:3429  false */\n      0x00\n        /* \"Taxpayer.sol\":3412:3421  isMarried */\n      0x01\n      0x00\n        /* \"Taxpayer.sol\":3412:3429  isMarried = false */\n      0x0100\n      exp\n      dup2\n      sload\n      dup2\n      0xff\n      mul\n      not\n      and\n      swap1\n      dup4\n      iszero\n      iszero\n      mul\n      or\n      swap1\n      sstore\n      pop\n        /* \"Taxpayer.sol\":3435:3476  revert(\"Failed to set partner allowance\") */\n      mload(0x40)\n      0x08c379a000000000000000000000000000000000000000000000000000000000\n      dup2\n      mstore\n      0x04\n      add\n      tag_382\n      swap1\n      tag_383\n      jump\t// in\n    tag_382:\n      mload(0x40)\n      dup1\n      swap2\n      sub\n      swap1\n      revert\n        /* \"Taxpayer.sol\":3235:3481  try Taxpayer(new_spouse).setTaxAllowance(Taxpayer(new_spouse).getDefaultAllowance()) {... */\n    tag_378:\n        /* \"Taxpayer.sol\":2102:3488  {... */\n      pop\n        /* \"Taxpayer.sol\":2050:3488  function marry(address new_spouse) public onlyOwner {... */\n      pop\n      jump\t// out\n        /* \"Taxpayer.sol\":10602:10686  function getTaxAllowance() public view returns(uint) {... */\n    tag_131:\n        /* \"Taxpayer.sol\":10649:10653  uint */\n      0x00\n        /* \"Taxpayer.sol\":10668:10681  tax_allowance */\n      sload(0x05)\n        /* \"Taxpayer.sol\":10661:10681  return tax_allowance */\n      swap1\n      pop\n        /* \"Taxpayer.sol\":10602:10686  function getTaxAllowance() public view returns(uint) {... */\n      swap1\n      jump\t// out\n        /* \"Taxpayer.sol\":6144:6276  function echidna_taxable_non_negative() public view returns (bool) {... */\n    tag_134:\n        /* \"Taxpayer.sol\":6205:6209  bool */\n      0x00\n        /* \"Taxpayer.sol\":6243:6244  0 */\n      0x00\n        /* \"Taxpayer.sol\":6224:6239  taxableIncome() */\n      tag_387\n        /* \"Taxpayer.sol\":6224:6237  taxableIncome */\n      tag_80\n        /* \"Taxpayer.sol\":6224:6239  taxableIncome() */\n      jump\t// in\n    tag_387:\n        /* \"Taxpayer.sol\":6224:6244  taxableIncome() >= 0 */\n      lt\n      iszero\n        /* \"Taxpayer.sol\":6217:6244  return taxableIncome() >= 0 */\n      swap1\n      pop\n        /* \"Taxpayer.sol\":6144:6276  function echidna_taxable_non_negative() public view returns (bool) {... */\n      swap1\n      jump\t// out\n        /* \"Taxpayer.sol\":3541:3717  function updateMarriageFromPartner(address partner) public {... */\n    tag_138:\n        /* \"Taxpayer.sol\":3628:3635  partner */\n      dup1\n        /* \"Taxpayer.sol\":3614:3635  msg.sender == partner */\n      0xffffffffffffffffffffffffffffffffffffffff\n      and\n        /* \"Taxpayer.sol\":3614:3624  msg.sender */\n      caller\n        /* \"Taxpayer.sol\":3614:3635  msg.sender == partner */\n      0xffffffffffffffffffffffffffffffffffffffff\n      and\n      eq\n        /* \"Taxpayer.sol\":3606:3666  require(msg.sender == partner, \"Only partner can call this\") */\n      tag_389\n      jumpi\n      mload(0x40)\n      0x08c379a000000000000000000000000000000000000000000000000000000000\n      dup2\n      mstore\n      0x04\n      add\n      tag_390\n      swap1\n      tag_391\n      jump\t// in\n    tag_390:\n      mload(0x40)\n      dup1\n      swap2\n      sub\n      swap1\n      revert\n    tag_389:\n        /* \"Taxpayer.sol\":3672:3690  setSpouse(partner) */\n      tag_392\n        /* \"Taxpayer.sol\":3682:3689  partner */\n      dup2\n        /* \"Taxpayer.sol\":3672:3681  setSpouse */\n      tag_95\n        /* \"Taxpayer.sol\":3672:3690  setSpouse(partner) */\n      jump\t// in\n    tag_392:\n        /* \"Taxpayer.sol\":3708:3712  true */\n      0x01\n        /* \"Taxpayer.sol\":3696:3705  isMarried */\n      dup1\n      0x00\n        /* \"Taxpayer.sol\":3696:3712  isMarried = true */\n      0x0100\n      exp\n      dup2\n      sload\n      dup2\n      0xff\n      mul\n      not\n      and\n      swap1\n      dup4\n      iszero\n      iszero\n      mul\n      or\n      swap1\n      sstore\n      pop\n        /* \"Taxpayer.sol\":3541:3717  function updateMarriageFromPartner(address partner) public {... */\n      pop\n      jump\t// out\n        /* \"Taxpayer.sol\":4610:4740  function setTaxAllowanceBySpouse(uint ta) public {... */\n    tag_141:\n        /* \"Taxpayer.sol\":4685:4691  spouse */\n      0x01\n      0x02\n      swap1\n      sload\n      swap1\n      0x0100\n      exp\n      swap1\n      div\n      0xffffffffffffffffffffffffffffffffffffffff\n      and\n        /* \"Taxpayer.sol\":4671:4691  msg.sender == spouse */\n      0xffffffffffffffffffffffffffffffffffffffff\n      and\n        /* \"Taxpayer.sol\":4671:4681  msg.sender */\n      caller\n        /* \"Taxpayer.sol\":4671:4691  msg.sender == spouse */\n      0xffffffffffffffffffffffffffffffffffffffff\n      and\n      eq\n        /* \"Taxpayer.sol\":4663:4715  require(msg.sender == spouse, \"Only spouse can set\") */\n      tag_394\n      jumpi\n      mload(0x40)\n      0x08c379a000000000000000000000000000000000000000000000000000000000\n      dup2\n      mstore\n      0x04\n      add\n      tag_395\n      swap1\n      tag_396\n      jump\t// in\n    tag_395:\n      mload(0x40)\n      dup1\n      swap2\n      sub\n      swap1\n      revert\n    tag_394:\n        /* \"Taxpayer.sol\":4735:4737  ta */\n      dup1\n        /* \"Taxpayer.sol\":4719:4732  tax_allowance */\n      0x05\n        /* \"Taxpayer.sol\":4719:4737  tax_allowance = ta */\n      dup2\n      swap1\n      sstore\n      pop\n        /* \"Taxpayer.sol\":4610:4740  function setTaxAllowanceBySpouse(uint ta) public {... */\n      pop\n      jump\t// out\n        /* \"Taxpayer.sol\":7246:8497  function echidna_spousal_allowance_sum_constant() public view returns (bool) {... */\n    tag_143:\n        /* \"Taxpayer.sol\":7317:7321  bool */\n      0x00\n        /* \"Taxpayer.sol\":7334:7343  isMarried */\n      0x01\n      0x00\n      swap1\n      sload\n      swap1\n      0x0100\n      exp\n      swap1\n      div\n      0xff\n      and\n        /* \"Taxpayer.sol\":7333:7343  !isMarried */\n      iszero\n        /* \"Taxpayer.sol\":7333:7367  !isMarried || spouse == address(0) */\n      dup1\n      tag_398\n      jumpi\n      pop\n        /* \"Taxpayer.sol\":7365:7366  0 */\n      0x00\n        /* \"Taxpayer.sol\":7347:7367  spouse == address(0) */\n      0xffffffffffffffffffffffffffffffffffffffff\n      and\n        /* \"Taxpayer.sol\":7347:7353  spouse */\n      0x01\n      0x02\n      swap1\n      sload\n      swap1\n      0x0100\n      exp\n      swap1\n      div\n      0xffffffffffffffffffffffffffffffffffffffff\n      and\n        /* \"Taxpayer.sol\":7347:7367  spouse == address(0) */\n      0xffffffffffffffffffffffffffffffffffffffff\n      and\n      eq\n        /* \"Taxpayer.sol\":7333:7367  !isMarried || spouse == address(0) */\n    tag_398:\n        /* \"Taxpayer.sol\":7330:7416  if(!isMarried || spouse == address(0)) {... */\n      iszero\n      tag_399\n      jumpi\n        /* \"Taxpayer.sol\":7384:7388  true */\n      0x01\n        /* \"Taxpayer.sol\":7377:7388  return true */\n      swap1\n      pop\n      jump(tag_397)\n        /* \"Taxpayer.sol\":7330:7416  if(!isMarried || spouse == address(0)) {... */\n    tag_399:\n        /* \"Taxpayer.sol\":7422:7436  uint myCurrent */\n      0x00\n        /* \"Taxpayer.sol\":7439:7452  tax_allowance */\n      sload(0x05)\n        /* \"Taxpayer.sol\":7422:7452  uint myCurrent = tax_allowance */\n      swap1\n      pop\n        /* \"Taxpayer.sol\":7458:7474  Taxpayer partner */\n      0x00\n        /* \"Taxpayer.sol\":7486:7492  spouse */\n      0x01\n      0x02\n      swap1\n      sload\n      swap1\n      0x0100\n      exp\n      swap1\n      div\n      0xffffffffffffffffffffffffffffffffffffffff\n      and\n        /* \"Taxpayer.sol\":7458:7493  Taxpayer partner = Taxpayer(spouse) */\n      swap1\n      pop\n        /* \"Taxpayer.sol\":7500:7519  uint partnerCurrent */\n      0x00\n        /* \"Taxpayer.sol\":7525:7544  uint partnerInitial */\n      0x00\n        /* \"Taxpayer.sol\":7550:7566  uint partnerBase */\n      0x00\n        /* \"Taxpayer.sol\":7623:7630  partner */\n      dup4\n        /* \"Taxpayer.sol\":7623:7646  partner.getTaxAllowance */\n      0xffffffffffffffffffffffffffffffffffffffff\n      and\n      0xc043decc\n        /* \"Taxpayer.sol\":7623:7648  partner.getTaxAllowance() */\n      mload(0x40)\n      dup2\n      0xffffffff\n      and\n      0xe0\n      shl\n      dup2\n      mstore\n      0x04\n      add\n      0x20\n      mload(0x40)\n      dup1\n      dup4\n      sub\n      dup2\n      dup7\n      gas\n      staticcall\n      swap3\n      pop\n      pop\n      pop\n      dup1\n      iszero\n      tag_400\n      jumpi\n      pop\n      mload(0x40)\n      returndatasize\n      not(0x1f)\n      0x1f\n      dup3\n      add\n      and\n      dup3\n      add\n      dup1\n      0x40\n      mstore\n      pop\n      dup2\n      add\n      swap1\n      tag_401\n      swap2\n      swap1\n      tag_374\n      jump\t// in\n    tag_401:\n      0x01\n    tag_400:\n        /* \"Taxpayer.sol\":7619:7776  try partner.getTaxAllowance() returns (uint pc) {... */\n      tag_402\n      jumpi\n        /* \"Taxpayer.sol\":7723:7728  false */\n      0x00\n        /* \"Taxpayer.sol\":7716:7728  return false */\n      swap6\n      pop\n      pop\n      pop\n      pop\n      pop\n      pop\n      jump(tag_397)\n        /* \"Taxpayer.sol\":7619:7776  try partner.getTaxAllowance() returns (uint pc) {... */\n    tag_402:\n        /* \"Taxpayer.sol\":7692:7694  pc */\n      dup1\n        /* \"Taxpayer.sol\":7675:7694  partnerCurrent = pc */\n      swap4\n      pop\n        /* \"Taxpayer.sol\":7649:7701  returns (uint pc) {... */\n      pop\n        /* \"Taxpayer.sol\":7835:7842  partner */\n      dup4\n        /* \"Taxpayer.sol\":7835:7865  partner.getInitialTaxAllowance */\n      0xffffffffffffffffffffffffffffffffffffffff\n      and\n      0x6aa393f8\n        /* \"Taxpayer.sol\":7835:7867  partner.getInitialTaxAllowance() */\n      mload(0x40)\n      dup2\n      0xffffffff\n      and\n      0xe0\n      shl\n      dup2\n      mstore\n      0x04\n      add\n      0x20\n      mload(0x40)\n      dup1\n      dup4\n      sub\n      dup2\n      dup7\n      gas\n      staticcall\n      swap3\n      pop\n      pop\n      pop\n      dup1\n      iszero\n      tag_407\n      jumpi\n      pop\n      mload(0x40)\n      returndatasize\n      not(0x1f)\n      0x1f\n      dup3\n      add\n      and\n      dup3\n      add\n      dup1\n      0x40\n      mstore\n      pop\n      dup2\n      add\n      swap1\n      tag_408\n      swap2\n      swap1\n      tag_374\n      jump\t// in\n    tag_408:\n      0x01\n    tag_407:\n        /* \"Taxpayer.sol\":7831:7954  try partner.getInitialTaxAllowance() returns (uint pi) {... */\n      tag_409\n      jumpi\n        /* \"Taxpayer.sol\":7942:7947  false */\n      0x00\n        /* \"Taxpayer.sol\":7935:7947  return false */\n      swap6\n      pop\n      pop\n      pop\n      pop\n      pop\n      pop\n      jump(tag_397)\n        /* \"Taxpayer.sol\":7831:7954  try partner.getInitialTaxAllowance() returns (uint pi) {... */\n    tag_409:\n        /* \"Taxpayer.sol\":7911:7913  pi */\n      dup1\n        /* \"Taxpayer.sol\":7894:7913  partnerInitial = pi */\n      swap3\n      pop\n        /* \"Taxpayer.sol\":7868:7920  returns (uint pi) {... */\n      pop\n        /* \"Taxpayer.sol\":8033:8040  partner */\n      dup4\n        /* \"Taxpayer.sol\":8033:8060  partner.getDefaultAllowance */\n      0xffffffffffffffffffffffffffffffffffffffff\n      and\n      0x594db753\n        /* \"Taxpayer.sol\":8033:8062  partner.getDefaultAllowance() */\n      mload(0x40)\n      dup2\n      0xffffffff\n      and\n      0xe0\n      shl\n      dup2\n      mstore\n      0x04\n      add\n      0x20\n      mload(0x40)\n      dup1\n      dup4\n      sub\n      dup2\n      dup7\n      gas\n      staticcall\n      swap3\n      pop\n      pop\n      pop\n      dup1\n      iszero\n      tag_414\n      jumpi\n      pop\n      mload(0x40)\n      returndatasize\n      not(0x1f)\n      0x1f\n      dup3\n      add\n      and\n      dup3\n      add\n      dup1\n      0x40\n      mstore\n      pop\n      dup2\n      add\n      swap1\n      tag_415\n      swap2\n      swap1\n      tag_374\n      jump\t// in\n    tag_415:\n      0x01\n    tag_414:\n        /* \"Taxpayer.sol\":8029:8146  try partner.getDefaultAllowance() returns (uint pb) {... */\n      tag_416\n      jumpi\n        /* \"Taxpayer.sol\":8134:8139  false */\n      0x00\n        /* \"Taxpayer.sol\":8127:8139  return false */\n      swap6\n      pop\n      pop\n      pop\n      pop\n      pop\n      pop\n      jump(tag_397)\n        /* \"Taxpayer.sol\":8029:8146  try partner.getDefaultAllowance() returns (uint pb) {... */\n    tag_416:\n        /* \"Taxpayer.sol\":8103:8105  pb */\n      dup1\n        /* \"Taxpayer.sol\":8089:8105  partnerBase = pb */\n      swap2\n      pop\n        /* \"Taxpayer.sol\":8063:8112  returns (uint pb) {... */\n      pop\n        /* \"Taxpayer.sol\":8152:8163  uint myBase */\n      0x00\n        /* \"Taxpayer.sol\":8166:8193  determineDefaultAllowance() */\n      tag_421\n        /* \"Taxpayer.sol\":8166:8191  determineDefaultAllowance */\n      tag_243\n        /* \"Taxpayer.sol\":8166:8193  determineDefaultAllowance() */\n      jump\t// in\n    tag_421:\n        /* \"Taxpayer.sol\":8152:8193  uint myBase = determineDefaultAllowance() */\n      swap1\n      pop\n        /* \"Taxpayer.sol\":8285:8302  bool checkInitial */\n      0x00\n        /* \"Taxpayer.sol\":8362:8376  partnerInitial */\n      dup4\n        /* \"Taxpayer.sol\":8338:8359  INITIAL_TAX_ALLOWANCE */\n      immutable(\"0xc1912fee45d61c87cc5ea59dae311904cd86b84fee17cc96966216f811ce6a79\")\n        /* \"Taxpayer.sol\":8338:8376  INITIAL_TAX_ALLOWANCE + partnerInitial */\n      tag_422\n      swap2\n      swap1\n      tag_228\n      jump\t// in\n    tag_422:\n        /* \"Taxpayer.sol\":8318:8332  partnerCurrent */\n      dup6\n        /* \"Taxpayer.sol\":8306:8315  myCurrent */\n      dup9\n        /* \"Taxpayer.sol\":8306:8332  myCurrent + partnerCurrent */\n      tag_423\n      swap2\n      swap1\n      tag_228\n      jump\t// in\n    tag_423:\n        /* \"Taxpayer.sol\":8305:8377  (myCurrent + partnerCurrent) == (INITIAL_TAX_ALLOWANCE + partnerInitial) */\n      eq\n        /* \"Taxpayer.sol\":8285:8377  bool checkInitial = (myCurrent + partnerCurrent) == (INITIAL_TAX_ALLOWANCE + partnerInitial) */\n      swap1\n      pop\n        /* \"Taxpayer.sol\":8383:8396  bool checkOAP */\n      0x00\n        /* \"Taxpayer.sol\":8441:8452  partnerBase */\n      dup4\n        /* \"Taxpayer.sol\":8432:8438  myBase */\n      dup4\n        /* \"Taxpayer.sol\":8432:8452  myBase + partnerBase */\n      tag_424\n      swap2\n      swap1\n      tag_228\n      jump\t// in\n    tag_424:\n        /* \"Taxpayer.sol\":8412:8426  partnerCurrent */\n      dup7\n        /* \"Taxpayer.sol\":8400:8409  myCurrent */\n      dup10\n        /* \"Taxpayer.sol\":8400:8426  myCurrent + partnerCurrent */\n      tag_425\n      swap2\n      swap1\n      tag_228\n      jump\t// in\n    tag_425:\n        /* \"Taxpayer.sol\":8399:8453  (myCurrent + partnerCurrent) <= (myBase + partnerBase) */\n      gt\n      iszero\n        /* \"Taxpayer.sol\":8383:8453  bool checkOAP = (myCurrent + partnerCurrent) <= (myBase + partnerBase) */\n      swap1\n      pop\n        /* \"Taxpayer.sol\":8467:8479  checkInitial */\n      dup2\n        /* \"Taxpayer.sol\":8467:8491  checkInitial && checkOAP */\n      dup1\n      iszero\n      tag_426\n      jumpi\n      pop\n        /* \"Taxpayer.sol\":8483:8491  checkOAP */\n      dup1\n        /* \"Taxpayer.sol\":8467:8491  checkInitial && checkOAP */\n    tag_426:\n        /* \"Taxpayer.sol\":8460:8491  return checkInitial && checkOAP */\n      swap9\n      pop\n      pop\n      pop\n      pop\n      pop\n      pop\n      pop\n      pop\n      pop\n        /* \"Taxpayer.sol\":7246:8497  function echidna_spousal_allowance_sum_constant() public view returns (bool) {... */\n    tag_397:\n      swap1\n      jump\t// out\n        /* \"Taxpayer.sol\":5981:6084  function echidna_not_self_spouse() public view returns (bool) {... */\n    tag_146:\n        /* \"Taxpayer.sol\":6037:6041  bool */\n      0x00\n        /* \"Taxpayer.sol\":6074:6078  this */\n      address\n        /* \"Taxpayer.sol\":6056:6079  spouse != address(this) */\n      0xffffffffffffffffffffffffffffffffffffffff\n      and\n        /* \"Taxpayer.sol\":6056:6062  spouse */\n      0x01\n      0x02\n      swap1\n      sload\n      swap1\n      0x0100\n      exp\n      swap1\n      div\n      0xffffffffffffffffffffffffffffffffffffffff\n      and\n        /* \"Taxpayer.sol\":6056:6079  spouse != address(this) */\n      0xffffffffffffffffffffffffffffffffffffffff\n      and\n      eq\n      iszero\n        /* \"Taxpayer.sol\":6049:6079  return spouse != address(this) */\n      swap1\n      pop\n        /* \"Taxpayer.sol\":5981:6084  function echidna_not_self_spouse() public view returns (bool) {... */\n      swap1\n      jump\t// out\n        /* \"Taxpayer.sol\":3722:4305  function divorce() public onlyOwner {... */\n    tag_149:\n        /* \"Taxpayer.sol\":1936:1941  owner */\n      0x04\n      0x00\n      swap1\n      sload\n      swap1\n      0x0100\n      exp\n      swap1\n      div\n      0xffffffffffffffffffffffffffffffffffffffff\n      and\n        /* \"Taxpayer.sol\":1922:1941  msg.sender == owner */\n      0xffffffffffffffffffffffffffffffffffffffff\n      and\n        /* \"Taxpayer.sol\":1922:1932  msg.sender */\n      caller\n        /* \"Taxpayer.sol\":1922:1941  msg.sender == owner */\n      0xffffffffffffffffffffffffffffffffffffffff\n      and\n      eq\n        /* \"Taxpayer.sol\":1914:1956  require(msg.sender == owner, \"Only owner\") */\n      tag_429\n      jumpi\n      mload(0x40)\n      0x08c379a000000000000000000000000000000000000000000000000000000000\n      dup2\n      mstore\n      0x04\n      add\n      tag_430\n      swap1\n      tag_181\n      jump\t// in\n    tag_430:\n      mload(0x40)\n      dup1\n      swap2\n      sub\n      swap1\n      revert\n    tag_429:\n        /* \"Taxpayer.sol\":3827:3836  isMarried */\n      0x01\n      0x00\n      swap1\n      sload\n      swap1\n      0x0100\n      exp\n      swap1\n      div\n      0xff\n      and\n        /* \"Taxpayer.sol\":3819:3852  require(isMarried, \"Not married\") */\n      tag_432\n      jumpi\n      mload(0x40)\n      0x08c379a000000000000000000000000000000000000000000000000000000000\n      dup2\n      mstore\n      0x04\n      add\n      tag_433\n      swap1\n      tag_434\n      jump\t// in\n    tag_433:\n      mload(0x40)\n      dup1\n      swap2\n      sub\n      swap1\n      revert\n    tag_432:\n        /* \"Taxpayer.sol\":3856:3873  address oldSpouse */\n      0x00\n        /* \"Taxpayer.sol\":3876:3882  spouse */\n      0x01\n      0x02\n      swap1\n      sload\n      swap1\n      0x0100\n      exp\n      swap1\n      div\n      0xffffffffffffffffffffffffffffffffffffffff\n      and\n        /* \"Taxpayer.sol\":3856:3882  address oldSpouse = spouse */\n      swap1\n      pop\n        /* \"Taxpayer.sol\":3923:3924  0 */\n      0x00\n        /* \"Taxpayer.sol\":3906:3912  spouse */\n      0x01\n      0x02\n        /* \"Taxpayer.sol\":3906:3925  spouse = address(0) */\n      0x0100\n      exp\n      dup2\n      sload\n      dup2\n      0xffffffffffffffffffffffffffffffffffffffff\n      mul\n      not\n      and\n      swap1\n      dup4\n      0xffffffffffffffffffffffffffffffffffffffff\n      and\n      mul\n      or\n      swap1\n      sstore\n      pop\n        /* \"Taxpayer.sol\":3941:3946  false */\n      0x00\n        /* \"Taxpayer.sol\":3929:3938  isMarried */\n      0x01\n      0x00\n        /* \"Taxpayer.sol\":3929:3946  isMarried = false */\n      0x0100\n      exp\n      dup2\n      sload\n      dup2\n      0xff\n      mul\n      not\n      and\n      swap1\n      dup4\n      iszero\n      iszero\n      mul\n      or\n      swap1\n      sstore\n      pop\n        /* \"Taxpayer.sol\":4002:4029  determineDefaultAllowance() */\n      tag_435\n        /* \"Taxpayer.sol\":4002:4027  determineDefaultAllowance */\n      tag_243\n        /* \"Taxpayer.sol\":4002:4029  determineDefaultAllowance() */\n      jump\t// in\n    tag_435:\n        /* \"Taxpayer.sol\":3986:3999  tax_allowance */\n      0x05\n        /* \"Taxpayer.sol\":3986:4029  tax_allowance = determineDefaultAllowance() */\n      dup2\n      swap1\n      sstore\n      pop\n        /* \"Taxpayer.sol\":4114:4115  0 */\n      0x00\n        /* \"Taxpayer.sol\":4093:4116  oldSpouse != address(0) */\n      0xffffffffffffffffffffffffffffffffffffffff\n      and\n        /* \"Taxpayer.sol\":4093:4102  oldSpouse */\n      dup2\n        /* \"Taxpayer.sol\":4093:4116  oldSpouse != address(0) */\n      0xffffffffffffffffffffffffffffffffffffffff\n      and\n      eq\n      iszero\n        /* \"Taxpayer.sol\":4093:4145  oldSpouse != address(0) && oldSpouse.code.length > 0 */\n      dup1\n      iszero\n      tag_436\n      jumpi\n      pop\n        /* \"Taxpayer.sol\":4144:4145  0 */\n      0x00\n        /* \"Taxpayer.sol\":4120:4129  oldSpouse */\n      dup2\n        /* \"Taxpayer.sol\":4120:4141  oldSpouse.code.length */\n      0xffffffffffffffffffffffffffffffffffffffff\n      and\n      extcodesize\n        /* \"Taxpayer.sol\":4120:4145  oldSpouse.code.length > 0 */\n      gt\n        /* \"Taxpayer.sol\":4093:4145  oldSpouse != address(0) && oldSpouse.code.length > 0 */\n    tag_436:\n        /* \"Taxpayer.sol\":4090:4301  if(oldSpouse != address(0) && oldSpouse.code.length > 0) {... */\n      iszero\n      tag_437\n      jumpi\n        /* \"Taxpayer.sol\":4166:4175  oldSpouse */\n      dup1\n        /* \"Taxpayer.sol\":4157:4201  Taxpayer(oldSpouse).notifyDivorceFromPartner */\n      0xffffffffffffffffffffffffffffffffffffffff\n      and\n      0x38fb27ba\n        /* \"Taxpayer.sol\":4210:4214  this */\n      address\n        /* \"Taxpayer.sol\":4157:4216  Taxpayer(oldSpouse).notifyDivorceFromPartner(address(this)) */\n      mload(0x40)\n      dup3\n      0xffffffff\n      and\n      0xe0\n      shl\n      dup2\n      mstore\n      0x04\n      add\n      tag_438\n      swap2\n      swap1\n      tag_52\n      jump\t// in\n    tag_438:\n      0x00\n      mload(0x40)\n      dup1\n      dup4\n      sub\n      dup2\n      0x00\n      dup8\n      dup1\n      extcodesize\n      iszero\n      dup1\n      iszero\n      tag_439\n      jumpi\n      revert(0x00, 0x00)\n    tag_439:\n      pop\n      gas\n      call\n      swap3\n      pop\n      pop\n      pop\n      dup1\n      iszero\n      tag_440\n      jumpi\n      pop\n      0x01\n    tag_440:\n        /* \"Taxpayer.sol\":4153:4297  try Taxpayer(oldSpouse).notifyDivorceFromPartner(address(this)) {... */\n      tag_441\n      jumpi\n        /* \"Taxpayer.sol\":4256:4290  revert(\"Failed to notify partner\") */\n      mload(0x40)\n      0x08c379a000000000000000000000000000000000000000000000000000000000\n      dup2\n      mstore\n      0x04\n      add\n      tag_445\n      swap1\n      tag_446\n      jump\t// in\n    tag_445:\n      mload(0x40)\n      dup1\n      swap2\n      sub\n      swap1\n      revert\n        /* \"Taxpayer.sol\":4153:4297  try Taxpayer(oldSpouse).notifyDivorceFromPartner(address(this)) {... */\n    tag_441:\n        /* \"Taxpayer.sol\":4090:4301  if(oldSpouse != address(0) && oldSpouse.code.length > 0) {... */\n    tag_437:\n        /* \"Taxpayer.sol\":3758:4305  {... */\n      pop\n        /* \"Taxpayer.sol\":3722:4305  function divorce() public onlyOwner {... */\n      jump\t// out\n        /* \"Taxpayer.sol\":885:953  function getIncome() public view returns (uint) {... */\n    tag_151:\n        /* \"Taxpayer.sol\":927:931  uint */\n      0x00\n        /* \"Taxpayer.sol\":944:950  income */\n      sload(0x06)\n        /* \"Taxpayer.sol\":937:950  return income */\n      swap1\n      pop\n        /* \"Taxpayer.sol\":885:953  function getIncome() public view returns (uint) {... */\n      swap1\n      jump\t// out\n        /* \"Taxpayer.sol\":10691:10766  function isContract() public view returns(bool){... */\n    tag_154:\n        /* \"Taxpayer.sol\":10733:10737  bool */\n      0x00\n        /* \"Taxpayer.sol\":10751:10761  iscontract */\n      0x01\n      dup1\n      sload\n      swap1\n      0x0100\n      exp\n      swap1\n      div\n      0xff\n      and\n        /* \"Taxpayer.sol\":10744:10761  return iscontract */\n      swap1\n      pop\n        /* \"Taxpayer.sol\":10691:10766  function isContract() public view returns(bool){... */\n      swap1\n      jump\t// out\n        /* \"Taxpayer.sol\":10191:10432  function isAuthorizedContract(address a) internal view returns (bool) {... */\n    tag_213:\n        /* \"Taxpayer.sol\":10255:10259  bool */\n      0x00\n        /* \"Taxpayer.sol\":10287:10288  0 */\n      0x00\n        /* \"Taxpayer.sol\":10270:10271  a */\n      dup3\n        /* \"Taxpayer.sol\":10270:10283  a.code.length */\n      0xffffffffffffffffffffffffffffffffffffffff\n      and\n      extcodesize\n        /* \"Taxpayer.sol\":10270:10288  a.code.length == 0 */\n      sub\n        /* \"Taxpayer.sol\":10267:10317  if(a.code.length == 0) {... */\n      tag_451\n      jumpi\n        /* \"Taxpayer.sol\":10305:10310  false */\n      0x00\n        /* \"Taxpayer.sol\":10298:10310  return false */\n      swap1\n      pop\n      jump(tag_450)\n        /* \"Taxpayer.sol\":10267:10317  if(a.code.length == 0) {... */\n    tag_451:\n        /* \"Taxpayer.sol\":10335:10336  a */\n      dup2\n        /* \"Taxpayer.sol\":10327:10348  Lottery(a).isContract */\n      0xffffffffffffffffffffffffffffffffffffffff\n      and\n      0xf7ec2f35\n        /* \"Taxpayer.sol\":10327:10350  Lottery(a).isContract() */\n      mload(0x40)\n      dup2\n      0xffffffff\n      and\n      0xe0\n      shl\n      dup2\n      mstore\n      0x04\n      add\n      0x20\n      mload(0x40)\n      dup1\n      dup4\n      sub\n      dup2\n      dup7\n      gas\n      staticcall\n      swap3\n      pop\n      pop\n      pop\n      dup1\n      iszero\n      tag_452\n      jumpi\n      pop\n      mload(0x40)\n      returndatasize\n      not(0x1f)\n      0x1f\n      dup3\n      add\n      and\n      dup3\n      add\n      dup1\n      0x40\n      mstore\n      pop\n      dup2\n      add\n      swap1\n      tag_453\n      swap2\n      swap1\n      tag_170\n      jump\t// in\n    tag_453:\n      0x01\n    tag_452:\n        /* \"Taxpayer.sol\":10323:10427  try Lottery(a).isContract() returns (bool ok) {... */\n      tag_454\n      jumpi\n        /* \"Taxpayer.sol\":10415:10420  false */\n      0x00\n        /* \"Taxpayer.sol\":10408:10420  return false */\n      swap1\n      pop\n      jump(tag_450)\n        /* \"Taxpayer.sol\":10323:10427  try Lottery(a).isContract() returns (bool ok) {... */\n    tag_454:\n        /* \"Taxpayer.sol\":10384:10386  ok */\n      dup1\n        /* \"Taxpayer.sol\":10377:10386  return ok */\n      swap2\n      pop\n      pop\n        /* \"Taxpayer.sol\":10191:10432  function isAuthorizedContract(address a) internal view returns (bool) {... */\n    tag_450:\n      swap2\n      swap1\n      pop\n      jump\t// out\n        /* \"Taxpayer.sol\":10442:10597  function determineDefaultAllowance() internal view returns (uint) {... */\n    tag_243:\n        /* \"Taxpayer.sol\":10502:10506  uint */\n      0x00\n        /* \"Taxpayer.sol\":10524:10526  65 */\n      0x41\n        /* \"Taxpayer.sol\":10517:10520  age */\n      sload(0x00)\n        /* \"Taxpayer.sol\":10517:10526  age >= 65 */\n      lt\n        /* \"Taxpayer.sol\":10514:10563  if(age >= 65) {... */\n      tag_460\n      jumpi\n        /* \"Taxpayer.sol\":524:528  7000 */\n      0x1b58\n        /* \"Taxpayer.sol\":10536:10556  return ALLOWANCE_OAP */\n      swap1\n      pop\n      jump(tag_459)\n        /* \"Taxpayer.sol\":10514:10563  if(age >= 65) {... */\n    tag_460:\n        /* \"Taxpayer.sol\":420:424  5000 */\n      0x1388\n        /* \"Taxpayer.sol\":10568:10592  return DEFAULT_ALLOWANCE */\n      swap1\n      pop\n        /* \"Taxpayer.sol\":10442:10597  function determineDefaultAllowance() internal view returns (uint) {... */\n    tag_459:\n      swap1\n      jump\t// out\n        /* \"#utility.yul\":7:97   */\n    tag_461:\n        /* \"#utility.yul\":41:48   */\n      0x00\n        /* \"#utility.yul\":84:89   */\n      dup2\n        /* \"#utility.yul\":77:90   */\n      iszero\n        /* \"#utility.yul\":70:91   */\n      iszero\n        /* \"#utility.yul\":59:91   */\n      swap1\n      pop\n        /* \"#utility.yul\":7:97   */\n      swap2\n      swap1\n      pop\n      jump\t// out\n        /* \"#utility.yul\":103:212   */\n    tag_462:\n        /* \"#utility.yul\":184:205   */\n      tag_541\n        /* \"#utility.yul\":199:204   */\n      dup2\n        /* \"#utility.yul\":184:205   */\n      tag_461\n      jump\t// in\n    tag_541:\n        /* \"#utility.yul\":179:182   */\n      dup3\n        /* \"#utility.yul\":172:206   */\n      mstore\n        /* \"#utility.yul\":103:212   */\n      pop\n      pop\n      jump\t// out\n        /* \"#utility.yul\":218:428   */\n    tag_48:\n        /* \"#utility.yul\":305:309   */\n      0x00\n        /* \"#utility.yul\":343:345   */\n      0x20\n        /* \"#utility.yul\":332:341   */\n      dup3\n        /* \"#utility.yul\":328:346   */\n      add\n        /* \"#utility.yul\":320:346   */\n      swap1\n      pop\n        /* \"#utility.yul\":356:421   */\n      tag_543\n        /* \"#utility.yul\":418:419   */\n      0x00\n        /* \"#utility.yul\":407:416   */\n      dup4\n        /* \"#utility.yul\":403:420   */\n      add\n        /* \"#utility.yul\":394:400   */\n      dup5\n        /* \"#utility.yul\":356:421   */\n      tag_462\n      jump\t// in\n    tag_543:\n        /* \"#utility.yul\":218:428   */\n      swap3\n      swap2\n      pop\n      pop\n      jump\t// out\n        /* \"#utility.yul\":434:560   */\n    tag_463:\n        /* \"#utility.yul\":471:478   */\n      0x00\n        /* \"#utility.yul\":511:553   */\n      0xffffffffffffffffffffffffffffffffffffffff\n        /* \"#utility.yul\":504:509   */\n      dup3\n        /* \"#utility.yul\":500:554   */\n      and\n        /* \"#utility.yul\":489:554   */\n      swap1\n      pop\n        /* \"#utility.yul\":434:560   */\n      swap2\n      swap1\n      pop\n      jump\t// out\n        /* \"#utility.yul\":566:662   */\n    tag_464:\n        /* \"#utility.yul\":603:610   */\n      0x00\n        /* \"#utility.yul\":632:656   */\n      tag_546\n        /* \"#utility.yul\":650:655   */\n      dup3\n        /* \"#utility.yul\":632:656   */\n      tag_463\n      jump\t// in\n    tag_546:\n        /* \"#utility.yul\":621:656   */\n      swap1\n      pop\n        /* \"#utility.yul\":566:662   */\n      swap2\n      swap1\n      pop\n      jump\t// out\n        /* \"#utility.yul\":668:786   */\n    tag_465:\n        /* \"#utility.yul\":755:779   */\n      tag_548\n        /* \"#utility.yul\":773:778   */\n      dup2\n        /* \"#utility.yul\":755:779   */\n      tag_464\n      jump\t// in\n    tag_548:\n        /* \"#utility.yul\":750:753   */\n      dup3\n        /* \"#utility.yul\":743:780   */\n      mstore\n        /* \"#utility.yul\":668:786   */\n      pop\n      pop\n      jump\t// out\n        /* \"#utility.yul\":792:1014   */\n    tag_52:\n        /* \"#utility.yul\":885:889   */\n      0x00\n        /* \"#utility.yul\":923:925   */\n      0x20\n        /* \"#utility.yul\":912:921   */\n      dup3\n        /* \"#utility.yul\":908:926   */\n      add\n        /* \"#utility.yul\":900:926   */\n      swap1\n      pop\n        /* \"#utility.yul\":936:1007   */\n      tag_550\n        /* \"#utility.yul\":1004:1005   */\n      0x00\n        /* \"#utility.yul\":993:1002   */\n      dup4\n        /* \"#utility.yul\":989:1006   */\n      add\n        /* \"#utility.yul\":980:986   */\n      dup5\n        /* \"#utility.yul\":936:1007   */\n      tag_465\n      jump\t// in\n    tag_550:\n        /* \"#utility.yul\":792:1014   */\n      swap3\n      swap2\n      pop\n      pop\n      jump\t// out\n        /* \"#utility.yul\":1101:1218   */\n    tag_467:\n        /* \"#utility.yul\":1210:1211   */\n      0x00\n        /* \"#utility.yul\":1207:1208   */\n      0x00\n        /* \"#utility.yul\":1200:1212   */\n      revert\n        /* \"#utility.yul\":1347:1469   */\n    tag_469:\n        /* \"#utility.yul\":1420:1444   */\n      tag_555\n        /* \"#utility.yul\":1438:1443   */\n      dup2\n        /* \"#utility.yul\":1420:1444   */\n      tag_464\n      jump\t// in\n    tag_555:\n        /* \"#utility.yul\":1413:1418   */\n      dup2\n        /* \"#utility.yul\":1410:1445   */\n      eq\n        /* \"#utility.yul\":1400:1463   */\n      tag_556\n      jumpi\n        /* \"#utility.yul\":1459:1460   */\n      0x00\n        /* \"#utility.yul\":1456:1457   */\n      0x00\n        /* \"#utility.yul\":1449:1461   */\n      revert\n        /* \"#utility.yul\":1400:1463   */\n    tag_556:\n        /* \"#utility.yul\":1347:1469   */\n      pop\n      jump\t// out\n        /* \"#utility.yul\":1475:1614   */\n    tag_470:\n        /* \"#utility.yul\":1521:1526   */\n      0x00\n        /* \"#utility.yul\":1559:1565   */\n      dup2\n        /* \"#utility.yul\":1546:1566   */\n      calldataload\n        /* \"#utility.yul\":1537:1566   */\n      swap1\n      pop\n        /* \"#utility.yul\":1575:1608   */\n      tag_558\n        /* \"#utility.yul\":1602:1607   */\n      dup2\n        /* \"#utility.yul\":1575:1608   */\n      tag_469\n      jump\t// in\n    tag_558:\n        /* \"#utility.yul\":1475:1614   */\n      swap3\n      swap2\n      pop\n      pop\n      jump\t// out\n        /* \"#utility.yul\":1620:1697   */\n    tag_471:\n        /* \"#utility.yul\":1657:1664   */\n      0x00\n        /* \"#utility.yul\":1686:1691   */\n      dup2\n        /* \"#utility.yul\":1675:1691   */\n      swap1\n      pop\n        /* \"#utility.yul\":1620:1697   */\n      swap2\n      swap1\n      pop\n      jump\t// out\n        /* \"#utility.yul\":1703:1825   */\n    tag_472:\n        /* \"#utility.yul\":1776:1800   */\n      tag_561\n        /* \"#utility.yul\":1794:1799   */\n      dup2\n        /* \"#utility.yul\":1776:1800   */\n      tag_471\n      jump\t// in\n    tag_561:\n        /* \"#utility.yul\":1769:1774   */\n      dup2\n        /* \"#utility.yul\":1766:1801   */\n      eq\n        /* \"#utility.yul\":1756:1819   */\n      tag_562\n      jumpi\n        /* \"#utility.yul\":1815:1816   */\n      0x00\n        /* \"#utility.yul\":1812:1813   */\n      0x00\n        /* \"#utility.yul\":1805:1817   */\n      revert\n        /* \"#utility.yul\":1756:1819   */\n    tag_562:\n        /* \"#utility.yul\":1703:1825   */\n      pop\n      jump\t// out\n        /* \"#utility.yul\":1831:1970   */\n    tag_473:\n        /* \"#utility.yul\":1877:1882   */\n      0x00\n        /* \"#utility.yul\":1915:1921   */\n      dup2\n        /* \"#utility.yul\":1902:1922   */\n      calldataload\n        /* \"#utility.yul\":1893:1922   */\n      swap1\n      pop\n        /* \"#utility.yul\":1931:1964   */\n      tag_564\n        /* \"#utility.yul\":1958:1963   */\n      dup2\n        /* \"#utility.yul\":1931:1964   */\n      tag_472\n      jump\t// in\n    tag_564:\n        /* \"#utility.yul\":1831:1970   */\n      swap3\n      swap2\n      pop\n      pop\n      jump\t// out\n        /* \"#utility.yul\":1976:2450   */\n    tag_55:\n        /* \"#utility.yul\":2044:2050   */\n      0x00\n        /* \"#utility.yul\":2052:2058   */\n      0x00\n        /* \"#utility.yul\":2101:2103   */\n      0x40\n        /* \"#utility.yul\":2089:2098   */\n      dup4\n        /* \"#utility.yul\":2080:2087   */\n      dup6\n        /* \"#utility.yul\":2076:2099   */\n      sub\n        /* \"#utility.yul\":2072:2104   */\n      slt\n        /* \"#utility.yul\":2069:2188   */\n      iszero\n      tag_566\n      jumpi\n        /* \"#utility.yul\":2107:2186   */\n      tag_567\n      tag_467\n      jump\t// in\n    tag_567:\n        /* \"#utility.yul\":2069:2188   */\n    tag_566:\n        /* \"#utility.yul\":2227:2228   */\n      0x00\n        /* \"#utility.yul\":2252:2305   */\n      tag_568\n        /* \"#utility.yul\":2297:2304   */\n      dup6\n        /* \"#utility.yul\":2288:2294   */\n      dup3\n        /* \"#utility.yul\":2277:2286   */\n      dup7\n        /* \"#utility.yul\":2273:2295   */\n      add\n        /* \"#utility.yul\":2252:2305   */\n      tag_470\n      jump\t// in\n    tag_568:\n        /* \"#utility.yul\":2242:2305   */\n      swap3\n      pop\n        /* \"#utility.yul\":2198:2315   */\n      pop\n        /* \"#utility.yul\":2354:2356   */\n      0x20\n        /* \"#utility.yul\":2380:2433   */\n      tag_569\n        /* \"#utility.yul\":2425:2432   */\n      dup6\n        /* \"#utility.yul\":2416:2422   */\n      dup3\n        /* \"#utility.yul\":2405:2414   */\n      dup7\n        /* \"#utility.yul\":2401:2423   */\n      add\n        /* \"#utility.yul\":2380:2433   */\n      tag_473\n      jump\t// in\n    tag_569:\n        /* \"#utility.yul\":2370:2433   */\n      swap2\n      pop\n        /* \"#utility.yul\":2325:2443   */\n      pop\n        /* \"#utility.yul\":1976:2450   */\n      swap3\n      pop\n      swap3\n      swap1\n      pop\n      jump\t// out\n        /* \"#utility.yul\":2456:2785   */\n    tag_59:\n        /* \"#utility.yul\":2515:2521   */\n      0x00\n        /* \"#utility.yul\":2564:2566   */\n      0x20\n        /* \"#utility.yul\":2552:2561   */\n      dup3\n        /* \"#utility.yul\":2543:2550   */\n      dup5\n        /* \"#utility.yul\":2539:2562   */\n      sub\n        /* \"#utility.yul\":2535:2567   */\n      slt\n        /* \"#utility.yul\":2532:2651   */\n      iszero\n      tag_571\n      jumpi\n        /* \"#utility.yul\":2570:2649   */\n      tag_572\n      tag_467\n      jump\t// in\n    tag_572:\n        /* \"#utility.yul\":2532:2651   */\n    tag_571:\n        /* \"#utility.yul\":2690:2691   */\n      0x00\n        /* \"#utility.yul\":2715:2768   */\n      tag_573\n        /* \"#utility.yul\":2760:2767   */\n      dup5\n        /* \"#utility.yul\":2751:2757   */\n      dup3\n        /* \"#utility.yul\":2740:2749   */\n      dup6\n        /* \"#utility.yul\":2736:2758   */\n      add\n        /* \"#utility.yul\":2715:2768   */\n      tag_473\n      jump\t// in\n    tag_573:\n        /* \"#utility.yul\":2705:2768   */\n      swap2\n      pop\n        /* \"#utility.yul\":2661:2778   */\n      pop\n        /* \"#utility.yul\":2456:2785   */\n      swap3\n      swap2\n      pop\n      pop\n      jump\t// out\n        /* \"#utility.yul\":2791:3265   */\n    tag_71:\n        /* \"#utility.yul\":2859:2865   */\n      0x00\n        /* \"#utility.yul\":2867:2873   */\n      0x00\n        /* \"#utility.yul\":2916:2918   */\n      0x40\n        /* \"#utility.yul\":2904:2913   */\n      dup4\n        /* \"#utility.yul\":2895:2902   */\n      dup6\n        /* \"#utility.yul\":2891:2914   */\n      sub\n        /* \"#utility.yul\":2887:2919   */\n      slt\n        /* \"#utility.yul\":2884:3003   */\n      iszero\n      tag_575\n      jumpi\n        /* \"#utility.yul\":2922:3001   */\n      tag_576\n      tag_467\n      jump\t// in\n    tag_576:\n        /* \"#utility.yul\":2884:3003   */\n    tag_575:\n        /* \"#utility.yul\":3042:3043   */\n      0x00\n        /* \"#utility.yul\":3067:3120   */\n      tag_577\n        /* \"#utility.yul\":3112:3119   */\n      dup6\n        /* \"#utility.yul\":3103:3109   */\n      dup3\n        /* \"#utility.yul\":3092:3101   */\n      dup7\n        /* \"#utility.yul\":3088:3110   */\n      add\n        /* \"#utility.yul\":3067:3120   */\n      tag_473\n      jump\t// in\n    tag_577:\n        /* \"#utility.yul\":3057:3120   */\n      swap3\n      pop\n        /* \"#utility.yul\":3013:3130   */\n      pop\n        /* \"#utility.yul\":3169:3171   */\n      0x20\n        /* \"#utility.yul\":3195:3248   */\n      tag_578\n        /* \"#utility.yul\":3240:3247   */\n      dup6\n        /* \"#utility.yul\":3231:3237   */\n      dup3\n        /* \"#utility.yul\":3220:3229   */\n      dup7\n        /* \"#utility.yul\":3216:3238   */\n      add\n        /* \"#utility.yul\":3195:3248   */\n      tag_470\n      jump\t// in\n    tag_578:\n        /* \"#utility.yul\":3185:3248   */\n      swap2\n      pop\n        /* \"#utility.yul\":3140:3258   */\n      pop\n        /* \"#utility.yul\":2791:3265   */\n      swap3\n      pop\n      swap3\n      swap1\n      pop\n      jump\t// out\n        /* \"#utility.yul\":3271:3600   */\n    tag_77:\n        /* \"#utility.yul\":3330:3336   */\n      0x00\n        /* \"#utility.yul\":3379:3381   */\n      0x20\n        /* \"#utility.yul\":3367:3376   */\n      dup3\n        /* \"#utility.yul\":3358:3365   */\n      dup5\n        /* \"#utility.yul\":3354:3377   */\n      sub\n        /* \"#utility.yul\":3350:3382   */\n      slt\n        /* \"#utility.yul\":3347:3466   */\n      iszero\n      tag_580\n      jumpi\n        /* \"#utility.yul\":3385:3464   */\n      tag_581\n      tag_467\n      jump\t// in\n    tag_581:\n        /* \"#utility.yul\":3347:3466   */\n    tag_580:\n        /* \"#utility.yul\":3505:3506   */\n      0x00\n        /* \"#utility.yul\":3530:3583   */\n      tag_582\n        /* \"#utility.yul\":3575:3582   */\n      dup5\n        /* \"#utility.yul\":3566:3572   */\n      dup3\n        /* \"#utility.yul\":3555:3564   */\n      dup6\n        /* \"#utility.yul\":3551:3573   */\n      add\n        /* \"#utility.yul\":3530:3583   */\n      tag_470\n      jump\t// in\n    tag_582:\n        /* \"#utility.yul\":3520:3583   */\n      swap2\n      pop\n        /* \"#utility.yul\":3476:3593   */\n      pop\n        /* \"#utility.yul\":3271:3600   */\n      swap3\n      swap2\n      pop\n      pop\n      jump\t// out\n        /* \"#utility.yul\":3606:3724   */\n    tag_474:\n        /* \"#utility.yul\":3693:3717   */\n      tag_584\n        /* \"#utility.yul\":3711:3716   */\n      dup2\n        /* \"#utility.yul\":3693:3717   */\n      tag_471\n      jump\t// in\n    tag_584:\n        /* \"#utility.yul\":3688:3691   */\n      dup3\n        /* \"#utility.yul\":3681:3718   */\n      mstore\n        /* \"#utility.yul\":3606:3724   */\n      pop\n      pop\n      jump\t// out\n        /* \"#utility.yul\":3730:3952   */\n    tag_82:\n        /* \"#utility.yul\":3823:3827   */\n      0x00\n        /* \"#utility.yul\":3861:3863   */\n      0x20\n        /* \"#utility.yul\":3850:3859   */\n      dup3\n        /* \"#utility.yul\":3846:3864   */\n      add\n        /* \"#utility.yul\":3838:3864   */\n      swap1\n      pop\n        /* \"#utility.yul\":3874:3945   */\n      tag_586\n        /* \"#utility.yul\":3942:3943   */\n      0x00\n        /* \"#utility.yul\":3931:3940   */\n      dup4\n        /* \"#utility.yul\":3927:3944   */\n      add\n        /* \"#utility.yul\":3918:3924   */\n      dup5\n        /* \"#utility.yul\":3874:3945   */\n      tag_474\n      jump\t// in\n    tag_586:\n        /* \"#utility.yul\":3730:3952   */\n      swap3\n      swap2\n      pop\n      pop\n      jump\t// out\n        /* \"#utility.yul\":3958:4101   */\n    tag_475:\n        /* \"#utility.yul\":4015:4020   */\n      0x00\n        /* \"#utility.yul\":4046:4052   */\n      dup2\n        /* \"#utility.yul\":4040:4053   */\n      mload\n        /* \"#utility.yul\":4031:4053   */\n      swap1\n      pop\n        /* \"#utility.yul\":4062:4095   */\n      tag_588\n        /* \"#utility.yul\":4089:4094   */\n      dup2\n        /* \"#utility.yul\":4062:4095   */\n      tag_469\n      jump\t// in\n    tag_588:\n        /* \"#utility.yul\":3958:4101   */\n      swap3\n      swap2\n      pop\n      pop\n      jump\t// out\n        /* \"#utility.yul\":4107:4458   */\n    tag_161:\n        /* \"#utility.yul\":4177:4183   */\n      0x00\n        /* \"#utility.yul\":4226:4228   */\n      0x20\n        /* \"#utility.yul\":4214:4223   */\n      dup3\n        /* \"#utility.yul\":4205:4212   */\n      dup5\n        /* \"#utility.yul\":4201:4224   */\n      sub\n        /* \"#utility.yul\":4197:4229   */\n      slt\n        /* \"#utility.yul\":4194:4313   */\n      iszero\n      tag_590\n      jumpi\n        /* \"#utility.yul\":4232:4311   */\n      tag_591\n      tag_467\n      jump\t// in\n    tag_591:\n        /* \"#utility.yul\":4194:4313   */\n    tag_590:\n        /* \"#utility.yul\":4352:4353   */\n      0x00\n        /* \"#utility.yul\":4377:4441   */\n      tag_592\n        /* \"#utility.yul\":4433:4440   */\n      dup5\n        /* \"#utility.yul\":4424:4430   */\n      dup3\n        /* \"#utility.yul\":4413:4422   */\n      dup6\n        /* \"#utility.yul\":4409:4431   */\n      add\n        /* \"#utility.yul\":4377:4441   */\n      tag_475\n      jump\t// in\n    tag_592:\n        /* \"#utility.yul\":4367:4441   */\n      swap2\n      pop\n        /* \"#utility.yul\":4323:4451   */\n      pop\n        /* \"#utility.yul\":4107:4458   */\n      swap3\n      swap2\n      pop\n      pop\n      jump\t// out\n        /* \"#utility.yul\":4464:4580   */\n    tag_476:\n        /* \"#utility.yul\":4534:4555   */\n      tag_594\n        /* \"#utility.yul\":4549:4554   */\n      dup2\n        /* \"#utility.yul\":4534:4555   */\n      tag_461\n      jump\t// in\n    tag_594:\n        /* \"#utility.yul\":4527:4532   */\n      dup2\n        /* \"#utility.yul\":4524:4556   */\n      eq\n        /* \"#utility.yul\":4514:4574   */\n      tag_595\n      jumpi\n        /* \"#utility.yul\":4570:4571   */\n      0x00\n        /* \"#utility.yul\":4567:4568   */\n      0x00\n        /* \"#utility.yul\":4560:4572   */\n      revert\n        /* \"#utility.yul\":4514:4574   */\n    tag_595:\n        /* \"#utility.yul\":4464:4580   */\n      pop\n      jump\t// out\n        /* \"#utility.yul\":4586:4723   */\n    tag_477:\n        /* \"#utility.yul\":4640:4645   */\n      0x00\n        /* \"#utility.yul\":4671:4677   */\n      dup2\n        /* \"#utility.yul\":4665:4678   */\n      mload\n        /* \"#utility.yul\":4656:4678   */\n      swap1\n      pop\n        /* \"#utility.yul\":4687:4717   */\n      tag_597\n        /* \"#utility.yul\":4711:4716   */\n      dup2\n        /* \"#utility.yul\":4687:4717   */\n      tag_476\n      jump\t// in\n    tag_597:\n        /* \"#utility.yul\":4586:4723   */\n      swap3\n      swap2\n      pop\n      pop\n      jump\t// out\n        /* \"#utility.yul\":4729:5074   */\n    tag_170:\n        /* \"#utility.yul\":4796:4802   */\n      0x00\n        /* \"#utility.yul\":4845:4847   */\n      0x20\n        /* \"#utility.yul\":4833:4842   */\n      dup3\n        /* \"#utility.yul\":4824:4831   */\n      dup5\n        /* \"#utility.yul\":4820:4843   */\n      sub\n        /* \"#utility.yul\":4816:4848   */\n      slt\n        /* \"#utility.yul\":4813:4932   */\n      iszero\n      tag_599\n      jumpi\n        /* \"#utility.yul\":4851:4930   */\n      tag_600\n      tag_467\n      jump\t// in\n    tag_600:\n        /* \"#utility.yul\":4813:4932   */\n    tag_599:\n        /* \"#utility.yul\":4971:4972   */\n      0x00\n        /* \"#utility.yul\":4996:5057   */\n      tag_601\n        /* \"#utility.yul\":5049:5056   */\n      dup5\n        /* \"#utility.yul\":5040:5046   */\n      dup3\n        /* \"#utility.yul\":5029:5038   */\n      dup6\n        /* \"#utility.yul\":5025:5047   */\n      add\n        /* \"#utility.yul\":4996:5057   */\n      tag_477\n      jump\t// in\n    tag_601:\n        /* \"#utility.yul\":4986:5057   */\n      swap2\n      pop\n        /* \"#utility.yul\":4942:5067   */\n      pop\n        /* \"#utility.yul\":4729:5074   */\n      swap3\n      swap2\n      pop\n      pop\n      jump\t// out\n        /* \"#utility.yul\":5080:5249   */\n    tag_478:\n        /* \"#utility.yul\":5164:5175   */\n      0x00\n        /* \"#utility.yul\":5198:5204   */\n      dup3\n        /* \"#utility.yul\":5193:5196   */\n      dup3\n        /* \"#utility.yul\":5186:5205   */\n      mstore\n        /* \"#utility.yul\":5238:5242   */\n      0x20\n        /* \"#utility.yul\":5233:5236   */\n      dup3\n        /* \"#utility.yul\":5229:5243   */\n      add\n        /* \"#utility.yul\":5214:5243   */\n      swap1\n      pop\n        /* \"#utility.yul\":5080:5249   */\n      swap3\n      swap2\n      pop\n      pop\n      jump\t// out\n        /* \"#utility.yul\":5255:5415   */\n    tag_479:\n        /* \"#utility.yul\":5395:5407   */\n      0x4f6e6c79206f776e657200000000000000000000000000000000000000000000\n        /* \"#utility.yul\":5391:5392   */\n      0x00\n        /* \"#utility.yul\":5383:5389   */\n      dup3\n        /* \"#utility.yul\":5379:5393   */\n      add\n        /* \"#utility.yul\":5372:5408   */\n      mstore\n        /* \"#utility.yul\":5255:5415   */\n      pop\n      jump\t// out\n        /* \"#utility.yul\":5421:5787   */\n    tag_480:\n        /* \"#utility.yul\":5563:5566   */\n      0x00\n        /* \"#utility.yul\":5584:5651   */\n      tag_605\n        /* \"#utility.yul\":5648:5650   */\n      0x0a\n        /* \"#utility.yul\":5643:5646   */\n      dup4\n        /* \"#utility.yul\":5584:5651   */\n      tag_478\n      jump\t// in\n    tag_605:\n        /* \"#utility.yul\":5577:5651   */\n      swap2\n      pop\n        /* \"#utility.yul\":5660:5753   */\n      tag_606\n        /* \"#utility.yul\":5749:5752   */\n      dup3\n        /* \"#utility.yul\":5660:5753   */\n      tag_479\n      jump\t// in\n    tag_606:\n        /* \"#utility.yul\":5778:5780   */\n      0x20\n        /* \"#utility.yul\":5773:5776   */\n      dup3\n        /* \"#utility.yul\":5769:5781   */\n      add\n        /* \"#utility.yul\":5762:5781   */\n      swap1\n      pop\n        /* \"#utility.yul\":5421:5787   */\n      swap2\n      swap1\n      pop\n      jump\t// out\n        /* \"#utility.yul\":5793:6212   */\n    tag_181:\n        /* \"#utility.yul\":5959:5963   */\n      0x00\n        /* \"#utility.yul\":5997:5999   */\n      0x20\n        /* \"#utility.yul\":5986:5995   */\n      dup3\n        /* \"#utility.yul\":5982:6000   */\n      add\n        /* \"#utility.yul\":5974:6000   */\n      swap1\n      pop\n        /* \"#utility.yul\":6046:6055   */\n      dup2\n        /* \"#utility.yul\":6040:6044   */\n      dup2\n        /* \"#utility.yul\":6036:6056   */\n      sub\n        /* \"#utility.yul\":6032:6033   */\n      0x00\n        /* \"#utility.yul\":6021:6030   */\n      dup4\n        /* \"#utility.yul\":6017:6034   */\n      add\n        /* \"#utility.yul\":6010:6057   */\n      mstore\n        /* \"#utility.yul\":6074:6205   */\n      tag_608\n        /* \"#utility.yul\":6200:6204   */\n      dup2\n        /* \"#utility.yul\":6074:6205   */\n      tag_480\n      jump\t// in\n    tag_608:\n        /* \"#utility.yul\":6066:6205   */\n      swap1\n      pop\n        /* \"#utility.yul\":5793:6212   */\n      swap2\n      swap1\n      pop\n      jump\t// out\n        /* \"#utility.yul\":6218:6379   */\n    tag_481:\n        /* \"#utility.yul\":6358:6371   */\n      0x496e76616c6964206c6f74000000000000000000000000000000000000000000\n        /* \"#utility.yul\":6354:6355   */\n      0x00\n        /* \"#utility.yul\":6346:6352   */\n      dup3\n        /* \"#utility.yul\":6342:6356   */\n      add\n        /* \"#utility.yul\":6335:6372   */\n      mstore\n        /* \"#utility.yul\":6218:6379   */\n      pop\n      jump\t// out\n        /* \"#utility.yul\":6385:6751   */\n    tag_482:\n        /* \"#utility.yul\":6527:6530   */\n      0x00\n        /* \"#utility.yul\":6548:6615   */\n      tag_611\n        /* \"#utility.yul\":6612:6614   */\n      0x0b\n        /* \"#utility.yul\":6607:6610   */\n      dup4\n        /* \"#utility.yul\":6548:6615   */\n      tag_478\n      jump\t// in\n    tag_611:\n        /* \"#utility.yul\":6541:6615   */\n      swap2\n      pop\n        /* \"#utility.yul\":6624:6717   */\n      tag_612\n        /* \"#utility.yul\":6713:6716   */\n      dup3\n        /* \"#utility.yul\":6624:6717   */\n      tag_481\n      jump\t// in\n    tag_612:\n        /* \"#utility.yul\":6742:6744   */\n      0x20\n        /* \"#utility.yul\":6737:6740   */\n      dup3\n        /* \"#utility.yul\":6733:6745   */\n      add\n        /* \"#utility.yul\":6726:6745   */\n      swap1\n      pop\n        /* \"#utility.yul\":6385:6751   */\n      swap2\n      swap1\n      pop\n      jump\t// out\n        /* \"#utility.yul\":6757:7176   */\n    tag_185:\n        /* \"#utility.yul\":6923:6927   */\n      0x00\n        /* \"#utility.yul\":6961:6963   */\n      0x20\n        /* \"#utility.yul\":6950:6959   */\n      dup3\n        /* \"#utility.yul\":6946:6964   */\n      add\n        /* \"#utility.yul\":6938:6964   */\n      swap1\n      pop\n        /* \"#utility.yul\":7010:7019   */\n      dup2\n        /* \"#utility.yul\":7004:7008   */\n      dup2\n        /* \"#utility.yul\":7000:7020   */\n      sub\n        /* \"#utility.yul\":6996:6997   */\n      0x00\n        /* \"#utility.yul\":6985:6994   */\n      dup4\n        /* \"#utility.yul\":6981:6998   */\n      add\n        /* \"#utility.yul\":6974:7021   */\n      mstore\n        /* \"#utility.yul\":7038:7169   */\n      tag_614\n        /* \"#utility.yul\":7164:7168   */\n      dup2\n        /* \"#utility.yul\":7038:7169   */\n      tag_482\n      jump\t// in\n    tag_614:\n        /* \"#utility.yul\":7030:7169   */\n      swap1\n      pop\n        /* \"#utility.yul\":6757:7176   */\n      swap2\n      swap1\n      pop\n      jump\t// out\n        /* \"#utility.yul\":7182:7351   */\n    tag_483:\n        /* \"#utility.yul\":7322:7343   */\n      0x4e6f20636f6d6d69747465642072657665616c00000000000000000000000000\n        /* \"#utility.yul\":7318:7319   */\n      0x00\n        /* \"#utility.yul\":7310:7316   */\n      dup3\n        /* \"#utility.yul\":7306:7320   */\n      add\n        /* \"#utility.yul\":7299:7344   */\n      mstore\n        /* \"#utility.yul\":7182:7351   */\n      pop\n      jump\t// out\n        /* \"#utility.yul\":7357:7723   */\n    tag_484:\n        /* \"#utility.yul\":7499:7502   */\n      0x00\n        /* \"#utility.yul\":7520:7587   */\n      tag_617\n        /* \"#utility.yul\":7584:7586   */\n      0x13\n        /* \"#utility.yul\":7579:7582   */\n      dup4\n        /* \"#utility.yul\":7520:7587   */\n      tag_478\n      jump\t// in\n    tag_617:\n        /* \"#utility.yul\":7513:7587   */\n      swap2\n      pop\n        /* \"#utility.yul\":7596:7689   */\n      tag_618\n        /* \"#utility.yul\":7685:7688   */\n      dup3\n        /* \"#utility.yul\":7596:7689   */\n      tag_483\n      jump\t// in\n    tag_618:\n        /* \"#utility.yul\":7714:7716   */\n      0x20\n        /* \"#utility.yul\":7709:7712   */\n      dup3\n        /* \"#utility.yul\":7705:7717   */\n      add\n        /* \"#utility.yul\":7698:7717   */\n      swap1\n      pop\n        /* \"#utility.yul\":7357:7723   */\n      swap2\n      swap1\n      pop\n      jump\t// out\n        /* \"#utility.yul\":7729:8148   */\n    tag_188:\n        /* \"#utility.yul\":7895:7899   */\n      0x00\n        /* \"#utility.yul\":7933:7935   */\n      0x20\n        /* \"#utility.yul\":7922:7931   */\n      dup3\n        /* \"#utility.yul\":7918:7936   */\n      add\n        /* \"#utility.yul\":7910:7936   */\n      swap1\n      pop\n        /* \"#utility.yul\":7982:7991   */\n      dup2\n        /* \"#utility.yul\":7976:7980   */\n      dup2\n        /* \"#utility.yul\":7972:7992   */\n      sub\n        /* \"#utility.yul\":7968:7969   */\n      0x00\n        /* \"#utility.yul\":7957:7966   */\n      dup4\n        /* \"#utility.yul\":7953:7970   */\n      add\n        /* \"#utility.yul\":7946:7993   */\n      mstore\n        /* \"#utility.yul\":8010:8141   */\n      tag_620\n        /* \"#utility.yul\":8136:8140   */\n      dup2\n        /* \"#utility.yul\":8010:8141   */\n      tag_484\n      jump\t// in\n    tag_620:\n        /* \"#utility.yul\":8002:8141   */\n      swap1\n      pop\n        /* \"#utility.yul\":7729:8148   */\n      swap2\n      swap1\n      pop\n      jump\t// out\n        /* \"#utility.yul\":8154:8325   */\n    tag_485:\n        /* \"#utility.yul\":8294:8317   */\n      0x4c6f74746572792072657665616c206661696c65640000000000000000000000\n        /* \"#utility.yul\":8290:8291   */\n      0x00\n        /* \"#utility.yul\":8282:8288   */\n      dup3\n        /* \"#utility.yul\":8278:8292   */\n      add\n        /* \"#utility.yul\":8271:8318   */\n      mstore\n        /* \"#utility.yul\":8154:8325   */\n      pop\n      jump\t// out\n        /* \"#utility.yul\":8331:8697   */\n    tag_486:\n        /* \"#utility.yul\":8473:8476   */\n      0x00\n        /* \"#utility.yul\":8494:8561   */\n      tag_623\n        /* \"#utility.yul\":8558:8560   */\n      0x15\n        /* \"#utility.yul\":8553:8556   */\n      dup4\n        /* \"#utility.yul\":8494:8561   */\n      tag_478\n      jump\t// in\n    tag_623:\n        /* \"#utility.yul\":8487:8561   */\n      swap2\n      pop\n        /* \"#utility.yul\":8570:8663   */\n      tag_624\n        /* \"#utility.yul\":8659:8662   */\n      dup3\n        /* \"#utility.yul\":8570:8663   */\n      tag_485\n      jump\t// in\n    tag_624:\n        /* \"#utility.yul\":8688:8690   */\n      0x20\n        /* \"#utility.yul\":8683:8686   */\n      dup3\n        /* \"#utility.yul\":8679:8691   */\n      add\n        /* \"#utility.yul\":8672:8691   */\n      swap1\n      pop\n        /* \"#utility.yul\":8331:8697   */\n      swap2\n      swap1\n      pop\n      jump\t// out\n        /* \"#utility.yul\":8703:9122   */\n    tag_197:\n        /* \"#utility.yul\":8869:8873   */\n      0x00\n        /* \"#utility.yul\":8907:8909   */\n      0x20\n        /* \"#utility.yul\":8896:8905   */\n      dup3\n        /* \"#utility.yul\":8892:8910   */\n      add\n        /* \"#utility.yul\":8884:8910   */\n      swap1\n      pop\n        /* \"#utility.yul\":8956:8965   */\n      dup2\n        /* \"#utility.yul\":8950:8954   */\n      dup2\n        /* \"#utility.yul\":8946:8966   */\n      sub\n        /* \"#utility.yul\":8942:8943   */\n      0x00\n        /* \"#utility.yul\":8931:8940   */\n      dup4\n        /* \"#utility.yul\":8927:8944   */\n      add\n        /* \"#utility.yul\":8920:8967   */\n      mstore\n        /* \"#utility.yul\":8984:9115   */\n      tag_626\n        /* \"#utility.yul\":9110:9114   */\n      dup2\n        /* \"#utility.yul\":8984:9115   */\n      tag_486\n      jump\t// in\n    tag_626:\n        /* \"#utility.yul\":8976:9115   */\n      swap1\n      pop\n        /* \"#utility.yul\":8703:9122   */\n      swap2\n      swap1\n      pop\n      jump\t// out\n        /* \"#utility.yul\":9128:9309   */\n    tag_487:\n        /* \"#utility.yul\":9268:9301   */\n      0x4e6f7420617574686f72697a656420746f2073657420616c6c6f77616e636500\n        /* \"#utility.yul\":9264:9265   */\n      0x00\n        /* \"#utility.yul\":9256:9262   */\n      dup3\n        /* \"#utility.yul\":9252:9266   */\n      add\n        /* \"#utility.yul\":9245:9302   */\n      mstore\n        /* \"#utility.yul\":9128:9309   */\n      pop\n      jump\t// out\n        /* \"#utility.yul\":9315:9681   */\n    tag_488:\n        /* \"#utility.yul\":9457:9460   */\n      0x00\n        /* \"#utility.yul\":9478:9545   */\n      tag_629\n        /* \"#utility.yul\":9542:9544   */\n      0x1f\n        /* \"#utility.yul\":9537:9540   */\n      dup4\n        /* \"#utility.yul\":9478:9545   */\n      tag_478\n      jump\t// in\n    tag_629:\n        /* \"#utility.yul\":9471:9545   */\n      swap2\n      pop\n        /* \"#utility.yul\":9554:9647   */\n      tag_630\n        /* \"#utility.yul\":9643:9646   */\n      dup3\n        /* \"#utility.yul\":9554:9647   */\n      tag_487\n      jump\t// in\n    tag_630:\n        /* \"#utility.yul\":9672:9674   */\n      0x20\n        /* \"#utility.yul\":9667:9670   */\n      dup3\n        /* \"#utility.yul\":9663:9675   */\n      add\n        /* \"#utility.yul\":9656:9675   */\n      swap1\n      pop\n        /* \"#utility.yul\":9315:9681   */\n      swap2\n      swap1\n      pop\n      jump\t// out\n        /* \"#utility.yul\":9687:10106   */\n    tag_216:\n        /* \"#utility.yul\":9853:9857   */\n      0x00\n        /* \"#utility.yul\":9891:9893   */\n      0x20\n        /* \"#utility.yul\":9880:9889   */\n      dup3\n        /* \"#utility.yul\":9876:9894   */\n      add\n        /* \"#utility.yul\":9868:9894   */\n      swap1\n      pop\n        /* \"#utility.yul\":9940:9949   */\n      dup2\n        /* \"#utility.yul\":9934:9938   */\n      dup2\n        /* \"#utility.yul\":9930:9950   */\n      sub\n        /* \"#utility.yul\":9926:9927   */\n      0x00\n        /* \"#utility.yul\":9915:9924   */\n      dup4\n        /* \"#utility.yul\":9911:9928   */\n      add\n        /* \"#utility.yul\":9904:9951   */\n      mstore\n        /* \"#utility.yul\":9968:10099   */\n      tag_632\n        /* \"#utility.yul\":10094:10098   */\n      dup2\n        /* \"#utility.yul\":9968:10099   */\n      tag_488\n      jump\t// in\n    tag_632:\n        /* \"#utility.yul\":9960:10099   */\n      swap1\n      pop\n        /* \"#utility.yul\":9687:10106   */\n      swap2\n      swap1\n      pop\n      jump\t// out\n        /* \"#utility.yul\":10112:10283   */\n    tag_489:\n        /* \"#utility.yul\":10252:10275   */\n      0x4f6e6c792073706f757365206f72206f726967696e0000000000000000000000\n        /* \"#utility.yul\":10248:10249   */\n      0x00\n        /* \"#utility.yul\":10240:10246   */\n      dup3\n        /* \"#utility.yul\":10236:10250   */\n      add\n        /* \"#utility.yul\":10229:10276   */\n      mstore\n        /* \"#utility.yul\":10112:10283   */\n      pop\n      jump\t// out\n        /* \"#utility.yul\":10289:10655   */\n    tag_490:\n        /* \"#utility.yul\":10431:10434   */\n      0x00\n        /* \"#utility.yul\":10452:10519   */\n      tag_635\n        /* \"#utility.yul\":10516:10518   */\n      0x15\n        /* \"#utility.yul\":10511:10514   */\n      dup4\n        /* \"#utility.yul\":10452:10519   */\n      tag_478\n      jump\t// in\n    tag_635:\n        /* \"#utility.yul\":10445:10519   */\n      swap2\n      pop\n        /* \"#utility.yul\":10528:10621   */\n      tag_636\n        /* \"#utility.yul\":10617:10620   */\n      dup3\n        /* \"#utility.yul\":10528:10621   */\n      tag_489\n      jump\t// in\n    tag_636:\n        /* \"#utility.yul\":10646:10648   */\n      0x20\n        /* \"#utility.yul\":10641:10644   */\n      dup3\n        /* \"#utility.yul\":10637:10649   */\n      add\n        /* \"#utility.yul\":10630:10649   */\n      swap1\n      pop\n        /* \"#utility.yul\":10289:10655   */\n      swap2\n      swap1\n      pop\n      jump\t// out\n        /* \"#utility.yul\":10661:11080   */\n    tag_226:\n        /* \"#utility.yul\":10827:10831   */\n      0x00\n        /* \"#utility.yul\":10865:10867   */\n      0x20\n        /* \"#utility.yul\":10854:10863   */\n      dup3\n        /* \"#utility.yul\":10850:10868   */\n      add\n        /* \"#utility.yul\":10842:10868   */\n      swap1\n      pop\n        /* \"#utility.yul\":10914:10923   */\n      dup2\n        /* \"#utility.yul\":10908:10912   */\n      dup2\n        /* \"#utility.yul\":10904:10924   */\n      sub\n        /* \"#utility.yul\":10900:10901   */\n      0x00\n        /* \"#utility.yul\":10889:10898   */\n      dup4\n        /* \"#utility.yul\":10885:10902   */\n      add\n        /* \"#utility.yul\":10878:10925   */\n      mstore\n        /* \"#utility.yul\":10942:11073   */\n      tag_638\n        /* \"#utility.yul\":11068:11072   */\n      dup2\n        /* \"#utility.yul\":10942:11073   */\n      tag_490\n      jump\t// in\n    tag_638:\n        /* \"#utility.yul\":10934:11073   */\n      swap1\n      pop\n        /* \"#utility.yul\":10661:11080   */\n      swap2\n      swap1\n      pop\n      jump\t// out\n        /* \"#utility.yul\":11086:11266   */\n    tag_491:\n        /* \"#utility.yul\":11134:11211   */\n      0x4e487b7100000000000000000000000000000000000000000000000000000000\n        /* \"#utility.yul\":11131:11132   */\n      0x00\n        /* \"#utility.yul\":11124:11212   */\n      mstore\n        /* \"#utility.yul\":11231:11235   */\n      0x11\n        /* \"#utility.yul\":11228:11229   */\n      0x04\n        /* \"#utility.yul\":11221:11236   */\n      mstore\n        /* \"#utility.yul\":11255:11259   */\n      0x24\n        /* \"#utility.yul\":11252:11253   */\n      0x00\n        /* \"#utility.yul\":11245:11260   */\n      revert\n        /* \"#utility.yul\":11272:11463   */\n    tag_228:\n        /* \"#utility.yul\":11312:11315   */\n      0x00\n        /* \"#utility.yul\":11331:11351   */\n      tag_641\n        /* \"#utility.yul\":11349:11350   */\n      dup3\n        /* \"#utility.yul\":11331:11351   */\n      tag_471\n      jump\t// in\n    tag_641:\n        /* \"#utility.yul\":11326:11351   */\n      swap2\n      pop\n        /* \"#utility.yul\":11365:11385   */\n      tag_642\n        /* \"#utility.yul\":11383:11384   */\n      dup4\n        /* \"#utility.yul\":11365:11385   */\n      tag_471\n      jump\t// in\n    tag_642:\n        /* \"#utility.yul\":11360:11385   */\n      swap3\n      pop\n        /* \"#utility.yul\":11408:11409   */\n      dup3\n        /* \"#utility.yul\":11405:11406   */\n      dup3\n        /* \"#utility.yul\":11401:11410   */\n      add\n        /* \"#utility.yul\":11394:11410   */\n      swap1\n      pop\n        /* \"#utility.yul\":11429:11432   */\n      dup1\n        /* \"#utility.yul\":11426:11427   */\n      dup3\n        /* \"#utility.yul\":11423:11433   */\n      gt\n        /* \"#utility.yul\":11420:11456   */\n      iszero\n      tag_643\n      jumpi\n        /* \"#utility.yul\":11436:11454   */\n      tag_644\n      tag_491\n      jump\t// in\n    tag_644:\n        /* \"#utility.yul\":11420:11456   */\n    tag_643:\n        /* \"#utility.yul\":11272:11463   */\n      swap3\n      swap2\n      pop\n      pop\n      jump\t// out\n        /* \"#utility.yul\":11469:11702   */\n    tag_234:\n        /* \"#utility.yul\":11508:11511   */\n      0x00\n        /* \"#utility.yul\":11531:11555   */\n      tag_646\n        /* \"#utility.yul\":11549:11554   */\n      dup3\n        /* \"#utility.yul\":11531:11555   */\n      tag_471\n      jump\t// in\n    tag_646:\n        /* \"#utility.yul\":11522:11555   */\n      swap2\n      pop\n        /* \"#utility.yul\":11577:11643   */\n      0xffffffffffffffffffffffffffffffffffffffffffffffffffffffffffffffff\n        /* \"#utility.yul\":11570:11575   */\n      dup3\n        /* \"#utility.yul\":11567:11644   */\n      sub\n        /* \"#utility.yul\":11564:11667   */\n      tag_647\n      jumpi\n        /* \"#utility.yul\":11647:11665   */\n      tag_648\n      tag_491\n      jump\t// in\n    tag_648:\n        /* \"#utility.yul\":11564:11667   */\n    tag_647:\n        /* \"#utility.yul\":11694:11695   */\n      0x01\n        /* \"#utility.yul\":11687:11692   */\n      dup3\n        /* \"#utility.yul\":11683:11696   */\n      add\n        /* \"#utility.yul\":11676:11696   */\n      swap1\n      pop\n        /* \"#utility.yul\":11469:11702   */\n      swap2\n      swap1\n      pop\n      jump\t// out\n        /* \"#utility.yul\":11708:11881   */\n    tag_492:\n        /* \"#utility.yul\":11848:11873   */\n      0x4f6e6c7920706172746e65722063616e206e6f74696679000000000000000000\n        /* \"#utility.yul\":11844:11845   */\n      0x00\n        /* \"#utility.yul\":11836:11842   */\n      dup3\n        /* \"#utility.yul\":11832:11846   */\n      add\n        /* \"#utility.yul\":11825:11874   */\n      mstore\n        /* \"#utility.yul\":11708:11881   */\n      pop\n      jump\t// out\n        /* \"#utility.yul\":11887:12253   */\n    tag_493:\n        /* \"#utility.yul\":12029:12032   */\n      0x00\n        /* \"#utility.yul\":12050:12117   */\n      tag_651\n        /* \"#utility.yul\":12114:12116   */\n      0x17\n        /* \"#utility.yul\":12109:12112   */\n      dup4\n        /* \"#utility.yul\":12050:12117   */\n      tag_478\n      jump\t// in\n    tag_651:\n        /* \"#utility.yul\":12043:12117   */\n      swap2\n      pop\n        /* \"#utility.yul\":12126:12219   */\n      tag_652\n        /* \"#utility.yul\":12215:12218   */\n      dup3\n        /* \"#utility.yul\":12126:12219   */\n      tag_492\n      jump\t// in\n    tag_652:\n        /* \"#utility.yul\":12244:12246   */\n      0x20\n        /* \"#utility.yul\":12239:12242   */\n      dup3\n        /* \"#utility.yul\":12235:12247   */\n      add\n        /* \"#utility.yul\":12228:12247   */\n      swap1\n      pop\n        /* \"#utility.yul\":11887:12253   */\n      swap2\n      swap1\n      pop\n      jump\t// out\n        /* \"#utility.yul\":12259:12678   */\n    tag_241:\n        /* \"#utility.yul\":12425:12429   */\n      0x00\n        /* \"#utility.yul\":12463:12465   */\n      0x20\n        /* \"#utility.yul\":12452:12461   */\n      dup3\n        /* \"#utility.yul\":12448:12466   */\n      add\n        /* \"#utility.yul\":12440:12466   */\n      swap1\n      pop\n        /* \"#utility.yul\":12512:12521   */\n      dup2\n        /* \"#utility.yul\":12506:12510   */\n      dup2\n        /* \"#utility.yul\":12502:12522   */\n      sub\n        /* \"#utility.yul\":12498:12499   */\n      0x00\n        /* \"#utility.yul\":12487:12496   */\n      dup4\n        /* \"#utility.yul\":12483:12500   */\n      add\n        /* \"#utility.yul\":12476:12523   */\n      mstore\n        /* \"#utility.yul\":12540:12671   */\n      tag_654\n        /* \"#utility.yul\":12666:12670   */\n      dup2\n        /* \"#utility.yul\":12540:12671   */\n      tag_493\n      jump\t// in\n    tag_654:\n        /* \"#utility.yul\":12532:12671   */\n      swap1\n      pop\n        /* \"#utility.yul\":12259:12678   */\n      swap2\n      swap1\n      pop\n      jump\t// out\n        /* \"#utility.yul\":12684:12878   */\n    tag_247:\n        /* \"#utility.yul\":12724:12728   */\n      0x00\n        /* \"#utility.yul\":12744:12764   */\n      tag_656\n        /* \"#utility.yul\":12762:12763   */\n      dup3\n        /* \"#utility.yul\":12744:12764   */\n      tag_471\n      jump\t// in\n    tag_656:\n        /* \"#utility.yul\":12739:12764   */\n      swap2\n      pop\n        /* \"#utility.yul\":12778:12798   */\n      tag_657\n        /* \"#utility.yul\":12796:12797   */\n      dup4\n        /* \"#utility.yul\":12778:12798   */\n      tag_471\n      jump\t// in\n    tag_657:\n        /* \"#utility.yul\":12773:12798   */\n      swap3\n      pop\n        /* \"#utility.yul\":12822:12823   */\n      dup3\n        /* \"#utility.yul\":12819:12820   */\n      dup3\n        /* \"#utility.yul\":12815:12824   */\n      sub\n        /* \"#utility.yul\":12807:12824   */\n      swap1\n      pop\n        /* \"#utility.yul\":12846:12847   */\n      dup2\n        /* \"#utility.yul\":12840:12844   */\n      dup2\n        /* \"#utility.yul\":12837:12848   */\n      gt\n        /* \"#utility.yul\":12834:12871   */\n      iszero\n      tag_658\n      jumpi\n        /* \"#utility.yul\":12851:12869   */\n      tag_659\n      tag_491\n      jump\t// in\n    tag_659:\n        /* \"#utility.yul\":12834:12871   */\n    tag_658:\n        /* \"#utility.yul\":12684:12878   */\n      swap3\n      swap2\n      pop\n      pop\n      jump\t// out\n        /* \"#utility.yul\":12884:13294   */\n    tag_251:\n        /* \"#utility.yul\":12924:12931   */\n      0x00\n        /* \"#utility.yul\":12947:12967   */\n      tag_661\n        /* \"#utility.yul\":12965:12966   */\n      dup3\n        /* \"#utility.yul\":12947:12967   */\n      tag_471\n      jump\t// in\n    tag_661:\n        /* \"#utility.yul\":12942:12967   */\n      swap2\n      pop\n        /* \"#utility.yul\":12981:13001   */\n      tag_662\n        /* \"#utility.yul\":12999:13000   */\n      dup4\n        /* \"#utility.yul\":12981:13001   */\n      tag_471\n      jump\t// in\n    tag_662:\n        /* \"#utility.yul\":12976:13001   */\n      swap3\n      pop\n        /* \"#utility.yul\":13036:13037   */\n      dup3\n        /* \"#utility.yul\":13033:13034   */\n      dup3\n        /* \"#utility.yul\":13029:13038   */\n      mul\n        /* \"#utility.yul\":13058:13088   */\n      tag_663\n        /* \"#utility.yul\":13076:13087   */\n      dup2\n        /* \"#utility.yul\":13058:13088   */\n      tag_471\n      jump\t// in\n    tag_663:\n        /* \"#utility.yul\":13047:13088   */\n      swap2\n      pop\n        /* \"#utility.yul\":13237:13238   */\n      dup3\n        /* \"#utility.yul\":13228:13235   */\n      dup3\n        /* \"#utility.yul\":13224:13239   */\n      div\n        /* \"#utility.yul\":13221:13222   */\n      dup5\n        /* \"#utility.yul\":13218:13240   */\n      eq\n        /* \"#utility.yul\":13198:13199   */\n      dup4\n        /* \"#utility.yul\":13191:13200   */\n      iszero\n        /* \"#utility.yul\":13171:13254   */\n      or\n        /* \"#utility.yul\":13148:13287   */\n      tag_664\n      jumpi\n        /* \"#utility.yul\":13267:13285   */\n      tag_665\n      tag_491\n      jump\t// in\n    tag_665:\n        /* \"#utility.yul\":13148:13287   */\n    tag_664:\n        /* \"#utility.yul\":12932:13294   */\n      pop\n        /* \"#utility.yul\":12884:13294   */\n      swap3\n      swap2\n      pop\n      pop\n      jump\t// out\n        /* \"#utility.yul\":13300:13480   */\n    tag_494:\n        /* \"#utility.yul\":13348:13425   */\n      0x4e487b7100000000000000000000000000000000000000000000000000000000\n        /* \"#utility.yul\":13345:13346   */\n      0x00\n        /* \"#utility.yul\":13338:13426   */\n      mstore\n        /* \"#utility.yul\":13445:13449   */\n      0x12\n        /* \"#utility.yul\":13442:13443   */\n      0x04\n        /* \"#utility.yul\":13435:13450   */\n      mstore\n        /* \"#utility.yul\":13469:13473   */\n      0x24\n        /* \"#utility.yul\":13466:13467   */\n      0x00\n        /* \"#utility.yul\":13459:13474   */\n      revert\n        /* \"#utility.yul\":13486:13671   */\n    tag_253:\n        /* \"#utility.yul\":13526:13527   */\n      0x00\n        /* \"#utility.yul\":13543:13563   */\n      tag_668\n        /* \"#utility.yul\":13561:13562   */\n      dup3\n        /* \"#utility.yul\":13543:13563   */\n      tag_471\n      jump\t// in\n    tag_668:\n        /* \"#utility.yul\":13538:13563   */\n      swap2\n      pop\n        /* \"#utility.yul\":13577:13597   */\n      tag_669\n        /* \"#utility.yul\":13595:13596   */\n      dup4\n        /* \"#utility.yul\":13577:13597   */\n      tag_471\n      jump\t// in\n    tag_669:\n        /* \"#utility.yul\":13572:13597   */\n      swap3\n      pop\n        /* \"#utility.yul\":13616:13617   */\n      dup3\n        /* \"#utility.yul\":13606:13641   */\n      tag_670\n      jumpi\n        /* \"#utility.yul\":13621:13639   */\n      tag_671\n      tag_494\n      jump\t// in\n    tag_671:\n        /* \"#utility.yul\":13606:13641   */\n    tag_670:\n        /* \"#utility.yul\":13663:13664   */\n      dup3\n        /* \"#utility.yul\":13660:13661   */\n      dup3\n        /* \"#utility.yul\":13656:13665   */\n      div\n        /* \"#utility.yul\":13651:13665   */\n      swap1\n      pop\n        /* \"#utility.yul\":13486:13671   */\n      swap3\n      swap2\n      pop\n      pop\n      jump\t// out\n        /* \"#utility.yul\":13677:13841   */\n    tag_495:\n        /* \"#utility.yul\":13817:13833   */\n      0x4e6f74206120636f6e7472616374000000000000000000000000000000000000\n        /* \"#utility.yul\":13813:13814   */\n      0x00\n        /* \"#utility.yul\":13805:13811   */\n      dup3\n        /* \"#utility.yul\":13801:13815   */\n      add\n        /* \"#utility.yul\":13794:13834   */\n      mstore\n        /* \"#utility.yul\":13677:13841   */\n      pop\n      jump\t// out\n        /* \"#utility.yul\":13847:14213   */\n    tag_496:\n        /* \"#utility.yul\":13989:13992   */\n      0x00\n        /* \"#utility.yul\":14010:14077   */\n      tag_674\n        /* \"#utility.yul\":14074:14076   */\n      0x0e\n        /* \"#utility.yul\":14069:14072   */\n      dup4\n        /* \"#utility.yul\":14010:14077   */\n      tag_478\n      jump\t// in\n    tag_674:\n        /* \"#utility.yul\":14003:14077   */\n      swap2\n      pop\n        /* \"#utility.yul\":14086:14179   */\n      tag_675\n        /* \"#utility.yul\":14175:14178   */\n      dup3\n        /* \"#utility.yul\":14086:14179   */\n      tag_495\n      jump\t// in\n    tag_675:\n        /* \"#utility.yul\":14204:14206   */\n      0x20\n        /* \"#utility.yul\":14199:14202   */\n      dup3\n        /* \"#utility.yul\":14195:14207   */\n      add\n        /* \"#utility.yul\":14188:14207   */\n      swap1\n      pop\n        /* \"#utility.yul\":13847:14213   */\n      swap2\n      swap1\n      pop\n      jump\t// out\n        /* \"#utility.yul\":14219:14638   */\n    tag_262:\n        /* \"#utility.yul\":14385:14389   */\n      0x00\n        /* \"#utility.yul\":14423:14425   */\n      0x20\n        /* \"#utility.yul\":14412:14421   */\n      dup3\n        /* \"#utility.yul\":14408:14426   */\n      add\n        /* \"#utility.yul\":14400:14426   */\n      swap1\n      pop\n        /* \"#utility.yul\":14472:14481   */\n      dup2\n        /* \"#utility.yul\":14466:14470   */\n      dup2\n        /* \"#utility.yul\":14462:14482   */\n      sub\n        /* \"#utility.yul\":14458:14459   */\n      0x00\n        /* \"#utility.yul\":14447:14456   */\n      dup4\n        /* \"#utility.yul\":14443:14460   */\n      add\n        /* \"#utility.yul\":14436:14483   */\n      mstore\n        /* \"#utility.yul\":14500:14631   */\n      tag_677\n        /* \"#utility.yul\":14626:14630   */\n      dup2\n        /* \"#utility.yul\":14500:14631   */\n      tag_496\n      jump\t// in\n    tag_677:\n        /* \"#utility.yul\":14492:14631   */\n      swap1\n      pop\n        /* \"#utility.yul\":14219:14638   */\n      swap2\n      swap1\n      pop\n      jump\t// out\n        /* \"#utility.yul\":14644:14721   */\n    tag_497:\n        /* \"#utility.yul\":14681:14688   */\n      0x00\n        /* \"#utility.yul\":14710:14715   */\n      dup2\n        /* \"#utility.yul\":14699:14715   */\n      swap1\n      pop\n        /* \"#utility.yul\":14644:14721   */\n      swap2\n      swap1\n      pop\n      jump\t// out\n        /* \"#utility.yul\":14727:14845   */\n    tag_498:\n        /* \"#utility.yul\":14814:14838   */\n      tag_680\n        /* \"#utility.yul\":14832:14837   */\n      dup2\n        /* \"#utility.yul\":14814:14838   */\n      tag_497\n      jump\t// in\n    tag_680:\n        /* \"#utility.yul\":14809:14812   */\n      dup3\n        /* \"#utility.yul\":14802:14839   */\n      mstore\n        /* \"#utility.yul\":14727:14845   */\n      pop\n      pop\n      jump\t// out\n        /* \"#utility.yul\":14851:15073   */\n    tag_265:\n        /* \"#utility.yul\":14944:14948   */\n      0x00\n        /* \"#utility.yul\":14982:14984   */\n      0x20\n        /* \"#utility.yul\":14971:14980   */\n      dup3\n        /* \"#utility.yul\":14967:14985   */\n      add\n        /* \"#utility.yul\":14959:14985   */\n      swap1\n      pop\n        /* \"#utility.yul\":14995:15066   */\n      tag_682\n        /* \"#utility.yul\":15063:15064   */\n      0x00\n        /* \"#utility.yul\":15052:15061   */\n      dup4\n        /* \"#utility.yul\":15048:15065   */\n      add\n        /* \"#utility.yul\":15039:15045   */\n      dup5\n        /* \"#utility.yul\":14995:15066   */\n      tag_498\n      jump\t// in\n    tag_682:\n        /* \"#utility.yul\":14851:15073   */\n      swap3\n      swap2\n      pop\n      pop\n      jump\t// out\n        /* \"#utility.yul\":15079:15250   */\n    tag_499:\n        /* \"#utility.yul\":15219:15242   */\n      0x4c6f747465727920636f6d6d6974206661696c65640000000000000000000000\n        /* \"#utility.yul\":15215:15216   */\n      0x00\n        /* \"#utility.yul\":15207:15213   */\n      dup3\n        /* \"#utility.yul\":15203:15217   */\n      add\n        /* \"#utility.yul\":15196:15243   */\n      mstore\n        /* \"#utility.yul\":15079:15250   */\n      pop\n      jump\t// out\n        /* \"#utility.yul\":15256:15622   */\n    tag_500:\n        /* \"#utility.yul\":15398:15401   */\n      0x00\n        /* \"#utility.yul\":15419:15486   */\n      tag_685\n        /* \"#utility.yul\":15483:15485   */\n      0x15\n        /* \"#utility.yul\":15478:15481   */\n      dup4\n        /* \"#utility.yul\":15419:15486   */\n      tag_478\n      jump\t// in\n    tag_685:\n        /* \"#utility.yul\":15412:15486   */\n      swap2\n      pop\n        /* \"#utility.yul\":15495:15588   */\n      tag_686\n        /* \"#utility.yul\":15584:15587   */\n      dup3\n        /* \"#utility.yul\":15495:15588   */\n      tag_499\n      jump\t// in\n    tag_686:\n        /* \"#utility.yul\":15613:15615   */\n      0x20\n        /* \"#utility.yul\":15608:15611   */\n      dup3\n        /* \"#utility.yul\":15604:15616   */\n      add\n        /* \"#utility.yul\":15597:15616   */\n      swap1\n      pop\n        /* \"#utility.yul\":15256:15622   */\n      swap2\n      swap1\n      pop\n      jump\t// out\n        /* \"#utility.yul\":15628:16047   */\n    tag_273:\n        /* \"#utility.yul\":15794:15798   */\n      0x00\n        /* \"#utility.yul\":15832:15834   */\n      0x20\n        /* \"#utility.yul\":15821:15830   */\n      dup3\n        /* \"#utility.yul\":15817:15835   */\n      add\n        /* \"#utility.yul\":15809:15835   */\n      swap1\n      pop\n        /* \"#utility.yul\":15881:15890   */\n      dup2\n        /* \"#utility.yul\":15875:15879   */\n      dup2\n        /* \"#utility.yul\":15871:15891   */\n      sub\n        /* \"#utility.yul\":15867:15868   */\n      0x00\n        /* \"#utility.yul\":15856:15865   */\n      dup4\n        /* \"#utility.yul\":15852:15869   */\n      add\n        /* \"#utility.yul\":15845:15892   */\n      mstore\n        /* \"#utility.yul\":15909:16040   */\n      tag_688\n        /* \"#utility.yul\":16035:16039   */\n      dup2\n        /* \"#utility.yul\":15909:16040   */\n      tag_500\n      jump\t// in\n    tag_688:\n        /* \"#utility.yul\":15901:16040   */\n      swap1\n      pop\n        /* \"#utility.yul\":15628:16047   */\n      swap2\n      swap1\n      pop\n      jump\t// out\n        /* \"#utility.yul\":16053:16212   */\n    tag_501:\n        /* \"#utility.yul\":16193:16204   */\n      0x4e6f2073706f7573650000000000000000000000000000000000000000000000\n        /* \"#utility.yul\":16189:16190   */\n      0x00\n        /* \"#utility.yul\":16181:16187   */\n      dup3\n        /* \"#utility.yul\":16177:16191   */\n      add\n        /* \"#utility.yul\":16170:16205   */\n      mstore\n        /* \"#utility.yul\":16053:16212   */\n      pop\n      jump\t// out\n        /* \"#utility.yul\":16218:16583   */\n    tag_502:\n        /* \"#utility.yul\":16360:16363   */\n      0x00\n        /* \"#utility.yul\":16381:16447   */\n      tag_691\n        /* \"#utility.yul\":16445:16446   */\n      0x09\n        /* \"#utility.yul\":16440:16443   */\n      dup4\n        /* \"#utility.yul\":16381:16447   */\n      tag_478\n      jump\t// in\n    tag_691:\n        /* \"#utility.yul\":16374:16447   */\n      swap2\n      pop\n        /* \"#utility.yul\":16456:16549   */\n      tag_692\n        /* \"#utility.yul\":16545:16548   */\n      dup3\n        /* \"#utility.yul\":16456:16549   */\n      tag_501\n      jump\t// in\n    tag_692:\n        /* \"#utility.yul\":16574:16576   */\n      0x20\n        /* \"#utility.yul\":16569:16572   */\n      dup3\n        /* \"#utility.yul\":16565:16577   */\n      add\n        /* \"#utility.yul\":16558:16577   */\n      swap1\n      pop\n        /* \"#utility.yul\":16218:16583   */\n      swap2\n      swap1\n      pop\n      jump\t// out\n        /* \"#utility.yul\":16589:17008   */\n    tag_286:\n        /* \"#utility.yul\":16755:16759   */\n      0x00\n        /* \"#utility.yul\":16793:16795   */\n      0x20\n        /* \"#utility.yul\":16782:16791   */\n      dup3\n        /* \"#utility.yul\":16778:16796   */\n      add\n        /* \"#utility.yul\":16770:16796   */\n      swap1\n      pop\n        /* \"#utility.yul\":16842:16851   */\n      dup2\n        /* \"#utility.yul\":16836:16840   */\n      dup2\n        /* \"#utility.yul\":16832:16852   */\n      sub\n        /* \"#utility.yul\":16828:16829   */\n      0x00\n        /* \"#utility.yul\":16817:16826   */\n      dup4\n        /* \"#utility.yul\":16813:16830   */\n      add\n        /* \"#utility.yul\":16806:16853   */\n      mstore\n        /* \"#utility.yul\":16870:17001   */\n      tag_694\n        /* \"#utility.yul\":16996:17000   */\n      dup2\n        /* \"#utility.yul\":16870:17001   */\n      tag_502\n      jump\t// in\n    tag_694:\n        /* \"#utility.yul\":16862:17001   */\n      swap1\n      pop\n        /* \"#utility.yul\":16589:17008   */\n      swap2\n      swap1\n      pop\n      jump\t// out\n        /* \"#utility.yul\":17014:17175   */\n    tag_503:\n        /* \"#utility.yul\":17154:17167   */\n      0x5a65726f206368616e6765000000000000000000000000000000000000000000\n        /* \"#utility.yul\":17150:17151   */\n      0x00\n        /* \"#utility.yul\":17142:17148   */\n      dup3\n        /* \"#utility.yul\":17138:17152   */\n      add\n        /* \"#utility.yul\":17131:17168   */\n      mstore\n        /* \"#utility.yul\":17014:17175   */\n      pop\n      jump\t// out\n        /* \"#utility.yul\":17181:17547   */\n    tag_504:\n        /* \"#utility.yul\":17323:17326   */\n      0x00\n        /* \"#utility.yul\":17344:17411   */\n      tag_697\n        /* \"#utility.yul\":17408:17410   */\n      0x0b\n        /* \"#utility.yul\":17403:17406   */\n      dup4\n        /* \"#utility.yul\":17344:17411   */\n      tag_478\n      jump\t// in\n    tag_697:\n        /* \"#utility.yul\":17337:17411   */\n      swap2\n      pop\n        /* \"#utility.yul\":17420:17513   */\n      tag_698\n        /* \"#utility.yul\":17509:17512   */\n      dup3\n        /* \"#utility.yul\":17420:17513   */\n      tag_503\n      jump\t// in\n    tag_698:\n        /* \"#utility.yul\":17538:17540   */\n      0x20\n        /* \"#utility.yul\":17533:17536   */\n      dup3\n        /* \"#utility.yul\":17529:17541   */\n      add\n        /* \"#utility.yul\":17522:17541   */\n      swap1\n      pop\n        /* \"#utility.yul\":17181:17547   */\n      swap2\n      swap1\n      pop\n      jump\t// out\n        /* \"#utility.yul\":17553:17972   */\n    tag_289:\n        /* \"#utility.yul\":17719:17723   */\n      0x00\n        /* \"#utility.yul\":17757:17759   */\n      0x20\n        /* \"#utility.yul\":17746:17755   */\n      dup3\n        /* \"#utility.yul\":17742:17760   */\n      add\n        /* \"#utility.yul\":17734:17760   */\n      swap1\n      pop\n        /* \"#utility.yul\":17806:17815   */\n      dup2\n        /* \"#utility.yul\":17800:17804   */\n      dup2\n        /* \"#utility.yul\":17796:17816   */\n      sub\n        /* \"#utility.yul\":17792:17793   */\n      0x00\n        /* \"#utility.yul\":17781:17790   */\n      dup4\n        /* \"#utility.yul\":17777:17794   */\n      add\n        /* \"#utility.yul\":17770:17817   */\n      mstore\n        /* \"#utility.yul\":17834:17965   */\n      tag_700\n        /* \"#utility.yul\":17960:17964   */\n      dup2\n        /* \"#utility.yul\":17834:17965   */\n      tag_504\n      jump\t// in\n    tag_700:\n        /* \"#utility.yul\":17826:17965   */\n      swap1\n      pop\n        /* \"#utility.yul\":17553:17972   */\n      swap2\n      swap1\n      pop\n      jump\t// out\n        /* \"#utility.yul\":17978:18148   */\n    tag_505:\n        /* \"#utility.yul\":18118:18140   */\n      0x4e6f7420656e6f75676820616c6c6f77616e6365000000000000000000000000\n        /* \"#utility.yul\":18114:18115   */\n      0x00\n        /* \"#utility.yul\":18106:18112   */\n      dup3\n        /* \"#utility.yul\":18102:18116   */\n      add\n        /* \"#utility.yul\":18095:18141   */\n      mstore\n        /* \"#utility.yul\":17978:18148   */\n      pop\n      jump\t// out\n        /* \"#utility.yul\":18154:18520   */\n    tag_506:\n        /* \"#utility.yul\":18296:18299   */\n      0x00\n        /* \"#utility.yul\":18317:18384   */\n      tag_703\n        /* \"#utility.yul\":18381:18383   */\n      0x14\n        /* \"#utility.yul\":18376:18379   */\n      dup4\n        /* \"#utility.yul\":18317:18384   */\n      tag_478\n      jump\t// in\n    tag_703:\n        /* \"#utility.yul\":18310:18384   */\n      swap2\n      pop\n        /* \"#utility.yul\":18393:18486   */\n      tag_704\n        /* \"#utility.yul\":18482:18485   */\n      dup3\n        /* \"#utility.yul\":18393:18486   */\n      tag_505\n      jump\t// in\n    tag_704:\n        /* \"#utility.yul\":18511:18513   */\n      0x20\n        /* \"#utility.yul\":18506:18509   */\n      dup3\n        /* \"#utility.yul\":18502:18514   */\n      add\n        /* \"#utility.yul\":18495:18514   */\n      swap1\n      pop\n        /* \"#utility.yul\":18154:18520   */\n      swap2\n      swap1\n      pop\n      jump\t// out\n        /* \"#utility.yul\":18526:18945   */\n    tag_292:\n        /* \"#utility.yul\":18692:18696   */\n      0x00\n        /* \"#utility.yul\":18730:18732   */\n      0x20\n        /* \"#utility.yul\":18719:18728   */\n      dup3\n        /* \"#utility.yul\":18715:18733   */\n      add\n        /* \"#utility.yul\":18707:18733   */\n      swap1\n      pop\n        /* \"#utility.yul\":18779:18788   */\n      dup2\n        /* \"#utility.yul\":18773:18777   */\n      dup2\n        /* \"#utility.yul\":18769:18789   */\n      sub\n        /* \"#utility.yul\":18765:18766   */\n      0x00\n        /* \"#utility.yul\":18754:18763   */\n      dup4\n        /* \"#utility.yul\":18750:18767   */\n      add\n        /* \"#utility.yul\":18743:18790   */\n      mstore\n        /* \"#utility.yul\":18807:18938   */\n      tag_706\n        /* \"#utility.yul\":18933:18937   */\n      dup2\n        /* \"#utility.yul\":18807:18938   */\n      tag_506\n      jump\t// in\n    tag_706:\n        /* \"#utility.yul\":18799:18938   */\n      swap1\n      pop\n        /* \"#utility.yul\":18526:18945   */\n      swap2\n      swap1\n      pop\n      jump\t// out\n        /* \"#utility.yul\":18951:19283   */\n    tag_295:\n        /* \"#utility.yul\":19072:19076   */\n      0x00\n        /* \"#utility.yul\":19110:19112   */\n      0x40\n        /* \"#utility.yul\":19099:19108   */\n      dup3\n        /* \"#utility.yul\":19095:19113   */\n      add\n        /* \"#utility.yul\":19087:19113   */\n      swap1\n      pop\n        /* \"#utility.yul\":19123:19194   */\n      tag_708\n        /* \"#utility.yul\":19191:19192   */\n      0x00\n        /* \"#utility.yul\":19180:19189   */\n      dup4\n        /* \"#utility.yul\":19176:19193   */\n      add\n        /* \"#utility.yul\":19167:19173   */\n      dup6\n        /* \"#utility.yul\":19123:19194   */\n      tag_474\n      jump\t// in\n    tag_708:\n        /* \"#utility.yul\":19204:19276   */\n      tag_709\n        /* \"#utility.yul\":19272:19274   */\n      0x20\n        /* \"#utility.yul\":19261:19270   */\n      dup4\n        /* \"#utility.yul\":19257:19275   */\n      add\n        /* \"#utility.yul\":19248:19254   */\n      dup5\n        /* \"#utility.yul\":19204:19276   */\n      tag_465\n      jump\t// in\n    tag_709:\n        /* \"#utility.yul\":18951:19283   */\n      swap4\n      swap3\n      pop\n      pop\n      pop\n      jump\t// out\n        /* \"#utility.yul\":19289:19464   */\n    tag_507:\n        /* \"#utility.yul\":19429:19456   */\n      0x4661696c656420746f207472616e736665722073706f75736500000000000000\n        /* \"#utility.yul\":19425:19426   */\n      0x00\n        /* \"#utility.yul\":19417:19423   */\n      dup3\n        /* \"#utility.yul\":19413:19427   */\n      add\n        /* \"#utility.yul\":19406:19457   */\n      mstore\n        /* \"#utility.yul\":19289:19464   */\n      pop\n      jump\t// out\n        /* \"#utility.yul\":19470:19836   */\n    tag_508:\n        /* \"#utility.yul\":19612:19615   */\n      0x00\n        /* \"#utility.yul\":19633:19700   */\n      tag_712\n        /* \"#utility.yul\":19697:19699   */\n      0x19\n        /* \"#utility.yul\":19692:19695   */\n      dup4\n        /* \"#utility.yul\":19633:19700   */\n      tag_478\n      jump\t// in\n    tag_712:\n        /* \"#utility.yul\":19626:19700   */\n      swap2\n      pop\n        /* \"#utility.yul\":19709:19802   */\n      tag_713\n        /* \"#utility.yul\":19798:19801   */\n      dup3\n        /* \"#utility.yul\":19709:19802   */\n      tag_507\n      jump\t// in\n    tag_713:\n        /* \"#utility.yul\":19827:19829   */\n      0x20\n        /* \"#utility.yul\":19822:19825   */\n      dup3\n        /* \"#utility.yul\":19818:19830   */\n      add\n        /* \"#utility.yul\":19811:19830   */\n      swap1\n      pop\n        /* \"#utility.yul\":19470:19836   */\n      swap2\n      swap1\n      pop\n      jump\t// out\n        /* \"#utility.yul\":19842:20261   */\n    tag_303:\n        /* \"#utility.yul\":20008:20012   */\n      0x00\n        /* \"#utility.yul\":20046:20048   */\n      0x20\n        /* \"#utility.yul\":20035:20044   */\n      dup3\n        /* \"#utility.yul\":20031:20049   */\n      add\n        /* \"#utility.yul\":20023:20049   */\n      swap1\n      pop\n        /* \"#utility.yul\":20095:20104   */\n      dup2\n        /* \"#utility.yul\":20089:20093   */\n      dup2\n        /* \"#utility.yul\":20085:20105   */\n      sub\n        /* \"#utility.yul\":20081:20082   */\n      0x00\n        /* \"#utility.yul\":20070:20079   */\n      dup4\n        /* \"#utility.yul\":20066:20083   */\n      add\n        /* \"#utility.yul\":20059:20106   */\n      mstore\n        /* \"#utility.yul\":20123:20254   */\n      tag_715\n        /* \"#utility.yul\":20249:20253   */\n      dup2\n        /* \"#utility.yul\":20123:20254   */\n      tag_508\n      jump\t// in\n    tag_715:\n        /* \"#utility.yul\":20115:20254   */\n      swap1\n      pop\n        /* \"#utility.yul\":19842:20261   */\n      swap2\n      swap1\n      pop\n      jump\t// out\n        /* \"#utility.yul\":20267:20389   */\n    tag_509:\n        /* \"#utility.yul\":20340:20364   */\n      tag_717\n        /* \"#utility.yul\":20358:20363   */\n      dup2\n        /* \"#utility.yul\":20340:20364   */\n      tag_497\n      jump\t// in\n    tag_717:\n        /* \"#utility.yul\":20333:20338   */\n      dup2\n        /* \"#utility.yul\":20330:20365   */\n      eq\n        /* \"#utility.yul\":20320:20383   */\n      tag_718\n      jumpi\n        /* \"#utility.yul\":20379:20380   */\n      0x00\n        /* \"#utility.yul\":20376:20377   */\n      0x00\n        /* \"#utility.yul\":20369:20381   */\n      revert\n        /* \"#utility.yul\":20320:20383   */\n    tag_718:\n        /* \"#utility.yul\":20267:20389   */\n      pop\n      jump\t// out\n        /* \"#utility.yul\":20395:20538   */\n    tag_510:\n        /* \"#utility.yul\":20452:20457   */\n      0x00\n        /* \"#utility.yul\":20483:20489   */\n      dup2\n        /* \"#utility.yul\":20477:20490   */\n      mload\n        /* \"#utility.yul\":20468:20490   */\n      swap1\n      pop\n        /* \"#utility.yul\":20499:20532   */\n      tag_720\n        /* \"#utility.yul\":20526:20531   */\n      dup2\n        /* \"#utility.yul\":20499:20532   */\n      tag_509\n      jump\t// in\n    tag_720:\n        /* \"#utility.yul\":20395:20538   */\n      swap3\n      swap2\n      pop\n      pop\n      jump\t// out\n        /* \"#utility.yul\":20544:20895   */\n    tag_313:\n        /* \"#utility.yul\":20614:20620   */\n      0x00\n        /* \"#utility.yul\":20663:20665   */\n      0x20\n        /* \"#utility.yul\":20651:20660   */\n      dup3\n        /* \"#utility.yul\":20642:20649   */\n      dup5\n        /* \"#utility.yul\":20638:20661   */\n      sub\n        /* \"#utility.yul\":20634:20666   */\n      slt\n        /* \"#utility.yul\":20631:20750   */\n      iszero\n      tag_722\n      jumpi\n        /* \"#utility.yul\":20669:20748   */\n      tag_723\n      tag_467\n      jump\t// in\n    tag_723:\n        /* \"#utility.yul\":20631:20750   */\n    tag_722:\n        /* \"#utility.yul\":20789:20790   */\n      0x00\n        /* \"#utility.yul\":20814:20878   */\n      tag_724\n        /* \"#utility.yul\":20870:20877   */\n      dup5\n        /* \"#utility.yul\":20861:20867   */\n      dup3\n        /* \"#utility.yul\":20850:20859   */\n      dup6\n        /* \"#utility.yul\":20846:20868   */\n      add\n        /* \"#utility.yul\":20814:20878   */\n      tag_510\n      jump\t// in\n    tag_724:\n        /* \"#utility.yul\":20804:20878   */\n      swap2\n      pop\n        /* \"#utility.yul\":20760:20888   */\n      pop\n        /* \"#utility.yul\":20544:20895   */\n      swap3\n      swap2\n      pop\n      pop\n      jump\t// out\n        /* \"#utility.yul\":20901:21071   */\n    tag_511:\n        /* \"#utility.yul\":21041:21063   */\n      0x4920616d20616c7265616479206d617272696564000000000000000000000000\n        /* \"#utility.yul\":21037:21038   */\n      0x00\n        /* \"#utility.yul\":21029:21035   */\n      dup3\n        /* \"#utility.yul\":21025:21039   */\n      add\n        /* \"#utility.yul\":21018:21064   */\n      mstore\n        /* \"#utility.yul\":20901:21071   */\n      pop\n      jump\t// out\n        /* \"#utility.yul\":21077:21443   */\n    tag_512:\n        /* \"#utility.yul\":21219:21222   */\n      0x00\n        /* \"#utility.yul\":21240:21307   */\n      tag_727\n        /* \"#utility.yul\":21304:21306   */\n      0x14\n        /* \"#utility.yul\":21299:21302   */\n      dup4\n        /* \"#utility.yul\":21240:21307   */\n      tag_478\n      jump\t// in\n    tag_727:\n        /* \"#utility.yul\":21233:21307   */\n      swap2\n      pop\n        /* \"#utility.yul\":21316:21409   */\n      tag_728\n        /* \"#utility.yul\":21405:21408   */\n      dup3\n        /* \"#utility.yul\":21316:21409   */\n      tag_511\n      jump\t// in\n    tag_728:\n        /* \"#utility.yul\":21434:21436   */\n      0x20\n        /* \"#utility.yul\":21429:21432   */\n      dup3\n        /* \"#utility.yul\":21425:21437   */\n      add\n        /* \"#utility.yul\":21418:21437   */\n      swap1\n      pop\n        /* \"#utility.yul\":21077:21443   */\n      swap2\n      swap1\n      pop\n      jump\t// out\n        /* \"#utility.yul\":21449:21868   */\n    tag_335:\n        /* \"#utility.yul\":21615:21619   */\n      0x00\n        /* \"#utility.yul\":21653:21655   */\n      0x20\n        /* \"#utility.yul\":21642:21651   */\n      dup3\n        /* \"#utility.yul\":21638:21656   */\n      add\n        /* \"#utility.yul\":21630:21656   */\n      swap1\n      pop\n        /* \"#utility.yul\":21702:21711   */\n      dup2\n        /* \"#utility.yul\":21696:21700   */\n      dup2\n        /* \"#utility.yul\":21692:21712   */\n      sub\n        /* \"#utility.yul\":21688:21689   */\n      0x00\n        /* \"#utility.yul\":21677:21686   */\n      dup4\n        /* \"#utility.yul\":21673:21690   */\n      add\n        /* \"#utility.yul\":21666:21713   */\n      mstore\n        /* \"#utility.yul\":21730:21861   */\n      tag_730\n        /* \"#utility.yul\":21856:21860   */\n      dup2\n        /* \"#utility.yul\":21730:21861   */\n      tag_512\n      jump\t// in\n    tag_730:\n        /* \"#utility.yul\":21722:21861   */\n      swap1\n      pop\n        /* \"#utility.yul\":21449:21868   */\n      swap2\n      swap1\n      pop\n      jump\t// out\n        /* \"#utility.yul\":21874:22053   */\n    tag_513:\n        /* \"#utility.yul\":22014:22045   */\n      0x53706f7573652063616e6e6f74206265207a65726f2061646472657373000000\n        /* \"#utility.yul\":22010:22011   */\n      0x00\n        /* \"#utility.yul\":22002:22008   */\n      dup3\n        /* \"#utility.yul\":21998:22012   */\n      add\n        /* \"#utility.yul\":21991:22046   */\n      mstore\n        /* \"#utility.yul\":21874:22053   */\n      pop\n      jump\t// out\n        /* \"#utility.yul\":22059:22425   */\n    tag_514:\n        /* \"#utility.yul\":22201:22204   */\n      0x00\n        /* \"#utility.yul\":22222:22289   */\n      tag_733\n        /* \"#utility.yul\":22286:22288   */\n      0x1d\n        /* \"#utility.yul\":22281:22284   */\n      dup4\n        /* \"#utility.yul\":22222:22289   */\n      tag_478\n      jump\t// in\n    tag_733:\n        /* \"#utility.yul\":22215:22289   */\n      swap2\n      pop\n        /* \"#utility.yul\":22298:22391   */\n      tag_734\n        /* \"#utility.yul\":22387:22390   */\n      dup3\n        /* \"#utility.yul\":22298:22391   */\n      tag_513\n      jump\t// in\n    tag_734:\n        /* \"#utility.yul\":22416:22418   */\n      0x20\n        /* \"#utility.yul\":22411:22414   */\n      dup3\n        /* \"#utility.yul\":22407:22419   */\n      add\n        /* \"#utility.yul\":22400:22419   */\n      swap1\n      pop\n        /* \"#utility.yul\":22059:22425   */\n      swap2\n      swap1\n      pop\n      jump\t// out\n        /* \"#utility.yul\":22431:22850   */\n    tag_338:\n        /* \"#utility.yul\":22597:22601   */\n      0x00\n        /* \"#utility.yul\":22635:22637   */\n      0x20\n        /* \"#utility.yul\":22624:22633   */\n      dup3\n        /* \"#utility.yul\":22620:22638   */\n      add\n        /* \"#utility.yul\":22612:22638   */\n      swap1\n      pop\n        /* \"#utility.yul\":22684:22693   */\n      dup2\n        /* \"#utility.yul\":22678:22682   */\n      dup2\n        /* \"#utility.yul\":22674:22694   */\n      sub\n        /* \"#utility.yul\":22670:22671   */\n      0x00\n        /* \"#utility.yul\":22659:22668   */\n      dup4\n        /* \"#utility.yul\":22655:22672   */\n      add\n        /* \"#utility.yul\":22648:22695   */\n      mstore\n        /* \"#utility.yul\":22712:22843   */\n      tag_736\n        /* \"#utility.yul\":22838:22842   */\n      dup2\n        /* \"#utility.yul\":22712:22843   */\n      tag_514\n      jump\t// in\n    tag_736:\n        /* \"#utility.yul\":22704:22843   */\n      swap1\n      pop\n        /* \"#utility.yul\":22431:22850   */\n      swap2\n      swap1\n      pop\n      jump\t// out\n        /* \"#utility.yul\":22856:23025   */\n    tag_515:\n        /* \"#utility.yul\":22996:23017   */\n      0x43616e6e6f74206d61727279206d7973656c6600000000000000000000000000\n        /* \"#utility.yul\":22992:22993   */\n      0x00\n        /* \"#utility.yul\":22984:22990   */\n      dup3\n        /* \"#utility.yul\":22980:22994   */\n      add\n        /* \"#utility.yul\":22973:23018   */\n      mstore\n        /* \"#utility.yul\":22856:23025   */\n      pop\n      jump\t// out\n        /* \"#utility.yul\":23031:23397   */\n    tag_516:\n        /* \"#utility.yul\":23173:23176   */\n      0x00\n        /* \"#utility.yul\":23194:23261   */\n      tag_739\n        /* \"#utility.yul\":23258:23260   */\n      0x13\n        /* \"#utility.yul\":23253:23256   */\n      dup4\n        /* \"#utility.yul\":23194:23261   */\n      tag_478\n      jump\t// in\n    tag_739:\n        /* \"#utility.yul\":23187:23261   */\n      swap2\n      pop\n        /* \"#utility.yul\":23270:23363   */\n      tag_740\n        /* \"#utility.yul\":23359:23362   */\n      dup3\n        /* \"#utility.yul\":23270:23363   */\n      tag_515\n      jump\t// in\n    tag_740:\n        /* \"#utility.yul\":23388:23390   */\n      0x20\n        /* \"#utility.yul\":23383:23386   */\n      dup3\n        /* \"#utility.yul\":23379:23391   */\n      add\n        /* \"#utility.yul\":23372:23391   */\n      swap1\n      pop\n        /* \"#utility.yul\":23031:23397   */\n      swap2\n      swap1\n      pop\n      jump\t// out\n        /* \"#utility.yul\":23403:23822   */\n    tag_341:\n        /* \"#utility.yul\":23569:23573   */\n      0x00\n        /* \"#utility.yul\":23607:23609   */\n      0x20\n        /* \"#utility.yul\":23596:23605   */\n      dup3\n        /* \"#utility.yul\":23592:23610   */\n      add\n        /* \"#utility.yul\":23584:23610   */\n      swap1\n      pop\n        /* \"#utility.yul\":23656:23665   */\n      dup2\n        /* \"#utility.yul\":23650:23654   */\n      dup2\n        /* \"#utility.yul\":23646:23666   */\n      sub\n        /* \"#utility.yul\":23642:23643   */\n      0x00\n        /* \"#utility.yul\":23631:23640   */\n      dup4\n        /* \"#utility.yul\":23627:23644   */\n      add\n        /* \"#utility.yul\":23620:23667   */\n      mstore\n        /* \"#utility.yul\":23684:23815   */\n      tag_742\n        /* \"#utility.yul\":23810:23814   */\n      dup2\n        /* \"#utility.yul\":23684:23815   */\n      tag_516\n      jump\t// in\n    tag_742:\n        /* \"#utility.yul\":23676:23815   */\n      swap1\n      pop\n        /* \"#utility.yul\":23403:23822   */\n      swap2\n      swap1\n      pop\n      jump\t// out\n        /* \"#utility.yul\":23828:23997   */\n    tag_517:\n        /* \"#utility.yul\":23968:23989   */\n      0x43616e6e6f74206d61727279206f776e65723f00000000000000000000000000\n        /* \"#utility.yul\":23964:23965   */\n      0x00\n        /* \"#utility.yul\":23956:23962   */\n      dup3\n        /* \"#utility.yul\":23952:23966   */\n      add\n        /* \"#utility.yul\":23945:23990   */\n      mstore\n        /* \"#utility.yul\":23828:23997   */\n      pop\n      jump\t// out\n        /* \"#utility.yul\":24003:24369   */\n    tag_518:\n        /* \"#utility.yul\":24145:24148   */\n      0x00\n        /* \"#utility.yul\":24166:24233   */\n      tag_745\n        /* \"#utility.yul\":24230:24232   */\n      0x13\n        /* \"#utility.yul\":24225:24228   */\n      dup4\n        /* \"#utility.yul\":24166:24233   */\n      tag_478\n      jump\t// in\n    tag_745:\n        /* \"#utility.yul\":24159:24233   */\n      swap2\n      pop\n        /* \"#utility.yul\":24242:24335   */\n      tag_746\n        /* \"#utility.yul\":24331:24334   */\n      dup3\n        /* \"#utility.yul\":24242:24335   */\n      tag_517\n      jump\t// in\n    tag_746:\n        /* \"#utility.yul\":24360:24362   */\n      0x20\n        /* \"#utility.yul\":24355:24358   */\n      dup3\n        /* \"#utility.yul\":24351:24363   */\n      add\n        /* \"#utility.yul\":24344:24363   */\n      swap1\n      pop\n        /* \"#utility.yul\":24003:24369   */\n      swap2\n      swap1\n      pop\n      jump\t// out\n        /* \"#utility.yul\":24375:24794   */\n    tag_344:\n        /* \"#utility.yul\":24541:24545   */\n      0x00\n        /* \"#utility.yul\":24579:24581   */\n      0x20\n        /* \"#utility.yul\":24568:24577   */\n      dup3\n        /* \"#utility.yul\":24564:24582   */\n      add\n        /* \"#utility.yul\":24556:24582   */\n      swap1\n      pop\n        /* \"#utility.yul\":24628:24637   */\n      dup2\n        /* \"#utility.yul\":24622:24626   */\n      dup2\n        /* \"#utility.yul\":24618:24638   */\n      sub\n        /* \"#utility.yul\":24614:24615   */\n      0x00\n        /* \"#utility.yul\":24603:24612   */\n      dup4\n        /* \"#utility.yul\":24599:24616   */\n      add\n        /* \"#utility.yul\":24592:24639   */\n      mstore\n        /* \"#utility.yul\":24656:24787   */\n      tag_748\n        /* \"#utility.yul\":24782:24786   */\n      dup2\n        /* \"#utility.yul\":24656:24787   */\n      tag_518\n      jump\t// in\n    tag_748:\n        /* \"#utility.yul\":24648:24787   */\n      swap1\n      pop\n        /* \"#utility.yul\":24375:24794   */\n      swap2\n      swap1\n      pop\n      jump\t// out\n        /* \"#utility.yul\":24800:24975   */\n    tag_519:\n        /* \"#utility.yul\":24940:24967   */\n      0x53706f757365206d757374206265206120636f6e747261637400000000000000\n        /* \"#utility.yul\":24936:24937   */\n      0x00\n        /* \"#utility.yul\":24928:24934   */\n      dup3\n        /* \"#utility.yul\":24924:24938   */\n      add\n        /* \"#utility.yul\":24917:24968   */\n      mstore\n        /* \"#utility.yul\":24800:24975   */\n      pop\n      jump\t// out\n        /* \"#utility.yul\":24981:25347   */\n    tag_520:\n        /* \"#utility.yul\":25123:25126   */\n      0x00\n        /* \"#utility.yul\":25144:25211   */\n      tag_751\n        /* \"#utility.yul\":25208:25210   */\n      0x19\n        /* \"#utility.yul\":25203:25206   */\n      dup4\n        /* \"#utility.yul\":25144:25211   */\n      tag_478\n      jump\t// in\n    tag_751:\n        /* \"#utility.yul\":25137:25211   */\n      swap2\n      pop\n        /* \"#utility.yul\":25220:25313   */\n      tag_752\n        /* \"#utility.yul\":25309:25312   */\n      dup3\n        /* \"#utility.yul\":25220:25313   */\n      tag_519\n      jump\t// in\n    tag_752:\n        /* \"#utility.yul\":25338:25340   */\n      0x20\n        /* \"#utility.yul\":25333:25336   */\n      dup3\n        /* \"#utility.yul\":25329:25341   */\n      add\n        /* \"#utility.yul\":25322:25341   */\n      swap1\n      pop\n        /* \"#utility.yul\":24981:25347   */\n      swap2\n      swap1\n      pop\n      jump\t// out\n        /* \"#utility.yul\":25353:25772   */\n    tag_347:\n        /* \"#utility.yul\":25519:25523   */\n      0x00\n        /* \"#utility.yul\":25557:25559   */\n      0x20\n        /* \"#utility.yul\":25546:25555   */\n      dup3\n        /* \"#utility.yul\":25542:25560   */\n      add\n        /* \"#utility.yul\":25534:25560   */\n      swap1\n      pop\n        /* \"#utility.yul\":25606:25615   */\n      dup2\n        /* \"#utility.yul\":25600:25604   */\n      dup2\n        /* \"#utility.yul\":25596:25616   */\n      sub\n        /* \"#utility.yul\":25592:25593   */\n      0x00\n        /* \"#utility.yul\":25581:25590   */\n      dup4\n        /* \"#utility.yul\":25577:25594   */\n      add\n        /* \"#utility.yul\":25570:25617   */\n      mstore\n        /* \"#utility.yul\":25634:25765   */\n      tag_754\n        /* \"#utility.yul\":25760:25764   */\n      dup2\n        /* \"#utility.yul\":25634:25765   */\n      tag_520\n      jump\t// in\n    tag_754:\n        /* \"#utility.yul\":25626:25765   */\n      swap1\n      pop\n        /* \"#utility.yul\":25353:25772   */\n      swap2\n      swap1\n      pop\n      jump\t// out\n        /* \"#utility.yul\":25778:25949   */\n    tag_521:\n        /* \"#utility.yul\":25918:25941   */\n      0x53706f757365206e6f7420636f6d70617469626c650000000000000000000000\n        /* \"#utility.yul\":25914:25915   */\n      0x00\n        /* \"#utility.yul\":25906:25912   */\n      dup3\n        /* \"#utility.yul\":25902:25916   */\n      add\n        /* \"#utility.yul\":25895:25942   */\n      mstore\n        /* \"#utility.yul\":25778:25949   */\n      pop\n      jump\t// out\n        /* \"#utility.yul\":25955:26321   */\n    tag_522:\n        /* \"#utility.yul\":26097:26100   */\n      0x00\n        /* \"#utility.yul\":26118:26185   */\n      tag_757\n        /* \"#utility.yul\":26182:26184   */\n      0x15\n        /* \"#utility.yul\":26177:26180   */\n      dup4\n        /* \"#utility.yul\":26118:26185   */\n      tag_478\n      jump\t// in\n    tag_757:\n        /* \"#utility.yul\":26111:26185   */\n      swap2\n      pop\n        /* \"#utility.yul\":26194:26287   */\n      tag_758\n        /* \"#utility.yul\":26283:26286   */\n      dup3\n        /* \"#utility.yul\":26194:26287   */\n      tag_521\n      jump\t// in\n    tag_758:\n        /* \"#utility.yul\":26312:26314   */\n      0x20\n        /* \"#utility.yul\":26307:26310   */\n      dup3\n        /* \"#utility.yul\":26303:26315   */\n      add\n        /* \"#utility.yul\":26296:26315   */\n      swap1\n      pop\n        /* \"#utility.yul\":25955:26321   */\n      swap2\n      swap1\n      pop\n      jump\t// out\n        /* \"#utility.yul\":26327:26746   */\n    tag_355:\n        /* \"#utility.yul\":26493:26497   */\n      0x00\n        /* \"#utility.yul\":26531:26533   */\n      0x20\n        /* \"#utility.yul\":26520:26529   */\n      dup3\n        /* \"#utility.yul\":26516:26534   */\n      add\n        /* \"#utility.yul\":26508:26534   */\n      swap1\n      pop\n        /* \"#utility.yul\":26580:26589   */\n      dup2\n        /* \"#utility.yul\":26574:26578   */\n      dup2\n        /* \"#utility.yul\":26570:26590   */\n      sub\n        /* \"#utility.yul\":26566:26567   */\n      0x00\n        /* \"#utility.yul\":26555:26564   */\n      dup4\n        /* \"#utility.yul\":26551:26568   */\n      add\n        /* \"#utility.yul\":26544:26591   */\n      mstore\n        /* \"#utility.yul\":26608:26739   */\n      tag_760\n        /* \"#utility.yul\":26734:26738   */\n      dup2\n        /* \"#utility.yul\":26608:26739   */\n      tag_522\n      jump\t// in\n    tag_760:\n        /* \"#utility.yul\":26600:26739   */\n      swap1\n      pop\n        /* \"#utility.yul\":26327:26746   */\n      swap2\n      swap1\n      pop\n      jump\t// out\n        /* \"#utility.yul\":26752:26924   */\n    tag_523:\n        /* \"#utility.yul\":26892:26916   */\n      0x53706f75736520616c7265616479206d61727269656400000000000000000000\n        /* \"#utility.yul\":26888:26889   */\n      0x00\n        /* \"#utility.yul\":26880:26886   */\n      dup3\n        /* \"#utility.yul\":26876:26890   */\n      add\n        /* \"#utility.yul\":26869:26917   */\n      mstore\n        /* \"#utility.yul\":26752:26924   */\n      pop\n      jump\t// out\n        /* \"#utility.yul\":26930:27296   */\n    tag_524:\n        /* \"#utility.yul\":27072:27075   */\n      0x00\n        /* \"#utility.yul\":27093:27160   */\n      tag_763\n        /* \"#utility.yul\":27157:27159   */\n      0x16\n        /* \"#utility.yul\":27152:27155   */\n      dup4\n        /* \"#utility.yul\":27093:27160   */\n      tag_478\n      jump\t// in\n    tag_763:\n        /* \"#utility.yul\":27086:27160   */\n      swap2\n      pop\n        /* \"#utility.yul\":27169:27262   */\n      tag_764\n        /* \"#utility.yul\":27258:27261   */\n      dup3\n        /* \"#utility.yul\":27169:27262   */\n      tag_523\n      jump\t// in\n    tag_764:\n        /* \"#utility.yul\":27287:27289   */\n      0x20\n        /* \"#utility.yul\":27282:27285   */\n      dup3\n        /* \"#utility.yul\":27278:27290   */\n      add\n        /* \"#utility.yul\":27271:27290   */\n      swap1\n      pop\n        /* \"#utility.yul\":26930:27296   */\n      swap2\n      swap1\n      pop\n      jump\t// out\n        /* \"#utility.yul\":27302:27721   */\n    tag_359:\n        /* \"#utility.yul\":27468:27472   */\n      0x00\n        /* \"#utility.yul\":27506:27508   */\n      0x20\n        /* \"#utility.yul\":27495:27504   */\n      dup3\n        /* \"#utility.yul\":27491:27509   */\n      add\n        /* \"#utility.yul\":27483:27509   */\n      swap1\n      pop\n        /* \"#utility.yul\":27555:27564   */\n      dup2\n        /* \"#utility.yul\":27549:27553   */\n      dup2\n        /* \"#utility.yul\":27545:27565   */\n      sub\n        /* \"#utility.yul\":27541:27542   */\n      0x00\n        /* \"#utility.yul\":27530:27539   */\n      dup4\n        /* \"#utility.yul\":27526:27543   */\n      add\n        /* \"#utility.yul\":27519:27566   */\n      mstore\n        /* \"#utility.yul\":27583:27714   */\n      tag_766\n        /* \"#utility.yul\":27709:27713   */\n      dup2\n        /* \"#utility.yul\":27583:27714   */\n      tag_524\n      jump\t// in\n    tag_766:\n        /* \"#utility.yul\":27575:27714   */\n      swap1\n      pop\n        /* \"#utility.yul\":27302:27721   */\n      swap2\n      swap1\n      pop\n      jump\t// out\n        /* \"#utility.yul\":27727:27901   */\n    tag_525:\n        /* \"#utility.yul\":27867:27893   */\n      0x4661696c656420746f2075706461746520706172746e65720000000000000000\n        /* \"#utility.yul\":27863:27864   */\n      0x00\n        /* \"#utility.yul\":27855:27861   */\n      dup3\n        /* \"#utility.yul\":27851:27865   */\n      add\n        /* \"#utility.yul\":27844:27894   */\n      mstore\n        /* \"#utility.yul\":27727:27901   */\n      pop\n      jump\t// out\n        /* \"#utility.yul\":27907:28273   */\n    tag_526:\n        /* \"#utility.yul\":28049:28052   */\n      0x00\n        /* \"#utility.yul\":28070:28137   */\n      tag_769\n        /* \"#utility.yul\":28134:28136   */\n      0x18\n        /* \"#utility.yul\":28129:28132   */\n      dup4\n        /* \"#utility.yul\":28070:28137   */\n      tag_478\n      jump\t// in\n    tag_769:\n        /* \"#utility.yul\":28063:28137   */\n      swap2\n      pop\n        /* \"#utility.yul\":28146:28239   */\n      tag_770\n        /* \"#utility.yul\":28235:28238   */\n      dup3\n        /* \"#utility.yul\":28146:28239   */\n      tag_525\n      jump\t// in\n    tag_770:\n        /* \"#utility.yul\":28264:28266   */\n      0x20\n        /* \"#utility.yul\":28259:28262   */\n      dup3\n        /* \"#utility.yul\":28255:28267   */\n      add\n        /* \"#utility.yul\":28248:28267   */\n      swap1\n      pop\n        /* \"#utility.yul\":27907:28273   */\n      swap2\n      swap1\n      pop\n      jump\t// out\n        /* \"#utility.yul\":28279:28698   */\n    tag_369:\n        /* \"#utility.yul\":28445:28449   */\n      0x00\n        /* \"#utility.yul\":28483:28485   */\n      0x20\n        /* \"#utility.yul\":28472:28481   */\n      dup3\n        /* \"#utility.yul\":28468:28486   */\n      add\n        /* \"#utility.yul\":28460:28486   */\n      swap1\n      pop\n        /* \"#utility.yul\":28532:28541   */\n      dup2\n        /* \"#utility.yul\":28526:28530   */\n      dup2\n        /* \"#utility.yul\":28522:28542   */\n      sub\n        /* \"#utility.yul\":28518:28519   */\n      0x00\n        /* \"#utility.yul\":28507:28516   */\n      dup4\n        /* \"#utility.yul\":28503:28520   */\n      add\n        /* \"#utility.yul\":28496:28543   */\n      mstore\n        /* \"#utility.yul\":28560:28691   */\n      tag_772\n        /* \"#utility.yul\":28686:28690   */\n      dup2\n        /* \"#utility.yul\":28560:28691   */\n      tag_526\n      jump\t// in\n    tag_772:\n        /* \"#utility.yul\":28552:28691   */\n      swap1\n      pop\n        /* \"#utility.yul\":28279:28698   */\n      swap2\n      swap1\n      pop\n      jump\t// out\n        /* \"#utility.yul\":28704:28847   */\n    tag_527:\n        /* \"#utility.yul\":28761:28766   */\n      0x00\n        /* \"#utility.yul\":28792:28798   */\n      dup2\n        /* \"#utility.yul\":28786:28799   */\n      mload\n        /* \"#utility.yul\":28777:28799   */\n      swap1\n      pop\n        /* \"#utility.yul\":28808:28841   */\n      tag_774\n        /* \"#utility.yul\":28835:28840   */\n      dup2\n        /* \"#utility.yul\":28808:28841   */\n      tag_472\n      jump\t// in\n    tag_774:\n        /* \"#utility.yul\":28704:28847   */\n      swap3\n      swap2\n      pop\n      pop\n      jump\t// out\n        /* \"#utility.yul\":28853:29204   */\n    tag_374:\n        /* \"#utility.yul\":28923:28929   */\n      0x00\n        /* \"#utility.yul\":28972:28974   */\n      0x20\n        /* \"#utility.yul\":28960:28969   */\n      dup3\n        /* \"#utility.yul\":28951:28958   */\n      dup5\n        /* \"#utility.yul\":28947:28970   */\n      sub\n        /* \"#utility.yul\":28943:28975   */\n      slt\n        /* \"#utility.yul\":28940:29059   */\n      iszero\n      tag_776\n      jumpi\n        /* \"#utility.yul\":28978:29057   */\n      tag_777\n      tag_467\n      jump\t// in\n    tag_777:\n        /* \"#utility.yul\":28940:29059   */\n    tag_776:\n        /* \"#utility.yul\":29098:29099   */\n      0x00\n        /* \"#utility.yul\":29123:29187   */\n      tag_778\n        /* \"#utility.yul\":29179:29186   */\n      dup5\n        /* \"#utility.yul\":29170:29176   */\n      dup3\n        /* \"#utility.yul\":29159:29168   */\n      dup6\n        /* \"#utility.yul\":29155:29177   */\n      add\n        /* \"#utility.yul\":29123:29187   */\n      tag_527\n      jump\t// in\n    tag_778:\n        /* \"#utility.yul\":29113:29187   */\n      swap2\n      pop\n        /* \"#utility.yul\":29069:29197   */\n      pop\n        /* \"#utility.yul\":28853:29204   */\n      swap3\n      swap2\n      pop\n      pop\n      jump\t// out\n        /* \"#utility.yul\":29210:29391   */\n    tag_528:\n        /* \"#utility.yul\":29350:29383   */\n      0x4661696c656420746f2073657420706172746e657220616c6c6f77616e636500\n        /* \"#utility.yul\":29346:29347   */\n      0x00\n        /* \"#utility.yul\":29338:29344   */\n      dup3\n        /* \"#utility.yul\":29334:29348   */\n      add\n        /* \"#utility.yul\":29327:29384   */\n      mstore\n        /* \"#utility.yul\":29210:29391   */\n      pop\n      jump\t// out\n        /* \"#utility.yul\":29397:29763   */\n    tag_529:\n        /* \"#utility.yul\":29539:29542   */\n      0x00\n        /* \"#utility.yul\":29560:29627   */\n      tag_781\n        /* \"#utility.yul\":29624:29626   */\n      0x1f\n        /* \"#utility.yul\":29619:29622   */\n      dup4\n        /* \"#utility.yul\":29560:29627   */\n      tag_478\n      jump\t// in\n    tag_781:\n        /* \"#utility.yul\":29553:29627   */\n      swap2\n      pop\n        /* \"#utility.yul\":29636:29729   */\n      tag_782\n        /* \"#utility.yul\":29725:29728   */\n      dup3\n        /* \"#utility.yul\":29636:29729   */\n      tag_528\n      jump\t// in\n    tag_782:\n        /* \"#utility.yul\":29754:29756   */\n      0x20\n        /* \"#utility.yul\":29749:29752   */\n      dup3\n        /* \"#utility.yul\":29745:29757   */\n      add\n        /* \"#utility.yul\":29738:29757   */\n      swap1\n      pop\n        /* \"#utility.yul\":29397:29763   */\n      swap2\n      swap1\n      pop\n      jump\t// out\n        /* \"#utility.yul\":29769:30188   */\n    tag_383:\n        /* \"#utility.yul\":29935:29939   */\n      0x00\n        /* \"#utility.yul\":29973:29975   */\n      0x20\n        /* \"#utility.yul\":29962:29971   */\n      dup3\n        /* \"#utility.yul\":29958:29976   */\n      add\n        /* \"#utility.yul\":29950:29976   */\n      swap1\n      pop\n        /* \"#utility.yul\":30022:30031   */\n      dup2\n        /* \"#utility.yul\":30016:30020   */\n      dup2\n        /* \"#utility.yul\":30012:30032   */\n      sub\n        /* \"#utility.yul\":30008:30009   */\n      0x00\n        /* \"#utility.yul\":29997:30006   */\n      dup4\n        /* \"#utility.yul\":29993:30010   */\n      add\n        /* \"#utility.yul\":29986:30033   */\n      mstore\n        /* \"#utility.yul\":30050:30181   */\n      tag_784\n        /* \"#utility.yul\":30176:30180   */\n      dup2\n        /* \"#utility.yul\":30050:30181   */\n      tag_529\n      jump\t// in\n    tag_784:\n        /* \"#utility.yul\":30042:30181   */\n      swap1\n      pop\n        /* \"#utility.yul\":29769:30188   */\n      swap2\n      swap1\n      pop\n      jump\t// out\n        /* \"#utility.yul\":30194:30370   */\n    tag_530:\n        /* \"#utility.yul\":30334:30362   */\n      0x4f6e6c7920706172746e65722063616e2063616c6c2074686973000000000000\n        /* \"#utility.yul\":30330:30331   */\n      0x00\n        /* \"#utility.yul\":30322:30328   */\n      dup3\n        /* \"#utility.yul\":30318:30332   */\n      add\n        /* \"#utility.yul\":30311:30363   */\n      mstore\n        /* \"#utility.yul\":30194:30370   */\n      pop\n      jump\t// out\n        /* \"#utility.yul\":30376:30742   */\n    tag_531:\n        /* \"#utility.yul\":30518:30521   */\n      0x00\n        /* \"#utility.yul\":30539:30606   */\n      tag_787\n        /* \"#utility.yul\":30603:30605   */\n      0x1a\n        /* \"#utility.yul\":30598:30601   */\n      dup4\n        /* \"#utility.yul\":30539:30606   */\n      tag_478\n      jump\t// in\n    tag_787:\n        /* \"#utility.yul\":30532:30606   */\n      swap2\n      pop\n        /* \"#utility.yul\":30615:30708   */\n      tag_788\n        /* \"#utility.yul\":30704:30707   */\n      dup3\n        /* \"#utility.yul\":30615:30708   */\n      tag_530\n      jump\t// in\n    tag_788:\n        /* \"#utility.yul\":30733:30735   */\n      0x20\n        /* \"#utility.yul\":30728:30731   */\n      dup3\n        /* \"#utility.yul\":30724:30736   */\n      add\n        /* \"#utility.yul\":30717:30736   */\n      swap1\n      pop\n        /* \"#utility.yul\":30376:30742   */\n      swap2\n      swap1\n      pop\n      jump\t// out\n        /* \"#utility.yul\":30748:31167   */\n    tag_391:\n        /* \"#utility.yul\":30914:30918   */\n      0x00\n        /* \"#utility.yul\":30952:30954   */\n      0x20\n        /* \"#utility.yul\":30941:30950   */\n      dup3\n        /* \"#utility.yul\":30937:30955   */\n      add\n        /* \"#utility.yul\":30929:30955   */\n      swap1\n      pop\n        /* \"#utility.yul\":31001:31010   */\n      dup2\n        /* \"#utility.yul\":30995:30999   */\n      dup2\n        /* \"#utility.yul\":30991:31011   */\n      sub\n        /* \"#utility.yul\":30987:30988   */\n      0x00\n        /* \"#utility.yul\":30976:30985   */\n      dup4\n        /* \"#utility.yul\":30972:30989   */\n      add\n        /* \"#utility.yul\":30965:31012   */\n      mstore\n        /* \"#utility.yul\":31029:31160   */\n      tag_790\n        /* \"#utility.yul\":31155:31159   */\n      dup2\n        /* \"#utility.yul\":31029:31160   */\n      tag_531\n      jump\t// in\n    tag_790:\n        /* \"#utility.yul\":31021:31160   */\n      swap1\n      pop\n        /* \"#utility.yul\":30748:31167   */\n      swap2\n      swap1\n      pop\n      jump\t// out\n        /* \"#utility.yul\":31173:31342   */\n    tag_532:\n        /* \"#utility.yul\":31313:31334   */\n      0x4f6e6c792073706f7573652063616e2073657400000000000000000000000000\n        /* \"#utility.yul\":31309:31310   */\n      0x00\n        /* \"#utility.yul\":31301:31307   */\n      dup3\n        /* \"#utility.yul\":31297:31311   */\n      add\n        /* \"#utility.yul\":31290:31335   */\n      mstore\n        /* \"#utility.yul\":31173:31342   */\n      pop\n      jump\t// out\n        /* \"#utility.yul\":31348:31714   */\n    tag_533:\n        /* \"#utility.yul\":31490:31493   */\n      0x00\n        /* \"#utility.yul\":31511:31578   */\n      tag_793\n        /* \"#utility.yul\":31575:31577   */\n      0x13\n        /* \"#utility.yul\":31570:31573   */\n      dup4\n        /* \"#utility.yul\":31511:31578   */\n      tag_478\n      jump\t// in\n    tag_793:\n        /* \"#utility.yul\":31504:31578   */\n      swap2\n      pop\n        /* \"#utility.yul\":31587:31680   */\n      tag_794\n        /* \"#utility.yul\":31676:31679   */\n      dup3\n        /* \"#utility.yul\":31587:31680   */\n      tag_532\n      jump\t// in\n    tag_794:\n        /* \"#utility.yul\":31705:31707   */\n      0x20\n        /* \"#utility.yul\":31700:31703   */\n      dup3\n        /* \"#utility.yul\":31696:31708   */\n      add\n        /* \"#utility.yul\":31689:31708   */\n      swap1\n      pop\n        /* \"#utility.yul\":31348:31714   */\n      swap2\n      swap1\n      pop\n      jump\t// out\n        /* \"#utility.yul\":31720:32139   */\n    tag_396:\n        /* \"#utility.yul\":31886:31890   */\n      0x00\n        /* \"#utility.yul\":31924:31926   */\n      0x20\n        /* \"#utility.yul\":31913:31922   */\n      dup3\n        /* \"#utility.yul\":31909:31927   */\n      add\n        /* \"#utility.yul\":31901:31927   */\n      swap1\n      pop\n        /* \"#utility.yul\":31973:31982   */\n      dup2\n        /* \"#utility.yul\":31967:31971   */\n      dup2\n        /* \"#utility.yul\":31963:31983   */\n      sub\n        /* \"#utility.yul\":31959:31960   */\n      0x00\n        /* \"#utility.yul\":31948:31957   */\n      dup4\n        /* \"#utility.yul\":31944:31961   */\n      add\n        /* \"#utility.yul\":31937:31984   */\n      mstore\n        /* \"#utility.yul\":32001:32132   */\n      tag_796\n        /* \"#utility.yul\":32127:32131   */\n      dup2\n        /* \"#utility.yul\":32001:32132   */\n      tag_533\n      jump\t// in\n    tag_796:\n        /* \"#utility.yul\":31993:32132   */\n      swap1\n      pop\n        /* \"#utility.yul\":31720:32139   */\n      swap2\n      swap1\n      pop\n      jump\t// out\n        /* \"#utility.yul\":32145:32306   */\n    tag_534:\n        /* \"#utility.yul\":32285:32298   */\n      0x4e6f74206d617272696564000000000000000000000000000000000000000000\n        /* \"#utility.yul\":32281:32282   */\n      0x00\n        /* \"#utility.yul\":32273:32279   */\n      dup3\n        /* \"#utility.yul\":32269:32283   */\n      add\n        /* \"#utility.yul\":32262:32299   */\n      mstore\n        /* \"#utility.yul\":32145:32306   */\n      pop\n      jump\t// out\n        /* \"#utility.yul\":32312:32678   */\n    tag_535:\n        /* \"#utility.yul\":32454:32457   */\n      0x00\n        /* \"#utility.yul\":32475:32542   */\n      tag_799\n        /* \"#utility.yul\":32539:32541   */\n      0x0b\n        /* \"#utility.yul\":32534:32537   */\n      dup4\n        /* \"#utility.yul\":32475:32542   */\n      tag_478\n      jump\t// in\n    tag_799:\n        /* \"#utility.yul\":32468:32542   */\n      swap2\n      pop\n        /* \"#utility.yul\":32551:32644   */\n      tag_800\n        /* \"#utility.yul\":32640:32643   */\n      dup3\n        /* \"#utility.yul\":32551:32644   */\n      tag_534\n      jump\t// in\n    tag_800:\n        /* \"#utility.yul\":32669:32671   */\n      0x20\n        /* \"#utility.yul\":32664:32667   */\n      dup3\n        /* \"#utility.yul\":32660:32672   */\n      add\n        /* \"#utility.yul\":32653:32672   */\n      swap1\n      pop\n        /* \"#utility.yul\":32312:32678   */\n      swap2\n      swap1\n      pop\n      jump\t// out\n        /* \"#utility.yul\":32684:33103   */\n    tag_434:\n        /* \"#utility.yul\":32850:32854   */\n      0x00\n        /* \"#utility.yul\":32888:32890   */\n      0x20\n        /* \"#utility.yul\":32877:32886   */\n      dup3\n        /* \"#utility.yul\":32873:32891   */\n      add\n        /* \"#utility.yul\":32865:32891   */\n      swap1\n      pop\n        /* \"#utility.yul\":32937:32946   */\n      dup2\n        /* \"#utility.yul\":32931:32935   */\n      dup2\n        /* \"#utility.yul\":32927:32947   */\n      sub\n        /* \"#utility.yul\":32923:32924   */\n      0x00\n        /* \"#utility.yul\":32912:32921   */\n      dup4\n        /* \"#utility.yul\":32908:32925   */\n      add\n        /* \"#utility.yul\":32901:32948   */\n      mstore\n        /* \"#utility.yul\":32965:33096   */\n      tag_802\n        /* \"#utility.yul\":33091:33095   */\n      dup2\n        /* \"#utility.yul\":32965:33096   */\n      tag_535\n      jump\t// in\n    tag_802:\n        /* \"#utility.yul\":32957:33096   */\n      swap1\n      pop\n        /* \"#utility.yul\":32684:33103   */\n      swap2\n      swap1\n      pop\n      jump\t// out\n        /* \"#utility.yul\":33109:33283   */\n    tag_536:\n        /* \"#utility.yul\":33249:33275   */\n      0x4661696c656420746f206e6f7469667920706172746e65720000000000000000\n        /* \"#utility.yul\":33245:33246   */\n      0x00\n        /* \"#utility.yul\":33237:33243   */\n      dup3\n        /* \"#utility.yul\":33233:33247   */\n      add\n        /* \"#utility.yul\":33226:33276   */\n      mstore\n        /* \"#utility.yul\":33109:33283   */\n      pop\n      jump\t// out\n        /* \"#utility.yul\":33289:33655   */\n    tag_537:\n        /* \"#utility.yul\":33431:33434   */\n      0x00\n        /* \"#utility.yul\":33452:33519   */\n      tag_805\n        /* \"#utility.yul\":33516:33518   */\n      0x18\n        /* \"#utility.yul\":33511:33514   */\n      dup4\n        /* \"#utility.yul\":33452:33519   */\n      tag_478\n      jump\t// in\n    tag_805:\n        /* \"#utility.yul\":33445:33519   */\n      swap2\n      pop\n        /* \"#utility.yul\":33528:33621   */\n      tag_806\n        /* \"#utility.yul\":33617:33620   */\n      dup3\n        /* \"#utility.yul\":33528:33621   */\n      tag_536\n      jump\t// in\n    tag_806:\n        /* \"#utility.yul\":33646:33648   */\n      0x20\n        /* \"#utility.yul\":33641:33644   */\n      dup3\n        /* \"#utility.yul\":33637:33649   */\n      add\n        /* \"#utility.yul\":33630:33649   */\n      swap1\n      pop\n        /* \"#utility.yul\":33289:33655   */\n      swap2\n      swap1\n      pop\n      jump\t// out\n        /* \"#utility.yul\":33661:34080   */\n    tag_446:\n        /* \"#utility.yul\":33827:33831   */\n      0x00\n        /* \"#utility.yul\":33865:33867   */\n      0x20\n        /* \"#utility.yul\":33854:33863   */\n      dup3\n        /* \"#utility.yul\":33850:33868   */\n      add\n        /* \"#utility.yul\":33842:33868   */\n      swap1\n      pop\n        /* \"#utility.yul\":33914:33923   */\n      dup2\n        /* \"#utility.yul\":33908:33912   */\n      dup2\n        /* \"#utility.yul\":33904:33924   */\n      sub\n        /* \"#utility.yul\":33900:33901   */\n      0x00\n        /* \"#utility.yul\":33889:33898   */\n      dup4\n        /* \"#utility.yul\":33885:33902   */\n      add\n        /* \"#utility.yul\":33878:33925   */\n      mstore\n        /* \"#utility.yul\":33942:34073   */\n      tag_808\n        /* \"#utility.yul\":34068:34072   */\n      dup2\n        /* \"#utility.yul\":33942:34073   */\n      tag_537\n      jump\t// in\n    tag_808:\n        /* \"#utility.yul\":33934:34073   */\n      swap1\n      pop\n        /* \"#utility.yul\":33661:34080   */\n      swap2\n      swap1\n      pop\n      jump\t// out\n\n    auxdata: 0xa2646970667358221220e83be6d41df69c308f82e615e5d471c4be8eb8c9a819f00e39129ff231702aa664736f6c634300081e0033\n}\n",
				"bytecode": {
					"linkReferences": {},
					"object": "60c060405234801561000f575f5ffd5b506040516138963803806138968339818101604052810190610031919061021e565b5f5f819055505f60015f6101000a81548160ff0219169083151502179055508160025f6101000a81548173ffffffffffffffffffffffffffffffffffffffff021916908373ffffffffffffffffffffffffffffffffffffffff1602179055508060035f6101000a81548173ffffffffffffffffffffffffffffffffffffffff021916908373ffffffffffffffffffffffffffffffffffffffff1602179055503360045f6101000a81548173ffffffffffffffffffffffffffffffffffffffff021916908373ffffffffffffffffffffffffffffffffffffffff1602179055503373ffffffffffffffffffffffffffffffffffffffff1660808173ffffffffffffffffffffffffffffffffffffffff168152505061138860a081815250505f600160026101000a81548173ffffffffffffffffffffffffffffffffffffffff021916908373ffffffffffffffffffffffffffffffffffffffff1602179055505f60068190555060a05160058190555060018060016101000a81548160ff021916908315150217905550505061025c565b5f5ffd5b5f73ffffffffffffffffffffffffffffffffffffffff82169050919050565b5f6101ed826101c4565b9050919050565b6101fd816101e3565b8114610207575f5ffd5b50565b5f81519050610218816101f4565b92915050565b5f5f60408385031215610234576102336101c0565b5b5f6102418582860161020a565b92505060206102528582860161020a565b9150509250929050565b60805160a0516136126102845f395f818161162a015261225401525f6112c901526136125ff3fe608060405234801561000f575f5ffd5b506004361061020f575f3560e01c80635f68c43911610123578063c043decc116100ab578063d852545e1161007a578063d852545e1461057d578063dfb986a21461059b578063dff44b2f146105b9578063f247e3de146105c3578063f7ec2f35146105e15761020f565b8063c043decc14610509578063c800409f14610527578063cb01a92b14610545578063d25d32b6146105615761020f565b80638da5cb5b116100f25780638da5cb5b14610475578063967e6e6514610493578063a2f1309e146104b1578063ae81f068146104cf578063bccb358e146104ed5761020f565b80635f68c439146103ed5780636aa393f814610409578063790aa8de146104275780638bc87745146104575761020f565b806337f65b79116101a65780634ad8a7ae116101755780634ad8a7ae1461035b5780634bc96425146103775780634f0b03f914610395578063594db753146103b15780635976d63b146103cf5761020f565b806337f65b79146102e757806338fb27ba146102f15780633c876c251461030d578063483a93101461032b5761020f565b80631704031e116101e25780631704031e1461028757806325803d641461029157806327a80e0d146102ad578063308f838a146102cb5761020f565b806310731c6514610213578063108ece4d14610231578063134617621461024f57806314b956311461026b575b5f5ffd5b61021b6105ff565b6040516102289190612678565b60405180910390f35b6102396107ee565b60405161024691906126d0565b60405180910390f35b6102696004803603810190610264919061274a565b610817565b005b61028560048036038101906102809190612788565b610a03565b005b61028f610a9c565b005b6102ab60048036038101906102a69190612788565b610b4e565b005b6102b5610c48565b6040516102c29190612678565b60405180910390f35b6102e560048036038101906102e091906127b3565b610d6f565b005b6102ef610e51565b005b61030b600480360381019061030691906127f1565b610f6f565b005b610315611048565b604051610322919061282b565b60405180910390f35b61034560048036038101906103409190612788565b611072565b604051610352919061282b565b60405180910390f35b6103756004803603810190610370919061274a565b61109f565b005b61037f6112c6565b60405161038c9190612678565b60405180910390f35b6103af60048036038101906103aa91906127f1565b61133c565b005b6103b9611380565b6040516103c6919061282b565b60405180910390f35b6103d761138e565b6040516103e49190612678565b60405180910390f35b61040760048036038101906104029190612788565b6113a2565b005b610411611627565b60405161041e919061282b565b60405180910390f35b610441600480360381019061043c91906127f1565b61164e565b60405161044e9190612678565b60405180910390f35b61045f611772565b60405161046c9190612678565b60405180910390f35b61047d611787565b60405161048a91906126d0565b60405180910390f35b61049b6117ac565b6040516104a8919061282b565b60405180910390f35b6104b96117b4565b6040516104c69190612678565b60405180910390f35b6104d76117db565b6040516104e49190612678565b60405180910390f35b610507600480360381019061050291906127f1565b611864565b005b610511611ee1565b60405161051e919061282b565b60405180910390f35b61052f611eea565b60405161053c9190612678565b60405180910390f35b61055f600480360381019061055a91906127f1565b611efb565b005b61057b60048036038101906105769190612788565b611f8e565b005b610585612028565b6040516105929190612678565b60405180910390f35b6105a36122c1565b6040516105b09190612678565b60405180910390f35b6105c1612319565b005b6105cb61257f565b6040516105d8919061282b565b60405180910390f35b6105e9612588565b6040516105f69190612678565b60405180910390f35b5f5f73ffffffffffffffffffffffffffffffffffffffff16600160029054906101000a900473ffffffffffffffffffffffffffffffffffffffff1673ffffffffffffffffffffffffffffffffffffffff160361066c5760015f9054906101000a900460ff161590506107eb565b60015f9054906101000a900460ff16610687575f90506107eb565b5f600160029054906101000a900473ffffffffffffffffffffffffffffffffffffffff1690508073ffffffffffffffffffffffffffffffffffffffff1663108ece4d6040518163ffffffff1660e01b8152600401602060405180830381865afa92505050801561071557506040513d601f19601f820116820180604052508101906107129190612858565b60015b610722575f9150506107eb565b3073ffffffffffffffffffffffffffffffffffffffff168173ffffffffffffffffffffffffffffffffffffffff161461075f575f925050506107eb565b508073ffffffffffffffffffffffffffffffffffffffff16638bc877456040518163ffffffff1660e01b8152600401602060405180830381865afa9250505080156107c857506040513d601f19601f820116820180604052508101906107c591906128ad565b60015b6107d5575f9150506107eb565b806107e4575f925050506107eb565b5060019150505b90565b5f600160029054906101000a900473ffffffffffffffffffffffffffffffffffffffff16905090565b60045f9054906101000a900473ffffffffffffffffffffffffffffffffffffffff1673ffffffffffffffffffffffffffffffffffffffff163373ffffffffffffffffffffffffffffffffffffffff16146108a6576040517f08c379a000000000000000000000000000000000000000000000000000000000815260040161089d90612932565b60405180910390fd5b5f73ffffffffffffffffffffffffffffffffffffffff168273ffffffffffffffffffffffffffffffffffffffff1603610914576040517f08c379a000000000000000000000000000000000000000000000000000000000815260040161090b9061299a565b60405180910390fd5b5f60075403610958576040517f08c379a000000000000000000000000000000000000000000000000000000000815260040161094f90612a02565b60405180910390fd5b8173ffffffffffffffffffffffffffffffffffffffff1663c2ca0ac5826040518263ffffffff1660e01b8152600401610991919061282b565b5f604051808303815f87803b1580156109a8575f5ffd5b505af19250505080156109b9575060015b6109f8576040517f08c379a00000000000000000000000000000000000000000000000000000000081526004016109ef90612a6a565b60405180910390fd5b5f6007819055505050565b60045f9054906101000a900473ffffffffffffffffffffffffffffffffffffffff1673ffffffffffffffffffffffffffffffffffffffff163373ffffffffffffffffffffffffffffffffffffffff1614610a92576040517f08c379a0000000000000000000000000000000000000000000000000000000008152600401610a8990612932565b60405180910390fd5b8060068190555050565b60045f9054906101000a900473ffffffffffffffffffffffffffffffffffffffff1673ffffffffffffffffffffffffffffffffffffffff163373ffffffffffffffffffffffffffffffffffffffff1614610b2b576040517f08c379a0000000000000000000000000000000000000000000000000000000008152600401610b2290612932565b60405180910390fd5b60415f5410610b4257611b58600581905550610b4c565b6113886005819055505b565b60045f9054906101000a900473ffffffffffffffffffffffffffffffffffffffff1673ffffffffffffffffffffffffffffffffffffffff163373ffffffffffffffffffffffffffffffffffffffff161480610bf65750600160029054906101000a900473ffffffffffffffffffffffffffffffffffffffff1673ffffffffffffffffffffffffffffffffffffffff163373ffffffffffffffffffffffffffffffffffffffff16145b80610c065750610c053361259c565b5b610c45576040517f08c379a0000000000000000000000000000000000000000000000000000000008152600401610c3c90612ad2565b60405180910390fd5b50565b5f5f73ffffffffffffffffffffffffffffffffffffffff16600160029054906101000a900473ffffffffffffffffffffffffffffffffffffffff1673ffffffffffffffffffffffffffffffffffffffff1603610ca75760019050610d6c565b5f600160029054906101000a900473ffffffffffffffffffffffffffffffffffffffff1690503073ffffffffffffffffffffffffffffffffffffffff168173ffffffffffffffffffffffffffffffffffffffff1663108ece4d6040518163ffffffff1660e01b8152600401602060405180830381865afa158015610d2d573d5f5f3e3d5ffd5b505050506040513d601f19601f82011682018060405250810190610d519190612858565b73ffffffffffffffffffffffffffffffffffffffff16149150505b90565b600160029054906101000a900473ffffffffffffffffffffffffffffffffffffffff1673ffffffffffffffffffffffffffffffffffffffff163373ffffffffffffffffffffffffffffffffffffffff161480610df657508073ffffffffffffffffffffffffffffffffffffffff163373ffffffffffffffffffffffffffffffffffffffff16145b610e35576040517f08c379a0000000000000000000000000000000000000000000000000000000008152600401610e2c90612b3a565b60405180910390fd5b8160055f828254610e469190612b85565b925050819055505050565b60045f9054906101000a900473ffffffffffffffffffffffffffffffffffffffff1673ffffffffffffffffffffffffffffffffffffffff163373ffffffffffffffffffffffffffffffffffffffff1614610ee0576040517f08c379a0000000000000000000000000000000000000000000000000000000008152600401610ed790612932565b60405180910390fd5b5f5f815480929190610ef190612bb8565b919050555060015f9054906101000a900460ff16158015610f5f57505f73ffffffffffffffffffffffffffffffffffffffff16600160029054906101000a900473ffffffffffffffffffffffffffffffffffffffff1673ffffffffffffffffffffffffffffffffffffffff16145b15610f6d57610f6c610a9c565b5b565b8073ffffffffffffffffffffffffffffffffffffffff163373ffffffffffffffffffffffffffffffffffffffff1614610fdd576040517f08c379a0000000000000000000000000000000000000000000000000000000008152600401610fd490612c49565b60405180910390fd5b5f600160026101000a81548173ffffffffffffffffffffffffffffffffffffffff021916908373ffffffffffffffffffffffffffffffffffffffff1602179055505f60015f6101000a81548160ff02191690831515021790555061103f612641565b60058190555050565b5f6005546006541161105c575f905061106f565b60055460065461106c9190612c67565b90505b90565b5f5f61107c611048565b90506103e8838261108d9190612c9a565b6110979190612d08565b915050919050565b60045f9054906101000a900473ffffffffffffffffffffffffffffffffffffffff1673ffffffffffffffffffffffffffffffffffffffff163373ffffffffffffffffffffffffffffffffffffffff161461112e576040517f08c379a000000000000000000000000000000000000000000000000000000000815260040161112590612932565b60405180910390fd5b5f73ffffffffffffffffffffffffffffffffffffffff168273ffffffffffffffffffffffffffffffffffffffff160361119c576040517f08c379a00000000000000000000000000000000000000000000000000000000081526004016111939061299a565b60405180910390fd5b5f8273ffffffffffffffffffffffffffffffffffffffff163b116111f5576040517f08c379a00000000000000000000000000000000000000000000000000000000081526004016111ec90612d82565b60405180910390fd5b8173ffffffffffffffffffffffffffffffffffffffff1663f14fcbc882604051602001611222919061282b565b604051602081830303815290604052805190602001206040518263ffffffff1660e01b81526004016112549190612db8565b5f604051808303815f87803b15801561126b575f5ffd5b505af192505050801561127c575060015b6112bb576040517f08c379a00000000000000000000000000000000000000000000000000000000081526004016112b290612e1b565b60405180910390fd5b806007819055505050565b5f7f000000000000000000000000000000000000000000000000000000000000000073ffffffffffffffffffffffffffffffffffffffff1660045f9054906101000a900473ffffffffffffffffffffffffffffffffffffffff1673ffffffffffffffffffffffffffffffffffffffff1614905090565b80600160026101000a81548173ffffffffffffffffffffffffffffffffffffffff021916908373ffffffffffffffffffffffffffffffffffffffff16021790555050565b5f611389612641565b905090565b5f60018054906101000a900460ff16905090565b60045f9054906101000a900473ffffffffffffffffffffffffffffffffffffffff1673ffffffffffffffffffffffffffffffffffffffff163373ffffffffffffffffffffffffffffffffffffffff1614611431576040517f08c379a000000000000000000000000000000000000000000000000000000000815260040161142890612932565b60405180910390fd5b5f73ffffffffffffffffffffffffffffffffffffffff16600160029054906101000a900473ffffffffffffffffffffffffffffffffffffffff1673ffffffffffffffffffffffffffffffffffffffff16036114c1576040517f08c379a00000000000000000000000000000000000000000000000000000000081526004016114b890612e83565b60405180910390fd5b5f8111611503576040517f08c379a00000000000000000000000000000000000000000000000000000000081526004016114fa90612eeb565b60405180910390fd5b600554811115611548576040517f08c379a000000000000000000000000000000000000000000000000000000000815260040161153f90612f53565b60405180910390fd5b8060055f8282546115599190612c67565b92505081905550600160029054906101000a900473ffffffffffffffffffffffffffffffffffffffff1673ffffffffffffffffffffffffffffffffffffffff1663308f838a82306040518363ffffffff1660e01b81526004016115bd929190612f71565b5f604051808303815f87803b1580156115d4575f5ffd5b505af19250505080156115e5575060015b611624576040517f08c379a000000000000000000000000000000000000000000000000000000000815260040161161b90612fe2565b60405180910390fd5b50565b5f7f0000000000000000000000000000000000000000000000000000000000000000905090565b5f5f60075403611661576001905061176d565b5f73ffffffffffffffffffffffffffffffffffffffff168273ffffffffffffffffffffffffffffffffffffffff1614806116b157505f8273ffffffffffffffffffffffffffffffffffffffff163b145b156116bf576001905061176d565b8173ffffffffffffffffffffffffffffffffffffffff16637b43a8e6306040518263ffffffff1660e01b81526004016116f891906126d0565b602060405180830381865afa92505050801561173257506040513d601f19601f8201168201806040525081019061172f919061302a565b60015b61173e575f905061176d565b600754604051602001611751919061282b565b6040516020818303038152906040528051906020012081149150505b919050565b5f60015f9054906101000a900460ff16905090565b60045f9054906101000a900473ffffffffffffffffffffffffffffffffffffffff1681565b5f5f54905090565b5f600554600654116117d3575f6117cb60c8611072565b1490506117d8565b600190505b90565b5f5f73ffffffffffffffffffffffffffffffffffffffff16600160029054906101000a900473ffffffffffffffffffffffffffffffffffffffff1673ffffffffffffffffffffffffffffffffffffffff16141580611844575060015f9054906101000a900460ff165b156118525760019050611861565b61185a612641565b6005541490505b90565b60045f9054906101000a900473ffffffffffffffffffffffffffffffffffffffff1673ffffffffffffffffffffffffffffffffffffffff163373ffffffffffffffffffffffffffffffffffffffff16146118f3576040517f08c379a00000000000000000000000000000000000000000000000000000000081526004016118ea90612932565b60405180910390fd5b60015f9054906101000a900460ff1615611942576040517f08c379a00000000000000000000000000000000000000000000000000000000081526004016119399061309f565b60405180910390fd5b5f73ffffffffffffffffffffffffffffffffffffffff168173ffffffffffffffffffffffffffffffffffffffff16036119b0576040517f08c379a00000000000000000000000000000000000000000000000000000000081526004016119a790613107565b60405180910390fd5b3073ffffffffffffffffffffffffffffffffffffffff168173ffffffffffffffffffffffffffffffffffffffff1603611a1e576040517f08c379a0000000000000000000000000000000000000000000000000000000008152600401611a159061316f565b60405180910390fd5b60045f9054906101000a900473ffffffffffffffffffffffffffffffffffffffff1673ffffffffffffffffffffffffffffffffffffffff168173ffffffffffffffffffffffffffffffffffffffff1603611aad576040517f08c379a0000000000000000000000000000000000000000000000000000000008152600401611aa4906131d7565b60405180910390fd5b5f8173ffffffffffffffffffffffffffffffffffffffff163b11611b06576040517f08c379a0000000000000000000000000000000000000000000000000000000008152600401611afd9061323f565b60405180910390fd5b5f8173ffffffffffffffffffffffffffffffffffffffff16638bc877456040518163ffffffff1660e01b8152600401602060405180830381865afa925050508015611b6f57506040513d601f19601f82011682018060405250810190611b6c91906128ad565b60015b611bae576040517f08c379a0000000000000000000000000000000000000000000000000000000008152600401611ba5906132a7565b60405180910390fd5b809150508015611bf3576040517f08c379a0000000000000000000000000000000000000000000000000000000008152600401611bea9061330f565b60405180910390fd5b81600160026101000a81548173ffffffffffffffffffffffffffffffffffffffff021916908373ffffffffffffffffffffffffffffffffffffffff1602179055506001805f6101000a81548160ff021916908315150217905550611c55612641565b600581905550600160029054906101000a900473ffffffffffffffffffffffffffffffffffffffff1673ffffffffffffffffffffffffffffffffffffffff1663cb01a92b306040518263ffffffff1660e01b8152600401611cb691906126d0565b5f604051808303815f87803b158015611ccd575f5ffd5b505af1925050508015611cde575060015b611d77575f600160026101000a81548173ffffffffffffffffffffffffffffffffffffffff021916908373ffffffffffffffffffffffffffffffffffffffff1602179055505f60015f6101000a81548160ff0219169083151502179055506040517f08c379a0000000000000000000000000000000000000000000000000000000008152600401611d6e90613377565b60405180910390fd5b8173ffffffffffffffffffffffffffffffffffffffff166325803d648373ffffffffffffffffffffffffffffffffffffffff1663594db7536040518163ffffffff1660e01b8152600401602060405180830381865afa158015611ddc573d5f5f3e3d5ffd5b505050506040513d601f19601f82011682018060405250810190611e0091906133a9565b6040518263ffffffff1660e01b8152600401611e1c919061282b565b5f604051808303815f87803b158015611e33575f5ffd5b505af1925050508015611e44575060015b611edd575f600160026101000a81548173ffffffffffffffffffffffffffffffffffffffff021916908373ffffffffffffffffffffffffffffffffffffffff1602179055505f60015f6101000a81548160ff0219169083151502179055506040517f08c379a0000000000000000000000000000000000000000000000000000000008152600401611ed49061341e565b60405180910390fd5b5050565b5f600554905090565b5f5f611ef4611048565b1015905090565b8073ffffffffffffffffffffffffffffffffffffffff163373ffffffffffffffffffffffffffffffffffffffff1614611f69576040517f08c379a0000000000000000000000000000000000000000000000000000000008152600401611f6090613486565b60405180910390fd5b611f728161133c565b6001805f6101000a81548160ff02191690831515021790555050565b600160029054906101000a900473ffffffffffffffffffffffffffffffffffffffff1673ffffffffffffffffffffffffffffffffffffffff163373ffffffffffffffffffffffffffffffffffffffff161461201e576040517f08c379a0000000000000000000000000000000000000000000000000000000008152600401612015906134ee565b60405180910390fd5b8060058190555050565b5f60015f9054906101000a900460ff16158061209157505f73ffffffffffffffffffffffffffffffffffffffff16600160029054906101000a900473ffffffffffffffffffffffffffffffffffffffff1673ffffffffffffffffffffffffffffffffffffffff16145b1561209f57600190506122be565b5f60055490505f600160029054906101000a900473ffffffffffffffffffffffffffffffffffffffff1690505f5f5f8373ffffffffffffffffffffffffffffffffffffffff1663c043decc6040518163ffffffff1660e01b8152600401602060405180830381865afa92505050801561213657506040513d601f19601f8201168201806040525081019061213391906133a9565b60015b612147575f955050505050506122be565b809350508373ffffffffffffffffffffffffffffffffffffffff16636aa393f86040518163ffffffff1660e01b8152600401602060405180830381865afa9250505080156121b357506040513d601f19601f820116820180604052508101906121b091906133a9565b60015b6121c4575f955050505050506122be565b809250508373ffffffffffffffffffffffffffffffffffffffff1663594db7536040518163ffffffff1660e01b8152600401602060405180830381865afa92505050801561223057506040513d601f19601f8201168201806040525081019061222d91906133a9565b60015b612241575f955050505050506122be565b809150505f61224e612641565b90505f837f000000000000000000000000000000000000000000000000000000000000000061227d9190612b85565b85886122899190612b85565b1490505f83836122999190612b85565b86896122a59190612b85565b111590508180156122b35750805b985050505050505050505b90565b5f3073ffffffffffffffffffffffffffffffffffffffff16600160029054906101000a900473ffffffffffffffffffffffffffffffffffffffff1673ffffffffffffffffffffffffffffffffffffffff161415905090565b60045f9054906101000a900473ffffffffffffffffffffffffffffffffffffffff1673ffffffffffffffffffffffffffffffffffffffff163373ffffffffffffffffffffffffffffffffffffffff16146123a8576040517f08c379a000000000000000000000000000000000000000000000000000000000815260040161239f90612932565b60405180910390fd5b60015f9054906101000a900460ff166123f6576040517f08c379a00000000000000000000000000000000000000000000000000000000081526004016123ed90613556565b60405180910390fd5b5f600160029054906101000a900473ffffffffffffffffffffffffffffffffffffffff1690505f600160026101000a81548173ffffffffffffffffffffffffffffffffffffffff021916908373ffffffffffffffffffffffffffffffffffffffff1602179055505f60015f6101000a81548160ff02191690831515021790555061247e612641565b6005819055505f73ffffffffffffffffffffffffffffffffffffffff168173ffffffffffffffffffffffffffffffffffffffff16141580156124d657505f8173ffffffffffffffffffffffffffffffffffffffff163b115b1561257c578073ffffffffffffffffffffffffffffffffffffffff166338fb27ba306040518263ffffffff1660e01b815260040161251491906126d0565b5f604051808303815f87803b15801561252b575f5ffd5b505af192505050801561253c575060015b61257b576040517f08c379a0000000000000000000000000000000000000000000000000000000008152600401612572906135be565b60405180910390fd5b5b50565b5f600654905090565b5f60018054906101000a900460ff16905090565b5f5f8273ffffffffffffffffffffffffffffffffffffffff163b036125c3575f905061263c565b8173ffffffffffffffffffffffffffffffffffffffff1663f7ec2f356040518163ffffffff1660e01b8152600401602060405180830381865afa92505050801561262b57506040513d601f19601f8201168201806040525081019061262891906128ad565b60015b612637575f905061263c565b809150505b919050565b5f60415f541061265557611b58905061265b565b61138890505b90565b5f8115159050919050565b6126728161265e565b82525050565b5f60208201905061268b5f830184612669565b92915050565b5f73ffffffffffffffffffffffffffffffffffffffff82169050919050565b5f6126ba82612691565b9050919050565b6126ca816126b0565b82525050565b5f6020820190506126e35f8301846126c1565b92915050565b5f5ffd5b6126f6816126b0565b8114612700575f5ffd5b50565b5f81359050612711816126ed565b92915050565b5f819050919050565b61272981612717565b8114612733575f5ffd5b50565b5f8135905061274481612720565b92915050565b5f5f604083850312156127605761275f6126e9565b5b5f61276d85828601612703565b925050602061277e85828601612736565b9150509250929050565b5f6020828403121561279d5761279c6126e9565b5b5f6127aa84828501612736565b91505092915050565b5f5f604083850312156127c9576127c86126e9565b5b5f6127d685828601612736565b92505060206127e785828601612703565b9150509250929050565b5f60208284031215612806576128056126e9565b5b5f61281384828501612703565b91505092915050565b61282581612717565b82525050565b5f60208201905061283e5f83018461281c565b92915050565b5f81519050612852816126ed565b92915050565b5f6020828403121561286d5761286c6126e9565b5b5f61287a84828501612844565b91505092915050565b61288c8161265e565b8114612896575f5ffd5b50565b5f815190506128a781612883565b92915050565b5f602082840312156128c2576128c16126e9565b5b5f6128cf84828501612899565b91505092915050565b5f82825260208201905092915050565b7f4f6e6c79206f776e6572000000000000000000000000000000000000000000005f82015250565b5f61291c600a836128d8565b9150612927826128e8565b602082019050919050565b5f6020820190508181035f83015261294981612910565b9050919050565b7f496e76616c6964206c6f740000000000000000000000000000000000000000005f82015250565b5f612984600b836128d8565b915061298f82612950565b602082019050919050565b5f6020820190508181035f8301526129b181612978565b9050919050565b7f4e6f20636f6d6d69747465642072657665616c000000000000000000000000005f82015250565b5f6129ec6013836128d8565b91506129f7826129b8565b602082019050919050565b5f6020820190508181035f830152612a19816129e0565b9050919050565b7f4c6f74746572792072657665616c206661696c656400000000000000000000005f82015250565b5f612a546015836128d8565b9150612a5f82612a20565b602082019050919050565b5f6020820190508181035f830152612a8181612a48565b9050919050565b7f4e6f7420617574686f72697a656420746f2073657420616c6c6f77616e6365005f82015250565b5f612abc601f836128d8565b9150612ac782612a88565b602082019050919050565b5f6020820190508181035f830152612ae981612ab0565b9050919050565b7f4f6e6c792073706f757365206f72206f726967696e00000000000000000000005f82015250565b5f612b246015836128d8565b9150612b2f82612af0565b602082019050919050565b5f6020820190508181035f830152612b5181612b18565b9050919050565b7f4e487b71000000000000000000000000000000000000000000000000000000005f52601160045260245ffd5b5f612b8f82612717565b9150612b9a83612717565b9250828201905080821115612bb257612bb1612b58565b5b92915050565b5f612bc282612717565b91507fffffffffffffffffffffffffffffffffffffffffffffffffffffffffffffffff8203612bf457612bf3612b58565b5b600182019050919050565b7f4f6e6c7920706172746e65722063616e206e6f746966790000000000000000005f82015250565b5f612c336017836128d8565b9150612c3e82612bff565b602082019050919050565b5f6020820190508181035f830152612c6081612c27565b9050919050565b5f612c7182612717565b9150612c7c83612717565b9250828203905081811115612c9457612c93612b58565b5b92915050565b5f612ca482612717565b9150612caf83612717565b9250828202612cbd81612717565b91508282048414831517612cd457612cd3612b58565b5b5092915050565b7f4e487b71000000000000000000000000000000000000000000000000000000005f52601260045260245ffd5b5f612d1282612717565b9150612d1d83612717565b925082612d2d57612d2c612cdb565b5b828204905092915050565b7f4e6f74206120636f6e74726163740000000000000000000000000000000000005f82015250565b5f612d6c600e836128d8565b9150612d7782612d38565b602082019050919050565b5f6020820190508181035f830152612d9981612d60565b9050919050565b5f819050919050565b612db281612da0565b82525050565b5f602082019050612dcb5f830184612da9565b92915050565b7f4c6f747465727920636f6d6d6974206661696c656400000000000000000000005f82015250565b5f612e056015836128d8565b9150612e1082612dd1565b602082019050919050565b5f6020820190508181035f830152612e3281612df9565b9050919050565b7f4e6f2073706f75736500000000000000000000000000000000000000000000005f82015250565b5f612e6d6009836128d8565b9150612e7882612e39565b602082019050919050565b5f6020820190508181035f830152612e9a81612e61565b9050919050565b7f5a65726f206368616e67650000000000000000000000000000000000000000005f82015250565b5f612ed5600b836128d8565b9150612ee082612ea1565b602082019050919050565b5f6020820190508181035f830152612f0281612ec9565b9050919050565b7f4e6f7420656e6f75676820616c6c6f77616e63650000000000000000000000005f82015250565b5f612f3d6014836128d8565b9150612f4882612f09565b602082019050919050565b5f6020820190508181035f830152612f6a81612f31565b9050919050565b5f604082019050612f845f83018561281c565b612f9160208301846126c1565b9392505050565b7f4661696c656420746f207472616e736665722073706f757365000000000000005f82015250565b5f612fcc6019836128d8565b9150612fd782612f98565b602082019050919050565b5f6020820190508181035f830152612ff981612fc0565b9050919050565b61300981612da0565b8114613013575f5ffd5b50565b5f8151905061302481613000565b92915050565b5f6020828403121561303f5761303e6126e9565b5b5f61304c84828501613016565b91505092915050565b7f4920616d20616c7265616479206d6172726965640000000000000000000000005f82015250565b5f6130896014836128d8565b915061309482613055565b602082019050919050565b5f6020820190508181035f8301526130b68161307d565b9050919050565b7f53706f7573652063616e6e6f74206265207a65726f20616464726573730000005f82015250565b5f6130f1601d836128d8565b91506130fc826130bd565b602082019050919050565b5f6020820190508181035f83015261311e816130e5565b9050919050565b7f43616e6e6f74206d61727279206d7973656c66000000000000000000000000005f82015250565b5f6131596013836128d8565b915061316482613125565b602082019050919050565b5f6020820190508181035f8301526131868161314d565b9050919050565b7f43616e6e6f74206d61727279206f776e65723f000000000000000000000000005f82015250565b5f6131c16013836128d8565b91506131cc8261318d565b602082019050919050565b5f6020820190508181035f8301526131ee816131b5565b9050919050565b7f53706f757365206d757374206265206120636f6e7472616374000000000000005f82015250565b5f6132296019836128d8565b9150613234826131f5565b602082019050919050565b5f6020820190508181035f8301526132568161321d565b9050919050565b7f53706f757365206e6f7420636f6d70617469626c6500000000000000000000005f82015250565b5f6132916015836128d8565b915061329c8261325d565b602082019050919050565b5f6020820190508181035f8301526132be81613285565b9050919050565b7f53706f75736520616c7265616479206d617272696564000000000000000000005f82015250565b5f6132f96016836128d8565b9150613304826132c5565b602082019050919050565b5f6020820190508181035f830152613326816132ed565b9050919050565b7f4661696c656420746f2075706461746520706172746e657200000000000000005f82015250565b5f6133616018836128d8565b915061336c8261332d565b602082019050919050565b5f6020820190508181035f83015261338e81613355565b9050919050565b5f815190506133a381612720565b92915050565b5f602082840312156133be576133bd6126e9565b5b5f6133cb84828501613395565b91505092915050565b7f4661696c656420746f2073657420706172746e657220616c6c6f77616e6365005f82015250565b5f613408601f836128d8565b9150613413826133d4565b602082019050919050565b5f6020820190508181035f830152613435816133fc565b9050919050565b7f4f6e6c7920706172746e65722063616e2063616c6c20746869730000000000005f82015250565b5f613470601a836128d8565b915061347b8261343c565b602082019050919050565b5f6020820190508181035f83015261349d81613464565b9050919050565b7f4f6e6c792073706f7573652063616e20736574000000000000000000000000005f82015250565b5f6134d86013836128d8565b91506134e3826134a4565b602082019050919050565b5f6020820190508181035f830152613505816134cc565b9050919050565b7f4e6f74206d6172726965640000000000000000000000000000000000000000005f82015250565b5f613540600b836128d8565b915061354b8261350c565b602082019050919050565b5f6020820190508181035f83015261356d81613534565b9050919050565b7f4661696c656420746f206e6f7469667920706172746e657200000000000000005f82015250565b5f6135a86018836128d8565b91506135b382613574565b602082019050919050565b5f6020820190508181035f8301526135d58161359c565b905091905056fea2646970667358221220e83be6d41df69c308f82e615e5d471c4be8eb8c9a819f00e39129ff231702aa664736f6c634300081e0033",
					"opcodes": "PUSH1 0xC0 PUSH1 0x40 MSTORE CALLVALUE DUP1 ISZERO PUSH2 0xF JUMPI PUSH0 PUSH0 REVERT JUMPDEST POP PUSH1 0x40 MLOAD PUSH2 0x3896 CODESIZE SUB DUP1 PUSH2 0x3896 DUP4 CODECOPY DUP2 DUP2 ADD PUSH1 0x40 MSTORE DUP2 ADD SWAP1 PUSH2 0x31 SWAP2 SWAP1 PUSH2 0x21E JUMP JUMPDEST PUSH0 PUSH0 DUP2 SWAP1 SSTORE POP PUSH0 PUSH1 0x1 PUSH0 PUSH2 0x100 EXP DUP2 SLOAD DUP2 PUSH1 0xFF MUL NOT AND SWAP1 DUP4 ISZERO ISZERO MUL OR SWAP1 SSTORE POP DUP2 PUSH1 0x2 PUSH0 PUSH2 0x100 EXP DUP2 SLOAD DUP2 PUSH20 0xFFFFFFFFFFFFFFFFFFFFFFFFFFFFFFFFFFFFFFFF MUL NOT AND SWAP1 DUP4 PUSH20 0xFFFFFFFFFFFFFFFFFFFFFFFFFFFFFFFFFFFFFFFF AND MUL OR SWAP1 SSTORE POP DUP1 PUSH1 0x3 PUSH0 PUSH2 0x100 EXP DUP2 SLOAD DUP2 PUSH20 0xFFFFFFFFFFFFFFFFFFFFFFFFFFFFFFFFFFFFFFFF MUL NOT AND SWAP1 DUP4 PUSH20 0xFFFFFFFFFFFFFFFFFFFFFFFFFFFFFFFFFFFFFFFF AND MUL OR SWAP1 SSTORE POP CALLER PUSH1 0x4 PUSH0 PUSH2 0x100 EXP DUP2 SLOAD DUP2 PUSH20 0xFFFFFFFFFFFFFFFFFFFFFFFFFFFFFFFFFFFFFFFF MUL NOT AND SWAP1 DUP4 PUSH20 0xFFFFFFFFFFFFFFFFFFFFFFFFFFFFFFFFFFFFFFFF AND MUL OR SWAP1 SSTORE POP CALLER PUSH20 0xFFFFFFFFFFFFFFFFFFFFFFFFFFFFFFFFFFFFFFFF AND PUSH1 0x80 DUP2 PUSH20 0xFFFFFFFFFFFFFFFFFFFFFFFFFFFFFFFFFFFFFFFF AND DUP2 MSTORE POP POP PUSH2 0x1388 PUSH1 0xA0 DUP2 DUP2 MSTORE POP POP PUSH0 PUSH1 0x1 PUSH1 0x2 PUSH2 0x100 EXP DUP2 SLOAD DUP2 PUSH20 0xFFFFFFFFFFFFFFFFFFFFFFFFFFFFFFFFFFFFFFFF MUL NOT AND SWAP1 DUP4 PUSH20 0xFFFFFFFFFFFFFFFFFFFFFFFFFFFFFFFFFFFFFFFF AND MUL OR SWAP1 SSTORE POP PUSH0 PUSH1 0x6 DUP2 SWAP1 SSTORE POP PUSH1 0xA0 MLOAD PUSH1 0x5 DUP2 SWAP1 SSTORE POP PUSH1 0x1 DUP1 PUSH1 0x1 PUSH2 0x100 EXP DUP2 SLOAD DUP2 PUSH1 0xFF MUL NOT AND SWAP1 DUP4 ISZERO ISZERO MUL OR SWAP1 SSTORE POP POP POP PUSH2 0x25C JUMP JUMPDEST PUSH0 PUSH0 REVERT JUMPDEST PUSH0 PUSH20 0xFFFFFFFFFFFFFFFFFFFFFFFFFFFFFFFFFFFFFFFF DUP3 AND SWAP1 POP SWAP2 SWAP1 POP JUMP JUMPDEST PUSH0 PUSH2 0x1ED DUP3 PUSH2 0x1C4 JUMP JUMPDEST SWAP1 POP SWAP2 SWAP1 POP JUMP JUMPDEST PUSH2 0x1FD DUP2 PUSH2 0x1E3 JUMP JUMPDEST DUP2 EQ PUSH2 0x207 JUMPI PUSH0 PUSH0 REVERT JUMPDEST POP JUMP JUMPDEST PUSH0 DUP2 MLOAD SWAP1 POP PUSH2 0x218 DUP2 PUSH2 0x1F4 JUMP JUMPDEST SWAP3 SWAP2 POP POP JUMP JUMPDEST PUSH0 PUSH0 PUSH1 0x40 DUP4 DUP6 SUB SLT ISZERO PUSH2 0x234 JUMPI PUSH2 0x233 PUSH2 0x1C0 JUMP JUMPDEST JUMPDEST PUSH0 PUSH2 0x241 DUP6 DUP3 DUP7 ADD PUSH2 0x20A JUMP JUMPDEST SWAP3 POP POP PUSH1 0x20 PUSH2 0x252 DUP6 DUP3 DUP7 ADD PUSH2 0x20A JUMP JUMPDEST SWAP2 POP POP SWAP3 POP SWAP3 SWAP1 POP JUMP JUMPDEST PUSH1 0x80 MLOAD PUSH1 0xA0 MLOAD PUSH2 0x3612 PUSH2 0x284 PUSH0 CODECOPY PUSH0 DUP2 DUP2 PUSH2 0x162A ADD MSTORE PUSH2 0x2254 ADD MSTORE PUSH0 PUSH2 0x12C9 ADD MSTORE PUSH2 0x3612 PUSH0 RETURN INVALID PUSH1 0x80 PUSH1 0x40 MSTORE CALLVALUE DUP1 ISZERO PUSH2 0xF JUMPI PUSH0 PUSH0 REVERT JUMPDEST POP PUSH1 0x4 CALLDATASIZE LT PUSH2 0x20F JUMPI PUSH0 CALLDATALOAD PUSH1 0xE0 SHR DUP1 PUSH4 0x5F68C439 GT PUSH2 0x123 JUMPI DUP1 PUSH4 0xC043DECC GT PUSH2 0xAB JUMPI DUP1 PUSH4 0xD852545E GT PUSH2 0x7A JUMPI DUP1 PUSH4 0xD852545E EQ PUSH2 0x57D JUMPI DUP1 PUSH4 0xDFB986A2 EQ PUSH2 0x59B JUMPI DUP1 PUSH4 0xDFF44B2F EQ PUSH2 0x5B9 JUMPI DUP1 PUSH4 0xF247E3DE EQ PUSH2 0x5C3 JUMPI DUP1 PUSH4 0xF7EC2F35 EQ PUSH2 0x5E1 JUMPI PUSH2 0x20F JUMP JUMPDEST DUP1 PUSH4 0xC043DECC EQ PUSH2 0x509 JUMPI DUP1 PUSH4 0xC800409F EQ PUSH2 0x527 JUMPI DUP1 PUSH4 0xCB01A92B EQ PUSH2 0x545 JUMPI DUP1 PUSH4 0xD25D32B6 EQ PUSH2 0x561 JUMPI PUSH2 0x20F JUMP JUMPDEST DUP1 PUSH4 0x8DA5CB5B GT PUSH2 0xF2 JUMPI DUP1 PUSH4 0x8DA5CB5B EQ PUSH2 0x475 JUMPI DUP1 PUSH4 0x967E6E65 EQ PUSH2 0x493 JUMPI DUP1 PUSH4 0xA2F1309E EQ PUSH2 0x4B1 JUMPI DUP1 PUSH4 0xAE81F068 EQ PUSH2 0x4CF JUMPI DUP1 PUSH4 0xBCCB358E EQ PUSH2 0x4ED JUMPI PUSH2 0x20F JUMP JUMPDEST DUP1 PUSH4 0x5F68C439 EQ PUSH2 0x3ED JUMPI DUP1 PUSH4 0x6AA393F8 EQ PUSH2 0x409 JUMPI DUP1 PUSH4 0x790AA8DE EQ PUSH2 0x427 JUMPI DUP1 PUSH4 0x8BC87745 EQ PUSH2 0x457 JUMPI PUSH2 0x20F JUMP JUMPDEST DUP1 PUSH4 0x37F65B79 GT PUSH2 0x1A6 JUMPI DUP1 PUSH4 0x4AD8A7AE GT PUSH2 0x175 JUMPI DUP1 PUSH4 0x4AD8A7AE EQ PUSH2 0x35B JUMPI DUP1 PUSH4 0x4BC96425 EQ PUSH2 0x377 JUMPI DUP1 PUSH4 0x4F0B03F9 EQ PUSH2 0x395 JUMPI DUP1 PUSH4 0x594DB753 EQ PUSH2 0x3B1 JUMPI DUP1 PUSH4 0x5976D63B EQ PUSH2 0x3CF JUMPI PUSH2 0x20F JUMP JUMPDEST DUP1 PUSH4 0x37F65B79 EQ PUSH2 0x2E7 JUMPI DUP1 PUSH4 0x38FB27BA EQ PUSH2 0x2F1 JUMPI DUP1 PUSH4 0x3C876C25 EQ PUSH2 0x30D JUMPI DUP1 PUSH4 0x483A9310 EQ PUSH2 0x32B JUMPI PUSH2 0x20F JUMP JUMPDEST DUP1 PUSH4 0x1704031E GT PUSH2 0x1E2 JUMPI DUP1 PUSH4 0x1704031E EQ PUSH2 0x287 JUMPI DUP1 PUSH4 0x25803D64 EQ PUSH2 0x291 JUMPI DUP1 PUSH4 0x27A80E0D EQ PUSH2 0x2AD JUMPI DUP1 PUSH4 0x308F838A EQ PUSH2 0x2CB JUMPI PUSH2 0x20F JUMP JUMPDEST DUP1 PUSH4 0x10731C65 EQ PUSH2 0x213 JUMPI DUP1 PUSH4 0x108ECE4D EQ PUSH2 0x231 JUMPI DUP1 PUSH4 0x13461762 EQ PUSH2 0x24F JUMPI DUP1 PUSH4 0x14B95631 EQ PUSH2 0x26B JUMPI JUMPDEST PUSH0 PUSH0 REVERT JUMPDEST PUSH2 0x21B PUSH2 0x5FF JUMP JUMPDEST PUSH1 0x40 MLOAD PUSH2 0x228 SWAP2 SWAP1 PUSH2 0x2678 JUMP JUMPDEST PUSH1 0x40 MLOAD DUP1 SWAP2 SUB SWAP1 RETURN JUMPDEST PUSH2 0x239 PUSH2 0x7EE JUMP JUMPDEST PUSH1 0x40 MLOAD PUSH2 0x246 SWAP2 SWAP1 PUSH2 0x26D0 JUMP JUMPDEST PUSH1 0x40 MLOAD DUP1 SWAP2 SUB SWAP1 RETURN JUMPDEST PUSH2 0x269 PUSH1 0x4 DUP1 CALLDATASIZE SUB DUP2 ADD SWAP1 PUSH2 0x264 SWAP2 SWAP1 PUSH2 0x274A JUMP JUMPDEST PUSH2 0x817 JUMP JUMPDEST STOP JUMPDEST PUSH2 0x285 PUSH1 0x4 DUP1 CALLDATASIZE SUB DUP2 ADD SWAP1 PUSH2 0x280 SWAP2 SWAP1 PUSH2 0x2788 JUMP JUMPDEST PUSH2 0xA03 JUMP JUMPDEST STOP JUMPDEST PUSH2 0x28F PUSH2 0xA9C JUMP JUMPDEST STOP JUMPDEST PUSH2 0x2AB PUSH1 0x4 DUP1 CALLDATASIZE SUB DUP2 ADD SWAP1 PUSH2 0x2A6 SWAP2 SWAP1 PUSH2 0x2788 JUMP JUMPDEST PUSH2 0xB4E JUMP JUMPDEST STOP JUMPDEST PUSH2 0x2B5 PUSH2 0xC48 JUMP JUMPDEST PUSH1 0x40 MLOAD PUSH2 0x2C2 SWAP2 SWAP1 PUSH2 0x2678 JUMP JUMPDEST PUSH1 0x40 MLOAD DUP1 SWAP2 SUB SWAP1 RETURN JUMPDEST PUSH2 0x2E5 PUSH1 0x4 DUP1 CALLDATASIZE SUB DUP2 ADD SWAP1 PUSH2 0x2E0 SWAP2 SWAP1 PUSH2 0x27B3 JUMP JUMPDEST PUSH2 0xD6F JUMP JUMPDEST STOP JUMPDEST PUSH2 0x2EF PUSH2 0xE51 JUMP JUMPDEST STOP JUMPDEST PUSH2 0x30B PUSH1 0x4 DUP1 CALLDATASIZE SUB DUP2 ADD SWAP1 PUSH2 0x306 SWAP2 SWAP1 PUSH2 0x27F1 JUMP JUMPDEST PUSH2 0xF6F JUMP JUMPDEST STOP JUMPDEST PUSH2 0x315 PUSH2 0x1048 JUMP JUMPDEST PUSH1 0x40 MLOAD PUSH2 0x322 SWAP2 SWAP1 PUSH2 0x282B JUMP JUMPDEST PUSH1 0x40 MLOAD DUP1 SWAP2 SUB SWAP1 RETURN JUMPDEST PUSH2 0x345 PUSH1 0x4 DUP1 CALLDATASIZE SUB DUP2 ADD SWAP1 PUSH2 0x340 SWAP2 SWAP1 PUSH2 0x2788 JUMP JUMPDEST PUSH2 0x1072 JUMP JUMPDEST PUSH1 0x40 MLOAD PUSH2 0x352 SWAP2 SWAP1 PUSH2 0x282B JUMP JUMPDEST PUSH1 0x40 MLOAD DUP1 SWAP2 SUB SWAP1 RETURN JUMPDEST PUSH2 0x375 PUSH1 0x4 DUP1 CALLDATASIZE SUB DUP2 ADD SWAP1 PUSH2 0x370 SWAP2 SWAP1 PUSH2 0x274A JUMP JUMPDEST PUSH2 0x109F JUMP JUMPDEST STOP JUMPDEST PUSH2 0x37F PUSH2 0x12C6 JUMP JUMPDEST PUSH1 0x40 MLOAD PUSH2 0x38C SWAP2 SWAP1 PUSH2 0x2678 JUMP JUMPDEST PUSH1 0x40 MLOAD DUP1 SWAP2 SUB SWAP1 RETURN JUMPDEST PUSH2 0x3AF PUSH1 0x4 DUP1 CALLDATASIZE SUB DUP2 ADD SWAP1 PUSH2 0x3AA SWAP2 SWAP1 PUSH2 0x27F1 JUMP JUMPDEST PUSH2 0x133C JUMP JUMPDEST STOP JUMPDEST PUSH2 0x3B9 PUSH2 0x1380 JUMP JUMPDEST PUSH1 0x40 MLOAD PUSH2 0x3C6 SWAP2 SWAP1 PUSH2 0x282B JUMP JUMPDEST PUSH1 0x40 MLOAD DUP1 SWAP2 SUB SWAP1 RETURN JUMPDEST PUSH2 0x3D7 PUSH2 0x138E JUMP JUMPDEST PUSH1 0x40 MLOAD PUSH2 0x3E4 SWAP2 SWAP1 PUSH2 0x2678 JUMP JUMPDEST PUSH1 0x40 MLOAD DUP1 SWAP2 SUB SWAP1 RETURN JUMPDEST PUSH2 0x407 PUSH1 0x4 DUP1 CALLDATASIZE SUB DUP2 ADD SWAP1 PUSH2 0x402 SWAP2 SWAP1 PUSH2 0x2788 JUMP JUMPDEST PUSH2 0x13A2 JUMP JUMPDEST STOP JUMPDEST PUSH2 0x411 PUSH2 0x1627 JUMP JUMPDEST PUSH1 0x40 MLOAD PUSH2 0x41E SWAP2 SWAP1 PUSH2 0x282B JUMP JUMPDEST PUSH1 0x40 MLOAD DUP1 SWAP2 SUB SWAP1 RETURN JUMPDEST PUSH2 0x441 PUSH1 0x4 DUP1 CALLDATASIZE SUB DUP2 ADD SWAP1 PUSH2 0x43C SWAP2 SWAP1 PUSH2 0x27F1 JUMP JUMPDEST PUSH2 0x164E JUMP JUMPDEST PUSH1 0x40 MLOAD PUSH2 0x44E SWAP2 SWAP1 PUSH2 0x2678 JUMP JUMPDEST PUSH1 0x40 MLOAD DUP1 SWAP2 SUB SWAP1 RETURN JUMPDEST PUSH2 0x45F PUSH2 0x1772 JUMP JUMPDEST PUSH1 0x40 MLOAD PUSH2 0x46C SWAP2 SWAP1 PUSH2 0x2678 JUMP JUMPDEST PUSH1 0x40 MLOAD DUP1 SWAP2 SUB SWAP1 RETURN JUMPDEST PUSH2 0x47D PUSH2 0x1787 JUMP JUMPDEST PUSH1 0x40 MLOAD PUSH2 0x48A SWAP2 SWAP1 PUSH2 0x26D0 JUMP JUMPDEST PUSH1 0x40 MLOAD DUP1 SWAP2 SUB SWAP1 RETURN JUMPDEST PUSH2 0x49B PUSH2 0x17AC JUMP JUMPDEST PUSH1 0x40 MLOAD PUSH2 0x4A8 SWAP2 SWAP1 PUSH2 0x282B JUMP JUMPDEST PUSH1 0x40 MLOAD DUP1 SWAP2 SUB SWAP1 RETURN JUMPDEST PUSH2 0x4B9 PUSH2 0x17B4 JUMP JUMPDEST PUSH1 0x40 MLOAD PUSH2 0x4C6 SWAP2 SWAP1 PUSH2 0x2678 JUMP JUMPDEST PUSH1 0x40 MLOAD DUP1 SWAP2 SUB SWAP1 RETURN JUMPDEST PUSH2 0x4D7 PUSH2 0x17DB JUMP JUMPDEST PUSH1 0x40 MLOAD PUSH2 0x4E4 SWAP2 SWAP1 PUSH2 0x2678 JUMP JUMPDEST PUSH1 0x40 MLOAD DUP1 SWAP2 SUB SWAP1 RETURN JUMPDEST PUSH2 0x507 PUSH1 0x4 DUP1 CALLDATASIZE SUB DUP2 ADD SWAP1 PUSH2 0x502 SWAP2 SWAP1 PUSH2 0x27F1 JUMP JUMPDEST PUSH2 0x1864 JUMP JUMPDEST STOP JUMPDEST PUSH2 0x511 PUSH2 0x1EE1 JUMP JUMPDEST PUSH1 0x40 MLOAD PUSH2 0x51E SWAP2 SWAP1 PUSH2 0x282B JUMP JUMPDEST PUSH1 0x40 MLOAD DUP1 SWAP2 SUB SWAP1 RETURN JUMPDEST PUSH2 0x52F PUSH2 0x1EEA JUMP JUMPDEST PUSH1 0x40 MLOAD PUSH2 0x53C SWAP2 SWAP1 PUSH2 0x2678 JUMP JUMPDEST PUSH1 0x40 MLOAD DUP1 SWAP2 SUB SWAP1 RETURN JUMPDEST PUSH2 0x55F PUSH1 0x4 DUP1 CALLDATASIZE SUB DUP2 ADD SWAP1 PUSH2 0x55A SWAP2 SWAP1 PUSH2 0x27F1 JUMP JUMPDEST PUSH2 0x1EFB JUMP JUMPDEST STOP JUMPDEST PUSH2 0x57B PUSH1 0x4 DUP1 CALLDATASIZE SUB DUP2 ADD SWAP1 PUSH2 0x576 SWAP2 SWAP1 PUSH2 0x2788 JUMP JUMPDEST PUSH2 0x1F8E JUMP JUMPDEST STOP JUMPDEST PUSH2 0x585 PUSH2 0x2028 JUMP JUMPDEST PUSH1 0x40 MLOAD PUSH2 0x592 SWAP2 SWAP1 PUSH2 0x2678 JUMP JUMPDEST PUSH1 0x40 MLOAD DUP1 SWAP2 SUB SWAP1 RETURN JUMPDEST PUSH2 0x5A3 PUSH2 0x22C1 JUMP JUMPDEST PUSH1 0x40 MLOAD PUSH2 0x5B0 SWAP2 SWAP1 PUSH2 0x2678 JUMP JUMPDEST PUSH1 0x40 MLOAD DUP1 SWAP2 SUB SWAP1 RETURN JUMPDEST PUSH2 0x5C1 PUSH2 0x2319 JUMP JUMPDEST STOP JUMPDEST PUSH2 0x5CB PUSH2 0x257F JUMP JUMPDEST PUSH1 0x40 MLOAD PUSH2 0x5D8 SWAP2 SWAP1 PUSH2 0x282B JUMP JUMPDEST PUSH1 0x40 MLOAD DUP1 SWAP2 SUB SWAP1 RETURN JUMPDEST PUSH2 0x5E9 PUSH2 0x2588 JUMP JUMPDEST PUSH1 0x40 MLOAD PUSH2 0x5F6 SWAP2 SWAP1 PUSH2 0x2678 JUMP JUMPDEST PUSH1 0x40 MLOAD DUP1 SWAP2 SUB SWAP1 RETURN JUMPDEST PUSH0 PUSH0 PUSH20 0xFFFFFFFFFFFFFFFFFFFFFFFFFFFFFFFFFFFFFFFF AND PUSH1 0x1 PUSH1 0x2 SWAP1 SLOAD SWAP1 PUSH2 0x100 EXP SWAP1 DIV PUSH20 0xFFFFFFFFFFFFFFFFFFFFFFFFFFFFFFFFFFFFFFFF AND PUSH20 0xFFFFFFFFFFFFFFFFFFFFFFFFFFFFFFFFFFFFFFFF AND SUB PUSH2 0x66C JUMPI PUSH1 0x1 PUSH0 SWAP1 SLOAD SWAP1 PUSH2 0x100 EXP SWAP1 DIV PUSH1 0xFF AND ISZERO SWAP1 POP PUSH2 0x7EB JUMP JUMPDEST PUSH1 0x1 PUSH0 SWAP1 SLOAD SWAP1 PUSH2 0x100 EXP SWAP1 DIV PUSH1 0xFF AND PUSH2 0x687 JUMPI PUSH0 SWAP1 POP PUSH2 0x7EB JUMP JUMPDEST PUSH0 PUSH1 0x1 PUSH1 0x2 SWAP1 SLOAD SWAP1 PUSH2 0x100 EXP SWAP1 DIV PUSH20 0xFFFFFFFFFFFFFFFFFFFFFFFFFFFFFFFFFFFFFFFF AND SWAP1 POP DUP1 PUSH20 0xFFFFFFFFFFFFFFFFFFFFFFFFFFFFFFFFFFFFFFFF AND PUSH4 0x108ECE4D PUSH1 0x40 MLOAD DUP2 PUSH4 0xFFFFFFFF AND PUSH1 0xE0 SHL DUP2 MSTORE PUSH1 0x4 ADD PUSH1 0x20 PUSH1 0x40 MLOAD DUP1 DUP4 SUB DUP2 DUP7 GAS STATICCALL SWAP3 POP POP POP DUP1 ISZERO PUSH2 0x715 JUMPI POP PUSH1 0x40 MLOAD RETURNDATASIZE PUSH1 0x1F NOT PUSH1 0x1F DUP3 ADD AND DUP3 ADD DUP1 PUSH1 0x40 MSTORE POP DUP2 ADD SWAP1 PUSH2 0x712 SWAP2 SWAP1 PUSH2 0x2858 JUMP JUMPDEST PUSH1 0x1 JUMPDEST PUSH2 0x722 JUMPI PUSH0 SWAP2 POP POP PUSH2 0x7EB JUMP JUMPDEST ADDRESS PUSH20 0xFFFFFFFFFFFFFFFFFFFFFFFFFFFFFFFFFFFFFFFF AND DUP2 PUSH20 0xFFFFFFFFFFFFFFFFFFFFFFFFFFFFFFFFFFFFFFFF AND EQ PUSH2 0x75F JUMPI PUSH0 SWAP3 POP POP POP PUSH2 0x7EB JUMP JUMPDEST POP DUP1 PUSH20 0xFFFFFFFFFFFFFFFFFFFFFFFFFFFFFFFFFFFFFFFF AND PUSH4 0x8BC87745 PUSH1 0x40 MLOAD DUP2 PUSH4 0xFFFFFFFF AND PUSH1 0xE0 SHL DUP2 MSTORE PUSH1 0x4 ADD PUSH1 0x20 PUSH1 0x40 MLOAD DUP1 DUP4 SUB DUP2 DUP7 GAS STATICCALL SWAP3 POP POP POP DUP1 ISZERO PUSH2 0x7C8 JUMPI POP PUSH1 0x40 MLOAD RETURNDATASIZE PUSH1 0x1F NOT PUSH1 0x1F DUP3 ADD AND DUP3 ADD DUP1 PUSH1 0x40 MSTORE POP DUP2 ADD SWAP1 PUSH2 0x7C5 SWAP2 SWAP1 PUSH2 0x28AD JUMP JUMPDEST PUSH1 0x1 JUMPDEST PUSH2 0x7D5 JUMPI PUSH0 SWAP2 POP POP PUSH2 0x7EB JUMP JUMPDEST DUP1 PUSH2 0x7E4 JUMPI PUSH0 SWAP3 POP POP POP PUSH2 0x7EB JUMP JUMPDEST POP PUSH1 0x1 SWAP2 POP POP JUMPDEST SWAP1 JUMP JUMPDEST PUSH0 PUSH1 0x1 PUSH1 0x2 SWAP1 SLOAD SWAP1 PUSH2 0x100 EXP SWAP1 DIV PUSH20 0xFFFFFFFFFFFFFFFFFFFFFFFFFFFFFFFFFFFFFFFF AND SWAP1 POP SWAP1 JUMP JUMPDEST PUSH1 0x4 PUSH0 SWAP1 SLOAD SWAP1 PUSH2 0x100 EXP SWAP1 DIV PUSH20 0xFFFFFFFFFFFFFFFFFFFFFFFFFFFFFFFFFFFFFFFF AND PUSH20 0xFFFFFFFFFFFFFFFFFFFFFFFFFFFFFFFFFFFFFFFF AND CALLER PUSH20 0xFFFFFFFFFFFFFFFFFFFFFFFFFFFFFFFFFFFFFFFF AND EQ PUSH2 0x8A6 JUMPI PUSH1 0x40 MLOAD PUSH32 0x8C379A000000000000000000000000000000000000000000000000000000000 DUP2 MSTORE PUSH1 0x4 ADD PUSH2 0x89D SWAP1 PUSH2 0x2932 JUMP JUMPDEST PUSH1 0x40 MLOAD DUP1 SWAP2 SUB SWAP1 REVERT JUMPDEST PUSH0 PUSH20 0xFFFFFFFFFFFFFFFFFFFFFFFFFFFFFFFFFFFFFFFF AND DUP3 PUSH20 0xFFFFFFFFFFFFFFFFFFFFFFFFFFFFFFFFFFFFFFFF AND SUB PUSH2 0x914 JUMPI PUSH1 0x40 MLOAD PUSH32 0x8C379A000000000000000000000000000000000000000000000000000000000 DUP2 MSTORE PUSH1 0x4 ADD PUSH2 0x90B SWAP1 PUSH2 0x299A JUMP JUMPDEST PUSH1 0x40 MLOAD DUP1 SWAP2 SUB SWAP1 REVERT JUMPDEST PUSH0 PUSH1 0x7 SLOAD SUB PUSH2 0x958 JUMPI PUSH1 0x40 MLOAD PUSH32 0x8C379A000000000000000000000000000000000000000000000000000000000 DUP2 MSTORE PUSH1 0x4 ADD PUSH2 0x94F SWAP1 PUSH2 0x2A02 JUMP JUMPDEST PUSH1 0x40 MLOAD DUP1 SWAP2 SUB SWAP1 REVERT JUMPDEST DUP2 PUSH20 0xFFFFFFFFFFFFFFFFFFFFFFFFFFFFFFFFFFFFFFFF AND PUSH4 0xC2CA0AC5 DUP3 PUSH1 0x40 MLOAD DUP3 PUSH4 0xFFFFFFFF AND PUSH1 0xE0 SHL DUP2 MSTORE PUSH1 0x4 ADD PUSH2 0x991 SWAP2 SWAP1 PUSH2 0x282B JUMP JUMPDEST PUSH0 PUSH1 0x40 MLOAD DUP1 DUP4 SUB DUP2 PUSH0 DUP8 DUP1 EXTCODESIZE ISZERO DUP1 ISZERO PUSH2 0x9A8 JUMPI PUSH0 PUSH0 REVERT JUMPDEST POP GAS CALL SWAP3 POP POP POP DUP1 ISZERO PUSH2 0x9B9 JUMPI POP PUSH1 0x1 JUMPDEST PUSH2 0x9F8 JUMPI PUSH1 0x40 MLOAD PUSH32 0x8C379A000000000000000000000000000000000000000000000000000000000 DUP2 MSTORE PUSH1 0x4 ADD PUSH2 0x9EF SWAP1 PUSH2 0x2A6A JUMP JUMPDEST PUSH1 0x40 MLOAD DUP1 SWAP2 SUB SWAP1 REVERT JUMPDEST PUSH0 PUSH1 0x7 DUP2 SWAP1 SSTORE POP POP POP JUMP JUMPDEST PUSH1 0x4 PUSH0 SWAP1 SLOAD SWAP1 PUSH2 0x100 EXP SWAP1 DIV PUSH20 0xFFFFFFFFFFFFFFFFFFFFFFFFFFFFFFFFFFFFFFFF AND PUSH20 0xFFFFFFFFFFFFFFFFFFFFFFFFFFFFFFFFFFFFFFFF AND CALLER PUSH20 0xFFFFFFFFFFFFFFFFFFFFFFFFFFFFFFFFFFFFFFFF AND EQ PUSH2 0xA92 JUMPI PUSH1 0x40 MLOAD PUSH32 0x8C379A000000000000000000000000000000000000000000000000000000000 DUP2 MSTORE PUSH1 0x4 ADD PUSH2 0xA89 SWAP1 PUSH2 0x2932 JUMP JUMPDEST PUSH1 0x40 MLOAD DUP1 SWAP2 SUB SWAP1 REVERT JUMPDEST DUP1 PUSH1 0x6 DUP2 SWAP1 SSTORE POP POP JUMP JUMPDEST PUSH1 0x4 PUSH0 SWAP1 SLOAD SWAP1 PUSH2 0x100 EXP SWAP1 DIV PUSH20 0xFFFFFFFFFFFFFFFFFFFFFFFFFFFFFFFFFFFFFFFF AND PUSH20 0xFFFFFFFFFFFFFFFFFFFFFFFFFFFFFFFFFFFFFFFF AND CALLER PUSH20 0xFFFFFFFFFFFFFFFFFFFFFFFFFFFFFFFFFFFFFFFF AND EQ PUSH2 0xB2B JUMPI PUSH1 0x40 MLOAD PUSH32 0x8C379A000000000000000000000000000000000000000000000000000000000 DUP2 MSTORE PUSH1 0x4 ADD PUSH2 0xB22 SWAP1 PUSH2 0x2932 JUMP JUMPDEST PUSH1 0x40 MLOAD DUP1 SWAP2 SUB SWAP1 REVERT JUMPDEST PUSH1 0x41 PUSH0 SLOAD LT PUSH2 0xB42 JUMPI PUSH2 0x1B58 PUSH1 0x5 DUP2 SWAP1 SSTORE POP PUSH2 0xB4C JUMP JUMPDEST PUSH2 0x1388 PUSH1 0x5 DUP2 SWAP1 SSTORE POP JUMPDEST JUMP JUMPDEST PUSH1 0x4 PUSH0 SWAP1 SLOAD SWAP1 PUSH2 0x100 EXP SWAP1 DIV PUSH20 0xFFFFFFFFFFFFFFFFFFFFFFFFFFFFFFFFFFFFFFFF AND PUSH20 0xFFFFFFFFFFFFFFFFFFFFFFFFFFFFFFFFFFFFFFFF AND CALLER PUSH20 0xFFFFFFFFFFFFFFFFFFFFFFFFFFFFFFFFFFFFFFFF AND EQ DUP1 PUSH2 0xBF6 JUMPI POP PUSH1 0x1 PUSH1 0x2 SWAP1 SLOAD SWAP1 PUSH2 0x100 EXP SWAP1 DIV PUSH20 0xFFFFFFFFFFFFFFFFFFFFFFFFFFFFFFFFFFFFFFFF AND PUSH20 0xFFFFFFFFFFFFFFFFFFFFFFFFFFFFFFFFFFFFFFFF AND CALLER PUSH20 0xFFFFFFFFFFFFFFFFFFFFFFFFFFFFFFFFFFFFFFFF AND EQ JUMPDEST DUP1 PUSH2 0xC06 JUMPI POP PUSH2 0xC05 CALLER PUSH2 0x259C JUMP JUMPDEST JUMPDEST PUSH2 0xC45 JUMPI PUSH1 0x40 MLOAD PUSH32 0x8C379A000000000000000000000000000000000000000000000000000000000 DUP2 MSTORE PUSH1 0x4 ADD PUSH2 0xC3C SWAP1 PUSH2 0x2AD2 JUMP JUMPDEST PUSH1 0x40 MLOAD DUP1 SWAP2 SUB SWAP1 REVERT JUMPDEST POP JUMP JUMPDEST PUSH0 PUSH0 PUSH20 0xFFFFFFFFFFFFFFFFFFFFFFFFFFFFFFFFFFFFFFFF AND PUSH1 0x1 PUSH1 0x2 SWAP1 SLOAD SWAP1 PUSH2 0x100 EXP SWAP1 DIV PUSH20 0xFFFFFFFFFFFFFFFFFFFFFFFFFFFFFFFFFFFFFFFF AND PUSH20 0xFFFFFFFFFFFFFFFFFFFFFFFFFFFFFFFFFFFFFFFF AND SUB PUSH2 0xCA7 JUMPI PUSH1 0x1 SWAP1 POP PUSH2 0xD6C JUMP JUMPDEST PUSH0 PUSH1 0x1 PUSH1 0x2 SWAP1 SLOAD SWAP1 PUSH2 0x100 EXP SWAP1 DIV PUSH20 0xFFFFFFFFFFFFFFFFFFFFFFFFFFFFFFFFFFFFFFFF AND SWAP1 POP ADDRESS PUSH20 0xFFFFFFFFFFFFFFFFFFFFFFFFFFFFFFFFFFFFFFFF AND DUP2 PUSH20 0xFFFFFFFFFFFFFFFFFFFFFFFFFFFFFFFFFFFFFFFF AND PUSH4 0x108ECE4D PUSH1 0x40 MLOAD DUP2 PUSH4 0xFFFFFFFF AND PUSH1 0xE0 SHL DUP2 MSTORE PUSH1 0x4 ADD PUSH1 0x20 PUSH1 0x40 MLOAD DUP1 DUP4 SUB DUP2 DUP7 GAS STATICCALL ISZERO DUP1 ISZERO PUSH2 0xD2D JUMPI RETURNDATASIZE PUSH0 PUSH0 RETURNDATACOPY RETURNDATASIZE PUSH0 REVERT JUMPDEST POP POP POP POP PUSH1 0x40 MLOAD RETURNDATASIZE PUSH1 0x1F NOT PUSH1 0x1F DUP3 ADD AND DUP3 ADD DUP1 PUSH1 0x40 MSTORE POP DUP2 ADD SWAP1 PUSH2 0xD51 SWAP2 SWAP1 PUSH2 0x2858 JUMP JUMPDEST PUSH20 0xFFFFFFFFFFFFFFFFFFFFFFFFFFFFFFFFFFFFFFFF AND EQ SWAP2 POP POP JUMPDEST SWAP1 JUMP JUMPDEST PUSH1 0x1 PUSH1 0x2 SWAP1 SLOAD SWAP1 PUSH2 0x100 EXP SWAP1 DIV PUSH20 0xFFFFFFFFFFFFFFFFFFFFFFFFFFFFFFFFFFFFFFFF AND PUSH20 0xFFFFFFFFFFFFFFFFFFFFFFFFFFFFFFFFFFFFFFFF AND CALLER PUSH20 0xFFFFFFFFFFFFFFFFFFFFFFFFFFFFFFFFFFFFFFFF AND EQ DUP1 PUSH2 0xDF6 JUMPI POP DUP1 PUSH20 0xFFFFFFFFFFFFFFFFFFFFFFFFFFFFFFFFFFFFFFFF AND CALLER PUSH20 0xFFFFFFFFFFFFFFFFFFFFFFFFFFFFFFFFFFFFFFFF AND EQ JUMPDEST PUSH2 0xE35 JUMPI PUSH1 0x40 MLOAD PUSH32 0x8C379A000000000000000000000000000000000000000000000000000000000 DUP2 MSTORE PUSH1 0x4 ADD PUSH2 0xE2C SWAP1 PUSH2 0x2B3A JUMP JUMPDEST PUSH1 0x40 MLOAD DUP1 SWAP2 SUB SWAP1 REVERT JUMPDEST DUP2 PUSH1 0x5 PUSH0 DUP3 DUP3 SLOAD PUSH2 0xE46 SWAP2 SWAP1 PUSH2 0x2B85 JUMP JUMPDEST SWAP3 POP POP DUP2 SWAP1 SSTORE POP POP POP JUMP JUMPDEST PUSH1 0x4 PUSH0 SWAP1 SLOAD SWAP1 PUSH2 0x100 EXP SWAP1 DIV PUSH20 0xFFFFFFFFFFFFFFFFFFFFFFFFFFFFFFFFFFFFFFFF AND PUSH20 0xFFFFFFFFFFFFFFFFFFFFFFFFFFFFFFFFFFFFFFFF AND CALLER PUSH20 0xFFFFFFFFFFFFFFFFFFFFFFFFFFFFFFFFFFFFFFFF AND EQ PUSH2 0xEE0 JUMPI PUSH1 0x40 MLOAD PUSH32 0x8C379A000000000000000000000000000000000000000000000000000000000 DUP2 MSTORE PUSH1 0x4 ADD PUSH2 0xED7 SWAP1 PUSH2 0x2932 JUMP JUMPDEST PUSH1 0x40 MLOAD DUP1 SWAP2 SUB SWAP1 REVERT JUMPDEST PUSH0 PUSH0 DUP2 SLOAD DUP1 SWAP3 SWAP2 SWAP1 PUSH2 0xEF1 SWAP1 PUSH2 0x2BB8 JUMP JUMPDEST SWAP2 SWAP1 POP SSTORE POP PUSH1 0x1 PUSH0 SWAP1 SLOAD SWAP1 PUSH2 0x100 EXP SWAP1 DIV PUSH1 0xFF AND ISZERO DUP1 ISZERO PUSH2 0xF5F JUMPI POP PUSH0 PUSH20 0xFFFFFFFFFFFFFFFFFFFFFFFFFFFFFFFFFFFFFFFF AND PUSH1 0x1 PUSH1 0x2 SWAP1 SLOAD SWAP1 PUSH2 0x100 EXP SWAP1 DIV PUSH20 0xFFFFFFFFFFFFFFFFFFFFFFFFFFFFFFFFFFFFFFFF AND PUSH20 0xFFFFFFFFFFFFFFFFFFFFFFFFFFFFFFFFFFFFFFFF AND EQ JUMPDEST ISZERO PUSH2 0xF6D JUMPI PUSH2 0xF6C PUSH2 0xA9C JUMP JUMPDEST JUMPDEST JUMP JUMPDEST DUP1 PUSH20 0xFFFFFFFFFFFFFFFFFFFFFFFFFFFFFFFFFFFFFFFF AND CALLER PUSH20 0xFFFFFFFFFFFFFFFFFFFFFFFFFFFFFFFFFFFFFFFF AND EQ PUSH2 0xFDD JUMPI PUSH1 0x40 MLOAD PUSH32 0x8C379A000000000000000000000000000000000000000000000000000000000 DUP2 MSTORE PUSH1 0x4 ADD PUSH2 0xFD4 SWAP1 PUSH2 0x2C49 JUMP JUMPDEST PUSH1 0x40 MLOAD DUP1 SWAP2 SUB SWAP1 REVERT JUMPDEST PUSH0 PUSH1 0x1 PUSH1 0x2 PUSH2 0x100 EXP DUP2 SLOAD DUP2 PUSH20 0xFFFFFFFFFFFFFFFFFFFFFFFFFFFFFFFFFFFFFFFF MUL NOT AND SWAP1 DUP4 PUSH20 0xFFFFFFFFFFFFFFFFFFFFFFFFFFFFFFFFFFFFFFFF AND MUL OR SWAP1 SSTORE POP PUSH0 PUSH1 0x1 PUSH0 PUSH2 0x100 EXP DUP2 SLOAD DUP2 PUSH1 0xFF MUL NOT AND SWAP1 DUP4 ISZERO ISZERO MUL OR SWAP1 SSTORE POP PUSH2 0x103F PUSH2 0x2641 JUMP JUMPDEST PUSH1 0x5 DUP2 SWAP1 SSTORE POP POP JUMP JUMPDEST PUSH0 PUSH1 0x5 SLOAD PUSH1 0x6 SLOAD GT PUSH2 0x105C JUMPI PUSH0 SWAP1 POP PUSH2 0x106F JUMP JUMPDEST PUSH1 0x5 SLOAD PUSH1 0x6 SLOAD PUSH2 0x106C SWAP2 SWAP1 PUSH2 0x2C67 JUMP JUMPDEST SWAP1 POP JUMPDEST SWAP1 JUMP JUMPDEST PUSH0 PUSH0 PUSH2 0x107C PUSH2 0x1048 JUMP JUMPDEST SWAP1 POP PUSH2 0x3E8 DUP4 DUP3 PUSH2 0x108D SWAP2 SWAP1 PUSH2 0x2C9A JUMP JUMPDEST PUSH2 0x1097 SWAP2 SWAP1 PUSH2 0x2D08 JUMP JUMPDEST SWAP2 POP POP SWAP2 SWAP1 POP JUMP JUMPDEST PUSH1 0x4 PUSH0 SWAP1 SLOAD SWAP1 PUSH2 0x100 EXP SWAP1 DIV PUSH20 0xFFFFFFFFFFFFFFFFFFFFFFFFFFFFFFFFFFFFFFFF AND PUSH20 0xFFFFFFFFFFFFFFFFFFFFFFFFFFFFFFFFFFFFFFFF AND CALLER PUSH20 0xFFFFFFFFFFFFFFFFFFFFFFFFFFFFFFFFFFFFFFFF AND EQ PUSH2 0x112E JUMPI PUSH1 0x40 MLOAD PUSH32 0x8C379A000000000000000000000000000000000000000000000000000000000 DUP2 MSTORE PUSH1 0x4 ADD PUSH2 0x1125 SWAP1 PUSH2 0x2932 JUMP JUMPDEST PUSH1 0x40 MLOAD DUP1 SWAP2 SUB SWAP1 REVERT JUMPDEST PUSH0 PUSH20 0xFFFFFFFFFFFFFFFFFFFFFFFFFFFFFFFFFFFFFFFF AND DUP3 PUSH20 0xFFFFFFFFFFFFFFFFFFFFFFFFFFFFFFFFFFFFFFFF AND SUB PUSH2 0x119C JUMPI PUSH1 0x40 MLOAD PUSH32 0x8C379A000000000000000000000000000000000000000000000000000000000 DUP2 MSTORE PUSH1 0x4 ADD PUSH2 0x1193 SWAP1 PUSH2 0x299A JUMP JUMPDEST PUSH1 0x40 MLOAD DUP1 SWAP2 SUB SWAP1 REVERT JUMPDEST PUSH0 DUP3 PUSH20 0xFFFFFFFFFFFFFFFFFFFFFFFFFFFFFFFFFFFFFFFF AND EXTCODESIZE GT PUSH2 0x11F5 JUMPI PUSH1 0x40 MLOAD PUSH32 0x8C379A000000000000000000000000000000000000000000000000000000000 DUP2 MSTORE PUSH1 0x4 ADD PUSH2 0x11EC SWAP1 PUSH2 0x2D82 JUMP JUMPDEST PUSH1 0x40 MLOAD DUP1 SWAP2 SUB SWAP1 REVERT JUMPDEST DUP2 PUSH20 0xFFFFFFFFFFFFFFFFFFFFFFFFFFFFFFFFFFFFFFFF AND PUSH4 0xF14FCBC8 DUP3 PUSH1 0x40 MLOAD PUSH1 0x20 ADD PUSH2 0x1222 SWAP2 SWAP1 PUSH2 0x282B JUMP JUMPDEST PUSH1 0x40 MLOAD PUSH1 0x20 DUP2 DUP4 SUB SUB DUP2 MSTORE SWAP1 PUSH1 0x40 MSTORE DUP1 MLOAD SWAP1 PUSH1 0x20 ADD KECCAK256 PUSH1 0x40 MLOAD DUP3 PUSH4 0xFFFFFFFF AND PUSH1 0xE0 SHL DUP2 MSTORE PUSH1 0x4 ADD PUSH2 0x1254 SWAP2 SWAP1 PUSH2 0x2DB8 JUMP JUMPDEST PUSH0 PUSH1 0x40 MLOAD DUP1 DUP4 SUB DUP2 PUSH0 DUP8 DUP1 EXTCODESIZE ISZERO DUP1 ISZERO PUSH2 0x126B JUMPI PUSH0 PUSH0 REVERT JUMPDEST POP GAS CALL SWAP3 POP POP POP DUP1 ISZERO PUSH2 0x127C JUMPI POP PUSH1 0x1 JUMPDEST PUSH2 0x12BB JUMPI PUSH1 0x40 MLOAD PUSH32 0x8C379A000000000000000000000000000000000000000000000000000000000 DUP2 MSTORE PUSH1 0x4 ADD PUSH2 0x12B2 SWAP1 PUSH2 0x2E1B JUMP JUMPDEST PUSH1 0x40 MLOAD DUP1 SWAP2 SUB SWAP1 REVERT JUMPDEST DUP1 PUSH1 0x7 DUP2 SWAP1 SSTORE POP POP POP JUMP JUMPDEST PUSH0 PUSH32 0x0 PUSH20 0xFFFFFFFFFFFFFFFFFFFFFFFFFFFFFFFFFFFFFFFF AND PUSH1 0x4 PUSH0 SWAP1 SLOAD SWAP1 PUSH2 0x100 EXP SWAP1 DIV PUSH20 0xFFFFFFFFFFFFFFFFFFFFFFFFFFFFFFFFFFFFFFFF AND PUSH20 0xFFFFFFFFFFFFFFFFFFFFFFFFFFFFFFFFFFFFFFFF AND EQ SWAP1 POP SWAP1 JUMP JUMPDEST DUP1 PUSH1 0x1 PUSH1 0x2 PUSH2 0x100 EXP DUP2 SLOAD DUP2 PUSH20 0xFFFFFFFFFFFFFFFFFFFFFFFFFFFFFFFFFFFFFFFF MUL NOT AND SWAP1 DUP4 PUSH20 0xFFFFFFFFFFFFFFFFFFFFFFFFFFFFFFFFFFFFFFFF AND MUL OR SWAP1 SSTORE POP POP JUMP JUMPDEST PUSH0 PUSH2 0x1389 PUSH2 0x2641 JUMP JUMPDEST SWAP1 POP SWAP1 JUMP JUMPDEST PUSH0 PUSH1 0x1 DUP1 SLOAD SWAP1 PUSH2 0x100 EXP SWAP1 DIV PUSH1 0xFF AND SWAP1 POP SWAP1 JUMP JUMPDEST PUSH1 0x4 PUSH0 SWAP1 SLOAD SWAP1 PUSH2 0x100 EXP SWAP1 DIV PUSH20 0xFFFFFFFFFFFFFFFFFFFFFFFFFFFFFFFFFFFFFFFF AND PUSH20 0xFFFFFFFFFFFFFFFFFFFFFFFFFFFFFFFFFFFFFFFF AND CALLER PUSH20 0xFFFFFFFFFFFFFFFFFFFFFFFFFFFFFFFFFFFFFFFF AND EQ PUSH2 0x1431 JUMPI PUSH1 0x40 MLOAD PUSH32 0x8C379A000000000000000000000000000000000000000000000000000000000 DUP2 MSTORE PUSH1 0x4 ADD PUSH2 0x1428 SWAP1 PUSH2 0x2932 JUMP JUMPDEST PUSH1 0x40 MLOAD DUP1 SWAP2 SUB SWAP1 REVERT JUMPDEST PUSH0 PUSH20 0xFFFFFFFFFFFFFFFFFFFFFFFFFFFFFFFFFFFFFFFF AND PUSH1 0x1 PUSH1 0x2 SWAP1 SLOAD SWAP1 PUSH2 0x100 EXP SWAP1 DIV PUSH20 0xFFFFFFFFFFFFFFFFFFFFFFFFFFFFFFFFFFFFFFFF AND PUSH20 0xFFFFFFFFFFFFFFFFFFFFFFFFFFFFFFFFFFFFFFFF AND SUB PUSH2 0x14C1 JUMPI PUSH1 0x40 MLOAD PUSH32 0x8C379A000000000000000000000000000000000000000000000000000000000 DUP2 MSTORE PUSH1 0x4 ADD PUSH2 0x14B8 SWAP1 PUSH2 0x2E83 JUMP JUMPDEST PUSH1 0x40 MLOAD DUP1 SWAP2 SUB SWAP1 REVERT JUMPDEST PUSH0 DUP2 GT PUSH2 0x1503 JUMPI PUSH1 0x40 MLOAD PUSH32 0x8C379A000000000000000000000000000000000000000000000000000000000 DUP2 MSTORE PUSH1 0x4 ADD PUSH2 0x14FA SWAP1 PUSH2 0x2EEB JUMP JUMPDEST PUSH1 0x40 MLOAD DUP1 SWAP2 SUB SWAP1 REVERT JUMPDEST PUSH1 0x5 SLOAD DUP2 GT ISZERO PUSH2 0x1548 JUMPI PUSH1 0x40 MLOAD PUSH32 0x8C379A000000000000000000000000000000000000000000000000000000000 DUP2 MSTORE PUSH1 0x4 ADD PUSH2 0x153F SWAP1 PUSH2 0x2F53 JUMP JUMPDEST PUSH1 0x40 MLOAD DUP1 SWAP2 SUB SWAP1 REVERT JUMPDEST DUP1 PUSH1 0x5 PUSH0 DUP3 DUP3 SLOAD PUSH2 0x1559 SWAP2 SWAP1 PUSH2 0x2C67 JUMP JUMPDEST SWAP3 POP POP DUP2 SWAP1 SSTORE POP PUSH1 0x1 PUSH1 0x2 SWAP1 SLOAD SWAP1 PUSH2 0x100 EXP SWAP1 DIV PUSH20 0xFFFFFFFFFFFFFFFFFFFFFFFFFFFFFFFFFFFFFFFF AND PUSH20 0xFFFFFFFFFFFFFFFFFFFFFFFFFFFFFFFFFFFFFFFF AND PUSH4 0x308F838A DUP3 ADDRESS PUSH1 0x40 MLOAD DUP4 PUSH4 0xFFFFFFFF AND PUSH1 0xE0 SHL DUP2 MSTORE PUSH1 0x4 ADD PUSH2 0x15BD SWAP3 SWAP2 SWAP1 PUSH2 0x2F71 JUMP JUMPDEST PUSH0 PUSH1 0x40 MLOAD DUP1 DUP4 SUB DUP2 PUSH0 DUP8 DUP1 EXTCODESIZE ISZERO DUP1 ISZERO PUSH2 0x15D4 JUMPI PUSH0 PUSH0 REVERT JUMPDEST POP GAS CALL SWAP3 POP POP POP DUP1 ISZERO PUSH2 0x15E5 JUMPI POP PUSH1 0x1 JUMPDEST PUSH2 0x1624 JUMPI PUSH1 0x40 MLOAD PUSH32 0x8C379A000000000000000000000000000000000000000000000000000000000 DUP2 MSTORE PUSH1 0x4 ADD PUSH2 0x161B SWAP1 PUSH2 0x2FE2 JUMP JUMPDEST PUSH1 0x40 MLOAD DUP1 SWAP2 SUB SWAP1 REVERT JUMPDEST POP JUMP JUMPDEST PUSH0 PUSH32 0x0 SWAP1 POP SWAP1 JUMP JUMPDEST PUSH0 PUSH0 PUSH1 0x7 SLOAD SUB PUSH2 0x1661 JUMPI PUSH1 0x1 SWAP1 POP PUSH2 0x176D JUMP JUMPDEST PUSH0 PUSH20 0xFFFFFFFFFFFFFFFFFFFFFFFFFFFFFFFFFFFFFFFF AND DUP3 PUSH20 0xFFFFFFFFFFFFFFFFFFFFFFFFFFFFFFFFFFFFFFFF AND EQ DUP1 PUSH2 0x16B1 JUMPI POP PUSH0 DUP3 PUSH20 0xFFFFFFFFFFFFFFFFFFFFFFFFFFFFFFFFFFFFFFFF AND EXTCODESIZE EQ JUMPDEST ISZERO PUSH2 0x16BF JUMPI PUSH1 0x1 SWAP1 POP PUSH2 0x176D JUMP JUMPDEST DUP2 PUSH20 0xFFFFFFFFFFFFFFFFFFFFFFFFFFFFFFFFFFFFFFFF AND PUSH4 0x7B43A8E6 ADDRESS PUSH1 0x40 MLOAD DUP3 PUSH4 0xFFFFFFFF AND PUSH1 0xE0 SHL DUP2 MSTORE PUSH1 0x4 ADD PUSH2 0x16F8 SWAP2 SWAP1 PUSH2 0x26D0 JUMP JUMPDEST PUSH1 0x20 PUSH1 0x40 MLOAD DUP1 DUP4 SUB DUP2 DUP7 GAS STATICCALL SWAP3 POP POP POP DUP1 ISZERO PUSH2 0x1732 JUMPI POP PUSH1 0x40 MLOAD RETURNDATASIZE PUSH1 0x1F NOT PUSH1 0x1F DUP3 ADD AND DUP3 ADD DUP1 PUSH1 0x40 MSTORE POP DUP2 ADD SWAP1 PUSH2 0x172F SWAP2 SWAP1 PUSH2 0x302A JUMP JUMPDEST PUSH1 0x1 JUMPDEST PUSH2 0x173E JUMPI PUSH0 SWAP1 POP PUSH2 0x176D JUMP JUMPDEST PUSH1 0x7 SLOAD PUSH1 0x40 MLOAD PUSH1 0x20 ADD PUSH2 0x1751 SWAP2 SWAP1 PUSH2 0x282B JUMP JUMPDEST PUSH1 0x40 MLOAD PUSH1 0x20 DUP2 DUP4 SUB SUB DUP2 MSTORE SWAP1 PUSH1 0x40 MSTORE DUP1 MLOAD SWAP1 PUSH1 0x20 ADD KECCAK256 DUP2 EQ SWAP2 POP POP JUMPDEST SWAP2 SWAP1 POP JUMP JUMPDEST PUSH0 PUSH1 0x1 PUSH0 SWAP1 SLOAD SWAP1 PUSH2 0x100 EXP SWAP1 DIV PUSH1 0xFF AND SWAP1 POP SWAP1 JUMP JUMPDEST PUSH1 0x4 PUSH0 SWAP1 SLOAD SWAP1 PUSH2 0x100 EXP SWAP1 DIV PUSH20 0xFFFFFFFFFFFFFFFFFFFFFFFFFFFFFFFFFFFFFFFF AND DUP2 JUMP JUMPDEST PUSH0 PUSH0 SLOAD SWAP1 POP SWAP1 JUMP JUMPDEST PUSH0 PUSH1 0x5 SLOAD PUSH1 0x6 SLOAD GT PUSH2 0x17D3 JUMPI PUSH0 PUSH2 0x17CB PUSH1 0xC8 PUSH2 0x1072 JUMP JUMPDEST EQ SWAP1 POP PUSH2 0x17D8 JUMP JUMPDEST PUSH1 0x1 SWAP1 POP JUMPDEST SWAP1 JUMP JUMPDEST PUSH0 PUSH0 PUSH20 0xFFFFFFFFFFFFFFFFFFFFFFFFFFFFFFFFFFFFFFFF AND PUSH1 0x1 PUSH1 0x2 SWAP1 SLOAD SWAP1 PUSH2 0x100 EXP SWAP1 DIV PUSH20 0xFFFFFFFFFFFFFFFFFFFFFFFFFFFFFFFFFFFFFFFF AND PUSH20 0xFFFFFFFFFFFFFFFFFFFFFFFFFFFFFFFFFFFFFFFF AND EQ ISZERO DUP1 PUSH2 0x1844 JUMPI POP PUSH1 0x1 PUSH0 SWAP1 SLOAD SWAP1 PUSH2 0x100 EXP SWAP1 DIV PUSH1 0xFF AND JUMPDEST ISZERO PUSH2 0x1852 JUMPI PUSH1 0x1 SWAP1 POP PUSH2 0x1861 JUMP JUMPDEST PUSH2 0x185A PUSH2 0x2641 JUMP JUMPDEST PUSH1 0x5 SLOAD EQ SWAP1 POP JUMPDEST SWAP1 JUMP JUMPDEST PUSH1 0x4 PUSH0 SWAP1 SLOAD SWAP1 PUSH2 0x100 EXP SWAP1 DIV PUSH20 0xFFFFFFFFFFFFFFFFFFFFFFFFFFFFFFFFFFFFFFFF AND PUSH20 0xFFFFFFFFFFFFFFFFFFFFFFFFFFFFFFFFFFFFFFFF AND CALLER PUSH20 0xFFFFFFFFFFFFFFFFFFFFFFFFFFFFFFFFFFFFFFFF AND EQ PUSH2 0x18F3 JUMPI PUSH1 0x40 MLOAD PUSH32 0x8C379A000000000000000000000000000000000000000000000000000000000 DUP2 MSTORE PUSH1 0x4 ADD PUSH2 0x18EA SWAP1 PUSH2 0x2932 JUMP JUMPDEST PUSH1 0x40 MLOAD DUP1 SWAP2 SUB SWAP1 REVERT JUMPDEST PUSH1 0x1 PUSH0 SWAP1 SLOAD SWAP1 PUSH2 0x100 EXP SWAP1 DIV PUSH1 0xFF AND ISZERO PUSH2 0x1942 JUMPI PUSH1 0x40 MLOAD PUSH32 0x8C379A000000000000000000000000000000000000000000000000000000000 DUP2 MSTORE PUSH1 0x4 ADD PUSH2 0x1939 SWAP1 PUSH2 0x309F JUMP JUMPDEST PUSH1 0x40 MLOAD DUP1 SWAP2 SUB SWAP1 REVERT JUMPDEST PUSH0 PUSH20 0xFFFFFFFFFFFFFFFFFFFFFFFFFFFFFFFFFFFFFFFF AND DUP2 PUSH20 0xFFFFFFFFFFFFFFFFFFFFFFFFFFFFFFFFFFFFFFFF AND SUB PUSH2 0x19B0 JUMPI PUSH1 0x40 MLOAD PUSH32 0x8C379A000000000000000000000000000000000000000000000000000000000 DUP2 MSTORE PUSH1 0x4 ADD PUSH2 0x19A7 SWAP1 PUSH2 0x3107 JUMP JUMPDEST PUSH1 0x40 MLOAD DUP1 SWAP2 SUB SWAP1 REVERT JUMPDEST ADDRESS PUSH20 0xFFFFFFFFFFFFFFFFFFFFFFFFFFFFFFFFFFFFFFFF AND DUP2 PUSH20 0xFFFFFFFFFFFFFFFFFFFFFFFFFFFFFFFFFFFFFFFF AND SUB PUSH2 0x1A1E JUMPI PUSH1 0x40 MLOAD PUSH32 0x8C379A000000000000000000000000000000000000000000000000000000000 DUP2 MSTORE PUSH1 0x4 ADD PUSH2 0x1A15 SWAP1 PUSH2 0x316F JUMP JUMPDEST PUSH1 0x40 MLOAD DUP1 SWAP2 SUB SWAP1 REVERT JUMPDEST PUSH1 0x4 PUSH0 SWAP1 SLOAD SWAP1 PUSH2 0x100 EXP SWAP1 DIV PUSH20 0xFFFFFFFFFFFFFFFFFFFFFFFFFFFFFFFFFFFFFFFF AND PUSH20 0xFFFFFFFFFFFFFFFFFFFFFFFFFFFFFFFFFFFFFFFF AND DUP2 PUSH20 0xFFFFFFFFFFFFFFFFFFFFFFFFFFFFFFFFFFFFFFFF AND SUB PUSH2 0x1AAD JUMPI PUSH1 0x40 MLOAD PUSH32 0x8C379A000000000000000000000000000000000000000000000000000000000 DUP2 MSTORE PUSH1 0x4 ADD PUSH2 0x1AA4 SWAP1 PUSH2 0x31D7 JUMP JUMPDEST PUSH1 0x40 MLOAD DUP1 SWAP2 SUB SWAP1 REVERT JUMPDEST PUSH0 DUP2 PUSH20 0xFFFFFFFFFFFFFFFFFFFFFFFFFFFFFFFFFFFFFFFF AND EXTCODESIZE GT PUSH2 0x1B06 JUMPI PUSH1 0x40 MLOAD PUSH32 0x8C379A000000000000000000000000000000000000000000000000000000000 DUP2 MSTORE PUSH1 0x4 ADD PUSH2 0x1AFD SWAP1 PUSH2 0x323F JUMP JUMPDEST PUSH1 0x40 MLOAD DUP1 SWAP2 SUB SWAP1 REVERT JUMPDEST PUSH0 DUP2 PUSH20 0xFFFFFFFFFFFFFFFFFFFFFFFFFFFFFFFFFFFFFFFF AND PUSH4 0x8BC87745 PUSH1 0x40 MLOAD DUP2 PUSH4 0xFFFFFFFF AND PUSH1 0xE0 SHL DUP2 MSTORE PUSH1 0x4 ADD PUSH1 0x20 PUSH1 0x40 MLOAD DUP1 DUP4 SUB DUP2 DUP7 GAS STATICCALL SWAP3 POP POP POP DUP1 ISZERO PUSH2 0x1B6F JUMPI POP PUSH1 0x40 MLOAD RETURNDATASIZE PUSH1 0x1F NOT PUSH1 0x1F DUP3 ADD AND DUP3 ADD DUP1 PUSH1 0x40 MSTORE POP DUP2 ADD SWAP1 PUSH2 0x1B6C SWAP2 SWAP1 PUSH2 0x28AD JUMP JUMPDEST PUSH1 0x1 JUMPDEST PUSH2 0x1BAE JUMPI PUSH1 0x40 MLOAD PUSH32 0x8C379A000000000000000000000000000000000000000000000000000000000 DUP2 MSTORE PUSH1 0x4 ADD PUSH2 0x1BA5 SWAP1 PUSH2 0x32A7 JUMP JUMPDEST PUSH1 0x40 MLOAD DUP1 SWAP2 SUB SWAP1 REVERT JUMPDEST DUP1 SWAP2 POP POP DUP1 ISZERO PUSH2 0x1BF3 JUMPI PUSH1 0x40 MLOAD PUSH32 0x8C379A000000000000000000000000000000000000000000000000000000000 DUP2 MSTORE PUSH1 0x4 ADD PUSH2 0x1BEA SWAP1 PUSH2 0x330F JUMP JUMPDEST PUSH1 0x40 MLOAD DUP1 SWAP2 SUB SWAP1 REVERT JUMPDEST DUP2 PUSH1 0x1 PUSH1 0x2 PUSH2 0x100 EXP DUP2 SLOAD DUP2 PUSH20 0xFFFFFFFFFFFFFFFFFFFFFFFFFFFFFFFFFFFFFFFF MUL NOT AND SWAP1 DUP4 PUSH20 0xFFFFFFFFFFFFFFFFFFFFFFFFFFFFFFFFFFFFFFFF AND MUL OR SWAP1 SSTORE POP PUSH1 0x1 DUP1 PUSH0 PUSH2 0x100 EXP DUP2 SLOAD DUP2 PUSH1 0xFF MUL NOT AND SWAP1 DUP4 ISZERO ISZERO MUL OR SWAP1 SSTORE POP PUSH2 0x1C55 PUSH2 0x2641 JUMP JUMPDEST PUSH1 0x5 DUP2 SWAP1 SSTORE POP PUSH1 0x1 PUSH1 0x2 SWAP1 SLOAD SWAP1 PUSH2 0x100 EXP SWAP1 DIV PUSH20 0xFFFFFFFFFFFFFFFFFFFFFFFFFFFFFFFFFFFFFFFF AND PUSH20 0xFFFFFFFFFFFFFFFFFFFFFFFFFFFFFFFFFFFFFFFF AND PUSH4 0xCB01A92B ADDRESS PUSH1 0x40 MLOAD DUP3 PUSH4 0xFFFFFFFF AND PUSH1 0xE0 SHL DUP2 MSTORE PUSH1 0x4 ADD PUSH2 0x1CB6 SWAP2 SWAP1 PUSH2 0x26D0 JUMP JUMPDEST PUSH0 PUSH1 0x40 MLOAD DUP1 DUP4 SUB DUP2 PUSH0 DUP8 DUP1 EXTCODESIZE ISZERO DUP1 ISZERO PUSH2 0x1CCD JUMPI PUSH0 PUSH0 REVERT JUMPDEST POP GAS CALL SWAP3 POP POP POP DUP1 ISZERO PUSH2 0x1CDE JUMPI POP PUSH1 0x1 JUMPDEST PUSH2 0x1D77 JUMPI PUSH0 PUSH1 0x1 PUSH1 0x2 PUSH2 0x100 EXP DUP2 SLOAD DUP2 PUSH20 0xFFFFFFFFFFFFFFFFFFFFFFFFFFFFFFFFFFFFFFFF MUL NOT AND SWAP1 DUP4 PUSH20 0xFFFFFFFFFFFFFFFFFFFFFFFFFFFFFFFFFFFFFFFF AND MUL OR SWAP1 SSTORE POP PUSH0 PUSH1 0x1 PUSH0 PUSH2 0x100 EXP DUP2 SLOAD DUP2 PUSH1 0xFF MUL NOT AND SWAP1 DUP4 ISZERO ISZERO MUL OR SWAP1 SSTORE POP PUSH1 0x40 MLOAD PUSH32 0x8C379A000000000000000000000000000000000000000000000000000000000 DUP2 MSTORE PUSH1 0x4 ADD PUSH2 0x1D6E SWAP1 PUSH2 0x3377 JUMP JUMPDEST PUSH1 0x40 MLOAD DUP1 SWAP2 SUB SWAP1 REVERT JUMPDEST DUP2 PUSH20 0xFFFFFFFFFFFFFFFFFFFFFFFFFFFFFFFFFFFFFFFF AND PUSH4 0x25803D64 DUP4 PUSH20 0xFFFFFFFFFFFFFFFFFFFFFFFFFFFFFFFFFFFFFFFF AND PUSH4 0x594DB753 PUSH1 0x40 MLOAD DUP2 PUSH4 0xFFFFFFFF AND PUSH1 0xE0 SHL DUP2 MSTORE PUSH1 0x4 ADD PUSH1 0x20 PUSH1 0x40 MLOAD DUP1 DUP4 SUB DUP2 DUP7 GAS STATICCALL ISZERO DUP1 ISZERO PUSH2 0x1DDC JUMPI RETURNDATASIZE PUSH0 PUSH0 RETURNDATACOPY RETURNDATASIZE PUSH0 REVERT JUMPDEST POP POP POP POP PUSH1 0x40 MLOAD RETURNDATASIZE PUSH1 0x1F NOT PUSH1 0x1F DUP3 ADD AND DUP3 ADD DUP1 PUSH1 0x40 MSTORE POP DUP2 ADD SWAP1 PUSH2 0x1E00 SWAP2 SWAP1 PUSH2 0x33A9 JUMP JUMPDEST PUSH1 0x40 MLOAD DUP3 PUSH4 0xFFFFFFFF AND PUSH1 0xE0 SHL DUP2 MSTORE PUSH1 0x4 ADD PUSH2 0x1E1C SWAP2 SWAP1 PUSH2 0x282B JUMP JUMPDEST PUSH0 PUSH1 0x40 MLOAD DUP1 DUP4 SUB DUP2 PUSH0 DUP8 DUP1 EXTCODESIZE ISZERO DUP1 ISZERO PUSH2 0x1E33 JUMPI PUSH0 PUSH0 REVERT JUMPDEST POP GAS CALL SWAP3 POP POP POP DUP1 ISZERO PUSH2 0x1E44 JUMPI POP PUSH1 0x1 JUMPDEST PUSH2 0x1EDD JUMPI PUSH0 PUSH1 0x1 PUSH1 0x2 PUSH2 0x100 EXP DUP2 SLOAD DUP2 PUSH20 0xFFFFFFFFFFFFFFFFFFFFFFFFFFFFFFFFFFFFFFFF MUL NOT AND SWAP1 DUP4 PUSH20 0xFFFFFFFFFFFFFFFFFFFFFFFFFFFFFFFFFFFFFFFF AND MUL OR SWAP1 SSTORE POP PUSH0 PUSH1 0x1 PUSH0 PUSH2 0x100 EXP DUP2 SLOAD DUP2 PUSH1 0xFF MUL NOT AND SWAP1 DUP4 ISZERO ISZERO MUL OR SWAP1 SSTORE POP PUSH1 0x40 MLOAD PUSH32 0x8C379A000000000000000000000000000000000000000000000000000000000 DUP2 MSTORE PUSH1 0x4 ADD PUSH2 0x1ED4 SWAP1 PUSH2 0x341E JUMP JUMPDEST PUSH1 0x40 MLOAD DUP1 SWAP2 SUB SWAP1 REVERT JUMPDEST POP POP JUMP JUMPDEST PUSH0 PUSH1 0x5 SLOAD SWAP1 POP SWAP1 JUMP JUMPDEST PUSH0 PUSH0 PUSH2 0x1EF4 PUSH2 0x1048 JUMP JUMPDEST LT ISZERO SWAP1 POP SWAP1 JUMP JUMPDEST DUP1 PUSH20 0xFFFFFFFFFFFFFFFFFFFFFFFFFFFFFFFFFFFFFFFF AND CALLER PUSH20 0xFFFFFFFFFFFFFFFFFFFFFFFFFFFFFFFFFFFFFFFF AND EQ PUSH2 0x1F69 JUMPI PUSH1 0x40 MLOAD PUSH32 0x8C379A000000000000000000000000000000000000000000000000000000000 DUP2 MSTORE PUSH1 0x4 ADD PUSH2 0x1F60 SWAP1 PUSH2 0x3486 JUMP JUMPDEST PUSH1 0x40 MLOAD DUP1 SWAP2 SUB SWAP1 REVERT JUMPDEST PUSH2 0x1F72 DUP2 PUSH2 0x133C JUMP JUMPDEST PUSH1 0x1 DUP1 PUSH0 PUSH2 0x100 EXP DUP2 SLOAD DUP2 PUSH1 0xFF MUL NOT AND SWAP1 DUP4 ISZERO ISZERO MUL OR SWAP1 SSTORE POP POP JUMP JUMPDEST PUSH1 0x1 PUSH1 0x2 SWAP1 SLOAD SWAP1 PUSH2 0x100 EXP SWAP1 DIV PUSH20 0xFFFFFFFFFFFFFFFFFFFFFFFFFFFFFFFFFFFFFFFF AND PUSH20 0xFFFFFFFFFFFFFFFFFFFFFFFFFFFFFFFFFFFFFFFF AND CALLER PUSH20 0xFFFFFFFFFFFFFFFFFFFFFFFFFFFFFFFFFFFFFFFF AND EQ PUSH2 0x201E JUMPI PUSH1 0x40 MLOAD PUSH32 0x8C379A000000000000000000000000000000000000000000000000000000000 DUP2 MSTORE PUSH1 0x4 ADD PUSH2 0x2015 SWAP1 PUSH2 0x34EE JUMP JUMPDEST PUSH1 0x40 MLOAD DUP1 SWAP2 SUB SWAP1 REVERT JUMPDEST DUP1 PUSH1 0x5 DUP2 SWAP1 SSTORE POP POP JUMP JUMPDEST PUSH0 PUSH1 0x1 PUSH0 SWAP1 SLOAD SWAP1 PUSH2 0x100 EXP SWAP1 DIV PUSH1 0xFF AND ISZERO DUP1 PUSH2 0x2091 JUMPI POP PUSH0 PUSH20 0xFFFFFFFFFFFFFFFFFFFFFFFFFFFFFFFFFFFFFFFF AND PUSH1 0x1 PUSH1 0x2 SWAP1 SLOAD SWAP1 PUSH2 0x100 EXP SWAP1 DIV PUSH20 0xFFFFFFFFFFFFFFFFFFFFFFFFFFFFFFFFFFFFFFFF AND PUSH20 0xFFFFFFFFFFFFFFFFFFFFFFFFFFFFFFFFFFFFFFFF AND EQ JUMPDEST ISZERO PUSH2 0x209F JUMPI PUSH1 0x1 SWAP1 POP PUSH2 0x22BE JUMP JUMPDEST PUSH0 PUSH1 0x5 SLOAD SWAP1 POP PUSH0 PUSH1 0x1 PUSH1 0x2 SWAP1 SLOAD SWAP1 PUSH2 0x100 EXP SWAP1 DIV PUSH20 0xFFFFFFFFFFFFFFFFFFFFFFFFFFFFFFFFFFFFFFFF AND SWAP1 POP PUSH0 PUSH0 PUSH0 DUP4 PUSH20 0xFFFFFFFFFFFFFFFFFFFFFFFFFFFFFFFFFFFFFFFF AND PUSH4 0xC043DECC PUSH1 0x40 MLOAD DUP2 PUSH4 0xFFFFFFFF AND PUSH1 0xE0 SHL DUP2 MSTORE PUSH1 0x4 ADD PUSH1 0x20 PUSH1 0x40 MLOAD DUP1 DUP4 SUB DUP2 DUP7 GAS STATICCALL SWAP3 POP POP POP DUP1 ISZERO PUSH2 0x2136 JUMPI POP PUSH1 0x40 MLOAD RETURNDATASIZE PUSH1 0x1F NOT PUSH1 0x1F DUP3 ADD AND DUP3 ADD DUP1 PUSH1 0x40 MSTORE POP DUP2 ADD SWAP1 PUSH2 0x2133 SWAP2 SWAP1 PUSH2 0x33A9 JUMP JUMPDEST PUSH1 0x1 JUMPDEST PUSH2 0x2147 JUMPI PUSH0 SWAP6 POP POP POP POP POP POP PUSH2 0x22BE JUMP JUMPDEST DUP1 SWAP4 POP POP DUP4 PUSH20 0xFFFFFFFFFFFFFFFFFFFFFFFFFFFFFFFFFFFFFFFF AND PUSH4 0x6AA393F8 PUSH1 0x40 MLOAD DUP2 PUSH4 0xFFFFFFFF AND PUSH1 0xE0 SHL DUP2 MSTORE PUSH1 0x4 ADD PUSH1 0x20 PUSH1 0x40 MLOAD DUP1 DUP4 SUB DUP2 DUP7 GAS STATICCALL SWAP3 POP POP POP DUP1 ISZERO PUSH2 0x21B3 JUMPI POP PUSH1 0x40 MLOAD RETURNDATASIZE PUSH1 0x1F NOT PUSH1 0x1F DUP3 ADD AND DUP3 ADD DUP1 PUSH1 0x40 MSTORE POP DUP2 ADD SWAP1 PUSH2 0x21B0 SWAP2 SWAP1 PUSH2 0x33A9 JUMP JUMPDEST PUSH1 0x1 JUMPDEST PUSH2 0x21C4 JUMPI PUSH0 SWAP6 POP POP POP POP POP POP PUSH2 0x22BE JUMP JUMPDEST DUP1 SWAP3 POP POP DUP4 PUSH20 0xFFFFFFFFFFFFFFFFFFFFFFFFFFFFFFFFFFFFFFFF AND PUSH4 0x594DB753 PUSH1 0x40 MLOAD DUP2 PUSH4 0xFFFFFFFF AND PUSH1 0xE0 SHL DUP2 MSTORE PUSH1 0x4 ADD PUSH1 0x20 PUSH1 0x40 MLOAD DUP1 DUP4 SUB DUP2 DUP7 GAS STATICCALL SWAP3 POP POP POP DUP1 ISZERO PUSH2 0x2230 JUMPI POP PUSH1 0x40 MLOAD RETURNDATASIZE PUSH1 0x1F NOT PUSH1 0x1F DUP3 ADD AND DUP3 ADD DUP1 PUSH1 0x40 MSTORE POP DUP2 ADD SWAP1 PUSH2 0x222D SWAP2 SWAP1 PUSH2 0x33A9 JUMP JUMPDEST PUSH1 0x1 JUMPDEST PUSH2 0x2241 JUMPI PUSH0 SWAP6 POP POP POP POP POP POP PUSH2 0x22BE JUMP JUMPDEST DUP1 SWAP2 POP POP PUSH0 PUSH2 0x224E PUSH2 0x2641 JUMP JUMPDEST SWAP1 POP PUSH0 DUP4 PUSH32 0x0 PUSH2 0x227D SWAP2 SWAP1 PUSH2 0x2B85 JUMP JUMPDEST DUP6 DUP9 PUSH2 0x2289 SWAP2 SWAP1 PUSH2 0x2B85 JUMP JUMPDEST EQ SWAP1 POP PUSH0 DUP4 DUP4 PUSH2 0x2299 SWAP2 SWAP1 PUSH2 0x2B85 JUMP JUMPDEST DUP7 DUP10 PUSH2 0x22A5 SWAP2 SWAP1 PUSH2 0x2B85 JUMP JUMPDEST GT ISZERO SWAP1 POP DUP2 DUP1 ISZERO PUSH2 0x22B3 JUMPI POP DUP1 JUMPDEST SWAP9 POP POP POP POP POP POP POP POP POP JUMPDEST SWAP1 JUMP JUMPDEST PUSH0 ADDRESS PUSH20 0xFFFFFFFFFFFFFFFFFFFFFFFFFFFFFFFFFFFFFFFF AND PUSH1 0x1 PUSH1 0x2 SWAP1 SLOAD SWAP1 PUSH2 0x100 EXP SWAP1 DIV PUSH20 0xFFFFFFFFFFFFFFFFFFFFFFFFFFFFFFFFFFFFFFFF AND PUSH20 0xFFFFFFFFFFFFFFFFFFFFFFFFFFFFFFFFFFFFFFFF AND EQ ISZERO SWAP1 POP SWAP1 JUMP JUMPDEST PUSH1 0x4 PUSH0 SWAP1 SLOAD SWAP1 PUSH2 0x100 EXP SWAP1 DIV PUSH20 0xFFFFFFFFFFFFFFFFFFFFFFFFFFFFFFFFFFFFFFFF AND PUSH20 0xFFFFFFFFFFFFFFFFFFFFFFFFFFFFFFFFFFFFFFFF AND CALLER PUSH20 0xFFFFFFFFFFFFFFFFFFFFFFFFFFFFFFFFFFFFFFFF AND EQ PUSH2 0x23A8 JUMPI PUSH1 0x40 MLOAD PUSH32 0x8C379A000000000000000000000000000000000000000000000000000000000 DUP2 MSTORE PUSH1 0x4 ADD PUSH2 0x239F SWAP1 PUSH2 0x2932 JUMP JUMPDEST PUSH1 0x40 MLOAD DUP1 SWAP2 SUB SWAP1 REVERT JUMPDEST PUSH1 0x1 PUSH0 SWAP1 SLOAD SWAP1 PUSH2 0x100 EXP SWAP1 DIV PUSH1 0xFF AND PUSH2 0x23F6 JUMPI PUSH1 0x40 MLOAD PUSH32 0x8C379A000000000000000000000000000000000000000000000000000000000 DUP2 MSTORE PUSH1 0x4 ADD PUSH2 0x23ED SWAP1 PUSH2 0x3556 JUMP JUMPDEST PUSH1 0x40 MLOAD DUP1 SWAP2 SUB SWAP1 REVERT JUMPDEST PUSH0 PUSH1 0x1 PUSH1 0x2 SWAP1 SLOAD SWAP1 PUSH2 0x100 EXP SWAP1 DIV PUSH20 0xFFFFFFFFFFFFFFFFFFFFFFFFFFFFFFFFFFFFFFFF AND SWAP1 POP PUSH0 PUSH1 0x1 PUSH1 0x2 PUSH2 0x100 EXP DUP2 SLOAD DUP2 PUSH20 0xFFFFFFFFFFFFFFFFFFFFFFFFFFFFFFFFFFFFFFFF MUL NOT AND SWAP1 DUP4 PUSH20 0xFFFFFFFFFFFFFFFFFFFFFFFFFFFFFFFFFFFFFFFF AND MUL OR SWAP1 SSTORE POP PUSH0 PUSH1 0x1 PUSH0 PUSH2 0x100 EXP DUP2 SLOAD DUP2 PUSH1 0xFF MUL NOT AND SWAP1 DUP4 ISZERO ISZERO MUL OR SWAP1 SSTORE POP PUSH2 0x247E PUSH2 0x2641 JUMP JUMPDEST PUSH1 0x5 DUP2 SWAP1 SSTORE POP PUSH0 PUSH20 0xFFFFFFFFFFFFFFFFFFFFFFFFFFFFFFFFFFFFFFFF AND DUP2 PUSH20 0xFFFFFFFFFFFFFFFFFFFFFFFFFFFFFFFFFFFFFFFF AND EQ ISZERO DUP1 ISZERO PUSH2 0x24D6 JUMPI POP PUSH0 DUP2 PUSH20 0xFFFFFFFFFFFFFFFFFFFFFFFFFFFFFFFFFFFFFFFF AND EXTCODESIZE GT JUMPDEST ISZERO PUSH2 0x257C JUMPI DUP1 PUSH20 0xFFFFFFFFFFFFFFFFFFFFFFFFFFFFFFFFFFFFFFFF AND PUSH4 0x38FB27BA ADDRESS PUSH1 0x40 MLOAD DUP3 PUSH4 0xFFFFFFFF AND PUSH1 0xE0 SHL DUP2 MSTORE PUSH1 0x4 ADD PUSH2 0x2514 SWAP2 SWAP1 PUSH2 0x26D0 JUMP JUMPDEST PUSH0 PUSH1 0x40 MLOAD DUP1 DUP4 SUB DUP2 PUSH0 DUP8 DUP1 EXTCODESIZE ISZERO DUP1 ISZERO PUSH2 0x252B JUMPI PUSH0 PUSH0 REVERT JUMPDEST POP GAS CALL SWAP3 POP POP POP DUP1 ISZERO PUSH2 0x253C JUMPI POP PUSH1 0x1 JUMPDEST PUSH2 0x257B JUMPI PUSH1 0x40 MLOAD PUSH32 0x8C379A000000000000000000000000000000000000000000000000000000000 DUP2 MSTORE PUSH1 0x4 ADD PUSH2 0x2572 SWAP1 PUSH2 0x35BE JUMP JUMPDEST PUSH1 0x40 MLOAD DUP1 SWAP2 SUB SWAP1 REVERT JUMPDEST JUMPDEST POP JUMP JUMPDEST PUSH0 PUSH1 0x6 SLOAD SWAP1 POP SWAP1 JUMP JUMPDEST PUSH0 PUSH1 0x1 DUP1 SLOAD SWAP1 PUSH2 0x100 EXP SWAP1 DIV PUSH1 0xFF AND SWAP1 POP SWAP1 JUMP JUMPDEST PUSH0 PUSH0 DUP3 PUSH20 0xFFFFFFFFFFFFFFFFFFFFFFFFFFFFFFFFFFFFFFFF AND EXTCODESIZE SUB PUSH2 0x25C3 JUMPI PUSH0 SWAP1 POP PUSH2 0x263C JUMP JUMPDEST DUP2 PUSH20 0xFFFFFFFFFFFFFFFFFFFFFFFFFFFFFFFFFFFFFFFF AND PUSH4 0xF7EC2F35 PUSH1 0x40 MLOAD DUP2 PUSH4 0xFFFFFFFF AND PUSH1 0xE0 SHL DUP2 MSTORE PUSH1 0x4 ADD PUSH1 0x20 PUSH1 0x40 MLOAD DUP1 DUP4 SUB DUP2 DUP7 GAS STATICCALL SWAP3 POP POP POP DUP1 ISZERO PUSH2 0x262B JUMPI POP PUSH1 0x40 MLOAD RETURNDATASIZE PUSH1 0x1F NOT PUSH1 0x1F DUP3 ADD AND DUP3 ADD DUP1 PUSH1 0x40 MSTORE POP DUP2 ADD SWAP1 PUSH2 0x2628 SWAP2 SWAP1 PUSH2 0x28AD JUMP JUMPDEST PUSH1 0x1 JUMPDEST PUSH2 0x2637 JUMPI PUSH0 SWAP1 POP PUSH2 0x263C JUMP JUMPDEST DUP1 SWAP2 POP POP JUMPDEST SWAP2 SWAP1 POP JUMP JUMPDEST PUSH0 PUSH1 0x41 PUSH0 SLOAD LT PUSH2 0x2655 JUMPI PUSH2 0x1B58 SWAP1 POP PUSH2 0x265B JUMP JUMPDEST PUSH2 0x1388 SWAP1 POP JUMPDEST SWAP1 JUMP JUMPDEST PUSH0 DUP2 ISZERO ISZERO SWAP1 POP SWAP2 SWAP1 POP JUMP JUMPDEST PUSH2 0x2672 DUP2 PUSH2 0x265E JUMP JUMPDEST DUP3 MSTORE POP POP JUMP JUMPDEST PUSH0 PUSH1 0x20 DUP3 ADD SWAP1 POP PUSH2 0x268B PUSH0 DUP4 ADD DUP5 PUSH2 0x2669 JUMP JUMPDEST SWAP3 SWAP2 POP POP JUMP JUMPDEST PUSH0 PUSH20 0xFFFFFFFFFFFFFFFFFFFFFFFFFFFFFFFFFFFFFFFF DUP3 AND SWAP1 POP SWAP2 SWAP1 POP JUMP JUMPDEST PUSH0 PUSH2 0x26BA DUP3 PUSH2 0x2691 JUMP JUMPDEST SWAP1 POP SWAP2 SWAP1 POP JUMP JUMPDEST PUSH2 0x26CA DUP2 PUSH2 0x26B0 JUMP JUMPDEST DUP3 MSTORE POP POP JUMP JUMPDEST PUSH0 PUSH1 0x20 DUP3 ADD SWAP1 POP PUSH2 0x26E3 PUSH0 DUP4 ADD DUP5 PUSH2 0x26C1 JUMP JUMPDEST SWAP3 SWAP2 POP POP JUMP JUMPDEST PUSH0 PUSH0 REVERT JUMPDEST PUSH2 0x26F6 DUP2 PUSH2 0x26B0 JUMP JUMPDEST DUP2 EQ PUSH2 0x2700 JUMPI PUSH0 PUSH0 REVERT JUMPDEST POP JUMP JUMPDEST PUSH0 DUP2 CALLDATALOAD SWAP1 POP PUSH2 0x2711 DUP2 PUSH2 0x26ED JUMP JUMPDEST SWAP3 SWAP2 POP POP JUMP JUMPDEST PUSH0 DUP2 SWAP1 POP SWAP2 SWAP1 POP JUMP JUMPDEST PUSH2 0x2729 DUP2 PUSH2 0x2717 JUMP JUMPDEST DUP2 EQ PUSH2 0x2733 JUMPI PUSH0 PUSH0 REVERT JUMPDEST POP JUMP JUMPDEST PUSH0 DUP2 CALLDATALOAD SWAP1 POP PUSH2 0x2744 DUP2 PUSH2 0x2720 JUMP JUMPDEST SWAP3 SWAP2 POP POP JUMP JUMPDEST PUSH0 PUSH0 PUSH1 0x40 DUP4 DUP6 SUB SLT ISZERO PUSH2 0x2760 JUMPI PUSH2 0x275F PUSH2 0x26E9 JUMP JUMPDEST JUMPDEST PUSH0 PUSH2 0x276D DUP6 DUP3 DUP7 ADD PUSH2 0x2703 JUMP JUMPDEST SWAP3 POP POP PUSH1 0x20 PUSH2 0x277E DUP6 DUP3 DUP7 ADD PUSH2 0x2736 JUMP JUMPDEST SWAP2 POP POP SWAP3 POP SWAP3 SWAP1 POP JUMP JUMPDEST PUSH0 PUSH1 0x20 DUP3 DUP5 SUB SLT ISZERO PUSH2 0x279D JUMPI PUSH2 0x279C PUSH2 0x26E9 JUMP JUMPDEST JUMPDEST PUSH0 PUSH2 0x27AA DUP5 DUP3 DUP6 ADD PUSH2 0x2736 JUMP JUMPDEST SWAP2 POP POP SWAP3 SWAP2 POP POP JUMP JUMPDEST PUSH0 PUSH0 PUSH1 0x40 DUP4 DUP6 SUB SLT ISZERO PUSH2 0x27C9 JUMPI PUSH2 0x27C8 PUSH2 0x26E9 JUMP JUMPDEST JUMPDEST PUSH0 PUSH2 0x27D6 DUP6 DUP3 DUP7 ADD PUSH2 0x2736 JUMP JUMPDEST SWAP3 POP POP PUSH1 0x20 PUSH2 0x27E7 DUP6 DUP3 DUP7 ADD PUSH2 0x2703 JUMP JUMPDEST SWAP2 POP POP SWAP3 POP SWAP3 SWAP1 POP JUMP JUMPDEST PUSH0 PUSH1 0x20 DUP3 DUP5 SUB SLT ISZERO PUSH2 0x2806 JUMPI PUSH2 0x2805 PUSH2 0x26E9 JUMP JUMPDEST JUMPDEST PUSH0 PUSH2 0x2813 DUP5 DUP3 DUP6 ADD PUSH2 0x2703 JUMP JUMPDEST SWAP2 POP POP SWAP3 SWAP2 POP POP JUMP JUMPDEST PUSH2 0x2825 DUP2 PUSH2 0x2717 JUMP JUMPDEST DUP3 MSTORE POP POP JUMP JUMPDEST PUSH0 PUSH1 0x20 DUP3 ADD SWAP1 POP PUSH2 0x283E PUSH0 DUP4 ADD DUP5 PUSH2 0x281C JUMP JUMPDEST SWAP3 SWAP2 POP POP JUMP JUMPDEST PUSH0 DUP2 MLOAD SWAP1 POP PUSH2 0x2852 DUP2 PUSH2 0x26ED JUMP JUMPDEST SWAP3 SWAP2 POP POP JUMP JUMPDEST PUSH0 PUSH1 0x20 DUP3 DUP5 SUB SLT ISZERO PUSH2 0x286D JUMPI PUSH2 0x286C PUSH2 0x26E9 JUMP JUMPDEST JUMPDEST PUSH0 PUSH2 0x287A DUP5 DUP3 DUP6 ADD PUSH2 0x2844 JUMP JUMPDEST SWAP2 POP POP SWAP3 SWAP2 POP POP JUMP JUMPDEST PUSH2 0x288C DUP2 PUSH2 0x265E JUMP JUMPDEST DUP2 EQ PUSH2 0x2896 JUMPI PUSH0 PUSH0 REVERT JUMPDEST POP JUMP JUMPDEST PUSH0 DUP2 MLOAD SWAP1 POP PUSH2 0x28A7 DUP2 PUSH2 0x2883 JUMP JUMPDEST SWAP3 SWAP2 POP POP JUMP JUMPDEST PUSH0 PUSH1 0x20 DUP3 DUP5 SUB SLT ISZERO PUSH2 0x28C2 JUMPI PUSH2 0x28C1 PUSH2 0x26E9 JUMP JUMPDEST JUMPDEST PUSH0 PUSH2 0x28CF DUP5 DUP3 DUP6 ADD PUSH2 0x2899 JUMP JUMPDEST SWAP2 POP POP SWAP3 SWAP2 POP POP JUMP JUMPDEST PUSH0 DUP3 DUP3 MSTORE PUSH1 0x20 DUP3 ADD SWAP1 POP SWAP3 SWAP2 POP POP JUMP JUMPDEST PUSH32 0x4F6E6C79206F776E657200000000000000000000000000000000000000000000 PUSH0 DUP3 ADD MSTORE POP JUMP JUMPDEST PUSH0 PUSH2 0x291C PUSH1 0xA DUP4 PUSH2 0x28D8 JUMP JUMPDEST SWAP2 POP PUSH2 0x2927 DUP3 PUSH2 0x28E8 JUMP JUMPDEST PUSH1 0x20 DUP3 ADD SWAP1 POP SWAP2 SWAP1 POP JUMP JUMPDEST PUSH0 PUSH1 0x20 DUP3 ADD SWAP1 POP DUP2 DUP2 SUB PUSH0 DUP4 ADD MSTORE PUSH2 0x2949 DUP2 PUSH2 0x2910 JUMP JUMPDEST SWAP1 POP SWAP2 SWAP1 POP JUMP JUMPDEST PUSH32 0x496E76616C6964206C6F74000000000000000000000000000000000000000000 PUSH0 DUP3 ADD MSTORE POP JUMP JUMPDEST PUSH0 PUSH2 0x2984 PUSH1 0xB DUP4 PUSH2 0x28D8 JUMP JUMPDEST SWAP2 POP PUSH2 0x298F DUP3 PUSH2 0x2950 JUMP JUMPDEST PUSH1 0x20 DUP3 ADD SWAP1 POP SWAP2 SWAP1 POP JUMP JUMPDEST PUSH0 PUSH1 0x20 DUP3 ADD SWAP1 POP DUP2 DUP2 SUB PUSH0 DUP4 ADD MSTORE PUSH2 0x29B1 DUP2 PUSH2 0x2978 JUMP JUMPDEST SWAP1 POP SWAP2 SWAP1 POP JUMP JUMPDEST PUSH32 0x4E6F20636F6D6D69747465642072657665616C00000000000000000000000000 PUSH0 DUP3 ADD MSTORE POP JUMP JUMPDEST PUSH0 PUSH2 0x29EC PUSH1 0x13 DUP4 PUSH2 0x28D8 JUMP JUMPDEST SWAP2 POP PUSH2 0x29F7 DUP3 PUSH2 0x29B8 JUMP JUMPDEST PUSH1 0x20 DUP3 ADD SWAP1 POP SWAP2 SWAP1 POP JUMP JUMPDEST PUSH0 PUSH1 0x20 DUP3 ADD SWAP1 POP DUP2 DUP2 SUB PUSH0 DUP4 ADD MSTORE PUSH2 0x2A19 DUP2 PUSH2 0x29E0 JUMP JUMPDEST SWAP1 POP SWAP2 SWAP1 POP JUMP JUMPDEST PUSH32 0x4C6F74746572792072657665616C206661696C65640000000000000000000000 PUSH0 DUP3 ADD MSTORE POP JUMP JUMPDEST PUSH0 PUSH2 0x2A54 PUSH1 0x15 DUP4 PUSH2 0x28D8 JUMP JUMPDEST SWAP2 POP PUSH2 0x2A5F DUP3 PUSH2 0x2A20 JUMP JUMPDEST PUSH1 0x20 DUP3 ADD SWAP1 POP SWAP2 SWAP1 POP JUMP JUMPDEST PUSH0 PUSH1 0x20 DUP3 ADD SWAP1 POP DUP2 DUP2 SUB PUSH0 DUP4 ADD MSTORE PUSH2 0x2A81 DUP2 PUSH2 0x2A48 JUMP JUMPDEST SWAP1 POP SWAP2 SWAP1 POP JUMP JUMPDEST PUSH32 0x4E6F7420617574686F72697A656420746F2073657420616C6C6F77616E636500 PUSH0 DUP3 ADD MSTORE POP JUMP JUMPDEST PUSH0 PUSH2 0x2ABC PUSH1 0x1F DUP4 PUSH2 0x28D8 JUMP JUMPDEST SWAP2 POP PUSH2 0x2AC7 DUP3 PUSH2 0x2A88 JUMP JUMPDEST PUSH1 0x20 DUP3 ADD SWAP1 POP SWAP2 SWAP1 POP JUMP JUMPDEST PUSH0 PUSH1 0x20 DUP3 ADD SWAP1 POP DUP2 DUP2 SUB PUSH0 DUP4 ADD MSTORE PUSH2 0x2AE9 DUP2 PUSH2 0x2AB0 JUMP JUMPDEST SWAP1 POP SWAP2 SWAP1 POP JUMP JUMPDEST PUSH32 0x4F6E6C792073706F757365206F72206F726967696E0000000000000000000000 PUSH0 DUP3 ADD MSTORE POP JUMP JUMPDEST PUSH0 PUSH2 0x2B24 PUSH1 0x15 DUP4 PUSH2 0x28D8 JUMP JUMPDEST SWAP2 POP PUSH2 0x2B2F DUP3 PUSH2 0x2AF0 JUMP JUMPDEST PUSH1 0x20 DUP3 ADD SWAP1 POP SWAP2 SWAP1 POP JUMP JUMPDEST PUSH0 PUSH1 0x20 DUP3 ADD SWAP1 POP DUP2 DUP2 SUB PUSH0 DUP4 ADD MSTORE PUSH2 0x2B51 DUP2 PUSH2 0x2B18 JUMP JUMPDEST SWAP1 POP SWAP2 SWAP1 POP JUMP JUMPDEST PUSH32 0x4E487B7100000000000000000000000000000000000000000000000000000000 PUSH0 MSTORE PUSH1 0x11 PUSH1 0x4 MSTORE PUSH1 0x24 PUSH0 REVERT JUMPDEST PUSH0 PUSH2 0x2B8F DUP3 PUSH2 0x2717 JUMP JUMPDEST SWAP2 POP PUSH2 0x2B9A DUP4 PUSH2 0x2717 JUMP JUMPDEST SWAP3 POP DUP3 DUP3 ADD SWAP1 POP DUP1 DUP3 GT ISZERO PUSH2 0x2BB2 JUMPI PUSH2 0x2BB1 PUSH2 0x2B58 JUMP JUMPDEST JUMPDEST SWAP3 SWAP2 POP POP JUMP JUMPDEST PUSH0 PUSH2 0x2BC2 DUP3 PUSH2 0x2717 JUMP JUMPDEST SWAP2 POP PUSH32 0xFFFFFFFFFFFFFFFFFFFFFFFFFFFFFFFFFFFFFFFFFFFFFFFFFFFFFFFFFFFFFFFF DUP3 SUB PUSH2 0x2BF4 JUMPI PUSH2 0x2BF3 PUSH2 0x2B58 JUMP JUMPDEST JUMPDEST PUSH1 0x1 DUP3 ADD SWAP1 POP SWAP2 SWAP1 POP JUMP JUMPDEST PUSH32 0x4F6E6C7920706172746E65722063616E206E6F74696679000000000000000000 PUSH0 DUP3 ADD MSTORE POP JUMP JUMPDEST PUSH0 PUSH2 0x2C33 PUSH1 0x17 DUP4 PUSH2 0x28D8 JUMP JUMPDEST SWAP2 POP PUSH2 0x2C3E DUP3 PUSH2 0x2BFF JUMP JUMPDEST PUSH1 0x20 DUP3 ADD SWAP1 POP SWAP2 SWAP1 POP JUMP JUMPDEST PUSH0 PUSH1 0x20 DUP3 ADD SWAP1 POP DUP2 DUP2 SUB PUSH0 DUP4 ADD MSTORE PUSH2 0x2C60 DUP2 PUSH2 0x2C27 JUMP JUMPDEST SWAP1 POP SWAP2 SWAP1 POP JUMP JUMPDEST PUSH0 PUSH2 0x2C71 DUP3 PUSH2 0x2717 JUMP JUMPDEST SWAP2 POP PUSH2 0x2C7C DUP4 PUSH2 0x2717 JUMP JUMPDEST SWAP3 POP DUP3 DUP3 SUB SWAP1 POP DUP2 DUP2 GT ISZERO PUSH2 0x2C94 JUMPI PUSH2 0x2C93 PUSH2 0x2B58 JUMP JUMPDEST JUMPDEST SWAP3 SWAP2 POP POP JUMP JUMPDEST PUSH0 PUSH2 0x2CA4 DUP3 PUSH2 0x2717 JUMP JUMPDEST SWAP2 POP PUSH2 0x2CAF DUP4 PUSH2 0x2717 JUMP JUMPDEST SWAP3 POP DUP3 DUP3 MUL PUSH2 0x2CBD DUP2 PUSH2 0x2717 JUMP JUMPDEST SWAP2 POP DUP3 DUP3 DIV DUP5 EQ DUP4 ISZERO OR PUSH2 0x2CD4 JUMPI PUSH2 0x2CD3 PUSH2 0x2B58 JUMP JUMPDEST JUMPDEST POP SWAP3 SWAP2 POP POP JUMP JUMPDEST PUSH32 0x4E487B7100000000000000000000000000000000000000000000000000000000 PUSH0 MSTORE PUSH1 0x12 PUSH1 0x4 MSTORE PUSH1 0x24 PUSH0 REVERT JUMPDEST PUSH0 PUSH2 0x2D12 DUP3 PUSH2 0x2717 JUMP JUMPDEST SWAP2 POP PUSH2 0x2D1D DUP4 PUSH2 0x2717 JUMP JUMPDEST SWAP3 POP DUP3 PUSH2 0x2D2D JUMPI PUSH2 0x2D2C PUSH2 0x2CDB JUMP JUMPDEST JUMPDEST DUP3 DUP3 DIV SWAP1 POP SWAP3 SWAP2 POP POP JUMP JUMPDEST PUSH32 0x4E6F74206120636F6E7472616374000000000000000000000000000000000000 PUSH0 DUP3 ADD MSTORE POP JUMP JUMPDEST PUSH0 PUSH2 0x2D6C PUSH1 0xE DUP4 PUSH2 0x28D8 JUMP JUMPDEST SWAP2 POP PUSH2 0x2D77 DUP3 PUSH2 0x2D38 JUMP JUMPDEST PUSH1 0x20 DUP3 ADD SWAP1 POP SWAP2 SWAP1 POP JUMP JUMPDEST PUSH0 PUSH1 0x20 DUP3 ADD SWAP1 POP DUP2 DUP2 SUB PUSH0 DUP4 ADD MSTORE PUSH2 0x2D99 DUP2 PUSH2 0x2D60 JUMP JUMPDEST SWAP1 POP SWAP2 SWAP1 POP JUMP JUMPDEST PUSH0 DUP2 SWAP1 POP SWAP2 SWAP1 POP JUMP JUMPDEST PUSH2 0x2DB2 DUP2 PUSH2 0x2DA0 JUMP JUMPDEST DUP3 MSTORE POP POP JUMP JUMPDEST PUSH0 PUSH1 0x20 DUP3 ADD SWAP1 POP PUSH2 0x2DCB PUSH0 DUP4 ADD DUP5 PUSH2 0x2DA9 JUMP JUMPDEST SWAP3 SWAP2 POP POP JUMP JUMPDEST PUSH32 0x4C6F747465727920636F6D6D6974206661696C65640000000000000000000000 PUSH0 DUP3 ADD MSTORE POP JUMP JUMPDEST PUSH0 PUSH2 0x2E05 PUSH1 0x15 DUP4 PUSH2 0x28D8 JUMP JUMPDEST SWAP2 POP PUSH2 0x2E10 DUP3 PUSH2 0x2DD1 JUMP JUMPDEST PUSH1 0x20 DUP3 ADD SWAP1 POP SWAP2 SWAP1 POP JUMP JUMPDEST PUSH0 PUSH1 0x20 DUP3 ADD SWAP1 POP DUP2 DUP2 SUB PUSH0 DUP4 ADD MSTORE PUSH2 0x2E32 DUP2 PUSH2 0x2DF9 JUMP JUMPDEST SWAP1 POP SWAP2 SWAP1 POP JUMP JUMPDEST PUSH32 0x4E6F2073706F7573650000000000000000000000000000000000000000000000 PUSH0 DUP3 ADD MSTORE POP JUMP JUMPDEST PUSH0 PUSH2 0x2E6D PUSH1 0x9 DUP4 PUSH2 0x28D8 JUMP JUMPDEST SWAP2 POP PUSH2 0x2E78 DUP3 PUSH2 0x2E39 JUMP JUMPDEST PUSH1 0x20 DUP3 ADD SWAP1 POP SWAP2 SWAP1 POP JUMP JUMPDEST PUSH0 PUSH1 0x20 DUP3 ADD SWAP1 POP DUP2 DUP2 SUB PUSH0 DUP4 ADD MSTORE PUSH2 0x2E9A DUP2 PUSH2 0x2E61 JUMP JUMPDEST SWAP1 POP SWAP2 SWAP1 POP JUMP JUMPDEST PUSH32 0x5A65726F206368616E6765000000000000000000000000000000000000000000 PUSH0 DUP3 ADD MSTORE POP JUMP JUMPDEST PUSH0 PUSH2 0x2ED5 PUSH1 0xB DUP4 PUSH2 0x28D8 JUMP JUMPDEST SWAP2 POP PUSH2 0x2EE0 DUP3 PUSH2 0x2EA1 JUMP JUMPDEST PUSH1 0x20 DUP3 ADD SWAP1 POP SWAP2 SWAP1 POP JUMP JUMPDEST PUSH0 PUSH1 0x20 DUP3 ADD SWAP1 POP DUP2 DUP2 SUB PUSH0 DUP4 ADD MSTORE PUSH2 0x2F02 DUP2 PUSH2 0x2EC9 JUMP JUMPDEST SWAP1 POP SWAP2 SWAP1 POP JUMP JUMPDEST PUSH32 0x4E6F7420656E6F75676820616C6C6F77616E6365000000000000000000000000 PUSH0 DUP3 ADD MSTORE POP JUMP JUMPDEST PUSH0 PUSH2 0x2F3D PUSH1 0x14 DUP4 PUSH2 0x28D8 JUMP JUMPDEST SWAP2 POP PUSH2 0x2F48 DUP3 PUSH2 0x2F09 JUMP JUMPDEST PUSH1 0x20 DUP3 ADD SWAP1 POP SWAP2 SWAP1 POP JUMP JUMPDEST PUSH0 PUSH1 0x20 DUP3 ADD SWAP1 POP DUP2 DUP2 SUB PUSH0 DUP4 ADD MSTORE PUSH2 0x2F6A DUP2 PUSH2 0x2F31 JUMP JUMPDEST SWAP1 POP SWAP2 SWAP1 POP JUMP JUMPDEST PUSH0 PUSH1 0x40 DUP3 ADD SWAP1 POP PUSH2 0x2F84 PUSH0 DUP4 ADD DUP6 PUSH2 0x281C JUMP JUMPDEST PUSH2 0x2F91 PUSH1 0x20 DUP4 ADD DUP5 PUSH2 0x26C1 JUMP JUMPDEST SWAP4 SWAP3 POP POP POP JUMP JUMPDEST PUSH32 0x4661696C656420746F207472616E736665722073706F75736500000000000000 PUSH0 DUP3 ADD MSTORE POP JUMP JUMPDEST PUSH0 PUSH2 0x2FCC PUSH1 0x19 DUP4 PUSH2 0x28D8 JUMP JUMPDEST SWAP2 POP PUSH2 0x2FD7 DUP3 PUSH2 0x2F98 JUMP JUMPDEST PUSH1 0x20 DUP3 ADD SWAP1 POP SWAP2 SWAP1 POP JUMP JUMPDEST PUSH0 PUSH1 0x20 DUP3 ADD SWAP1 POP DUP2 DUP2 SUB PUSH0 DUP4 ADD MSTORE PUSH2 0x2FF9 DUP2 PUSH2 0x2FC0 JUMP JUMPDEST SWAP1 POP SWAP2 SWAP1 POP JUMP JUMPDEST PUSH2 0x3009 DUP2 PUSH2 0x2DA0 JUMP JUMPDEST DUP2 EQ PUSH2 0x3013 JUMPI PUSH0 PUSH0 REVERT JUMPDEST POP JUMP JUMPDEST PUSH0 DUP2 MLOAD SWAP1 POP PUSH2 0x3024 DUP2 PUSH2 0x3000 JUMP JUMPDEST SWAP3 SWAP2 POP POP JUMP JUMPDEST PUSH0 PUSH1 0x20 DUP3 DUP5 SUB SLT ISZERO PUSH2 0x303F JUMPI PUSH2 0x303E PUSH2 0x26E9 JUMP JUMPDEST JUMPDEST PUSH0 PUSH2 0x304C DUP5 DUP3 DUP6 ADD PUSH2 0x3016 JUMP JUMPDEST SWAP2 POP POP SWAP3 SWAP2 POP POP JUMP JUMPDEST PUSH32 0x4920616D20616C7265616479206D617272696564000000000000000000000000 PUSH0 DUP3 ADD MSTORE POP JUMP JUMPDEST PUSH0 PUSH2 0x3089 PUSH1 0x14 DUP4 PUSH2 0x28D8 JUMP JUMPDEST SWAP2 POP PUSH2 0x3094 DUP3 PUSH2 0x3055 JUMP JUMPDEST PUSH1 0x20 DUP3 ADD SWAP1 POP SWAP2 SWAP1 POP JUMP JUMPDEST PUSH0 PUSH1 0x20 DUP3 ADD SWAP1 POP DUP2 DUP2 SUB PUSH0 DUP4 ADD MSTORE PUSH2 0x30B6 DUP2 PUSH2 0x307D JUMP JUMPDEST SWAP1 POP SWAP2 SWAP1 POP JUMP JUMPDEST PUSH32 0x53706F7573652063616E6E6F74206265207A65726F2061646472657373000000 PUSH0 DUP3 ADD MSTORE POP JUMP JUMPDEST PUSH0 PUSH2 0x30F1 PUSH1 0x1D DUP4 PUSH2 0x28D8 JUMP JUMPDEST SWAP2 POP PUSH2 0x30FC DUP3 PUSH2 0x30BD JUMP JUMPDEST PUSH1 0x20 DUP3 ADD SWAP1 POP SWAP2 SWAP1 POP JUMP JUMPDEST PUSH0 PUSH1 0x20 DUP3 ADD SWAP1 POP DUP2 DUP2 SUB PUSH0 DUP4 ADD MSTORE PUSH2 0x311E DUP2 PUSH2 0x30E5 JUMP JUMPDEST SWAP1 POP SWAP2 SWAP1 POP JUMP JUMPDEST PUSH32 0x43616E6E6F74206D61727279206D7973656C6600000000000000000000000000 PUSH0 DUP3 ADD MSTORE POP JUMP JUMPDEST PUSH0 PUSH2 0x3159 PUSH1 0x13 DUP4 PUSH2 0x28D8 JUMP JUMPDEST SWAP2 POP PUSH2 0x3164 DUP3 PUSH2 0x3125 JUMP JUMPDEST PUSH1 0x20 DUP3 ADD SWAP1 POP SWAP2 SWAP1 POP JUMP JUMPDEST PUSH0 PUSH1 0x20 DUP3 ADD SWAP1 POP DUP2 DUP2 SUB PUSH0 DUP4 ADD MSTORE PUSH2 0x3186 DUP2 PUSH2 0x314D JUMP JUMPDEST SWAP1 POP SWAP2 SWAP1 POP JUMP JUMPDEST PUSH32 0x43616E6E6F74206D61727279206F776E65723F00000000000000000000000000 PUSH0 DUP3 ADD MSTORE POP JUMP JUMPDEST PUSH0 PUSH2 0x31C1 PUSH1 0x13 DUP4 PUSH2 0x28D8 JUMP JUMPDEST SWAP2 POP PUSH2 0x31CC DUP3 PUSH2 0x318D JUMP JUMPDEST PUSH1 0x20 DUP3 ADD SWAP1 POP SWAP2 SWAP1 POP JUMP JUMPDEST PUSH0 PUSH1 0x20 DUP3 ADD SWAP1 POP DUP2 DUP2 SUB PUSH0 DUP4 ADD MSTORE PUSH2 0x31EE DUP2 PUSH2 0x31B5 JUMP JUMPDEST SWAP1 POP SWAP2 SWAP1 POP JUMP JUMPDEST PUSH32 0x53706F757365206D757374206265206120636F6E747261637400000000000000 PUSH0 DUP3 ADD MSTORE POP JUMP JUMPDEST PUSH0 PUSH2 0x3229 PUSH1 0x19 DUP4 PUSH2 0x28D8 JUMP JUMPDEST SWAP2 POP PUSH2 0x3234 DUP3 PUSH2 0x31F5 JUMP JUMPDEST PUSH1 0x20 DUP3 ADD SWAP1 POP SWAP2 SWAP1 POP JUMP JUMPDEST PUSH0 PUSH1 0x20 DUP3 ADD SWAP1 POP DUP2 DUP2 SUB PUSH0 DUP4 ADD MSTORE PUSH2 0x3256 DUP2 PUSH2 0x321D JUMP JUMPDEST SWAP1 POP SWAP2 SWAP1 POP JUMP JUMPDEST PUSH32 0x53706F757365206E6F7420636F6D70617469626C650000000000000000000000 PUSH0 DUP3 ADD MSTORE POP JUMP JUMPDEST PUSH0 PUSH2 0x3291 PUSH1 0x15 DUP4 PUSH2 0x28D8 JUMP JUMPDEST SWAP2 POP PUSH2 0x329C DUP3 PUSH2 0x325D JUMP JUMPDEST PUSH1 0x20 DUP3 ADD SWAP1 POP SWAP2 SWAP1 POP JUMP JUMPDEST PUSH0 PUSH1 0x20 DUP3 ADD SWAP1 POP DUP2 DUP2 SUB PUSH0 DUP4 ADD MSTORE PUSH2 0x32BE DUP2 PUSH2 0x3285 JUMP JUMPDEST SWAP1 POP SWAP2 SWAP1 POP JUMP JUMPDEST PUSH32 0x53706F75736520616C7265616479206D61727269656400000000000000000000 PUSH0 DUP3 ADD MSTORE POP JUMP JUMPDEST PUSH0 PUSH2 0x32F9 PUSH1 0x16 DUP4 PUSH2 0x28D8 JUMP JUMPDEST SWAP2 POP PUSH2 0x3304 DUP3 PUSH2 0x32C5 JUMP JUMPDEST PUSH1 0x20 DUP3 ADD SWAP1 POP SWAP2 SWAP1 POP JUMP JUMPDEST PUSH0 PUSH1 0x20 DUP3 ADD SWAP1 POP DUP2 DUP2 SUB PUSH0 DUP4 ADD MSTORE PUSH2 0x3326 DUP2 PUSH2 0x32ED JUMP JUMPDEST SWAP1 POP SWAP2 SWAP1 POP JUMP JUMPDEST PUSH32 0x4661696C656420746F2075706461746520706172746E65720000000000000000 PUSH0 DUP3 ADD MSTORE POP JUMP JUMPDEST PUSH0 PUSH2 0x3361 PUSH1 0x18 DUP4 PUSH2 0x28D8 JUMP JUMPDEST SWAP2 POP PUSH2 0x336C DUP3 PUSH2 0x332D JUMP JUMPDEST PUSH1 0x20 DUP3 ADD SWAP1 POP SWAP2 SWAP1 POP JUMP JUMPDEST PUSH0 PUSH1 0x20 DUP3 ADD SWAP1 POP DUP2 DUP2 SUB PUSH0 DUP4 ADD MSTORE PUSH2 0x338E DUP2 PUSH2 0x3355 JUMP JUMPDEST SWAP1 POP SWAP2 SWAP1 POP JUMP JUMPDEST PUSH0 DUP2 MLOAD SWAP1 POP PUSH2 0x33A3 DUP2 PUSH2 0x2720 JUMP JUMPDEST SWAP3 SWAP2 POP POP JUMP JUMPDEST PUSH0 PUSH1 0x20 DUP3 DUP5 SUB SLT ISZERO PUSH2 0x33BE JUMPI PUSH2 0x33BD PUSH2 0x26E9 JUMP JUMPDEST JUMPDEST PUSH0 PUSH2 0x33CB DUP5 DUP3 DUP6 ADD PUSH2 0x3395 JUMP JUMPDEST SWAP2 POP POP SWAP3 SWAP2 POP POP JUMP JUMPDEST PUSH32 0x4661696C656420746F2073657420706172746E657220616C6C6F77616E636500 PUSH0 DUP3 ADD MSTORE POP JUMP JUMPDEST PUSH0 PUSH2 0x3408 PUSH1 0x1F DUP4 PUSH2 0x28D8 JUMP JUMPDEST SWAP2 POP PUSH2 0x3413 DUP3 PUSH2 0x33D4 JUMP JUMPDEST PUSH1 0x20 DUP3 ADD SWAP1 POP SWAP2 SWAP1 POP JUMP JUMPDEST PUSH0 PUSH1 0x20 DUP3 ADD SWAP1 POP DUP2 DUP2 SUB PUSH0 DUP4 ADD MSTORE PUSH2 0x3435 DUP2 PUSH2 0x33FC JUMP JUMPDEST SWAP1 POP SWAP2 SWAP1 POP JUMP JUMPDEST PUSH32 0x4F6E6C7920706172746E65722063616E2063616C6C2074686973000000000000 PUSH0 DUP3 ADD MSTORE POP JUMP JUMPDEST PUSH0 PUSH2 0x3470 PUSH1 0x1A DUP4 PUSH2 0x28D8 JUMP JUMPDEST SWAP2 POP PUSH2 0x347B DUP3 PUSH2 0x343C JUMP JUMPDEST PUSH1 0x20 DUP3 ADD SWAP1 POP SWAP2 SWAP1 POP JUMP JUMPDEST PUSH0 PUSH1 0x20 DUP3 ADD SWAP1 POP DUP2 DUP2 SUB PUSH0 DUP4 ADD MSTORE PUSH2 0x349D DUP2 PUSH2 0x3464 JUMP JUMPDEST SWAP1 POP SWAP2 SWAP1 POP JUMP JUMPDEST PUSH32 0x4F6E6C792073706F7573652063616E2073657400000000000000000000000000 PUSH0 DUP3 ADD MSTORE POP JUMP JUMPDEST PUSH0 PUSH2 0x34D8 PUSH1 0x13 DUP4 PUSH2 0x28D8 JUMP JUMPDEST SWAP2 POP PUSH2 0x34E3 DUP3 PUSH2 0x34A4 JUMP JUMPDEST PUSH1 0x20 DUP3 ADD SWAP1 POP SWAP2 SWAP1 POP JUMP JUMPDEST PUSH0 PUSH1 0x20 DUP3 ADD SWAP1 POP DUP2 DUP2 SUB PUSH0 DUP4 ADD MSTORE PUSH2 0x3505 DUP2 PUSH2 0x34CC JUMP JUMPDEST SWAP1 POP SWAP2 SWAP1 POP JUMP JUMPDEST PUSH32 0x4E6F74206D617272696564000000000000000000000000000000000000000000 PUSH0 DUP3 ADD MSTORE POP JUMP JUMPDEST PUSH0 PUSH2 0x3540 PUSH1 0xB DUP4 PUSH2 0x28D8 JUMP JUMPDEST SWAP2 POP PUSH2 0x354B DUP3 PUSH2 0x350C JUMP JUMPDEST PUSH1 0x20 DUP3 ADD SWAP1 POP SWAP2 SWAP1 POP JUMP JUMPDEST PUSH0 PUSH1 0x20 DUP3 ADD SWAP1 POP DUP2 DUP2 SUB PUSH0 DUP4 ADD MSTORE PUSH2 0x356D DUP2 PUSH2 0x3534 JUMP JUMPDEST SWAP1 POP SWAP2 SWAP1 POP JUMP JUMPDEST PUSH32 0x4661696C656420746F206E6F7469667920706172746E65720000000000000000 PUSH0 DUP3 ADD MSTORE POP JUMP JUMPDEST PUSH0 PUSH2 0x35A8 PUSH1 0x18 DUP4 PUSH2 0x28D8 JUMP JUMPDEST SWAP2 POP PUSH2 0x35B3 DUP3 PUSH2 0x3574 JUMP JUMPDEST PUSH1 0x20 DUP3 ADD SWAP1 POP SWAP2 SWAP1 POP JUMP JUMPDEST PUSH0 PUSH1 0x20 DUP3 ADD SWAP1 POP DUP2 DUP2 SUB PUSH0 DUP4 ADD MSTORE PUSH2 0x35D5 DUP2 PUSH2 0x359C JUMP JUMPDEST SWAP1 POP SWAP2 SWAP1 POP JUMP INVALID LOG2 PUSH5 0x6970667358 0x22 SLT KECCAK256 0xE8 EXTCODESIZE DUPN 0xD4 SAR 0xF6 SWAP13 ADDRESS DUP16 DUP3 DUPN 0x15 JUMPF 0xD471 0xC4 0xBE DUP15 0xB8 0xC9 0xA8 NOT CREATE 0xE CODECOPY SLT SWAP16 CALLCODE BALANCE PUSH17 0x2AA664736F6C634300081E003300000000 "
				},
				"gasEstimates": {
					"creation": {
						"codeDepositCost": "2768400",
						"executionCost": "infinite",
						"totalCost": "infinite"
					},
					"external": {
						"applyOAPIfEligible()": "26605",
						"calculateTax(uint256)": "infinite",
						"divorce()": "infinite",
						"echidna_age_allowance_base_consistency_single()": "9106",
						"echidna_commit_consistency(address)": "infinite",
						"echidna_iscontract_is_true()": "2654",
						"echidna_marriage_consistency()": "infinite",
						"echidna_mutual_marriage_and_flags()": "infinite",
						"echidna_no_tax_below_allowance()": "infinite",
						"echidna_not_self_spouse()": "2610",
						"echidna_owner_is_constant()": "infinite",
						"echidna_spousal_allowance_sum_constant()": "infinite",
						"echidna_taxable_non_negative()": "infinite",
						"getAge()": "2498",
						"getDefaultAllowance()": "2610",
						"getIncome()": "2542",
						"getInitialTaxAllowance()": "infinite",
						"getIsMarried()": "2585",
						"getSpouse()": "2635",
						"getTaxAllowance()": "2477",
						"haveBirthday()": "57537",
						"isContract()": "2653",
						"joinLottery(address,uint256)": "infinite",
						"marry(address)": "infinite",
						"notifyDivorceFromPartner(address)": "73413",
						"owner()": "2553",
						"receiveAllowance(uint256,address)": "infinite",
						"revealLottery(address,uint256)": "infinite",
						"setIncome(uint256)": "24797",
						"setSpouse(address)": "24855",
						"setTaxAllowance(uint256)": "infinite",
						"setTaxAllowanceBySpouse(uint256)": "24846",
						"taxableIncome()": "infinite",
						"transferAllowance(uint256)": "infinite",
						"updateMarriageFromPartner(address)": "49184"
					},
					"internal": {
						"determineDefaultAllowance()": "2155",
						"isAuthorizedContract(address)": "infinite"
					}
				},
				"methodIdentifiers": {
					"applyOAPIfEligible()": "1704031e",
					"calculateTax(uint256)": "483a9310",
					"divorce()": "dff44b2f",
					"echidna_age_allowance_base_consistency_single()": "ae81f068",
					"echidna_commit_consistency(address)": "790aa8de",
					"echidna_iscontract_is_true()": "5976d63b",
					"echidna_marriage_consistency()": "27a80e0d",
					"echidna_mutual_marriage_and_flags()": "10731c65",
					"echidna_no_tax_below_allowance()": "a2f1309e",
					"echidna_not_self_spouse()": "dfb986a2",
					"echidna_owner_is_constant()": "4bc96425",
					"echidna_spousal_allowance_sum_constant()": "d852545e",
					"echidna_taxable_non_negative()": "c800409f",
					"getAge()": "967e6e65",
					"getDefaultAllowance()": "594db753",
					"getIncome()": "f247e3de",
					"getInitialTaxAllowance()": "6aa393f8",
					"getIsMarried()": "8bc87745",
					"getSpouse()": "108ece4d",
					"getTaxAllowance()": "c043decc",
					"haveBirthday()": "37f65b79",
					"isContract()": "f7ec2f35",
					"joinLottery(address,uint256)": "4ad8a7ae",
					"marry(address)": "bccb358e",
					"notifyDivorceFromPartner(address)": "38fb27ba",
					"owner()": "8da5cb5b",
					"receiveAllowance(uint256,address)": "308f838a",
					"revealLottery(address,uint256)": "13461762",
					"setIncome(uint256)": "14b95631",
					"setSpouse(address)": "4f0b03f9",
					"setTaxAllowance(uint256)": "25803d64",
					"setTaxAllowanceBySpouse(uint256)": "d25d32b6",
					"taxableIncome()": "3c876c25",
					"transferAllowance(uint256)": "5f68c439",
					"updateMarriageFromPartner(address)": "cb01a92b"
				}
			},
			"storageLayout": {
				"storage": [
					{
						"astId": 212,
						"contract": "Taxpayer.sol:Taxpayer",
						"label": "age",
						"offset": 0,
						"slot": "0",
						"type": "t_uint256"
					},
					{
						"astId": 214,
						"contract": "Taxpayer.sol:Taxpayer",
						"label": "isMarried",
						"offset": 0,
						"slot": "1",
						"type": "t_bool"
					},
					{
						"astId": 216,
						"contract": "Taxpayer.sol:Taxpayer",
						"label": "iscontract",
						"offset": 1,
						"slot": "1",
						"type": "t_bool"
					},
					{
						"astId": 218,
						"contract": "Taxpayer.sol:Taxpayer",
						"label": "spouse",
						"offset": 2,
						"slot": "1",
						"type": "t_address"
					},
					{
						"astId": 220,
						"contract": "Taxpayer.sol:Taxpayer",
						"label": "parent1",
						"offset": 0,
						"slot": "2",
						"type": "t_address"
					},
					{
						"astId": 222,
						"contract": "Taxpayer.sol:Taxpayer",
						"label": "parent2",
						"offset": 0,
						"slot": "3",
						"type": "t_address"
					},
					{
						"astId": 224,
						"contract": "Taxpayer.sol:Taxpayer",
						"label": "owner",
						"offset": 0,
						"slot": "4",
						"type": "t_address"
					},
					{
						"astId": 236,
						"contract": "Taxpayer.sol:Taxpayer",
						"label": "tax_allowance",
						"offset": 0,
						"slot": "5",
						"type": "t_uint256"
					},
					{
						"astId": 238,
						"contract": "Taxpayer.sol:Taxpayer",
						"label": "income",
						"offset": 0,
						"slot": "6",
						"type": "t_uint256"
					},
					{
						"astId": 240,
						"contract": "Taxpayer.sol:Taxpayer",
						"label": "rev",
						"offset": 0,
						"slot": "7",
						"type": "t_uint256"
					}
				],
				"types": {
					"t_address": {
						"encoding": "inplace",
						"label": "address",
						"numberOfBytes": "20"
					},
					"t_bool": {
						"encoding": "inplace",
						"label": "bool",
						"numberOfBytes": "1"
					},
					"t_uint256": {
						"encoding": "inplace",
						"label": "uint256",
						"numberOfBytes": "32"
					}
				}
			},
			"userdoc": {
				"kind": "user",
				"methods": {},
				"version": 1
			}
		}
	}
}