{
	"Lottery.sol": {
		"Lottery": {
			"abi": [
				{
					"inputs": [
						{
							"internalType": "uint256",
							"name": "p",
							"type": "uint256"
						}
					],
					"stateMutability": "nonpayable",
					"type": "constructor"
				},
				{
					"inputs": [
						{
							"internalType": "bytes32",
							"name": "y",
							"type": "bytes32"
						}
					],
					"name": "commit",
					"outputs": [],
					"stateMutability": "nonpayable",
					"type": "function"
				},
				{
					"inputs": [
						{
							"internalType": "address",
							"name": "",
							"type": "address"
						}
					],
					"name": "commits",
					"outputs": [
						{
							"internalType": "bytes32",
							"name": "",
							"type": "bytes32"
						}
					],
					"stateMutability": "view",
					"type": "function"
				},
				{
					"inputs": [],
					"name": "endLottery",
					"outputs": [],
					"stateMutability": "nonpayable",
					"type": "function"
				},
				{
					"inputs": [],
					"name": "isContract",
					"outputs": [
						{
							"internalType": "bool",
							"name": "",
							"type": "bool"
						}
					],
					"stateMutability": "view",
					"type": "function"
				},
				{
					"inputs": [
						{
							"internalType": "uint256",
							"name": "rev",
							"type": "uint256"
						}
					],
					"name": "reveal",
					"outputs": [],
					"stateMutability": "nonpayable",
					"type": "function"
				},
				{
					"inputs": [],
					"name": "startLottery",
					"outputs": [],
					"stateMutability": "nonpayable",
					"type": "function"
				}
			],
			"devdoc": {
				"kind": "dev",
				"methods": {},
				"version": 1
			},
			"evm": {
				"assembly": "    /* \"Lottery.sol\":88:1778  contract Lottery {... */\n  mstore(0x40, 0x80)\n    /* \"Lottery.sol\":366:455  constructor(uint p) {... */\n  callvalue\n  dup1\n  iszero\n  tag_1\n  jumpi\n  revert(0x00, 0x00)\ntag_1:\n  pop\n  mload(0x40)\n  sub(codesize, bytecodeSize)\n  dup1\n  bytecodeSize\n  dup4\n  codecopy\n  dup2\n  dup2\n  add\n  0x40\n  mstore\n  dup2\n  add\n  swap1\n  tag_2\n  swap2\n  swap1\n  tag_3\n  jump\t// in\ntag_2:\n    /* \"Lottery.sol\":399:400  p */\n  dup1\n    /* \"Lottery.sol\":390:396  period */\n  0x07\n    /* \"Lottery.sol\":390:400  period = p */\n  dup2\n  swap1\n  sstore\n  pop\n    /* \"Lottery.sol\":416:417  0 */\n  0x00\n    /* \"Lottery.sol\":404:413  startTime */\n  0x04\n    /* \"Lottery.sol\":404:417  startTime = 0 */\n  dup2\n  swap1\n  sstore\n  pop\n    /* \"Lottery.sol\":431:432  0 */\n  0x00\n    /* \"Lottery.sol\":421:428  endTime */\n  0x06\n    /* \"Lottery.sol\":421:432  endTime = 0 */\n  dup2\n  swap1\n  sstore\n  pop\n    /* \"Lottery.sol\":447:451  true */\n  0x01\n    /* \"Lottery.sol\":436:446  iscontract */\n  0x08\n  0x00\n    /* \"Lottery.sol\":436:451  iscontract=true */\n  0x0100\n  exp\n  dup2\n  sload\n  dup2\n  0xff\n  mul\n  not\n  and\n  swap1\n  dup4\n  iszero\n  iszero\n  mul\n  or\n  swap1\n  sstore\n  pop\n    /* \"Lottery.sol\":366:455  constructor(uint p) {... */\n  pop\n    /* \"Lottery.sol\":88:1778  contract Lottery {... */\n  jump(tag_6)\n    /* \"#utility.yul\":88:205   */\ntag_8:\n    /* \"#utility.yul\":197:198   */\n  0x00\n    /* \"#utility.yul\":194:195   */\n  0x00\n    /* \"#utility.yul\":187:199   */\n  revert\n    /* \"#utility.yul\":334:411   */\ntag_10:\n    /* \"#utility.yul\":371:378   */\n  0x00\n    /* \"#utility.yul\":400:405   */\n  dup2\n    /* \"#utility.yul\":389:405   */\n  swap1\n  pop\n    /* \"#utility.yul\":334:411   */\n  swap2\n  swap1\n  pop\n  jump\t// out\n    /* \"#utility.yul\":417:539   */\ntag_11:\n    /* \"#utility.yul\":490:514   */\n  tag_19\n    /* \"#utility.yul\":508:513   */\n  dup2\n    /* \"#utility.yul\":490:514   */\n  tag_10\n  jump\t// in\ntag_19:\n    /* \"#utility.yul\":483:488   */\n  dup2\n    /* \"#utility.yul\":480:515   */\n  eq\n    /* \"#utility.yul\":470:533   */\n  tag_20\n  jumpi\n    /* \"#utility.yul\":529:530   */\n  0x00\n    /* \"#utility.yul\":526:527   */\n  0x00\n    /* \"#utility.yul\":519:531   */\n  revert\n    /* \"#utility.yul\":470:533   */\ntag_20:\n    /* \"#utility.yul\":417:539   */\n  pop\n  jump\t// out\n    /* \"#utility.yul\":545:688   */\ntag_12:\n    /* \"#utility.yul\":602:607   */\n  0x00\n    /* \"#utility.yul\":633:639   */\n  dup2\n    /* \"#utility.yul\":627:640   */\n  mload\n    /* \"#utility.yul\":618:640   */\n  swap1\n  pop\n    /* \"#utility.yul\":649:682   */\n  tag_22\n    /* \"#utility.yul\":676:681   */\n  dup2\n    /* \"#utility.yul\":649:682   */\n  tag_11\n  jump\t// in\ntag_22:\n    /* \"#utility.yul\":545:688   */\n  swap3\n  swap2\n  pop\n  pop\n  jump\t// out\n    /* \"#utility.yul\":694:1045   */\ntag_3:\n    /* \"#utility.yul\":764:770   */\n  0x00\n    /* \"#utility.yul\":813:815   */\n  0x20\n    /* \"#utility.yul\":801:810   */\n  dup3\n    /* \"#utility.yul\":792:799   */\n  dup5\n    /* \"#utility.yul\":788:811   */\n  sub\n    /* \"#utility.yul\":784:816   */\n  slt\n    /* \"#utility.yul\":781:900   */\n  iszero\n  tag_24\n  jumpi\n    /* \"#utility.yul\":819:898   */\n  tag_25\n  tag_8\n  jump\t// in\ntag_25:\n    /* \"#utility.yul\":781:900   */\ntag_24:\n    /* \"#utility.yul\":939:940   */\n  0x00\n    /* \"#utility.yul\":964:1028   */\n  tag_26\n    /* \"#utility.yul\":1020:1027   */\n  dup5\n    /* \"#utility.yul\":1011:1017   */\n  dup3\n    /* \"#utility.yul\":1000:1009   */\n  dup6\n    /* \"#utility.yul\":996:1018   */\n  add\n    /* \"#utility.yul\":964:1028   */\n  tag_12\n  jump\t// in\ntag_26:\n    /* \"#utility.yul\":954:1028   */\n  swap2\n  pop\n    /* \"#utility.yul\":910:1038   */\n  pop\n    /* \"#utility.yul\":694:1045   */\n  swap3\n  swap2\n  pop\n  pop\n  jump\t// out\n    /* \"Lottery.sol\":88:1778  contract Lottery {... */\ntag_6:\n  dataSize(sub_0)\n  dup1\n  dataOffset(sub_0)\n  0x00\n  codecopy\n  0x00\n  return\nstop\n\nsub_0: assembly {\n        /* \"Lottery.sol\":88:1778  contract Lottery {... */\n      mstore(0x40, 0x80)\n      callvalue\n      dup1\n      iszero\n      tag_1\n      jumpi\n      revert(0x00, 0x00)\n    tag_1:\n      pop\n      jumpi(tag_2, lt(calldatasize, 0x04))\n      shr(0xe0, calldataload(0x00))\n      dup1\n      0x1593a8c7\n      eq\n      tag_3\n      jumpi\n      dup1\n      0x160344e2\n      eq\n      tag_4\n      jumpi\n      dup1\n      0x7b43a8e6\n      eq\n      tag_5\n      jumpi\n      dup1\n      0xc2ca0ac5\n      eq\n      tag_6\n      jumpi\n      dup1\n      0xf14fcbc8\n      eq\n      tag_7\n      jumpi\n      dup1\n      0xf7ec2f35\n      eq\n      tag_8\n      jumpi\n    tag_2:\n      revert(0x00, 0x00)\n        /* \"Lottery.sol\":1313:1683  function endLottery() public {... */\n    tag_3:\n      tag_9\n      tag_10\n      jump\t// in\n    tag_9:\n      stop\n        /* \"Lottery.sol\":522:837  function startLottery() public {... */\n    tag_4:\n      tag_11\n      tag_12\n      jump\t// in\n    tag_11:\n      stop\n        /* \"Lottery.sol\":122:165  mapping (address => bytes32) public commits */\n    tag_5:\n      tag_13\n      0x04\n      dup1\n      calldatasize\n      sub\n      dup2\n      add\n      swap1\n      tag_14\n      swap2\n      swap1\n      tag_15\n      jump\t// in\n    tag_14:\n      tag_16\n      jump\t// in\n    tag_13:\n      mload(0x40)\n      tag_17\n      swap2\n      swap1\n      tag_18\n      jump\t// in\n    tag_17:\n      mload(0x40)\n      dup1\n      swap2\n      sub\n      swap1\n      return\n        /* \"Lottery.sol\":1060:1268  function reveal(uint256 rev) public {... */\n    tag_6:\n      tag_19\n      0x04\n      dup1\n      calldatasize\n      sub\n      dup2\n      add\n      swap1\n      tag_20\n      swap2\n      swap1\n      tag_21\n      jump\t// in\n    tag_20:\n      tag_22\n      jump\t// in\n    tag_19:\n      stop\n        /* \"Lottery.sol\":878:983  function commit(bytes32 y) public {... */\n    tag_7:\n      tag_23\n      0x04\n      dup1\n      calldatasize\n      sub\n      dup2\n      add\n      swap1\n      tag_24\n      swap2\n      swap1\n      tag_25\n      jump\t// in\n    tag_24:\n      tag_26\n      jump\t// in\n    tag_23:\n      stop\n        /* \"Lottery.sol\":1687:1763  function isContract() public view returns(bool) {... */\n    tag_8:\n      tag_27\n      tag_28\n      jump\t// in\n    tag_27:\n      mload(0x40)\n      tag_29\n      swap2\n      swap1\n      tag_30\n      jump\t// in\n    tag_29:\n      mload(0x40)\n      dup1\n      swap2\n      sub\n      swap1\n      return\n        /* \"Lottery.sol\":1313:1683  function endLottery() public {... */\n    tag_10:\n        /* \"Lottery.sol\":1373:1380  endTime */\n      sload(0x06)\n        /* \"Lottery.sol\":1354:1369  block.timestamp */\n      timestamp\n        /* \"Lottery.sol\":1354:1380  block.timestamp >= endTime */\n      lt\n      iszero\n        /* \"Lottery.sol\":1346:1406  require(block.timestamp >= endTime, \"Lottery not ended yet\") */\n      tag_32\n      jumpi\n      mload(0x40)\n      0x08c379a000000000000000000000000000000000000000000000000000000000\n      dup2\n      mstore\n      0x04\n      add\n      tag_33\n      swap1\n      tag_34\n      jump\t// in\n    tag_33:\n      mload(0x40)\n      dup1\n      swap2\n      sub\n      swap1\n      revert\n    tag_32:\n        /* \"Lottery.sol\":1413:1423  uint total */\n      0x00\n        /* \"Lottery.sol\":1426:1427  0 */\n      0x00\n        /* \"Lottery.sol\":1413:1427  uint total = 0 */\n      swap1\n      pop\n        /* \"Lottery.sol\":1437:1443  uint i */\n      0x00\n        /* \"Lottery.sol\":1446:1447  0 */\n      0x00\n        /* \"Lottery.sol\":1437:1447  uint i = 0 */\n      swap1\n      pop\n        /* \"Lottery.sol\":1432:1507  for (uint i = 0; i < revealed.length; i++)... */\n    tag_35:\n        /* \"Lottery.sol\":1453:1461  revealed */\n      0x03\n        /* \"Lottery.sol\":1453:1468  revealed.length */\n      dup1\n      sload\n      swap1\n      pop\n        /* \"Lottery.sol\":1449:1450  i */\n      dup2\n        /* \"Lottery.sol\":1449:1468  i < revealed.length */\n      lt\n        /* \"Lottery.sol\":1432:1507  for (uint i = 0; i < revealed.length; i++)... */\n      iszero\n      tag_36\n      jumpi\n        /* \"Lottery.sol\":1487:1494  reveals */\n      0x02\n        /* \"Lottery.sol\":1487:1507  reveals[revealed[i]] */\n      0x00\n        /* \"Lottery.sol\":1495:1503  revealed */\n      0x03\n        /* \"Lottery.sol\":1504:1505  i */\n      dup4\n        /* \"Lottery.sol\":1495:1506  revealed[i] */\n      dup2\n      sload\n      dup2\n      lt\n      tag_38\n      jumpi\n      tag_39\n      tag_40\n      jump\t// in\n    tag_39:\n    tag_38:\n      swap1\n      0x00\n      mstore\n      keccak256(0x00, 0x20)\n      add\n      0x00\n      swap1\n      sload\n      swap1\n      0x0100\n      exp\n      swap1\n      div\n      0xffffffffffffffffffffffffffffffffffffffff\n      and\n        /* \"Lottery.sol\":1487:1507  reveals[revealed[i]] */\n      0xffffffffffffffffffffffffffffffffffffffff\n      and\n      0xffffffffffffffffffffffffffffffffffffffff\n      and\n      dup2\n      mstore\n      0x20\n      add\n      swap1\n      dup2\n      mstore\n      0x20\n      add\n      0x00\n      keccak256\n      sload\n        /* \"Lottery.sol\":1479:1507  total+= reveals[revealed[i]] */\n      dup3\n      tag_42\n      swap2\n      swap1\n      tag_43\n      jump\t// in\n    tag_42:\n      swap2\n      pop\n        /* \"Lottery.sol\":1470:1473  i++ */\n      dup1\n      dup1\n      0x01\n      add\n      swap2\n      pop\n      pop\n        /* \"Lottery.sol\":1432:1507  for (uint i = 0; i < revealed.length; i++)... */\n      jump(tag_35)\n    tag_36:\n      pop\n        /* \"Lottery.sol\":1577:1585  revealed */\n      0x03\n        /* \"Lottery.sol\":1592:1600  revealed */\n      dup1\n        /* \"Lottery.sol\":1592:1607  revealed.length */\n      dup1\n      sload\n      swap1\n      pop\n        /* \"Lottery.sol\":1586:1591  total */\n      dup3\n        /* \"Lottery.sol\":1586:1607  total%revealed.length */\n      tag_44\n      swap2\n      swap1\n      tag_45\n      jump\t// in\n    tag_44:\n        /* \"Lottery.sol\":1577:1608  revealed[total%revealed.length] */\n      dup2\n      sload\n      dup2\n      lt\n      tag_46\n      jumpi\n      tag_47\n      tag_40\n      jump\t// in\n    tag_47:\n    tag_46:\n      swap1\n      0x00\n      mstore\n      keccak256(0x00, 0x20)\n      add\n      0x00\n      swap1\n      sload\n      swap1\n      0x0100\n      exp\n      swap1\n      div\n      0xffffffffffffffffffffffffffffffffffffffff\n      and\n        /* \"Lottery.sol\":1568:1625  Taxpayer(revealed[total%revealed.length]).setTaxAllowance */\n      0xffffffffffffffffffffffffffffffffffffffff\n      and\n      0x25803d64\n        /* \"Lottery.sol\":1626:1630  9000 */\n      0x2328\n        /* \"Lottery.sol\":1568:1631  Taxpayer(revealed[total%revealed.length]).setTaxAllowance(9000) */\n      mload(0x40)\n      dup3\n      0xffffffff\n      and\n      0xe0\n      shl\n      dup2\n      mstore\n      0x04\n      add\n      tag_49\n      swap2\n      swap1\n      tag_50\n      jump\t// in\n    tag_49:\n      0x00\n      mload(0x40)\n      dup1\n      dup4\n      sub\n      dup2\n      0x00\n      dup8\n      dup1\n      extcodesize\n      iszero\n      dup1\n      iszero\n      tag_51\n      jumpi\n      revert(0x00, 0x00)\n    tag_51:\n      pop\n      gas\n      call\n      iszero\n      dup1\n      iszero\n      tag_53\n      jumpi\n      returndatacopy(0x00, 0x00, returndatasize)\n      revert(0x00, returndatasize)\n    tag_53:\n      pop\n      pop\n      pop\n      pop\n        /* \"Lottery.sol\":1648:1649  0 */\n      0x00\n        /* \"Lottery.sol\":1636:1645  startTime */\n      0x04\n        /* \"Lottery.sol\":1636:1649  startTime = 0 */\n      dup2\n      swap1\n      sstore\n      pop\n        /* \"Lottery.sol\":1664:1665  0 */\n      0x00\n        /* \"Lottery.sol\":1653:1663  revealTime */\n      0x05\n        /* \"Lottery.sol\":1653:1665  revealTime=0 */\n      dup2\n      swap1\n      sstore\n      pop\n        /* \"Lottery.sol\":1679:1680  0 */\n      0x00\n        /* \"Lottery.sol\":1669:1676  endTime */\n      0x06\n        /* \"Lottery.sol\":1669:1680  endTime = 0 */\n      dup2\n      swap1\n      sstore\n      pop\n        /* \"Lottery.sol\":1342:1683  {... */\n      pop\n        /* \"Lottery.sol\":1313:1683  function endLottery() public {... */\n      jump\t// out\n        /* \"Lottery.sol\":522:837  function startLottery() public {... */\n    tag_12:\n        /* \"Lottery.sol\":579:580  0 */\n      0x00\n        /* \"Lottery.sol\":566:575  startTime */\n      sload(0x04)\n        /* \"Lottery.sol\":566:580  startTime == 0 */\n      eq\n        /* \"Lottery.sol\":557:581  require (startTime == 0) */\n      tag_55\n      jumpi\n      revert(0x00, 0x00)\n    tag_55:\n        /* \"Lottery.sol\":658:673  block.timestamp */\n      timestamp\n        /* \"Lottery.sol\":646:655  startTime */\n      0x04\n        /* \"Lottery.sol\":646:673  startTime = block.timestamp */\n      dup2\n      swap1\n      sstore\n      pop\n        /* \"Lottery.sol\":760:766  period */\n      sload(0x07)\n        /* \"Lottery.sol\":750:759  startTime */\n      sload(0x04)\n        /* \"Lottery.sol\":750:766  startTime+period */\n      tag_56\n      swap2\n      swap1\n      tag_43\n      jump\t// in\n    tag_56:\n        /* \"Lottery.sol\":737:747  revealTime */\n      0x05\n        /* \"Lottery.sol\":737:766  revealTime = startTime+period */\n      dup2\n      swap1\n      sstore\n      pop\n        /* \"Lottery.sol\":828:834  period */\n      sload(0x07)\n        /* \"Lottery.sol\":817:827  revealTime */\n      sload(0x05)\n        /* \"Lottery.sol\":817:834  revealTime+period */\n      tag_57\n      swap2\n      swap1\n      tag_43\n      jump\t// in\n    tag_57:\n        /* \"Lottery.sol\":807:814  endTime */\n      0x06\n        /* \"Lottery.sol\":807:834  endTime = revealTime+period */\n      dup2\n      swap1\n      sstore\n      pop\n        /* \"Lottery.sol\":522:837  function startLottery() public {... */\n      jump\t// out\n        /* \"Lottery.sol\":122:165  mapping (address => bytes32) public commits */\n    tag_16:\n      mstore(0x20, 0x01)\n      dup1\n      0x00\n      mstore\n      keccak256(0x00, 0x40)\n      0x00\n      swap2\n      pop\n      swap1\n      pop\n      sload\n      dup2\n      jump\t// out\n        /* \"Lottery.sol\":1060:1268  function reveal(uint256 rev) public {... */\n    tag_22:\n        /* \"Lottery.sol\":1127:1137  revealTime */\n      sload(0x05)\n        /* \"Lottery.sol\":1108:1123  block.timestamp */\n      timestamp\n        /* \"Lottery.sol\":1108:1137  block.timestamp >= revealTime */\n      lt\n      iszero\n        /* \"Lottery.sol\":1100:1138  require(block.timestamp >= revealTime) */\n      tag_59\n      jumpi\n      revert(0x00, 0x00)\n    tag_59:\n        /* \"Lottery.sol\":1178:1185  commits */\n      0x01\n        /* \"Lottery.sol\":1178:1197  commits[msg.sender] */\n      0x00\n        /* \"Lottery.sol\":1186:1196  msg.sender */\n      caller\n        /* \"Lottery.sol\":1178:1197  commits[msg.sender] */\n      0xffffffffffffffffffffffffffffffffffffffff\n      and\n      0xffffffffffffffffffffffffffffffffffffffff\n      and\n      dup2\n      mstore\n      0x20\n      add\n      swap1\n      dup2\n      mstore\n      0x20\n      add\n      0x00\n      keccak256\n      sload\n        /* \"Lottery.sol\":1171:1174  rev */\n      dup2\n        /* \"Lottery.sol\":1160:1175  abi.encode(rev) */\n      add(0x20, mload(0x40))\n      tag_60\n      swap2\n      swap1\n      tag_61\n      jump\t// in\n    tag_60:\n      mload(0x40)\n      0x20\n      dup2\n      dup4\n      sub\n      sub\n      dup2\n      mstore\n      swap1\n      0x40\n      mstore\n        /* \"Lottery.sol\":1150:1176  keccak256(abi.encode(rev)) */\n      dup1\n      mload\n      swap1\n      0x20\n      add\n      keccak256\n        /* \"Lottery.sol\":1150:1197  keccak256(abi.encode(rev))==commits[msg.sender] */\n      eq\n        /* \"Lottery.sol\":1142:1198  require(keccak256(abi.encode(rev))==commits[msg.sender]) */\n      tag_62\n      jumpi\n      revert(0x00, 0x00)\n    tag_62:\n        /* \"Lottery.sol\":1202:1210  revealed */\n      0x03\n        /* \"Lottery.sol\":1216:1226  msg.sender */\n      caller\n        /* \"Lottery.sol\":1202:1227  revealed.push(msg.sender) */\n      swap1\n      dup1\n      0x01\n      dup2\n      sload\n      add\n      dup1\n      dup3\n      sstore\n      dup1\n      swap2\n      pop\n      pop\n      0x01\n      swap1\n      sub\n      swap1\n      0x00\n      mstore\n      keccak256(0x00, 0x20)\n      add\n      0x00\n      swap1\n      swap2\n      swap1\n      swap2\n      swap1\n      swap2\n      0x0100\n      exp\n      dup2\n      sload\n      dup2\n      0xffffffffffffffffffffffffffffffffffffffff\n      mul\n      not\n      and\n      swap1\n      dup4\n      0xffffffffffffffffffffffffffffffffffffffff\n      and\n      mul\n      or\n      swap1\n      sstore\n      pop\n        /* \"Lottery.sol\":1258:1261  rev */\n      dup1\n        /* \"Lottery.sol\":1231:1238  reveals */\n      0x02\n        /* \"Lottery.sol\":1231:1250  reveals[msg.sender] */\n      0x00\n        /* \"Lottery.sol\":1239:1249  msg.sender */\n      caller\n        /* \"Lottery.sol\":1231:1250  reveals[msg.sender] */\n      0xffffffffffffffffffffffffffffffffffffffff\n      and\n      0xffffffffffffffffffffffffffffffffffffffff\n      and\n      dup2\n      mstore\n      0x20\n      add\n      swap1\n      dup2\n      mstore\n      0x20\n      add\n      0x00\n      keccak256\n        /* \"Lottery.sol\":1231:1262  reveals[msg.sender] = uint(rev) */\n      dup2\n      swap1\n      sstore\n      pop\n        /* \"Lottery.sol\":1060:1268  function reveal(uint256 rev) public {... */\n      pop\n      jump\t// out\n        /* \"Lottery.sol\":878:983  function commit(bytes32 y) public {... */\n    tag_26:\n        /* \"Lottery.sol\":943:952  startTime */\n      sload(0x04)\n        /* \"Lottery.sol\":924:939  block.timestamp */\n      timestamp\n        /* \"Lottery.sol\":924:952  block.timestamp >= startTime */\n      lt\n      iszero\n        /* \"Lottery.sol\":916:953  require(block.timestamp >= startTime) */\n      tag_65\n      jumpi\n      revert(0x00, 0x00)\n    tag_65:\n        /* \"Lottery.sol\":979:980  y */\n      dup1\n        /* \"Lottery.sol\":957:964  commits */\n      0x01\n        /* \"Lottery.sol\":957:976  commits[msg.sender] */\n      0x00\n        /* \"Lottery.sol\":965:975  msg.sender */\n      caller\n        /* \"Lottery.sol\":957:976  commits[msg.sender] */\n      0xffffffffffffffffffffffffffffffffffffffff\n      and\n      0xffffffffffffffffffffffffffffffffffffffff\n      and\n      dup2\n      mstore\n      0x20\n      add\n      swap1\n      dup2\n      mstore\n      0x20\n      add\n      0x00\n      keccak256\n        /* \"Lottery.sol\":957:980  commits[msg.sender] = y */\n      dup2\n      swap1\n      sstore\n      pop\n        /* \"Lottery.sol\":878:983  function commit(bytes32 y) public {... */\n      pop\n      jump\t// out\n        /* \"Lottery.sol\":1687:1763  function isContract() public view returns(bool) {... */\n    tag_28:\n        /* \"Lottery.sol\":1729:1733  bool */\n      0x00\n        /* \"Lottery.sol\":1748:1758  iscontract */\n      0x08\n      0x00\n      swap1\n      sload\n      swap1\n      0x0100\n      exp\n      swap1\n      div\n      0xff\n      and\n        /* \"Lottery.sol\":1741:1758  return iscontract */\n      swap1\n      pop\n        /* \"Lottery.sol\":1687:1763  function isContract() public view returns(bool) {... */\n      swap1\n      jump\t// out\n        /* \"#utility.yul\":88:205   */\n    tag_68:\n        /* \"#utility.yul\":197:198   */\n      0x00\n        /* \"#utility.yul\":194:195   */\n      0x00\n        /* \"#utility.yul\":187:199   */\n      revert\n        /* \"#utility.yul\":334:460   */\n    tag_70:\n        /* \"#utility.yul\":371:378   */\n      0x00\n        /* \"#utility.yul\":411:453   */\n      0xffffffffffffffffffffffffffffffffffffffff\n        /* \"#utility.yul\":404:409   */\n      dup3\n        /* \"#utility.yul\":400:454   */\n      and\n        /* \"#utility.yul\":389:454   */\n      swap1\n      pop\n        /* \"#utility.yul\":334:460   */\n      swap2\n      swap1\n      pop\n      jump\t// out\n        /* \"#utility.yul\":466:562   */\n    tag_71:\n        /* \"#utility.yul\":503:510   */\n      0x00\n        /* \"#utility.yul\":532:556   */\n      tag_99\n        /* \"#utility.yul\":550:555   */\n      dup3\n        /* \"#utility.yul\":532:556   */\n      tag_70\n      jump\t// in\n    tag_99:\n        /* \"#utility.yul\":521:556   */\n      swap1\n      pop\n        /* \"#utility.yul\":466:562   */\n      swap2\n      swap1\n      pop\n      jump\t// out\n        /* \"#utility.yul\":568:690   */\n    tag_72:\n        /* \"#utility.yul\":641:665   */\n      tag_101\n        /* \"#utility.yul\":659:664   */\n      dup2\n        /* \"#utility.yul\":641:665   */\n      tag_71\n      jump\t// in\n    tag_101:\n        /* \"#utility.yul\":634:639   */\n      dup2\n        /* \"#utility.yul\":631:666   */\n      eq\n        /* \"#utility.yul\":621:684   */\n      tag_102\n      jumpi\n        /* \"#utility.yul\":680:681   */\n      0x00\n        /* \"#utility.yul\":677:678   */\n      0x00\n        /* \"#utility.yul\":670:682   */\n      revert\n        /* \"#utility.yul\":621:684   */\n    tag_102:\n        /* \"#utility.yul\":568:690   */\n      pop\n      jump\t// out\n        /* \"#utility.yul\":696:835   */\n    tag_73:\n        /* \"#utility.yul\":742:747   */\n      0x00\n        /* \"#utility.yul\":780:786   */\n      dup2\n        /* \"#utility.yul\":767:787   */\n      calldataload\n        /* \"#utility.yul\":758:787   */\n      swap1\n      pop\n        /* \"#utility.yul\":796:829   */\n      tag_104\n        /* \"#utility.yul\":823:828   */\n      dup2\n        /* \"#utility.yul\":796:829   */\n      tag_72\n      jump\t// in\n    tag_104:\n        /* \"#utility.yul\":696:835   */\n      swap3\n      swap2\n      pop\n      pop\n      jump\t// out\n        /* \"#utility.yul\":841:1170   */\n    tag_15:\n        /* \"#utility.yul\":900:906   */\n      0x00\n        /* \"#utility.yul\":949:951   */\n      0x20\n        /* \"#utility.yul\":937:946   */\n      dup3\n        /* \"#utility.yul\":928:935   */\n      dup5\n        /* \"#utility.yul\":924:947   */\n      sub\n        /* \"#utility.yul\":920:952   */\n      slt\n        /* \"#utility.yul\":917:1036   */\n      iszero\n      tag_106\n      jumpi\n        /* \"#utility.yul\":955:1034   */\n      tag_107\n      tag_68\n      jump\t// in\n    tag_107:\n        /* \"#utility.yul\":917:1036   */\n    tag_106:\n        /* \"#utility.yul\":1075:1076   */\n      0x00\n        /* \"#utility.yul\":1100:1153   */\n      tag_108\n        /* \"#utility.yul\":1145:1152   */\n      dup5\n        /* \"#utility.yul\":1136:1142   */\n      dup3\n        /* \"#utility.yul\":1125:1134   */\n      dup6\n        /* \"#utility.yul\":1121:1143   */\n      add\n        /* \"#utility.yul\":1100:1153   */\n      tag_73\n      jump\t// in\n    tag_108:\n        /* \"#utility.yul\":1090:1153   */\n      swap2\n      pop\n        /* \"#utility.yul\":1046:1163   */\n      pop\n        /* \"#utility.yul\":841:1170   */\n      swap3\n      swap2\n      pop\n      pop\n      jump\t// out\n        /* \"#utility.yul\":1176:1253   */\n    tag_74:\n        /* \"#utility.yul\":1213:1220   */\n      0x00\n        /* \"#utility.yul\":1242:1247   */\n      dup2\n        /* \"#utility.yul\":1231:1247   */\n      swap1\n      pop\n        /* \"#utility.yul\":1176:1253   */\n      swap2\n      swap1\n      pop\n      jump\t// out\n        /* \"#utility.yul\":1259:1377   */\n    tag_75:\n        /* \"#utility.yul\":1346:1370   */\n      tag_111\n        /* \"#utility.yul\":1364:1369   */\n      dup2\n        /* \"#utility.yul\":1346:1370   */\n      tag_74\n      jump\t// in\n    tag_111:\n        /* \"#utility.yul\":1341:1344   */\n      dup3\n        /* \"#utility.yul\":1334:1371   */\n      mstore\n        /* \"#utility.yul\":1259:1377   */\n      pop\n      pop\n      jump\t// out\n        /* \"#utility.yul\":1383:1605   */\n    tag_18:\n        /* \"#utility.yul\":1476:1480   */\n      0x00\n        /* \"#utility.yul\":1514:1516   */\n      0x20\n        /* \"#utility.yul\":1503:1512   */\n      dup3\n        /* \"#utility.yul\":1499:1517   */\n      add\n        /* \"#utility.yul\":1491:1517   */\n      swap1\n      pop\n        /* \"#utility.yul\":1527:1598   */\n      tag_113\n        /* \"#utility.yul\":1595:1596   */\n      0x00\n        /* \"#utility.yul\":1584:1593   */\n      dup4\n        /* \"#utility.yul\":1580:1597   */\n      add\n        /* \"#utility.yul\":1571:1577   */\n      dup5\n        /* \"#utility.yul\":1527:1598   */\n      tag_75\n      jump\t// in\n    tag_113:\n        /* \"#utility.yul\":1383:1605   */\n      swap3\n      swap2\n      pop\n      pop\n      jump\t// out\n        /* \"#utility.yul\":1611:1688   */\n    tag_76:\n        /* \"#utility.yul\":1648:1655   */\n      0x00\n        /* \"#utility.yul\":1677:1682   */\n      dup2\n        /* \"#utility.yul\":1666:1682   */\n      swap1\n      pop\n        /* \"#utility.yul\":1611:1688   */\n      swap2\n      swap1\n      pop\n      jump\t// out\n        /* \"#utility.yul\":1694:1816   */\n    tag_77:\n        /* \"#utility.yul\":1767:1791   */\n      tag_116\n        /* \"#utility.yul\":1785:1790   */\n      dup2\n        /* \"#utility.yul\":1767:1791   */\n      tag_76\n      jump\t// in\n    tag_116:\n        /* \"#utility.yul\":1760:1765   */\n      dup2\n        /* \"#utility.yul\":1757:1792   */\n      eq\n        /* \"#utility.yul\":1747:1810   */\n      tag_117\n      jumpi\n        /* \"#utility.yul\":1806:1807   */\n      0x00\n        /* \"#utility.yul\":1803:1804   */\n      0x00\n        /* \"#utility.yul\":1796:1808   */\n      revert\n        /* \"#utility.yul\":1747:1810   */\n    tag_117:\n        /* \"#utility.yul\":1694:1816   */\n      pop\n      jump\t// out\n        /* \"#utility.yul\":1822:1961   */\n    tag_78:\n        /* \"#utility.yul\":1868:1873   */\n      0x00\n        /* \"#utility.yul\":1906:1912   */\n      dup2\n        /* \"#utility.yul\":1893:1913   */\n      calldataload\n        /* \"#utility.yul\":1884:1913   */\n      swap1\n      pop\n        /* \"#utility.yul\":1922:1955   */\n      tag_119\n        /* \"#utility.yul\":1949:1954   */\n      dup2\n        /* \"#utility.yul\":1922:1955   */\n      tag_77\n      jump\t// in\n    tag_119:\n        /* \"#utility.yul\":1822:1961   */\n      swap3\n      swap2\n      pop\n      pop\n      jump\t// out\n        /* \"#utility.yul\":1967:2296   */\n    tag_21:\n        /* \"#utility.yul\":2026:2032   */\n      0x00\n        /* \"#utility.yul\":2075:2077   */\n      0x20\n        /* \"#utility.yul\":2063:2072   */\n      dup3\n        /* \"#utility.yul\":2054:2061   */\n      dup5\n        /* \"#utility.yul\":2050:2073   */\n      sub\n        /* \"#utility.yul\":2046:2078   */\n      slt\n        /* \"#utility.yul\":2043:2162   */\n      iszero\n      tag_121\n      jumpi\n        /* \"#utility.yul\":2081:2160   */\n      tag_122\n      tag_68\n      jump\t// in\n    tag_122:\n        /* \"#utility.yul\":2043:2162   */\n    tag_121:\n        /* \"#utility.yul\":2201:2202   */\n      0x00\n        /* \"#utility.yul\":2226:2279   */\n      tag_123\n        /* \"#utility.yul\":2271:2278   */\n      dup5\n        /* \"#utility.yul\":2262:2268   */\n      dup3\n        /* \"#utility.yul\":2251:2260   */\n      dup6\n        /* \"#utility.yul\":2247:2269   */\n      add\n        /* \"#utility.yul\":2226:2279   */\n      tag_78\n      jump\t// in\n    tag_123:\n        /* \"#utility.yul\":2216:2279   */\n      swap2\n      pop\n        /* \"#utility.yul\":2172:2289   */\n      pop\n        /* \"#utility.yul\":1967:2296   */\n      swap3\n      swap2\n      pop\n      pop\n      jump\t// out\n        /* \"#utility.yul\":2302:2424   */\n    tag_79:\n        /* \"#utility.yul\":2375:2399   */\n      tag_125\n        /* \"#utility.yul\":2393:2398   */\n      dup2\n        /* \"#utility.yul\":2375:2399   */\n      tag_74\n      jump\t// in\n    tag_125:\n        /* \"#utility.yul\":2368:2373   */\n      dup2\n        /* \"#utility.yul\":2365:2400   */\n      eq\n        /* \"#utility.yul\":2355:2418   */\n      tag_126\n      jumpi\n        /* \"#utility.yul\":2414:2415   */\n      0x00\n        /* \"#utility.yul\":2411:2412   */\n      0x00\n        /* \"#utility.yul\":2404:2416   */\n      revert\n        /* \"#utility.yul\":2355:2418   */\n    tag_126:\n        /* \"#utility.yul\":2302:2424   */\n      pop\n      jump\t// out\n        /* \"#utility.yul\":2430:2569   */\n    tag_80:\n        /* \"#utility.yul\":2476:2481   */\n      0x00\n        /* \"#utility.yul\":2514:2520   */\n      dup2\n        /* \"#utility.yul\":2501:2521   */\n      calldataload\n        /* \"#utility.yul\":2492:2521   */\n      swap1\n      pop\n        /* \"#utility.yul\":2530:2563   */\n      tag_128\n        /* \"#utility.yul\":2557:2562   */\n      dup2\n        /* \"#utility.yul\":2530:2563   */\n      tag_79\n      jump\t// in\n    tag_128:\n        /* \"#utility.yul\":2430:2569   */\n      swap3\n      swap2\n      pop\n      pop\n      jump\t// out\n        /* \"#utility.yul\":2575:2904   */\n    tag_25:\n        /* \"#utility.yul\":2634:2640   */\n      0x00\n        /* \"#utility.yul\":2683:2685   */\n      0x20\n        /* \"#utility.yul\":2671:2680   */\n      dup3\n        /* \"#utility.yul\":2662:2669   */\n      dup5\n        /* \"#utility.yul\":2658:2681   */\n      sub\n        /* \"#utility.yul\":2654:2686   */\n      slt\n        /* \"#utility.yul\":2651:2770   */\n      iszero\n      tag_130\n      jumpi\n        /* \"#utility.yul\":2689:2768   */\n      tag_131\n      tag_68\n      jump\t// in\n    tag_131:\n        /* \"#utility.yul\":2651:2770   */\n    tag_130:\n        /* \"#utility.yul\":2809:2810   */\n      0x00\n        /* \"#utility.yul\":2834:2887   */\n      tag_132\n        /* \"#utility.yul\":2879:2886   */\n      dup5\n        /* \"#utility.yul\":2870:2876   */\n      dup3\n        /* \"#utility.yul\":2859:2868   */\n      dup6\n        /* \"#utility.yul\":2855:2877   */\n      add\n        /* \"#utility.yul\":2834:2887   */\n      tag_80\n      jump\t// in\n    tag_132:\n        /* \"#utility.yul\":2824:2887   */\n      swap2\n      pop\n        /* \"#utility.yul\":2780:2897   */\n      pop\n        /* \"#utility.yul\":2575:2904   */\n      swap3\n      swap2\n      pop\n      pop\n      jump\t// out\n        /* \"#utility.yul\":2910:3000   */\n    tag_81:\n        /* \"#utility.yul\":2944:2951   */\n      0x00\n        /* \"#utility.yul\":2987:2992   */\n      dup2\n        /* \"#utility.yul\":2980:2993   */\n      iszero\n        /* \"#utility.yul\":2973:2994   */\n      iszero\n        /* \"#utility.yul\":2962:2994   */\n      swap1\n      pop\n        /* \"#utility.yul\":2910:3000   */\n      swap2\n      swap1\n      pop\n      jump\t// out\n        /* \"#utility.yul\":3006:3115   */\n    tag_82:\n        /* \"#utility.yul\":3087:3108   */\n      tag_135\n        /* \"#utility.yul\":3102:3107   */\n      dup2\n        /* \"#utility.yul\":3087:3108   */\n      tag_81\n      jump\t// in\n    tag_135:\n        /* \"#utility.yul\":3082:3085   */\n      dup3\n        /* \"#utility.yul\":3075:3109   */\n      mstore\n        /* \"#utility.yul\":3006:3115   */\n      pop\n      pop\n      jump\t// out\n        /* \"#utility.yul\":3121:3331   */\n    tag_30:\n        /* \"#utility.yul\":3208:3212   */\n      0x00\n        /* \"#utility.yul\":3246:3248   */\n      0x20\n        /* \"#utility.yul\":3235:3244   */\n      dup3\n        /* \"#utility.yul\":3231:3249   */\n      add\n        /* \"#utility.yul\":3223:3249   */\n      swap1\n      pop\n        /* \"#utility.yul\":3259:3324   */\n      tag_137\n        /* \"#utility.yul\":3321:3322   */\n      0x00\n        /* \"#utility.yul\":3310:3319   */\n      dup4\n        /* \"#utility.yul\":3306:3323   */\n      add\n        /* \"#utility.yul\":3297:3303   */\n      dup5\n        /* \"#utility.yul\":3259:3324   */\n      tag_82\n      jump\t// in\n    tag_137:\n        /* \"#utility.yul\":3121:3331   */\n      swap3\n      swap2\n      pop\n      pop\n      jump\t// out\n        /* \"#utility.yul\":3337:3506   */\n    tag_83:\n        /* \"#utility.yul\":3421:3432   */\n      0x00\n        /* \"#utility.yul\":3455:3461   */\n      dup3\n        /* \"#utility.yul\":3450:3453   */\n      dup3\n        /* \"#utility.yul\":3443:3462   */\n      mstore\n        /* \"#utility.yul\":3495:3499   */\n      0x20\n        /* \"#utility.yul\":3490:3493   */\n      dup3\n        /* \"#utility.yul\":3486:3500   */\n      add\n        /* \"#utility.yul\":3471:3500   */\n      swap1\n      pop\n        /* \"#utility.yul\":3337:3506   */\n      swap3\n      swap2\n      pop\n      pop\n      jump\t// out\n        /* \"#utility.yul\":3512:3683   */\n    tag_84:\n        /* \"#utility.yul\":3652:3675   */\n      0x4c6f7474657279206e6f7420656e646564207965740000000000000000000000\n        /* \"#utility.yul\":3648:3649   */\n      0x00\n        /* \"#utility.yul\":3640:3646   */\n      dup3\n        /* \"#utility.yul\":3636:3650   */\n      add\n        /* \"#utility.yul\":3629:3676   */\n      mstore\n        /* \"#utility.yul\":3512:3683   */\n      pop\n      jump\t// out\n        /* \"#utility.yul\":3689:4055   */\n    tag_85:\n        /* \"#utility.yul\":3831:3834   */\n      0x00\n        /* \"#utility.yul\":3852:3919   */\n      tag_141\n        /* \"#utility.yul\":3916:3918   */\n      0x15\n        /* \"#utility.yul\":3911:3914   */\n      dup4\n        /* \"#utility.yul\":3852:3919   */\n      tag_83\n      jump\t// in\n    tag_141:\n        /* \"#utility.yul\":3845:3919   */\n      swap2\n      pop\n        /* \"#utility.yul\":3928:4021   */\n      tag_142\n        /* \"#utility.yul\":4017:4020   */\n      dup3\n        /* \"#utility.yul\":3928:4021   */\n      tag_84\n      jump\t// in\n    tag_142:\n        /* \"#utility.yul\":4046:4048   */\n      0x20\n        /* \"#utility.yul\":4041:4044   */\n      dup3\n        /* \"#utility.yul\":4037:4049   */\n      add\n        /* \"#utility.yul\":4030:4049   */\n      swap1\n      pop\n        /* \"#utility.yul\":3689:4055   */\n      swap2\n      swap1\n      pop\n      jump\t// out\n        /* \"#utility.yul\":4061:4480   */\n    tag_34:\n        /* \"#utility.yul\":4227:4231   */\n      0x00\n        /* \"#utility.yul\":4265:4267   */\n      0x20\n        /* \"#utility.yul\":4254:4263   */\n      dup3\n        /* \"#utility.yul\":4250:4268   */\n      add\n        /* \"#utility.yul\":4242:4268   */\n      swap1\n      pop\n        /* \"#utility.yul\":4314:4323   */\n      dup2\n        /* \"#utility.yul\":4308:4312   */\n      dup2\n        /* \"#utility.yul\":4304:4324   */\n      sub\n        /* \"#utility.yul\":4300:4301   */\n      0x00\n        /* \"#utility.yul\":4289:4298   */\n      dup4\n        /* \"#utility.yul\":4285:4302   */\n      add\n        /* \"#utility.yul\":4278:4325   */\n      mstore\n        /* \"#utility.yul\":4342:4473   */\n      tag_144\n        /* \"#utility.yul\":4468:4472   */\n      dup2\n        /* \"#utility.yul\":4342:4473   */\n      tag_85\n      jump\t// in\n    tag_144:\n        /* \"#utility.yul\":4334:4473   */\n      swap1\n      pop\n        /* \"#utility.yul\":4061:4480   */\n      swap2\n      swap1\n      pop\n      jump\t// out\n        /* \"#utility.yul\":4486:4666   */\n    tag_40:\n        /* \"#utility.yul\":4534:4611   */\n      0x4e487b7100000000000000000000000000000000000000000000000000000000\n        /* \"#utility.yul\":4531:4532   */\n      0x00\n        /* \"#utility.yul\":4524:4612   */\n      mstore\n        /* \"#utility.yul\":4631:4635   */\n      0x32\n        /* \"#utility.yul\":4628:4629   */\n      0x04\n        /* \"#utility.yul\":4621:4636   */\n      mstore\n        /* \"#utility.yul\":4655:4659   */\n      0x24\n        /* \"#utility.yul\":4652:4653   */\n      0x00\n        /* \"#utility.yul\":4645:4660   */\n      revert\n        /* \"#utility.yul\":4672:4852   */\n    tag_86:\n        /* \"#utility.yul\":4720:4797   */\n      0x4e487b7100000000000000000000000000000000000000000000000000000000\n        /* \"#utility.yul\":4717:4718   */\n      0x00\n        /* \"#utility.yul\":4710:4798   */\n      mstore\n        /* \"#utility.yul\":4817:4821   */\n      0x11\n        /* \"#utility.yul\":4814:4815   */\n      0x04\n        /* \"#utility.yul\":4807:4822   */\n      mstore\n        /* \"#utility.yul\":4841:4845   */\n      0x24\n        /* \"#utility.yul\":4838:4839   */\n      0x00\n        /* \"#utility.yul\":4831:4846   */\n      revert\n        /* \"#utility.yul\":4858:5049   */\n    tag_43:\n        /* \"#utility.yul\":4898:4901   */\n      0x00\n        /* \"#utility.yul\":4917:4937   */\n      tag_148\n        /* \"#utility.yul\":4935:4936   */\n      dup3\n        /* \"#utility.yul\":4917:4937   */\n      tag_76\n      jump\t// in\n    tag_148:\n        /* \"#utility.yul\":4912:4937   */\n      swap2\n      pop\n        /* \"#utility.yul\":4951:4971   */\n      tag_149\n        /* \"#utility.yul\":4969:4970   */\n      dup4\n        /* \"#utility.yul\":4951:4971   */\n      tag_76\n      jump\t// in\n    tag_149:\n        /* \"#utility.yul\":4946:4971   */\n      swap3\n      pop\n        /* \"#utility.yul\":4994:4995   */\n      dup3\n        /* \"#utility.yul\":4991:4992   */\n      dup3\n        /* \"#utility.yul\":4987:4996   */\n      add\n        /* \"#utility.yul\":4980:4996   */\n      swap1\n      pop\n        /* \"#utility.yul\":5015:5018   */\n      dup1\n        /* \"#utility.yul\":5012:5013   */\n      dup3\n        /* \"#utility.yul\":5009:5019   */\n      gt\n        /* \"#utility.yul\":5006:5042   */\n      iszero\n      tag_150\n      jumpi\n        /* \"#utility.yul\":5022:5040   */\n      tag_151\n      tag_86\n      jump\t// in\n    tag_151:\n        /* \"#utility.yul\":5006:5042   */\n    tag_150:\n        /* \"#utility.yul\":4858:5049   */\n      swap3\n      swap2\n      pop\n      pop\n      jump\t// out\n        /* \"#utility.yul\":5055:5235   */\n    tag_87:\n        /* \"#utility.yul\":5103:5180   */\n      0x4e487b7100000000000000000000000000000000000000000000000000000000\n        /* \"#utility.yul\":5100:5101   */\n      0x00\n        /* \"#utility.yul\":5093:5181   */\n      mstore\n        /* \"#utility.yul\":5200:5204   */\n      0x12\n        /* \"#utility.yul\":5197:5198   */\n      0x04\n        /* \"#utility.yul\":5190:5205   */\n      mstore\n        /* \"#utility.yul\":5224:5228   */\n      0x24\n        /* \"#utility.yul\":5221:5222   */\n      0x00\n        /* \"#utility.yul\":5214:5229   */\n      revert\n        /* \"#utility.yul\":5241:5417   */\n    tag_45:\n        /* \"#utility.yul\":5273:5274   */\n      0x00\n        /* \"#utility.yul\":5290:5310   */\n      tag_154\n        /* \"#utility.yul\":5308:5309   */\n      dup3\n        /* \"#utility.yul\":5290:5310   */\n      tag_76\n      jump\t// in\n    tag_154:\n        /* \"#utility.yul\":5285:5310   */\n      swap2\n      pop\n        /* \"#utility.yul\":5324:5344   */\n      tag_155\n        /* \"#utility.yul\":5342:5343   */\n      dup4\n        /* \"#utility.yul\":5324:5344   */\n      tag_76\n      jump\t// in\n    tag_155:\n        /* \"#utility.yul\":5319:5344   */\n      swap3\n      pop\n        /* \"#utility.yul\":5363:5364   */\n      dup3\n        /* \"#utility.yul\":5353:5388   */\n      tag_156\n      jumpi\n        /* \"#utility.yul\":5368:5386   */\n      tag_157\n      tag_87\n      jump\t// in\n    tag_157:\n        /* \"#utility.yul\":5353:5388   */\n    tag_156:\n        /* \"#utility.yul\":5409:5410   */\n      dup3\n        /* \"#utility.yul\":5406:5407   */\n      dup3\n        /* \"#utility.yul\":5402:5411   */\n      mod\n        /* \"#utility.yul\":5397:5411   */\n      swap1\n      pop\n        /* \"#utility.yul\":5241:5417   */\n      swap3\n      swap2\n      pop\n      pop\n      jump\t// out\n        /* \"#utility.yul\":5423:5511   */\n    tag_88:\n        /* \"#utility.yul\":5471:5478   */\n      0x00\n        /* \"#utility.yul\":5500:5505   */\n      dup2\n        /* \"#utility.yul\":5489:5505   */\n      swap1\n      pop\n        /* \"#utility.yul\":5423:5511   */\n      swap2\n      swap1\n      pop\n      jump\t// out\n        /* \"#utility.yul\":5517:5577   */\n    tag_89:\n        /* \"#utility.yul\":5545:5548   */\n      0x00\n        /* \"#utility.yul\":5566:5571   */\n      dup2\n        /* \"#utility.yul\":5559:5571   */\n      swap1\n      pop\n        /* \"#utility.yul\":5517:5577   */\n      swap2\n      swap1\n      pop\n      jump\t// out\n        /* \"#utility.yul\":5583:5747   */\n    tag_90:\n        /* \"#utility.yul\":5644:5653   */\n      0x00\n        /* \"#utility.yul\":5677:5741   */\n      tag_161\n        /* \"#utility.yul\":5695:5740   */\n      tag_162\n        /* \"#utility.yul\":5704:5739   */\n      tag_163\n        /* \"#utility.yul\":5733:5738   */\n      dup5\n        /* \"#utility.yul\":5704:5739   */\n      tag_88\n      jump\t// in\n    tag_163:\n        /* \"#utility.yul\":5695:5740   */\n      tag_89\n      jump\t// in\n    tag_162:\n        /* \"#utility.yul\":5677:5741   */\n      tag_76\n      jump\t// in\n    tag_161:\n        /* \"#utility.yul\":5664:5741   */\n      swap1\n      pop\n        /* \"#utility.yul\":5583:5747   */\n      swap2\n      swap1\n      pop\n      jump\t// out\n        /* \"#utility.yul\":5753:5906   */\n    tag_91:\n        /* \"#utility.yul\":5851:5899   */\n      tag_165\n        /* \"#utility.yul\":5893:5898   */\n      dup2\n        /* \"#utility.yul\":5851:5899   */\n      tag_90\n      jump\t// in\n    tag_165:\n        /* \"#utility.yul\":5846:5849   */\n      dup3\n        /* \"#utility.yul\":5839:5900   */\n      mstore\n        /* \"#utility.yul\":5753:5906   */\n      pop\n      pop\n      jump\t// out\n        /* \"#utility.yul\":5912:6156   */\n    tag_50:\n        /* \"#utility.yul\":6016:6020   */\n      0x00\n        /* \"#utility.yul\":6054:6056   */\n      0x20\n        /* \"#utility.yul\":6043:6052   */\n      dup3\n        /* \"#utility.yul\":6039:6057   */\n      add\n        /* \"#utility.yul\":6031:6057   */\n      swap1\n      pop\n        /* \"#utility.yul\":6067:6149   */\n      tag_167\n        /* \"#utility.yul\":6146:6147   */\n      0x00\n        /* \"#utility.yul\":6135:6144   */\n      dup4\n        /* \"#utility.yul\":6131:6148   */\n      add\n        /* \"#utility.yul\":6122:6128   */\n      dup5\n        /* \"#utility.yul\":6067:6149   */\n      tag_91\n      jump\t// in\n    tag_167:\n        /* \"#utility.yul\":5912:6156   */\n      swap3\n      swap2\n      pop\n      pop\n      jump\t// out\n        /* \"#utility.yul\":6162:6280   */\n    tag_92:\n        /* \"#utility.yul\":6249:6273   */\n      tag_169\n        /* \"#utility.yul\":6267:6272   */\n      dup2\n        /* \"#utility.yul\":6249:6273   */\n      tag_76\n      jump\t// in\n    tag_169:\n        /* \"#utility.yul\":6244:6247   */\n      dup3\n        /* \"#utility.yul\":6237:6274   */\n      mstore\n        /* \"#utility.yul\":6162:6280   */\n      pop\n      pop\n      jump\t// out\n        /* \"#utility.yul\":6286:6508   */\n    tag_61:\n        /* \"#utility.yul\":6379:6383   */\n      0x00\n        /* \"#utility.yul\":6417:6419   */\n      0x20\n        /* \"#utility.yul\":6406:6415   */\n      dup3\n        /* \"#utility.yul\":6402:6420   */\n      add\n        /* \"#utility.yul\":6394:6420   */\n      swap1\n      pop\n        /* \"#utility.yul\":6430:6501   */\n      tag_171\n        /* \"#utility.yul\":6498:6499   */\n      0x00\n        /* \"#utility.yul\":6487:6496   */\n      dup4\n        /* \"#utility.yul\":6483:6500   */\n      add\n        /* \"#utility.yul\":6474:6480   */\n      dup5\n        /* \"#utility.yul\":6430:6501   */\n      tag_92\n      jump\t// in\n    tag_171:\n        /* \"#utility.yul\":6286:6508   */\n      swap3\n      swap2\n      pop\n      pop\n      jump\t// out\n\n    auxdata: 0xa2646970667358221220792167b504c6187a3cf816c6e8f4fc00772956fbc1d63a8aac5a4d8a0301283864736f6c634300081e0033\n}\n",
				"bytecode": {
					"linkReferences": {},
					"object": "6080604052348015600e575f5ffd5b506040516109193803806109198339818101604052810190602e91906094565b806007819055505f6004819055505f600681905550600160085f6101000a81548160ff0219169083151502179055505060ba565b5f5ffd5b5f819050919050565b6076816066565b8114607f575f5ffd5b50565b5f81519050608e81606f565b92915050565b5f6020828403121560a65760a56062565b5b5f60b1848285016082565b91505092915050565b610852806100c75f395ff3fe608060405234801561000f575f5ffd5b5060043610610060575f3560e01c80631593a8c714610064578063160344e21461006e5780637b43a8e614610078578063c2ca0ac5146100a8578063f14fcbc8146100c4578063f7ec2f35146100e0575b5f5ffd5b61006c6100fe565b005b6100766102b7565b005b610092600480360381019061008d91906104f5565b6102f9565b60405161009f9190610538565b60405180910390f35b6100c260048036038101906100bd9190610584565b61030e565b005b6100de60048036038101906100d991906105d9565b61042f565b005b6100e8610482565b6040516100f5919061061e565b60405180910390f35b600654421015610143576040517f08c379a000000000000000000000000000000000000000000000000000000000815260040161013a90610691565b60405180910390fd5b5f5f90505f5f90505b6003805490508110156101ec5760025f600383815481106101705761016f6106af565b5b905f5260205f20015f9054906101000a900473ffffffffffffffffffffffffffffffffffffffff1673ffffffffffffffffffffffffffffffffffffffff1673ffffffffffffffffffffffffffffffffffffffff1681526020019081526020015f2054826101dd9190610709565b9150808060010191505061014c565b5060038080549050826101ff9190610769565b815481106102105761020f6106af565b5b905f5260205f20015f9054906101000a900473ffffffffffffffffffffffffffffffffffffffff1673ffffffffffffffffffffffffffffffffffffffff166325803d646123286040518263ffffffff1660e01b815260040161027291906107db565b5f604051808303815f87803b158015610289575f5ffd5b505af115801561029b573d5f5f3e3d5ffd5b505050505f6004819055505f6005819055505f60068190555050565b5f600454146102c4575f5ffd5b426004819055506007546004546102db9190610709565b6005819055506007546005546102f19190610709565b600681905550565b6001602052805f5260405f205f915090505481565b60055442101561031c575f5ffd5b60015f3373ffffffffffffffffffffffffffffffffffffffff1673ffffffffffffffffffffffffffffffffffffffff1681526020019081526020015f20548160405160200161036b9190610803565b604051602081830303815290604052805190602001201461038a575f5ffd5b600333908060018154018082558091505060019003905f5260205f20015f9091909190916101000a81548173ffffffffffffffffffffffffffffffffffffffff021916908373ffffffffffffffffffffffffffffffffffffffff1602179055508060025f3373ffffffffffffffffffffffffffffffffffffffff1673ffffffffffffffffffffffffffffffffffffffff1681526020019081526020015f208190555050565b60045442101561043d575f5ffd5b8060015f3373ffffffffffffffffffffffffffffffffffffffff1673ffffffffffffffffffffffffffffffffffffffff1681526020019081526020015f208190555050565b5f60085f9054906101000a900460ff16905090565b5f5ffd5b5f73ffffffffffffffffffffffffffffffffffffffff82169050919050565b5f6104c48261049b565b9050919050565b6104d4816104ba565b81146104de575f5ffd5b50565b5f813590506104ef816104cb565b92915050565b5f6020828403121561050a57610509610497565b5b5f610517848285016104e1565b91505092915050565b5f819050919050565b61053281610520565b82525050565b5f60208201905061054b5f830184610529565b92915050565b5f819050919050565b61056381610551565b811461056d575f5ffd5b50565b5f8135905061057e8161055a565b92915050565b5f6020828403121561059957610598610497565b5b5f6105a684828501610570565b91505092915050565b6105b881610520565b81146105c2575f5ffd5b50565b5f813590506105d3816105af565b92915050565b5f602082840312156105ee576105ed610497565b5b5f6105fb848285016105c5565b91505092915050565b5f8115159050919050565b61061881610604565b82525050565b5f6020820190506106315f83018461060f565b92915050565b5f82825260208201905092915050565b7f4c6f7474657279206e6f7420656e6465642079657400000000000000000000005f82015250565b5f61067b601583610637565b915061068682610647565b602082019050919050565b5f6020820190508181035f8301526106a88161066f565b9050919050565b7f4e487b71000000000000000000000000000000000000000000000000000000005f52603260045260245ffd5b7f4e487b71000000000000000000000000000000000000000000000000000000005f52601160045260245ffd5b5f61071382610551565b915061071e83610551565b9250828201905080821115610736576107356106dc565b5b92915050565b7f4e487b71000000000000000000000000000000000000000000000000000000005f52601260045260245ffd5b5f61077382610551565b915061077e83610551565b92508261078e5761078d61073c565b5b828206905092915050565b5f819050919050565b5f819050919050565b5f6107c56107c06107bb84610799565b6107a2565b610551565b9050919050565b6107d5816107ab565b82525050565b5f6020820190506107ee5f8301846107cc565b92915050565b6107fd81610551565b82525050565b5f6020820190506108165f8301846107f4565b9291505056fea2646970667358221220792167b504c6187a3cf816c6e8f4fc00772956fbc1d63a8aac5a4d8a0301283864736f6c634300081e0033",
					"opcodes": "PUSH1 0x80 PUSH1 0x40 MSTORE CALLVALUE DUP1 ISZERO PUSH1 0xE JUMPI PUSH0 PUSH0 REVERT JUMPDEST POP PUSH1 0x40 MLOAD PUSH2 0x919 CODESIZE SUB DUP1 PUSH2 0x919 DUP4 CODECOPY DUP2 DUP2 ADD PUSH1 0x40 MSTORE DUP2 ADD SWAP1 PUSH1 0x2E SWAP2 SWAP1 PUSH1 0x94 JUMP JUMPDEST DUP1 PUSH1 0x7 DUP2 SWAP1 SSTORE POP PUSH0 PUSH1 0x4 DUP2 SWAP1 SSTORE POP PUSH0 PUSH1 0x6 DUP2 SWAP1 SSTORE POP PUSH1 0x1 PUSH1 0x8 PUSH0 PUSH2 0x100 EXP DUP2 SLOAD DUP2 PUSH1 0xFF MUL NOT AND SWAP1 DUP4 ISZERO ISZERO MUL OR SWAP1 SSTORE POP POP PUSH1 0xBA JUMP JUMPDEST PUSH0 PUSH0 REVERT JUMPDEST PUSH0 DUP2 SWAP1 POP SWAP2 SWAP1 POP JUMP JUMPDEST PUSH1 0x76 DUP2 PUSH1 0x66 JUMP JUMPDEST DUP2 EQ PUSH1 0x7F JUMPI PUSH0 PUSH0 REVERT JUMPDEST POP JUMP JUMPDEST PUSH0 DUP2 MLOAD SWAP1 POP PUSH1 0x8E DUP2 PUSH1 0x6F JUMP JUMPDEST SWAP3 SWAP2 POP POP JUMP JUMPDEST PUSH0 PUSH1 0x20 DUP3 DUP5 SUB SLT ISZERO PUSH1 0xA6 JUMPI PUSH1 0xA5 PUSH1 0x62 JUMP JUMPDEST JUMPDEST PUSH0 PUSH1 0xB1 DUP5 DUP3 DUP6 ADD PUSH1 0x82 JUMP JUMPDEST SWAP2 POP POP SWAP3 SWAP2 POP POP JUMP JUMPDEST PUSH2 0x852 DUP1 PUSH2 0xC7 PUSH0 CODECOPY PUSH0 RETURN INVALID PUSH1 0x80 PUSH1 0x40 MSTORE CALLVALUE DUP1 ISZERO PUSH2 0xF JUMPI PUSH0 PUSH0 REVERT JUMPDEST POP PUSH1 0x4 CALLDATASIZE LT PUSH2 0x60 JUMPI PUSH0 CALLDATALOAD PUSH1 0xE0 SHR DUP1 PUSH4 0x1593A8C7 EQ PUSH2 0x64 JUMPI DUP1 PUSH4 0x160344E2 EQ PUSH2 0x6E JUMPI DUP1 PUSH4 0x7B43A8E6 EQ PUSH2 0x78 JUMPI DUP1 PUSH4 0xC2CA0AC5 EQ PUSH2 0xA8 JUMPI DUP1 PUSH4 0xF14FCBC8 EQ PUSH2 0xC4 JUMPI DUP1 PUSH4 0xF7EC2F35 EQ PUSH2 0xE0 JUMPI JUMPDEST PUSH0 PUSH0 REVERT JUMPDEST PUSH2 0x6C PUSH2 0xFE JUMP JUMPDEST STOP JUMPDEST PUSH2 0x76 PUSH2 0x2B7 JUMP JUMPDEST STOP JUMPDEST PUSH2 0x92 PUSH1 0x4 DUP1 CALLDATASIZE SUB DUP2 ADD SWAP1 PUSH2 0x8D SWAP2 SWAP1 PUSH2 0x4F5 JUMP JUMPDEST PUSH2 0x2F9 JUMP JUMPDEST PUSH1 0x40 MLOAD PUSH2 0x9F SWAP2 SWAP1 PUSH2 0x538 JUMP JUMPDEST PUSH1 0x40 MLOAD DUP1 SWAP2 SUB SWAP1 RETURN JUMPDEST PUSH2 0xC2 PUSH1 0x4 DUP1 CALLDATASIZE SUB DUP2 ADD SWAP1 PUSH2 0xBD SWAP2 SWAP1 PUSH2 0x584 JUMP JUMPDEST PUSH2 0x30E JUMP JUMPDEST STOP JUMPDEST PUSH2 0xDE PUSH1 0x4 DUP1 CALLDATASIZE SUB DUP2 ADD SWAP1 PUSH2 0xD9 SWAP2 SWAP1 PUSH2 0x5D9 JUMP JUMPDEST PUSH2 0x42F JUMP JUMPDEST STOP JUMPDEST PUSH2 0xE8 PUSH2 0x482 JUMP JUMPDEST PUSH1 0x40 MLOAD PUSH2 0xF5 SWAP2 SWAP1 PUSH2 0x61E JUMP JUMPDEST PUSH1 0x40 MLOAD DUP1 SWAP2 SUB SWAP1 RETURN JUMPDEST PUSH1 0x6 SLOAD TIMESTAMP LT ISZERO PUSH2 0x143 JUMPI PUSH1 0x40 MLOAD PUSH32 0x8C379A000000000000000000000000000000000000000000000000000000000 DUP2 MSTORE PUSH1 0x4 ADD PUSH2 0x13A SWAP1 PUSH2 0x691 JUMP JUMPDEST PUSH1 0x40 MLOAD DUP1 SWAP2 SUB SWAP1 REVERT JUMPDEST PUSH0 PUSH0 SWAP1 POP PUSH0 PUSH0 SWAP1 POP JUMPDEST PUSH1 0x3 DUP1 SLOAD SWAP1 POP DUP2 LT ISZERO PUSH2 0x1EC JUMPI PUSH1 0x2 PUSH0 PUSH1 0x3 DUP4 DUP2 SLOAD DUP2 LT PUSH2 0x170 JUMPI PUSH2 0x16F PUSH2 0x6AF JUMP JUMPDEST JUMPDEST SWAP1 PUSH0 MSTORE PUSH1 0x20 PUSH0 KECCAK256 ADD PUSH0 SWAP1 SLOAD SWAP1 PUSH2 0x100 EXP SWAP1 DIV PUSH20 0xFFFFFFFFFFFFFFFFFFFFFFFFFFFFFFFFFFFFFFFF AND PUSH20 0xFFFFFFFFFFFFFFFFFFFFFFFFFFFFFFFFFFFFFFFF AND PUSH20 0xFFFFFFFFFFFFFFFFFFFFFFFFFFFFFFFFFFFFFFFF AND DUP2 MSTORE PUSH1 0x20 ADD SWAP1 DUP2 MSTORE PUSH1 0x20 ADD PUSH0 KECCAK256 SLOAD DUP3 PUSH2 0x1DD SWAP2 SWAP1 PUSH2 0x709 JUMP JUMPDEST SWAP2 POP DUP1 DUP1 PUSH1 0x1 ADD SWAP2 POP POP PUSH2 0x14C JUMP JUMPDEST POP PUSH1 0x3 DUP1 DUP1 SLOAD SWAP1 POP DUP3 PUSH2 0x1FF SWAP2 SWAP1 PUSH2 0x769 JUMP JUMPDEST DUP2 SLOAD DUP2 LT PUSH2 0x210 JUMPI PUSH2 0x20F PUSH2 0x6AF JUMP JUMPDEST JUMPDEST SWAP1 PUSH0 MSTORE PUSH1 0x20 PUSH0 KECCAK256 ADD PUSH0 SWAP1 SLOAD SWAP1 PUSH2 0x100 EXP SWAP1 DIV PUSH20 0xFFFFFFFFFFFFFFFFFFFFFFFFFFFFFFFFFFFFFFFF AND PUSH20 0xFFFFFFFFFFFFFFFFFFFFFFFFFFFFFFFFFFFFFFFF AND PUSH4 0x25803D64 PUSH2 0x2328 PUSH1 0x40 MLOAD DUP3 PUSH4 0xFFFFFFFF AND PUSH1 0xE0 SHL DUP2 MSTORE PUSH1 0x4 ADD PUSH2 0x272 SWAP2 SWAP1 PUSH2 0x7DB JUMP JUMPDEST PUSH0 PUSH1 0x40 MLOAD DUP1 DUP4 SUB DUP2 PUSH0 DUP8 DUP1 EXTCODESIZE ISZERO DUP1 ISZERO PUSH2 0x289 JUMPI PUSH0 PUSH0 REVERT JUMPDEST POP GAS CALL ISZERO DUP1 ISZERO PUSH2 0x29B JUMPI RETURNDATASIZE PUSH0 PUSH0 RETURNDATACOPY RETURNDATASIZE PUSH0 REVERT JUMPDEST POP POP POP POP PUSH0 PUSH1 0x4 DUP2 SWAP1 SSTORE POP PUSH0 PUSH1 0x5 DUP2 SWAP1 SSTORE POP PUSH0 PUSH1 0x6 DUP2 SWAP1 SSTORE POP POP JUMP JUMPDEST PUSH0 PUSH1 0x4 SLOAD EQ PUSH2 0x2C4 JUMPI PUSH0 PUSH0 REVERT JUMPDEST TIMESTAMP PUSH1 0x4 DUP2 SWAP1 SSTORE POP PUSH1 0x7 SLOAD PUSH1 0x4 SLOAD PUSH2 0x2DB SWAP2 SWAP1 PUSH2 0x709 JUMP JUMPDEST PUSH1 0x5 DUP2 SWAP1 SSTORE POP PUSH1 0x7 SLOAD PUSH1 0x5 SLOAD PUSH2 0x2F1 SWAP2 SWAP1 PUSH2 0x709 JUMP JUMPDEST PUSH1 0x6 DUP2 SWAP1 SSTORE POP JUMP JUMPDEST PUSH1 0x1 PUSH1 0x20 MSTORE DUP1 PUSH0 MSTORE PUSH1 0x40 PUSH0 KECCAK256 PUSH0 SWAP2 POP SWAP1 POP SLOAD DUP2 JUMP JUMPDEST PUSH1 0x5 SLOAD TIMESTAMP LT ISZERO PUSH2 0x31C JUMPI PUSH0 PUSH0 REVERT JUMPDEST PUSH1 0x1 PUSH0 CALLER PUSH20 0xFFFFFFFFFFFFFFFFFFFFFFFFFFFFFFFFFFFFFFFF AND PUSH20 0xFFFFFFFFFFFFFFFFFFFFFFFFFFFFFFFFFFFFFFFF AND DUP2 MSTORE PUSH1 0x20 ADD SWAP1 DUP2 MSTORE PUSH1 0x20 ADD PUSH0 KECCAK256 SLOAD DUP2 PUSH1 0x40 MLOAD PUSH1 0x20 ADD PUSH2 0x36B SWAP2 SWAP1 PUSH2 0x803 JUMP JUMPDEST PUSH1 0x40 MLOAD PUSH1 0x20 DUP2 DUP4 SUB SUB DUP2 MSTORE SWAP1 PUSH1 0x40 MSTORE DUP1 MLOAD SWAP1 PUSH1 0x20 ADD KECCAK256 EQ PUSH2 0x38A JUMPI PUSH0 PUSH0 REVERT JUMPDEST PUSH1 0x3 CALLER SWAP1 DUP1 PUSH1 0x1 DUP2 SLOAD ADD DUP1 DUP3 SSTORE DUP1 SWAP2 POP POP PUSH1 0x1 SWAP1 SUB SWAP1 PUSH0 MSTORE PUSH1 0x20 PUSH0 KECCAK256 ADD PUSH0 SWAP1 SWAP2 SWAP1 SWAP2 SWAP1 SWAP2 PUSH2 0x100 EXP DUP2 SLOAD DUP2 PUSH20 0xFFFFFFFFFFFFFFFFFFFFFFFFFFFFFFFFFFFFFFFF MUL NOT AND SWAP1 DUP4 PUSH20 0xFFFFFFFFFFFFFFFFFFFFFFFFFFFFFFFFFFFFFFFF AND MUL OR SWAP1 SSTORE POP DUP1 PUSH1 0x2 PUSH0 CALLER PUSH20 0xFFFFFFFFFFFFFFFFFFFFFFFFFFFFFFFFFFFFFFFF AND PUSH20 0xFFFFFFFFFFFFFFFFFFFFFFFFFFFFFFFFFFFFFFFF AND DUP2 MSTORE PUSH1 0x20 ADD SWAP1 DUP2 MSTORE PUSH1 0x20 ADD PUSH0 KECCAK256 DUP2 SWAP1 SSTORE POP POP JUMP JUMPDEST PUSH1 0x4 SLOAD TIMESTAMP LT ISZERO PUSH2 0x43D JUMPI PUSH0 PUSH0 REVERT JUMPDEST DUP1 PUSH1 0x1 PUSH0 CALLER PUSH20 0xFFFFFFFFFFFFFFFFFFFFFFFFFFFFFFFFFFFFFFFF AND PUSH20 0xFFFFFFFFFFFFFFFFFFFFFFFFFFFFFFFFFFFFFFFF AND DUP2 MSTORE PUSH1 0x20 ADD SWAP1 DUP2 MSTORE PUSH1 0x20 ADD PUSH0 KECCAK256 DUP2 SWAP1 SSTORE POP POP JUMP JUMPDEST PUSH0 PUSH1 0x8 PUSH0 SWAP1 SLOAD SWAP1 PUSH2 0x100 EXP SWAP1 DIV PUSH1 0xFF AND SWAP1 POP SWAP1 JUMP JUMPDEST PUSH0 PUSH0 REVERT JUMPDEST PUSH0 PUSH20 0xFFFFFFFFFFFFFFFFFFFFFFFFFFFFFFFFFFFFFFFF DUP3 AND SWAP1 POP SWAP2 SWAP1 POP JUMP JUMPDEST PUSH0 PUSH2 0x4C4 DUP3 PUSH2 0x49B JUMP JUMPDEST SWAP1 POP SWAP2 SWAP1 POP JUMP JUMPDEST PUSH2 0x4D4 DUP2 PUSH2 0x4BA JUMP JUMPDEST DUP2 EQ PUSH2 0x4DE JUMPI PUSH0 PUSH0 REVERT JUMPDEST POP JUMP JUMPDEST PUSH0 DUP2 CALLDATALOAD SWAP1 POP PUSH2 0x4EF DUP2 PUSH2 0x4CB JUMP JUMPDEST SWAP3 SWAP2 POP POP JUMP JUMPDEST PUSH0 PUSH1 0x20 DUP3 DUP5 SUB SLT ISZERO PUSH2 0x50A JUMPI PUSH2 0x509 PUSH2 0x497 JUMP JUMPDEST JUMPDEST PUSH0 PUSH2 0x517 DUP5 DUP3 DUP6 ADD PUSH2 0x4E1 JUMP JUMPDEST SWAP2 POP POP SWAP3 SWAP2 POP POP JUMP JUMPDEST PUSH0 DUP2 SWAP1 POP SWAP2 SWAP1 POP JUMP JUMPDEST PUSH2 0x532 DUP2 PUSH2 0x520 JUMP JUMPDEST DUP3 MSTORE POP POP JUMP JUMPDEST PUSH0 PUSH1 0x20 DUP3 ADD SWAP1 POP PUSH2 0x54B PUSH0 DUP4 ADD DUP5 PUSH2 0x529 JUMP JUMPDEST SWAP3 SWAP2 POP POP JUMP JUMPDEST PUSH0 DUP2 SWAP1 POP SWAP2 SWAP1 POP JUMP JUMPDEST PUSH2 0x563 DUP2 PUSH2 0x551 JUMP JUMPDEST DUP2 EQ PUSH2 0x56D JUMPI PUSH0 PUSH0 REVERT JUMPDEST POP JUMP JUMPDEST PUSH0 DUP2 CALLDATALOAD SWAP1 POP PUSH2 0x57E DUP2 PUSH2 0x55A JUMP JUMPDEST SWAP3 SWAP2 POP POP JUMP JUMPDEST PUSH0 PUSH1 0x20 DUP3 DUP5 SUB SLT ISZERO PUSH2 0x599 JUMPI PUSH2 0x598 PUSH2 0x497 JUMP JUMPDEST JUMPDEST PUSH0 PUSH2 0x5A6 DUP5 DUP3 DUP6 ADD PUSH2 0x570 JUMP JUMPDEST SWAP2 POP POP SWAP3 SWAP2 POP POP JUMP JUMPDEST PUSH2 0x5B8 DUP2 PUSH2 0x520 JUMP JUMPDEST DUP2 EQ PUSH2 0x5C2 JUMPI PUSH0 PUSH0 REVERT JUMPDEST POP JUMP JUMPDEST PUSH0 DUP2 CALLDATALOAD SWAP1 POP PUSH2 0x5D3 DUP2 PUSH2 0x5AF JUMP JUMPDEST SWAP3 SWAP2 POP POP JUMP JUMPDEST PUSH0 PUSH1 0x20 DUP3 DUP5 SUB SLT ISZERO PUSH2 0x5EE JUMPI PUSH2 0x5ED PUSH2 0x497 JUMP JUMPDEST JUMPDEST PUSH0 PUSH2 0x5FB DUP5 DUP3 DUP6 ADD PUSH2 0x5C5 JUMP JUMPDEST SWAP2 POP POP SWAP3 SWAP2 POP POP JUMP JUMPDEST PUSH0 DUP2 ISZERO ISZERO SWAP1 POP SWAP2 SWAP1 POP JUMP JUMPDEST PUSH2 0x618 DUP2 PUSH2 0x604 JUMP JUMPDEST DUP3 MSTORE POP POP JUMP JUMPDEST PUSH0 PUSH1 0x20 DUP3 ADD SWAP1 POP PUSH2 0x631 PUSH0 DUP4 ADD DUP5 PUSH2 0x60F JUMP JUMPDEST SWAP3 SWAP2 POP POP JUMP JUMPDEST PUSH0 DUP3 DUP3 MSTORE PUSH1 0x20 DUP3 ADD SWAP1 POP SWAP3 SWAP2 POP POP JUMP JUMPDEST PUSH32 0x4C6F7474657279206E6F7420656E646564207965740000000000000000000000 PUSH0 DUP3 ADD MSTORE POP JUMP JUMPDEST PUSH0 PUSH2 0x67B PUSH1 0x15 DUP4 PUSH2 0x637 JUMP JUMPDEST SWAP2 POP PUSH2 0x686 DUP3 PUSH2 0x647 JUMP JUMPDEST PUSH1 0x20 DUP3 ADD SWAP1 POP SWAP2 SWAP1 POP JUMP JUMPDEST PUSH0 PUSH1 0x20 DUP3 ADD SWAP1 POP DUP2 DUP2 SUB PUSH0 DUP4 ADD MSTORE PUSH2 0x6A8 DUP2 PUSH2 0x66F JUMP JUMPDEST SWAP1 POP SWAP2 SWAP1 POP JUMP JUMPDEST PUSH32 0x4E487B7100000000000000000000000000000000000000000000000000000000 PUSH0 MSTORE PUSH1 0x32 PUSH1 0x4 MSTORE PUSH1 0x24 PUSH0 REVERT JUMPDEST PUSH32 0x4E487B7100000000000000000000000000000000000000000000000000000000 PUSH0 MSTORE PUSH1 0x11 PUSH1 0x4 MSTORE PUSH1 0x24 PUSH0 REVERT JUMPDEST PUSH0 PUSH2 0x713 DUP3 PUSH2 0x551 JUMP JUMPDEST SWAP2 POP PUSH2 0x71E DUP4 PUSH2 0x551 JUMP JUMPDEST SWAP3 POP DUP3 DUP3 ADD SWAP1 POP DUP1 DUP3 GT ISZERO PUSH2 0x736 JUMPI PUSH2 0x735 PUSH2 0x6DC JUMP JUMPDEST JUMPDEST SWAP3 SWAP2 POP POP JUMP JUMPDEST PUSH32 0x4E487B7100000000000000000000000000000000000000000000000000000000 PUSH0 MSTORE PUSH1 0x12 PUSH1 0x4 MSTORE PUSH1 0x24 PUSH0 REVERT JUMPDEST PUSH0 PUSH2 0x773 DUP3 PUSH2 0x551 JUMP JUMPDEST SWAP2 POP PUSH2 0x77E DUP4 PUSH2 0x551 JUMP JUMPDEST SWAP3 POP DUP3 PUSH2 0x78E JUMPI PUSH2 0x78D PUSH2 0x73C JUMP JUMPDEST JUMPDEST DUP3 DUP3 MOD SWAP1 POP SWAP3 SWAP2 POP POP JUMP JUMPDEST PUSH0 DUP2 SWAP1 POP SWAP2 SWAP1 POP JUMP JUMPDEST PUSH0 DUP2 SWAP1 POP SWAP2 SWAP1 POP JUMP JUMPDEST PUSH0 PUSH2 0x7C5 PUSH2 0x7C0 PUSH2 0x7BB DUP5 PUSH2 0x799 JUMP JUMPDEST PUSH2 0x7A2 JUMP JUMPDEST PUSH2 0x551 JUMP JUMPDEST SWAP1 POP SWAP2 SWAP1 POP JUMP JUMPDEST PUSH2 0x7D5 DUP2 PUSH2 0x7AB JUMP JUMPDEST DUP3 MSTORE POP POP JUMP JUMPDEST PUSH0 PUSH1 0x20 DUP3 ADD SWAP1 POP PUSH2 0x7EE PUSH0 DUP4 ADD DUP5 PUSH2 0x7CC JUMP JUMPDEST SWAP3 SWAP2 POP POP JUMP JUMPDEST PUSH2 0x7FD DUP2 PUSH2 0x551 JUMP JUMPDEST DUP3 MSTORE POP POP JUMP JUMPDEST PUSH0 PUSH1 0x20 DUP3 ADD SWAP1 POP PUSH2 0x816 PUSH0 DUP4 ADD DUP5 PUSH2 0x7F4 JUMP JUMPDEST SWAP3 SWAP2 POP POP JUMP INVALID LOG2 PUSH5 0x6970667358 0x22 SLT KECCAK256 PUSH26 0x2167B504C6187A3CF816C6E8F4FC00772956FBC1D63A8AAC5A4D DUP11 SUB ADD 0x28 CODESIZE PUSH5 0x736F6C6343 STOP ADDMOD 0x1E STOP CALLER "
				},
				"gasEstimates": {
					"creation": {
						"codeDepositCost": "426000",
						"executionCost": "infinite",
						"totalCost": "infinite"
					},
					"external": {
						"commit(bytes32)": "24793",
						"commits(address)": "2824",
						"endLottery()": "infinite",
						"isContract()": "2561",
						"reveal(uint256)": "infinite",
						"startLottery()": "infinite"
					}
				},
				"methodIdentifiers": {
					"commit(bytes32)": "f14fcbc8",
					"commits(address)": "7b43a8e6",
					"endLottery()": "1593a8c7",
					"isContract()": "f7ec2f35",
					"reveal(uint256)": "c2ca0ac5",
					"startLottery()": "160344e2"
				}
			},
			"storageLayout": {
				"storage": [
					{
						"astId": 4,
						"contract": "Lottery.sol:Lottery",
						"label": "owner",
						"offset": 0,
						"slot": "0",
						"type": "t_address"
					},
					{
						"astId": 8,
						"contract": "Lottery.sol:Lottery",
						"label": "commits",
						"offset": 0,
						"slot": "1",
						"type": "t_mapping(t_address,t_bytes32)"
					},
					{
						"astId": 12,
						"contract": "Lottery.sol:Lottery",
						"label": "reveals",
						"offset": 0,
						"slot": "2",
						"type": "t_mapping(t_address,t_uint256)"
					},
					{
						"astId": 15,
						"contract": "Lottery.sol:Lottery",
						"label": "revealed",
						"offset": 0,
						"slot": "3",
						"type": "t_array(t_address)dyn_storage"
					},
					{
						"astId": 17,
						"contract": "Lottery.sol:Lottery",
						"label": "startTime",
						"offset": 0,
						"slot": "4",
						"type": "t_uint256"
					},
					{
						"astId": 19,
						"contract": "Lottery.sol:Lottery",
						"label": "revealTime",
						"offset": 0,
						"slot": "5",
						"type": "t_uint256"
					},
					{
						"astId": 21,
						"contract": "Lottery.sol:Lottery",
						"label": "endTime",
						"offset": 0,
						"slot": "6",
						"type": "t_uint256"
					},
					{
						"astId": 23,
						"contract": "Lottery.sol:Lottery",
						"label": "period",
						"offset": 0,
						"slot": "7",
						"type": "t_uint256"
					},
					{
						"astId": 25,
						"contract": "Lottery.sol:Lottery",
						"label": "iscontract",
						"offset": 0,
						"slot": "8",
						"type": "t_bool"
					}
				],
				"types": {
					"t_address": {
						"encoding": "inplace",
						"label": "address",
						"numberOfBytes": "20"
					},
					"t_array(t_address)dyn_storage": {
						"base": "t_address",
						"encoding": "dynamic_array",
						"label": "address[]",
						"numberOfBytes": "32"
					},
					"t_bool": {
						"encoding": "inplace",
						"label": "bool",
						"numberOfBytes": "1"
					},
					"t_bytes32": {
						"encoding": "inplace",
						"label": "bytes32",
						"numberOfBytes": "32"
					},
					"t_mapping(t_address,t_bytes32)": {
						"encoding": "mapping",
						"key": "t_address",
						"label": "mapping(address => bytes32)",
						"numberOfBytes": "32",
						"value": "t_bytes32"
					},
					"t_mapping(t_address,t_uint256)": {
						"encoding": "mapping",
						"key": "t_address",
						"label": "mapping(address => uint256)",
						"numberOfBytes": "32",
						"value": "t_uint256"
					},
					"t_uint256": {
						"encoding": "inplace",
						"label": "uint256",
						"numberOfBytes": "32"
					}
				}
			},
			"userdoc": {
				"kind": "user",
				"methods": {},
				"version": 1
			}
		}
	}
}