{
	"Lottery.sol": {
		"Lottery": {
			"abi": [
				{
					"inputs": [
						{
							"internalType": "uint256",
							"name": "p",
							"type": "uint256"
						}
					],
					"stateMutability": "nonpayable",
					"type": "constructor"
				},
				{
					"inputs": [
						{
							"internalType": "bytes32",
							"name": "y",
							"type": "bytes32"
						}
					],
					"name": "commit",
					"outputs": [],
					"stateMutability": "nonpayable",
					"type": "function"
				},
				{
					"inputs": [
						{
							"internalType": "address",
							"name": "",
							"type": "address"
						}
					],
					"name": "commits",
					"outputs": [
						{
							"internalType": "bytes32",
							"name": "",
							"type": "bytes32"
						}
					],
					"stateMutability": "view",
					"type": "function"
				},
				{
					"inputs": [],
					"name": "endLottery",
					"outputs": [],
					"stateMutability": "nonpayable",
					"type": "function"
				},
				{
					"inputs": [],
					"name": "isContract",
					"outputs": [
						{
							"internalType": "bool",
							"name": "",
							"type": "bool"
						}
					],
					"stateMutability": "view",
					"type": "function"
				},
				{
					"inputs": [
						{
							"internalType": "uint256",
							"name": "rev",
							"type": "uint256"
						}
					],
					"name": "reveal",
					"outputs": [],
					"stateMutability": "nonpayable",
					"type": "function"
				},
				{
					"inputs": [],
					"name": "startLottery",
					"outputs": [],
					"stateMutability": "nonpayable",
					"type": "function"
				}
			],
			"devdoc": {
				"kind": "dev",
				"methods": {},
				"version": 1
			},
			"evm": {
				"assembly": "    /* \"Lottery.sol\":88:2216  contract Lottery {... */\n  mstore(0x40, 0x80)\n    /* \"Lottery.sol\":420:531  constructor(uint p) {... */\n  callvalue\n  dup1\n  iszero\n  tag_1\n  jumpi\n  revert(0x00, 0x00)\ntag_1:\n  pop\n  mload(0x40)\n  sub(codesize, bytecodeSize)\n  dup1\n  bytecodeSize\n  dup4\n  codecopy\n  dup2\n  dup2\n  add\n  0x40\n  mstore\n  dup2\n  add\n  swap1\n  tag_2\n  swap2\n  swap1\n  tag_3\n  jump\t// in\ntag_2:\n    /* \"Lottery.sol\":453:454  p */\n  dup1\n    /* \"Lottery.sol\":444:450  period */\n  0x07\n    /* \"Lottery.sol\":444:454  period = p */\n  dup2\n  swap1\n  sstore\n  pop\n    /* \"Lottery.sol\":470:471  0 */\n  0x00\n    /* \"Lottery.sol\":458:467  startTime */\n  0x04\n    /* \"Lottery.sol\":458:471  startTime = 0 */\n  dup2\n  swap1\n  sstore\n  pop\n    /* \"Lottery.sol\":485:486  0 */\n  0x00\n    /* \"Lottery.sol\":475:482  endTime */\n  0x06\n    /* \"Lottery.sol\":475:486  endTime = 0 */\n  dup2\n  swap1\n  sstore\n  pop\n    /* \"Lottery.sol\":501:505  true */\n  0x01\n    /* \"Lottery.sol\":490:500  iscontract */\n  0x08\n  0x00\n    /* \"Lottery.sol\":490:505  iscontract=true */\n  0x0100\n  exp\n  dup2\n  sload\n  dup2\n  0xff\n  mul\n  not\n  and\n  swap1\n  dup4\n  iszero\n  iszero\n  mul\n  or\n  swap1\n  sstore\n  pop\n    /* \"Lottery.sol\":517:527  msg.sender */\n  caller\n    /* \"Lottery.sol\":509:514  owner */\n  0x00\n  0x00\n    /* \"Lottery.sol\":509:527  owner = msg.sender */\n  0x0100\n  exp\n  dup2\n  sload\n  dup2\n  0xffffffffffffffffffffffffffffffffffffffff\n  mul\n  not\n  and\n  swap1\n  dup4\n  0xffffffffffffffffffffffffffffffffffffffff\n  and\n  mul\n  or\n  swap1\n  sstore\n  pop\n    /* \"Lottery.sol\":420:531  constructor(uint p) {... */\n  pop\n    /* \"Lottery.sol\":88:2216  contract Lottery {... */\n  jump(tag_6)\n    /* \"#utility.yul\":88:205   */\ntag_8:\n    /* \"#utility.yul\":197:198   */\n  0x00\n    /* \"#utility.yul\":194:195   */\n  0x00\n    /* \"#utility.yul\":187:199   */\n  revert\n    /* \"#utility.yul\":334:411   */\ntag_10:\n    /* \"#utility.yul\":371:378   */\n  0x00\n    /* \"#utility.yul\":400:405   */\n  dup2\n    /* \"#utility.yul\":389:405   */\n  swap1\n  pop\n    /* \"#utility.yul\":334:411   */\n  swap2\n  swap1\n  pop\n  jump\t// out\n    /* \"#utility.yul\":417:539   */\ntag_11:\n    /* \"#utility.yul\":490:514   */\n  tag_19\n    /* \"#utility.yul\":508:513   */\n  dup2\n    /* \"#utility.yul\":490:514   */\n  tag_10\n  jump\t// in\ntag_19:\n    /* \"#utility.yul\":483:488   */\n  dup2\n    /* \"#utility.yul\":480:515   */\n  eq\n    /* \"#utility.yul\":470:533   */\n  tag_20\n  jumpi\n    /* \"#utility.yul\":529:530   */\n  0x00\n    /* \"#utility.yul\":526:527   */\n  0x00\n    /* \"#utility.yul\":519:531   */\n  revert\n    /* \"#utility.yul\":470:533   */\ntag_20:\n    /* \"#utility.yul\":417:539   */\n  pop\n  jump\t// out\n    /* \"#utility.yul\":545:688   */\ntag_12:\n    /* \"#utility.yul\":602:607   */\n  0x00\n    /* \"#utility.yul\":633:639   */\n  dup2\n    /* \"#utility.yul\":627:640   */\n  mload\n    /* \"#utility.yul\":618:640   */\n  swap1\n  pop\n    /* \"#utility.yul\":649:682   */\n  tag_22\n    /* \"#utility.yul\":676:681   */\n  dup2\n    /* \"#utility.yul\":649:682   */\n  tag_11\n  jump\t// in\ntag_22:\n    /* \"#utility.yul\":545:688   */\n  swap3\n  swap2\n  pop\n  pop\n  jump\t// out\n    /* \"#utility.yul\":694:1045   */\ntag_3:\n    /* \"#utility.yul\":764:770   */\n  0x00\n    /* \"#utility.yul\":813:815   */\n  0x20\n    /* \"#utility.yul\":801:810   */\n  dup3\n    /* \"#utility.yul\":792:799   */\n  dup5\n    /* \"#utility.yul\":788:811   */\n  sub\n    /* \"#utility.yul\":784:816   */\n  slt\n    /* \"#utility.yul\":781:900   */\n  iszero\n  tag_24\n  jumpi\n    /* \"#utility.yul\":819:898   */\n  tag_25\n  tag_8\n  jump\t// in\ntag_25:\n    /* \"#utility.yul\":781:900   */\ntag_24:\n    /* \"#utility.yul\":939:940   */\n  0x00\n    /* \"#utility.yul\":964:1028   */\n  tag_26\n    /* \"#utility.yul\":1020:1027   */\n  dup5\n    /* \"#utility.yul\":1011:1017   */\n  dup3\n    /* \"#utility.yul\":1000:1009   */\n  dup6\n    /* \"#utility.yul\":996:1018   */\n  add\n    /* \"#utility.yul\":964:1028   */\n  tag_12\n  jump\t// in\ntag_26:\n    /* \"#utility.yul\":954:1028   */\n  swap2\n  pop\n    /* \"#utility.yul\":910:1038   */\n  pop\n    /* \"#utility.yul\":694:1045   */\n  swap3\n  swap2\n  pop\n  pop\n  jump\t// out\n    /* \"Lottery.sol\":88:2216  contract Lottery {... */\ntag_6:\n  dataSize(sub_0)\n  dup1\n  dataOffset(sub_0)\n  0x00\n  codecopy\n  0x00\n  return\nstop\n\nsub_0: assembly {\n        /* \"Lottery.sol\":88:2216  contract Lottery {... */\n      mstore(0x40, 0x80)\n      callvalue\n      dup1\n      iszero\n      tag_1\n      jumpi\n      revert(0x00, 0x00)\n    tag_1:\n      pop\n      jumpi(tag_2, lt(calldatasize, 0x04))\n      shr(0xe0, calldataload(0x00))\n      dup1\n      0x1593a8c7\n      eq\n      tag_3\n      jumpi\n      dup1\n      0x160344e2\n      eq\n      tag_4\n      jumpi\n      dup1\n      0x7b43a8e6\n      eq\n      tag_5\n      jumpi\n      dup1\n      0xc2ca0ac5\n      eq\n      tag_6\n      jumpi\n      dup1\n      0xf14fcbc8\n      eq\n      tag_7\n      jumpi\n      dup1\n      0xf7ec2f35\n      eq\n      tag_8\n      jumpi\n    tag_2:\n      revert(0x00, 0x00)\n        /* \"Lottery.sol\":1638:2126  function endLottery() public onlyOwner {  // only the owner can close a lotttery... */\n    tag_3:\n      tag_9\n      tag_10\n      jump\t// in\n    tag_9:\n      stop\n        /* \"Lottery.sol\":697:1049  function startLottery() public onlyOwner {... */\n    tag_4:\n      tag_11\n      tag_12\n      jump\t// in\n    tag_11:\n      stop\n        /* \"Lottery.sol\":176:219  mapping (address => bytes32) public commits */\n    tag_5:\n      tag_13\n      0x04\n      dup1\n      calldatasize\n      sub\n      dup2\n      add\n      swap1\n      tag_14\n      swap2\n      swap1\n      tag_15\n      jump\t// in\n    tag_14:\n      tag_16\n      jump\t// in\n    tag_13:\n      mload(0x40)\n      tag_17\n      swap2\n      swap1\n      tag_18\n      jump\t// in\n    tag_17:\n      mload(0x40)\n      dup1\n      swap2\n      sub\n      swap1\n      return\n        /* \"Lottery.sol\":1335:1593  function reveal(uint256 rev) public {... */\n    tag_6:\n      tag_19\n      0x04\n      dup1\n      calldatasize\n      sub\n      dup2\n      add\n      swap1\n      tag_20\n      swap2\n      swap1\n      tag_21\n      jump\t// in\n    tag_20:\n      tag_22\n      jump\t// in\n    tag_19:\n      stop\n        /* \"Lottery.sol\":1090:1258  function commit(bytes32 y) public {... */\n    tag_7:\n      tag_23\n      0x04\n      dup1\n      calldatasize\n      sub\n      dup2\n      add\n      swap1\n      tag_24\n      swap2\n      swap1\n      tag_25\n      jump\t// in\n    tag_24:\n      tag_26\n      jump\t// in\n    tag_23:\n      stop\n        /* \"Lottery.sol\":2129:2201  function isContract() public view returns(bool) {... */\n    tag_8:\n      tag_27\n      tag_28\n      jump\t// in\n    tag_27:\n      mload(0x40)\n      tag_29\n      swap2\n      swap1\n      tag_30\n      jump\t// in\n    tag_29:\n      mload(0x40)\n      dup1\n      swap2\n      sub\n      swap1\n      return\n        /* \"Lottery.sol\":1638:2126  function endLottery() public onlyOwner {  // only the owner can close a lotttery... */\n    tag_10:\n        /* \"Lottery.sol\":603:608  owner */\n      0x00\n      0x00\n      swap1\n      sload\n      swap1\n      0x0100\n      exp\n      swap1\n      div\n      0xffffffffffffffffffffffffffffffffffffffff\n      and\n        /* \"Lottery.sol\":589:608  msg.sender == owner */\n      0xffffffffffffffffffffffffffffffffffffffff\n      and\n        /* \"Lottery.sol\":589:599  msg.sender */\n      caller\n        /* \"Lottery.sol\":589:608  msg.sender == owner */\n      0xffffffffffffffffffffffffffffffffffffffff\n      and\n      eq\n        /* \"Lottery.sol\":581:623  require(msg.sender == owner, \"Only owner\") */\n      tag_32\n      jumpi\n      mload(0x40)\n      0x08c379a000000000000000000000000000000000000000000000000000000000\n      dup2\n      mstore\n      0x04\n      add\n      tag_33\n      swap1\n      tag_34\n      jump\t// in\n    tag_33:\n      mload(0x40)\n      dup1\n      swap2\n      sub\n      swap1\n      revert\n    tag_32:\n        /* \"Lottery.sol\":1748:1755  endTime */\n      sload(0x06)\n        /* \"Lottery.sol\":1729:1744  block.timestamp */\n      timestamp\n        /* \"Lottery.sol\":1729:1755  block.timestamp >= endTime */\n      lt\n      iszero\n        /* \"Lottery.sol\":1721:1781  require(block.timestamp >= endTime, \"Lottery not ended yet\") */\n      tag_36\n      jumpi\n      mload(0x40)\n      0x08c379a000000000000000000000000000000000000000000000000000000000\n      dup2\n      mstore\n      0x04\n      add\n      tag_37\n      swap1\n      tag_38\n      jump\t// in\n    tag_37:\n      mload(0x40)\n      dup1\n      swap2\n      sub\n      swap1\n      revert\n    tag_36:\n        /* \"Lottery.sol\":1811:1812  0 */\n      0x00\n        /* \"Lottery.sol\":1793:1801  revealed */\n      0x03\n        /* \"Lottery.sol\":1793:1808  revealed.length */\n      dup1\n      sload\n      swap1\n      pop\n        /* \"Lottery.sol\":1793:1812  revealed.length > 0 */\n      gt\n        /* \"Lottery.sol\":1785:1832  require(revealed.length > 0, \"No participants\") */\n      tag_39\n      jumpi\n      mload(0x40)\n      0x08c379a000000000000000000000000000000000000000000000000000000000\n      dup2\n      mstore\n      0x04\n      add\n      tag_40\n      swap1\n      tag_41\n      jump\t// in\n    tag_40:\n      mload(0x40)\n      dup1\n      swap2\n      sub\n      swap1\n      revert\n    tag_39:\n        /* \"Lottery.sol\":1837:1847  uint total */\n      0x00\n        /* \"Lottery.sol\":1850:1851  0 */\n      0x00\n        /* \"Lottery.sol\":1837:1851  uint total = 0 */\n      swap1\n      pop\n        /* \"Lottery.sol\":1861:1867  uint i */\n      0x00\n        /* \"Lottery.sol\":1870:1871  0 */\n      0x00\n        /* \"Lottery.sol\":1861:1871  uint i = 0 */\n      swap1\n      pop\n        /* \"Lottery.sol\":1856:1931  for (uint i = 0; i < revealed.length; i++)... */\n    tag_42:\n        /* \"Lottery.sol\":1877:1885  revealed */\n      0x03\n        /* \"Lottery.sol\":1877:1892  revealed.length */\n      dup1\n      sload\n      swap1\n      pop\n        /* \"Lottery.sol\":1873:1874  i */\n      dup2\n        /* \"Lottery.sol\":1873:1892  i < revealed.length */\n      lt\n        /* \"Lottery.sol\":1856:1931  for (uint i = 0; i < revealed.length; i++)... */\n      iszero\n      tag_43\n      jumpi\n        /* \"Lottery.sol\":1911:1918  reveals */\n      0x02\n        /* \"Lottery.sol\":1911:1931  reveals[revealed[i]] */\n      0x00\n        /* \"Lottery.sol\":1919:1927  revealed */\n      0x03\n        /* \"Lottery.sol\":1928:1929  i */\n      dup4\n        /* \"Lottery.sol\":1919:1930  revealed[i] */\n      dup2\n      sload\n      dup2\n      lt\n      tag_45\n      jumpi\n      tag_46\n      tag_47\n      jump\t// in\n    tag_46:\n    tag_45:\n      swap1\n      0x00\n      mstore\n      keccak256(0x00, 0x20)\n      add\n      0x00\n      swap1\n      sload\n      swap1\n      0x0100\n      exp\n      swap1\n      div\n      0xffffffffffffffffffffffffffffffffffffffff\n      and\n        /* \"Lottery.sol\":1911:1931  reveals[revealed[i]] */\n      0xffffffffffffffffffffffffffffffffffffffff\n      and\n      0xffffffffffffffffffffffffffffffffffffffff\n      and\n      dup2\n      mstore\n      0x20\n      add\n      swap1\n      dup2\n      mstore\n      0x20\n      add\n      0x00\n      keccak256\n      sload\n        /* \"Lottery.sol\":1903:1931  total+= reveals[revealed[i]] */\n      dup3\n      tag_49\n      swap2\n      swap1\n      tag_50\n      jump\t// in\n    tag_49:\n      swap2\n      pop\n        /* \"Lottery.sol\":1894:1897  i++ */\n      dup1\n      dup1\n      0x01\n      add\n      swap2\n      pop\n      pop\n        /* \"Lottery.sol\":1856:1931  for (uint i = 0; i < revealed.length; i++)... */\n      jump(tag_42)\n    tag_43:\n      pop\n        /* \"Lottery.sol\":2001:2009  revealed */\n      0x03\n        /* \"Lottery.sol\":2016:2024  revealed */\n      dup1\n        /* \"Lottery.sol\":2016:2031  revealed.length */\n      dup1\n      sload\n      swap1\n      pop\n        /* \"Lottery.sol\":2010:2015  total */\n      dup3\n        /* \"Lottery.sol\":2010:2031  total%revealed.length */\n      tag_51\n      swap2\n      swap1\n      tag_52\n      jump\t// in\n    tag_51:\n        /* \"Lottery.sol\":2001:2032  revealed[total%revealed.length] */\n      dup2\n      sload\n      dup2\n      lt\n      tag_53\n      jumpi\n      tag_54\n      tag_47\n      jump\t// in\n    tag_54:\n    tag_53:\n      swap1\n      0x00\n      mstore\n      keccak256(0x00, 0x20)\n      add\n      0x00\n      swap1\n      sload\n      swap1\n      0x0100\n      exp\n      swap1\n      div\n      0xffffffffffffffffffffffffffffffffffffffff\n      and\n        /* \"Lottery.sol\":1992:2049  Taxpayer(revealed[total%revealed.length]).setTaxAllowance */\n      0xffffffffffffffffffffffffffffffffffffffff\n      and\n      0x25803d64\n        /* \"Lottery.sol\":2050:2054  9000 */\n      0x2328\n        /* \"Lottery.sol\":1992:2055  Taxpayer(revealed[total%revealed.length]).setTaxAllowance(9000) */\n      mload(0x40)\n      dup3\n      0xffffffff\n      and\n      0xe0\n      shl\n      dup2\n      mstore\n      0x04\n      add\n      tag_56\n      swap2\n      swap1\n      tag_57\n      jump\t// in\n    tag_56:\n      0x00\n      mload(0x40)\n      dup1\n      dup4\n      sub\n      dup2\n      0x00\n      dup8\n      dup1\n      extcodesize\n      iszero\n      dup1\n      iszero\n      tag_58\n      jumpi\n      revert(0x00, 0x00)\n    tag_58:\n      pop\n      gas\n      call\n      iszero\n      dup1\n      iszero\n      tag_60\n      jumpi\n      returndatacopy(0x00, 0x00, returndatasize)\n      revert(0x00, returndatasize)\n    tag_60:\n      pop\n      pop\n      pop\n      pop\n        /* \"Lottery.sol\":2072:2073  0 */\n      0x00\n        /* \"Lottery.sol\":2060:2069  startTime */\n      0x04\n        /* \"Lottery.sol\":2060:2073  startTime = 0 */\n      dup2\n      swap1\n      sstore\n      pop\n        /* \"Lottery.sol\":2088:2089  0 */\n      0x00\n        /* \"Lottery.sol\":2077:2087  revealTime */\n      0x05\n        /* \"Lottery.sol\":2077:2089  revealTime=0 */\n      dup2\n      swap1\n      sstore\n      pop\n        /* \"Lottery.sol\":2103:2104  0 */\n      0x00\n        /* \"Lottery.sol\":2093:2100  endTime */\n      0x06\n        /* \"Lottery.sol\":2093:2104  endTime = 0 */\n      dup2\n      swap1\n      sstore\n      pop\n        /* \"Lottery.sol\":2115:2123  revealed */\n      0x03\n      0x00\n        /* \"Lottery.sol\":2108:2123  delete revealed */\n      tag_61\n      swap2\n      swap1\n      tag_62\n      jump\t// in\n    tag_61:\n        /* \"Lottery.sol\":1677:2126  {  // only the owner can close a lotttery... */\n      pop\n        /* \"Lottery.sol\":1638:2126  function endLottery() public onlyOwner {  // only the owner can close a lotttery... */\n      jump\t// out\n        /* \"Lottery.sol\":697:1049  function startLottery() public onlyOwner {... */\n    tag_12:\n        /* \"Lottery.sol\":603:608  owner */\n      0x00\n      0x00\n      swap1\n      sload\n      swap1\n      0x0100\n      exp\n      swap1\n      div\n      0xffffffffffffffffffffffffffffffffffffffff\n      and\n        /* \"Lottery.sol\":589:608  msg.sender == owner */\n      0xffffffffffffffffffffffffffffffffffffffff\n      and\n        /* \"Lottery.sol\":589:599  msg.sender */\n      caller\n        /* \"Lottery.sol\":589:608  msg.sender == owner */\n      0xffffffffffffffffffffffffffffffffffffffff\n      and\n      eq\n        /* \"Lottery.sol\":581:623  require(msg.sender == owner, \"Only owner\") */\n      tag_64\n      jumpi\n      mload(0x40)\n      0x08c379a000000000000000000000000000000000000000000000000000000000\n      dup2\n      mstore\n      0x04\n      add\n      tag_65\n      swap1\n      tag_34\n      jump\t// in\n    tag_65:\n      mload(0x40)\n      dup1\n      swap2\n      sub\n      swap1\n      revert\n    tag_64:\n        /* \"Lottery.sol\":764:765  0 */\n      0x00\n        /* \"Lottery.sol\":751:760  startTime */\n      sload(0x04)\n        /* \"Lottery.sol\":751:765  startTime == 0 */\n      eq\n        /* \"Lottery.sol\":742:793  require (startTime == 0, \"Lottery already started\") */\n      tag_67\n      jumpi\n      mload(0x40)\n      0x08c379a000000000000000000000000000000000000000000000000000000000\n      dup2\n      mstore\n      0x04\n      add\n      tag_68\n      swap1\n      tag_69\n      jump\t// in\n    tag_68:\n      mload(0x40)\n      dup1\n      swap2\n      sub\n      swap1\n      revert\n    tag_67:\n        /* \"Lottery.sol\":870:885  block.timestamp */\n      timestamp\n        /* \"Lottery.sol\":858:867  startTime */\n      0x04\n        /* \"Lottery.sol\":858:885  startTime = block.timestamp */\n      dup2\n      swap1\n      sstore\n      pop\n        /* \"Lottery.sol\":972:978  period */\n      sload(0x07)\n        /* \"Lottery.sol\":962:971  startTime */\n      sload(0x04)\n        /* \"Lottery.sol\":962:978  startTime+period */\n      tag_70\n      swap2\n      swap1\n      tag_50\n      jump\t// in\n    tag_70:\n        /* \"Lottery.sol\":949:959  revealTime */\n      0x05\n        /* \"Lottery.sol\":949:978  revealTime = startTime+period */\n      dup2\n      swap1\n      sstore\n      pop\n        /* \"Lottery.sol\":1040:1046  period */\n      sload(0x07)\n        /* \"Lottery.sol\":1029:1039  revealTime */\n      sload(0x05)\n        /* \"Lottery.sol\":1029:1046  revealTime+period */\n      tag_71\n      swap2\n      swap1\n      tag_50\n      jump\t// in\n    tag_71:\n        /* \"Lottery.sol\":1019:1026  endTime */\n      0x06\n        /* \"Lottery.sol\":1019:1046  endTime = revealTime+period */\n      dup2\n      swap1\n      sstore\n      pop\n        /* \"Lottery.sol\":697:1049  function startLottery() public onlyOwner {... */\n      jump\t// out\n        /* \"Lottery.sol\":176:219  mapping (address => bytes32) public commits */\n    tag_16:\n      mstore(0x20, 0x01)\n      dup1\n      0x00\n      mstore\n      keccak256(0x00, 0x40)\n      0x00\n      swap2\n      pop\n      swap1\n      pop\n      sload\n      dup2\n      jump\t// out\n        /* \"Lottery.sol\":1335:1593  function reveal(uint256 rev) public {... */\n    tag_22:\n        /* \"Lottery.sol\":1402:1412  revealTime */\n      sload(0x05)\n        /* \"Lottery.sol\":1383:1398  block.timestamp */\n      timestamp\n        /* \"Lottery.sol\":1383:1412  block.timestamp >= revealTime */\n      lt\n      iszero\n        /* \"Lottery.sol\":1375:1445  require(block.timestamp >= revealTime, \"Reveal phase not started yet\") */\n      tag_73\n      jumpi\n      mload(0x40)\n      0x08c379a000000000000000000000000000000000000000000000000000000000\n      dup2\n      mstore\n      0x04\n      add\n      tag_74\n      swap1\n      tag_75\n      jump\t// in\n    tag_74:\n      mload(0x40)\n      dup1\n      swap2\n      sub\n      swap1\n      revert\n    tag_73:\n        /* \"Lottery.sol\":1485:1492  commits */\n      0x01\n        /* \"Lottery.sol\":1485:1504  commits[msg.sender] */\n      0x00\n        /* \"Lottery.sol\":1493:1503  msg.sender */\n      caller\n        /* \"Lottery.sol\":1485:1504  commits[msg.sender] */\n      0xffffffffffffffffffffffffffffffffffffffff\n      and\n      0xffffffffffffffffffffffffffffffffffffffff\n      and\n      dup2\n      mstore\n      0x20\n      add\n      swap1\n      dup2\n      mstore\n      0x20\n      add\n      0x00\n      keccak256\n      sload\n        /* \"Lottery.sol\":1478:1481  rev */\n      dup2\n        /* \"Lottery.sol\":1467:1482  abi.encode(rev) */\n      add(0x20, mload(0x40))\n      tag_76\n      swap2\n      swap1\n      tag_77\n      jump\t// in\n    tag_76:\n      mload(0x40)\n      0x20\n      dup2\n      dup4\n      sub\n      sub\n      dup2\n      mstore\n      swap1\n      0x40\n      mstore\n        /* \"Lottery.sol\":1457:1483  keccak256(abi.encode(rev)) */\n      dup1\n      mload\n      swap1\n      0x20\n      add\n      keccak256\n        /* \"Lottery.sol\":1457:1504  keccak256(abi.encode(rev))==commits[msg.sender] */\n      eq\n        /* \"Lottery.sol\":1449:1523  require(keccak256(abi.encode(rev))==commits[msg.sender], \"Invalid reveal\") */\n      tag_78\n      jumpi\n      mload(0x40)\n      0x08c379a000000000000000000000000000000000000000000000000000000000\n      dup2\n      mstore\n      0x04\n      add\n      tag_79\n      swap1\n      tag_80\n      jump\t// in\n    tag_79:\n      mload(0x40)\n      dup1\n      swap2\n      sub\n      swap1\n      revert\n    tag_78:\n        /* \"Lottery.sol\":1527:1535  revealed */\n      0x03\n        /* \"Lottery.sol\":1541:1551  msg.sender */\n      caller\n        /* \"Lottery.sol\":1527:1552  revealed.push(msg.sender) */\n      swap1\n      dup1\n      0x01\n      dup2\n      sload\n      add\n      dup1\n      dup3\n      sstore\n      dup1\n      swap2\n      pop\n      pop\n      0x01\n      swap1\n      sub\n      swap1\n      0x00\n      mstore\n      keccak256(0x00, 0x20)\n      add\n      0x00\n      swap1\n      swap2\n      swap1\n      swap2\n      swap1\n      swap2\n      0x0100\n      exp\n      dup2\n      sload\n      dup2\n      0xffffffffffffffffffffffffffffffffffffffff\n      mul\n      not\n      and\n      swap1\n      dup4\n      0xffffffffffffffffffffffffffffffffffffffff\n      and\n      mul\n      or\n      swap1\n      sstore\n      pop\n        /* \"Lottery.sol\":1583:1586  rev */\n      dup1\n        /* \"Lottery.sol\":1556:1563  reveals */\n      0x02\n        /* \"Lottery.sol\":1556:1575  reveals[msg.sender] */\n      0x00\n        /* \"Lottery.sol\":1564:1574  msg.sender */\n      caller\n        /* \"Lottery.sol\":1556:1575  reveals[msg.sender] */\n      0xffffffffffffffffffffffffffffffffffffffff\n      and\n      0xffffffffffffffffffffffffffffffffffffffff\n      and\n      dup2\n      mstore\n      0x20\n      add\n      swap1\n      dup2\n      mstore\n      0x20\n      add\n      0x00\n      keccak256\n        /* \"Lottery.sol\":1556:1587  reveals[msg.sender] = uint(rev) */\n      dup2\n      swap1\n      sstore\n      pop\n        /* \"Lottery.sol\":1335:1593  function reveal(uint256 rev) public {... */\n      pop\n      jump\t// out\n        /* \"Lottery.sol\":1090:1258  function commit(bytes32 y) public {... */\n    tag_26:\n        /* \"Lottery.sol\":1149:1150  0 */\n      0x00\n        /* \"Lottery.sol\":1136:1145  startTime */\n      sload(0x04)\n        /* \"Lottery.sol\":1136:1150  startTime != 0 */\n      sub\n        /* \"Lottery.sol\":1128:1174  require(startTime != 0, \"Lottery not started\") */\n      tag_83\n      jumpi\n      mload(0x40)\n      0x08c379a000000000000000000000000000000000000000000000000000000000\n      dup2\n      mstore\n      0x04\n      add\n      tag_84\n      swap1\n      tag_85\n      jump\t// in\n    tag_84:\n      mload(0x40)\n      dup1\n      swap2\n      sub\n      swap1\n      revert\n    tag_83:\n        /* \"Lottery.sol\":1205:1214  startTime */\n      sload(0x04)\n        /* \"Lottery.sol\":1186:1201  block.timestamp */\n      timestamp\n        /* \"Lottery.sol\":1186:1214  block.timestamp >= startTime */\n      lt\n      iszero\n        /* \"Lottery.sol\":1178:1228  require(block.timestamp >= startTime, \"Too early\") */\n      tag_86\n      jumpi\n      mload(0x40)\n      0x08c379a000000000000000000000000000000000000000000000000000000000\n      dup2\n      mstore\n      0x04\n      add\n      tag_87\n      swap1\n      tag_88\n      jump\t// in\n    tag_87:\n      mload(0x40)\n      dup1\n      swap2\n      sub\n      swap1\n      revert\n    tag_86:\n        /* \"Lottery.sol\":1254:1255  y */\n      dup1\n        /* \"Lottery.sol\":1232:1239  commits */\n      0x01\n        /* \"Lottery.sol\":1232:1251  commits[msg.sender] */\n      0x00\n        /* \"Lottery.sol\":1240:1250  msg.sender */\n      caller\n        /* \"Lottery.sol\":1232:1251  commits[msg.sender] */\n      0xffffffffffffffffffffffffffffffffffffffff\n      and\n      0xffffffffffffffffffffffffffffffffffffffff\n      and\n      dup2\n      mstore\n      0x20\n      add\n      swap1\n      dup2\n      mstore\n      0x20\n      add\n      0x00\n      keccak256\n        /* \"Lottery.sol\":1232:1255  commits[msg.sender] = y */\n      dup2\n      swap1\n      sstore\n      pop\n        /* \"Lottery.sol\":1090:1258  function commit(bytes32 y) public {... */\n      pop\n      jump\t// out\n        /* \"Lottery.sol\":2129:2201  function isContract() public view returns(bool) {... */\n    tag_28:\n        /* \"Lottery.sol\":2171:2175  bool */\n      0x00\n        /* \"Lottery.sol\":2188:2198  iscontract */\n      0x08\n      0x00\n      swap1\n      sload\n      swap1\n      0x0100\n      exp\n      swap1\n      div\n      0xff\n      and\n        /* \"Lottery.sol\":2181:2198  return iscontract */\n      swap1\n      pop\n        /* \"Lottery.sol\":2129:2201  function isContract() public view returns(bool) {... */\n      swap1\n      jump\t// out\n    tag_62:\n      pop\n      dup1\n      sload\n      0x00\n      dup3\n      sstore\n      swap1\n      0x00\n      mstore\n      keccak256(0x00, 0x20)\n      swap1\n      dup2\n      add\n      swap1\n      tag_91\n      swap2\n      swap1\n      tag_92\n      jump\t// in\n    tag_91:\n      pop\n      jump\t// out\n    tag_92:\n    tag_93:\n      dup1\n      dup3\n      gt\n      iszero\n      tag_94\n      jumpi\n      0x00\n      dup2\n      0x00\n      swap1\n      sstore\n      pop\n      0x01\n      add\n      jump(tag_93)\n    tag_94:\n      pop\n      swap1\n      jump\t// out\n        /* \"#utility.yul\":88:205   */\n    tag_96:\n        /* \"#utility.yul\":197:198   */\n      0x00\n        /* \"#utility.yul\":194:195   */\n      0x00\n        /* \"#utility.yul\":187:199   */\n      revert\n        /* \"#utility.yul\":334:460   */\n    tag_98:\n        /* \"#utility.yul\":371:378   */\n      0x00\n        /* \"#utility.yul\":411:453   */\n      0xffffffffffffffffffffffffffffffffffffffff\n        /* \"#utility.yul\":404:409   */\n      dup3\n        /* \"#utility.yul\":400:454   */\n      and\n        /* \"#utility.yul\":389:454   */\n      swap1\n      pop\n        /* \"#utility.yul\":334:460   */\n      swap2\n      swap1\n      pop\n      jump\t// out\n        /* \"#utility.yul\":466:562   */\n    tag_99:\n        /* \"#utility.yul\":503:510   */\n      0x00\n        /* \"#utility.yul\":532:556   */\n      tag_141\n        /* \"#utility.yul\":550:555   */\n      dup3\n        /* \"#utility.yul\":532:556   */\n      tag_98\n      jump\t// in\n    tag_141:\n        /* \"#utility.yul\":521:556   */\n      swap1\n      pop\n        /* \"#utility.yul\":466:562   */\n      swap2\n      swap1\n      pop\n      jump\t// out\n        /* \"#utility.yul\":568:690   */\n    tag_100:\n        /* \"#utility.yul\":641:665   */\n      tag_143\n        /* \"#utility.yul\":659:664   */\n      dup2\n        /* \"#utility.yul\":641:665   */\n      tag_99\n      jump\t// in\n    tag_143:\n        /* \"#utility.yul\":634:639   */\n      dup2\n        /* \"#utility.yul\":631:666   */\n      eq\n        /* \"#utility.yul\":621:684   */\n      tag_144\n      jumpi\n        /* \"#utility.yul\":680:681   */\n      0x00\n        /* \"#utility.yul\":677:678   */\n      0x00\n        /* \"#utility.yul\":670:682   */\n      revert\n        /* \"#utility.yul\":621:684   */\n    tag_144:\n        /* \"#utility.yul\":568:690   */\n      pop\n      jump\t// out\n        /* \"#utility.yul\":696:835   */\n    tag_101:\n        /* \"#utility.yul\":742:747   */\n      0x00\n        /* \"#utility.yul\":780:786   */\n      dup2\n        /* \"#utility.yul\":767:787   */\n      calldataload\n        /* \"#utility.yul\":758:787   */\n      swap1\n      pop\n        /* \"#utility.yul\":796:829   */\n      tag_146\n        /* \"#utility.yul\":823:828   */\n      dup2\n        /* \"#utility.yul\":796:829   */\n      tag_100\n      jump\t// in\n    tag_146:\n        /* \"#utility.yul\":696:835   */\n      swap3\n      swap2\n      pop\n      pop\n      jump\t// out\n        /* \"#utility.yul\":841:1170   */\n    tag_15:\n        /* \"#utility.yul\":900:906   */\n      0x00\n        /* \"#utility.yul\":949:951   */\n      0x20\n        /* \"#utility.yul\":937:946   */\n      dup3\n        /* \"#utility.yul\":928:935   */\n      dup5\n        /* \"#utility.yul\":924:947   */\n      sub\n        /* \"#utility.yul\":920:952   */\n      slt\n        /* \"#utility.yul\":917:1036   */\n      iszero\n      tag_148\n      jumpi\n        /* \"#utility.yul\":955:1034   */\n      tag_149\n      tag_96\n      jump\t// in\n    tag_149:\n        /* \"#utility.yul\":917:1036   */\n    tag_148:\n        /* \"#utility.yul\":1075:1076   */\n      0x00\n        /* \"#utility.yul\":1100:1153   */\n      tag_150\n        /* \"#utility.yul\":1145:1152   */\n      dup5\n        /* \"#utility.yul\":1136:1142   */\n      dup3\n        /* \"#utility.yul\":1125:1134   */\n      dup6\n        /* \"#utility.yul\":1121:1143   */\n      add\n        /* \"#utility.yul\":1100:1153   */\n      tag_101\n      jump\t// in\n    tag_150:\n        /* \"#utility.yul\":1090:1153   */\n      swap2\n      pop\n        /* \"#utility.yul\":1046:1163   */\n      pop\n        /* \"#utility.yul\":841:1170   */\n      swap3\n      swap2\n      pop\n      pop\n      jump\t// out\n        /* \"#utility.yul\":1176:1253   */\n    tag_102:\n        /* \"#utility.yul\":1213:1220   */\n      0x00\n        /* \"#utility.yul\":1242:1247   */\n      dup2\n        /* \"#utility.yul\":1231:1247   */\n      swap1\n      pop\n        /* \"#utility.yul\":1176:1253   */\n      swap2\n      swap1\n      pop\n      jump\t// out\n        /* \"#utility.yul\":1259:1377   */\n    tag_103:\n        /* \"#utility.yul\":1346:1370   */\n      tag_153\n        /* \"#utility.yul\":1364:1369   */\n      dup2\n        /* \"#utility.yul\":1346:1370   */\n      tag_102\n      jump\t// in\n    tag_153:\n        /* \"#utility.yul\":1341:1344   */\n      dup3\n        /* \"#utility.yul\":1334:1371   */\n      mstore\n        /* \"#utility.yul\":1259:1377   */\n      pop\n      pop\n      jump\t// out\n        /* \"#utility.yul\":1383:1605   */\n    tag_18:\n        /* \"#utility.yul\":1476:1480   */\n      0x00\n        /* \"#utility.yul\":1514:1516   */\n      0x20\n        /* \"#utility.yul\":1503:1512   */\n      dup3\n        /* \"#utility.yul\":1499:1517   */\n      add\n        /* \"#utility.yul\":1491:1517   */\n      swap1\n      pop\n        /* \"#utility.yul\":1527:1598   */\n      tag_155\n        /* \"#utility.yul\":1595:1596   */\n      0x00\n        /* \"#utility.yul\":1584:1593   */\n      dup4\n        /* \"#utility.yul\":1580:1597   */\n      add\n        /* \"#utility.yul\":1571:1577   */\n      dup5\n        /* \"#utility.yul\":1527:1598   */\n      tag_103\n      jump\t// in\n    tag_155:\n        /* \"#utility.yul\":1383:1605   */\n      swap3\n      swap2\n      pop\n      pop\n      jump\t// out\n        /* \"#utility.yul\":1611:1688   */\n    tag_104:\n        /* \"#utility.yul\":1648:1655   */\n      0x00\n        /* \"#utility.yul\":1677:1682   */\n      dup2\n        /* \"#utility.yul\":1666:1682   */\n      swap1\n      pop\n        /* \"#utility.yul\":1611:1688   */\n      swap2\n      swap1\n      pop\n      jump\t// out\n        /* \"#utility.yul\":1694:1816   */\n    tag_105:\n        /* \"#utility.yul\":1767:1791   */\n      tag_158\n        /* \"#utility.yul\":1785:1790   */\n      dup2\n        /* \"#utility.yul\":1767:1791   */\n      tag_104\n      jump\t// in\n    tag_158:\n        /* \"#utility.yul\":1760:1765   */\n      dup2\n        /* \"#utility.yul\":1757:1792   */\n      eq\n        /* \"#utility.yul\":1747:1810   */\n      tag_159\n      jumpi\n        /* \"#utility.yul\":1806:1807   */\n      0x00\n        /* \"#utility.yul\":1803:1804   */\n      0x00\n        /* \"#utility.yul\":1796:1808   */\n      revert\n        /* \"#utility.yul\":1747:1810   */\n    tag_159:\n        /* \"#utility.yul\":1694:1816   */\n      pop\n      jump\t// out\n        /* \"#utility.yul\":1822:1961   */\n    tag_106:\n        /* \"#utility.yul\":1868:1873   */\n      0x00\n        /* \"#utility.yul\":1906:1912   */\n      dup2\n        /* \"#utility.yul\":1893:1913   */\n      calldataload\n        /* \"#utility.yul\":1884:1913   */\n      swap1\n      pop\n        /* \"#utility.yul\":1922:1955   */\n      tag_161\n        /* \"#utility.yul\":1949:1954   */\n      dup2\n        /* \"#utility.yul\":1922:1955   */\n      tag_105\n      jump\t// in\n    tag_161:\n        /* \"#utility.yul\":1822:1961   */\n      swap3\n      swap2\n      pop\n      pop\n      jump\t// out\n        /* \"#utility.yul\":1967:2296   */\n    tag_21:\n        /* \"#utility.yul\":2026:2032   */\n      0x00\n        /* \"#utility.yul\":2075:2077   */\n      0x20\n        /* \"#utility.yul\":2063:2072   */\n      dup3\n        /* \"#utility.yul\":2054:2061   */\n      dup5\n        /* \"#utility.yul\":2050:2073   */\n      sub\n        /* \"#utility.yul\":2046:2078   */\n      slt\n        /* \"#utility.yul\":2043:2162   */\n      iszero\n      tag_163\n      jumpi\n        /* \"#utility.yul\":2081:2160   */\n      tag_164\n      tag_96\n      jump\t// in\n    tag_164:\n        /* \"#utility.yul\":2043:2162   */\n    tag_163:\n        /* \"#utility.yul\":2201:2202   */\n      0x00\n        /* \"#utility.yul\":2226:2279   */\n      tag_165\n        /* \"#utility.yul\":2271:2278   */\n      dup5\n        /* \"#utility.yul\":2262:2268   */\n      dup3\n        /* \"#utility.yul\":2251:2260   */\n      dup6\n        /* \"#utility.yul\":2247:2269   */\n      add\n        /* \"#utility.yul\":2226:2279   */\n      tag_106\n      jump\t// in\n    tag_165:\n        /* \"#utility.yul\":2216:2279   */\n      swap2\n      pop\n        /* \"#utility.yul\":2172:2289   */\n      pop\n        /* \"#utility.yul\":1967:2296   */\n      swap3\n      swap2\n      pop\n      pop\n      jump\t// out\n        /* \"#utility.yul\":2302:2424   */\n    tag_107:\n        /* \"#utility.yul\":2375:2399   */\n      tag_167\n        /* \"#utility.yul\":2393:2398   */\n      dup2\n        /* \"#utility.yul\":2375:2399   */\n      tag_102\n      jump\t// in\n    tag_167:\n        /* \"#utility.yul\":2368:2373   */\n      dup2\n        /* \"#utility.yul\":2365:2400   */\n      eq\n        /* \"#utility.yul\":2355:2418   */\n      tag_168\n      jumpi\n        /* \"#utility.yul\":2414:2415   */\n      0x00\n        /* \"#utility.yul\":2411:2412   */\n      0x00\n        /* \"#utility.yul\":2404:2416   */\n      revert\n        /* \"#utility.yul\":2355:2418   */\n    tag_168:\n        /* \"#utility.yul\":2302:2424   */\n      pop\n      jump\t// out\n        /* \"#utility.yul\":2430:2569   */\n    tag_108:\n        /* \"#utility.yul\":2476:2481   */\n      0x00\n        /* \"#utility.yul\":2514:2520   */\n      dup2\n        /* \"#utility.yul\":2501:2521   */\n      calldataload\n        /* \"#utility.yul\":2492:2521   */\n      swap1\n      pop\n        /* \"#utility.yul\":2530:2563   */\n      tag_170\n        /* \"#utility.yul\":2557:2562   */\n      dup2\n        /* \"#utility.yul\":2530:2563   */\n      tag_107\n      jump\t// in\n    tag_170:\n        /* \"#utility.yul\":2430:2569   */\n      swap3\n      swap2\n      pop\n      pop\n      jump\t// out\n        /* \"#utility.yul\":2575:2904   */\n    tag_25:\n        /* \"#utility.yul\":2634:2640   */\n      0x00\n        /* \"#utility.yul\":2683:2685   */\n      0x20\n        /* \"#utility.yul\":2671:2680   */\n      dup3\n        /* \"#utility.yul\":2662:2669   */\n      dup5\n        /* \"#utility.yul\":2658:2681   */\n      sub\n        /* \"#utility.yul\":2654:2686   */\n      slt\n        /* \"#utility.yul\":2651:2770   */\n      iszero\n      tag_172\n      jumpi\n        /* \"#utility.yul\":2689:2768   */\n      tag_173\n      tag_96\n      jump\t// in\n    tag_173:\n        /* \"#utility.yul\":2651:2770   */\n    tag_172:\n        /* \"#utility.yul\":2809:2810   */\n      0x00\n        /* \"#utility.yul\":2834:2887   */\n      tag_174\n        /* \"#utility.yul\":2879:2886   */\n      dup5\n        /* \"#utility.yul\":2870:2876   */\n      dup3\n        /* \"#utility.yul\":2859:2868   */\n      dup6\n        /* \"#utility.yul\":2855:2877   */\n      add\n        /* \"#utility.yul\":2834:2887   */\n      tag_108\n      jump\t// in\n    tag_174:\n        /* \"#utility.yul\":2824:2887   */\n      swap2\n      pop\n        /* \"#utility.yul\":2780:2897   */\n      pop\n        /* \"#utility.yul\":2575:2904   */\n      swap3\n      swap2\n      pop\n      pop\n      jump\t// out\n        /* \"#utility.yul\":2910:3000   */\n    tag_109:\n        /* \"#utility.yul\":2944:2951   */\n      0x00\n        /* \"#utility.yul\":2987:2992   */\n      dup2\n        /* \"#utility.yul\":2980:2993   */\n      iszero\n        /* \"#utility.yul\":2973:2994   */\n      iszero\n        /* \"#utility.yul\":2962:2994   */\n      swap1\n      pop\n        /* \"#utility.yul\":2910:3000   */\n      swap2\n      swap1\n      pop\n      jump\t// out\n        /* \"#utility.yul\":3006:3115   */\n    tag_110:\n        /* \"#utility.yul\":3087:3108   */\n      tag_177\n        /* \"#utility.yul\":3102:3107   */\n      dup2\n        /* \"#utility.yul\":3087:3108   */\n      tag_109\n      jump\t// in\n    tag_177:\n        /* \"#utility.yul\":3082:3085   */\n      dup3\n        /* \"#utility.yul\":3075:3109   */\n      mstore\n        /* \"#utility.yul\":3006:3115   */\n      pop\n      pop\n      jump\t// out\n        /* \"#utility.yul\":3121:3331   */\n    tag_30:\n        /* \"#utility.yul\":3208:3212   */\n      0x00\n        /* \"#utility.yul\":3246:3248   */\n      0x20\n        /* \"#utility.yul\":3235:3244   */\n      dup3\n        /* \"#utility.yul\":3231:3249   */\n      add\n        /* \"#utility.yul\":3223:3249   */\n      swap1\n      pop\n        /* \"#utility.yul\":3259:3324   */\n      tag_179\n        /* \"#utility.yul\":3321:3322   */\n      0x00\n        /* \"#utility.yul\":3310:3319   */\n      dup4\n        /* \"#utility.yul\":3306:3323   */\n      add\n        /* \"#utility.yul\":3297:3303   */\n      dup5\n        /* \"#utility.yul\":3259:3324   */\n      tag_110\n      jump\t// in\n    tag_179:\n        /* \"#utility.yul\":3121:3331   */\n      swap3\n      swap2\n      pop\n      pop\n      jump\t// out\n        /* \"#utility.yul\":3337:3506   */\n    tag_111:\n        /* \"#utility.yul\":3421:3432   */\n      0x00\n        /* \"#utility.yul\":3455:3461   */\n      dup3\n        /* \"#utility.yul\":3450:3453   */\n      dup3\n        /* \"#utility.yul\":3443:3462   */\n      mstore\n        /* \"#utility.yul\":3495:3499   */\n      0x20\n        /* \"#utility.yul\":3490:3493   */\n      dup3\n        /* \"#utility.yul\":3486:3500   */\n      add\n        /* \"#utility.yul\":3471:3500   */\n      swap1\n      pop\n        /* \"#utility.yul\":3337:3506   */\n      swap3\n      swap2\n      pop\n      pop\n      jump\t// out\n        /* \"#utility.yul\":3512:3672   */\n    tag_112:\n        /* \"#utility.yul\":3652:3664   */\n      0x4f6e6c79206f776e657200000000000000000000000000000000000000000000\n        /* \"#utility.yul\":3648:3649   */\n      0x00\n        /* \"#utility.yul\":3640:3646   */\n      dup3\n        /* \"#utility.yul\":3636:3650   */\n      add\n        /* \"#utility.yul\":3629:3665   */\n      mstore\n        /* \"#utility.yul\":3512:3672   */\n      pop\n      jump\t// out\n        /* \"#utility.yul\":3678:4044   */\n    tag_113:\n        /* \"#utility.yul\":3820:3823   */\n      0x00\n        /* \"#utility.yul\":3841:3908   */\n      tag_183\n        /* \"#utility.yul\":3905:3907   */\n      0x0a\n        /* \"#utility.yul\":3900:3903   */\n      dup4\n        /* \"#utility.yul\":3841:3908   */\n      tag_111\n      jump\t// in\n    tag_183:\n        /* \"#utility.yul\":3834:3908   */\n      swap2\n      pop\n        /* \"#utility.yul\":3917:4010   */\n      tag_184\n        /* \"#utility.yul\":4006:4009   */\n      dup3\n        /* \"#utility.yul\":3917:4010   */\n      tag_112\n      jump\t// in\n    tag_184:\n        /* \"#utility.yul\":4035:4037   */\n      0x20\n        /* \"#utility.yul\":4030:4033   */\n      dup3\n        /* \"#utility.yul\":4026:4038   */\n      add\n        /* \"#utility.yul\":4019:4038   */\n      swap1\n      pop\n        /* \"#utility.yul\":3678:4044   */\n      swap2\n      swap1\n      pop\n      jump\t// out\n        /* \"#utility.yul\":4050:4469   */\n    tag_34:\n        /* \"#utility.yul\":4216:4220   */\n      0x00\n        /* \"#utility.yul\":4254:4256   */\n      0x20\n        /* \"#utility.yul\":4243:4252   */\n      dup3\n        /* \"#utility.yul\":4239:4257   */\n      add\n        /* \"#utility.yul\":4231:4257   */\n      swap1\n      pop\n        /* \"#utility.yul\":4303:4312   */\n      dup2\n        /* \"#utility.yul\":4297:4301   */\n      dup2\n        /* \"#utility.yul\":4293:4313   */\n      sub\n        /* \"#utility.yul\":4289:4290   */\n      0x00\n        /* \"#utility.yul\":4278:4287   */\n      dup4\n        /* \"#utility.yul\":4274:4291   */\n      add\n        /* \"#utility.yul\":4267:4314   */\n      mstore\n        /* \"#utility.yul\":4331:4462   */\n      tag_186\n        /* \"#utility.yul\":4457:4461   */\n      dup2\n        /* \"#utility.yul\":4331:4462   */\n      tag_113\n      jump\t// in\n    tag_186:\n        /* \"#utility.yul\":4323:4462   */\n      swap1\n      pop\n        /* \"#utility.yul\":4050:4469   */\n      swap2\n      swap1\n      pop\n      jump\t// out\n        /* \"#utility.yul\":4475:4646   */\n    tag_114:\n        /* \"#utility.yul\":4615:4638   */\n      0x4c6f7474657279206e6f7420656e646564207965740000000000000000000000\n        /* \"#utility.yul\":4611:4612   */\n      0x00\n        /* \"#utility.yul\":4603:4609   */\n      dup3\n        /* \"#utility.yul\":4599:4613   */\n      add\n        /* \"#utility.yul\":4592:4639   */\n      mstore\n        /* \"#utility.yul\":4475:4646   */\n      pop\n      jump\t// out\n        /* \"#utility.yul\":4652:5018   */\n    tag_115:\n        /* \"#utility.yul\":4794:4797   */\n      0x00\n        /* \"#utility.yul\":4815:4882   */\n      tag_189\n        /* \"#utility.yul\":4879:4881   */\n      0x15\n        /* \"#utility.yul\":4874:4877   */\n      dup4\n        /* \"#utility.yul\":4815:4882   */\n      tag_111\n      jump\t// in\n    tag_189:\n        /* \"#utility.yul\":4808:4882   */\n      swap2\n      pop\n        /* \"#utility.yul\":4891:4984   */\n      tag_190\n        /* \"#utility.yul\":4980:4983   */\n      dup3\n        /* \"#utility.yul\":4891:4984   */\n      tag_114\n      jump\t// in\n    tag_190:\n        /* \"#utility.yul\":5009:5011   */\n      0x20\n        /* \"#utility.yul\":5004:5007   */\n      dup3\n        /* \"#utility.yul\":5000:5012   */\n      add\n        /* \"#utility.yul\":4993:5012   */\n      swap1\n      pop\n        /* \"#utility.yul\":4652:5018   */\n      swap2\n      swap1\n      pop\n      jump\t// out\n        /* \"#utility.yul\":5024:5443   */\n    tag_38:\n        /* \"#utility.yul\":5190:5194   */\n      0x00\n        /* \"#utility.yul\":5228:5230   */\n      0x20\n        /* \"#utility.yul\":5217:5226   */\n      dup3\n        /* \"#utility.yul\":5213:5231   */\n      add\n        /* \"#utility.yul\":5205:5231   */\n      swap1\n      pop\n        /* \"#utility.yul\":5277:5286   */\n      dup2\n        /* \"#utility.yul\":5271:5275   */\n      dup2\n        /* \"#utility.yul\":5267:5287   */\n      sub\n        /* \"#utility.yul\":5263:5264   */\n      0x00\n        /* \"#utility.yul\":5252:5261   */\n      dup4\n        /* \"#utility.yul\":5248:5265   */\n      add\n        /* \"#utility.yul\":5241:5288   */\n      mstore\n        /* \"#utility.yul\":5305:5436   */\n      tag_192\n        /* \"#utility.yul\":5431:5435   */\n      dup2\n        /* \"#utility.yul\":5305:5436   */\n      tag_115\n      jump\t// in\n    tag_192:\n        /* \"#utility.yul\":5297:5436   */\n      swap1\n      pop\n        /* \"#utility.yul\":5024:5443   */\n      swap2\n      swap1\n      pop\n      jump\t// out\n        /* \"#utility.yul\":5449:5614   */\n    tag_116:\n        /* \"#utility.yul\":5589:5606   */\n      0x4e6f207061727469636970616e74730000000000000000000000000000000000\n        /* \"#utility.yul\":5585:5586   */\n      0x00\n        /* \"#utility.yul\":5577:5583   */\n      dup3\n        /* \"#utility.yul\":5573:5587   */\n      add\n        /* \"#utility.yul\":5566:5607   */\n      mstore\n        /* \"#utility.yul\":5449:5614   */\n      pop\n      jump\t// out\n        /* \"#utility.yul\":5620:5986   */\n    tag_117:\n        /* \"#utility.yul\":5762:5765   */\n      0x00\n        /* \"#utility.yul\":5783:5850   */\n      tag_195\n        /* \"#utility.yul\":5847:5849   */\n      0x0f\n        /* \"#utility.yul\":5842:5845   */\n      dup4\n        /* \"#utility.yul\":5783:5850   */\n      tag_111\n      jump\t// in\n    tag_195:\n        /* \"#utility.yul\":5776:5850   */\n      swap2\n      pop\n        /* \"#utility.yul\":5859:5952   */\n      tag_196\n        /* \"#utility.yul\":5948:5951   */\n      dup3\n        /* \"#utility.yul\":5859:5952   */\n      tag_116\n      jump\t// in\n    tag_196:\n        /* \"#utility.yul\":5977:5979   */\n      0x20\n        /* \"#utility.yul\":5972:5975   */\n      dup3\n        /* \"#utility.yul\":5968:5980   */\n      add\n        /* \"#utility.yul\":5961:5980   */\n      swap1\n      pop\n        /* \"#utility.yul\":5620:5986   */\n      swap2\n      swap1\n      pop\n      jump\t// out\n        /* \"#utility.yul\":5992:6411   */\n    tag_41:\n        /* \"#utility.yul\":6158:6162   */\n      0x00\n        /* \"#utility.yul\":6196:6198   */\n      0x20\n        /* \"#utility.yul\":6185:6194   */\n      dup3\n        /* \"#utility.yul\":6181:6199   */\n      add\n        /* \"#utility.yul\":6173:6199   */\n      swap1\n      pop\n        /* \"#utility.yul\":6245:6254   */\n      dup2\n        /* \"#utility.yul\":6239:6243   */\n      dup2\n        /* \"#utility.yul\":6235:6255   */\n      sub\n        /* \"#utility.yul\":6231:6232   */\n      0x00\n        /* \"#utility.yul\":6220:6229   */\n      dup4\n        /* \"#utility.yul\":6216:6233   */\n      add\n        /* \"#utility.yul\":6209:6256   */\n      mstore\n        /* \"#utility.yul\":6273:6404   */\n      tag_198\n        /* \"#utility.yul\":6399:6403   */\n      dup2\n        /* \"#utility.yul\":6273:6404   */\n      tag_117\n      jump\t// in\n    tag_198:\n        /* \"#utility.yul\":6265:6404   */\n      swap1\n      pop\n        /* \"#utility.yul\":5992:6411   */\n      swap2\n      swap1\n      pop\n      jump\t// out\n        /* \"#utility.yul\":6417:6597   */\n    tag_47:\n        /* \"#utility.yul\":6465:6542   */\n      0x4e487b7100000000000000000000000000000000000000000000000000000000\n        /* \"#utility.yul\":6462:6463   */\n      0x00\n        /* \"#utility.yul\":6455:6543   */\n      mstore\n        /* \"#utility.yul\":6562:6566   */\n      0x32\n        /* \"#utility.yul\":6559:6560   */\n      0x04\n        /* \"#utility.yul\":6552:6567   */\n      mstore\n        /* \"#utility.yul\":6586:6590   */\n      0x24\n        /* \"#utility.yul\":6583:6584   */\n      0x00\n        /* \"#utility.yul\":6576:6591   */\n      revert\n        /* \"#utility.yul\":6603:6783   */\n    tag_118:\n        /* \"#utility.yul\":6651:6728   */\n      0x4e487b7100000000000000000000000000000000000000000000000000000000\n        /* \"#utility.yul\":6648:6649   */\n      0x00\n        /* \"#utility.yul\":6641:6729   */\n      mstore\n        /* \"#utility.yul\":6748:6752   */\n      0x11\n        /* \"#utility.yul\":6745:6746   */\n      0x04\n        /* \"#utility.yul\":6738:6753   */\n      mstore\n        /* \"#utility.yul\":6772:6776   */\n      0x24\n        /* \"#utility.yul\":6769:6770   */\n      0x00\n        /* \"#utility.yul\":6762:6777   */\n      revert\n        /* \"#utility.yul\":6789:6980   */\n    tag_50:\n        /* \"#utility.yul\":6829:6832   */\n      0x00\n        /* \"#utility.yul\":6848:6868   */\n      tag_202\n        /* \"#utility.yul\":6866:6867   */\n      dup3\n        /* \"#utility.yul\":6848:6868   */\n      tag_104\n      jump\t// in\n    tag_202:\n        /* \"#utility.yul\":6843:6868   */\n      swap2\n      pop\n        /* \"#utility.yul\":6882:6902   */\n      tag_203\n        /* \"#utility.yul\":6900:6901   */\n      dup4\n        /* \"#utility.yul\":6882:6902   */\n      tag_104\n      jump\t// in\n    tag_203:\n        /* \"#utility.yul\":6877:6902   */\n      swap3\n      pop\n        /* \"#utility.yul\":6925:6926   */\n      dup3\n        /* \"#utility.yul\":6922:6923   */\n      dup3\n        /* \"#utility.yul\":6918:6927   */\n      add\n        /* \"#utility.yul\":6911:6927   */\n      swap1\n      pop\n        /* \"#utility.yul\":6946:6949   */\n      dup1\n        /* \"#utility.yul\":6943:6944   */\n      dup3\n        /* \"#utility.yul\":6940:6950   */\n      gt\n        /* \"#utility.yul\":6937:6973   */\n      iszero\n      tag_204\n      jumpi\n        /* \"#utility.yul\":6953:6971   */\n      tag_205\n      tag_118\n      jump\t// in\n    tag_205:\n        /* \"#utility.yul\":6937:6973   */\n    tag_204:\n        /* \"#utility.yul\":6789:6980   */\n      swap3\n      swap2\n      pop\n      pop\n      jump\t// out\n        /* \"#utility.yul\":6986:7166   */\n    tag_119:\n        /* \"#utility.yul\":7034:7111   */\n      0x4e487b7100000000000000000000000000000000000000000000000000000000\n        /* \"#utility.yul\":7031:7032   */\n      0x00\n        /* \"#utility.yul\":7024:7112   */\n      mstore\n        /* \"#utility.yul\":7131:7135   */\n      0x12\n        /* \"#utility.yul\":7128:7129   */\n      0x04\n        /* \"#utility.yul\":7121:7136   */\n      mstore\n        /* \"#utility.yul\":7155:7159   */\n      0x24\n        /* \"#utility.yul\":7152:7153   */\n      0x00\n        /* \"#utility.yul\":7145:7160   */\n      revert\n        /* \"#utility.yul\":7172:7348   */\n    tag_52:\n        /* \"#utility.yul\":7204:7205   */\n      0x00\n        /* \"#utility.yul\":7221:7241   */\n      tag_208\n        /* \"#utility.yul\":7239:7240   */\n      dup3\n        /* \"#utility.yul\":7221:7241   */\n      tag_104\n      jump\t// in\n    tag_208:\n        /* \"#utility.yul\":7216:7241   */\n      swap2\n      pop\n        /* \"#utility.yul\":7255:7275   */\n      tag_209\n        /* \"#utility.yul\":7273:7274   */\n      dup4\n        /* \"#utility.yul\":7255:7275   */\n      tag_104\n      jump\t// in\n    tag_209:\n        /* \"#utility.yul\":7250:7275   */\n      swap3\n      pop\n        /* \"#utility.yul\":7294:7295   */\n      dup3\n        /* \"#utility.yul\":7284:7319   */\n      tag_210\n      jumpi\n        /* \"#utility.yul\":7299:7317   */\n      tag_211\n      tag_119\n      jump\t// in\n    tag_211:\n        /* \"#utility.yul\":7284:7319   */\n    tag_210:\n        /* \"#utility.yul\":7340:7341   */\n      dup3\n        /* \"#utility.yul\":7337:7338   */\n      dup3\n        /* \"#utility.yul\":7333:7342   */\n      mod\n        /* \"#utility.yul\":7328:7342   */\n      swap1\n      pop\n        /* \"#utility.yul\":7172:7348   */\n      swap3\n      swap2\n      pop\n      pop\n      jump\t// out\n        /* \"#utility.yul\":7354:7442   */\n    tag_120:\n        /* \"#utility.yul\":7402:7409   */\n      0x00\n        /* \"#utility.yul\":7431:7436   */\n      dup2\n        /* \"#utility.yul\":7420:7436   */\n      swap1\n      pop\n        /* \"#utility.yul\":7354:7442   */\n      swap2\n      swap1\n      pop\n      jump\t// out\n        /* \"#utility.yul\":7448:7508   */\n    tag_121:\n        /* \"#utility.yul\":7476:7479   */\n      0x00\n        /* \"#utility.yul\":7497:7502   */\n      dup2\n        /* \"#utility.yul\":7490:7502   */\n      swap1\n      pop\n        /* \"#utility.yul\":7448:7508   */\n      swap2\n      swap1\n      pop\n      jump\t// out\n        /* \"#utility.yul\":7514:7678   */\n    tag_122:\n        /* \"#utility.yul\":7575:7584   */\n      0x00\n        /* \"#utility.yul\":7608:7672   */\n      tag_215\n        /* \"#utility.yul\":7626:7671   */\n      tag_216\n        /* \"#utility.yul\":7635:7670   */\n      tag_217\n        /* \"#utility.yul\":7664:7669   */\n      dup5\n        /* \"#utility.yul\":7635:7670   */\n      tag_120\n      jump\t// in\n    tag_217:\n        /* \"#utility.yul\":7626:7671   */\n      tag_121\n      jump\t// in\n    tag_216:\n        /* \"#utility.yul\":7608:7672   */\n      tag_104\n      jump\t// in\n    tag_215:\n        /* \"#utility.yul\":7595:7672   */\n      swap1\n      pop\n        /* \"#utility.yul\":7514:7678   */\n      swap2\n      swap1\n      pop\n      jump\t// out\n        /* \"#utility.yul\":7684:7837   */\n    tag_123:\n        /* \"#utility.yul\":7782:7830   */\n      tag_219\n        /* \"#utility.yul\":7824:7829   */\n      dup2\n        /* \"#utility.yul\":7782:7830   */\n      tag_122\n      jump\t// in\n    tag_219:\n        /* \"#utility.yul\":7777:7780   */\n      dup3\n        /* \"#utility.yul\":7770:7831   */\n      mstore\n        /* \"#utility.yul\":7684:7837   */\n      pop\n      pop\n      jump\t// out\n        /* \"#utility.yul\":7843:8087   */\n    tag_57:\n        /* \"#utility.yul\":7947:7951   */\n      0x00\n        /* \"#utility.yul\":7985:7987   */\n      0x20\n        /* \"#utility.yul\":7974:7983   */\n      dup3\n        /* \"#utility.yul\":7970:7988   */\n      add\n        /* \"#utility.yul\":7962:7988   */\n      swap1\n      pop\n        /* \"#utility.yul\":7998:8080   */\n      tag_221\n        /* \"#utility.yul\":8077:8078   */\n      0x00\n        /* \"#utility.yul\":8066:8075   */\n      dup4\n        /* \"#utility.yul\":8062:8079   */\n      add\n        /* \"#utility.yul\":8053:8059   */\n      dup5\n        /* \"#utility.yul\":7998:8080   */\n      tag_123\n      jump\t// in\n    tag_221:\n        /* \"#utility.yul\":7843:8087   */\n      swap3\n      swap2\n      pop\n      pop\n      jump\t// out\n        /* \"#utility.yul\":8093:8266   */\n    tag_124:\n        /* \"#utility.yul\":8233:8258   */\n      0x4c6f747465727920616c72656164792073746172746564000000000000000000\n        /* \"#utility.yul\":8229:8230   */\n      0x00\n        /* \"#utility.yul\":8221:8227   */\n      dup3\n        /* \"#utility.yul\":8217:8231   */\n      add\n        /* \"#utility.yul\":8210:8259   */\n      mstore\n        /* \"#utility.yul\":8093:8266   */\n      pop\n      jump\t// out\n        /* \"#utility.yul\":8272:8638   */\n    tag_125:\n        /* \"#utility.yul\":8414:8417   */\n      0x00\n        /* \"#utility.yul\":8435:8502   */\n      tag_224\n        /* \"#utility.yul\":8499:8501   */\n      0x17\n        /* \"#utility.yul\":8494:8497   */\n      dup4\n        /* \"#utility.yul\":8435:8502   */\n      tag_111\n      jump\t// in\n    tag_224:\n        /* \"#utility.yul\":8428:8502   */\n      swap2\n      pop\n        /* \"#utility.yul\":8511:8604   */\n      tag_225\n        /* \"#utility.yul\":8600:8603   */\n      dup3\n        /* \"#utility.yul\":8511:8604   */\n      tag_124\n      jump\t// in\n    tag_225:\n        /* \"#utility.yul\":8629:8631   */\n      0x20\n        /* \"#utility.yul\":8624:8627   */\n      dup3\n        /* \"#utility.yul\":8620:8632   */\n      add\n        /* \"#utility.yul\":8613:8632   */\n      swap1\n      pop\n        /* \"#utility.yul\":8272:8638   */\n      swap2\n      swap1\n      pop\n      jump\t// out\n        /* \"#utility.yul\":8644:9063   */\n    tag_69:\n        /* \"#utility.yul\":8810:8814   */\n      0x00\n        /* \"#utility.yul\":8848:8850   */\n      0x20\n        /* \"#utility.yul\":8837:8846   */\n      dup3\n        /* \"#utility.yul\":8833:8851   */\n      add\n        /* \"#utility.yul\":8825:8851   */\n      swap1\n      pop\n        /* \"#utility.yul\":8897:8906   */\n      dup2\n        /* \"#utility.yul\":8891:8895   */\n      dup2\n        /* \"#utility.yul\":8887:8907   */\n      sub\n        /* \"#utility.yul\":8883:8884   */\n      0x00\n        /* \"#utility.yul\":8872:8881   */\n      dup4\n        /* \"#utility.yul\":8868:8885   */\n      add\n        /* \"#utility.yul\":8861:8908   */\n      mstore\n        /* \"#utility.yul\":8925:9056   */\n      tag_227\n        /* \"#utility.yul\":9051:9055   */\n      dup2\n        /* \"#utility.yul\":8925:9056   */\n      tag_125\n      jump\t// in\n    tag_227:\n        /* \"#utility.yul\":8917:9056   */\n      swap1\n      pop\n        /* \"#utility.yul\":8644:9063   */\n      swap2\n      swap1\n      pop\n      jump\t// out\n        /* \"#utility.yul\":9069:9247   */\n    tag_126:\n        /* \"#utility.yul\":9209:9239   */\n      0x52657665616c207068617365206e6f7420737461727465642079657400000000\n        /* \"#utility.yul\":9205:9206   */\n      0x00\n        /* \"#utility.yul\":9197:9203   */\n      dup3\n        /* \"#utility.yul\":9193:9207   */\n      add\n        /* \"#utility.yul\":9186:9240   */\n      mstore\n        /* \"#utility.yul\":9069:9247   */\n      pop\n      jump\t// out\n        /* \"#utility.yul\":9253:9619   */\n    tag_127:\n        /* \"#utility.yul\":9395:9398   */\n      0x00\n        /* \"#utility.yul\":9416:9483   */\n      tag_230\n        /* \"#utility.yul\":9480:9482   */\n      0x1c\n        /* \"#utility.yul\":9475:9478   */\n      dup4\n        /* \"#utility.yul\":9416:9483   */\n      tag_111\n      jump\t// in\n    tag_230:\n        /* \"#utility.yul\":9409:9483   */\n      swap2\n      pop\n        /* \"#utility.yul\":9492:9585   */\n      tag_231\n        /* \"#utility.yul\":9581:9584   */\n      dup3\n        /* \"#utility.yul\":9492:9585   */\n      tag_126\n      jump\t// in\n    tag_231:\n        /* \"#utility.yul\":9610:9612   */\n      0x20\n        /* \"#utility.yul\":9605:9608   */\n      dup3\n        /* \"#utility.yul\":9601:9613   */\n      add\n        /* \"#utility.yul\":9594:9613   */\n      swap1\n      pop\n        /* \"#utility.yul\":9253:9619   */\n      swap2\n      swap1\n      pop\n      jump\t// out\n        /* \"#utility.yul\":9625:10044   */\n    tag_75:\n        /* \"#utility.yul\":9791:9795   */\n      0x00\n        /* \"#utility.yul\":9829:9831   */\n      0x20\n        /* \"#utility.yul\":9818:9827   */\n      dup3\n        /* \"#utility.yul\":9814:9832   */\n      add\n        /* \"#utility.yul\":9806:9832   */\n      swap1\n      pop\n        /* \"#utility.yul\":9878:9887   */\n      dup2\n        /* \"#utility.yul\":9872:9876   */\n      dup2\n        /* \"#utility.yul\":9868:9888   */\n      sub\n        /* \"#utility.yul\":9864:9865   */\n      0x00\n        /* \"#utility.yul\":9853:9862   */\n      dup4\n        /* \"#utility.yul\":9849:9866   */\n      add\n        /* \"#utility.yul\":9842:9889   */\n      mstore\n        /* \"#utility.yul\":9906:10037   */\n      tag_233\n        /* \"#utility.yul\":10032:10036   */\n      dup2\n        /* \"#utility.yul\":9906:10037   */\n      tag_127\n      jump\t// in\n    tag_233:\n        /* \"#utility.yul\":9898:10037   */\n      swap1\n      pop\n        /* \"#utility.yul\":9625:10044   */\n      swap2\n      swap1\n      pop\n      jump\t// out\n        /* \"#utility.yul\":10050:10168   */\n    tag_128:\n        /* \"#utility.yul\":10137:10161   */\n      tag_235\n        /* \"#utility.yul\":10155:10160   */\n      dup2\n        /* \"#utility.yul\":10137:10161   */\n      tag_104\n      jump\t// in\n    tag_235:\n        /* \"#utility.yul\":10132:10135   */\n      dup3\n        /* \"#utility.yul\":10125:10162   */\n      mstore\n        /* \"#utility.yul\":10050:10168   */\n      pop\n      pop\n      jump\t// out\n        /* \"#utility.yul\":10174:10396   */\n    tag_77:\n        /* \"#utility.yul\":10267:10271   */\n      0x00\n        /* \"#utility.yul\":10305:10307   */\n      0x20\n        /* \"#utility.yul\":10294:10303   */\n      dup3\n        /* \"#utility.yul\":10290:10308   */\n      add\n        /* \"#utility.yul\":10282:10308   */\n      swap1\n      pop\n        /* \"#utility.yul\":10318:10389   */\n      tag_237\n        /* \"#utility.yul\":10386:10387   */\n      0x00\n        /* \"#utility.yul\":10375:10384   */\n      dup4\n        /* \"#utility.yul\":10371:10388   */\n      add\n        /* \"#utility.yul\":10362:10368   */\n      dup5\n        /* \"#utility.yul\":10318:10389   */\n      tag_128\n      jump\t// in\n    tag_237:\n        /* \"#utility.yul\":10174:10396   */\n      swap3\n      swap2\n      pop\n      pop\n      jump\t// out\n        /* \"#utility.yul\":10402:10566   */\n    tag_129:\n        /* \"#utility.yul\":10542:10558   */\n      0x496e76616c69642072657665616c000000000000000000000000000000000000\n        /* \"#utility.yul\":10538:10539   */\n      0x00\n        /* \"#utility.yul\":10530:10536   */\n      dup3\n        /* \"#utility.yul\":10526:10540   */\n      add\n        /* \"#utility.yul\":10519:10559   */\n      mstore\n        /* \"#utility.yul\":10402:10566   */\n      pop\n      jump\t// out\n        /* \"#utility.yul\":10572:10938   */\n    tag_130:\n        /* \"#utility.yul\":10714:10717   */\n      0x00\n        /* \"#utility.yul\":10735:10802   */\n      tag_240\n        /* \"#utility.yul\":10799:10801   */\n      0x0e\n        /* \"#utility.yul\":10794:10797   */\n      dup4\n        /* \"#utility.yul\":10735:10802   */\n      tag_111\n      jump\t// in\n    tag_240:\n        /* \"#utility.yul\":10728:10802   */\n      swap2\n      pop\n        /* \"#utility.yul\":10811:10904   */\n      tag_241\n        /* \"#utility.yul\":10900:10903   */\n      dup3\n        /* \"#utility.yul\":10811:10904   */\n      tag_129\n      jump\t// in\n    tag_241:\n        /* \"#utility.yul\":10929:10931   */\n      0x20\n        /* \"#utility.yul\":10924:10927   */\n      dup3\n        /* \"#utility.yul\":10920:10932   */\n      add\n        /* \"#utility.yul\":10913:10932   */\n      swap1\n      pop\n        /* \"#utility.yul\":10572:10938   */\n      swap2\n      swap1\n      pop\n      jump\t// out\n        /* \"#utility.yul\":10944:11363   */\n    tag_80:\n        /* \"#utility.yul\":11110:11114   */\n      0x00\n        /* \"#utility.yul\":11148:11150   */\n      0x20\n        /* \"#utility.yul\":11137:11146   */\n      dup3\n        /* \"#utility.yul\":11133:11151   */\n      add\n        /* \"#utility.yul\":11125:11151   */\n      swap1\n      pop\n        /* \"#utility.yul\":11197:11206   */\n      dup2\n        /* \"#utility.yul\":11191:11195   */\n      dup2\n        /* \"#utility.yul\":11187:11207   */\n      sub\n        /* \"#utility.yul\":11183:11184   */\n      0x00\n        /* \"#utility.yul\":11172:11181   */\n      dup4\n        /* \"#utility.yul\":11168:11185   */\n      add\n        /* \"#utility.yul\":11161:11208   */\n      mstore\n        /* \"#utility.yul\":11225:11356   */\n      tag_243\n        /* \"#utility.yul\":11351:11355   */\n      dup2\n        /* \"#utility.yul\":11225:11356   */\n      tag_130\n      jump\t// in\n    tag_243:\n        /* \"#utility.yul\":11217:11356   */\n      swap1\n      pop\n        /* \"#utility.yul\":10944:11363   */\n      swap2\n      swap1\n      pop\n      jump\t// out\n        /* \"#utility.yul\":11369:11538   */\n    tag_131:\n        /* \"#utility.yul\":11509:11530   */\n      0x4c6f7474657279206e6f74207374617274656400000000000000000000000000\n        /* \"#utility.yul\":11505:11506   */\n      0x00\n        /* \"#utility.yul\":11497:11503   */\n      dup3\n        /* \"#utility.yul\":11493:11507   */\n      add\n        /* \"#utility.yul\":11486:11531   */\n      mstore\n        /* \"#utility.yul\":11369:11538   */\n      pop\n      jump\t// out\n        /* \"#utility.yul\":11544:11910   */\n    tag_132:\n        /* \"#utility.yul\":11686:11689   */\n      0x00\n        /* \"#utility.yul\":11707:11774   */\n      tag_246\n        /* \"#utility.yul\":11771:11773   */\n      0x13\n        /* \"#utility.yul\":11766:11769   */\n      dup4\n        /* \"#utility.yul\":11707:11774   */\n      tag_111\n      jump\t// in\n    tag_246:\n        /* \"#utility.yul\":11700:11774   */\n      swap2\n      pop\n        /* \"#utility.yul\":11783:11876   */\n      tag_247\n        /* \"#utility.yul\":11872:11875   */\n      dup3\n        /* \"#utility.yul\":11783:11876   */\n      tag_131\n      jump\t// in\n    tag_247:\n        /* \"#utility.yul\":11901:11903   */\n      0x20\n        /* \"#utility.yul\":11896:11899   */\n      dup3\n        /* \"#utility.yul\":11892:11904   */\n      add\n        /* \"#utility.yul\":11885:11904   */\n      swap1\n      pop\n        /* \"#utility.yul\":11544:11910   */\n      swap2\n      swap1\n      pop\n      jump\t// out\n        /* \"#utility.yul\":11916:12335   */\n    tag_85:\n        /* \"#utility.yul\":12082:12086   */\n      0x00\n        /* \"#utility.yul\":12120:12122   */\n      0x20\n        /* \"#utility.yul\":12109:12118   */\n      dup3\n        /* \"#utility.yul\":12105:12123   */\n      add\n        /* \"#utility.yul\":12097:12123   */\n      swap1\n      pop\n        /* \"#utility.yul\":12169:12178   */\n      dup2\n        /* \"#utility.yul\":12163:12167   */\n      dup2\n        /* \"#utility.yul\":12159:12179   */\n      sub\n        /* \"#utility.yul\":12155:12156   */\n      0x00\n        /* \"#utility.yul\":12144:12153   */\n      dup4\n        /* \"#utility.yul\":12140:12157   */\n      add\n        /* \"#utility.yul\":12133:12180   */\n      mstore\n        /* \"#utility.yul\":12197:12328   */\n      tag_249\n        /* \"#utility.yul\":12323:12327   */\n      dup2\n        /* \"#utility.yul\":12197:12328   */\n      tag_132\n      jump\t// in\n    tag_249:\n        /* \"#utility.yul\":12189:12328   */\n      swap1\n      pop\n        /* \"#utility.yul\":11916:12335   */\n      swap2\n      swap1\n      pop\n      jump\t// out\n        /* \"#utility.yul\":12341:12500   */\n    tag_133:\n        /* \"#utility.yul\":12481:12492   */\n      0x546f6f206561726c790000000000000000000000000000000000000000000000\n        /* \"#utility.yul\":12477:12478   */\n      0x00\n        /* \"#utility.yul\":12469:12475   */\n      dup3\n        /* \"#utility.yul\":12465:12479   */\n      add\n        /* \"#utility.yul\":12458:12493   */\n      mstore\n        /* \"#utility.yul\":12341:12500   */\n      pop\n      jump\t// out\n        /* \"#utility.yul\":12506:12871   */\n    tag_134:\n        /* \"#utility.yul\":12648:12651   */\n      0x00\n        /* \"#utility.yul\":12669:12735   */\n      tag_252\n        /* \"#utility.yul\":12733:12734   */\n      0x09\n        /* \"#utility.yul\":12728:12731   */\n      dup4\n        /* \"#utility.yul\":12669:12735   */\n      tag_111\n      jump\t// in\n    tag_252:\n        /* \"#utility.yul\":12662:12735   */\n      swap2\n      pop\n        /* \"#utility.yul\":12744:12837   */\n      tag_253\n        /* \"#utility.yul\":12833:12836   */\n      dup3\n        /* \"#utility.yul\":12744:12837   */\n      tag_133\n      jump\t// in\n    tag_253:\n        /* \"#utility.yul\":12862:12864   */\n      0x20\n        /* \"#utility.yul\":12857:12860   */\n      dup3\n        /* \"#utility.yul\":12853:12865   */\n      add\n        /* \"#utility.yul\":12846:12865   */\n      swap1\n      pop\n        /* \"#utility.yul\":12506:12871   */\n      swap2\n      swap1\n      pop\n      jump\t// out\n        /* \"#utility.yul\":12877:13296   */\n    tag_88:\n        /* \"#utility.yul\":13043:13047   */\n      0x00\n        /* \"#utility.yul\":13081:13083   */\n      0x20\n        /* \"#utility.yul\":13070:13079   */\n      dup3\n        /* \"#utility.yul\":13066:13084   */\n      add\n        /* \"#utility.yul\":13058:13084   */\n      swap1\n      pop\n        /* \"#utility.yul\":13130:13139   */\n      dup2\n        /* \"#utility.yul\":13124:13128   */\n      dup2\n        /* \"#utility.yul\":13120:13140   */\n      sub\n        /* \"#utility.yul\":13116:13117   */\n      0x00\n        /* \"#utility.yul\":13105:13114   */\n      dup4\n        /* \"#utility.yul\":13101:13118   */\n      add\n        /* \"#utility.yul\":13094:13141   */\n      mstore\n        /* \"#utility.yul\":13158:13289   */\n      tag_255\n        /* \"#utility.yul\":13284:13288   */\n      dup2\n        /* \"#utility.yul\":13158:13289   */\n      tag_134\n      jump\t// in\n    tag_255:\n        /* \"#utility.yul\":13150:13289   */\n      swap1\n      pop\n        /* \"#utility.yul\":12877:13296   */\n      swap2\n      swap1\n      pop\n      jump\t// out\n\n    auxdata: 0xa2646970667358221220b3fbc07d44934bca0030435fcf3a45a847a88eb86bb7102b65fa6ea0b789f85864736f6c634300081e0033\n}\n",
				"bytecode": {
					"linkReferences": {},
					"object": "608060405234801561000f575f5ffd5b50604051610f07380380610f07833981810160405281019061003191906100dc565b806007819055505f6004819055505f600681905550600160085f6101000a81548160ff021916908315150217905550335f5f6101000a81548173ffffffffffffffffffffffffffffffffffffffff021916908373ffffffffffffffffffffffffffffffffffffffff16021790555050610107565b5f5ffd5b5f819050919050565b6100bb816100a9565b81146100c5575f5ffd5b50565b5f815190506100d6816100b2565b92915050565b5f602082840312156100f1576100f06100a5565b5b5f6100fe848285016100c8565b91505092915050565b610df3806101145f395ff3fe608060405234801561000f575f5ffd5b5060043610610060575f3560e01c80631593a8c714610064578063160344e21461006e5780637b43a8e614610078578063c2ca0ac5146100a8578063f14fcbc8146100c4578063f7ec2f35146100e0575b5f5ffd5b61006c6100fe565b005b610076610399565b005b610092600480360381019061008d91906107be565b6104a0565b60405161009f9190610801565b60405180910390f35b6100c260048036038101906100bd919061084d565b6104b5565b005b6100de60048036038101906100d991906108a2565b610644565b005b6100e8610712565b6040516100f591906108e7565b60405180910390f35b5f5f9054906101000a900473ffffffffffffffffffffffffffffffffffffffff1673ffffffffffffffffffffffffffffffffffffffff163373ffffffffffffffffffffffffffffffffffffffff161461018c576040517f08c379a00000000000000000000000000000000000000000000000000000000081526004016101839061095a565b60405180910390fd5b6006544210156101d1576040517f08c379a00000000000000000000000000000000000000000000000000000000081526004016101c8906109c2565b60405180910390fd5b5f60038054905011610218576040517f08c379a000000000000000000000000000000000000000000000000000000000815260040161020f90610a2a565b60405180910390fd5b5f5f90505f5f90505b6003805490508110156102c15760025f6003838154811061024557610244610a48565b5b905f5260205f20015f9054906101000a900473ffffffffffffffffffffffffffffffffffffffff1673ffffffffffffffffffffffffffffffffffffffff1673ffffffffffffffffffffffffffffffffffffffff1681526020019081526020015f2054826102b29190610aa2565b91508080600101915050610221565b5060038080549050826102d49190610b02565b815481106102e5576102e4610a48565b5b905f5260205f20015f9054906101000a900473ffffffffffffffffffffffffffffffffffffffff1673ffffffffffffffffffffffffffffffffffffffff166325803d646123286040518263ffffffff1660e01b81526004016103479190610b74565b5f604051808303815f87803b15801561035e575f5ffd5b505af1158015610370573d5f5f3e3d5ffd5b505050505f6004819055505f6005819055505f60068190555060035f6103969190610727565b50565b5f5f9054906101000a900473ffffffffffffffffffffffffffffffffffffffff1673ffffffffffffffffffffffffffffffffffffffff163373ffffffffffffffffffffffffffffffffffffffff1614610427576040517f08c379a000000000000000000000000000000000000000000000000000000000815260040161041e9061095a565b60405180910390fd5b5f6004541461046b576040517f08c379a000000000000000000000000000000000000000000000000000000000815260040161046290610bd7565b60405180910390fd5b426004819055506007546004546104829190610aa2565b6005819055506007546005546104989190610aa2565b600681905550565b6001602052805f5260405f205f915090505481565b6005544210156104fa576040517f08c379a00000000000000000000000000000000000000000000000000000000081526004016104f190610c3f565b60405180910390fd5b60015f3373ffffffffffffffffffffffffffffffffffffffff1673ffffffffffffffffffffffffffffffffffffffff1681526020019081526020015f2054816040516020016105499190610c6c565b604051602081830303815290604052805190602001201461059f576040517f08c379a000000000000000000000000000000000000000000000000000000000815260040161059690610ccf565b60405180910390fd5b600333908060018154018082558091505060019003905f5260205f20015f9091909190916101000a81548173ffffffffffffffffffffffffffffffffffffffff021916908373ffffffffffffffffffffffffffffffffffffffff1602179055508060025f3373ffffffffffffffffffffffffffffffffffffffff1673ffffffffffffffffffffffffffffffffffffffff1681526020019081526020015f208190555050565b5f60045403610688576040517f08c379a000000000000000000000000000000000000000000000000000000000815260040161067f90610d37565b60405180910390fd5b6004544210156106cd576040517f08c379a00000000000000000000000000000000000000000000000000000000081526004016106c490610d9f565b60405180910390fd5b8060015f3373ffffffffffffffffffffffffffffffffffffffff1673ffffffffffffffffffffffffffffffffffffffff1681526020019081526020015f208190555050565b5f60085f9054906101000a900460ff16905090565b5080545f8255905f5260205f20908101906107429190610745565b50565b5b8082111561075c575f815f905550600101610746565b5090565b5f5ffd5b5f73ffffffffffffffffffffffffffffffffffffffff82169050919050565b5f61078d82610764565b9050919050565b61079d81610783565b81146107a7575f5ffd5b50565b5f813590506107b881610794565b92915050565b5f602082840312156107d3576107d2610760565b5b5f6107e0848285016107aa565b91505092915050565b5f819050919050565b6107fb816107e9565b82525050565b5f6020820190506108145f8301846107f2565b92915050565b5f819050919050565b61082c8161081a565b8114610836575f5ffd5b50565b5f8135905061084781610823565b92915050565b5f6020828403121561086257610861610760565b5b5f61086f84828501610839565b91505092915050565b610881816107e9565b811461088b575f5ffd5b50565b5f8135905061089c81610878565b92915050565b5f602082840312156108b7576108b6610760565b5b5f6108c48482850161088e565b91505092915050565b5f8115159050919050565b6108e1816108cd565b82525050565b5f6020820190506108fa5f8301846108d8565b92915050565b5f82825260208201905092915050565b7f4f6e6c79206f776e6572000000000000000000000000000000000000000000005f82015250565b5f610944600a83610900565b915061094f82610910565b602082019050919050565b5f6020820190508181035f83015261097181610938565b9050919050565b7f4c6f7474657279206e6f7420656e6465642079657400000000000000000000005f82015250565b5f6109ac601583610900565b91506109b782610978565b602082019050919050565b5f6020820190508181035f8301526109d9816109a0565b9050919050565b7f4e6f207061727469636970616e747300000000000000000000000000000000005f82015250565b5f610a14600f83610900565b9150610a1f826109e0565b602082019050919050565b5f6020820190508181035f830152610a4181610a08565b9050919050565b7f4e487b71000000000000000000000000000000000000000000000000000000005f52603260045260245ffd5b7f4e487b71000000000000000000000000000000000000000000000000000000005f52601160045260245ffd5b5f610aac8261081a565b9150610ab78361081a565b9250828201905080821115610acf57610ace610a75565b5b92915050565b7f4e487b71000000000000000000000000000000000000000000000000000000005f52601260045260245ffd5b5f610b0c8261081a565b9150610b178361081a565b925082610b2757610b26610ad5565b5b828206905092915050565b5f819050919050565b5f819050919050565b5f610b5e610b59610b5484610b32565b610b3b565b61081a565b9050919050565b610b6e81610b44565b82525050565b5f602082019050610b875f830184610b65565b92915050565b7f4c6f747465727920616c726561647920737461727465640000000000000000005f82015250565b5f610bc1601783610900565b9150610bcc82610b8d565b602082019050919050565b5f6020820190508181035f830152610bee81610bb5565b9050919050565b7f52657665616c207068617365206e6f74207374617274656420796574000000005f82015250565b5f610c29601c83610900565b9150610c3482610bf5565b602082019050919050565b5f6020820190508181035f830152610c5681610c1d565b9050919050565b610c668161081a565b82525050565b5f602082019050610c7f5f830184610c5d565b92915050565b7f496e76616c69642072657665616c0000000000000000000000000000000000005f82015250565b5f610cb9600e83610900565b9150610cc482610c85565b602082019050919050565b5f6020820190508181035f830152610ce681610cad565b9050919050565b7f4c6f7474657279206e6f742073746172746564000000000000000000000000005f82015250565b5f610d21601383610900565b9150610d2c82610ced565b602082019050919050565b5f6020820190508181035f830152610d4e81610d15565b9050919050565b7f546f6f206561726c7900000000000000000000000000000000000000000000005f82015250565b5f610d89600983610900565b9150610d9482610d55565b602082019050919050565b5f6020820190508181035f830152610db681610d7d565b905091905056fea2646970667358221220b3fbc07d44934bca0030435fcf3a45a847a88eb86bb7102b65fa6ea0b789f85864736f6c634300081e0033",
					"opcodes": "PUSH1 0x80 PUSH1 0x40 MSTORE CALLVALUE DUP1 ISZERO PUSH2 0xF JUMPI PUSH0 PUSH0 REVERT JUMPDEST POP PUSH1 0x40 MLOAD PUSH2 0xF07 CODESIZE SUB DUP1 PUSH2 0xF07 DUP4 CODECOPY DUP2 DUP2 ADD PUSH1 0x40 MSTORE DUP2 ADD SWAP1 PUSH2 0x31 SWAP2 SWAP1 PUSH2 0xDC JUMP JUMPDEST DUP1 PUSH1 0x7 DUP2 SWAP1 SSTORE POP PUSH0 PUSH1 0x4 DUP2 SWAP1 SSTORE POP PUSH0 PUSH1 0x6 DUP2 SWAP1 SSTORE POP PUSH1 0x1 PUSH1 0x8 PUSH0 PUSH2 0x100 EXP DUP2 SLOAD DUP2 PUSH1 0xFF MUL NOT AND SWAP1 DUP4 ISZERO ISZERO MUL OR SWAP1 SSTORE POP CALLER PUSH0 PUSH0 PUSH2 0x100 EXP DUP2 SLOAD DUP2 PUSH20 0xFFFFFFFFFFFFFFFFFFFFFFFFFFFFFFFFFFFFFFFF MUL NOT AND SWAP1 DUP4 PUSH20 0xFFFFFFFFFFFFFFFFFFFFFFFFFFFFFFFFFFFFFFFF AND MUL OR SWAP1 SSTORE POP POP PUSH2 0x107 JUMP JUMPDEST PUSH0 PUSH0 REVERT JUMPDEST PUSH0 DUP2 SWAP1 POP SWAP2 SWAP1 POP JUMP JUMPDEST PUSH2 0xBB DUP2 PUSH2 0xA9 JUMP JUMPDEST DUP2 EQ PUSH2 0xC5 JUMPI PUSH0 PUSH0 REVERT JUMPDEST POP JUMP JUMPDEST PUSH0 DUP2 MLOAD SWAP1 POP PUSH2 0xD6 DUP2 PUSH2 0xB2 JUMP JUMPDEST SWAP3 SWAP2 POP POP JUMP JUMPDEST PUSH0 PUSH1 0x20 DUP3 DUP5 SUB SLT ISZERO PUSH2 0xF1 JUMPI PUSH2 0xF0 PUSH2 0xA5 JUMP JUMPDEST JUMPDEST PUSH0 PUSH2 0xFE DUP5 DUP3 DUP6 ADD PUSH2 0xC8 JUMP JUMPDEST SWAP2 POP POP SWAP3 SWAP2 POP POP JUMP JUMPDEST PUSH2 0xDF3 DUP1 PUSH2 0x114 PUSH0 CODECOPY PUSH0 RETURN INVALID PUSH1 0x80 PUSH1 0x40 MSTORE CALLVALUE DUP1 ISZERO PUSH2 0xF JUMPI PUSH0 PUSH0 REVERT JUMPDEST POP PUSH1 0x4 CALLDATASIZE LT PUSH2 0x60 JUMPI PUSH0 CALLDATALOAD PUSH1 0xE0 SHR DUP1 PUSH4 0x1593A8C7 EQ PUSH2 0x64 JUMPI DUP1 PUSH4 0x160344E2 EQ PUSH2 0x6E JUMPI DUP1 PUSH4 0x7B43A8E6 EQ PUSH2 0x78 JUMPI DUP1 PUSH4 0xC2CA0AC5 EQ PUSH2 0xA8 JUMPI DUP1 PUSH4 0xF14FCBC8 EQ PUSH2 0xC4 JUMPI DUP1 PUSH4 0xF7EC2F35 EQ PUSH2 0xE0 JUMPI JUMPDEST PUSH0 PUSH0 REVERT JUMPDEST PUSH2 0x6C PUSH2 0xFE JUMP JUMPDEST STOP JUMPDEST PUSH2 0x76 PUSH2 0x399 JUMP JUMPDEST STOP JUMPDEST PUSH2 0x92 PUSH1 0x4 DUP1 CALLDATASIZE SUB DUP2 ADD SWAP1 PUSH2 0x8D SWAP2 SWAP1 PUSH2 0x7BE JUMP JUMPDEST PUSH2 0x4A0 JUMP JUMPDEST PUSH1 0x40 MLOAD PUSH2 0x9F SWAP2 SWAP1 PUSH2 0x801 JUMP JUMPDEST PUSH1 0x40 MLOAD DUP1 SWAP2 SUB SWAP1 RETURN JUMPDEST PUSH2 0xC2 PUSH1 0x4 DUP1 CALLDATASIZE SUB DUP2 ADD SWAP1 PUSH2 0xBD SWAP2 SWAP1 PUSH2 0x84D JUMP JUMPDEST PUSH2 0x4B5 JUMP JUMPDEST STOP JUMPDEST PUSH2 0xDE PUSH1 0x4 DUP1 CALLDATASIZE SUB DUP2 ADD SWAP1 PUSH2 0xD9 SWAP2 SWAP1 PUSH2 0x8A2 JUMP JUMPDEST PUSH2 0x644 JUMP JUMPDEST STOP JUMPDEST PUSH2 0xE8 PUSH2 0x712 JUMP JUMPDEST PUSH1 0x40 MLOAD PUSH2 0xF5 SWAP2 SWAP1 PUSH2 0x8E7 JUMP JUMPDEST PUSH1 0x40 MLOAD DUP1 SWAP2 SUB SWAP1 RETURN JUMPDEST PUSH0 PUSH0 SWAP1 SLOAD SWAP1 PUSH2 0x100 EXP SWAP1 DIV PUSH20 0xFFFFFFFFFFFFFFFFFFFFFFFFFFFFFFFFFFFFFFFF AND PUSH20 0xFFFFFFFFFFFFFFFFFFFFFFFFFFFFFFFFFFFFFFFF AND CALLER PUSH20 0xFFFFFFFFFFFFFFFFFFFFFFFFFFFFFFFFFFFFFFFF AND EQ PUSH2 0x18C JUMPI PUSH1 0x40 MLOAD PUSH32 0x8C379A000000000000000000000000000000000000000000000000000000000 DUP2 MSTORE PUSH1 0x4 ADD PUSH2 0x183 SWAP1 PUSH2 0x95A JUMP JUMPDEST PUSH1 0x40 MLOAD DUP1 SWAP2 SUB SWAP1 REVERT JUMPDEST PUSH1 0x6 SLOAD TIMESTAMP LT ISZERO PUSH2 0x1D1 JUMPI PUSH1 0x40 MLOAD PUSH32 0x8C379A000000000000000000000000000000000000000000000000000000000 DUP2 MSTORE PUSH1 0x4 ADD PUSH2 0x1C8 SWAP1 PUSH2 0x9C2 JUMP JUMPDEST PUSH1 0x40 MLOAD DUP1 SWAP2 SUB SWAP1 REVERT JUMPDEST PUSH0 PUSH1 0x3 DUP1 SLOAD SWAP1 POP GT PUSH2 0x218 JUMPI PUSH1 0x40 MLOAD PUSH32 0x8C379A000000000000000000000000000000000000000000000000000000000 DUP2 MSTORE PUSH1 0x4 ADD PUSH2 0x20F SWAP1 PUSH2 0xA2A JUMP JUMPDEST PUSH1 0x40 MLOAD DUP1 SWAP2 SUB SWAP1 REVERT JUMPDEST PUSH0 PUSH0 SWAP1 POP PUSH0 PUSH0 SWAP1 POP JUMPDEST PUSH1 0x3 DUP1 SLOAD SWAP1 POP DUP2 LT ISZERO PUSH2 0x2C1 JUMPI PUSH1 0x2 PUSH0 PUSH1 0x3 DUP4 DUP2 SLOAD DUP2 LT PUSH2 0x245 JUMPI PUSH2 0x244 PUSH2 0xA48 JUMP JUMPDEST JUMPDEST SWAP1 PUSH0 MSTORE PUSH1 0x20 PUSH0 KECCAK256 ADD PUSH0 SWAP1 SLOAD SWAP1 PUSH2 0x100 EXP SWAP1 DIV PUSH20 0xFFFFFFFFFFFFFFFFFFFFFFFFFFFFFFFFFFFFFFFF AND PUSH20 0xFFFFFFFFFFFFFFFFFFFFFFFFFFFFFFFFFFFFFFFF AND PUSH20 0xFFFFFFFFFFFFFFFFFFFFFFFFFFFFFFFFFFFFFFFF AND DUP2 MSTORE PUSH1 0x20 ADD SWAP1 DUP2 MSTORE PUSH1 0x20 ADD PUSH0 KECCAK256 SLOAD DUP3 PUSH2 0x2B2 SWAP2 SWAP1 PUSH2 0xAA2 JUMP JUMPDEST SWAP2 POP DUP1 DUP1 PUSH1 0x1 ADD SWAP2 POP POP PUSH2 0x221 JUMP JUMPDEST POP PUSH1 0x3 DUP1 DUP1 SLOAD SWAP1 POP DUP3 PUSH2 0x2D4 SWAP2 SWAP1 PUSH2 0xB02 JUMP JUMPDEST DUP2 SLOAD DUP2 LT PUSH2 0x2E5 JUMPI PUSH2 0x2E4 PUSH2 0xA48 JUMP JUMPDEST JUMPDEST SWAP1 PUSH0 MSTORE PUSH1 0x20 PUSH0 KECCAK256 ADD PUSH0 SWAP1 SLOAD SWAP1 PUSH2 0x100 EXP SWAP1 DIV PUSH20 0xFFFFFFFFFFFFFFFFFFFFFFFFFFFFFFFFFFFFFFFF AND PUSH20 0xFFFFFFFFFFFFFFFFFFFFFFFFFFFFFFFFFFFFFFFF AND PUSH4 0x25803D64 PUSH2 0x2328 PUSH1 0x40 MLOAD DUP3 PUSH4 0xFFFFFFFF AND PUSH1 0xE0 SHL DUP2 MSTORE PUSH1 0x4 ADD PUSH2 0x347 SWAP2 SWAP1 PUSH2 0xB74 JUMP JUMPDEST PUSH0 PUSH1 0x40 MLOAD DUP1 DUP4 SUB DUP2 PUSH0 DUP8 DUP1 EXTCODESIZE ISZERO DUP1 ISZERO PUSH2 0x35E JUMPI PUSH0 PUSH0 REVERT JUMPDEST POP GAS CALL ISZERO DUP1 ISZERO PUSH2 0x370 JUMPI RETURNDATASIZE PUSH0 PUSH0 RETURNDATACOPY RETURNDATASIZE PUSH0 REVERT JUMPDEST POP POP POP POP PUSH0 PUSH1 0x4 DUP2 SWAP1 SSTORE POP PUSH0 PUSH1 0x5 DUP2 SWAP1 SSTORE POP PUSH0 PUSH1 0x6 DUP2 SWAP1 SSTORE POP PUSH1 0x3 PUSH0 PUSH2 0x396 SWAP2 SWAP1 PUSH2 0x727 JUMP JUMPDEST POP JUMP JUMPDEST PUSH0 PUSH0 SWAP1 SLOAD SWAP1 PUSH2 0x100 EXP SWAP1 DIV PUSH20 0xFFFFFFFFFFFFFFFFFFFFFFFFFFFFFFFFFFFFFFFF AND PUSH20 0xFFFFFFFFFFFFFFFFFFFFFFFFFFFFFFFFFFFFFFFF AND CALLER PUSH20 0xFFFFFFFFFFFFFFFFFFFFFFFFFFFFFFFFFFFFFFFF AND EQ PUSH2 0x427 JUMPI PUSH1 0x40 MLOAD PUSH32 0x8C379A000000000000000000000000000000000000000000000000000000000 DUP2 MSTORE PUSH1 0x4 ADD PUSH2 0x41E SWAP1 PUSH2 0x95A JUMP JUMPDEST PUSH1 0x40 MLOAD DUP1 SWAP2 SUB SWAP1 REVERT JUMPDEST PUSH0 PUSH1 0x4 SLOAD EQ PUSH2 0x46B JUMPI PUSH1 0x40 MLOAD PUSH32 0x8C379A000000000000000000000000000000000000000000000000000000000 DUP2 MSTORE PUSH1 0x4 ADD PUSH2 0x462 SWAP1 PUSH2 0xBD7 JUMP JUMPDEST PUSH1 0x40 MLOAD DUP1 SWAP2 SUB SWAP1 REVERT JUMPDEST TIMESTAMP PUSH1 0x4 DUP2 SWAP1 SSTORE POP PUSH1 0x7 SLOAD PUSH1 0x4 SLOAD PUSH2 0x482 SWAP2 SWAP1 PUSH2 0xAA2 JUMP JUMPDEST PUSH1 0x5 DUP2 SWAP1 SSTORE POP PUSH1 0x7 SLOAD PUSH1 0x5 SLOAD PUSH2 0x498 SWAP2 SWAP1 PUSH2 0xAA2 JUMP JUMPDEST PUSH1 0x6 DUP2 SWAP1 SSTORE POP JUMP JUMPDEST PUSH1 0x1 PUSH1 0x20 MSTORE DUP1 PUSH0 MSTORE PUSH1 0x40 PUSH0 KECCAK256 PUSH0 SWAP2 POP SWAP1 POP SLOAD DUP2 JUMP JUMPDEST PUSH1 0x5 SLOAD TIMESTAMP LT ISZERO PUSH2 0x4FA JUMPI PUSH1 0x40 MLOAD PUSH32 0x8C379A000000000000000000000000000000000000000000000000000000000 DUP2 MSTORE PUSH1 0x4 ADD PUSH2 0x4F1 SWAP1 PUSH2 0xC3F JUMP JUMPDEST PUSH1 0x40 MLOAD DUP1 SWAP2 SUB SWAP1 REVERT JUMPDEST PUSH1 0x1 PUSH0 CALLER PUSH20 0xFFFFFFFFFFFFFFFFFFFFFFFFFFFFFFFFFFFFFFFF AND PUSH20 0xFFFFFFFFFFFFFFFFFFFFFFFFFFFFFFFFFFFFFFFF AND DUP2 MSTORE PUSH1 0x20 ADD SWAP1 DUP2 MSTORE PUSH1 0x20 ADD PUSH0 KECCAK256 SLOAD DUP2 PUSH1 0x40 MLOAD PUSH1 0x20 ADD PUSH2 0x549 SWAP2 SWAP1 PUSH2 0xC6C JUMP JUMPDEST PUSH1 0x40 MLOAD PUSH1 0x20 DUP2 DUP4 SUB SUB DUP2 MSTORE SWAP1 PUSH1 0x40 MSTORE DUP1 MLOAD SWAP1 PUSH1 0x20 ADD KECCAK256 EQ PUSH2 0x59F JUMPI PUSH1 0x40 MLOAD PUSH32 0x8C379A000000000000000000000000000000000000000000000000000000000 DUP2 MSTORE PUSH1 0x4 ADD PUSH2 0x596 SWAP1 PUSH2 0xCCF JUMP JUMPDEST PUSH1 0x40 MLOAD DUP1 SWAP2 SUB SWAP1 REVERT JUMPDEST PUSH1 0x3 CALLER SWAP1 DUP1 PUSH1 0x1 DUP2 SLOAD ADD DUP1 DUP3 SSTORE DUP1 SWAP2 POP POP PUSH1 0x1 SWAP1 SUB SWAP1 PUSH0 MSTORE PUSH1 0x20 PUSH0 KECCAK256 ADD PUSH0 SWAP1 SWAP2 SWAP1 SWAP2 SWAP1 SWAP2 PUSH2 0x100 EXP DUP2 SLOAD DUP2 PUSH20 0xFFFFFFFFFFFFFFFFFFFFFFFFFFFFFFFFFFFFFFFF MUL NOT AND SWAP1 DUP4 PUSH20 0xFFFFFFFFFFFFFFFFFFFFFFFFFFFFFFFFFFFFFFFF AND MUL OR SWAP1 SSTORE POP DUP1 PUSH1 0x2 PUSH0 CALLER PUSH20 0xFFFFFFFFFFFFFFFFFFFFFFFFFFFFFFFFFFFFFFFF AND PUSH20 0xFFFFFFFFFFFFFFFFFFFFFFFFFFFFFFFFFFFFFFFF AND DUP2 MSTORE PUSH1 0x20 ADD SWAP1 DUP2 MSTORE PUSH1 0x20 ADD PUSH0 KECCAK256 DUP2 SWAP1 SSTORE POP POP JUMP JUMPDEST PUSH0 PUSH1 0x4 SLOAD SUB PUSH2 0x688 JUMPI PUSH1 0x40 MLOAD PUSH32 0x8C379A000000000000000000000000000000000000000000000000000000000 DUP2 MSTORE PUSH1 0x4 ADD PUSH2 0x67F SWAP1 PUSH2 0xD37 JUMP JUMPDEST PUSH1 0x40 MLOAD DUP1 SWAP2 SUB SWAP1 REVERT JUMPDEST PUSH1 0x4 SLOAD TIMESTAMP LT ISZERO PUSH2 0x6CD JUMPI PUSH1 0x40 MLOAD PUSH32 0x8C379A000000000000000000000000000000000000000000000000000000000 DUP2 MSTORE PUSH1 0x4 ADD PUSH2 0x6C4 SWAP1 PUSH2 0xD9F JUMP JUMPDEST PUSH1 0x40 MLOAD DUP1 SWAP2 SUB SWAP1 REVERT JUMPDEST DUP1 PUSH1 0x1 PUSH0 CALLER PUSH20 0xFFFFFFFFFFFFFFFFFFFFFFFFFFFFFFFFFFFFFFFF AND PUSH20 0xFFFFFFFFFFFFFFFFFFFFFFFFFFFFFFFFFFFFFFFF AND DUP2 MSTORE PUSH1 0x20 ADD SWAP1 DUP2 MSTORE PUSH1 0x20 ADD PUSH0 KECCAK256 DUP2 SWAP1 SSTORE POP POP JUMP JUMPDEST PUSH0 PUSH1 0x8 PUSH0 SWAP1 SLOAD SWAP1 PUSH2 0x100 EXP SWAP1 DIV PUSH1 0xFF AND SWAP1 POP SWAP1 JUMP JUMPDEST POP DUP1 SLOAD PUSH0 DUP3 SSTORE SWAP1 PUSH0 MSTORE PUSH1 0x20 PUSH0 KECCAK256 SWAP1 DUP2 ADD SWAP1 PUSH2 0x742 SWAP2 SWAP1 PUSH2 0x745 JUMP JUMPDEST POP JUMP JUMPDEST JUMPDEST DUP1 DUP3 GT ISZERO PUSH2 0x75C JUMPI PUSH0 DUP2 PUSH0 SWAP1 SSTORE POP PUSH1 0x1 ADD PUSH2 0x746 JUMP JUMPDEST POP SWAP1 JUMP JUMPDEST PUSH0 PUSH0 REVERT JUMPDEST PUSH0 PUSH20 0xFFFFFFFFFFFFFFFFFFFFFFFFFFFFFFFFFFFFFFFF DUP3 AND SWAP1 POP SWAP2 SWAP1 POP JUMP JUMPDEST PUSH0 PUSH2 0x78D DUP3 PUSH2 0x764 JUMP JUMPDEST SWAP1 POP SWAP2 SWAP1 POP JUMP JUMPDEST PUSH2 0x79D DUP2 PUSH2 0x783 JUMP JUMPDEST DUP2 EQ PUSH2 0x7A7 JUMPI PUSH0 PUSH0 REVERT JUMPDEST POP JUMP JUMPDEST PUSH0 DUP2 CALLDATALOAD SWAP1 POP PUSH2 0x7B8 DUP2 PUSH2 0x794 JUMP JUMPDEST SWAP3 SWAP2 POP POP JUMP JUMPDEST PUSH0 PUSH1 0x20 DUP3 DUP5 SUB SLT ISZERO PUSH2 0x7D3 JUMPI PUSH2 0x7D2 PUSH2 0x760 JUMP JUMPDEST JUMPDEST PUSH0 PUSH2 0x7E0 DUP5 DUP3 DUP6 ADD PUSH2 0x7AA JUMP JUMPDEST SWAP2 POP POP SWAP3 SWAP2 POP POP JUMP JUMPDEST PUSH0 DUP2 SWAP1 POP SWAP2 SWAP1 POP JUMP JUMPDEST PUSH2 0x7FB DUP2 PUSH2 0x7E9 JUMP JUMPDEST DUP3 MSTORE POP POP JUMP JUMPDEST PUSH0 PUSH1 0x20 DUP3 ADD SWAP1 POP PUSH2 0x814 PUSH0 DUP4 ADD DUP5 PUSH2 0x7F2 JUMP JUMPDEST SWAP3 SWAP2 POP POP JUMP JUMPDEST PUSH0 DUP2 SWAP1 POP SWAP2 SWAP1 POP JUMP JUMPDEST PUSH2 0x82C DUP2 PUSH2 0x81A JUMP JUMPDEST DUP2 EQ PUSH2 0x836 JUMPI PUSH0 PUSH0 REVERT JUMPDEST POP JUMP JUMPDEST PUSH0 DUP2 CALLDATALOAD SWAP1 POP PUSH2 0x847 DUP2 PUSH2 0x823 JUMP JUMPDEST SWAP3 SWAP2 POP POP JUMP JUMPDEST PUSH0 PUSH1 0x20 DUP3 DUP5 SUB SLT ISZERO PUSH2 0x862 JUMPI PUSH2 0x861 PUSH2 0x760 JUMP JUMPDEST JUMPDEST PUSH0 PUSH2 0x86F DUP5 DUP3 DUP6 ADD PUSH2 0x839 JUMP JUMPDEST SWAP2 POP POP SWAP3 SWAP2 POP POP JUMP JUMPDEST PUSH2 0x881 DUP2 PUSH2 0x7E9 JUMP JUMPDEST DUP2 EQ PUSH2 0x88B JUMPI PUSH0 PUSH0 REVERT JUMPDEST POP JUMP JUMPDEST PUSH0 DUP2 CALLDATALOAD SWAP1 POP PUSH2 0x89C DUP2 PUSH2 0x878 JUMP JUMPDEST SWAP3 SWAP2 POP POP JUMP JUMPDEST PUSH0 PUSH1 0x20 DUP3 DUP5 SUB SLT ISZERO PUSH2 0x8B7 JUMPI PUSH2 0x8B6 PUSH2 0x760 JUMP JUMPDEST JUMPDEST PUSH0 PUSH2 0x8C4 DUP5 DUP3 DUP6 ADD PUSH2 0x88E JUMP JUMPDEST SWAP2 POP POP SWAP3 SWAP2 POP POP JUMP JUMPDEST PUSH0 DUP2 ISZERO ISZERO SWAP1 POP SWAP2 SWAP1 POP JUMP JUMPDEST PUSH2 0x8E1 DUP2 PUSH2 0x8CD JUMP JUMPDEST DUP3 MSTORE POP POP JUMP JUMPDEST PUSH0 PUSH1 0x20 DUP3 ADD SWAP1 POP PUSH2 0x8FA PUSH0 DUP4 ADD DUP5 PUSH2 0x8D8 JUMP JUMPDEST SWAP3 SWAP2 POP POP JUMP JUMPDEST PUSH0 DUP3 DUP3 MSTORE PUSH1 0x20 DUP3 ADD SWAP1 POP SWAP3 SWAP2 POP POP JUMP JUMPDEST PUSH32 0x4F6E6C79206F776E657200000000000000000000000000000000000000000000 PUSH0 DUP3 ADD MSTORE POP JUMP JUMPDEST PUSH0 PUSH2 0x944 PUSH1 0xA DUP4 PUSH2 0x900 JUMP JUMPDEST SWAP2 POP PUSH2 0x94F DUP3 PUSH2 0x910 JUMP JUMPDEST PUSH1 0x20 DUP3 ADD SWAP1 POP SWAP2 SWAP1 POP JUMP JUMPDEST PUSH0 PUSH1 0x20 DUP3 ADD SWAP1 POP DUP2 DUP2 SUB PUSH0 DUP4 ADD MSTORE PUSH2 0x971 DUP2 PUSH2 0x938 JUMP JUMPDEST SWAP1 POP SWAP2 SWAP1 POP JUMP JUMPDEST PUSH32 0x4C6F7474657279206E6F7420656E646564207965740000000000000000000000 PUSH0 DUP3 ADD MSTORE POP JUMP JUMPDEST PUSH0 PUSH2 0x9AC PUSH1 0x15 DUP4 PUSH2 0x900 JUMP JUMPDEST SWAP2 POP PUSH2 0x9B7 DUP3 PUSH2 0x978 JUMP JUMPDEST PUSH1 0x20 DUP3 ADD SWAP1 POP SWAP2 SWAP1 POP JUMP JUMPDEST PUSH0 PUSH1 0x20 DUP3 ADD SWAP1 POP DUP2 DUP2 SUB PUSH0 DUP4 ADD MSTORE PUSH2 0x9D9 DUP2 PUSH2 0x9A0 JUMP JUMPDEST SWAP1 POP SWAP2 SWAP1 POP JUMP JUMPDEST PUSH32 0x4E6F207061727469636970616E74730000000000000000000000000000000000 PUSH0 DUP3 ADD MSTORE POP JUMP JUMPDEST PUSH0 PUSH2 0xA14 PUSH1 0xF DUP4 PUSH2 0x900 JUMP JUMPDEST SWAP2 POP PUSH2 0xA1F DUP3 PUSH2 0x9E0 JUMP JUMPDEST PUSH1 0x20 DUP3 ADD SWAP1 POP SWAP2 SWAP1 POP JUMP JUMPDEST PUSH0 PUSH1 0x20 DUP3 ADD SWAP1 POP DUP2 DUP2 SUB PUSH0 DUP4 ADD MSTORE PUSH2 0xA41 DUP2 PUSH2 0xA08 JUMP JUMPDEST SWAP1 POP SWAP2 SWAP1 POP JUMP JUMPDEST PUSH32 0x4E487B7100000000000000000000000000000000000000000000000000000000 PUSH0 MSTORE PUSH1 0x32 PUSH1 0x4 MSTORE PUSH1 0x24 PUSH0 REVERT JUMPDEST PUSH32 0x4E487B7100000000000000000000000000000000000000000000000000000000 PUSH0 MSTORE PUSH1 0x11 PUSH1 0x4 MSTORE PUSH1 0x24 PUSH0 REVERT JUMPDEST PUSH0 PUSH2 0xAAC DUP3 PUSH2 0x81A JUMP JUMPDEST SWAP2 POP PUSH2 0xAB7 DUP4 PUSH2 0x81A JUMP JUMPDEST SWAP3 POP DUP3 DUP3 ADD SWAP1 POP DUP1 DUP3 GT ISZERO PUSH2 0xACF JUMPI PUSH2 0xACE PUSH2 0xA75 JUMP JUMPDEST JUMPDEST SWAP3 SWAP2 POP POP JUMP JUMPDEST PUSH32 0x4E487B7100000000000000000000000000000000000000000000000000000000 PUSH0 MSTORE PUSH1 0x12 PUSH1 0x4 MSTORE PUSH1 0x24 PUSH0 REVERT JUMPDEST PUSH0 PUSH2 0xB0C DUP3 PUSH2 0x81A JUMP JUMPDEST SWAP2 POP PUSH2 0xB17 DUP4 PUSH2 0x81A JUMP JUMPDEST SWAP3 POP DUP3 PUSH2 0xB27 JUMPI PUSH2 0xB26 PUSH2 0xAD5 JUMP JUMPDEST JUMPDEST DUP3 DUP3 MOD SWAP1 POP SWAP3 SWAP2 POP POP JUMP JUMPDEST PUSH0 DUP2 SWAP1 POP SWAP2 SWAP1 POP JUMP JUMPDEST PUSH0 DUP2 SWAP1 POP SWAP2 SWAP1 POP JUMP JUMPDEST PUSH0 PUSH2 0xB5E PUSH2 0xB59 PUSH2 0xB54 DUP5 PUSH2 0xB32 JUMP JUMPDEST PUSH2 0xB3B JUMP JUMPDEST PUSH2 0x81A JUMP JUMPDEST SWAP1 POP SWAP2 SWAP1 POP JUMP JUMPDEST PUSH2 0xB6E DUP2 PUSH2 0xB44 JUMP JUMPDEST DUP3 MSTORE POP POP JUMP JUMPDEST PUSH0 PUSH1 0x20 DUP3 ADD SWAP1 POP PUSH2 0xB87 PUSH0 DUP4 ADD DUP5 PUSH2 0xB65 JUMP JUMPDEST SWAP3 SWAP2 POP POP JUMP JUMPDEST PUSH32 0x4C6F747465727920616C72656164792073746172746564000000000000000000 PUSH0 DUP3 ADD MSTORE POP JUMP JUMPDEST PUSH0 PUSH2 0xBC1 PUSH1 0x17 DUP4 PUSH2 0x900 JUMP JUMPDEST SWAP2 POP PUSH2 0xBCC DUP3 PUSH2 0xB8D JUMP JUMPDEST PUSH1 0x20 DUP3 ADD SWAP1 POP SWAP2 SWAP1 POP JUMP JUMPDEST PUSH0 PUSH1 0x20 DUP3 ADD SWAP1 POP DUP2 DUP2 SUB PUSH0 DUP4 ADD MSTORE PUSH2 0xBEE DUP2 PUSH2 0xBB5 JUMP JUMPDEST SWAP1 POP SWAP2 SWAP1 POP JUMP JUMPDEST PUSH32 0x52657665616C207068617365206E6F7420737461727465642079657400000000 PUSH0 DUP3 ADD MSTORE POP JUMP JUMPDEST PUSH0 PUSH2 0xC29 PUSH1 0x1C DUP4 PUSH2 0x900 JUMP JUMPDEST SWAP2 POP PUSH2 0xC34 DUP3 PUSH2 0xBF5 JUMP JUMPDEST PUSH1 0x20 DUP3 ADD SWAP1 POP SWAP2 SWAP1 POP JUMP JUMPDEST PUSH0 PUSH1 0x20 DUP3 ADD SWAP1 POP DUP2 DUP2 SUB PUSH0 DUP4 ADD MSTORE PUSH2 0xC56 DUP2 PUSH2 0xC1D JUMP JUMPDEST SWAP1 POP SWAP2 SWAP1 POP JUMP JUMPDEST PUSH2 0xC66 DUP2 PUSH2 0x81A JUMP JUMPDEST DUP3 MSTORE POP POP JUMP JUMPDEST PUSH0 PUSH1 0x20 DUP3 ADD SWAP1 POP PUSH2 0xC7F PUSH0 DUP4 ADD DUP5 PUSH2 0xC5D JUMP JUMPDEST SWAP3 SWAP2 POP POP JUMP JUMPDEST PUSH32 0x496E76616C69642072657665616C000000000000000000000000000000000000 PUSH0 DUP3 ADD MSTORE POP JUMP JUMPDEST PUSH0 PUSH2 0xCB9 PUSH1 0xE DUP4 PUSH2 0x900 JUMP JUMPDEST SWAP2 POP PUSH2 0xCC4 DUP3 PUSH2 0xC85 JUMP JUMPDEST PUSH1 0x20 DUP3 ADD SWAP1 POP SWAP2 SWAP1 POP JUMP JUMPDEST PUSH0 PUSH1 0x20 DUP3 ADD SWAP1 POP DUP2 DUP2 SUB PUSH0 DUP4 ADD MSTORE PUSH2 0xCE6 DUP2 PUSH2 0xCAD JUMP JUMPDEST SWAP1 POP SWAP2 SWAP1 POP JUMP JUMPDEST PUSH32 0x4C6F7474657279206E6F74207374617274656400000000000000000000000000 PUSH0 DUP3 ADD MSTORE POP JUMP JUMPDEST PUSH0 PUSH2 0xD21 PUSH1 0x13 DUP4 PUSH2 0x900 JUMP JUMPDEST SWAP2 POP PUSH2 0xD2C DUP3 PUSH2 0xCED JUMP JUMPDEST PUSH1 0x20 DUP3 ADD SWAP1 POP SWAP2 SWAP1 POP JUMP JUMPDEST PUSH0 PUSH1 0x20 DUP3 ADD SWAP1 POP DUP2 DUP2 SUB PUSH0 DUP4 ADD MSTORE PUSH2 0xD4E DUP2 PUSH2 0xD15 JUMP JUMPDEST SWAP1 POP SWAP2 SWAP1 POP JUMP JUMPDEST PUSH32 0x546F6F206561726C790000000000000000000000000000000000000000000000 PUSH0 DUP3 ADD MSTORE POP JUMP JUMPDEST PUSH0 PUSH2 0xD89 PUSH1 0x9 DUP4 PUSH2 0x900 JUMP JUMPDEST SWAP2 POP PUSH2 0xD94 DUP3 PUSH2 0xD55 JUMP JUMPDEST PUSH1 0x20 DUP3 ADD SWAP1 POP SWAP2 SWAP1 POP JUMP JUMPDEST PUSH0 PUSH1 0x20 DUP3 ADD SWAP1 POP DUP2 DUP2 SUB PUSH0 DUP4 ADD MSTORE PUSH2 0xDB6 DUP2 PUSH2 0xD7D JUMP JUMPDEST SWAP1 POP SWAP2 SWAP1 POP JUMP INVALID LOG2 PUSH5 0x6970667358 0x22 SLT KECCAK256 0xB3 EXTSTATICCALL 0xC0 PUSH30 0x44934BCA0030435FCF3A45A847A88EB86BB7102B65FA6EA0B789F8586473 PUSH16 0x6C634300081E00330000000000000000 "
				},
				"gasEstimates": {
					"creation": {
						"codeDepositCost": "714200",
						"executionCost": "infinite",
						"totalCost": "infinite"
					},
					"external": {
						"commit(bytes32)": "26915",
						"commits(address)": "2824",
						"endLottery()": "infinite",
						"isContract()": "2561",
						"reveal(uint256)": "infinite",
						"startLottery()": "infinite"
					}
				},
				"methodIdentifiers": {
					"commit(bytes32)": "f14fcbc8",
					"commits(address)": "7b43a8e6",
					"endLottery()": "1593a8c7",
					"isContract()": "f7ec2f35",
					"reveal(uint256)": "c2ca0ac5",
					"startLottery()": "160344e2"
				}
			},
			"storageLayout": {
				"storage": [
					{
						"astId": 4,
						"contract": "Lottery.sol:Lottery",
						"label": "owner",
						"offset": 0,
						"slot": "0",
						"type": "t_address"
					},
					{
						"astId": 8,
						"contract": "Lottery.sol:Lottery",
						"label": "commits",
						"offset": 0,
						"slot": "1",
						"type": "t_mapping(t_address,t_bytes32)"
					},
					{
						"astId": 12,
						"contract": "Lottery.sol:Lottery",
						"label": "reveals",
						"offset": 0,
						"slot": "2",
						"type": "t_mapping(t_address,t_uint256)"
					},
					{
						"astId": 15,
						"contract": "Lottery.sol:Lottery",
						"label": "revealed",
						"offset": 0,
						"slot": "3",
						"type": "t_array(t_address)dyn_storage"
					},
					{
						"astId": 17,
						"contract": "Lottery.sol:Lottery",
						"label": "startTime",
						"offset": 0,
						"slot": "4",
						"type": "t_uint256"
					},
					{
						"astId": 19,
						"contract": "Lottery.sol:Lottery",
						"label": "revealTime",
						"offset": 0,
						"slot": "5",
						"type": "t_uint256"
					},
					{
						"astId": 21,
						"contract": "Lottery.sol:Lottery",
						"label": "endTime",
						"offset": 0,
						"slot": "6",
						"type": "t_uint256"
					},
					{
						"astId": 23,
						"contract": "Lottery.sol:Lottery",
						"label": "period",
						"offset": 0,
						"slot": "7",
						"type": "t_uint256"
					},
					{
						"astId": 25,
						"contract": "Lottery.sol:Lottery",
						"label": "iscontract",
						"offset": 0,
						"slot": "8",
						"type": "t_bool"
					}
				],
				"types": {
					"t_address": {
						"encoding": "inplace",
						"label": "address",
						"numberOfBytes": "20"
					},
					"t_array(t_address)dyn_storage": {
						"base": "t_address",
						"encoding": "dynamic_array",
						"label": "address[]",
						"numberOfBytes": "32"
					},
					"t_bool": {
						"encoding": "inplace",
						"label": "bool",
						"numberOfBytes": "1"
					},
					"t_bytes32": {
						"encoding": "inplace",
						"label": "bytes32",
						"numberOfBytes": "32"
					},
					"t_mapping(t_address,t_bytes32)": {
						"encoding": "mapping",
						"key": "t_address",
						"label": "mapping(address => bytes32)",
						"numberOfBytes": "32",
						"value": "t_bytes32"
					},
					"t_mapping(t_address,t_uint256)": {
						"encoding": "mapping",
						"key": "t_address",
						"label": "mapping(address => uint256)",
						"numberOfBytes": "32",
						"value": "t_uint256"
					},
					"t_uint256": {
						"encoding": "inplace",
						"label": "uint256",
						"numberOfBytes": "32"
					}
				}
			},
			"userdoc": {
				"kind": "user",
				"methods": {},
				"version": 1
			}
		}
	}
}