{
	"Taxpayer.sol": {
		"Taxpayer": {
			"abi": [
				{
					"inputs": [
						{
							"internalType": "address",
							"name": "p1",
							"type": "address"
						},
						{
							"internalType": "address",
							"name": "p2",
							"type": "address"
						}
					],
					"stateMutability": "nonpayable",
					"type": "constructor"
				},
				{
					"anonymous": false,
					"inputs": [
						{
							"indexed": true,
							"internalType": "address",
							"name": "a",
							"type": "address"
						},
						{
							"indexed": true,
							"internalType": "address",
							"name": "b",
							"type": "address"
						}
					],
					"name": "Married",
					"type": "event"
				},
				{
					"inputs": [
						{
							"internalType": "uint256",
							"name": "value",
							"type": "uint256"
						}
					],
					"name": "calculateTax",
					"outputs": [
						{
							"internalType": "uint256",
							"name": "",
							"type": "uint256"
						}
					],
					"stateMutability": "view",
					"type": "function"
				},
				{
					"inputs": [],
					"name": "divorce",
					"outputs": [],
					"stateMutability": "nonpayable",
					"type": "function"
				},
				{
					"inputs": [],
					"name": "echidna_age_allowance_base_consistency_single",
					"outputs": [
						{
							"internalType": "bool",
							"name": "",
							"type": "bool"
						}
					],
					"stateMutability": "view",
					"type": "function"
				},
				{
					"inputs": [
						{
							"internalType": "address",
							"name": "lot",
							"type": "address"
						}
					],
					"name": "echidna_commit_consistency",
					"outputs": [
						{
							"internalType": "bool",
							"name": "",
							"type": "bool"
						}
					],
					"stateMutability": "view",
					"type": "function"
				},
				{
					"inputs": [],
					"name": "echidna_iscontract_is_true",
					"outputs": [
						{
							"internalType": "bool",
							"name": "",
							"type": "bool"
						}
					],
					"stateMutability": "view",
					"type": "function"
				},
				{
					"inputs": [],
					"name": "echidna_marriage_consistency",
					"outputs": [
						{
							"internalType": "bool",
							"name": "",
							"type": "bool"
						}
					],
					"stateMutability": "view",
					"type": "function"
				},
				{
					"inputs": [],
					"name": "echidna_mutual_marriage_and_flags",
					"outputs": [
						{
							"internalType": "bool",
							"name": "",
							"type": "bool"
						}
					],
					"stateMutability": "view",
					"type": "function"
				},
				{
					"inputs": [],
					"name": "echidna_no_tax_below_allowance",
					"outputs": [
						{
							"internalType": "bool",
							"name": "",
							"type": "bool"
						}
					],
					"stateMutability": "view",
					"type": "function"
				},
				{
					"inputs": [],
					"name": "echidna_not_self_spouse",
					"outputs": [
						{
							"internalType": "bool",
							"name": "",
							"type": "bool"
						}
					],
					"stateMutability": "view",
					"type": "function"
				},
				{
					"inputs": [],
					"name": "echidna_rev_reset_after_reveal",
					"outputs": [
						{
							"internalType": "bool",
							"name": "",
							"type": "bool"
						}
					],
					"stateMutability": "view",
					"type": "function"
				},
				{
					"inputs": [],
					"name": "echidna_spousal_allowance_sum_constant",
					"outputs": [
						{
							"internalType": "bool",
							"name": "",
							"type": "bool"
						}
					],
					"stateMutability": "view",
					"type": "function"
				},
				{
					"inputs": [],
					"name": "echidna_taxable_non_negative",
					"outputs": [
						{
							"internalType": "bool",
							"name": "",
							"type": "bool"
						}
					],
					"stateMutability": "view",
					"type": "function"
				},
				{
					"inputs": [],
					"name": "getAge",
					"outputs": [
						{
							"internalType": "uint256",
							"name": "",
							"type": "uint256"
						}
					],
					"stateMutability": "view",
					"type": "function"
				},
				{
					"inputs": [],
					"name": "getDefaultAllowance",
					"outputs": [
						{
							"internalType": "uint256",
							"name": "",
							"type": "uint256"
						}
					],
					"stateMutability": "view",
					"type": "function"
				},
				{
					"inputs": [],
					"name": "getInitialTaxAllowance",
					"outputs": [
						{
							"internalType": "uint256",
							"name": "",
							"type": "uint256"
						}
					],
					"stateMutability": "view",
					"type": "function"
				},
				{
					"inputs": [],
					"name": "getIsMarried",
					"outputs": [
						{
							"internalType": "bool",
							"name": "",
							"type": "bool"
						}
					],
					"stateMutability": "view",
					"type": "function"
				},
				{
					"inputs": [],
					"name": "getSpouse",
					"outputs": [
						{
							"internalType": "address",
							"name": "",
							"type": "address"
						}
					],
					"stateMutability": "view",
					"type": "function"
				},
				{
					"inputs": [],
					"name": "getTaxAllowance",
					"outputs": [
						{
							"internalType": "uint256",
							"name": "",
							"type": "uint256"
						}
					],
					"stateMutability": "view",
					"type": "function"
				},
				{
					"inputs": [],
					"name": "haveBirthday",
					"outputs": [],
					"stateMutability": "nonpayable",
					"type": "function"
				},
				{
					"inputs": [],
					"name": "isContract",
					"outputs": [
						{
							"internalType": "bool",
							"name": "",
							"type": "bool"
						}
					],
					"stateMutability": "view",
					"type": "function"
				},
				{
					"inputs": [
						{
							"internalType": "address",
							"name": "lot",
							"type": "address"
						},
						{
							"internalType": "uint256",
							"name": "r",
							"type": "uint256"
						}
					],
					"name": "joinLottery",
					"outputs": [],
					"stateMutability": "nonpayable",
					"type": "function"
				},
				{
					"inputs": [
						{
							"internalType": "address",
							"name": "new_spouse",
							"type": "address"
						}
					],
					"name": "marry",
					"outputs": [],
					"stateMutability": "nonpayable",
					"type": "function"
				},
				{
					"inputs": [
						{
							"internalType": "address",
							"name": "p",
							"type": "address"
						}
					],
					"name": "notifyDivorceFromPartner",
					"outputs": [],
					"stateMutability": "nonpayable",
					"type": "function"
				},
				{
					"inputs": [],
					"name": "owner",
					"outputs": [
						{
							"internalType": "address",
							"name": "",
							"type": "address"
						}
					],
					"stateMutability": "view",
					"type": "function"
				},
				{
					"inputs": [
						{
							"internalType": "uint256",
							"name": "amount",
							"type": "uint256"
						},
						{
							"internalType": "address",
							"name": "from",
							"type": "address"
						}
					],
					"name": "receiveAllowance",
					"outputs": [],
					"stateMutability": "nonpayable",
					"type": "function"
				},
				{
					"inputs": [
						{
							"internalType": "address",
							"name": "lot",
							"type": "address"
						},
						{
							"internalType": "uint256",
							"name": "r",
							"type": "uint256"
						}
					],
					"name": "revealLottery",
					"outputs": [],
					"stateMutability": "nonpayable",
					"type": "function"
				},
				{
					"inputs": [
						{
							"internalType": "uint256",
							"name": "_income",
							"type": "uint256"
						}
					],
					"name": "setIncome",
					"outputs": [],
					"stateMutability": "nonpayable",
					"type": "function"
				},
				{
					"inputs": [
						{
							"internalType": "address",
							"name": "a",
							"type": "address"
						}
					],
					"name": "setSpouse",
					"outputs": [],
					"stateMutability": "nonpayable",
					"type": "function"
				},
				{
					"inputs": [
						{
							"internalType": "uint256",
							"name": "ta",
							"type": "uint256"
						}
					],
					"name": "setTaxAllowance",
					"outputs": [],
					"stateMutability": "nonpayable",
					"type": "function"
				},
				{
					"inputs": [
						{
							"internalType": "uint256",
							"name": "ta",
							"type": "uint256"
						}
					],
					"name": "setTaxAllowanceBySpouse",
					"outputs": [],
					"stateMutability": "nonpayable",
					"type": "function"
				},
				{
					"inputs": [],
					"name": "taxableIncome",
					"outputs": [
						{
							"internalType": "uint256",
							"name": "",
							"type": "uint256"
						}
					],
					"stateMutability": "view",
					"type": "function"
				},
				{
					"inputs": [
						{
							"internalType": "uint256",
							"name": "change",
							"type": "uint256"
						}
					],
					"name": "transferAllowance",
					"outputs": [],
					"stateMutability": "nonpayable",
					"type": "function"
				},
				{
					"inputs": [
						{
							"internalType": "address",
							"name": "partner",
							"type": "address"
						}
					],
					"name": "updateMarriageFromPartner",
					"outputs": [],
					"stateMutability": "nonpayable",
					"type": "function"
				}
			],
			"devdoc": {
				"kind": "dev",
				"methods": {},
				"version": 1
			},
			"evm": {
				"assembly": "    /* \"Taxpayer.sol\":49:12383  contract Taxpayer {... */\n  mstore(0x40, 0xc0)\n    /* \"Taxpayer.sol\":1384:1771  constructor(address p1, address p2) {... */\n  callvalue\n  dup1\n  iszero\n  tag_1\n  jumpi\n  revert(0x00, 0x00)\ntag_1:\n  pop\n  mload(0x40)\n  sub(codesize, bytecodeSize)\n  dup1\n  bytecodeSize\n  dup4\n  codecopy\n  dup2\n  dup2\n  add\n  0x40\n  mstore\n  dup2\n  add\n  swap1\n  tag_2\n  swap2\n  swap1\n  tag_3\n  jump\t// in\ntag_2:\n    /* \"Taxpayer.sol\":1431:1432  0 */\n  0x00\n    /* \"Taxpayer.sol\":1425:1428  age */\n  0x00\n    /* \"Taxpayer.sol\":1425:1432  age = 0 */\n  dup2\n  swap1\n  sstore\n  pop\n    /* \"Taxpayer.sol\":1449:1454  false */\n  0x00\n    /* \"Taxpayer.sol\":1437:1446  isMarried */\n  0x01\n  0x00\n    /* \"Taxpayer.sol\":1437:1454  isMarried = false */\n  0x0100\n  exp\n  dup2\n  sload\n  dup2\n  0xff\n  mul\n  not\n  and\n  swap1\n  dup4\n  iszero\n  iszero\n  mul\n  or\n  swap1\n  sstore\n  pop\n    /* \"Taxpayer.sol\":1469:1471  p1 */\n  dup2\n    /* \"Taxpayer.sol\":1459:1466  parent1 */\n  0x02\n  0x00\n    /* \"Taxpayer.sol\":1459:1471  parent1 = p1 */\n  0x0100\n  exp\n  dup2\n  sload\n  dup2\n  0xffffffffffffffffffffffffffffffffffffffff\n  mul\n  not\n  and\n  swap1\n  dup4\n  0xffffffffffffffffffffffffffffffffffffffff\n  and\n  mul\n  or\n  swap1\n  sstore\n  pop\n    /* \"Taxpayer.sol\":1486:1488  p2 */\n  dup1\n    /* \"Taxpayer.sol\":1476:1483  parent2 */\n  0x03\n  0x00\n    /* \"Taxpayer.sol\":1476:1488  parent2 = p2 */\n  0x0100\n  exp\n  dup2\n  sload\n  dup2\n  0xffffffffffffffffffffffffffffffffffffffff\n  mul\n  not\n  and\n  swap1\n  dup4\n  0xffffffffffffffffffffffffffffffffffffffff\n  and\n  mul\n  or\n  swap1\n  sstore\n  pop\n    /* \"Taxpayer.sol\":1501:1511  msg.sender */\n  caller\n    /* \"Taxpayer.sol\":1493:1511  owner = msg.sender */\n  0xffffffffffffffffffffffffffffffffffffffff\n  and\n  0x80\n  dup2\n  0xffffffffffffffffffffffffffffffffffffffff\n  and\n  dup2\n  mstore\n  pop\n  pop\n    /* \"Taxpayer.sol\":398:402  5000 */\n  0x1388\n    /* \"Taxpayer.sol\":1541:1582  INITIAL_TAX_ALLOWANCE = DEFAULT_ALLOWANCE */\n  0xa0\n  dup2\n  dup2\n  mstore\n  pop\n  pop\n    /* \"Taxpayer.sol\":1641:1642  0 */\n  0x00\n    /* \"Taxpayer.sol\":1624:1630  spouse */\n  0x01\n  0x02\n    /* \"Taxpayer.sol\":1624:1643  spouse = address(0) */\n  0x0100\n  exp\n  dup2\n  sload\n  dup2\n  0xffffffffffffffffffffffffffffffffffffffff\n  mul\n  not\n  and\n  swap1\n  dup4\n  0xffffffffffffffffffffffffffffffffffffffff\n  and\n  mul\n  or\n  swap1\n  sstore\n  pop\n    /* \"Taxpayer.sol\":1657:1658  0 */\n  0x00\n    /* \"Taxpayer.sol\":1648:1654  income */\n  0x05\n    /* \"Taxpayer.sol\":1648:1658  income = 0 */\n  dup2\n  swap1\n  sstore\n  pop\n    /* \"Taxpayer.sol\":1679:1700  INITIAL_TAX_ALLOWANCE */\n  mload(0xa0)\n    /* \"Taxpayer.sol\":1663:1676  tax_allowance */\n  0x04\n    /* \"Taxpayer.sol\":1663:1700  tax_allowance = INITIAL_TAX_ALLOWANCE */\n  dup2\n  swap1\n  sstore\n  pop\n    /* \"Taxpayer.sol\":1718:1722  true */\n  0x01\n    /* \"Taxpayer.sol\":1705:1715  iscontract */\n  dup1\n  0x01\n    /* \"Taxpayer.sol\":1705:1722  iscontract = true */\n  0x0100\n  exp\n  dup2\n  sload\n  dup2\n  0xff\n  mul\n  not\n  and\n  swap1\n  dup4\n  iszero\n  iszero\n  mul\n  or\n  swap1\n  sstore\n  pop\n    /* \"Taxpayer.sol\":1384:1771  constructor(address p1, address p2) {... */\n  pop\n  pop\n    /* \"Taxpayer.sol\":49:12383  contract Taxpayer {... */\n  jump(tag_6)\n    /* \"#utility.yul\":88:205   */\ntag_8:\n    /* \"#utility.yul\":197:198   */\n  0x00\n    /* \"#utility.yul\":194:195   */\n  0x00\n    /* \"#utility.yul\":187:199   */\n  revert\n    /* \"#utility.yul\":334:460   */\ntag_10:\n    /* \"#utility.yul\":371:378   */\n  0x00\n    /* \"#utility.yul\":411:453   */\n  0xffffffffffffffffffffffffffffffffffffffff\n    /* \"#utility.yul\":404:409   */\n  dup3\n    /* \"#utility.yul\":400:454   */\n  and\n    /* \"#utility.yul\":389:454   */\n  swap1\n  pop\n    /* \"#utility.yul\":334:460   */\n  swap2\n  swap1\n  pop\n  jump\t// out\n    /* \"#utility.yul\":466:562   */\ntag_11:\n    /* \"#utility.yul\":503:510   */\n  0x00\n    /* \"#utility.yul\":532:556   */\n  tag_20\n    /* \"#utility.yul\":550:555   */\n  dup3\n    /* \"#utility.yul\":532:556   */\n  tag_10\n  jump\t// in\ntag_20:\n    /* \"#utility.yul\":521:556   */\n  swap1\n  pop\n    /* \"#utility.yul\":466:562   */\n  swap2\n  swap1\n  pop\n  jump\t// out\n    /* \"#utility.yul\":568:690   */\ntag_12:\n    /* \"#utility.yul\":641:665   */\n  tag_22\n    /* \"#utility.yul\":659:664   */\n  dup2\n    /* \"#utility.yul\":641:665   */\n  tag_11\n  jump\t// in\ntag_22:\n    /* \"#utility.yul\":634:639   */\n  dup2\n    /* \"#utility.yul\":631:666   */\n  eq\n    /* \"#utility.yul\":621:684   */\n  tag_23\n  jumpi\n    /* \"#utility.yul\":680:681   */\n  0x00\n    /* \"#utility.yul\":677:678   */\n  0x00\n    /* \"#utility.yul\":670:682   */\n  revert\n    /* \"#utility.yul\":621:684   */\ntag_23:\n    /* \"#utility.yul\":568:690   */\n  pop\n  jump\t// out\n    /* \"#utility.yul\":696:839   */\ntag_13:\n    /* \"#utility.yul\":753:758   */\n  0x00\n    /* \"#utility.yul\":784:790   */\n  dup2\n    /* \"#utility.yul\":778:791   */\n  mload\n    /* \"#utility.yul\":769:791   */\n  swap1\n  pop\n    /* \"#utility.yul\":800:833   */\n  tag_25\n    /* \"#utility.yul\":827:832   */\n  dup2\n    /* \"#utility.yul\":800:833   */\n  tag_12\n  jump\t// in\ntag_25:\n    /* \"#utility.yul\":696:839   */\n  swap3\n  swap2\n  pop\n  pop\n  jump\t// out\n    /* \"#utility.yul\":845:1352   */\ntag_3:\n    /* \"#utility.yul\":924:930   */\n  0x00\n    /* \"#utility.yul\":932:938   */\n  0x00\n    /* \"#utility.yul\":981:983   */\n  0x40\n    /* \"#utility.yul\":969:978   */\n  dup4\n    /* \"#utility.yul\":960:967   */\n  dup6\n    /* \"#utility.yul\":956:979   */\n  sub\n    /* \"#utility.yul\":952:984   */\n  slt\n    /* \"#utility.yul\":949:1068   */\n  iszero\n  tag_27\n  jumpi\n    /* \"#utility.yul\":987:1066   */\n  tag_28\n  tag_8\n  jump\t// in\ntag_28:\n    /* \"#utility.yul\":949:1068   */\ntag_27:\n    /* \"#utility.yul\":1107:1108   */\n  0x00\n    /* \"#utility.yul\":1132:1196   */\n  tag_29\n    /* \"#utility.yul\":1188:1195   */\n  dup6\n    /* \"#utility.yul\":1179:1185   */\n  dup3\n    /* \"#utility.yul\":1168:1177   */\n  dup7\n    /* \"#utility.yul\":1164:1186   */\n  add\n    /* \"#utility.yul\":1132:1196   */\n  tag_13\n  jump\t// in\ntag_29:\n    /* \"#utility.yul\":1122:1196   */\n  swap3\n  pop\n    /* \"#utility.yul\":1078:1206   */\n  pop\n    /* \"#utility.yul\":1245:1247   */\n  0x20\n    /* \"#utility.yul\":1271:1335   */\n  tag_30\n    /* \"#utility.yul\":1327:1334   */\n  dup6\n    /* \"#utility.yul\":1318:1324   */\n  dup3\n    /* \"#utility.yul\":1307:1316   */\n  dup7\n    /* \"#utility.yul\":1303:1325   */\n  add\n    /* \"#utility.yul\":1271:1335   */\n  tag_13\n  jump\t// in\ntag_30:\n    /* \"#utility.yul\":1261:1335   */\n  swap2\n  pop\n    /* \"#utility.yul\":1216:1345   */\n  pop\n    /* \"#utility.yul\":845:1352   */\n  swap3\n  pop\n  swap3\n  swap1\n  pop\n  jump\t// out\n    /* \"Taxpayer.sol\":49:12383  contract Taxpayer {... */\ntag_6:\n  mload(0x80)\n  mload(0xa0)\n  codecopy(0x00, dataOffset(sub_0), dataSize(sub_0))\n  0x00\n  assignImmutable(\"0xe54f8e4a5d17b2e4d97cb94ddb2a2b00b3620f93c06158e24f4515b3f1ad0dd8\")\n  0x00\n  assignImmutable(\"0x7d94b1fd5befe75fac04677148728067a5c7750c4535d59cf8d692301dae078c\")\n  return(0x00, dataSize(sub_0))\nstop\n\nsub_0: assembly {\n        /* \"Taxpayer.sol\":49:12383  contract Taxpayer {... */\n      mstore(0x40, 0x80)\n      callvalue\n      dup1\n      iszero\n      tag_1\n      jumpi\n      revert(0x00, 0x00)\n    tag_1:\n      pop\n      jumpi(tag_2, lt(calldatasize, 0x04))\n      shr(0xe0, calldataload(0x00))\n      dup1\n      0x6aa393f8\n      gt\n      tag_36\n      jumpi\n      dup1\n      0xc043decc\n      gt\n      tag_37\n      jumpi\n      dup1\n      0xd25d32b6\n      gt\n      tag_38\n      jumpi\n      dup1\n      0xd25d32b6\n      eq\n      tag_31\n      jumpi\n      dup1\n      0xd852545e\n      eq\n      tag_32\n      jumpi\n      dup1\n      0xdfb986a2\n      eq\n      tag_33\n      jumpi\n      dup1\n      0xdff44b2f\n      eq\n      tag_34\n      jumpi\n      dup1\n      0xf7ec2f35\n      eq\n      tag_35\n      jumpi\n      jump(tag_2)\n    tag_38:\n      dup1\n      0xc043decc\n      eq\n      tag_27\n      jumpi\n      dup1\n      0xc800409f\n      eq\n      tag_28\n      jumpi\n      dup1\n      0xcb01a92b\n      eq\n      tag_29\n      jumpi\n      dup1\n      0xccda832a\n      eq\n      tag_30\n      jumpi\n      jump(tag_2)\n    tag_37:\n      dup1\n      0x967e6e65\n      gt\n      tag_39\n      jumpi\n      dup1\n      0x967e6e65\n      eq\n      tag_23\n      jumpi\n      dup1\n      0xa2f1309e\n      eq\n      tag_24\n      jumpi\n      dup1\n      0xae81f068\n      eq\n      tag_25\n      jumpi\n      dup1\n      0xbccb358e\n      eq\n      tag_26\n      jumpi\n      jump(tag_2)\n    tag_39:\n      dup1\n      0x6aa393f8\n      eq\n      tag_19\n      jumpi\n      dup1\n      0x790aa8de\n      eq\n      tag_20\n      jumpi\n      dup1\n      0x8bc87745\n      eq\n      tag_21\n      jumpi\n      dup1\n      0x8da5cb5b\n      eq\n      tag_22\n      jumpi\n      jump(tag_2)\n    tag_36:\n      dup1\n      0x38fb27ba\n      gt\n      tag_40\n      jumpi\n      dup1\n      0x4f0b03f9\n      gt\n      tag_41\n      jumpi\n      dup1\n      0x4f0b03f9\n      eq\n      tag_15\n      jumpi\n      dup1\n      0x594db753\n      eq\n      tag_16\n      jumpi\n      dup1\n      0x5976d63b\n      eq\n      tag_17\n      jumpi\n      dup1\n      0x5f68c439\n      eq\n      tag_18\n      jumpi\n      jump(tag_2)\n    tag_41:\n      dup1\n      0x38fb27ba\n      eq\n      tag_11\n      jumpi\n      dup1\n      0x3c876c25\n      eq\n      tag_12\n      jumpi\n      dup1\n      0x483a9310\n      eq\n      tag_13\n      jumpi\n      dup1\n      0x4ad8a7ae\n      eq\n      tag_14\n      jumpi\n      jump(tag_2)\n    tag_40:\n      dup1\n      0x25803d64\n      gt\n      tag_42\n      jumpi\n      dup1\n      0x25803d64\n      eq\n      tag_7\n      jumpi\n      dup1\n      0x27a80e0d\n      eq\n      tag_8\n      jumpi\n      dup1\n      0x308f838a\n      eq\n      tag_9\n      jumpi\n      dup1\n      0x37f65b79\n      eq\n      tag_10\n      jumpi\n      jump(tag_2)\n    tag_42:\n      dup1\n      0x10731c65\n      eq\n      tag_3\n      jumpi\n      dup1\n      0x108ece4d\n      eq\n      tag_4\n      jumpi\n      dup1\n      0x13461762\n      eq\n      tag_5\n      jumpi\n      dup1\n      0x14b95631\n      eq\n      tag_6\n      jumpi\n    tag_2:\n      revert(0x00, 0x00)\n        /* \"Taxpayer.sol\":5364:6146  function echidna_mutual_marriage_and_flags() public view returns(bool) {... */\n    tag_3:\n      tag_43\n      tag_44\n      jump\t// in\n    tag_43:\n      mload(0x40)\n      tag_45\n      swap2\n      swap1\n      tag_46\n      jump\t// in\n    tag_45:\n      mload(0x40)\n      dup1\n      swap2\n      sub\n      swap1\n      return\n        /* \"Taxpayer.sol\":850:922  function getSpouse() public view returns(address) {... */\n    tag_4:\n      tag_47\n      tag_48\n      jump\t// in\n    tag_47:\n      mload(0x40)\n      tag_49\n      swap2\n      swap1\n      tag_50\n      jump\t// in\n    tag_49:\n      mload(0x40)\n      dup1\n      swap2\n      sub\n      swap1\n      return\n        /* \"Taxpayer.sol\":11675:11996  function revealLottery(address lot, uint256 r) public onlyOwner {... */\n    tag_5:\n      tag_51\n      0x04\n      dup1\n      calldatasize\n      sub\n      dup2\n      add\n      swap1\n      tag_52\n      swap2\n      swap1\n      tag_53\n      jump\t// in\n    tag_52:\n      tag_54\n      jump\t// in\n    tag_51:\n      stop\n        /* \"Taxpayer.sol\":1283:1356  function setIncome(uint _income) public onlyOwner {... */\n    tag_6:\n      tag_55\n      0x04\n      dup1\n      calldatasize\n      sub\n      dup2\n      add\n      swap1\n      tag_56\n      swap2\n      swap1\n      tag_57\n      jump\t// in\n    tag_56:\n      tag_58\n      jump\t// in\n    tag_55:\n      stop\n        /* \"Taxpayer.sol\":10435:10610  function setTaxAllowance(uint ta) public {... */\n    tag_7:\n      tag_59\n      0x04\n      dup1\n      calldatasize\n      sub\n      dup2\n      add\n      swap1\n      tag_60\n      swap2\n      swap1\n      tag_57\n      jump\t// in\n    tag_60:\n      tag_61\n      jump\t// in\n    tag_59:\n      stop\n        /* \"Taxpayer.sol\":5039:5253  function echidna_marriage_consistency() public view returns(bool) {... */\n    tag_8:\n      tag_62\n      tag_63\n      jump\t// in\n    tag_62:\n      mload(0x40)\n      tag_64\n      swap2\n      swap1\n      tag_46\n      jump\t// in\n    tag_64:\n      mload(0x40)\n      dup1\n      swap2\n      sub\n      swap1\n      return\n        /* \"Taxpayer.sol\":9934:10105  function receiveAllowance(uint amount, address from) public {... */\n    tag_9:\n      tag_65\n      0x04\n      dup1\n      calldatasize\n      sub\n      dup2\n      add\n      swap1\n      tag_66\n      swap2\n      swap1\n      tag_67\n      jump\t// in\n    tag_66:\n      tag_68\n      jump\t// in\n    tag_65:\n      stop\n        /* \"Taxpayer.sol\":10167:10430  function haveBirthday() public onlyOwner {... */\n    tag_10:\n      tag_69\n      tag_70\n      jump\t// in\n    tag_69:\n      stop\n        /* \"Taxpayer.sol\":4525:4757  function notifyDivorceFromPartner(address p) public {... */\n    tag_11:\n      tag_71\n      0x04\n      dup1\n      calldatasize\n      sub\n      dup2\n      add\n      swap1\n      tag_72\n      swap2\n      swap1\n      tag_73\n      jump\t// in\n    tag_72:\n      tag_74\n      jump\t// in\n    tag_71:\n      stop\n        /* \"Taxpayer.sol\":12073:12221  function taxableIncome() public view returns(uint) {... */\n    tag_12:\n      tag_75\n      tag_76\n      jump\t// in\n    tag_75:\n      mload(0x40)\n      tag_77\n      swap2\n      swap1\n      tag_78\n      jump\t// in\n    tag_77:\n      mload(0x40)\n      dup1\n      swap2\n      sub\n      swap1\n      return\n        /* \"Taxpayer.sol\":12250:12377  function calculateTax(uint value) public view returns (uint) {... */\n    tag_13:\n      tag_79\n      0x04\n      dup1\n      calldatasize\n      sub\n      dup2\n      add\n      swap1\n      tag_80\n      swap2\n      swap1\n      tag_57\n      jump\t// in\n    tag_80:\n      tag_81\n      jump\t// in\n    tag_79:\n      mload(0x40)\n      tag_82\n      swap2\n      swap1\n      tag_78\n      jump\t// in\n    tag_82:\n      mload(0x40)\n      dup1\n      swap2\n      sub\n      swap1\n      return\n        /* \"Taxpayer.sol\":11277:11669  function joinLottery(address lot, uint256 r) public onlyOwner {... */\n    tag_14:\n      tag_83\n      0x04\n      dup1\n      calldatasize\n      sub\n      dup2\n      add\n      swap1\n      tag_84\n      swap2\n      swap1\n      tag_53\n      jump\t// in\n    tag_84:\n      tag_85\n      jump\t// in\n    tag_83:\n      stop\n        /* \"Taxpayer.sol\":1227:1281  function setSpouse(address a) public {... */\n    tag_15:\n      tag_86\n      0x04\n      dup1\n      calldatasize\n      sub\n      dup2\n      add\n      swap1\n      tag_87\n      swap2\n      swap1\n      tag_73\n      jump\t// in\n    tag_87:\n      tag_88\n      jump\t// in\n    tag_86:\n      stop\n        /* \"Taxpayer.sol\":1053:1152  function getDefaultAllowance() public view returns (uint) {... */\n    tag_16:\n      tag_89\n      tag_90\n      jump\t// in\n    tag_89:\n      mload(0x40)\n      tag_91\n      swap2\n      swap1\n      tag_78\n      jump\t// in\n    tag_91:\n      mload(0x40)\n      dup1\n      swap2\n      sub\n      swap1\n      return\n        /* \"Taxpayer.sol\":6795:6888  function echidna_iscontract_is_true() public view returns (bool) {... */\n    tag_17:\n      tag_92\n      tag_93\n      jump\t// in\n    tag_92:\n      mload(0x40)\n      tag_94\n      swap2\n      swap1\n      tag_46\n      jump\t// in\n    tag_94:\n      mload(0x40)\n      dup1\n      swap2\n      sub\n      swap1\n      return\n        /* \"Taxpayer.sol\":9527:9930  function transferAllowance(uint change) public onlyOwner {... */\n    tag_18:\n      tag_95\n      0x04\n      dup1\n      calldatasize\n      sub\n      dup2\n      add\n      swap1\n      tag_96\n      swap2\n      swap1\n      tag_57\n      jump\t// in\n    tag_96:\n      tag_97\n      jump\t// in\n    tag_95:\n      stop\n        /* \"Taxpayer.sol\":925:1051  function getInitialTaxAllowance() public view returns (uint) {... */\n    tag_19:\n      tag_98\n      tag_99\n      jump\t// in\n    tag_98:\n      mload(0x40)\n      tag_100\n      swap2\n      swap1\n      tag_78\n      jump\t// in\n    tag_100:\n      mload(0x40)\n      dup1\n      swap2\n      sub\n      swap1\n      return\n        /* \"Taxpayer.sol\":8601:9129  function echidna_commit_consistency(address lot) public view returns (bool) {... */\n    tag_20:\n      tag_101\n      0x04\n      dup1\n      calldatasize\n      sub\n      dup2\n      add\n      swap1\n      tag_102\n      swap2\n      swap1\n      tag_73\n      jump\t// in\n    tag_102:\n      tag_103\n      jump\t// in\n    tag_101:\n      mload(0x40)\n      tag_104\n      swap2\n      swap1\n      tag_46\n      jump\t// in\n    tag_104:\n      mload(0x40)\n      dup1\n      swap2\n      sub\n      swap1\n      return\n        /* \"Taxpayer.sol\":773:848  function getIsMarried() public view returns(bool) {... */\n    tag_21:\n      tag_105\n      tag_106\n      jump\t// in\n    tag_105:\n      mload(0x40)\n      tag_107\n      swap2\n      swap1\n      tag_46\n      jump\t// in\n    tag_107:\n      mload(0x40)\n      dup1\n      swap2\n      sub\n      swap1\n      return\n        /* \"Taxpayer.sol\":249:280  address public  immutable owner */\n    tag_22:\n      tag_108\n      tag_109\n      jump\t// in\n    tag_108:\n      mload(0x40)\n      tag_110\n      swap2\n      swap1\n      tag_50\n      jump\t// in\n    tag_110:\n      mload(0x40)\n      dup1\n      swap2\n      sub\n      swap1\n      return\n        /* \"Taxpayer.sol\":1154:1216  function getAge() public view returns (uint) {... */\n    tag_23:\n      tag_111\n      tag_112\n      jump\t// in\n    tag_111:\n      mload(0x40)\n      tag_113\n      swap2\n      swap1\n      tag_78\n      jump\t// in\n    tag_113:\n      mload(0x40)\n      dup1\n      swap2\n      sub\n      swap1\n      return\n        /* \"Taxpayer.sol\":6497:6692  function echidna_no_tax_below_allowance() public view returns (bool) {... */\n    tag_24:\n      tag_114\n      tag_115\n      jump\t// in\n    tag_114:\n      mload(0x40)\n      tag_116\n      swap2\n      swap1\n      tag_46\n      jump\t// in\n    tag_116:\n      mload(0x40)\n      dup1\n      swap2\n      sub\n      swap1\n      return\n        /* \"Taxpayer.sol\":6972:7219  function echidna_age_allowance_base_consistency_single() public view returns (bool) {... */\n    tag_25:\n      tag_117\n      tag_118\n      jump\t// in\n    tag_117:\n      mload(0x40)\n      tag_119\n      swap2\n      swap1\n      tag_46\n      jump\t// in\n    tag_119:\n      mload(0x40)\n      dup1\n      swap2\n      sub\n      swap1\n      return\n        /* \"Taxpayer.sol\":2117:3705  function marry(address new_spouse) public onlyOwner {... */\n    tag_26:\n      tag_120\n      0x04\n      dup1\n      calldatasize\n      sub\n      dup2\n      add\n      swap1\n      tag_121\n      swap2\n      swap1\n      tag_73\n      jump\t// in\n    tag_121:\n      tag_122\n      jump\t// in\n    tag_120:\n      stop\n        /* \"Taxpayer.sol\":11107:11191  function getTaxAllowance() public view returns(uint) {... */\n    tag_27:\n      tag_123\n      tag_124\n      jump\t// in\n    tag_123:\n      mload(0x40)\n      tag_125\n      swap2\n      swap1\n      tag_78\n      jump\t// in\n    tag_125:\n      mload(0x40)\n      dup1\n      swap2\n      sub\n      swap1\n      return\n        /* \"Taxpayer.sol\":6361:6493  function echidna_taxable_non_negative() public view returns (bool) {... */\n    tag_28:\n      tag_126\n      tag_127\n      jump\t// in\n    tag_126:\n      mload(0x40)\n      tag_128\n      swap2\n      swap1\n      tag_46\n      jump\t// in\n    tag_128:\n      mload(0x40)\n      dup1\n      swap2\n      sub\n      swap1\n      return\n        /* \"Taxpayer.sol\":3758:3934  function updateMarriageFromPartner(address partner) public {... */\n    tag_29:\n      tag_129\n      0x04\n      dup1\n      calldatasize\n      sub\n      dup2\n      add\n      swap1\n      tag_130\n      swap2\n      swap1\n      tag_73\n      jump\t// in\n    tag_130:\n      tag_131\n      jump\t// in\n    tag_129:\n      stop\n        /* \"Taxpayer.sol\":9204:9470  function echidna_rev_reset_after_reveal() public view returns(bool) {... */\n    tag_30:\n      tag_132\n      tag_133\n      jump\t// in\n    tag_132:\n      mload(0x40)\n      tag_134\n      swap2\n      swap1\n      tag_46\n      jump\t// in\n    tag_134:\n      mload(0x40)\n      dup1\n      swap2\n      sub\n      swap1\n      return\n        /* \"Taxpayer.sol\":4827:4957  function setTaxAllowanceBySpouse(uint ta) public {... */\n    tag_31:\n      tag_135\n      0x04\n      dup1\n      calldatasize\n      sub\n      dup2\n      add\n      swap1\n      tag_136\n      swap2\n      swap1\n      tag_57\n      jump\t// in\n    tag_136:\n      tag_137\n      jump\t// in\n    tag_135:\n      stop\n        /* \"Taxpayer.sol\":7293:8544  function echidna_spousal_allowance_sum_constant() public view returns (bool) {... */\n    tag_32:\n      tag_138\n      tag_139\n      jump\t// in\n    tag_138:\n      mload(0x40)\n      tag_140\n      swap2\n      swap1\n      tag_46\n      jump\t// in\n    tag_140:\n      mload(0x40)\n      dup1\n      swap2\n      sub\n      swap1\n      return\n        /* \"Taxpayer.sol\":6198:6301  function echidna_not_self_spouse() public view returns (bool) {... */\n    tag_33:\n      tag_141\n      tag_142\n      jump\t// in\n    tag_141:\n      mload(0x40)\n      tag_143\n      swap2\n      swap1\n      tag_46\n      jump\t// in\n    tag_143:\n      mload(0x40)\n      dup1\n      swap2\n      sub\n      swap1\n      return\n        /* \"Taxpayer.sol\":3939:4522  function divorce() public onlyOwner {... */\n    tag_34:\n      tag_144\n      tag_145\n      jump\t// in\n    tag_144:\n      stop\n        /* \"Taxpayer.sol\":11196:11271  function isContract() public view returns(bool){... */\n    tag_35:\n      tag_146\n      tag_147\n      jump\t// in\n    tag_146:\n      mload(0x40)\n      tag_148\n      swap2\n      swap1\n      tag_46\n      jump\t// in\n    tag_148:\n      mload(0x40)\n      dup1\n      swap2\n      sub\n      swap1\n      return\n        /* \"Taxpayer.sol\":5364:6146  function echidna_mutual_marriage_and_flags() public view returns(bool) {... */\n    tag_44:\n        /* \"Taxpayer.sol\":5429:5433  bool */\n      0x00\n        /* \"Taxpayer.sol\":5462:5463  0 */\n      0x00\n        /* \"Taxpayer.sol\":5444:5464  spouse == address(0) */\n      0xffffffffffffffffffffffffffffffffffffffff\n      and\n        /* \"Taxpayer.sol\":5444:5450  spouse */\n      0x01\n      0x02\n      swap1\n      sload\n      swap1\n      0x0100\n      exp\n      swap1\n      div\n      0xffffffffffffffffffffffffffffffffffffffff\n      and\n        /* \"Taxpayer.sol\":5444:5464  spouse == address(0) */\n      0xffffffffffffffffffffffffffffffffffffffff\n      and\n      sub\n        /* \"Taxpayer.sol\":5441:5571  if(spouse == address(0)) {... */\n      tag_150\n      jumpi\n        /* \"Taxpayer.sol\":5555:5564  isMarried */\n      0x01\n      0x00\n      swap1\n      sload\n      swap1\n      0x0100\n      exp\n      swap1\n      div\n      0xff\n      and\n        /* \"Taxpayer.sol\":5554:5564  !isMarried */\n      iszero\n        /* \"Taxpayer.sol\":5547:5564  return !isMarried */\n      swap1\n      pop\n      jump(tag_149)\n        /* \"Taxpayer.sol\":5441:5571  if(spouse == address(0)) {... */\n    tag_150:\n        /* \"Taxpayer.sol\":5614:5623  isMarried */\n      0x01\n      0x00\n      swap1\n      sload\n      swap1\n      0x0100\n      exp\n      swap1\n      div\n      0xff\n      and\n        /* \"Taxpayer.sol\":5610:5652  if(!isMarried) {... */\n      tag_151\n      jumpi\n        /* \"Taxpayer.sol\":5640:5645  false */\n      0x00\n        /* \"Taxpayer.sol\":5633:5645  return false */\n      swap1\n      pop\n      jump(tag_149)\n        /* \"Taxpayer.sol\":5610:5652  if(!isMarried) {... */\n    tag_151:\n        /* \"Taxpayer.sol\":5731:5747  Taxpayer partner */\n      0x00\n        /* \"Taxpayer.sol\":5759:5765  spouse */\n      0x01\n      0x02\n      swap1\n      sload\n      swap1\n      0x0100\n      exp\n      swap1\n      div\n      0xffffffffffffffffffffffffffffffffffffffff\n      and\n        /* \"Taxpayer.sol\":5731:5766  Taxpayer partner = Taxpayer(spouse) */\n      swap1\n      pop\n        /* \"Taxpayer.sol\":5842:5849  partner */\n      dup1\n        /* \"Taxpayer.sol\":5842:5859  partner.getSpouse */\n      0xffffffffffffffffffffffffffffffffffffffff\n      and\n      0x108ece4d\n        /* \"Taxpayer.sol\":5842:5861  partner.getSpouse() */\n      mload(0x40)\n      dup2\n      0xffffffff\n      and\n      0xe0\n      shl\n      dup2\n      mstore\n      0x04\n      add\n      0x20\n      mload(0x40)\n      dup1\n      dup4\n      sub\n      dup2\n      dup7\n      gas\n      staticcall\n      swap3\n      pop\n      pop\n      pop\n      dup1\n      iszero\n      tag_152\n      jumpi\n      pop\n      mload(0x40)\n      returndatasize\n      not(0x1f)\n      0x1f\n      dup3\n      add\n      and\n      dup3\n      add\n      dup1\n      0x40\n      mstore\n      pop\n      dup2\n      add\n      swap1\n      tag_153\n      swap2\n      swap1\n      tag_154\n      jump\t// in\n    tag_153:\n      0x01\n    tag_152:\n        /* \"Taxpayer.sol\":5838:5986  try partner.getSpouse() returns (address ps) {... */\n      tag_155\n      jumpi\n        /* \"Taxpayer.sol\":5974:5979  false */\n      0x00\n        /* \"Taxpayer.sol\":5967:5979  return false */\n      swap2\n      pop\n      pop\n      jump(tag_149)\n        /* \"Taxpayer.sol\":5838:5986  try partner.getSpouse() returns (address ps) {... */\n    tag_155:\n        /* \"Taxpayer.sol\":5908:5912  this */\n      address\n        /* \"Taxpayer.sol\":5894:5913  ps != address(this) */\n      0xffffffffffffffffffffffffffffffffffffffff\n      and\n        /* \"Taxpayer.sol\":5894:5896  ps */\n      dup2\n        /* \"Taxpayer.sol\":5894:5913  ps != address(this) */\n      0xffffffffffffffffffffffffffffffffffffffff\n      and\n      eq\n        /* \"Taxpayer.sol\":5891:5946  if(ps != address(this)) {... */\n      tag_160\n      jumpi\n        /* \"Taxpayer.sol\":5932:5937  false */\n      0x00\n        /* \"Taxpayer.sol\":5925:5937  return false */\n      swap3\n      pop\n      pop\n      pop\n      jump(tag_149)\n        /* \"Taxpayer.sol\":5891:5946  if(ps != address(this)) {... */\n    tag_160:\n        /* \"Taxpayer.sol\":5862:5952  returns (address ps) {... */\n      pop\n        /* \"Taxpayer.sol\":5996:6003  partner */\n      dup1\n        /* \"Taxpayer.sol\":5996:6016  partner.getIsMarried */\n      0xffffffffffffffffffffffffffffffffffffffff\n      and\n      0x8bc87745\n        /* \"Taxpayer.sol\":5996:6018  partner.getIsMarried() */\n      mload(0x40)\n      dup2\n      0xffffffff\n      and\n      0xe0\n      shl\n      dup2\n      mstore\n      0x04\n      add\n      0x20\n      mload(0x40)\n      dup1\n      dup4\n      sub\n      dup2\n      dup7\n      gas\n      staticcall\n      swap3\n      pop\n      pop\n      pop\n      dup1\n      iszero\n      tag_161\n      jumpi\n      pop\n      mload(0x40)\n      returndatasize\n      not(0x1f)\n      0x1f\n      dup3\n      add\n      and\n      dup3\n      add\n      dup1\n      0x40\n      mstore\n      pop\n      dup2\n      add\n      swap1\n      tag_162\n      swap2\n      swap1\n      tag_163\n      jump\t// in\n    tag_162:\n      0x01\n    tag_161:\n        /* \"Taxpayer.sol\":5992:6124  try partner.getIsMarried() returns (bool pm) {... */\n      tag_164\n      jumpi\n        /* \"Taxpayer.sol\":6112:6117  false */\n      0x00\n        /* \"Taxpayer.sol\":6105:6117  return false */\n      swap2\n      pop\n      pop\n      jump(tag_149)\n        /* \"Taxpayer.sol\":5992:6124  try partner.getIsMarried() returns (bool pm) {... */\n    tag_164:\n        /* \"Taxpayer.sol\":6049:6051  pm */\n      dup1\n        /* \"Taxpayer.sol\":6045:6084  if(!pm) {... */\n      tag_169\n      jumpi\n        /* \"Taxpayer.sol\":6070:6075  false */\n      0x00\n        /* \"Taxpayer.sol\":6063:6075  return false */\n      swap3\n      pop\n      pop\n      pop\n      jump(tag_149)\n        /* \"Taxpayer.sol\":6045:6084  if(!pm) {... */\n    tag_169:\n        /* \"Taxpayer.sol\":6019:6090  returns (bool pm) {... */\n      pop\n        /* \"Taxpayer.sol\":6137:6141  true */\n      0x01\n        /* \"Taxpayer.sol\":6130:6141  return true */\n      swap2\n      pop\n      pop\n        /* \"Taxpayer.sol\":5364:6146  function echidna_mutual_marriage_and_flags() public view returns(bool) {... */\n    tag_149:\n      swap1\n      jump\t// out\n        /* \"Taxpayer.sol\":850:922  function getSpouse() public view returns(address) {... */\n    tag_48:\n        /* \"Taxpayer.sol\":891:898  address */\n      0x00\n        /* \"Taxpayer.sol\":913:919  spouse */\n      0x01\n      0x02\n      swap1\n      sload\n      swap1\n      0x0100\n      exp\n      swap1\n      div\n      0xffffffffffffffffffffffffffffffffffffffff\n      and\n        /* \"Taxpayer.sol\":906:919  return spouse */\n      swap1\n      pop\n        /* \"Taxpayer.sol\":850:922  function getSpouse() public view returns(address) {... */\n      swap1\n      jump\t// out\n        /* \"Taxpayer.sol\":11675:11996  function revealLottery(address lot, uint256 r) public onlyOwner {... */\n    tag_54:\n        /* \"Taxpayer.sol\":2003:2008  owner */\n      immutable(\"0x7d94b1fd5befe75fac04677148728067a5c7750c4535d59cf8d692301dae078c\")\n        /* \"Taxpayer.sol\":1989:2008  msg.sender == owner */\n      0xffffffffffffffffffffffffffffffffffffffff\n      and\n        /* \"Taxpayer.sol\":1989:1999  msg.sender */\n      caller\n        /* \"Taxpayer.sol\":1989:2008  msg.sender == owner */\n      0xffffffffffffffffffffffffffffffffffffffff\n      and\n      eq\n        /* \"Taxpayer.sol\":1981:2023  require(msg.sender == owner, \"Only owner\") */\n      tag_172\n      jumpi\n      mload(0x40)\n      0x08c379a000000000000000000000000000000000000000000000000000000000\n      dup2\n      mstore\n      0x04\n      add\n      tag_173\n      swap1\n      tag_174\n      jump\t// in\n    tag_173:\n      mload(0x40)\n      dup1\n      swap2\n      sub\n      swap1\n      revert\n    tag_172:\n        /* \"Taxpayer.sol\":11768:11769  0 */\n      0x00\n        /* \"Taxpayer.sol\":11753:11770  lot != address(0) */\n      0xffffffffffffffffffffffffffffffffffffffff\n      and\n        /* \"Taxpayer.sol\":11753:11756  lot */\n      dup3\n        /* \"Taxpayer.sol\":11753:11770  lot != address(0) */\n      0xffffffffffffffffffffffffffffffffffffffff\n      and\n      sub\n        /* \"Taxpayer.sol\":11745:11791  require(lot != address(0), \"Invalid lotterry\") */\n      tag_176\n      jumpi\n      mload(0x40)\n      0x08c379a000000000000000000000000000000000000000000000000000000000\n      dup2\n      mstore\n      0x04\n      add\n      tag_177\n      swap1\n      tag_178\n      jump\t// in\n    tag_177:\n      mload(0x40)\n      dup1\n      swap2\n      sub\n      swap1\n      revert\n    tag_176:\n        /* \"Taxpayer.sol\":11812:11813  0 */\n      0x00\n        /* \"Taxpayer.sol\":11805:11808  rev */\n      sload(0x06)\n        /* \"Taxpayer.sol\":11805:11813  rev != 0 */\n      sub\n        /* \"Taxpayer.sol\":11797:11837  require(rev != 0, \"No committed reveal\") */\n      tag_179\n      jumpi\n      mload(0x40)\n      0x08c379a000000000000000000000000000000000000000000000000000000000\n      dup2\n      mstore\n      0x04\n      add\n      tag_180\n      swap1\n      tag_181\n      jump\t// in\n    tag_180:\n      mload(0x40)\n      dup1\n      swap2\n      sub\n      swap1\n      revert\n    tag_179:\n        /* \"Taxpayer.sol\":11856:11859  lot */\n      dup2\n        /* \"Taxpayer.sol\":11848:11867  Lottery(lot).reveal */\n      0xffffffffffffffffffffffffffffffffffffffff\n      and\n      0xc2ca0ac5\n        /* \"Taxpayer.sol\":11868:11869  r */\n      dup3\n        /* \"Taxpayer.sol\":11848:11870  Lottery(lot).reveal(r) */\n      mload(0x40)\n      dup3\n      0xffffffff\n      and\n      0xe0\n      shl\n      dup2\n      mstore\n      0x04\n      add\n      tag_182\n      swap2\n      swap1\n      tag_78\n      jump\t// in\n    tag_182:\n      0x00\n      mload(0x40)\n      dup1\n      dup4\n      sub\n      dup2\n      0x00\n      dup8\n      dup1\n      extcodesize\n      iszero\n      dup1\n      iszero\n      tag_183\n      jumpi\n      revert(0x00, 0x00)\n    tag_183:\n      pop\n      gas\n      call\n      swap3\n      pop\n      pop\n      pop\n      dup1\n      iszero\n      tag_184\n      jumpi\n      pop\n      0x01\n    tag_184:\n        /* \"Taxpayer.sol\":11844:11992  try Lottery(lot).reveal(r) {... */\n      tag_185\n      jumpi\n        /* \"Taxpayer.sol\":11954:11985  revert(\"Lottery reveal failed\") */\n      mload(0x40)\n      0x08c379a000000000000000000000000000000000000000000000000000000000\n      dup2\n      mstore\n      0x04\n      add\n      tag_189\n      swap1\n      tag_190\n      jump\t// in\n    tag_189:\n      mload(0x40)\n      dup1\n      swap2\n      sub\n      swap1\n      revert\n        /* \"Taxpayer.sol\":11844:11992  try Lottery(lot).reveal(r) {... */\n    tag_185:\n        /* \"Taxpayer.sol\":11885:11886  0 */\n      0x00\n        /* \"Taxpayer.sol\":11879:11882  rev */\n      0x06\n        /* \"Taxpayer.sol\":11879:11886  rev = 0 */\n      dup2\n      swap1\n      sstore\n      pop\n        /* \"Taxpayer.sol\":11906:11911  false */\n      0x00\n        /* \"Taxpayer.sol\":11894:11903  committed */\n      0x07\n      0x00\n        /* \"Taxpayer.sol\":11894:11911  committed = false */\n      0x0100\n      exp\n      dup2\n      sload\n      dup2\n      0xff\n      mul\n      not\n      and\n      swap1\n      dup4\n      iszero\n      iszero\n      mul\n      or\n      swap1\n      sstore\n      pop\n        /* \"Taxpayer.sol\":11675:11996  function revealLottery(address lot, uint256 r) public onlyOwner {... */\n      pop\n      pop\n      jump\t// out\n        /* \"Taxpayer.sol\":1283:1356  function setIncome(uint _income) public onlyOwner {... */\n    tag_58:\n        /* \"Taxpayer.sol\":2003:2008  owner */\n      immutable(\"0x7d94b1fd5befe75fac04677148728067a5c7750c4535d59cf8d692301dae078c\")\n        /* \"Taxpayer.sol\":1989:2008  msg.sender == owner */\n      0xffffffffffffffffffffffffffffffffffffffff\n      and\n        /* \"Taxpayer.sol\":1989:1999  msg.sender */\n      caller\n        /* \"Taxpayer.sol\":1989:2008  msg.sender == owner */\n      0xffffffffffffffffffffffffffffffffffffffff\n      and\n      eq\n        /* \"Taxpayer.sol\":1981:2023  require(msg.sender == owner, \"Only owner\") */\n      tag_193\n      jumpi\n      mload(0x40)\n      0x08c379a000000000000000000000000000000000000000000000000000000000\n      dup2\n      mstore\n      0x04\n      add\n      tag_194\n      swap1\n      tag_174\n      jump\t// in\n    tag_194:\n      mload(0x40)\n      dup1\n      swap2\n      sub\n      swap1\n      revert\n    tag_193:\n        /* \"Taxpayer.sol\":1346:1353  _income */\n      dup1\n        /* \"Taxpayer.sol\":1337:1343  income */\n      0x05\n        /* \"Taxpayer.sol\":1337:1353  income = _income */\n      dup2\n      swap1\n      sstore\n      pop\n        /* \"Taxpayer.sol\":1283:1356  function setIncome(uint _income) public onlyOwner {... */\n      pop\n      jump\t// out\n        /* \"Taxpayer.sol\":10435:10610  function setTaxAllowance(uint ta) public {... */\n    tag_61:\n        /* \"Taxpayer.sol\":10504:10509  owner */\n      immutable(\"0x7d94b1fd5befe75fac04677148728067a5c7750c4535d59cf8d692301dae078c\")\n        /* \"Taxpayer.sol\":10490:10509  msg.sender == owner */\n      0xffffffffffffffffffffffffffffffffffffffff\n      and\n        /* \"Taxpayer.sol\":10490:10500  msg.sender */\n      caller\n        /* \"Taxpayer.sol\":10490:10509  msg.sender == owner */\n      0xffffffffffffffffffffffffffffffffffffffff\n      and\n      eq\n        /* \"Taxpayer.sol\":10490:10533  msg.sender == owner || msg.sender == spouse */\n      dup1\n      tag_197\n      jumpi\n      pop\n        /* \"Taxpayer.sol\":10527:10533  spouse */\n      0x01\n      0x02\n      swap1\n      sload\n      swap1\n      0x0100\n      exp\n      swap1\n      div\n      0xffffffffffffffffffffffffffffffffffffffff\n      and\n        /* \"Taxpayer.sol\":10513:10533  msg.sender == spouse */\n      0xffffffffffffffffffffffffffffffffffffffff\n      and\n        /* \"Taxpayer.sol\":10513:10523  msg.sender */\n      caller\n        /* \"Taxpayer.sol\":10513:10533  msg.sender == spouse */\n      0xffffffffffffffffffffffffffffffffffffffff\n      and\n      eq\n        /* \"Taxpayer.sol\":10490:10533  msg.sender == owner || msg.sender == spouse */\n    tag_197:\n        /* \"Taxpayer.sol\":10490:10569  msg.sender == owner || msg.sender == spouse || isAuthorizedContract(msg.sender) */\n      dup1\n      tag_198\n      jumpi\n      pop\n        /* \"Taxpayer.sol\":10537:10569  isAuthorizedContract(msg.sender) */\n      tag_199\n        /* \"Taxpayer.sol\":10558:10568  msg.sender */\n      caller\n        /* \"Taxpayer.sol\":10537:10557  isAuthorizedContract */\n      tag_200\n        /* \"Taxpayer.sol\":10537:10569  isAuthorizedContract(msg.sender) */\n      jump\t// in\n    tag_199:\n        /* \"Taxpayer.sol\":10490:10569  msg.sender == owner || msg.sender == spouse || isAuthorizedContract(msg.sender) */\n    tag_198:\n        /* \"Taxpayer.sol\":10482:10605  require(msg.sender == owner || msg.sender == spouse || isAuthorizedContract(msg.sender), \"Not authorized to set allowance\") */\n      tag_201\n      jumpi\n      mload(0x40)\n      0x08c379a000000000000000000000000000000000000000000000000000000000\n      dup2\n      mstore\n      0x04\n      add\n      tag_202\n      swap1\n      tag_203\n      jump\t// in\n    tag_202:\n      mload(0x40)\n      dup1\n      swap2\n      sub\n      swap1\n      revert\n    tag_201:\n        /* \"Taxpayer.sol\":10435:10610  function setTaxAllowance(uint ta) public {... */\n      pop\n      jump\t// out\n        /* \"Taxpayer.sol\":5039:5253  function echidna_marriage_consistency() public view returns(bool) {... */\n    tag_63:\n        /* \"Taxpayer.sol\":5099:5103  bool */\n      0x00\n        /* \"Taxpayer.sol\":5132:5133  0 */\n      0x00\n        /* \"Taxpayer.sol\":5114:5134  spouse == address(0) */\n      0xffffffffffffffffffffffffffffffffffffffff\n      and\n        /* \"Taxpayer.sol\":5114:5120  spouse */\n      0x01\n      0x02\n      swap1\n      sload\n      swap1\n      0x0100\n      exp\n      swap1\n      div\n      0xffffffffffffffffffffffffffffffffffffffff\n      and\n        /* \"Taxpayer.sol\":5114:5134  spouse == address(0) */\n      0xffffffffffffffffffffffffffffffffffffffff\n      and\n      sub\n        /* \"Taxpayer.sol\":5111:5153  if(spouse == address(0))... */\n      tag_205\n      jumpi\n        /* \"Taxpayer.sol\":5149:5153  true */\n      0x01\n        /* \"Taxpayer.sol\":5142:5153  return true */\n      swap1\n      pop\n      jump(tag_204)\n        /* \"Taxpayer.sol\":5111:5153  if(spouse == address(0))... */\n    tag_205:\n        /* \"Taxpayer.sol\":5164:5180  Taxpayer partner */\n      0x00\n        /* \"Taxpayer.sol\":5192:5198  spouse */\n      0x01\n      0x02\n      swap1\n      sload\n      swap1\n      0x0100\n      exp\n      swap1\n      div\n      0xffffffffffffffffffffffffffffffffffffffff\n      and\n        /* \"Taxpayer.sol\":5164:5199  Taxpayer partner = Taxpayer(spouse) */\n      swap1\n      pop\n        /* \"Taxpayer.sol\":5243:5247  this */\n      address\n        /* \"Taxpayer.sol\":5212:5248  partner.getSpouse() == address(this) */\n      0xffffffffffffffffffffffffffffffffffffffff\n      and\n        /* \"Taxpayer.sol\":5212:5219  partner */\n      dup2\n        /* \"Taxpayer.sol\":5212:5229  partner.getSpouse */\n      0xffffffffffffffffffffffffffffffffffffffff\n      and\n      0x108ece4d\n        /* \"Taxpayer.sol\":5212:5231  partner.getSpouse() */\n      mload(0x40)\n      dup2\n      0xffffffff\n      and\n      0xe0\n      shl\n      dup2\n      mstore\n      0x04\n      add\n      0x20\n      mload(0x40)\n      dup1\n      dup4\n      sub\n      dup2\n      dup7\n      gas\n      staticcall\n      iszero\n      dup1\n      iszero\n      tag_207\n      jumpi\n      returndatacopy(0x00, 0x00, returndatasize)\n      revert(0x00, returndatasize)\n    tag_207:\n      pop\n      pop\n      pop\n      pop\n      mload(0x40)\n      returndatasize\n      not(0x1f)\n      0x1f\n      dup3\n      add\n      and\n      dup3\n      add\n      dup1\n      0x40\n      mstore\n      pop\n      dup2\n      add\n      swap1\n      tag_208\n      swap2\n      swap1\n      tag_154\n      jump\t// in\n    tag_208:\n        /* \"Taxpayer.sol\":5212:5248  partner.getSpouse() == address(this) */\n      0xffffffffffffffffffffffffffffffffffffffff\n      and\n      eq\n        /* \"Taxpayer.sol\":5205:5248  return partner.getSpouse() == address(this) */\n      swap2\n      pop\n      pop\n        /* \"Taxpayer.sol\":5039:5253  function echidna_marriage_consistency() public view returns(bool) {... */\n    tag_204:\n      swap1\n      jump\t// out\n        /* \"Taxpayer.sol\":9934:10105  function receiveAllowance(uint amount, address from) public {... */\n    tag_68:\n        /* \"Taxpayer.sol\":10020:10026  spouse */\n      0x01\n      0x02\n      swap1\n      sload\n      swap1\n      0x0100\n      exp\n      swap1\n      div\n      0xffffffffffffffffffffffffffffffffffffffff\n      and\n        /* \"Taxpayer.sol\":10006:10026  msg.sender == spouse */\n      0xffffffffffffffffffffffffffffffffffffffff\n      and\n        /* \"Taxpayer.sol\":10006:10016  msg.sender */\n      caller\n        /* \"Taxpayer.sol\":10006:10026  msg.sender == spouse */\n      0xffffffffffffffffffffffffffffffffffffffff\n      and\n      eq\n        /* \"Taxpayer.sol\":10006:10048  msg.sender == spouse || msg.sender == from */\n      dup1\n      tag_210\n      jumpi\n      pop\n        /* \"Taxpayer.sol\":10044:10048  from */\n      dup1\n        /* \"Taxpayer.sol\":10030:10048  msg.sender == from */\n      0xffffffffffffffffffffffffffffffffffffffff\n      and\n        /* \"Taxpayer.sol\":10030:10040  msg.sender */\n      caller\n        /* \"Taxpayer.sol\":10030:10048  msg.sender == from */\n      0xffffffffffffffffffffffffffffffffffffffff\n      and\n      eq\n        /* \"Taxpayer.sol\":10006:10048  msg.sender == spouse || msg.sender == from */\n    tag_210:\n        /* \"Taxpayer.sol\":9998:10074  require(msg.sender == spouse || msg.sender == from, \"Only spouse or origin\") */\n      tag_211\n      jumpi\n      mload(0x40)\n      0x08c379a000000000000000000000000000000000000000000000000000000000\n      dup2\n      mstore\n      0x04\n      add\n      tag_212\n      swap1\n      tag_213\n      jump\t// in\n    tag_212:\n      mload(0x40)\n      dup1\n      swap2\n      sub\n      swap1\n      revert\n    tag_211:\n        /* \"Taxpayer.sol\":10095:10101  amount */\n      dup2\n        /* \"Taxpayer.sol\":10078:10091  tax_allowance */\n      0x04\n      0x00\n        /* \"Taxpayer.sol\":10078:10101  tax_allowance += amount */\n      dup3\n      dup3\n      sload\n      tag_214\n      swap2\n      swap1\n      tag_215\n      jump\t// in\n    tag_214:\n      swap3\n      pop\n      pop\n      dup2\n      swap1\n      sstore\n      pop\n        /* \"Taxpayer.sol\":9934:10105  function receiveAllowance(uint amount, address from) public {... */\n      pop\n      pop\n      jump\t// out\n        /* \"Taxpayer.sol\":10167:10430  function haveBirthday() public onlyOwner {... */\n    tag_70:\n        /* \"Taxpayer.sol\":2003:2008  owner */\n      immutable(\"0x7d94b1fd5befe75fac04677148728067a5c7750c4535d59cf8d692301dae078c\")\n        /* \"Taxpayer.sol\":1989:2008  msg.sender == owner */\n      0xffffffffffffffffffffffffffffffffffffffff\n      and\n        /* \"Taxpayer.sol\":1989:1999  msg.sender */\n      caller\n        /* \"Taxpayer.sol\":1989:2008  msg.sender == owner */\n      0xffffffffffffffffffffffffffffffffffffffff\n      and\n      eq\n        /* \"Taxpayer.sol\":1981:2023  require(msg.sender == owner, \"Only owner\") */\n      tag_217\n      jumpi\n      mload(0x40)\n      0x08c379a000000000000000000000000000000000000000000000000000000000\n      dup2\n      mstore\n      0x04\n      add\n      tag_218\n      swap1\n      tag_174\n      jump\t// in\n    tag_218:\n      mload(0x40)\n      dup1\n      swap2\n      sub\n      swap1\n      revert\n    tag_217:\n        /* \"Taxpayer.sol\":10212:10215  age */\n      0x00\n      0x00\n        /* \"Taxpayer.sol\":10212:10217  age++ */\n      dup2\n      sload\n      dup1\n      swap3\n      swap2\n      swap1\n      tag_220\n      swap1\n      tag_221\n      jump\t// in\n    tag_220:\n      swap2\n      swap1\n      pop\n      sstore\n      pop\n        /* \"Taxpayer.sol\":10225:10234  isMarried */\n      0x01\n      0x00\n      swap1\n      sload\n      swap1\n      0x0100\n      exp\n      swap1\n      div\n      0xff\n      and\n        /* \"Taxpayer.sol\":10224:10234  !isMarried */\n      iszero\n        /* \"Taxpayer.sol\":10224:10258  !isMarried && spouse == address(0) */\n      dup1\n      iszero\n      tag_222\n      jumpi\n      pop\n        /* \"Taxpayer.sol\":10256:10257  0 */\n      0x00\n        /* \"Taxpayer.sol\":10238:10258  spouse == address(0) */\n      0xffffffffffffffffffffffffffffffffffffffff\n      and\n        /* \"Taxpayer.sol\":10238:10244  spouse */\n      0x01\n      0x02\n      swap1\n      sload\n      swap1\n      0x0100\n      exp\n      swap1\n      div\n      0xffffffffffffffffffffffffffffffffffffffff\n      and\n        /* \"Taxpayer.sol\":10238:10258  spouse == address(0) */\n      0xffffffffffffffffffffffffffffffffffffffff\n      and\n      eq\n        /* \"Taxpayer.sol\":10224:10258  !isMarried && spouse == address(0) */\n    tag_222:\n        /* \"Taxpayer.sol\":10221:10427  if(!isMarried && spouse == address(0)) {  // only if single... */\n      iszero\n      tag_223\n      jumpi\n        /* \"Taxpayer.sol\":10299:10301  65 */\n      0x41\n        /* \"Taxpayer.sol\":10292:10295  age */\n      sload(0x00)\n        /* \"Taxpayer.sol\":10292:10301  age >= 65 */\n      lt\n        /* \"Taxpayer.sol\":10289:10421  if(age >= 65) {... */\n      tag_224\n      jumpi\n        /* \"Taxpayer.sol\":502:506  7000 */\n      0x1b58\n        /* \"Taxpayer.sol\":10317:10330  tax_allowance */\n      0x04\n        /* \"Taxpayer.sol\":10317:10346  tax_allowance = ALLOWANCE_OAP */\n      dup2\n      swap1\n      sstore\n      pop\n        /* \"Taxpayer.sol\":10289:10421  if(age >= 65) {... */\n      jump(tag_225)\n    tag_224:\n        /* \"Taxpayer.sol\":398:402  5000 */\n      0x1388\n        /* \"Taxpayer.sol\":10377:10390  tax_allowance */\n      0x04\n        /* \"Taxpayer.sol\":10377:10410  tax_allowance = DEFAULT_ALLOWANCE */\n      dup2\n      swap1\n      sstore\n      pop\n        /* \"Taxpayer.sol\":10289:10421  if(age >= 65) {... */\n    tag_225:\n        /* \"Taxpayer.sol\":10221:10427  if(!isMarried && spouse == address(0)) {  // only if single... */\n    tag_223:\n        /* \"Taxpayer.sol\":10167:10430  function haveBirthday() public onlyOwner {... */\n      jump\t// out\n        /* \"Taxpayer.sol\":4525:4757  function notifyDivorceFromPartner(address p) public {... */\n    tag_74:\n        /* \"Taxpayer.sol\":4603:4604  p */\n      dup1\n        /* \"Taxpayer.sol\":4589:4604  msg.sender == p */\n      0xffffffffffffffffffffffffffffffffffffffff\n      and\n        /* \"Taxpayer.sol\":4589:4599  msg.sender */\n      caller\n        /* \"Taxpayer.sol\":4589:4604  msg.sender == p */\n      0xffffffffffffffffffffffffffffffffffffffff\n      and\n      eq\n        /* \"Taxpayer.sol\":4581:4632  require(msg.sender == p, \"Only partner can notify\") */\n      tag_227\n      jumpi\n      mload(0x40)\n      0x08c379a000000000000000000000000000000000000000000000000000000000\n      dup2\n      mstore\n      0x04\n      add\n      tag_228\n      swap1\n      tag_229\n      jump\t// in\n    tag_228:\n      mload(0x40)\n      dup1\n      swap2\n      sub\n      swap1\n      revert\n    tag_227:\n        /* \"Taxpayer.sol\":4653:4654  0 */\n      0x00\n        /* \"Taxpayer.sol\":4636:4642  spouse */\n      0x01\n      0x02\n        /* \"Taxpayer.sol\":4636:4655  spouse = address(0) */\n      0x0100\n      exp\n      dup2\n      sload\n      dup2\n      0xffffffffffffffffffffffffffffffffffffffff\n      mul\n      not\n      and\n      swap1\n      dup4\n      0xffffffffffffffffffffffffffffffffffffffff\n      and\n      mul\n      or\n      swap1\n      sstore\n      pop\n        /* \"Taxpayer.sol\":4671:4676  false */\n      0x00\n        /* \"Taxpayer.sol\":4659:4668  isMarried */\n      0x01\n      0x00\n        /* \"Taxpayer.sol\":4659:4676  isMarried = false */\n      0x0100\n      exp\n      dup2\n      sload\n      dup2\n      0xff\n      mul\n      not\n      and\n      swap1\n      dup4\n      iszero\n      iszero\n      mul\n      or\n      swap1\n      sstore\n      pop\n        /* \"Taxpayer.sol\":4726:4753  determineDefaultAllowance() */\n      tag_230\n        /* \"Taxpayer.sol\":4726:4751  determineDefaultAllowance */\n      tag_231\n        /* \"Taxpayer.sol\":4726:4753  determineDefaultAllowance() */\n      jump\t// in\n    tag_230:\n        /* \"Taxpayer.sol\":4710:4723  tax_allowance */\n      0x04\n        /* \"Taxpayer.sol\":4710:4753  tax_allowance = determineDefaultAllowance() */\n      dup2\n      swap1\n      sstore\n      pop\n        /* \"Taxpayer.sol\":4525:4757  function notifyDivorceFromPartner(address p) public {... */\n      pop\n      jump\t// out\n        /* \"Taxpayer.sol\":12073:12221  function taxableIncome() public view returns(uint) {... */\n    tag_76:\n        /* \"Taxpayer.sol\":12118:12122  uint */\n      0x00\n        /* \"Taxpayer.sol\":12143:12156  tax_allowance */\n      sload(0x04)\n        /* \"Taxpayer.sol\":12133:12139  income */\n      sload(0x05)\n        /* \"Taxpayer.sol\":12133:12156  income <= tax_allowance */\n      gt\n        /* \"Taxpayer.sol\":12130:12181  if(income <= tax_allowance) {... */\n      tag_233\n      jumpi\n        /* \"Taxpayer.sol\":12173:12174  0 */\n      0x00\n        /* \"Taxpayer.sol\":12166:12174  return 0 */\n      swap1\n      pop\n      jump(tag_232)\n        /* \"Taxpayer.sol\":12130:12181  if(income <= tax_allowance) {... */\n    tag_233:\n        /* \"Taxpayer.sol\":12203:12216  tax_allowance */\n      sload(0x04)\n        /* \"Taxpayer.sol\":12194:12200  income */\n      sload(0x05)\n        /* \"Taxpayer.sol\":12194:12216  income - tax_allowance */\n      tag_234\n      swap2\n      swap1\n      tag_235\n      jump\t// in\n    tag_234:\n        /* \"Taxpayer.sol\":12187:12216  return income - tax_allowance */\n      swap1\n      pop\n        /* \"Taxpayer.sol\":12073:12221  function taxableIncome() public view returns(uint) {... */\n    tag_232:\n      swap1\n      jump\t// out\n        /* \"Taxpayer.sol\":12250:12377  function calculateTax(uint value) public view returns (uint) {... */\n    tag_81:\n        /* \"Taxpayer.sol\":12305:12309  uint */\n      0x00\n        /* \"Taxpayer.sol\":12317:12323  uint t */\n      0x00\n        /* \"Taxpayer.sol\":12326:12341  taxableIncome() */\n      tag_237\n        /* \"Taxpayer.sol\":12326:12339  taxableIncome */\n      tag_76\n        /* \"Taxpayer.sol\":12326:12341  taxableIncome() */\n      jump\t// in\n    tag_237:\n        /* \"Taxpayer.sol\":12317:12341  uint t = taxableIncome() */\n      swap1\n      pop\n        /* \"Taxpayer.sol\":12368:12372  1000 */\n      0x03e8\n        /* \"Taxpayer.sol\":12359:12364  value */\n      dup4\n        /* \"Taxpayer.sol\":12355:12356  t */\n      dup3\n        /* \"Taxpayer.sol\":12355:12364  t * value */\n      tag_238\n      swap2\n      swap1\n      tag_239\n      jump\t// in\n    tag_238:\n        /* \"Taxpayer.sol\":12354:12372  (t * value) / 1000 */\n      tag_240\n      swap2\n      swap1\n      tag_241\n      jump\t// in\n    tag_240:\n        /* \"Taxpayer.sol\":12347:12372  return (t * value) / 1000 */\n      swap2\n      pop\n      pop\n        /* \"Taxpayer.sol\":12250:12377  function calculateTax(uint value) public view returns (uint) {... */\n      swap2\n      swap1\n      pop\n      jump\t// out\n        /* \"Taxpayer.sol\":11277:11669  function joinLottery(address lot, uint256 r) public onlyOwner {... */\n    tag_85:\n        /* \"Taxpayer.sol\":2003:2008  owner */\n      immutable(\"0x7d94b1fd5befe75fac04677148728067a5c7750c4535d59cf8d692301dae078c\")\n        /* \"Taxpayer.sol\":1989:2008  msg.sender == owner */\n      0xffffffffffffffffffffffffffffffffffffffff\n      and\n        /* \"Taxpayer.sol\":1989:1999  msg.sender */\n      caller\n        /* \"Taxpayer.sol\":1989:2008  msg.sender == owner */\n      0xffffffffffffffffffffffffffffffffffffffff\n      and\n      eq\n        /* \"Taxpayer.sol\":1981:2023  require(msg.sender == owner, \"Only owner\") */\n      tag_243\n      jumpi\n      mload(0x40)\n      0x08c379a000000000000000000000000000000000000000000000000000000000\n      dup2\n      mstore\n      0x04\n      add\n      tag_244\n      swap1\n      tag_174\n      jump\t// in\n    tag_244:\n      mload(0x40)\n      dup1\n      swap2\n      sub\n      swap1\n      revert\n    tag_243:\n        /* \"Taxpayer.sol\":11368:11369  0 */\n      0x00\n        /* \"Taxpayer.sol\":11353:11370  lot != address(0) */\n      0xffffffffffffffffffffffffffffffffffffffff\n      and\n        /* \"Taxpayer.sol\":11353:11356  lot */\n      dup3\n        /* \"Taxpayer.sol\":11353:11370  lot != address(0) */\n      0xffffffffffffffffffffffffffffffffffffffff\n      and\n      eq\n      iszero\n        /* \"Taxpayer.sol\":11353:11393  lot != address(0) && lot.code.length > 0 */\n      dup1\n      iszero\n      tag_246\n      jumpi\n      pop\n        /* \"Taxpayer.sol\":11392:11393  0 */\n      0x00\n        /* \"Taxpayer.sol\":11374:11377  lot */\n      dup3\n        /* \"Taxpayer.sol\":11374:11389  lot.code.length */\n      0xffffffffffffffffffffffffffffffffffffffff\n      and\n      extcodesize\n        /* \"Taxpayer.sol\":11374:11393  lot.code.length > 0 */\n      gt\n        /* \"Taxpayer.sol\":11353:11393  lot != address(0) && lot.code.length > 0 */\n    tag_246:\n        /* \"Taxpayer.sol\":11345:11414  require(lot != address(0) && lot.code.length > 0 , \"Invalid lottery\") */\n      tag_247\n      jumpi\n      mload(0x40)\n      0x08c379a000000000000000000000000000000000000000000000000000000000\n      dup2\n      mstore\n      0x04\n      add\n      tag_248\n      swap1\n      tag_249\n      jump\t// in\n    tag_248:\n      mload(0x40)\n      dup1\n      swap2\n      sub\n      swap1\n      revert\n    tag_247:\n        /* \"Taxpayer.sol\":11465:11468  lot */\n      dup2\n        /* \"Taxpayer.sol\":11457:11476  Lottery(lot).commit */\n      0xffffffffffffffffffffffffffffffffffffffff\n      and\n      0xf14fcbc8\n        /* \"Taxpayer.sol\":11498:11499  r */\n      dup3\n        /* \"Taxpayer.sol\":11487:11500  abi.encode(r) */\n      add(0x20, mload(0x40))\n      tag_250\n      swap2\n      swap1\n      tag_78\n      jump\t// in\n    tag_250:\n      mload(0x40)\n      0x20\n      dup2\n      dup4\n      sub\n      sub\n      dup2\n      mstore\n      swap1\n      0x40\n      mstore\n        /* \"Taxpayer.sol\":11477:11501  keccak256(abi.encode(r)) */\n      dup1\n      mload\n      swap1\n      0x20\n      add\n      keccak256\n        /* \"Taxpayer.sol\":11457:11502  Lottery(lot).commit(keccak256(abi.encode(r))) */\n      mload(0x40)\n      dup3\n      0xffffffff\n      and\n      0xe0\n      shl\n      dup2\n      mstore\n      0x04\n      add\n      tag_251\n      swap2\n      swap1\n      tag_252\n      jump\t// in\n    tag_251:\n      0x00\n      mload(0x40)\n      dup1\n      dup4\n      sub\n      dup2\n      0x00\n      dup8\n      dup1\n      extcodesize\n      iszero\n      dup1\n      iszero\n      tag_253\n      jumpi\n      revert(0x00, 0x00)\n    tag_253:\n      pop\n      gas\n      call\n      swap3\n      pop\n      pop\n      pop\n      dup1\n      iszero\n      tag_254\n      jumpi\n      pop\n      0x01\n    tag_254:\n        /* \"Taxpayer.sol\":11453:11665  try Lottery(lot).commit(keccak256(abi.encode(r))) {   // try-catch to avoid failure... */\n      tag_255\n      jumpi\n        /* \"Taxpayer.sol\":11627:11658  revert(\"Lottery commit failed\") */\n      mload(0x40)\n      0x08c379a000000000000000000000000000000000000000000000000000000000\n      dup2\n      mstore\n      0x04\n      add\n      tag_259\n      swap1\n      tag_260\n      jump\t// in\n    tag_259:\n      mload(0x40)\n      dup1\n      swap2\n      sub\n      swap1\n      revert\n        /* \"Taxpayer.sol\":11453:11665  try Lottery(lot).commit(keccak256(abi.encode(r))) {   // try-catch to avoid failure... */\n    tag_255:\n        /* \"Taxpayer.sol\":11549:11550  r */\n      dup1\n        /* \"Taxpayer.sol\":11543:11546  rev */\n      0x06\n        /* \"Taxpayer.sol\":11543:11550  rev = r */\n      dup2\n      swap1\n      sstore\n      pop\n        /* \"Taxpayer.sol\":11570:11574  true */\n      0x01\n        /* \"Taxpayer.sol\":11558:11567  committed */\n      0x07\n      0x00\n        /* \"Taxpayer.sol\":11558:11574  committed = true */\n      0x0100\n      exp\n      dup2\n      sload\n      dup2\n      0xff\n      mul\n      not\n      and\n      swap1\n      dup4\n      iszero\n      iszero\n      mul\n      or\n      swap1\n      sstore\n      pop\n        /* \"Taxpayer.sol\":11277:11669  function joinLottery(address lot, uint256 r) public onlyOwner {... */\n      pop\n      pop\n      jump\t// out\n        /* \"Taxpayer.sol\":1227:1281  function setSpouse(address a) public {... */\n    tag_88:\n        /* \"Taxpayer.sol\":1277:1278  a */\n      dup1\n        /* \"Taxpayer.sol\":1268:1274  spouse */\n      0x01\n      0x02\n        /* \"Taxpayer.sol\":1268:1278  spouse = a */\n      0x0100\n      exp\n      dup2\n      sload\n      dup2\n      0xffffffffffffffffffffffffffffffffffffffff\n      mul\n      not\n      and\n      swap1\n      dup4\n      0xffffffffffffffffffffffffffffffffffffffff\n      and\n      mul\n      or\n      swap1\n      sstore\n      pop\n        /* \"Taxpayer.sol\":1227:1281  function setSpouse(address a) public {... */\n      pop\n      jump\t// out\n        /* \"Taxpayer.sol\":1053:1152  function getDefaultAllowance() public view returns (uint) {... */\n    tag_90:\n        /* \"Taxpayer.sol\":1105:1109  uint */\n      0x00\n        /* \"Taxpayer.sol\":1122:1149  determineDefaultAllowance() */\n      tag_264\n        /* \"Taxpayer.sol\":1122:1147  determineDefaultAllowance */\n      tag_231\n        /* \"Taxpayer.sol\":1122:1149  determineDefaultAllowance() */\n      jump\t// in\n    tag_264:\n        /* \"Taxpayer.sol\":1115:1149  return determineDefaultAllowance() */\n      swap1\n      pop\n        /* \"Taxpayer.sol\":1053:1152  function getDefaultAllowance() public view returns (uint) {... */\n      swap1\n      jump\t// out\n        /* \"Taxpayer.sol\":6795:6888  function echidna_iscontract_is_true() public view returns (bool) {... */\n    tag_93:\n        /* \"Taxpayer.sol\":6854:6858  bool */\n      0x00\n        /* \"Taxpayer.sol\":6873:6883  iscontract */\n      0x01\n      dup1\n      sload\n      swap1\n      0x0100\n      exp\n      swap1\n      div\n      0xff\n      and\n        /* \"Taxpayer.sol\":6866:6883  return iscontract */\n      swap1\n      pop\n        /* \"Taxpayer.sol\":6795:6888  function echidna_iscontract_is_true() public view returns (bool) {... */\n      swap1\n      jump\t// out\n        /* \"Taxpayer.sol\":9527:9930  function transferAllowance(uint change) public onlyOwner {... */\n    tag_97:\n        /* \"Taxpayer.sol\":2003:2008  owner */\n      immutable(\"0x7d94b1fd5befe75fac04677148728067a5c7750c4535d59cf8d692301dae078c\")\n        /* \"Taxpayer.sol\":1989:2008  msg.sender == owner */\n      0xffffffffffffffffffffffffffffffffffffffff\n      and\n        /* \"Taxpayer.sol\":1989:1999  msg.sender */\n      caller\n        /* \"Taxpayer.sol\":1989:2008  msg.sender == owner */\n      0xffffffffffffffffffffffffffffffffffffffff\n      and\n      eq\n        /* \"Taxpayer.sol\":1981:2023  require(msg.sender == owner, \"Only owner\") */\n      tag_267\n      jumpi\n      mload(0x40)\n      0x08c379a000000000000000000000000000000000000000000000000000000000\n      dup2\n      mstore\n      0x04\n      add\n      tag_268\n      swap1\n      tag_174\n      jump\t// in\n    tag_268:\n      mload(0x40)\n      dup1\n      swap2\n      sub\n      swap1\n      revert\n    tag_267:\n        /* \"Taxpayer.sol\":9617:9618  0 */\n      0x00\n        /* \"Taxpayer.sol\":9599:9619  spouse != address(0) */\n      0xffffffffffffffffffffffffffffffffffffffff\n      and\n        /* \"Taxpayer.sol\":9599:9605  spouse */\n      0x01\n      0x02\n      swap1\n      sload\n      swap1\n      0x0100\n      exp\n      swap1\n      div\n      0xffffffffffffffffffffffffffffffffffffffff\n      and\n        /* \"Taxpayer.sol\":9599:9619  spouse != address(0) */\n      0xffffffffffffffffffffffffffffffffffffffff\n      and\n      sub\n        /* \"Taxpayer.sol\":9591:9633  require(spouse != address(0), \"No spouse\") */\n      tag_270\n      jumpi\n      mload(0x40)\n      0x08c379a000000000000000000000000000000000000000000000000000000000\n      dup2\n      mstore\n      0x04\n      add\n      tag_271\n      swap1\n      tag_272\n      jump\t// in\n    tag_271:\n      mload(0x40)\n      dup1\n      swap2\n      sub\n      swap1\n      revert\n    tag_270:\n        /* \"Taxpayer.sol\":9654:9655  0 */\n      0x00\n        /* \"Taxpayer.sol\":9645:9651  change */\n      dup2\n        /* \"Taxpayer.sol\":9645:9655  change > 0 */\n      gt\n        /* \"Taxpayer.sol\":9637:9671  require(change > 0, \"Zero change\") */\n      tag_273\n      jumpi\n      mload(0x40)\n      0x08c379a000000000000000000000000000000000000000000000000000000000\n      dup2\n      mstore\n      0x04\n      add\n      tag_274\n      swap1\n      tag_275\n      jump\t// in\n    tag_274:\n      mload(0x40)\n      dup1\n      swap2\n      sub\n      swap1\n      revert\n    tag_273:\n        /* \"Taxpayer.sol\":9693:9706  tax_allowance */\n      sload(0x04)\n        /* \"Taxpayer.sol\":9683:9689  change */\n      dup2\n        /* \"Taxpayer.sol\":9683:9706  change <= tax_allowance */\n      gt\n      iszero\n        /* \"Taxpayer.sol\":9675:9731  require(change <= tax_allowance, \"Not enough allowance\") */\n      tag_276\n      jumpi\n      mload(0x40)\n      0x08c379a000000000000000000000000000000000000000000000000000000000\n      dup2\n      mstore\n      0x04\n      add\n      tag_277\n      swap1\n      tag_278\n      jump\t// in\n    tag_277:\n      mload(0x40)\n      dup1\n      swap2\n      sub\n      swap1\n      revert\n    tag_276:\n        /* \"Taxpayer.sol\":9753:9759  change */\n      dup1\n        /* \"Taxpayer.sol\":9736:9749  tax_allowance */\n      0x04\n      0x00\n        /* \"Taxpayer.sol\":9736:9759  tax_allowance -= change */\n      dup3\n      dup3\n      sload\n      tag_279\n      swap2\n      swap1\n      tag_235\n      jump\t// in\n    tag_279:\n      swap3\n      pop\n      pop\n      dup2\n      swap1\n      sstore\n      pop\n        /* \"Taxpayer.sol\":9802:9808  spouse */\n      0x01\n      0x02\n      swap1\n      sload\n      swap1\n      0x0100\n      exp\n      swap1\n      div\n      0xffffffffffffffffffffffffffffffffffffffff\n      and\n        /* \"Taxpayer.sol\":9793:9826  Taxpayer(spouse).receiveAllowance */\n      0xffffffffffffffffffffffffffffffffffffffff\n      and\n      0x308f838a\n        /* \"Taxpayer.sol\":9827:9833  change */\n      dup3\n        /* \"Taxpayer.sol\":9843:9847  this */\n      address\n        /* \"Taxpayer.sol\":9793:9849  Taxpayer(spouse).receiveAllowance(change, address(this)) */\n      mload(0x40)\n      dup4\n      0xffffffff\n      and\n      0xe0\n      shl\n      dup2\n      mstore\n      0x04\n      add\n      tag_280\n      swap3\n      swap2\n      swap1\n      tag_281\n      jump\t// in\n    tag_280:\n      0x00\n      mload(0x40)\n      dup1\n      dup4\n      sub\n      dup2\n      0x00\n      dup8\n      dup1\n      extcodesize\n      iszero\n      dup1\n      iszero\n      tag_282\n      jumpi\n      revert(0x00, 0x00)\n    tag_282:\n      pop\n      gas\n      call\n      swap3\n      pop\n      pop\n      pop\n      dup1\n      iszero\n      tag_283\n      jumpi\n      pop\n      0x01\n    tag_283:\n        /* \"Taxpayer.sol\":9789:9927  try Taxpayer(spouse).receiveAllowance(change, address(this)) {... */\n      tag_284\n      jumpi\n        /* \"Taxpayer.sol\":9887:9922  revert(\"Failed to transfer spouse\") */\n      mload(0x40)\n      0x08c379a000000000000000000000000000000000000000000000000000000000\n      dup2\n      mstore\n      0x04\n      add\n      tag_288\n      swap1\n      tag_289\n      jump\t// in\n    tag_288:\n      mload(0x40)\n      dup1\n      swap2\n      sub\n      swap1\n      revert\n        /* \"Taxpayer.sol\":9789:9927  try Taxpayer(spouse).receiveAllowance(change, address(this)) {... */\n    tag_284:\n        /* \"Taxpayer.sol\":9527:9930  function transferAllowance(uint change) public onlyOwner {... */\n      pop\n      jump\t// out\n        /* \"Taxpayer.sol\":925:1051  function getInitialTaxAllowance() public view returns (uint) {... */\n    tag_99:\n        /* \"Taxpayer.sol\":980:984  uint */\n      0x00\n        /* \"Taxpayer.sol\":997:1018  INITIAL_TAX_ALLOWANCE */\n      immutable(\"0xe54f8e4a5d17b2e4d97cb94ddb2a2b00b3620f93c06158e24f4515b3f1ad0dd8\")\n        /* \"Taxpayer.sol\":990:1018  return INITIAL_TAX_ALLOWANCE */\n      swap1\n      pop\n        /* \"Taxpayer.sol\":925:1051  function getInitialTaxAllowance() public view returns (uint) {... */\n      swap1\n      jump\t// out\n        /* \"Taxpayer.sol\":8601:9129  function echidna_commit_consistency(address lot) public view returns (bool) {... */\n    tag_103:\n        /* \"Taxpayer.sol\":8671:8675  bool */\n      0x00\n        /* \"Taxpayer.sol\":8747:8748  0 */\n      0x00\n        /* \"Taxpayer.sol\":8740:8743  rev */\n      sload(0x06)\n        /* \"Taxpayer.sol\":8740:8748  rev == 0 */\n      sub\n        /* \"Taxpayer.sol\":8737:8776  if(rev == 0) {... */\n      tag_293\n      jumpi\n        /* \"Taxpayer.sol\":8765:8769  true */\n      0x01\n        /* \"Taxpayer.sol\":8758:8769  return true */\n      swap1\n      pop\n      jump(tag_292)\n        /* \"Taxpayer.sol\":8737:8776  if(rev == 0) {... */\n    tag_293:\n        /* \"Taxpayer.sol\":8834:8835  0 */\n      0x00\n        /* \"Taxpayer.sol\":8819:8836  lot == address(0) */\n      0xffffffffffffffffffffffffffffffffffffffff\n      and\n        /* \"Taxpayer.sol\":8819:8822  lot */\n      dup3\n        /* \"Taxpayer.sol\":8819:8836  lot == address(0) */\n      0xffffffffffffffffffffffffffffffffffffffff\n      and\n      eq\n        /* \"Taxpayer.sol\":8819:8860  lot == address(0) || lot.code.length == 0 */\n      dup1\n      tag_294\n      jumpi\n      pop\n        /* \"Taxpayer.sol\":8859:8860  0 */\n      0x00\n        /* \"Taxpayer.sol\":8840:8843  lot */\n      dup3\n        /* \"Taxpayer.sol\":8840:8855  lot.code.length */\n      0xffffffffffffffffffffffffffffffffffffffff\n      and\n      extcodesize\n        /* \"Taxpayer.sol\":8840:8860  lot.code.length == 0 */\n      eq\n        /* \"Taxpayer.sol\":8819:8860  lot == address(0) || lot.code.length == 0 */\n    tag_294:\n        /* \"Taxpayer.sol\":8816:8907  if(lot == address(0) || lot.code.length == 0) {... */\n      iszero\n      tag_295\n      jumpi\n        /* \"Taxpayer.sol\":8877:8881  true */\n      0x01\n        /* \"Taxpayer.sol\":8870:8881  return true */\n      swap1\n      pop\n      jump(tag_292)\n        /* \"Taxpayer.sol\":8816:8907  if(lot == address(0) || lot.code.length == 0) {... */\n    tag_295:\n        /* \"Taxpayer.sol\":8925:8928  lot */\n      dup2\n        /* \"Taxpayer.sol\":8917:8937  Lottery(lot).commits */\n      0xffffffffffffffffffffffffffffffffffffffff\n      and\n      0x7b43a8e6\n        /* \"Taxpayer.sol\":8946:8950  this */\n      address\n        /* \"Taxpayer.sol\":8917:8952  Lottery(lot).commits(address(this)) */\n      mload(0x40)\n      dup3\n      0xffffffff\n      and\n      0xe0\n      shl\n      dup2\n      mstore\n      0x04\n      add\n      tag_296\n      swap2\n      swap1\n      tag_50\n      jump\t// in\n    tag_296:\n      0x20\n      mload(0x40)\n      dup1\n      dup4\n      sub\n      dup2\n      dup7\n      gas\n      staticcall\n      swap3\n      pop\n      pop\n      pop\n      dup1\n      iszero\n      tag_297\n      jumpi\n      pop\n      mload(0x40)\n      returndatasize\n      not(0x1f)\n      0x1f\n      dup3\n      add\n      and\n      dup3\n      add\n      dup1\n      0x40\n      mstore\n      pop\n      dup2\n      add\n      swap1\n      tag_298\n      swap2\n      swap1\n      tag_299\n      jump\t// in\n    tag_298:\n      0x01\n    tag_297:\n        /* \"Taxpayer.sol\":8913:9124  try Lottery(lot).commits(address(this)) returns (bytes32 c) {... */\n      tag_300\n      jumpi\n        /* \"Taxpayer.sol\":9048:9053  false */\n      0x00\n        /* \"Taxpayer.sol\":9041:9053  return false */\n      swap1\n      pop\n      jump(tag_292)\n        /* \"Taxpayer.sol\":8913:9124  try Lottery(lot).commits(address(this)) returns (bytes32 c) {... */\n    tag_300:\n        /* \"Taxpayer.sol\":9014:9017  rev */\n      sload(0x06)\n        /* \"Taxpayer.sol\":9003:9018  abi.encode(rev) */\n      add(0x20, mload(0x40))\n      tag_305\n      swap2\n      swap1\n      tag_78\n      jump\t// in\n    tag_305:\n      mload(0x40)\n      0x20\n      dup2\n      dup4\n      sub\n      sub\n      dup2\n      mstore\n      swap1\n      0x40\n      mstore\n        /* \"Taxpayer.sol\":8993:9019  keccak256(abi.encode(rev)) */\n      dup1\n      mload\n      swap1\n      0x20\n      add\n      keccak256\n        /* \"Taxpayer.sol\":8988:8989  c */\n      dup2\n        /* \"Taxpayer.sol\":8988:9019  c == keccak256(abi.encode(rev)) */\n      eq\n        /* \"Taxpayer.sol\":8981:9019  return c == keccak256(abi.encode(rev)) */\n      swap2\n      pop\n      pop\n        /* \"Taxpayer.sol\":8601:9129  function echidna_commit_consistency(address lot) public view returns (bool) {... */\n    tag_292:\n      swap2\n      swap1\n      pop\n      jump\t// out\n        /* \"Taxpayer.sol\":773:848  function getIsMarried() public view returns(bool) {... */\n    tag_106:\n        /* \"Taxpayer.sol\":817:821  bool */\n      0x00\n        /* \"Taxpayer.sol\":836:845  isMarried */\n      0x01\n      0x00\n      swap1\n      sload\n      swap1\n      0x0100\n      exp\n      swap1\n      div\n      0xff\n      and\n        /* \"Taxpayer.sol\":829:845  return isMarried */\n      swap1\n      pop\n        /* \"Taxpayer.sol\":773:848  function getIsMarried() public view returns(bool) {... */\n      swap1\n      jump\t// out\n        /* \"Taxpayer.sol\":249:280  address public  immutable owner */\n    tag_109:\n      immutable(\"0x7d94b1fd5befe75fac04677148728067a5c7750c4535d59cf8d692301dae078c\")\n      dup2\n      jump\t// out\n        /* \"Taxpayer.sol\":1154:1216  function getAge() public view returns (uint) {... */\n    tag_112:\n        /* \"Taxpayer.sol\":1193:1197  uint */\n      0x00\n        /* \"Taxpayer.sol\":1210:1213  age */\n      sload(0x00)\n        /* \"Taxpayer.sol\":1203:1213  return age */\n      swap1\n      pop\n        /* \"Taxpayer.sol\":1154:1216  function getAge() public view returns (uint) {... */\n      swap1\n      jump\t// out\n        /* \"Taxpayer.sol\":6497:6692  function echidna_no_tax_below_allowance() public view returns (bool) {... */\n    tag_115:\n        /* \"Taxpayer.sol\":6560:6564  bool */\n      0x00\n        /* \"Taxpayer.sol\":6585:6598  tax_allowance */\n      sload(0x04)\n        /* \"Taxpayer.sol\":6575:6581  income */\n      sload(0x05)\n        /* \"Taxpayer.sol\":6575:6598  income <= tax_allowance */\n      gt\n        /* \"Taxpayer.sol\":6572:6671  if(income <= tax_allowance) {... */\n      tag_309\n      jumpi\n        /* \"Taxpayer.sol\":6636:6637  0 */\n      0x00\n        /* \"Taxpayer.sol\":6615:6632  calculateTax(200) */\n      tag_310\n        /* \"Taxpayer.sol\":6628:6631  200 */\n      0xc8\n        /* \"Taxpayer.sol\":6615:6627  calculateTax */\n      tag_81\n        /* \"Taxpayer.sol\":6615:6632  calculateTax(200) */\n      jump\t// in\n    tag_310:\n        /* \"Taxpayer.sol\":6615:6637  calculateTax(200) == 0 */\n      eq\n        /* \"Taxpayer.sol\":6608:6637  return calculateTax(200) == 0 */\n      swap1\n      pop\n      jump(tag_308)\n        /* \"Taxpayer.sol\":6572:6671  if(income <= tax_allowance) {... */\n    tag_309:\n        /* \"Taxpayer.sol\":6683:6687  true */\n      0x01\n        /* \"Taxpayer.sol\":6676:6687  return true */\n      swap1\n      pop\n        /* \"Taxpayer.sol\":6497:6692  function echidna_no_tax_below_allowance() public view returns (bool) {... */\n    tag_308:\n      swap1\n      jump\t// out\n        /* \"Taxpayer.sol\":6972:7219  function echidna_age_allowance_base_consistency_single() public view returns (bool) {... */\n    tag_118:\n        /* \"Taxpayer.sol\":7050:7054  bool */\n      0x00\n        /* \"Taxpayer.sol\":7083:7084  0 */\n      0x00\n        /* \"Taxpayer.sol\":7065:7085  spouse != address(0) */\n      0xffffffffffffffffffffffffffffffffffffffff\n      and\n        /* \"Taxpayer.sol\":7065:7071  spouse */\n      0x01\n      0x02\n      swap1\n      sload\n      swap1\n      0x0100\n      exp\n      swap1\n      div\n      0xffffffffffffffffffffffffffffffffffffffff\n      and\n        /* \"Taxpayer.sol\":7065:7085  spouse != address(0) */\n      0xffffffffffffffffffffffffffffffffffffffff\n      and\n      eq\n      iszero\n        /* \"Taxpayer.sol\":7065:7098  spouse != address(0) || isMarried */\n      dup1\n      tag_312\n      jumpi\n      pop\n        /* \"Taxpayer.sol\":7089:7098  isMarried */\n      0x01\n      0x00\n      swap1\n      sload\n      swap1\n      0x0100\n      exp\n      swap1\n      div\n      0xff\n      and\n        /* \"Taxpayer.sol\":7065:7098  spouse != address(0) || isMarried */\n    tag_312:\n        /* \"Taxpayer.sol\":7062:7158  if(spouse != address(0) || isMarried) {... */\n      iszero\n      tag_313\n      jumpi\n        /* \"Taxpayer.sol\":7115:7119  true */\n      0x01\n        /* \"Taxpayer.sol\":7108:7119  return true */\n      swap1\n      pop\n      jump(tag_311)\n        /* \"Taxpayer.sol\":7062:7158  if(spouse != address(0) || isMarried) {... */\n    tag_313:\n        /* \"Taxpayer.sol\":7187:7214  determineDefaultAllowance() */\n      tag_314\n        /* \"Taxpayer.sol\":7187:7212  determineDefaultAllowance */\n      tag_231\n        /* \"Taxpayer.sol\":7187:7214  determineDefaultAllowance() */\n      jump\t// in\n    tag_314:\n        /* \"Taxpayer.sol\":7170:7183  tax_allowance */\n      sload(0x04)\n        /* \"Taxpayer.sol\":7170:7214  tax_allowance == determineDefaultAllowance() */\n      eq\n        /* \"Taxpayer.sol\":7163:7214  return tax_allowance == determineDefaultAllowance() */\n      swap1\n      pop\n        /* \"Taxpayer.sol\":6972:7219  function echidna_age_allowance_base_consistency_single() public view returns (bool) {... */\n    tag_311:\n      swap1\n      jump\t// out\n        /* \"Taxpayer.sol\":2117:3705  function marry(address new_spouse) public onlyOwner {... */\n    tag_122:\n        /* \"Taxpayer.sol\":2003:2008  owner */\n      immutable(\"0x7d94b1fd5befe75fac04677148728067a5c7750c4535d59cf8d692301dae078c\")\n        /* \"Taxpayer.sol\":1989:2008  msg.sender == owner */\n      0xffffffffffffffffffffffffffffffffffffffff\n      and\n        /* \"Taxpayer.sol\":1989:1999  msg.sender */\n      caller\n        /* \"Taxpayer.sol\":1989:2008  msg.sender == owner */\n      0xffffffffffffffffffffffffffffffffffffffff\n      and\n      eq\n        /* \"Taxpayer.sol\":1981:2023  require(msg.sender == owner, \"Only owner\") */\n      tag_316\n      jumpi\n      mload(0x40)\n      0x08c379a000000000000000000000000000000000000000000000000000000000\n      dup2\n      mstore\n      0x04\n      add\n      tag_317\n      swap1\n      tag_174\n      jump\t// in\n    tag_317:\n      mload(0x40)\n      dup1\n      swap2\n      sub\n      swap1\n      revert\n    tag_316:\n        /* \"Taxpayer.sol\":2182:2191  isMarried */\n      0x01\n      0x00\n      swap1\n      sload\n      swap1\n      0x0100\n      exp\n      swap1\n      div\n      0xff\n      and\n        /* \"Taxpayer.sol\":2181:2191  !isMarried */\n      iszero\n        /* \"Taxpayer.sol\":2173:2216  require(!isMarried, \"I am already married\") */\n      tag_319\n      jumpi\n      mload(0x40)\n      0x08c379a000000000000000000000000000000000000000000000000000000000\n      dup2\n      mstore\n      0x04\n      add\n      tag_320\n      swap1\n      tag_321\n      jump\t// in\n    tag_320:\n      mload(0x40)\n      dup1\n      swap2\n      sub\n      swap1\n      revert\n    tag_319:\n        /* \"Taxpayer.sol\":2250:2251  0 */\n      0x00\n        /* \"Taxpayer.sol\":2228:2252  new_spouse != address(0) */\n      0xffffffffffffffffffffffffffffffffffffffff\n      and\n        /* \"Taxpayer.sol\":2228:2238  new_spouse */\n      dup2\n        /* \"Taxpayer.sol\":2228:2252  new_spouse != address(0) */\n      0xffffffffffffffffffffffffffffffffffffffff\n      and\n      sub\n        /* \"Taxpayer.sol\":2220:2286  require(new_spouse != address(0), \"Spouse cannot be zero address\") */\n      tag_322\n      jumpi\n      mload(0x40)\n      0x08c379a000000000000000000000000000000000000000000000000000000000\n      dup2\n      mstore\n      0x04\n      add\n      tag_323\n      swap1\n      tag_324\n      jump\t// in\n    tag_323:\n      mload(0x40)\n      dup1\n      swap2\n      sub\n      swap1\n      revert\n    tag_322:\n        /* \"Taxpayer.sol\":2320:2324  this */\n      address\n        /* \"Taxpayer.sol\":2298:2325  new_spouse != address(this) */\n      0xffffffffffffffffffffffffffffffffffffffff\n      and\n        /* \"Taxpayer.sol\":2298:2308  new_spouse */\n      dup2\n        /* \"Taxpayer.sol\":2298:2325  new_spouse != address(this) */\n      0xffffffffffffffffffffffffffffffffffffffff\n      and\n      sub\n        /* \"Taxpayer.sol\":2290:2349  require(new_spouse != address(this), \"Cannot marry myself\") */\n      tag_325\n      jumpi\n      mload(0x40)\n      0x08c379a000000000000000000000000000000000000000000000000000000000\n      dup2\n      mstore\n      0x04\n      add\n      tag_326\n      swap1\n      tag_327\n      jump\t// in\n    tag_326:\n      mload(0x40)\n      dup1\n      swap2\n      sub\n      swap1\n      revert\n    tag_325:\n        /* \"Taxpayer.sol\":2389:2390  0 */\n      0x00\n        /* \"Taxpayer.sol\":2364:2374  new_spouse */\n      dup2\n        /* \"Taxpayer.sol\":2364:2386  new_spouse.code.length */\n      0xffffffffffffffffffffffffffffffffffffffff\n      and\n      extcodesize\n        /* \"Taxpayer.sol\":2364:2390  new_spouse.code.length > 0 */\n      gt\n        /* \"Taxpayer.sol\":2356:2420  require(new_spouse.code.length > 0, \"Spouse must be a contract\") */\n      tag_328\n      jumpi\n      mload(0x40)\n      0x08c379a000000000000000000000000000000000000000000000000000000000\n      dup2\n      mstore\n      0x04\n      add\n      tag_329\n      swap1\n      tag_330\n      jump\t// in\n    tag_329:\n      mload(0x40)\n      dup1\n      swap2\n      sub\n      swap1\n      revert\n    tag_328:\n        /* \"Taxpayer.sol\":2552:2571  bool partnerMarried */\n      0x00\n        /* \"Taxpayer.sol\":2588:2598  new_spouse */\n      dup2\n        /* \"Taxpayer.sol\":2579:2612  Taxpayer(new_spouse).getIsMarried */\n      0xffffffffffffffffffffffffffffffffffffffff\n      and\n      0x8bc87745\n        /* \"Taxpayer.sol\":2579:2614  Taxpayer(new_spouse).getIsMarried() */\n      mload(0x40)\n      dup2\n      0xffffffff\n      and\n      0xe0\n      shl\n      dup2\n      mstore\n      0x04\n      add\n      0x20\n      mload(0x40)\n      dup1\n      dup4\n      sub\n      dup2\n      dup7\n      gas\n      staticcall\n      swap3\n      pop\n      pop\n      pop\n      dup1\n      iszero\n      tag_331\n      jumpi\n      pop\n      mload(0x40)\n      returndatasize\n      not(0x1f)\n      0x1f\n      dup3\n      add\n      and\n      dup3\n      add\n      dup1\n      0x40\n      mstore\n      pop\n      dup2\n      add\n      swap1\n      tag_332\n      swap2\n      swap1\n      tag_163\n      jump\t// in\n    tag_332:\n      0x01\n    tag_331:\n        /* \"Taxpayer.sol\":2575:2712  try Taxpayer(new_spouse).getIsMarried() returns (bool pm) {... */\n      tag_333\n      jumpi\n        /* \"Taxpayer.sol\":2676:2707  revert(\"Spouse not compatible\") */\n      mload(0x40)\n      0x08c379a000000000000000000000000000000000000000000000000000000000\n      dup2\n      mstore\n      0x04\n      add\n      tag_337\n      swap1\n      tag_338\n      jump\t// in\n    tag_337:\n      mload(0x40)\n      dup1\n      swap2\n      sub\n      swap1\n      revert\n        /* \"Taxpayer.sol\":2575:2712  try Taxpayer(new_spouse).getIsMarried() returns (bool pm) {... */\n    tag_333:\n        /* \"Taxpayer.sol\":2656:2658  pm */\n      dup1\n        /* \"Taxpayer.sol\":2639:2658  partnerMarried = pm */\n      swap2\n      pop\n        /* \"Taxpayer.sol\":2615:2663  returns (bool pm) {... */\n      pop\n        /* \"Taxpayer.sol\":2724:2738  partnerMarried */\n      dup1\n        /* \"Taxpayer.sol\":2723:2738  !partnerMarried */\n      iszero\n        /* \"Taxpayer.sol\":2715:2765  require(!partnerMarried, \"Spouse already married\") */\n      tag_340\n      jumpi\n      mload(0x40)\n      0x08c379a000000000000000000000000000000000000000000000000000000000\n      dup2\n      mstore\n      0x04\n      add\n      tag_341\n      swap1\n      tag_342\n      jump\t// in\n    tag_341:\n      mload(0x40)\n      dup1\n      swap2\n      sub\n      swap1\n      revert\n    tag_340:\n        /* \"Taxpayer.sol\":2770:2787  address oldSpouse */\n      0x00\n        /* \"Taxpayer.sol\":2790:2796  spouse */\n      0x01\n      0x02\n      swap1\n      sload\n      swap1\n      0x0100\n      exp\n      swap1\n      div\n      0xffffffffffffffffffffffffffffffffffffffff\n      and\n        /* \"Taxpayer.sol\":2770:2796  address oldSpouse = spouse */\n      swap1\n      pop\n        /* \"Taxpayer.sol\":2800:2822  address newSpouseLocal */\n      0x00\n        /* \"Taxpayer.sol\":2826:2836  new_spouse */\n      dup4\n        /* \"Taxpayer.sol\":2800:2836  address newSpouseLocal =  new_spouse */\n      swap1\n      pop\n        /* \"Taxpayer.sol\":2840:2860  uint oldTaxAllowance */\n      0x00\n        /* \"Taxpayer.sol\":2874:2888  newSpouseLocal */\n      dup2\n        /* \"Taxpayer.sol\":2865:2871  spouse */\n      0x01\n      0x02\n        /* \"Taxpayer.sol\":2865:2888  spouse = newSpouseLocal */\n      0x0100\n      exp\n      dup2\n      sload\n      dup2\n      0xffffffffffffffffffffffffffffffffffffffff\n      mul\n      not\n      and\n      swap1\n      dup4\n      0xffffffffffffffffffffffffffffffffffffffff\n      and\n      mul\n      or\n      swap1\n      sstore\n      pop\n        /* \"Taxpayer.sol\":2904:2908  true */\n      0x01\n        /* \"Taxpayer.sol\":2892:2901  isMarried */\n      dup1\n      0x00\n        /* \"Taxpayer.sol\":2892:2908  isMarried = true */\n      0x0100\n      exp\n      dup2\n      sload\n      dup2\n      0xff\n      mul\n      not\n      and\n      swap1\n      dup4\n      iszero\n      iszero\n      mul\n      or\n      swap1\n      sstore\n      pop\n        /* \"Taxpayer.sol\":2928:2955  determineDefaultAllowance() */\n      tag_343\n        /* \"Taxpayer.sol\":2928:2953  determineDefaultAllowance */\n      tag_231\n        /* \"Taxpayer.sol\":2928:2955  determineDefaultAllowance() */\n      jump\t// in\n    tag_343:\n        /* \"Taxpayer.sol\":2912:2925  tax_allowance */\n      0x04\n        /* \"Taxpayer.sol\":2912:2955  tax_allowance = determineDefaultAllowance() */\n      dup2\n      swap1\n      sstore\n      pop\n        /* \"Taxpayer.sol\":3085:3091  spouse */\n      0x01\n      0x02\n      swap1\n      sload\n      swap1\n      0x0100\n      exp\n      swap1\n      div\n      0xffffffffffffffffffffffffffffffffffffffff\n      and\n        /* \"Taxpayer.sol\":3076:3118  Taxpayer(spouse).updateMarriageFromPartner */\n      0xffffffffffffffffffffffffffffffffffffffff\n      and\n      0xcb01a92b\n        /* \"Taxpayer.sol\":3127:3131  this */\n      address\n        /* \"Taxpayer.sol\":3076:3133  Taxpayer(spouse).updateMarriageFromPartner(address(this)) */\n      mload(0x40)\n      dup3\n      0xffffffff\n      and\n      0xe0\n      shl\n      dup2\n      mstore\n      0x04\n      add\n      tag_344\n      swap2\n      swap1\n      tag_50\n      jump\t// in\n    tag_344:\n      0x00\n      mload(0x40)\n      dup1\n      dup4\n      sub\n      dup2\n      0x00\n      dup8\n      dup1\n      extcodesize\n      iszero\n      dup1\n      iszero\n      tag_345\n      jumpi\n      revert(0x00, 0x00)\n    tag_345:\n      pop\n      gas\n      call\n      swap3\n      pop\n      pop\n      pop\n      dup1\n      iszero\n      tag_346\n      jumpi\n      pop\n      0x01\n    tag_346:\n        /* \"Taxpayer.sol\":3072:3324  try Taxpayer(spouse).updateMarriageFromPartner(address(this)) {... */\n      tag_347\n      jumpi\n        /* \"Taxpayer.sol\":3210:3219  oldSpouse */\n      dup3\n        /* \"Taxpayer.sol\":3201:3207  spouse */\n      0x01\n      0x02\n        /* \"Taxpayer.sol\":3201:3219  spouse = oldSpouse */\n      0x0100\n      exp\n      dup2\n      sload\n      dup2\n      0xffffffffffffffffffffffffffffffffffffffff\n      mul\n      not\n      and\n      swap1\n      dup4\n      0xffffffffffffffffffffffffffffffffffffffff\n      and\n      mul\n      or\n      swap1\n      sstore\n      pop\n        /* \"Taxpayer.sol\":3237:3242  false */\n      0x00\n        /* \"Taxpayer.sol\":3225:3234  isMarried */\n      0x01\n      0x00\n        /* \"Taxpayer.sol\":3225:3242  isMarried = false */\n      0x0100\n      exp\n      dup2\n      sload\n      dup2\n      0xff\n      mul\n      not\n      and\n      swap1\n      dup4\n      iszero\n      iszero\n      mul\n      or\n      swap1\n      sstore\n      pop\n        /* \"Taxpayer.sol\":3264:3279  oldTaxAllowance */\n      dup1\n        /* \"Taxpayer.sol\":3248:3261  tax_allowance */\n      0x04\n        /* \"Taxpayer.sol\":3248:3279  tax_allowance = oldTaxAllowance */\n      dup2\n      swap1\n      sstore\n      pop\n        /* \"Taxpayer.sol\":3285:3319  revert(\"Failed to update partner\") */\n      mload(0x40)\n      0x08c379a000000000000000000000000000000000000000000000000000000000\n      dup2\n      mstore\n      0x04\n      add\n      tag_351\n      swap1\n      tag_352\n      jump\t// in\n    tag_351:\n      mload(0x40)\n      dup1\n      swap2\n      sub\n      swap1\n      revert\n        /* \"Taxpayer.sol\":3072:3324  try Taxpayer(spouse).updateMarriageFromPartner(address(this)) {... */\n    tag_347:\n        /* \"Taxpayer.sol\":3375:3389  newSpouseLocal */\n      dup2\n        /* \"Taxpayer.sol\":3366:3406  Taxpayer(newSpouseLocal).setTaxAllowance */\n      0xffffffffffffffffffffffffffffffffffffffff\n      and\n      0x25803d64\n        /* \"Taxpayer.sol\":3416:3430  newSpouseLocal */\n      dup4\n        /* \"Taxpayer.sol\":3407:3451  Taxpayer(newSpouseLocal).getDefaultAllowance */\n      0xffffffffffffffffffffffffffffffffffffffff\n      and\n      0x594db753\n        /* \"Taxpayer.sol\":3407:3453  Taxpayer(newSpouseLocal).getDefaultAllowance() */\n      mload(0x40)\n      dup2\n      0xffffffff\n      and\n      0xe0\n      shl\n      dup2\n      mstore\n      0x04\n      add\n      0x20\n      mload(0x40)\n      dup1\n      dup4\n      sub\n      dup2\n      dup7\n      gas\n      staticcall\n      iszero\n      dup1\n      iszero\n      tag_355\n      jumpi\n      returndatacopy(0x00, 0x00, returndatasize)\n      revert(0x00, returndatasize)\n    tag_355:\n      pop\n      pop\n      pop\n      pop\n      mload(0x40)\n      returndatasize\n      not(0x1f)\n      0x1f\n      dup3\n      add\n      and\n      dup3\n      add\n      dup1\n      0x40\n      mstore\n      pop\n      dup2\n      add\n      swap1\n      tag_356\n      swap2\n      swap1\n      tag_357\n      jump\t// in\n    tag_356:\n        /* \"Taxpayer.sol\":3366:3454  Taxpayer(newSpouseLocal).setTaxAllowance(Taxpayer(newSpouseLocal).getDefaultAllowance()) */\n      mload(0x40)\n      dup3\n      0xffffffff\n      and\n      0xe0\n      shl\n      dup2\n      mstore\n      0x04\n      add\n      tag_358\n      swap2\n      swap1\n      tag_78\n      jump\t// in\n    tag_358:\n      0x00\n      mload(0x40)\n      dup1\n      dup4\n      sub\n      dup2\n      0x00\n      dup8\n      dup1\n      extcodesize\n      iszero\n      dup1\n      iszero\n      tag_359\n      jumpi\n      revert(0x00, 0x00)\n    tag_359:\n      pop\n      gas\n      call\n      swap3\n      pop\n      pop\n      pop\n      dup1\n      iszero\n      tag_360\n      jumpi\n      pop\n      0x01\n    tag_360:\n        /* \"Taxpayer.sol\":3362:3652  try Taxpayer(newSpouseLocal).setTaxAllowance(Taxpayer(newSpouseLocal).getDefaultAllowance()) {... */\n      tag_361\n      jumpi\n        /* \"Taxpayer.sol\":3531:3540  oldSpouse */\n      dup3\n        /* \"Taxpayer.sol\":3522:3528  spouse */\n      0x01\n      0x02\n        /* \"Taxpayer.sol\":3522:3540  spouse = oldSpouse */\n      0x0100\n      exp\n      dup2\n      sload\n      dup2\n      0xffffffffffffffffffffffffffffffffffffffff\n      mul\n      not\n      and\n      swap1\n      dup4\n      0xffffffffffffffffffffffffffffffffffffffff\n      and\n      mul\n      or\n      swap1\n      sstore\n      pop\n        /* \"Taxpayer.sol\":3558:3563  false */\n      0x00\n        /* \"Taxpayer.sol\":3546:3555  isMarried */\n      0x01\n      0x00\n        /* \"Taxpayer.sol\":3546:3563  isMarried = false */\n      0x0100\n      exp\n      dup2\n      sload\n      dup2\n      0xff\n      mul\n      not\n      and\n      swap1\n      dup4\n      iszero\n      iszero\n      mul\n      or\n      swap1\n      sstore\n      pop\n        /* \"Taxpayer.sol\":3585:3600  oldTaxAllowance */\n      dup1\n        /* \"Taxpayer.sol\":3569:3582  tax_allowance */\n      0x04\n        /* \"Taxpayer.sol\":3569:3600  tax_allowance = oldTaxAllowance */\n      dup2\n      swap1\n      sstore\n      pop\n        /* \"Taxpayer.sol\":3606:3647  revert(\"Failed to set partner allowance\") */\n      mload(0x40)\n      0x08c379a000000000000000000000000000000000000000000000000000000000\n      dup2\n      mstore\n      0x04\n      add\n      tag_365\n      swap1\n      tag_366\n      jump\t// in\n    tag_365:\n      mload(0x40)\n      dup1\n      swap2\n      sub\n      swap1\n      revert\n        /* \"Taxpayer.sol\":3362:3652  try Taxpayer(newSpouseLocal).setTaxAllowance(Taxpayer(newSpouseLocal).getDefaultAllowance()) {... */\n    tag_361:\n        /* \"Taxpayer.sol\":3685:3699  newSpouseLocal */\n      dup2\n        /* \"Taxpayer.sol\":3662:3700  Married(address(this), newSpouseLocal) */\n      0xffffffffffffffffffffffffffffffffffffffff\n      and\n        /* \"Taxpayer.sol\":3678:3682  this */\n      address\n        /* \"Taxpayer.sol\":3662:3700  Married(address(this), newSpouseLocal) */\n      0xffffffffffffffffffffffffffffffffffffffff\n      and\n      0xc89ef770a4ad395ebdc22b63de541b88daf19f335056f203fa06e4154b62bb7b\n      mload(0x40)\n      mload(0x40)\n      dup1\n      swap2\n      sub\n      swap1\n      log3\n        /* \"Taxpayer.sol\":2169:3705  {... */\n      pop\n      pop\n      pop\n      pop\n        /* \"Taxpayer.sol\":2117:3705  function marry(address new_spouse) public onlyOwner {... */\n      pop\n      jump\t// out\n        /* \"Taxpayer.sol\":11107:11191  function getTaxAllowance() public view returns(uint) {... */\n    tag_124:\n        /* \"Taxpayer.sol\":11154:11158  uint */\n      0x00\n        /* \"Taxpayer.sol\":11173:11186  tax_allowance */\n      sload(0x04)\n        /* \"Taxpayer.sol\":11166:11186  return tax_allowance */\n      swap1\n      pop\n        /* \"Taxpayer.sol\":11107:11191  function getTaxAllowance() public view returns(uint) {... */\n      swap1\n      jump\t// out\n        /* \"Taxpayer.sol\":6361:6493  function echidna_taxable_non_negative() public view returns (bool) {... */\n    tag_127:\n        /* \"Taxpayer.sol\":6422:6426  bool */\n      0x00\n        /* \"Taxpayer.sol\":6460:6461  0 */\n      0x00\n        /* \"Taxpayer.sol\":6441:6456  taxableIncome() */\n      tag_370\n        /* \"Taxpayer.sol\":6441:6454  taxableIncome */\n      tag_76\n        /* \"Taxpayer.sol\":6441:6456  taxableIncome() */\n      jump\t// in\n    tag_370:\n        /* \"Taxpayer.sol\":6441:6461  taxableIncome() >= 0 */\n      lt\n      iszero\n        /* \"Taxpayer.sol\":6434:6461  return taxableIncome() >= 0 */\n      swap1\n      pop\n        /* \"Taxpayer.sol\":6361:6493  function echidna_taxable_non_negative() public view returns (bool) {... */\n      swap1\n      jump\t// out\n        /* \"Taxpayer.sol\":3758:3934  function updateMarriageFromPartner(address partner) public {... */\n    tag_131:\n        /* \"Taxpayer.sol\":3845:3852  partner */\n      dup1\n        /* \"Taxpayer.sol\":3831:3852  msg.sender == partner */\n      0xffffffffffffffffffffffffffffffffffffffff\n      and\n        /* \"Taxpayer.sol\":3831:3841  msg.sender */\n      caller\n        /* \"Taxpayer.sol\":3831:3852  msg.sender == partner */\n      0xffffffffffffffffffffffffffffffffffffffff\n      and\n      eq\n        /* \"Taxpayer.sol\":3823:3883  require(msg.sender == partner, \"Only partner can call this\") */\n      tag_372\n      jumpi\n      mload(0x40)\n      0x08c379a000000000000000000000000000000000000000000000000000000000\n      dup2\n      mstore\n      0x04\n      add\n      tag_373\n      swap1\n      tag_374\n      jump\t// in\n    tag_373:\n      mload(0x40)\n      dup1\n      swap2\n      sub\n      swap1\n      revert\n    tag_372:\n        /* \"Taxpayer.sol\":3889:3907  setSpouse(partner) */\n      tag_375\n        /* \"Taxpayer.sol\":3899:3906  partner */\n      dup2\n        /* \"Taxpayer.sol\":3889:3898  setSpouse */\n      tag_88\n        /* \"Taxpayer.sol\":3889:3907  setSpouse(partner) */\n      jump\t// in\n    tag_375:\n        /* \"Taxpayer.sol\":3925:3929  true */\n      0x01\n        /* \"Taxpayer.sol\":3913:3922  isMarried */\n      dup1\n      0x00\n        /* \"Taxpayer.sol\":3913:3929  isMarried = true */\n      0x0100\n      exp\n      dup2\n      sload\n      dup2\n      0xff\n      mul\n      not\n      and\n      swap1\n      dup4\n      iszero\n      iszero\n      mul\n      or\n      swap1\n      sstore\n      pop\n        /* \"Taxpayer.sol\":3758:3934  function updateMarriageFromPartner(address partner) public {... */\n      pop\n      jump\t// out\n        /* \"Taxpayer.sol\":9204:9470  function echidna_rev_reset_after_reveal() public view returns(bool) {... */\n    tag_133:\n        /* \"Taxpayer.sol\":9266:9270  bool */\n      0x00\n        /* \"Taxpayer.sol\":9352:9361  committed */\n      0x07\n      0x00\n      swap1\n      sload\n      swap1\n      0x0100\n      exp\n      swap1\n      div\n      0xff\n      and\n        /* \"Taxpayer.sol\":9349:9466  if(committed) {... */\n      iszero\n      tag_377\n      jumpi\n        /* \"Taxpayer.sol\":9385:9386  0 */\n      0x00\n        /* \"Taxpayer.sol\":9378:9381  rev */\n      sload(0x06)\n        /* \"Taxpayer.sol\":9378:9386  rev != 0 */\n      eq\n      iszero\n        /* \"Taxpayer.sol\":9371:9386  return rev != 0 */\n      swap1\n      pop\n      jump(tag_376)\n        /* \"Taxpayer.sol\":9349:9466  if(committed) {... */\n    tag_377:\n        /* \"Taxpayer.sol\":9421:9422  0 */\n      0x00\n        /* \"Taxpayer.sol\":9414:9417  rev */\n      sload(0x06)\n        /* \"Taxpayer.sol\":9414:9422  rev == 0 */\n      eq\n        /* \"Taxpayer.sol\":9407:9422  return rev == 0 */\n      swap1\n      pop\n        /* \"Taxpayer.sol\":9204:9470  function echidna_rev_reset_after_reveal() public view returns(bool) {... */\n    tag_376:\n      swap1\n      jump\t// out\n        /* \"Taxpayer.sol\":4827:4957  function setTaxAllowanceBySpouse(uint ta) public {... */\n    tag_137:\n        /* \"Taxpayer.sol\":4902:4908  spouse */\n      0x01\n      0x02\n      swap1\n      sload\n      swap1\n      0x0100\n      exp\n      swap1\n      div\n      0xffffffffffffffffffffffffffffffffffffffff\n      and\n        /* \"Taxpayer.sol\":4888:4908  msg.sender == spouse */\n      0xffffffffffffffffffffffffffffffffffffffff\n      and\n        /* \"Taxpayer.sol\":4888:4898  msg.sender */\n      caller\n        /* \"Taxpayer.sol\":4888:4908  msg.sender == spouse */\n      0xffffffffffffffffffffffffffffffffffffffff\n      and\n      eq\n        /* \"Taxpayer.sol\":4880:4932  require(msg.sender == spouse, \"Only spouse can set\") */\n      tag_380\n      jumpi\n      mload(0x40)\n      0x08c379a000000000000000000000000000000000000000000000000000000000\n      dup2\n      mstore\n      0x04\n      add\n      tag_381\n      swap1\n      tag_382\n      jump\t// in\n    tag_381:\n      mload(0x40)\n      dup1\n      swap2\n      sub\n      swap1\n      revert\n    tag_380:\n        /* \"Taxpayer.sol\":4952:4954  ta */\n      dup1\n        /* \"Taxpayer.sol\":4936:4949  tax_allowance */\n      0x04\n        /* \"Taxpayer.sol\":4936:4954  tax_allowance = ta */\n      dup2\n      swap1\n      sstore\n      pop\n        /* \"Taxpayer.sol\":4827:4957  function setTaxAllowanceBySpouse(uint ta) public {... */\n      pop\n      jump\t// out\n        /* \"Taxpayer.sol\":7293:8544  function echidna_spousal_allowance_sum_constant() public view returns (bool) {... */\n    tag_139:\n        /* \"Taxpayer.sol\":7364:7368  bool */\n      0x00\n        /* \"Taxpayer.sol\":7381:7390  isMarried */\n      0x01\n      0x00\n      swap1\n      sload\n      swap1\n      0x0100\n      exp\n      swap1\n      div\n      0xff\n      and\n        /* \"Taxpayer.sol\":7380:7390  !isMarried */\n      iszero\n        /* \"Taxpayer.sol\":7380:7414  !isMarried || spouse == address(0) */\n      dup1\n      tag_384\n      jumpi\n      pop\n        /* \"Taxpayer.sol\":7412:7413  0 */\n      0x00\n        /* \"Taxpayer.sol\":7394:7414  spouse == address(0) */\n      0xffffffffffffffffffffffffffffffffffffffff\n      and\n        /* \"Taxpayer.sol\":7394:7400  spouse */\n      0x01\n      0x02\n      swap1\n      sload\n      swap1\n      0x0100\n      exp\n      swap1\n      div\n      0xffffffffffffffffffffffffffffffffffffffff\n      and\n        /* \"Taxpayer.sol\":7394:7414  spouse == address(0) */\n      0xffffffffffffffffffffffffffffffffffffffff\n      and\n      eq\n        /* \"Taxpayer.sol\":7380:7414  !isMarried || spouse == address(0) */\n    tag_384:\n        /* \"Taxpayer.sol\":7377:7463  if(!isMarried || spouse == address(0)) {... */\n      iszero\n      tag_385\n      jumpi\n        /* \"Taxpayer.sol\":7431:7435  true */\n      0x01\n        /* \"Taxpayer.sol\":7424:7435  return true */\n      swap1\n      pop\n      jump(tag_383)\n        /* \"Taxpayer.sol\":7377:7463  if(!isMarried || spouse == address(0)) {... */\n    tag_385:\n        /* \"Taxpayer.sol\":7469:7483  uint myCurrent */\n      0x00\n        /* \"Taxpayer.sol\":7486:7499  tax_allowance */\n      sload(0x04)\n        /* \"Taxpayer.sol\":7469:7499  uint myCurrent = tax_allowance */\n      swap1\n      pop\n        /* \"Taxpayer.sol\":7505:7521  Taxpayer partner */\n      0x00\n        /* \"Taxpayer.sol\":7533:7539  spouse */\n      0x01\n      0x02\n      swap1\n      sload\n      swap1\n      0x0100\n      exp\n      swap1\n      div\n      0xffffffffffffffffffffffffffffffffffffffff\n      and\n        /* \"Taxpayer.sol\":7505:7540  Taxpayer partner = Taxpayer(spouse) */\n      swap1\n      pop\n        /* \"Taxpayer.sol\":7547:7566  uint partnerCurrent */\n      0x00\n        /* \"Taxpayer.sol\":7572:7591  uint partnerInitial */\n      0x00\n        /* \"Taxpayer.sol\":7597:7613  uint partnerBase */\n      0x00\n        /* \"Taxpayer.sol\":7670:7677  partner */\n      dup4\n        /* \"Taxpayer.sol\":7670:7693  partner.getTaxAllowance */\n      0xffffffffffffffffffffffffffffffffffffffff\n      and\n      0xc043decc\n        /* \"Taxpayer.sol\":7670:7695  partner.getTaxAllowance() */\n      mload(0x40)\n      dup2\n      0xffffffff\n      and\n      0xe0\n      shl\n      dup2\n      mstore\n      0x04\n      add\n      0x20\n      mload(0x40)\n      dup1\n      dup4\n      sub\n      dup2\n      dup7\n      gas\n      staticcall\n      swap3\n      pop\n      pop\n      pop\n      dup1\n      iszero\n      tag_386\n      jumpi\n      pop\n      mload(0x40)\n      returndatasize\n      not(0x1f)\n      0x1f\n      dup3\n      add\n      and\n      dup3\n      add\n      dup1\n      0x40\n      mstore\n      pop\n      dup2\n      add\n      swap1\n      tag_387\n      swap2\n      swap1\n      tag_357\n      jump\t// in\n    tag_387:\n      0x01\n    tag_386:\n        /* \"Taxpayer.sol\":7666:7823  try partner.getTaxAllowance() returns (uint pc) {... */\n      tag_388\n      jumpi\n        /* \"Taxpayer.sol\":7770:7775  false */\n      0x00\n        /* \"Taxpayer.sol\":7763:7775  return false */\n      swap6\n      pop\n      pop\n      pop\n      pop\n      pop\n      pop\n      jump(tag_383)\n        /* \"Taxpayer.sol\":7666:7823  try partner.getTaxAllowance() returns (uint pc) {... */\n    tag_388:\n        /* \"Taxpayer.sol\":7739:7741  pc */\n      dup1\n        /* \"Taxpayer.sol\":7722:7741  partnerCurrent = pc */\n      swap4\n      pop\n        /* \"Taxpayer.sol\":7696:7748  returns (uint pc) {... */\n      pop\n        /* \"Taxpayer.sol\":7882:7889  partner */\n      dup4\n        /* \"Taxpayer.sol\":7882:7912  partner.getInitialTaxAllowance */\n      0xffffffffffffffffffffffffffffffffffffffff\n      and\n      0x6aa393f8\n        /* \"Taxpayer.sol\":7882:7914  partner.getInitialTaxAllowance() */\n      mload(0x40)\n      dup2\n      0xffffffff\n      and\n      0xe0\n      shl\n      dup2\n      mstore\n      0x04\n      add\n      0x20\n      mload(0x40)\n      dup1\n      dup4\n      sub\n      dup2\n      dup7\n      gas\n      staticcall\n      swap3\n      pop\n      pop\n      pop\n      dup1\n      iszero\n      tag_393\n      jumpi\n      pop\n      mload(0x40)\n      returndatasize\n      not(0x1f)\n      0x1f\n      dup3\n      add\n      and\n      dup3\n      add\n      dup1\n      0x40\n      mstore\n      pop\n      dup2\n      add\n      swap1\n      tag_394\n      swap2\n      swap1\n      tag_357\n      jump\t// in\n    tag_394:\n      0x01\n    tag_393:\n        /* \"Taxpayer.sol\":7878:8001  try partner.getInitialTaxAllowance() returns (uint pi) {... */\n      tag_395\n      jumpi\n        /* \"Taxpayer.sol\":7989:7994  false */\n      0x00\n        /* \"Taxpayer.sol\":7982:7994  return false */\n      swap6\n      pop\n      pop\n      pop\n      pop\n      pop\n      pop\n      jump(tag_383)\n        /* \"Taxpayer.sol\":7878:8001  try partner.getInitialTaxAllowance() returns (uint pi) {... */\n    tag_395:\n        /* \"Taxpayer.sol\":7958:7960  pi */\n      dup1\n        /* \"Taxpayer.sol\":7941:7960  partnerInitial = pi */\n      swap3\n      pop\n        /* \"Taxpayer.sol\":7915:7967  returns (uint pi) {... */\n      pop\n        /* \"Taxpayer.sol\":8080:8087  partner */\n      dup4\n        /* \"Taxpayer.sol\":8080:8107  partner.getDefaultAllowance */\n      0xffffffffffffffffffffffffffffffffffffffff\n      and\n      0x594db753\n        /* \"Taxpayer.sol\":8080:8109  partner.getDefaultAllowance() */\n      mload(0x40)\n      dup2\n      0xffffffff\n      and\n      0xe0\n      shl\n      dup2\n      mstore\n      0x04\n      add\n      0x20\n      mload(0x40)\n      dup1\n      dup4\n      sub\n      dup2\n      dup7\n      gas\n      staticcall\n      swap3\n      pop\n      pop\n      pop\n      dup1\n      iszero\n      tag_400\n      jumpi\n      pop\n      mload(0x40)\n      returndatasize\n      not(0x1f)\n      0x1f\n      dup3\n      add\n      and\n      dup3\n      add\n      dup1\n      0x40\n      mstore\n      pop\n      dup2\n      add\n      swap1\n      tag_401\n      swap2\n      swap1\n      tag_357\n      jump\t// in\n    tag_401:\n      0x01\n    tag_400:\n        /* \"Taxpayer.sol\":8076:8193  try partner.getDefaultAllowance() returns (uint pb) {... */\n      tag_402\n      jumpi\n        /* \"Taxpayer.sol\":8181:8186  false */\n      0x00\n        /* \"Taxpayer.sol\":8174:8186  return false */\n      swap6\n      pop\n      pop\n      pop\n      pop\n      pop\n      pop\n      jump(tag_383)\n        /* \"Taxpayer.sol\":8076:8193  try partner.getDefaultAllowance() returns (uint pb) {... */\n    tag_402:\n        /* \"Taxpayer.sol\":8150:8152  pb */\n      dup1\n        /* \"Taxpayer.sol\":8136:8152  partnerBase = pb */\n      swap2\n      pop\n        /* \"Taxpayer.sol\":8110:8159  returns (uint pb) {... */\n      pop\n        /* \"Taxpayer.sol\":8199:8210  uint myBase */\n      0x00\n        /* \"Taxpayer.sol\":8213:8240  determineDefaultAllowance() */\n      tag_407\n        /* \"Taxpayer.sol\":8213:8238  determineDefaultAllowance */\n      tag_231\n        /* \"Taxpayer.sol\":8213:8240  determineDefaultAllowance() */\n      jump\t// in\n    tag_407:\n        /* \"Taxpayer.sol\":8199:8240  uint myBase = determineDefaultAllowance() */\n      swap1\n      pop\n        /* \"Taxpayer.sol\":8332:8349  bool checkInitial */\n      0x00\n        /* \"Taxpayer.sol\":8409:8423  partnerInitial */\n      dup4\n        /* \"Taxpayer.sol\":8385:8406  INITIAL_TAX_ALLOWANCE */\n      immutable(\"0xe54f8e4a5d17b2e4d97cb94ddb2a2b00b3620f93c06158e24f4515b3f1ad0dd8\")\n        /* \"Taxpayer.sol\":8385:8423  INITIAL_TAX_ALLOWANCE + partnerInitial */\n      tag_408\n      swap2\n      swap1\n      tag_215\n      jump\t// in\n    tag_408:\n        /* \"Taxpayer.sol\":8365:8379  partnerCurrent */\n      dup6\n        /* \"Taxpayer.sol\":8353:8362  myCurrent */\n      dup9\n        /* \"Taxpayer.sol\":8353:8379  myCurrent + partnerCurrent */\n      tag_409\n      swap2\n      swap1\n      tag_215\n      jump\t// in\n    tag_409:\n        /* \"Taxpayer.sol\":8352:8424  (myCurrent + partnerCurrent) == (INITIAL_TAX_ALLOWANCE + partnerInitial) */\n      eq\n        /* \"Taxpayer.sol\":8332:8424  bool checkInitial = (myCurrent + partnerCurrent) == (INITIAL_TAX_ALLOWANCE + partnerInitial) */\n      swap1\n      pop\n        /* \"Taxpayer.sol\":8430:8443  bool checkOAP */\n      0x00\n        /* \"Taxpayer.sol\":8488:8499  partnerBase */\n      dup4\n        /* \"Taxpayer.sol\":8479:8485  myBase */\n      dup4\n        /* \"Taxpayer.sol\":8479:8499  myBase + partnerBase */\n      tag_410\n      swap2\n      swap1\n      tag_215\n      jump\t// in\n    tag_410:\n        /* \"Taxpayer.sol\":8459:8473  partnerCurrent */\n      dup7\n        /* \"Taxpayer.sol\":8447:8456  myCurrent */\n      dup10\n        /* \"Taxpayer.sol\":8447:8473  myCurrent + partnerCurrent */\n      tag_411\n      swap2\n      swap1\n      tag_215\n      jump\t// in\n    tag_411:\n        /* \"Taxpayer.sol\":8446:8500  (myCurrent + partnerCurrent) <= (myBase + partnerBase) */\n      gt\n      iszero\n        /* \"Taxpayer.sol\":8430:8500  bool checkOAP = (myCurrent + partnerCurrent) <= (myBase + partnerBase) */\n      swap1\n      pop\n        /* \"Taxpayer.sol\":8514:8526  checkInitial */\n      dup2\n        /* \"Taxpayer.sol\":8514:8538  checkInitial && checkOAP */\n      dup1\n      iszero\n      tag_412\n      jumpi\n      pop\n        /* \"Taxpayer.sol\":8530:8538  checkOAP */\n      dup1\n        /* \"Taxpayer.sol\":8514:8538  checkInitial && checkOAP */\n    tag_412:\n        /* \"Taxpayer.sol\":8507:8538  return checkInitial && checkOAP */\n      swap9\n      pop\n      pop\n      pop\n      pop\n      pop\n      pop\n      pop\n      pop\n      pop\n        /* \"Taxpayer.sol\":7293:8544  function echidna_spousal_allowance_sum_constant() public view returns (bool) {... */\n    tag_383:\n      swap1\n      jump\t// out\n        /* \"Taxpayer.sol\":6198:6301  function echidna_not_self_spouse() public view returns (bool) {... */\n    tag_142:\n        /* \"Taxpayer.sol\":6254:6258  bool */\n      0x00\n        /* \"Taxpayer.sol\":6291:6295  this */\n      address\n        /* \"Taxpayer.sol\":6273:6296  spouse != address(this) */\n      0xffffffffffffffffffffffffffffffffffffffff\n      and\n        /* \"Taxpayer.sol\":6273:6279  spouse */\n      0x01\n      0x02\n      swap1\n      sload\n      swap1\n      0x0100\n      exp\n      swap1\n      div\n      0xffffffffffffffffffffffffffffffffffffffff\n      and\n        /* \"Taxpayer.sol\":6273:6296  spouse != address(this) */\n      0xffffffffffffffffffffffffffffffffffffffff\n      and\n      eq\n      iszero\n        /* \"Taxpayer.sol\":6266:6296  return spouse != address(this) */\n      swap1\n      pop\n        /* \"Taxpayer.sol\":6198:6301  function echidna_not_self_spouse() public view returns (bool) {... */\n      swap1\n      jump\t// out\n        /* \"Taxpayer.sol\":3939:4522  function divorce() public onlyOwner {... */\n    tag_145:\n        /* \"Taxpayer.sol\":2003:2008  owner */\n      immutable(\"0x7d94b1fd5befe75fac04677148728067a5c7750c4535d59cf8d692301dae078c\")\n        /* \"Taxpayer.sol\":1989:2008  msg.sender == owner */\n      0xffffffffffffffffffffffffffffffffffffffff\n      and\n        /* \"Taxpayer.sol\":1989:1999  msg.sender */\n      caller\n        /* \"Taxpayer.sol\":1989:2008  msg.sender == owner */\n      0xffffffffffffffffffffffffffffffffffffffff\n      and\n      eq\n        /* \"Taxpayer.sol\":1981:2023  require(msg.sender == owner, \"Only owner\") */\n      tag_415\n      jumpi\n      mload(0x40)\n      0x08c379a000000000000000000000000000000000000000000000000000000000\n      dup2\n      mstore\n      0x04\n      add\n      tag_416\n      swap1\n      tag_174\n      jump\t// in\n    tag_416:\n      mload(0x40)\n      dup1\n      swap2\n      sub\n      swap1\n      revert\n    tag_415:\n        /* \"Taxpayer.sol\":4044:4053  isMarried */\n      0x01\n      0x00\n      swap1\n      sload\n      swap1\n      0x0100\n      exp\n      swap1\n      div\n      0xff\n      and\n        /* \"Taxpayer.sol\":4036:4069  require(isMarried, \"Not married\") */\n      tag_418\n      jumpi\n      mload(0x40)\n      0x08c379a000000000000000000000000000000000000000000000000000000000\n      dup2\n      mstore\n      0x04\n      add\n      tag_419\n      swap1\n      tag_420\n      jump\t// in\n    tag_419:\n      mload(0x40)\n      dup1\n      swap2\n      sub\n      swap1\n      revert\n    tag_418:\n        /* \"Taxpayer.sol\":4073:4090  address oldSpouse */\n      0x00\n        /* \"Taxpayer.sol\":4093:4099  spouse */\n      0x01\n      0x02\n      swap1\n      sload\n      swap1\n      0x0100\n      exp\n      swap1\n      div\n      0xffffffffffffffffffffffffffffffffffffffff\n      and\n        /* \"Taxpayer.sol\":4073:4099  address oldSpouse = spouse */\n      swap1\n      pop\n        /* \"Taxpayer.sol\":4140:4141  0 */\n      0x00\n        /* \"Taxpayer.sol\":4123:4129  spouse */\n      0x01\n      0x02\n        /* \"Taxpayer.sol\":4123:4142  spouse = address(0) */\n      0x0100\n      exp\n      dup2\n      sload\n      dup2\n      0xffffffffffffffffffffffffffffffffffffffff\n      mul\n      not\n      and\n      swap1\n      dup4\n      0xffffffffffffffffffffffffffffffffffffffff\n      and\n      mul\n      or\n      swap1\n      sstore\n      pop\n        /* \"Taxpayer.sol\":4158:4163  false */\n      0x00\n        /* \"Taxpayer.sol\":4146:4155  isMarried */\n      0x01\n      0x00\n        /* \"Taxpayer.sol\":4146:4163  isMarried = false */\n      0x0100\n      exp\n      dup2\n      sload\n      dup2\n      0xff\n      mul\n      not\n      and\n      swap1\n      dup4\n      iszero\n      iszero\n      mul\n      or\n      swap1\n      sstore\n      pop\n        /* \"Taxpayer.sol\":4219:4246  determineDefaultAllowance() */\n      tag_421\n        /* \"Taxpayer.sol\":4219:4244  determineDefaultAllowance */\n      tag_231\n        /* \"Taxpayer.sol\":4219:4246  determineDefaultAllowance() */\n      jump\t// in\n    tag_421:\n        /* \"Taxpayer.sol\":4203:4216  tax_allowance */\n      0x04\n        /* \"Taxpayer.sol\":4203:4246  tax_allowance = determineDefaultAllowance() */\n      dup2\n      swap1\n      sstore\n      pop\n        /* \"Taxpayer.sol\":4331:4332  0 */\n      0x00\n        /* \"Taxpayer.sol\":4310:4333  oldSpouse != address(0) */\n      0xffffffffffffffffffffffffffffffffffffffff\n      and\n        /* \"Taxpayer.sol\":4310:4319  oldSpouse */\n      dup2\n        /* \"Taxpayer.sol\":4310:4333  oldSpouse != address(0) */\n      0xffffffffffffffffffffffffffffffffffffffff\n      and\n      eq\n      iszero\n        /* \"Taxpayer.sol\":4310:4362  oldSpouse != address(0) && oldSpouse.code.length > 0 */\n      dup1\n      iszero\n      tag_422\n      jumpi\n      pop\n        /* \"Taxpayer.sol\":4361:4362  0 */\n      0x00\n        /* \"Taxpayer.sol\":4337:4346  oldSpouse */\n      dup2\n        /* \"Taxpayer.sol\":4337:4358  oldSpouse.code.length */\n      0xffffffffffffffffffffffffffffffffffffffff\n      and\n      extcodesize\n        /* \"Taxpayer.sol\":4337:4362  oldSpouse.code.length > 0 */\n      gt\n        /* \"Taxpayer.sol\":4310:4362  oldSpouse != address(0) && oldSpouse.code.length > 0 */\n    tag_422:\n        /* \"Taxpayer.sol\":4307:4518  if(oldSpouse != address(0) && oldSpouse.code.length > 0) {... */\n      iszero\n      tag_423\n      jumpi\n        /* \"Taxpayer.sol\":4383:4392  oldSpouse */\n      dup1\n        /* \"Taxpayer.sol\":4374:4418  Taxpayer(oldSpouse).notifyDivorceFromPartner */\n      0xffffffffffffffffffffffffffffffffffffffff\n      and\n      0x38fb27ba\n        /* \"Taxpayer.sol\":4427:4431  this */\n      address\n        /* \"Taxpayer.sol\":4374:4433  Taxpayer(oldSpouse).notifyDivorceFromPartner(address(this)) */\n      mload(0x40)\n      dup3\n      0xffffffff\n      and\n      0xe0\n      shl\n      dup2\n      mstore\n      0x04\n      add\n      tag_424\n      swap2\n      swap1\n      tag_50\n      jump\t// in\n    tag_424:\n      0x00\n      mload(0x40)\n      dup1\n      dup4\n      sub\n      dup2\n      0x00\n      dup8\n      dup1\n      extcodesize\n      iszero\n      dup1\n      iszero\n      tag_425\n      jumpi\n      revert(0x00, 0x00)\n    tag_425:\n      pop\n      gas\n      call\n      swap3\n      pop\n      pop\n      pop\n      dup1\n      iszero\n      tag_426\n      jumpi\n      pop\n      0x01\n    tag_426:\n        /* \"Taxpayer.sol\":4370:4514  try Taxpayer(oldSpouse).notifyDivorceFromPartner(address(this)) {... */\n      tag_427\n      jumpi\n        /* \"Taxpayer.sol\":4473:4507  revert(\"Failed to notify partner\") */\n      mload(0x40)\n      0x08c379a000000000000000000000000000000000000000000000000000000000\n      dup2\n      mstore\n      0x04\n      add\n      tag_431\n      swap1\n      tag_432\n      jump\t// in\n    tag_431:\n      mload(0x40)\n      dup1\n      swap2\n      sub\n      swap1\n      revert\n        /* \"Taxpayer.sol\":4370:4514  try Taxpayer(oldSpouse).notifyDivorceFromPartner(address(this)) {... */\n    tag_427:\n        /* \"Taxpayer.sol\":4307:4518  if(oldSpouse != address(0) && oldSpouse.code.length > 0) {... */\n    tag_423:\n        /* \"Taxpayer.sol\":3975:4522  {... */\n      pop\n        /* \"Taxpayer.sol\":3939:4522  function divorce() public onlyOwner {... */\n      jump\t// out\n        /* \"Taxpayer.sol\":11196:11271  function isContract() public view returns(bool){... */\n    tag_147:\n        /* \"Taxpayer.sol\":11238:11242  bool */\n      0x00\n        /* \"Taxpayer.sol\":11256:11266  iscontract */\n      0x01\n      dup1\n      sload\n      swap1\n      0x0100\n      exp\n      swap1\n      div\n      0xff\n      and\n        /* \"Taxpayer.sol\":11249:11266  return iscontract */\n      swap1\n      pop\n        /* \"Taxpayer.sol\":11196:11271  function isContract() public view returns(bool){... */\n      swap1\n      jump\t// out\n        /* \"Taxpayer.sol\":10696:10937  function isAuthorizedContract(address a) internal view returns (bool) {... */\n    tag_200:\n        /* \"Taxpayer.sol\":10760:10764  bool */\n      0x00\n        /* \"Taxpayer.sol\":10792:10793  0 */\n      0x00\n        /* \"Taxpayer.sol\":10775:10776  a */\n      dup3\n        /* \"Taxpayer.sol\":10775:10788  a.code.length */\n      0xffffffffffffffffffffffffffffffffffffffff\n      and\n      extcodesize\n        /* \"Taxpayer.sol\":10775:10793  a.code.length == 0 */\n      sub\n        /* \"Taxpayer.sol\":10772:10822  if(a.code.length == 0) {... */\n      tag_436\n      jumpi\n        /* \"Taxpayer.sol\":10810:10815  false */\n      0x00\n        /* \"Taxpayer.sol\":10803:10815  return false */\n      swap1\n      pop\n      jump(tag_435)\n        /* \"Taxpayer.sol\":10772:10822  if(a.code.length == 0) {... */\n    tag_436:\n        /* \"Taxpayer.sol\":10840:10841  a */\n      dup2\n        /* \"Taxpayer.sol\":10832:10853  Lottery(a).isContract */\n      0xffffffffffffffffffffffffffffffffffffffff\n      and\n      0xf7ec2f35\n        /* \"Taxpayer.sol\":10832:10855  Lottery(a).isContract() */\n      mload(0x40)\n      dup2\n      0xffffffff\n      and\n      0xe0\n      shl\n      dup2\n      mstore\n      0x04\n      add\n      0x20\n      mload(0x40)\n      dup1\n      dup4\n      sub\n      dup2\n      dup7\n      gas\n      staticcall\n      swap3\n      pop\n      pop\n      pop\n      dup1\n      iszero\n      tag_437\n      jumpi\n      pop\n      mload(0x40)\n      returndatasize\n      not(0x1f)\n      0x1f\n      dup3\n      add\n      and\n      dup3\n      add\n      dup1\n      0x40\n      mstore\n      pop\n      dup2\n      add\n      swap1\n      tag_438\n      swap2\n      swap1\n      tag_163\n      jump\t// in\n    tag_438:\n      0x01\n    tag_437:\n        /* \"Taxpayer.sol\":10828:10932  try Lottery(a).isContract() returns (bool ok) {... */\n      tag_439\n      jumpi\n        /* \"Taxpayer.sol\":10920:10925  false */\n      0x00\n        /* \"Taxpayer.sol\":10913:10925  return false */\n      swap1\n      pop\n      jump(tag_435)\n        /* \"Taxpayer.sol\":10828:10932  try Lottery(a).isContract() returns (bool ok) {... */\n    tag_439:\n        /* \"Taxpayer.sol\":10889:10891  ok */\n      dup1\n        /* \"Taxpayer.sol\":10882:10891  return ok */\n      swap2\n      pop\n      pop\n        /* \"Taxpayer.sol\":10696:10937  function isAuthorizedContract(address a) internal view returns (bool) {... */\n    tag_435:\n      swap2\n      swap1\n      pop\n      jump\t// out\n        /* \"Taxpayer.sol\":10947:11102  function determineDefaultAllowance() internal view returns (uint) {... */\n    tag_231:\n        /* \"Taxpayer.sol\":11007:11011  uint */\n      0x00\n        /* \"Taxpayer.sol\":11029:11031  65 */\n      0x41\n        /* \"Taxpayer.sol\":11022:11025  age */\n      sload(0x00)\n        /* \"Taxpayer.sol\":11022:11031  age >= 65 */\n      lt\n        /* \"Taxpayer.sol\":11019:11068  if(age >= 65) {... */\n      tag_445\n      jumpi\n        /* \"Taxpayer.sol\":502:506  7000 */\n      0x1b58\n        /* \"Taxpayer.sol\":11041:11061  return ALLOWANCE_OAP */\n      swap1\n      pop\n      jump(tag_444)\n        /* \"Taxpayer.sol\":11019:11068  if(age >= 65) {... */\n    tag_445:\n        /* \"Taxpayer.sol\":398:402  5000 */\n      0x1388\n        /* \"Taxpayer.sol\":11073:11097  return DEFAULT_ALLOWANCE */\n      swap1\n      pop\n        /* \"Taxpayer.sol\":10947:11102  function determineDefaultAllowance() internal view returns (uint) {... */\n    tag_444:\n      swap1\n      jump\t// out\n        /* \"#utility.yul\":7:97   */\n    tag_446:\n        /* \"#utility.yul\":41:48   */\n      0x00\n        /* \"#utility.yul\":84:89   */\n      dup2\n        /* \"#utility.yul\":77:90   */\n      iszero\n        /* \"#utility.yul\":70:91   */\n      iszero\n        /* \"#utility.yul\":59:91   */\n      swap1\n      pop\n        /* \"#utility.yul\":7:97   */\n      swap2\n      swap1\n      pop\n      jump\t// out\n        /* \"#utility.yul\":103:212   */\n    tag_447:\n        /* \"#utility.yul\":184:205   */\n      tag_524\n        /* \"#utility.yul\":199:204   */\n      dup2\n        /* \"#utility.yul\":184:205   */\n      tag_446\n      jump\t// in\n    tag_524:\n        /* \"#utility.yul\":179:182   */\n      dup3\n        /* \"#utility.yul\":172:206   */\n      mstore\n        /* \"#utility.yul\":103:212   */\n      pop\n      pop\n      jump\t// out\n        /* \"#utility.yul\":218:428   */\n    tag_46:\n        /* \"#utility.yul\":305:309   */\n      0x00\n        /* \"#utility.yul\":343:345   */\n      0x20\n        /* \"#utility.yul\":332:341   */\n      dup3\n        /* \"#utility.yul\":328:346   */\n      add\n        /* \"#utility.yul\":320:346   */\n      swap1\n      pop\n        /* \"#utility.yul\":356:421   */\n      tag_526\n        /* \"#utility.yul\":418:419   */\n      0x00\n        /* \"#utility.yul\":407:416   */\n      dup4\n        /* \"#utility.yul\":403:420   */\n      add\n        /* \"#utility.yul\":394:400   */\n      dup5\n        /* \"#utility.yul\":356:421   */\n      tag_447\n      jump\t// in\n    tag_526:\n        /* \"#utility.yul\":218:428   */\n      swap3\n      swap2\n      pop\n      pop\n      jump\t// out\n        /* \"#utility.yul\":434:560   */\n    tag_448:\n        /* \"#utility.yul\":471:478   */\n      0x00\n        /* \"#utility.yul\":511:553   */\n      0xffffffffffffffffffffffffffffffffffffffff\n        /* \"#utility.yul\":504:509   */\n      dup3\n        /* \"#utility.yul\":500:554   */\n      and\n        /* \"#utility.yul\":489:554   */\n      swap1\n      pop\n        /* \"#utility.yul\":434:560   */\n      swap2\n      swap1\n      pop\n      jump\t// out\n        /* \"#utility.yul\":566:662   */\n    tag_449:\n        /* \"#utility.yul\":603:610   */\n      0x00\n        /* \"#utility.yul\":632:656   */\n      tag_529\n        /* \"#utility.yul\":650:655   */\n      dup3\n        /* \"#utility.yul\":632:656   */\n      tag_448\n      jump\t// in\n    tag_529:\n        /* \"#utility.yul\":621:656   */\n      swap1\n      pop\n        /* \"#utility.yul\":566:662   */\n      swap2\n      swap1\n      pop\n      jump\t// out\n        /* \"#utility.yul\":668:786   */\n    tag_450:\n        /* \"#utility.yul\":755:779   */\n      tag_531\n        /* \"#utility.yul\":773:778   */\n      dup2\n        /* \"#utility.yul\":755:779   */\n      tag_449\n      jump\t// in\n    tag_531:\n        /* \"#utility.yul\":750:753   */\n      dup3\n        /* \"#utility.yul\":743:780   */\n      mstore\n        /* \"#utility.yul\":668:786   */\n      pop\n      pop\n      jump\t// out\n        /* \"#utility.yul\":792:1014   */\n    tag_50:\n        /* \"#utility.yul\":885:889   */\n      0x00\n        /* \"#utility.yul\":923:925   */\n      0x20\n        /* \"#utility.yul\":912:921   */\n      dup3\n        /* \"#utility.yul\":908:926   */\n      add\n        /* \"#utility.yul\":900:926   */\n      swap1\n      pop\n        /* \"#utility.yul\":936:1007   */\n      tag_533\n        /* \"#utility.yul\":1004:1005   */\n      0x00\n        /* \"#utility.yul\":993:1002   */\n      dup4\n        /* \"#utility.yul\":989:1006   */\n      add\n        /* \"#utility.yul\":980:986   */\n      dup5\n        /* \"#utility.yul\":936:1007   */\n      tag_450\n      jump\t// in\n    tag_533:\n        /* \"#utility.yul\":792:1014   */\n      swap3\n      swap2\n      pop\n      pop\n      jump\t// out\n        /* \"#utility.yul\":1101:1218   */\n    tag_452:\n        /* \"#utility.yul\":1210:1211   */\n      0x00\n        /* \"#utility.yul\":1207:1208   */\n      0x00\n        /* \"#utility.yul\":1200:1212   */\n      revert\n        /* \"#utility.yul\":1347:1469   */\n    tag_454:\n        /* \"#utility.yul\":1420:1444   */\n      tag_538\n        /* \"#utility.yul\":1438:1443   */\n      dup2\n        /* \"#utility.yul\":1420:1444   */\n      tag_449\n      jump\t// in\n    tag_538:\n        /* \"#utility.yul\":1413:1418   */\n      dup2\n        /* \"#utility.yul\":1410:1445   */\n      eq\n        /* \"#utility.yul\":1400:1463   */\n      tag_539\n      jumpi\n        /* \"#utility.yul\":1459:1460   */\n      0x00\n        /* \"#utility.yul\":1456:1457   */\n      0x00\n        /* \"#utility.yul\":1449:1461   */\n      revert\n        /* \"#utility.yul\":1400:1463   */\n    tag_539:\n        /* \"#utility.yul\":1347:1469   */\n      pop\n      jump\t// out\n        /* \"#utility.yul\":1475:1614   */\n    tag_455:\n        /* \"#utility.yul\":1521:1526   */\n      0x00\n        /* \"#utility.yul\":1559:1565   */\n      dup2\n        /* \"#utility.yul\":1546:1566   */\n      calldataload\n        /* \"#utility.yul\":1537:1566   */\n      swap1\n      pop\n        /* \"#utility.yul\":1575:1608   */\n      tag_541\n        /* \"#utility.yul\":1602:1607   */\n      dup2\n        /* \"#utility.yul\":1575:1608   */\n      tag_454\n      jump\t// in\n    tag_541:\n        /* \"#utility.yul\":1475:1614   */\n      swap3\n      swap2\n      pop\n      pop\n      jump\t// out\n        /* \"#utility.yul\":1620:1697   */\n    tag_456:\n        /* \"#utility.yul\":1657:1664   */\n      0x00\n        /* \"#utility.yul\":1686:1691   */\n      dup2\n        /* \"#utility.yul\":1675:1691   */\n      swap1\n      pop\n        /* \"#utility.yul\":1620:1697   */\n      swap2\n      swap1\n      pop\n      jump\t// out\n        /* \"#utility.yul\":1703:1825   */\n    tag_457:\n        /* \"#utility.yul\":1776:1800   */\n      tag_544\n        /* \"#utility.yul\":1794:1799   */\n      dup2\n        /* \"#utility.yul\":1776:1800   */\n      tag_456\n      jump\t// in\n    tag_544:\n        /* \"#utility.yul\":1769:1774   */\n      dup2\n        /* \"#utility.yul\":1766:1801   */\n      eq\n        /* \"#utility.yul\":1756:1819   */\n      tag_545\n      jumpi\n        /* \"#utility.yul\":1815:1816   */\n      0x00\n        /* \"#utility.yul\":1812:1813   */\n      0x00\n        /* \"#utility.yul\":1805:1817   */\n      revert\n        /* \"#utility.yul\":1756:1819   */\n    tag_545:\n        /* \"#utility.yul\":1703:1825   */\n      pop\n      jump\t// out\n        /* \"#utility.yul\":1831:1970   */\n    tag_458:\n        /* \"#utility.yul\":1877:1882   */\n      0x00\n        /* \"#utility.yul\":1915:1921   */\n      dup2\n        /* \"#utility.yul\":1902:1922   */\n      calldataload\n        /* \"#utility.yul\":1893:1922   */\n      swap1\n      pop\n        /* \"#utility.yul\":1931:1964   */\n      tag_547\n        /* \"#utility.yul\":1958:1963   */\n      dup2\n        /* \"#utility.yul\":1931:1964   */\n      tag_457\n      jump\t// in\n    tag_547:\n        /* \"#utility.yul\":1831:1970   */\n      swap3\n      swap2\n      pop\n      pop\n      jump\t// out\n        /* \"#utility.yul\":1976:2450   */\n    tag_53:\n        /* \"#utility.yul\":2044:2050   */\n      0x00\n        /* \"#utility.yul\":2052:2058   */\n      0x00\n        /* \"#utility.yul\":2101:2103   */\n      0x40\n        /* \"#utility.yul\":2089:2098   */\n      dup4\n        /* \"#utility.yul\":2080:2087   */\n      dup6\n        /* \"#utility.yul\":2076:2099   */\n      sub\n        /* \"#utility.yul\":2072:2104   */\n      slt\n        /* \"#utility.yul\":2069:2188   */\n      iszero\n      tag_549\n      jumpi\n        /* \"#utility.yul\":2107:2186   */\n      tag_550\n      tag_452\n      jump\t// in\n    tag_550:\n        /* \"#utility.yul\":2069:2188   */\n    tag_549:\n        /* \"#utility.yul\":2227:2228   */\n      0x00\n        /* \"#utility.yul\":2252:2305   */\n      tag_551\n        /* \"#utility.yul\":2297:2304   */\n      dup6\n        /* \"#utility.yul\":2288:2294   */\n      dup3\n        /* \"#utility.yul\":2277:2286   */\n      dup7\n        /* \"#utility.yul\":2273:2295   */\n      add\n        /* \"#utility.yul\":2252:2305   */\n      tag_455\n      jump\t// in\n    tag_551:\n        /* \"#utility.yul\":2242:2305   */\n      swap3\n      pop\n        /* \"#utility.yul\":2198:2315   */\n      pop\n        /* \"#utility.yul\":2354:2356   */\n      0x20\n        /* \"#utility.yul\":2380:2433   */\n      tag_552\n        /* \"#utility.yul\":2425:2432   */\n      dup6\n        /* \"#utility.yul\":2416:2422   */\n      dup3\n        /* \"#utility.yul\":2405:2414   */\n      dup7\n        /* \"#utility.yul\":2401:2423   */\n      add\n        /* \"#utility.yul\":2380:2433   */\n      tag_458\n      jump\t// in\n    tag_552:\n        /* \"#utility.yul\":2370:2433   */\n      swap2\n      pop\n        /* \"#utility.yul\":2325:2443   */\n      pop\n        /* \"#utility.yul\":1976:2450   */\n      swap3\n      pop\n      swap3\n      swap1\n      pop\n      jump\t// out\n        /* \"#utility.yul\":2456:2785   */\n    tag_57:\n        /* \"#utility.yul\":2515:2521   */\n      0x00\n        /* \"#utility.yul\":2564:2566   */\n      0x20\n        /* \"#utility.yul\":2552:2561   */\n      dup3\n        /* \"#utility.yul\":2543:2550   */\n      dup5\n        /* \"#utility.yul\":2539:2562   */\n      sub\n        /* \"#utility.yul\":2535:2567   */\n      slt\n        /* \"#utility.yul\":2532:2651   */\n      iszero\n      tag_554\n      jumpi\n        /* \"#utility.yul\":2570:2649   */\n      tag_555\n      tag_452\n      jump\t// in\n    tag_555:\n        /* \"#utility.yul\":2532:2651   */\n    tag_554:\n        /* \"#utility.yul\":2690:2691   */\n      0x00\n        /* \"#utility.yul\":2715:2768   */\n      tag_556\n        /* \"#utility.yul\":2760:2767   */\n      dup5\n        /* \"#utility.yul\":2751:2757   */\n      dup3\n        /* \"#utility.yul\":2740:2749   */\n      dup6\n        /* \"#utility.yul\":2736:2758   */\n      add\n        /* \"#utility.yul\":2715:2768   */\n      tag_458\n      jump\t// in\n    tag_556:\n        /* \"#utility.yul\":2705:2768   */\n      swap2\n      pop\n        /* \"#utility.yul\":2661:2778   */\n      pop\n        /* \"#utility.yul\":2456:2785   */\n      swap3\n      swap2\n      pop\n      pop\n      jump\t// out\n        /* \"#utility.yul\":2791:3265   */\n    tag_67:\n        /* \"#utility.yul\":2859:2865   */\n      0x00\n        /* \"#utility.yul\":2867:2873   */\n      0x00\n        /* \"#utility.yul\":2916:2918   */\n      0x40\n        /* \"#utility.yul\":2904:2913   */\n      dup4\n        /* \"#utility.yul\":2895:2902   */\n      dup6\n        /* \"#utility.yul\":2891:2914   */\n      sub\n        /* \"#utility.yul\":2887:2919   */\n      slt\n        /* \"#utility.yul\":2884:3003   */\n      iszero\n      tag_558\n      jumpi\n        /* \"#utility.yul\":2922:3001   */\n      tag_559\n      tag_452\n      jump\t// in\n    tag_559:\n        /* \"#utility.yul\":2884:3003   */\n    tag_558:\n        /* \"#utility.yul\":3042:3043   */\n      0x00\n        /* \"#utility.yul\":3067:3120   */\n      tag_560\n        /* \"#utility.yul\":3112:3119   */\n      dup6\n        /* \"#utility.yul\":3103:3109   */\n      dup3\n        /* \"#utility.yul\":3092:3101   */\n      dup7\n        /* \"#utility.yul\":3088:3110   */\n      add\n        /* \"#utility.yul\":3067:3120   */\n      tag_458\n      jump\t// in\n    tag_560:\n        /* \"#utility.yul\":3057:3120   */\n      swap3\n      pop\n        /* \"#utility.yul\":3013:3130   */\n      pop\n        /* \"#utility.yul\":3169:3171   */\n      0x20\n        /* \"#utility.yul\":3195:3248   */\n      tag_561\n        /* \"#utility.yul\":3240:3247   */\n      dup6\n        /* \"#utility.yul\":3231:3237   */\n      dup3\n        /* \"#utility.yul\":3220:3229   */\n      dup7\n        /* \"#utility.yul\":3216:3238   */\n      add\n        /* \"#utility.yul\":3195:3248   */\n      tag_455\n      jump\t// in\n    tag_561:\n        /* \"#utility.yul\":3185:3248   */\n      swap2\n      pop\n        /* \"#utility.yul\":3140:3258   */\n      pop\n        /* \"#utility.yul\":2791:3265   */\n      swap3\n      pop\n      swap3\n      swap1\n      pop\n      jump\t// out\n        /* \"#utility.yul\":3271:3600   */\n    tag_73:\n        /* \"#utility.yul\":3330:3336   */\n      0x00\n        /* \"#utility.yul\":3379:3381   */\n      0x20\n        /* \"#utility.yul\":3367:3376   */\n      dup3\n        /* \"#utility.yul\":3358:3365   */\n      dup5\n        /* \"#utility.yul\":3354:3377   */\n      sub\n        /* \"#utility.yul\":3350:3382   */\n      slt\n        /* \"#utility.yul\":3347:3466   */\n      iszero\n      tag_563\n      jumpi\n        /* \"#utility.yul\":3385:3464   */\n      tag_564\n      tag_452\n      jump\t// in\n    tag_564:\n        /* \"#utility.yul\":3347:3466   */\n    tag_563:\n        /* \"#utility.yul\":3505:3506   */\n      0x00\n        /* \"#utility.yul\":3530:3583   */\n      tag_565\n        /* \"#utility.yul\":3575:3582   */\n      dup5\n        /* \"#utility.yul\":3566:3572   */\n      dup3\n        /* \"#utility.yul\":3555:3564   */\n      dup6\n        /* \"#utility.yul\":3551:3573   */\n      add\n        /* \"#utility.yul\":3530:3583   */\n      tag_455\n      jump\t// in\n    tag_565:\n        /* \"#utility.yul\":3520:3583   */\n      swap2\n      pop\n        /* \"#utility.yul\":3476:3593   */\n      pop\n        /* \"#utility.yul\":3271:3600   */\n      swap3\n      swap2\n      pop\n      pop\n      jump\t// out\n        /* \"#utility.yul\":3606:3724   */\n    tag_459:\n        /* \"#utility.yul\":3693:3717   */\n      tag_567\n        /* \"#utility.yul\":3711:3716   */\n      dup2\n        /* \"#utility.yul\":3693:3717   */\n      tag_456\n      jump\t// in\n    tag_567:\n        /* \"#utility.yul\":3688:3691   */\n      dup3\n        /* \"#utility.yul\":3681:3718   */\n      mstore\n        /* \"#utility.yul\":3606:3724   */\n      pop\n      pop\n      jump\t// out\n        /* \"#utility.yul\":3730:3952   */\n    tag_78:\n        /* \"#utility.yul\":3823:3827   */\n      0x00\n        /* \"#utility.yul\":3861:3863   */\n      0x20\n        /* \"#utility.yul\":3850:3859   */\n      dup3\n        /* \"#utility.yul\":3846:3864   */\n      add\n        /* \"#utility.yul\":3838:3864   */\n      swap1\n      pop\n        /* \"#utility.yul\":3874:3945   */\n      tag_569\n        /* \"#utility.yul\":3942:3943   */\n      0x00\n        /* \"#utility.yul\":3931:3940   */\n      dup4\n        /* \"#utility.yul\":3927:3944   */\n      add\n        /* \"#utility.yul\":3918:3924   */\n      dup5\n        /* \"#utility.yul\":3874:3945   */\n      tag_459\n      jump\t// in\n    tag_569:\n        /* \"#utility.yul\":3730:3952   */\n      swap3\n      swap2\n      pop\n      pop\n      jump\t// out\n        /* \"#utility.yul\":3958:4101   */\n    tag_460:\n        /* \"#utility.yul\":4015:4020   */\n      0x00\n        /* \"#utility.yul\":4046:4052   */\n      dup2\n        /* \"#utility.yul\":4040:4053   */\n      mload\n        /* \"#utility.yul\":4031:4053   */\n      swap1\n      pop\n        /* \"#utility.yul\":4062:4095   */\n      tag_571\n        /* \"#utility.yul\":4089:4094   */\n      dup2\n        /* \"#utility.yul\":4062:4095   */\n      tag_454\n      jump\t// in\n    tag_571:\n        /* \"#utility.yul\":3958:4101   */\n      swap3\n      swap2\n      pop\n      pop\n      jump\t// out\n        /* \"#utility.yul\":4107:4458   */\n    tag_154:\n        /* \"#utility.yul\":4177:4183   */\n      0x00\n        /* \"#utility.yul\":4226:4228   */\n      0x20\n        /* \"#utility.yul\":4214:4223   */\n      dup3\n        /* \"#utility.yul\":4205:4212   */\n      dup5\n        /* \"#utility.yul\":4201:4224   */\n      sub\n        /* \"#utility.yul\":4197:4229   */\n      slt\n        /* \"#utility.yul\":4194:4313   */\n      iszero\n      tag_573\n      jumpi\n        /* \"#utility.yul\":4232:4311   */\n      tag_574\n      tag_452\n      jump\t// in\n    tag_574:\n        /* \"#utility.yul\":4194:4313   */\n    tag_573:\n        /* \"#utility.yul\":4352:4353   */\n      0x00\n        /* \"#utility.yul\":4377:4441   */\n      tag_575\n        /* \"#utility.yul\":4433:4440   */\n      dup5\n        /* \"#utility.yul\":4424:4430   */\n      dup3\n        /* \"#utility.yul\":4413:4422   */\n      dup6\n        /* \"#utility.yul\":4409:4431   */\n      add\n        /* \"#utility.yul\":4377:4441   */\n      tag_460\n      jump\t// in\n    tag_575:\n        /* \"#utility.yul\":4367:4441   */\n      swap2\n      pop\n        /* \"#utility.yul\":4323:4451   */\n      pop\n        /* \"#utility.yul\":4107:4458   */\n      swap3\n      swap2\n      pop\n      pop\n      jump\t// out\n        /* \"#utility.yul\":4464:4580   */\n    tag_461:\n        /* \"#utility.yul\":4534:4555   */\n      tag_577\n        /* \"#utility.yul\":4549:4554   */\n      dup2\n        /* \"#utility.yul\":4534:4555   */\n      tag_446\n      jump\t// in\n    tag_577:\n        /* \"#utility.yul\":4527:4532   */\n      dup2\n        /* \"#utility.yul\":4524:4556   */\n      eq\n        /* \"#utility.yul\":4514:4574   */\n      tag_578\n      jumpi\n        /* \"#utility.yul\":4570:4571   */\n      0x00\n        /* \"#utility.yul\":4567:4568   */\n      0x00\n        /* \"#utility.yul\":4560:4572   */\n      revert\n        /* \"#utility.yul\":4514:4574   */\n    tag_578:\n        /* \"#utility.yul\":4464:4580   */\n      pop\n      jump\t// out\n        /* \"#utility.yul\":4586:4723   */\n    tag_462:\n        /* \"#utility.yul\":4640:4645   */\n      0x00\n        /* \"#utility.yul\":4671:4677   */\n      dup2\n        /* \"#utility.yul\":4665:4678   */\n      mload\n        /* \"#utility.yul\":4656:4678   */\n      swap1\n      pop\n        /* \"#utility.yul\":4687:4717   */\n      tag_580\n        /* \"#utility.yul\":4711:4716   */\n      dup2\n        /* \"#utility.yul\":4687:4717   */\n      tag_461\n      jump\t// in\n    tag_580:\n        /* \"#utility.yul\":4586:4723   */\n      swap3\n      swap2\n      pop\n      pop\n      jump\t// out\n        /* \"#utility.yul\":4729:5074   */\n    tag_163:\n        /* \"#utility.yul\":4796:4802   */\n      0x00\n        /* \"#utility.yul\":4845:4847   */\n      0x20\n        /* \"#utility.yul\":4833:4842   */\n      dup3\n        /* \"#utility.yul\":4824:4831   */\n      dup5\n        /* \"#utility.yul\":4820:4843   */\n      sub\n        /* \"#utility.yul\":4816:4848   */\n      slt\n        /* \"#utility.yul\":4813:4932   */\n      iszero\n      tag_582\n      jumpi\n        /* \"#utility.yul\":4851:4930   */\n      tag_583\n      tag_452\n      jump\t// in\n    tag_583:\n        /* \"#utility.yul\":4813:4932   */\n    tag_582:\n        /* \"#utility.yul\":4971:4972   */\n      0x00\n        /* \"#utility.yul\":4996:5057   */\n      tag_584\n        /* \"#utility.yul\":5049:5056   */\n      dup5\n        /* \"#utility.yul\":5040:5046   */\n      dup3\n        /* \"#utility.yul\":5029:5038   */\n      dup6\n        /* \"#utility.yul\":5025:5047   */\n      add\n        /* \"#utility.yul\":4996:5057   */\n      tag_462\n      jump\t// in\n    tag_584:\n        /* \"#utility.yul\":4986:5057   */\n      swap2\n      pop\n        /* \"#utility.yul\":4942:5067   */\n      pop\n        /* \"#utility.yul\":4729:5074   */\n      swap3\n      swap2\n      pop\n      pop\n      jump\t// out\n        /* \"#utility.yul\":5080:5249   */\n    tag_463:\n        /* \"#utility.yul\":5164:5175   */\n      0x00\n        /* \"#utility.yul\":5198:5204   */\n      dup3\n        /* \"#utility.yul\":5193:5196   */\n      dup3\n        /* \"#utility.yul\":5186:5205   */\n      mstore\n        /* \"#utility.yul\":5238:5242   */\n      0x20\n        /* \"#utility.yul\":5233:5236   */\n      dup3\n        /* \"#utility.yul\":5229:5243   */\n      add\n        /* \"#utility.yul\":5214:5243   */\n      swap1\n      pop\n        /* \"#utility.yul\":5080:5249   */\n      swap3\n      swap2\n      pop\n      pop\n      jump\t// out\n        /* \"#utility.yul\":5255:5415   */\n    tag_464:\n        /* \"#utility.yul\":5395:5407   */\n      0x4f6e6c79206f776e657200000000000000000000000000000000000000000000\n        /* \"#utility.yul\":5391:5392   */\n      0x00\n        /* \"#utility.yul\":5383:5389   */\n      dup3\n        /* \"#utility.yul\":5379:5393   */\n      add\n        /* \"#utility.yul\":5372:5408   */\n      mstore\n        /* \"#utility.yul\":5255:5415   */\n      pop\n      jump\t// out\n        /* \"#utility.yul\":5421:5787   */\n    tag_465:\n        /* \"#utility.yul\":5563:5566   */\n      0x00\n        /* \"#utility.yul\":5584:5651   */\n      tag_588\n        /* \"#utility.yul\":5648:5650   */\n      0x0a\n        /* \"#utility.yul\":5643:5646   */\n      dup4\n        /* \"#utility.yul\":5584:5651   */\n      tag_463\n      jump\t// in\n    tag_588:\n        /* \"#utility.yul\":5577:5651   */\n      swap2\n      pop\n        /* \"#utility.yul\":5660:5753   */\n      tag_589\n        /* \"#utility.yul\":5749:5752   */\n      dup3\n        /* \"#utility.yul\":5660:5753   */\n      tag_464\n      jump\t// in\n    tag_589:\n        /* \"#utility.yul\":5778:5780   */\n      0x20\n        /* \"#utility.yul\":5773:5776   */\n      dup3\n        /* \"#utility.yul\":5769:5781   */\n      add\n        /* \"#utility.yul\":5762:5781   */\n      swap1\n      pop\n        /* \"#utility.yul\":5421:5787   */\n      swap2\n      swap1\n      pop\n      jump\t// out\n        /* \"#utility.yul\":5793:6212   */\n    tag_174:\n        /* \"#utility.yul\":5959:5963   */\n      0x00\n        /* \"#utility.yul\":5997:5999   */\n      0x20\n        /* \"#utility.yul\":5986:5995   */\n      dup3\n        /* \"#utility.yul\":5982:6000   */\n      add\n        /* \"#utility.yul\":5974:6000   */\n      swap1\n      pop\n        /* \"#utility.yul\":6046:6055   */\n      dup2\n        /* \"#utility.yul\":6040:6044   */\n      dup2\n        /* \"#utility.yul\":6036:6056   */\n      sub\n        /* \"#utility.yul\":6032:6033   */\n      0x00\n        /* \"#utility.yul\":6021:6030   */\n      dup4\n        /* \"#utility.yul\":6017:6034   */\n      add\n        /* \"#utility.yul\":6010:6057   */\n      mstore\n        /* \"#utility.yul\":6074:6205   */\n      tag_591\n        /* \"#utility.yul\":6200:6204   */\n      dup2\n        /* \"#utility.yul\":6074:6205   */\n      tag_465\n      jump\t// in\n    tag_591:\n        /* \"#utility.yul\":6066:6205   */\n      swap1\n      pop\n        /* \"#utility.yul\":5793:6212   */\n      swap2\n      swap1\n      pop\n      jump\t// out\n        /* \"#utility.yul\":6218:6384   */\n    tag_466:\n        /* \"#utility.yul\":6358:6376   */\n      0x496e76616c6964206c6f74746572727900000000000000000000000000000000\n        /* \"#utility.yul\":6354:6355   */\n      0x00\n        /* \"#utility.yul\":6346:6352   */\n      dup3\n        /* \"#utility.yul\":6342:6356   */\n      add\n        /* \"#utility.yul\":6335:6377   */\n      mstore\n        /* \"#utility.yul\":6218:6384   */\n      pop\n      jump\t// out\n        /* \"#utility.yul\":6390:6756   */\n    tag_467:\n        /* \"#utility.yul\":6532:6535   */\n      0x00\n        /* \"#utility.yul\":6553:6620   */\n      tag_594\n        /* \"#utility.yul\":6617:6619   */\n      0x10\n        /* \"#utility.yul\":6612:6615   */\n      dup4\n        /* \"#utility.yul\":6553:6620   */\n      tag_463\n      jump\t// in\n    tag_594:\n        /* \"#utility.yul\":6546:6620   */\n      swap2\n      pop\n        /* \"#utility.yul\":6629:6722   */\n      tag_595\n        /* \"#utility.yul\":6718:6721   */\n      dup3\n        /* \"#utility.yul\":6629:6722   */\n      tag_466\n      jump\t// in\n    tag_595:\n        /* \"#utility.yul\":6747:6749   */\n      0x20\n        /* \"#utility.yul\":6742:6745   */\n      dup3\n        /* \"#utility.yul\":6738:6750   */\n      add\n        /* \"#utility.yul\":6731:6750   */\n      swap1\n      pop\n        /* \"#utility.yul\":6390:6756   */\n      swap2\n      swap1\n      pop\n      jump\t// out\n        /* \"#utility.yul\":6762:7181   */\n    tag_178:\n        /* \"#utility.yul\":6928:6932   */\n      0x00\n        /* \"#utility.yul\":6966:6968   */\n      0x20\n        /* \"#utility.yul\":6955:6964   */\n      dup3\n        /* \"#utility.yul\":6951:6969   */\n      add\n        /* \"#utility.yul\":6943:6969   */\n      swap1\n      pop\n        /* \"#utility.yul\":7015:7024   */\n      dup2\n        /* \"#utility.yul\":7009:7013   */\n      dup2\n        /* \"#utility.yul\":7005:7025   */\n      sub\n        /* \"#utility.yul\":7001:7002   */\n      0x00\n        /* \"#utility.yul\":6990:6999   */\n      dup4\n        /* \"#utility.yul\":6986:7003   */\n      add\n        /* \"#utility.yul\":6979:7026   */\n      mstore\n        /* \"#utility.yul\":7043:7174   */\n      tag_597\n        /* \"#utility.yul\":7169:7173   */\n      dup2\n        /* \"#utility.yul\":7043:7174   */\n      tag_467\n      jump\t// in\n    tag_597:\n        /* \"#utility.yul\":7035:7174   */\n      swap1\n      pop\n        /* \"#utility.yul\":6762:7181   */\n      swap2\n      swap1\n      pop\n      jump\t// out\n        /* \"#utility.yul\":7187:7356   */\n    tag_468:\n        /* \"#utility.yul\":7327:7348   */\n      0x4e6f20636f6d6d69747465642072657665616c00000000000000000000000000\n        /* \"#utility.yul\":7323:7324   */\n      0x00\n        /* \"#utility.yul\":7315:7321   */\n      dup3\n        /* \"#utility.yul\":7311:7325   */\n      add\n        /* \"#utility.yul\":7304:7349   */\n      mstore\n        /* \"#utility.yul\":7187:7356   */\n      pop\n      jump\t// out\n        /* \"#utility.yul\":7362:7728   */\n    tag_469:\n        /* \"#utility.yul\":7504:7507   */\n      0x00\n        /* \"#utility.yul\":7525:7592   */\n      tag_600\n        /* \"#utility.yul\":7589:7591   */\n      0x13\n        /* \"#utility.yul\":7584:7587   */\n      dup4\n        /* \"#utility.yul\":7525:7592   */\n      tag_463\n      jump\t// in\n    tag_600:\n        /* \"#utility.yul\":7518:7592   */\n      swap2\n      pop\n        /* \"#utility.yul\":7601:7694   */\n      tag_601\n        /* \"#utility.yul\":7690:7693   */\n      dup3\n        /* \"#utility.yul\":7601:7694   */\n      tag_468\n      jump\t// in\n    tag_601:\n        /* \"#utility.yul\":7719:7721   */\n      0x20\n        /* \"#utility.yul\":7714:7717   */\n      dup3\n        /* \"#utility.yul\":7710:7722   */\n      add\n        /* \"#utility.yul\":7703:7722   */\n      swap1\n      pop\n        /* \"#utility.yul\":7362:7728   */\n      swap2\n      swap1\n      pop\n      jump\t// out\n        /* \"#utility.yul\":7734:8153   */\n    tag_181:\n        /* \"#utility.yul\":7900:7904   */\n      0x00\n        /* \"#utility.yul\":7938:7940   */\n      0x20\n        /* \"#utility.yul\":7927:7936   */\n      dup3\n        /* \"#utility.yul\":7923:7941   */\n      add\n        /* \"#utility.yul\":7915:7941   */\n      swap1\n      pop\n        /* \"#utility.yul\":7987:7996   */\n      dup2\n        /* \"#utility.yul\":7981:7985   */\n      dup2\n        /* \"#utility.yul\":7977:7997   */\n      sub\n        /* \"#utility.yul\":7973:7974   */\n      0x00\n        /* \"#utility.yul\":7962:7971   */\n      dup4\n        /* \"#utility.yul\":7958:7975   */\n      add\n        /* \"#utility.yul\":7951:7998   */\n      mstore\n        /* \"#utility.yul\":8015:8146   */\n      tag_603\n        /* \"#utility.yul\":8141:8145   */\n      dup2\n        /* \"#utility.yul\":8015:8146   */\n      tag_469\n      jump\t// in\n    tag_603:\n        /* \"#utility.yul\":8007:8146   */\n      swap1\n      pop\n        /* \"#utility.yul\":7734:8153   */\n      swap2\n      swap1\n      pop\n      jump\t// out\n        /* \"#utility.yul\":8159:8330   */\n    tag_470:\n        /* \"#utility.yul\":8299:8322   */\n      0x4c6f74746572792072657665616c206661696c65640000000000000000000000\n        /* \"#utility.yul\":8295:8296   */\n      0x00\n        /* \"#utility.yul\":8287:8293   */\n      dup3\n        /* \"#utility.yul\":8283:8297   */\n      add\n        /* \"#utility.yul\":8276:8323   */\n      mstore\n        /* \"#utility.yul\":8159:8330   */\n      pop\n      jump\t// out\n        /* \"#utility.yul\":8336:8702   */\n    tag_471:\n        /* \"#utility.yul\":8478:8481   */\n      0x00\n        /* \"#utility.yul\":8499:8566   */\n      tag_606\n        /* \"#utility.yul\":8563:8565   */\n      0x15\n        /* \"#utility.yul\":8558:8561   */\n      dup4\n        /* \"#utility.yul\":8499:8566   */\n      tag_463\n      jump\t// in\n    tag_606:\n        /* \"#utility.yul\":8492:8566   */\n      swap2\n      pop\n        /* \"#utility.yul\":8575:8668   */\n      tag_607\n        /* \"#utility.yul\":8664:8667   */\n      dup3\n        /* \"#utility.yul\":8575:8668   */\n      tag_470\n      jump\t// in\n    tag_607:\n        /* \"#utility.yul\":8693:8695   */\n      0x20\n        /* \"#utility.yul\":8688:8691   */\n      dup3\n        /* \"#utility.yul\":8684:8696   */\n      add\n        /* \"#utility.yul\":8677:8696   */\n      swap1\n      pop\n        /* \"#utility.yul\":8336:8702   */\n      swap2\n      swap1\n      pop\n      jump\t// out\n        /* \"#utility.yul\":8708:9127   */\n    tag_190:\n        /* \"#utility.yul\":8874:8878   */\n      0x00\n        /* \"#utility.yul\":8912:8914   */\n      0x20\n        /* \"#utility.yul\":8901:8910   */\n      dup3\n        /* \"#utility.yul\":8897:8915   */\n      add\n        /* \"#utility.yul\":8889:8915   */\n      swap1\n      pop\n        /* \"#utility.yul\":8961:8970   */\n      dup2\n        /* \"#utility.yul\":8955:8959   */\n      dup2\n        /* \"#utility.yul\":8951:8971   */\n      sub\n        /* \"#utility.yul\":8947:8948   */\n      0x00\n        /* \"#utility.yul\":8936:8945   */\n      dup4\n        /* \"#utility.yul\":8932:8949   */\n      add\n        /* \"#utility.yul\":8925:8972   */\n      mstore\n        /* \"#utility.yul\":8989:9120   */\n      tag_609\n        /* \"#utility.yul\":9115:9119   */\n      dup2\n        /* \"#utility.yul\":8989:9120   */\n      tag_471\n      jump\t// in\n    tag_609:\n        /* \"#utility.yul\":8981:9120   */\n      swap1\n      pop\n        /* \"#utility.yul\":8708:9127   */\n      swap2\n      swap1\n      pop\n      jump\t// out\n        /* \"#utility.yul\":9133:9314   */\n    tag_472:\n        /* \"#utility.yul\":9273:9306   */\n      0x4e6f7420617574686f72697a656420746f2073657420616c6c6f77616e636500\n        /* \"#utility.yul\":9269:9270   */\n      0x00\n        /* \"#utility.yul\":9261:9267   */\n      dup3\n        /* \"#utility.yul\":9257:9271   */\n      add\n        /* \"#utility.yul\":9250:9307   */\n      mstore\n        /* \"#utility.yul\":9133:9314   */\n      pop\n      jump\t// out\n        /* \"#utility.yul\":9320:9686   */\n    tag_473:\n        /* \"#utility.yul\":9462:9465   */\n      0x00\n        /* \"#utility.yul\":9483:9550   */\n      tag_612\n        /* \"#utility.yul\":9547:9549   */\n      0x1f\n        /* \"#utility.yul\":9542:9545   */\n      dup4\n        /* \"#utility.yul\":9483:9550   */\n      tag_463\n      jump\t// in\n    tag_612:\n        /* \"#utility.yul\":9476:9550   */\n      swap2\n      pop\n        /* \"#utility.yul\":9559:9652   */\n      tag_613\n        /* \"#utility.yul\":9648:9651   */\n      dup3\n        /* \"#utility.yul\":9559:9652   */\n      tag_472\n      jump\t// in\n    tag_613:\n        /* \"#utility.yul\":9677:9679   */\n      0x20\n        /* \"#utility.yul\":9672:9675   */\n      dup3\n        /* \"#utility.yul\":9668:9680   */\n      add\n        /* \"#utility.yul\":9661:9680   */\n      swap1\n      pop\n        /* \"#utility.yul\":9320:9686   */\n      swap2\n      swap1\n      pop\n      jump\t// out\n        /* \"#utility.yul\":9692:10111   */\n    tag_203:\n        /* \"#utility.yul\":9858:9862   */\n      0x00\n        /* \"#utility.yul\":9896:9898   */\n      0x20\n        /* \"#utility.yul\":9885:9894   */\n      dup3\n        /* \"#utility.yul\":9881:9899   */\n      add\n        /* \"#utility.yul\":9873:9899   */\n      swap1\n      pop\n        /* \"#utility.yul\":9945:9954   */\n      dup2\n        /* \"#utility.yul\":9939:9943   */\n      dup2\n        /* \"#utility.yul\":9935:9955   */\n      sub\n        /* \"#utility.yul\":9931:9932   */\n      0x00\n        /* \"#utility.yul\":9920:9929   */\n      dup4\n        /* \"#utility.yul\":9916:9933   */\n      add\n        /* \"#utility.yul\":9909:9956   */\n      mstore\n        /* \"#utility.yul\":9973:10104   */\n      tag_615\n        /* \"#utility.yul\":10099:10103   */\n      dup2\n        /* \"#utility.yul\":9973:10104   */\n      tag_473\n      jump\t// in\n    tag_615:\n        /* \"#utility.yul\":9965:10104   */\n      swap1\n      pop\n        /* \"#utility.yul\":9692:10111   */\n      swap2\n      swap1\n      pop\n      jump\t// out\n        /* \"#utility.yul\":10117:10288   */\n    tag_474:\n        /* \"#utility.yul\":10257:10280   */\n      0x4f6e6c792073706f757365206f72206f726967696e0000000000000000000000\n        /* \"#utility.yul\":10253:10254   */\n      0x00\n        /* \"#utility.yul\":10245:10251   */\n      dup3\n        /* \"#utility.yul\":10241:10255   */\n      add\n        /* \"#utility.yul\":10234:10281   */\n      mstore\n        /* \"#utility.yul\":10117:10288   */\n      pop\n      jump\t// out\n        /* \"#utility.yul\":10294:10660   */\n    tag_475:\n        /* \"#utility.yul\":10436:10439   */\n      0x00\n        /* \"#utility.yul\":10457:10524   */\n      tag_618\n        /* \"#utility.yul\":10521:10523   */\n      0x15\n        /* \"#utility.yul\":10516:10519   */\n      dup4\n        /* \"#utility.yul\":10457:10524   */\n      tag_463\n      jump\t// in\n    tag_618:\n        /* \"#utility.yul\":10450:10524   */\n      swap2\n      pop\n        /* \"#utility.yul\":10533:10626   */\n      tag_619\n        /* \"#utility.yul\":10622:10625   */\n      dup3\n        /* \"#utility.yul\":10533:10626   */\n      tag_474\n      jump\t// in\n    tag_619:\n        /* \"#utility.yul\":10651:10653   */\n      0x20\n        /* \"#utility.yul\":10646:10649   */\n      dup3\n        /* \"#utility.yul\":10642:10654   */\n      add\n        /* \"#utility.yul\":10635:10654   */\n      swap1\n      pop\n        /* \"#utility.yul\":10294:10660   */\n      swap2\n      swap1\n      pop\n      jump\t// out\n        /* \"#utility.yul\":10666:11085   */\n    tag_213:\n        /* \"#utility.yul\":10832:10836   */\n      0x00\n        /* \"#utility.yul\":10870:10872   */\n      0x20\n        /* \"#utility.yul\":10859:10868   */\n      dup3\n        /* \"#utility.yul\":10855:10873   */\n      add\n        /* \"#utility.yul\":10847:10873   */\n      swap1\n      pop\n        /* \"#utility.yul\":10919:10928   */\n      dup2\n        /* \"#utility.yul\":10913:10917   */\n      dup2\n        /* \"#utility.yul\":10909:10929   */\n      sub\n        /* \"#utility.yul\":10905:10906   */\n      0x00\n        /* \"#utility.yul\":10894:10903   */\n      dup4\n        /* \"#utility.yul\":10890:10907   */\n      add\n        /* \"#utility.yul\":10883:10930   */\n      mstore\n        /* \"#utility.yul\":10947:11078   */\n      tag_621\n        /* \"#utility.yul\":11073:11077   */\n      dup2\n        /* \"#utility.yul\":10947:11078   */\n      tag_475\n      jump\t// in\n    tag_621:\n        /* \"#utility.yul\":10939:11078   */\n      swap1\n      pop\n        /* \"#utility.yul\":10666:11085   */\n      swap2\n      swap1\n      pop\n      jump\t// out\n        /* \"#utility.yul\":11091:11271   */\n    tag_476:\n        /* \"#utility.yul\":11139:11216   */\n      0x4e487b7100000000000000000000000000000000000000000000000000000000\n        /* \"#utility.yul\":11136:11137   */\n      0x00\n        /* \"#utility.yul\":11129:11217   */\n      mstore\n        /* \"#utility.yul\":11236:11240   */\n      0x11\n        /* \"#utility.yul\":11233:11234   */\n      0x04\n        /* \"#utility.yul\":11226:11241   */\n      mstore\n        /* \"#utility.yul\":11260:11264   */\n      0x24\n        /* \"#utility.yul\":11257:11258   */\n      0x00\n        /* \"#utility.yul\":11250:11265   */\n      revert\n        /* \"#utility.yul\":11277:11468   */\n    tag_215:\n        /* \"#utility.yul\":11317:11320   */\n      0x00\n        /* \"#utility.yul\":11336:11356   */\n      tag_624\n        /* \"#utility.yul\":11354:11355   */\n      dup3\n        /* \"#utility.yul\":11336:11356   */\n      tag_456\n      jump\t// in\n    tag_624:\n        /* \"#utility.yul\":11331:11356   */\n      swap2\n      pop\n        /* \"#utility.yul\":11370:11390   */\n      tag_625\n        /* \"#utility.yul\":11388:11389   */\n      dup4\n        /* \"#utility.yul\":11370:11390   */\n      tag_456\n      jump\t// in\n    tag_625:\n        /* \"#utility.yul\":11365:11390   */\n      swap3\n      pop\n        /* \"#utility.yul\":11413:11414   */\n      dup3\n        /* \"#utility.yul\":11410:11411   */\n      dup3\n        /* \"#utility.yul\":11406:11415   */\n      add\n        /* \"#utility.yul\":11399:11415   */\n      swap1\n      pop\n        /* \"#utility.yul\":11434:11437   */\n      dup1\n        /* \"#utility.yul\":11431:11432   */\n      dup3\n        /* \"#utility.yul\":11428:11438   */\n      gt\n        /* \"#utility.yul\":11425:11461   */\n      iszero\n      tag_626\n      jumpi\n        /* \"#utility.yul\":11441:11459   */\n      tag_627\n      tag_476\n      jump\t// in\n    tag_627:\n        /* \"#utility.yul\":11425:11461   */\n    tag_626:\n        /* \"#utility.yul\":11277:11468   */\n      swap3\n      swap2\n      pop\n      pop\n      jump\t// out\n        /* \"#utility.yul\":11474:11707   */\n    tag_221:\n        /* \"#utility.yul\":11513:11516   */\n      0x00\n        /* \"#utility.yul\":11536:11560   */\n      tag_629\n        /* \"#utility.yul\":11554:11559   */\n      dup3\n        /* \"#utility.yul\":11536:11560   */\n      tag_456\n      jump\t// in\n    tag_629:\n        /* \"#utility.yul\":11527:11560   */\n      swap2\n      pop\n        /* \"#utility.yul\":11582:11648   */\n      0xffffffffffffffffffffffffffffffffffffffffffffffffffffffffffffffff\n        /* \"#utility.yul\":11575:11580   */\n      dup3\n        /* \"#utility.yul\":11572:11649   */\n      sub\n        /* \"#utility.yul\":11569:11672   */\n      tag_630\n      jumpi\n        /* \"#utility.yul\":11652:11670   */\n      tag_631\n      tag_476\n      jump\t// in\n    tag_631:\n        /* \"#utility.yul\":11569:11672   */\n    tag_630:\n        /* \"#utility.yul\":11699:11700   */\n      0x01\n        /* \"#utility.yul\":11692:11697   */\n      dup3\n        /* \"#utility.yul\":11688:11701   */\n      add\n        /* \"#utility.yul\":11681:11701   */\n      swap1\n      pop\n        /* \"#utility.yul\":11474:11707   */\n      swap2\n      swap1\n      pop\n      jump\t// out\n        /* \"#utility.yul\":11713:11886   */\n    tag_477:\n        /* \"#utility.yul\":11853:11878   */\n      0x4f6e6c7920706172746e65722063616e206e6f74696679000000000000000000\n        /* \"#utility.yul\":11849:11850   */\n      0x00\n        /* \"#utility.yul\":11841:11847   */\n      dup3\n        /* \"#utility.yul\":11837:11851   */\n      add\n        /* \"#utility.yul\":11830:11879   */\n      mstore\n        /* \"#utility.yul\":11713:11886   */\n      pop\n      jump\t// out\n        /* \"#utility.yul\":11892:12258   */\n    tag_478:\n        /* \"#utility.yul\":12034:12037   */\n      0x00\n        /* \"#utility.yul\":12055:12122   */\n      tag_634\n        /* \"#utility.yul\":12119:12121   */\n      0x17\n        /* \"#utility.yul\":12114:12117   */\n      dup4\n        /* \"#utility.yul\":12055:12122   */\n      tag_463\n      jump\t// in\n    tag_634:\n        /* \"#utility.yul\":12048:12122   */\n      swap2\n      pop\n        /* \"#utility.yul\":12131:12224   */\n      tag_635\n        /* \"#utility.yul\":12220:12223   */\n      dup3\n        /* \"#utility.yul\":12131:12224   */\n      tag_477\n      jump\t// in\n    tag_635:\n        /* \"#utility.yul\":12249:12251   */\n      0x20\n        /* \"#utility.yul\":12244:12247   */\n      dup3\n        /* \"#utility.yul\":12240:12252   */\n      add\n        /* \"#utility.yul\":12233:12252   */\n      swap1\n      pop\n        /* \"#utility.yul\":11892:12258   */\n      swap2\n      swap1\n      pop\n      jump\t// out\n        /* \"#utility.yul\":12264:12683   */\n    tag_229:\n        /* \"#utility.yul\":12430:12434   */\n      0x00\n        /* \"#utility.yul\":12468:12470   */\n      0x20\n        /* \"#utility.yul\":12457:12466   */\n      dup3\n        /* \"#utility.yul\":12453:12471   */\n      add\n        /* \"#utility.yul\":12445:12471   */\n      swap1\n      pop\n        /* \"#utility.yul\":12517:12526   */\n      dup2\n        /* \"#utility.yul\":12511:12515   */\n      dup2\n        /* \"#utility.yul\":12507:12527   */\n      sub\n        /* \"#utility.yul\":12503:12504   */\n      0x00\n        /* \"#utility.yul\":12492:12501   */\n      dup4\n        /* \"#utility.yul\":12488:12505   */\n      add\n        /* \"#utility.yul\":12481:12528   */\n      mstore\n        /* \"#utility.yul\":12545:12676   */\n      tag_637\n        /* \"#utility.yul\":12671:12675   */\n      dup2\n        /* \"#utility.yul\":12545:12676   */\n      tag_478\n      jump\t// in\n    tag_637:\n        /* \"#utility.yul\":12537:12676   */\n      swap1\n      pop\n        /* \"#utility.yul\":12264:12683   */\n      swap2\n      swap1\n      pop\n      jump\t// out\n        /* \"#utility.yul\":12689:12883   */\n    tag_235:\n        /* \"#utility.yul\":12729:12733   */\n      0x00\n        /* \"#utility.yul\":12749:12769   */\n      tag_639\n        /* \"#utility.yul\":12767:12768   */\n      dup3\n        /* \"#utility.yul\":12749:12769   */\n      tag_456\n      jump\t// in\n    tag_639:\n        /* \"#utility.yul\":12744:12769   */\n      swap2\n      pop\n        /* \"#utility.yul\":12783:12803   */\n      tag_640\n        /* \"#utility.yul\":12801:12802   */\n      dup4\n        /* \"#utility.yul\":12783:12803   */\n      tag_456\n      jump\t// in\n    tag_640:\n        /* \"#utility.yul\":12778:12803   */\n      swap3\n      pop\n        /* \"#utility.yul\":12827:12828   */\n      dup3\n        /* \"#utility.yul\":12824:12825   */\n      dup3\n        /* \"#utility.yul\":12820:12829   */\n      sub\n        /* \"#utility.yul\":12812:12829   */\n      swap1\n      pop\n        /* \"#utility.yul\":12851:12852   */\n      dup2\n        /* \"#utility.yul\":12845:12849   */\n      dup2\n        /* \"#utility.yul\":12842:12853   */\n      gt\n        /* \"#utility.yul\":12839:12876   */\n      iszero\n      tag_641\n      jumpi\n        /* \"#utility.yul\":12856:12874   */\n      tag_642\n      tag_476\n      jump\t// in\n    tag_642:\n        /* \"#utility.yul\":12839:12876   */\n    tag_641:\n        /* \"#utility.yul\":12689:12883   */\n      swap3\n      swap2\n      pop\n      pop\n      jump\t// out\n        /* \"#utility.yul\":12889:13299   */\n    tag_239:\n        /* \"#utility.yul\":12929:12936   */\n      0x00\n        /* \"#utility.yul\":12952:12972   */\n      tag_644\n        /* \"#utility.yul\":12970:12971   */\n      dup3\n        /* \"#utility.yul\":12952:12972   */\n      tag_456\n      jump\t// in\n    tag_644:\n        /* \"#utility.yul\":12947:12972   */\n      swap2\n      pop\n        /* \"#utility.yul\":12986:13006   */\n      tag_645\n        /* \"#utility.yul\":13004:13005   */\n      dup4\n        /* \"#utility.yul\":12986:13006   */\n      tag_456\n      jump\t// in\n    tag_645:\n        /* \"#utility.yul\":12981:13006   */\n      swap3\n      pop\n        /* \"#utility.yul\":13041:13042   */\n      dup3\n        /* \"#utility.yul\":13038:13039   */\n      dup3\n        /* \"#utility.yul\":13034:13043   */\n      mul\n        /* \"#utility.yul\":13063:13093   */\n      tag_646\n        /* \"#utility.yul\":13081:13092   */\n      dup2\n        /* \"#utility.yul\":13063:13093   */\n      tag_456\n      jump\t// in\n    tag_646:\n        /* \"#utility.yul\":13052:13093   */\n      swap2\n      pop\n        /* \"#utility.yul\":13242:13243   */\n      dup3\n        /* \"#utility.yul\":13233:13240   */\n      dup3\n        /* \"#utility.yul\":13229:13244   */\n      div\n        /* \"#utility.yul\":13226:13227   */\n      dup5\n        /* \"#utility.yul\":13223:13245   */\n      eq\n        /* \"#utility.yul\":13203:13204   */\n      dup4\n        /* \"#utility.yul\":13196:13205   */\n      iszero\n        /* \"#utility.yul\":13176:13259   */\n      or\n        /* \"#utility.yul\":13153:13292   */\n      tag_647\n      jumpi\n        /* \"#utility.yul\":13272:13290   */\n      tag_648\n      tag_476\n      jump\t// in\n    tag_648:\n        /* \"#utility.yul\":13153:13292   */\n    tag_647:\n        /* \"#utility.yul\":12937:13299   */\n      pop\n        /* \"#utility.yul\":12889:13299   */\n      swap3\n      swap2\n      pop\n      pop\n      jump\t// out\n        /* \"#utility.yul\":13305:13485   */\n    tag_479:\n        /* \"#utility.yul\":13353:13430   */\n      0x4e487b7100000000000000000000000000000000000000000000000000000000\n        /* \"#utility.yul\":13350:13351   */\n      0x00\n        /* \"#utility.yul\":13343:13431   */\n      mstore\n        /* \"#utility.yul\":13450:13454   */\n      0x12\n        /* \"#utility.yul\":13447:13448   */\n      0x04\n        /* \"#utility.yul\":13440:13455   */\n      mstore\n        /* \"#utility.yul\":13474:13478   */\n      0x24\n        /* \"#utility.yul\":13471:13472   */\n      0x00\n        /* \"#utility.yul\":13464:13479   */\n      revert\n        /* \"#utility.yul\":13491:13676   */\n    tag_241:\n        /* \"#utility.yul\":13531:13532   */\n      0x00\n        /* \"#utility.yul\":13548:13568   */\n      tag_651\n        /* \"#utility.yul\":13566:13567   */\n      dup3\n        /* \"#utility.yul\":13548:13568   */\n      tag_456\n      jump\t// in\n    tag_651:\n        /* \"#utility.yul\":13543:13568   */\n      swap2\n      pop\n        /* \"#utility.yul\":13582:13602   */\n      tag_652\n        /* \"#utility.yul\":13600:13601   */\n      dup4\n        /* \"#utility.yul\":13582:13602   */\n      tag_456\n      jump\t// in\n    tag_652:\n        /* \"#utility.yul\":13577:13602   */\n      swap3\n      pop\n        /* \"#utility.yul\":13621:13622   */\n      dup3\n        /* \"#utility.yul\":13611:13646   */\n      tag_653\n      jumpi\n        /* \"#utility.yul\":13626:13644   */\n      tag_654\n      tag_479\n      jump\t// in\n    tag_654:\n        /* \"#utility.yul\":13611:13646   */\n    tag_653:\n        /* \"#utility.yul\":13668:13669   */\n      dup3\n        /* \"#utility.yul\":13665:13666   */\n      dup3\n        /* \"#utility.yul\":13661:13670   */\n      div\n        /* \"#utility.yul\":13656:13670   */\n      swap1\n      pop\n        /* \"#utility.yul\":13491:13676   */\n      swap3\n      swap2\n      pop\n      pop\n      jump\t// out\n        /* \"#utility.yul\":13682:13847   */\n    tag_480:\n        /* \"#utility.yul\":13822:13839   */\n      0x496e76616c6964206c6f74746572790000000000000000000000000000000000\n        /* \"#utility.yul\":13818:13819   */\n      0x00\n        /* \"#utility.yul\":13810:13816   */\n      dup3\n        /* \"#utility.yul\":13806:13820   */\n      add\n        /* \"#utility.yul\":13799:13840   */\n      mstore\n        /* \"#utility.yul\":13682:13847   */\n      pop\n      jump\t// out\n        /* \"#utility.yul\":13853:14219   */\n    tag_481:\n        /* \"#utility.yul\":13995:13998   */\n      0x00\n        /* \"#utility.yul\":14016:14083   */\n      tag_657\n        /* \"#utility.yul\":14080:14082   */\n      0x0f\n        /* \"#utility.yul\":14075:14078   */\n      dup4\n        /* \"#utility.yul\":14016:14083   */\n      tag_463\n      jump\t// in\n    tag_657:\n        /* \"#utility.yul\":14009:14083   */\n      swap2\n      pop\n        /* \"#utility.yul\":14092:14185   */\n      tag_658\n        /* \"#utility.yul\":14181:14184   */\n      dup3\n        /* \"#utility.yul\":14092:14185   */\n      tag_480\n      jump\t// in\n    tag_658:\n        /* \"#utility.yul\":14210:14212   */\n      0x20\n        /* \"#utility.yul\":14205:14208   */\n      dup3\n        /* \"#utility.yul\":14201:14213   */\n      add\n        /* \"#utility.yul\":14194:14213   */\n      swap1\n      pop\n        /* \"#utility.yul\":13853:14219   */\n      swap2\n      swap1\n      pop\n      jump\t// out\n        /* \"#utility.yul\":14225:14644   */\n    tag_249:\n        /* \"#utility.yul\":14391:14395   */\n      0x00\n        /* \"#utility.yul\":14429:14431   */\n      0x20\n        /* \"#utility.yul\":14418:14427   */\n      dup3\n        /* \"#utility.yul\":14414:14432   */\n      add\n        /* \"#utility.yul\":14406:14432   */\n      swap1\n      pop\n        /* \"#utility.yul\":14478:14487   */\n      dup2\n        /* \"#utility.yul\":14472:14476   */\n      dup2\n        /* \"#utility.yul\":14468:14488   */\n      sub\n        /* \"#utility.yul\":14464:14465   */\n      0x00\n        /* \"#utility.yul\":14453:14462   */\n      dup4\n        /* \"#utility.yul\":14449:14466   */\n      add\n        /* \"#utility.yul\":14442:14489   */\n      mstore\n        /* \"#utility.yul\":14506:14637   */\n      tag_660\n        /* \"#utility.yul\":14632:14636   */\n      dup2\n        /* \"#utility.yul\":14506:14637   */\n      tag_481\n      jump\t// in\n    tag_660:\n        /* \"#utility.yul\":14498:14637   */\n      swap1\n      pop\n        /* \"#utility.yul\":14225:14644   */\n      swap2\n      swap1\n      pop\n      jump\t// out\n        /* \"#utility.yul\":14650:14727   */\n    tag_482:\n        /* \"#utility.yul\":14687:14694   */\n      0x00\n        /* \"#utility.yul\":14716:14721   */\n      dup2\n        /* \"#utility.yul\":14705:14721   */\n      swap1\n      pop\n        /* \"#utility.yul\":14650:14727   */\n      swap2\n      swap1\n      pop\n      jump\t// out\n        /* \"#utility.yul\":14733:14851   */\n    tag_483:\n        /* \"#utility.yul\":14820:14844   */\n      tag_663\n        /* \"#utility.yul\":14838:14843   */\n      dup2\n        /* \"#utility.yul\":14820:14844   */\n      tag_482\n      jump\t// in\n    tag_663:\n        /* \"#utility.yul\":14815:14818   */\n      dup3\n        /* \"#utility.yul\":14808:14845   */\n      mstore\n        /* \"#utility.yul\":14733:14851   */\n      pop\n      pop\n      jump\t// out\n        /* \"#utility.yul\":14857:15079   */\n    tag_252:\n        /* \"#utility.yul\":14950:14954   */\n      0x00\n        /* \"#utility.yul\":14988:14990   */\n      0x20\n        /* \"#utility.yul\":14977:14986   */\n      dup3\n        /* \"#utility.yul\":14973:14991   */\n      add\n        /* \"#utility.yul\":14965:14991   */\n      swap1\n      pop\n        /* \"#utility.yul\":15001:15072   */\n      tag_665\n        /* \"#utility.yul\":15069:15070   */\n      0x00\n        /* \"#utility.yul\":15058:15067   */\n      dup4\n        /* \"#utility.yul\":15054:15071   */\n      add\n        /* \"#utility.yul\":15045:15051   */\n      dup5\n        /* \"#utility.yul\":15001:15072   */\n      tag_483\n      jump\t// in\n    tag_665:\n        /* \"#utility.yul\":14857:15079   */\n      swap3\n      swap2\n      pop\n      pop\n      jump\t// out\n        /* \"#utility.yul\":15085:15256   */\n    tag_484:\n        /* \"#utility.yul\":15225:15248   */\n      0x4c6f747465727920636f6d6d6974206661696c65640000000000000000000000\n        /* \"#utility.yul\":15221:15222   */\n      0x00\n        /* \"#utility.yul\":15213:15219   */\n      dup3\n        /* \"#utility.yul\":15209:15223   */\n      add\n        /* \"#utility.yul\":15202:15249   */\n      mstore\n        /* \"#utility.yul\":15085:15256   */\n      pop\n      jump\t// out\n        /* \"#utility.yul\":15262:15628   */\n    tag_485:\n        /* \"#utility.yul\":15404:15407   */\n      0x00\n        /* \"#utility.yul\":15425:15492   */\n      tag_668\n        /* \"#utility.yul\":15489:15491   */\n      0x15\n        /* \"#utility.yul\":15484:15487   */\n      dup4\n        /* \"#utility.yul\":15425:15492   */\n      tag_463\n      jump\t// in\n    tag_668:\n        /* \"#utility.yul\":15418:15492   */\n      swap2\n      pop\n        /* \"#utility.yul\":15501:15594   */\n      tag_669\n        /* \"#utility.yul\":15590:15593   */\n      dup3\n        /* \"#utility.yul\":15501:15594   */\n      tag_484\n      jump\t// in\n    tag_669:\n        /* \"#utility.yul\":15619:15621   */\n      0x20\n        /* \"#utility.yul\":15614:15617   */\n      dup3\n        /* \"#utility.yul\":15610:15622   */\n      add\n        /* \"#utility.yul\":15603:15622   */\n      swap1\n      pop\n        /* \"#utility.yul\":15262:15628   */\n      swap2\n      swap1\n      pop\n      jump\t// out\n        /* \"#utility.yul\":15634:16053   */\n    tag_260:\n        /* \"#utility.yul\":15800:15804   */\n      0x00\n        /* \"#utility.yul\":15838:15840   */\n      0x20\n        /* \"#utility.yul\":15827:15836   */\n      dup3\n        /* \"#utility.yul\":15823:15841   */\n      add\n        /* \"#utility.yul\":15815:15841   */\n      swap1\n      pop\n        /* \"#utility.yul\":15887:15896   */\n      dup2\n        /* \"#utility.yul\":15881:15885   */\n      dup2\n        /* \"#utility.yul\":15877:15897   */\n      sub\n        /* \"#utility.yul\":15873:15874   */\n      0x00\n        /* \"#utility.yul\":15862:15871   */\n      dup4\n        /* \"#utility.yul\":15858:15875   */\n      add\n        /* \"#utility.yul\":15851:15898   */\n      mstore\n        /* \"#utility.yul\":15915:16046   */\n      tag_671\n        /* \"#utility.yul\":16041:16045   */\n      dup2\n        /* \"#utility.yul\":15915:16046   */\n      tag_485\n      jump\t// in\n    tag_671:\n        /* \"#utility.yul\":15907:16046   */\n      swap1\n      pop\n        /* \"#utility.yul\":15634:16053   */\n      swap2\n      swap1\n      pop\n      jump\t// out\n        /* \"#utility.yul\":16059:16218   */\n    tag_486:\n        /* \"#utility.yul\":16199:16210   */\n      0x4e6f2073706f7573650000000000000000000000000000000000000000000000\n        /* \"#utility.yul\":16195:16196   */\n      0x00\n        /* \"#utility.yul\":16187:16193   */\n      dup3\n        /* \"#utility.yul\":16183:16197   */\n      add\n        /* \"#utility.yul\":16176:16211   */\n      mstore\n        /* \"#utility.yul\":16059:16218   */\n      pop\n      jump\t// out\n        /* \"#utility.yul\":16224:16589   */\n    tag_487:\n        /* \"#utility.yul\":16366:16369   */\n      0x00\n        /* \"#utility.yul\":16387:16453   */\n      tag_674\n        /* \"#utility.yul\":16451:16452   */\n      0x09\n        /* \"#utility.yul\":16446:16449   */\n      dup4\n        /* \"#utility.yul\":16387:16453   */\n      tag_463\n      jump\t// in\n    tag_674:\n        /* \"#utility.yul\":16380:16453   */\n      swap2\n      pop\n        /* \"#utility.yul\":16462:16555   */\n      tag_675\n        /* \"#utility.yul\":16551:16554   */\n      dup3\n        /* \"#utility.yul\":16462:16555   */\n      tag_486\n      jump\t// in\n    tag_675:\n        /* \"#utility.yul\":16580:16582   */\n      0x20\n        /* \"#utility.yul\":16575:16578   */\n      dup3\n        /* \"#utility.yul\":16571:16583   */\n      add\n        /* \"#utility.yul\":16564:16583   */\n      swap1\n      pop\n        /* \"#utility.yul\":16224:16589   */\n      swap2\n      swap1\n      pop\n      jump\t// out\n        /* \"#utility.yul\":16595:17014   */\n    tag_272:\n        /* \"#utility.yul\":16761:16765   */\n      0x00\n        /* \"#utility.yul\":16799:16801   */\n      0x20\n        /* \"#utility.yul\":16788:16797   */\n      dup3\n        /* \"#utility.yul\":16784:16802   */\n      add\n        /* \"#utility.yul\":16776:16802   */\n      swap1\n      pop\n        /* \"#utility.yul\":16848:16857   */\n      dup2\n        /* \"#utility.yul\":16842:16846   */\n      dup2\n        /* \"#utility.yul\":16838:16858   */\n      sub\n        /* \"#utility.yul\":16834:16835   */\n      0x00\n        /* \"#utility.yul\":16823:16832   */\n      dup4\n        /* \"#utility.yul\":16819:16836   */\n      add\n        /* \"#utility.yul\":16812:16859   */\n      mstore\n        /* \"#utility.yul\":16876:17007   */\n      tag_677\n        /* \"#utility.yul\":17002:17006   */\n      dup2\n        /* \"#utility.yul\":16876:17007   */\n      tag_487\n      jump\t// in\n    tag_677:\n        /* \"#utility.yul\":16868:17007   */\n      swap1\n      pop\n        /* \"#utility.yul\":16595:17014   */\n      swap2\n      swap1\n      pop\n      jump\t// out\n        /* \"#utility.yul\":17020:17181   */\n    tag_488:\n        /* \"#utility.yul\":17160:17173   */\n      0x5a65726f206368616e6765000000000000000000000000000000000000000000\n        /* \"#utility.yul\":17156:17157   */\n      0x00\n        /* \"#utility.yul\":17148:17154   */\n      dup3\n        /* \"#utility.yul\":17144:17158   */\n      add\n        /* \"#utility.yul\":17137:17174   */\n      mstore\n        /* \"#utility.yul\":17020:17181   */\n      pop\n      jump\t// out\n        /* \"#utility.yul\":17187:17553   */\n    tag_489:\n        /* \"#utility.yul\":17329:17332   */\n      0x00\n        /* \"#utility.yul\":17350:17417   */\n      tag_680\n        /* \"#utility.yul\":17414:17416   */\n      0x0b\n        /* \"#utility.yul\":17409:17412   */\n      dup4\n        /* \"#utility.yul\":17350:17417   */\n      tag_463\n      jump\t// in\n    tag_680:\n        /* \"#utility.yul\":17343:17417   */\n      swap2\n      pop\n        /* \"#utility.yul\":17426:17519   */\n      tag_681\n        /* \"#utility.yul\":17515:17518   */\n      dup3\n        /* \"#utility.yul\":17426:17519   */\n      tag_488\n      jump\t// in\n    tag_681:\n        /* \"#utility.yul\":17544:17546   */\n      0x20\n        /* \"#utility.yul\":17539:17542   */\n      dup3\n        /* \"#utility.yul\":17535:17547   */\n      add\n        /* \"#utility.yul\":17528:17547   */\n      swap1\n      pop\n        /* \"#utility.yul\":17187:17553   */\n      swap2\n      swap1\n      pop\n      jump\t// out\n        /* \"#utility.yul\":17559:17978   */\n    tag_275:\n        /* \"#utility.yul\":17725:17729   */\n      0x00\n        /* \"#utility.yul\":17763:17765   */\n      0x20\n        /* \"#utility.yul\":17752:17761   */\n      dup3\n        /* \"#utility.yul\":17748:17766   */\n      add\n        /* \"#utility.yul\":17740:17766   */\n      swap1\n      pop\n        /* \"#utility.yul\":17812:17821   */\n      dup2\n        /* \"#utility.yul\":17806:17810   */\n      dup2\n        /* \"#utility.yul\":17802:17822   */\n      sub\n        /* \"#utility.yul\":17798:17799   */\n      0x00\n        /* \"#utility.yul\":17787:17796   */\n      dup4\n        /* \"#utility.yul\":17783:17800   */\n      add\n        /* \"#utility.yul\":17776:17823   */\n      mstore\n        /* \"#utility.yul\":17840:17971   */\n      tag_683\n        /* \"#utility.yul\":17966:17970   */\n      dup2\n        /* \"#utility.yul\":17840:17971   */\n      tag_489\n      jump\t// in\n    tag_683:\n        /* \"#utility.yul\":17832:17971   */\n      swap1\n      pop\n        /* \"#utility.yul\":17559:17978   */\n      swap2\n      swap1\n      pop\n      jump\t// out\n        /* \"#utility.yul\":17984:18154   */\n    tag_490:\n        /* \"#utility.yul\":18124:18146   */\n      0x4e6f7420656e6f75676820616c6c6f77616e6365000000000000000000000000\n        /* \"#utility.yul\":18120:18121   */\n      0x00\n        /* \"#utility.yul\":18112:18118   */\n      dup3\n        /* \"#utility.yul\":18108:18122   */\n      add\n        /* \"#utility.yul\":18101:18147   */\n      mstore\n        /* \"#utility.yul\":17984:18154   */\n      pop\n      jump\t// out\n        /* \"#utility.yul\":18160:18526   */\n    tag_491:\n        /* \"#utility.yul\":18302:18305   */\n      0x00\n        /* \"#utility.yul\":18323:18390   */\n      tag_686\n        /* \"#utility.yul\":18387:18389   */\n      0x14\n        /* \"#utility.yul\":18382:18385   */\n      dup4\n        /* \"#utility.yul\":18323:18390   */\n      tag_463\n      jump\t// in\n    tag_686:\n        /* \"#utility.yul\":18316:18390   */\n      swap2\n      pop\n        /* \"#utility.yul\":18399:18492   */\n      tag_687\n        /* \"#utility.yul\":18488:18491   */\n      dup3\n        /* \"#utility.yul\":18399:18492   */\n      tag_490\n      jump\t// in\n    tag_687:\n        /* \"#utility.yul\":18517:18519   */\n      0x20\n        /* \"#utility.yul\":18512:18515   */\n      dup3\n        /* \"#utility.yul\":18508:18520   */\n      add\n        /* \"#utility.yul\":18501:18520   */\n      swap1\n      pop\n        /* \"#utility.yul\":18160:18526   */\n      swap2\n      swap1\n      pop\n      jump\t// out\n        /* \"#utility.yul\":18532:18951   */\n    tag_278:\n        /* \"#utility.yul\":18698:18702   */\n      0x00\n        /* \"#utility.yul\":18736:18738   */\n      0x20\n        /* \"#utility.yul\":18725:18734   */\n      dup3\n        /* \"#utility.yul\":18721:18739   */\n      add\n        /* \"#utility.yul\":18713:18739   */\n      swap1\n      pop\n        /* \"#utility.yul\":18785:18794   */\n      dup2\n        /* \"#utility.yul\":18779:18783   */\n      dup2\n        /* \"#utility.yul\":18775:18795   */\n      sub\n        /* \"#utility.yul\":18771:18772   */\n      0x00\n        /* \"#utility.yul\":18760:18769   */\n      dup4\n        /* \"#utility.yul\":18756:18773   */\n      add\n        /* \"#utility.yul\":18749:18796   */\n      mstore\n        /* \"#utility.yul\":18813:18944   */\n      tag_689\n        /* \"#utility.yul\":18939:18943   */\n      dup2\n        /* \"#utility.yul\":18813:18944   */\n      tag_491\n      jump\t// in\n    tag_689:\n        /* \"#utility.yul\":18805:18944   */\n      swap1\n      pop\n        /* \"#utility.yul\":18532:18951   */\n      swap2\n      swap1\n      pop\n      jump\t// out\n        /* \"#utility.yul\":18957:19289   */\n    tag_281:\n        /* \"#utility.yul\":19078:19082   */\n      0x00\n        /* \"#utility.yul\":19116:19118   */\n      0x40\n        /* \"#utility.yul\":19105:19114   */\n      dup3\n        /* \"#utility.yul\":19101:19119   */\n      add\n        /* \"#utility.yul\":19093:19119   */\n      swap1\n      pop\n        /* \"#utility.yul\":19129:19200   */\n      tag_691\n        /* \"#utility.yul\":19197:19198   */\n      0x00\n        /* \"#utility.yul\":19186:19195   */\n      dup4\n        /* \"#utility.yul\":19182:19199   */\n      add\n        /* \"#utility.yul\":19173:19179   */\n      dup6\n        /* \"#utility.yul\":19129:19200   */\n      tag_459\n      jump\t// in\n    tag_691:\n        /* \"#utility.yul\":19210:19282   */\n      tag_692\n        /* \"#utility.yul\":19278:19280   */\n      0x20\n        /* \"#utility.yul\":19267:19276   */\n      dup4\n        /* \"#utility.yul\":19263:19281   */\n      add\n        /* \"#utility.yul\":19254:19260   */\n      dup5\n        /* \"#utility.yul\":19210:19282   */\n      tag_450\n      jump\t// in\n    tag_692:\n        /* \"#utility.yul\":18957:19289   */\n      swap4\n      swap3\n      pop\n      pop\n      pop\n      jump\t// out\n        /* \"#utility.yul\":19295:19470   */\n    tag_492:\n        /* \"#utility.yul\":19435:19462   */\n      0x4661696c656420746f207472616e736665722073706f75736500000000000000\n        /* \"#utility.yul\":19431:19432   */\n      0x00\n        /* \"#utility.yul\":19423:19429   */\n      dup3\n        /* \"#utility.yul\":19419:19433   */\n      add\n        /* \"#utility.yul\":19412:19463   */\n      mstore\n        /* \"#utility.yul\":19295:19470   */\n      pop\n      jump\t// out\n        /* \"#utility.yul\":19476:19842   */\n    tag_493:\n        /* \"#utility.yul\":19618:19621   */\n      0x00\n        /* \"#utility.yul\":19639:19706   */\n      tag_695\n        /* \"#utility.yul\":19703:19705   */\n      0x19\n        /* \"#utility.yul\":19698:19701   */\n      dup4\n        /* \"#utility.yul\":19639:19706   */\n      tag_463\n      jump\t// in\n    tag_695:\n        /* \"#utility.yul\":19632:19706   */\n      swap2\n      pop\n        /* \"#utility.yul\":19715:19808   */\n      tag_696\n        /* \"#utility.yul\":19804:19807   */\n      dup3\n        /* \"#utility.yul\":19715:19808   */\n      tag_492\n      jump\t// in\n    tag_696:\n        /* \"#utility.yul\":19833:19835   */\n      0x20\n        /* \"#utility.yul\":19828:19831   */\n      dup3\n        /* \"#utility.yul\":19824:19836   */\n      add\n        /* \"#utility.yul\":19817:19836   */\n      swap1\n      pop\n        /* \"#utility.yul\":19476:19842   */\n      swap2\n      swap1\n      pop\n      jump\t// out\n        /* \"#utility.yul\":19848:20267   */\n    tag_289:\n        /* \"#utility.yul\":20014:20018   */\n      0x00\n        /* \"#utility.yul\":20052:20054   */\n      0x20\n        /* \"#utility.yul\":20041:20050   */\n      dup3\n        /* \"#utility.yul\":20037:20055   */\n      add\n        /* \"#utility.yul\":20029:20055   */\n      swap1\n      pop\n        /* \"#utility.yul\":20101:20110   */\n      dup2\n        /* \"#utility.yul\":20095:20099   */\n      dup2\n        /* \"#utility.yul\":20091:20111   */\n      sub\n        /* \"#utility.yul\":20087:20088   */\n      0x00\n        /* \"#utility.yul\":20076:20085   */\n      dup4\n        /* \"#utility.yul\":20072:20089   */\n      add\n        /* \"#utility.yul\":20065:20112   */\n      mstore\n        /* \"#utility.yul\":20129:20260   */\n      tag_698\n        /* \"#utility.yul\":20255:20259   */\n      dup2\n        /* \"#utility.yul\":20129:20260   */\n      tag_493\n      jump\t// in\n    tag_698:\n        /* \"#utility.yul\":20121:20260   */\n      swap1\n      pop\n        /* \"#utility.yul\":19848:20267   */\n      swap2\n      swap1\n      pop\n      jump\t// out\n        /* \"#utility.yul\":20273:20395   */\n    tag_494:\n        /* \"#utility.yul\":20346:20370   */\n      tag_700\n        /* \"#utility.yul\":20364:20369   */\n      dup2\n        /* \"#utility.yul\":20346:20370   */\n      tag_482\n      jump\t// in\n    tag_700:\n        /* \"#utility.yul\":20339:20344   */\n      dup2\n        /* \"#utility.yul\":20336:20371   */\n      eq\n        /* \"#utility.yul\":20326:20389   */\n      tag_701\n      jumpi\n        /* \"#utility.yul\":20385:20386   */\n      0x00\n        /* \"#utility.yul\":20382:20383   */\n      0x00\n        /* \"#utility.yul\":20375:20387   */\n      revert\n        /* \"#utility.yul\":20326:20389   */\n    tag_701:\n        /* \"#utility.yul\":20273:20395   */\n      pop\n      jump\t// out\n        /* \"#utility.yul\":20401:20544   */\n    tag_495:\n        /* \"#utility.yul\":20458:20463   */\n      0x00\n        /* \"#utility.yul\":20489:20495   */\n      dup2\n        /* \"#utility.yul\":20483:20496   */\n      mload\n        /* \"#utility.yul\":20474:20496   */\n      swap1\n      pop\n        /* \"#utility.yul\":20505:20538   */\n      tag_703\n        /* \"#utility.yul\":20532:20537   */\n      dup2\n        /* \"#utility.yul\":20505:20538   */\n      tag_494\n      jump\t// in\n    tag_703:\n        /* \"#utility.yul\":20401:20544   */\n      swap3\n      swap2\n      pop\n      pop\n      jump\t// out\n        /* \"#utility.yul\":20550:20901   */\n    tag_299:\n        /* \"#utility.yul\":20620:20626   */\n      0x00\n        /* \"#utility.yul\":20669:20671   */\n      0x20\n        /* \"#utility.yul\":20657:20666   */\n      dup3\n        /* \"#utility.yul\":20648:20655   */\n      dup5\n        /* \"#utility.yul\":20644:20667   */\n      sub\n        /* \"#utility.yul\":20640:20672   */\n      slt\n        /* \"#utility.yul\":20637:20756   */\n      iszero\n      tag_705\n      jumpi\n        /* \"#utility.yul\":20675:20754   */\n      tag_706\n      tag_452\n      jump\t// in\n    tag_706:\n        /* \"#utility.yul\":20637:20756   */\n    tag_705:\n        /* \"#utility.yul\":20795:20796   */\n      0x00\n        /* \"#utility.yul\":20820:20884   */\n      tag_707\n        /* \"#utility.yul\":20876:20883   */\n      dup5\n        /* \"#utility.yul\":20867:20873   */\n      dup3\n        /* \"#utility.yul\":20856:20865   */\n      dup6\n        /* \"#utility.yul\":20852:20874   */\n      add\n        /* \"#utility.yul\":20820:20884   */\n      tag_495\n      jump\t// in\n    tag_707:\n        /* \"#utility.yul\":20810:20884   */\n      swap2\n      pop\n        /* \"#utility.yul\":20766:20894   */\n      pop\n        /* \"#utility.yul\":20550:20901   */\n      swap3\n      swap2\n      pop\n      pop\n      jump\t// out\n        /* \"#utility.yul\":20907:21077   */\n    tag_496:\n        /* \"#utility.yul\":21047:21069   */\n      0x4920616d20616c7265616479206d617272696564000000000000000000000000\n        /* \"#utility.yul\":21043:21044   */\n      0x00\n        /* \"#utility.yul\":21035:21041   */\n      dup3\n        /* \"#utility.yul\":21031:21045   */\n      add\n        /* \"#utility.yul\":21024:21070   */\n      mstore\n        /* \"#utility.yul\":20907:21077   */\n      pop\n      jump\t// out\n        /* \"#utility.yul\":21083:21449   */\n    tag_497:\n        /* \"#utility.yul\":21225:21228   */\n      0x00\n        /* \"#utility.yul\":21246:21313   */\n      tag_710\n        /* \"#utility.yul\":21310:21312   */\n      0x14\n        /* \"#utility.yul\":21305:21308   */\n      dup4\n        /* \"#utility.yul\":21246:21313   */\n      tag_463\n      jump\t// in\n    tag_710:\n        /* \"#utility.yul\":21239:21313   */\n      swap2\n      pop\n        /* \"#utility.yul\":21322:21415   */\n      tag_711\n        /* \"#utility.yul\":21411:21414   */\n      dup3\n        /* \"#utility.yul\":21322:21415   */\n      tag_496\n      jump\t// in\n    tag_711:\n        /* \"#utility.yul\":21440:21442   */\n      0x20\n        /* \"#utility.yul\":21435:21438   */\n      dup3\n        /* \"#utility.yul\":21431:21443   */\n      add\n        /* \"#utility.yul\":21424:21443   */\n      swap1\n      pop\n        /* \"#utility.yul\":21083:21449   */\n      swap2\n      swap1\n      pop\n      jump\t// out\n        /* \"#utility.yul\":21455:21874   */\n    tag_321:\n        /* \"#utility.yul\":21621:21625   */\n      0x00\n        /* \"#utility.yul\":21659:21661   */\n      0x20\n        /* \"#utility.yul\":21648:21657   */\n      dup3\n        /* \"#utility.yul\":21644:21662   */\n      add\n        /* \"#utility.yul\":21636:21662   */\n      swap1\n      pop\n        /* \"#utility.yul\":21708:21717   */\n      dup2\n        /* \"#utility.yul\":21702:21706   */\n      dup2\n        /* \"#utility.yul\":21698:21718   */\n      sub\n        /* \"#utility.yul\":21694:21695   */\n      0x00\n        /* \"#utility.yul\":21683:21692   */\n      dup4\n        /* \"#utility.yul\":21679:21696   */\n      add\n        /* \"#utility.yul\":21672:21719   */\n      mstore\n        /* \"#utility.yul\":21736:21867   */\n      tag_713\n        /* \"#utility.yul\":21862:21866   */\n      dup2\n        /* \"#utility.yul\":21736:21867   */\n      tag_497\n      jump\t// in\n    tag_713:\n        /* \"#utility.yul\":21728:21867   */\n      swap1\n      pop\n        /* \"#utility.yul\":21455:21874   */\n      swap2\n      swap1\n      pop\n      jump\t// out\n        /* \"#utility.yul\":21880:22059   */\n    tag_498:\n        /* \"#utility.yul\":22020:22051   */\n      0x53706f7573652063616e6e6f74206265207a65726f2061646472657373000000\n        /* \"#utility.yul\":22016:22017   */\n      0x00\n        /* \"#utility.yul\":22008:22014   */\n      dup3\n        /* \"#utility.yul\":22004:22018   */\n      add\n        /* \"#utility.yul\":21997:22052   */\n      mstore\n        /* \"#utility.yul\":21880:22059   */\n      pop\n      jump\t// out\n        /* \"#utility.yul\":22065:22431   */\n    tag_499:\n        /* \"#utility.yul\":22207:22210   */\n      0x00\n        /* \"#utility.yul\":22228:22295   */\n      tag_716\n        /* \"#utility.yul\":22292:22294   */\n      0x1d\n        /* \"#utility.yul\":22287:22290   */\n      dup4\n        /* \"#utility.yul\":22228:22295   */\n      tag_463\n      jump\t// in\n    tag_716:\n        /* \"#utility.yul\":22221:22295   */\n      swap2\n      pop\n        /* \"#utility.yul\":22304:22397   */\n      tag_717\n        /* \"#utility.yul\":22393:22396   */\n      dup3\n        /* \"#utility.yul\":22304:22397   */\n      tag_498\n      jump\t// in\n    tag_717:\n        /* \"#utility.yul\":22422:22424   */\n      0x20\n        /* \"#utility.yul\":22417:22420   */\n      dup3\n        /* \"#utility.yul\":22413:22425   */\n      add\n        /* \"#utility.yul\":22406:22425   */\n      swap1\n      pop\n        /* \"#utility.yul\":22065:22431   */\n      swap2\n      swap1\n      pop\n      jump\t// out\n        /* \"#utility.yul\":22437:22856   */\n    tag_324:\n        /* \"#utility.yul\":22603:22607   */\n      0x00\n        /* \"#utility.yul\":22641:22643   */\n      0x20\n        /* \"#utility.yul\":22630:22639   */\n      dup3\n        /* \"#utility.yul\":22626:22644   */\n      add\n        /* \"#utility.yul\":22618:22644   */\n      swap1\n      pop\n        /* \"#utility.yul\":22690:22699   */\n      dup2\n        /* \"#utility.yul\":22684:22688   */\n      dup2\n        /* \"#utility.yul\":22680:22700   */\n      sub\n        /* \"#utility.yul\":22676:22677   */\n      0x00\n        /* \"#utility.yul\":22665:22674   */\n      dup4\n        /* \"#utility.yul\":22661:22678   */\n      add\n        /* \"#utility.yul\":22654:22701   */\n      mstore\n        /* \"#utility.yul\":22718:22849   */\n      tag_719\n        /* \"#utility.yul\":22844:22848   */\n      dup2\n        /* \"#utility.yul\":22718:22849   */\n      tag_499\n      jump\t// in\n    tag_719:\n        /* \"#utility.yul\":22710:22849   */\n      swap1\n      pop\n        /* \"#utility.yul\":22437:22856   */\n      swap2\n      swap1\n      pop\n      jump\t// out\n        /* \"#utility.yul\":22862:23031   */\n    tag_500:\n        /* \"#utility.yul\":23002:23023   */\n      0x43616e6e6f74206d61727279206d7973656c6600000000000000000000000000\n        /* \"#utility.yul\":22998:22999   */\n      0x00\n        /* \"#utility.yul\":22990:22996   */\n      dup3\n        /* \"#utility.yul\":22986:23000   */\n      add\n        /* \"#utility.yul\":22979:23024   */\n      mstore\n        /* \"#utility.yul\":22862:23031   */\n      pop\n      jump\t// out\n        /* \"#utility.yul\":23037:23403   */\n    tag_501:\n        /* \"#utility.yul\":23179:23182   */\n      0x00\n        /* \"#utility.yul\":23200:23267   */\n      tag_722\n        /* \"#utility.yul\":23264:23266   */\n      0x13\n        /* \"#utility.yul\":23259:23262   */\n      dup4\n        /* \"#utility.yul\":23200:23267   */\n      tag_463\n      jump\t// in\n    tag_722:\n        /* \"#utility.yul\":23193:23267   */\n      swap2\n      pop\n        /* \"#utility.yul\":23276:23369   */\n      tag_723\n        /* \"#utility.yul\":23365:23368   */\n      dup3\n        /* \"#utility.yul\":23276:23369   */\n      tag_500\n      jump\t// in\n    tag_723:\n        /* \"#utility.yul\":23394:23396   */\n      0x20\n        /* \"#utility.yul\":23389:23392   */\n      dup3\n        /* \"#utility.yul\":23385:23397   */\n      add\n        /* \"#utility.yul\":23378:23397   */\n      swap1\n      pop\n        /* \"#utility.yul\":23037:23403   */\n      swap2\n      swap1\n      pop\n      jump\t// out\n        /* \"#utility.yul\":23409:23828   */\n    tag_327:\n        /* \"#utility.yul\":23575:23579   */\n      0x00\n        /* \"#utility.yul\":23613:23615   */\n      0x20\n        /* \"#utility.yul\":23602:23611   */\n      dup3\n        /* \"#utility.yul\":23598:23616   */\n      add\n        /* \"#utility.yul\":23590:23616   */\n      swap1\n      pop\n        /* \"#utility.yul\":23662:23671   */\n      dup2\n        /* \"#utility.yul\":23656:23660   */\n      dup2\n        /* \"#utility.yul\":23652:23672   */\n      sub\n        /* \"#utility.yul\":23648:23649   */\n      0x00\n        /* \"#utility.yul\":23637:23646   */\n      dup4\n        /* \"#utility.yul\":23633:23650   */\n      add\n        /* \"#utility.yul\":23626:23673   */\n      mstore\n        /* \"#utility.yul\":23690:23821   */\n      tag_725\n        /* \"#utility.yul\":23816:23820   */\n      dup2\n        /* \"#utility.yul\":23690:23821   */\n      tag_501\n      jump\t// in\n    tag_725:\n        /* \"#utility.yul\":23682:23821   */\n      swap1\n      pop\n        /* \"#utility.yul\":23409:23828   */\n      swap2\n      swap1\n      pop\n      jump\t// out\n        /* \"#utility.yul\":23834:24009   */\n    tag_502:\n        /* \"#utility.yul\":23974:24001   */\n      0x53706f757365206d757374206265206120636f6e747261637400000000000000\n        /* \"#utility.yul\":23970:23971   */\n      0x00\n        /* \"#utility.yul\":23962:23968   */\n      dup3\n        /* \"#utility.yul\":23958:23972   */\n      add\n        /* \"#utility.yul\":23951:24002   */\n      mstore\n        /* \"#utility.yul\":23834:24009   */\n      pop\n      jump\t// out\n        /* \"#utility.yul\":24015:24381   */\n    tag_503:\n        /* \"#utility.yul\":24157:24160   */\n      0x00\n        /* \"#utility.yul\":24178:24245   */\n      tag_728\n        /* \"#utility.yul\":24242:24244   */\n      0x19\n        /* \"#utility.yul\":24237:24240   */\n      dup4\n        /* \"#utility.yul\":24178:24245   */\n      tag_463\n      jump\t// in\n    tag_728:\n        /* \"#utility.yul\":24171:24245   */\n      swap2\n      pop\n        /* \"#utility.yul\":24254:24347   */\n      tag_729\n        /* \"#utility.yul\":24343:24346   */\n      dup3\n        /* \"#utility.yul\":24254:24347   */\n      tag_502\n      jump\t// in\n    tag_729:\n        /* \"#utility.yul\":24372:24374   */\n      0x20\n        /* \"#utility.yul\":24367:24370   */\n      dup3\n        /* \"#utility.yul\":24363:24375   */\n      add\n        /* \"#utility.yul\":24356:24375   */\n      swap1\n      pop\n        /* \"#utility.yul\":24015:24381   */\n      swap2\n      swap1\n      pop\n      jump\t// out\n        /* \"#utility.yul\":24387:24806   */\n    tag_330:\n        /* \"#utility.yul\":24553:24557   */\n      0x00\n        /* \"#utility.yul\":24591:24593   */\n      0x20\n        /* \"#utility.yul\":24580:24589   */\n      dup3\n        /* \"#utility.yul\":24576:24594   */\n      add\n        /* \"#utility.yul\":24568:24594   */\n      swap1\n      pop\n        /* \"#utility.yul\":24640:24649   */\n      dup2\n        /* \"#utility.yul\":24634:24638   */\n      dup2\n        /* \"#utility.yul\":24630:24650   */\n      sub\n        /* \"#utility.yul\":24626:24627   */\n      0x00\n        /* \"#utility.yul\":24615:24624   */\n      dup4\n        /* \"#utility.yul\":24611:24628   */\n      add\n        /* \"#utility.yul\":24604:24651   */\n      mstore\n        /* \"#utility.yul\":24668:24799   */\n      tag_731\n        /* \"#utility.yul\":24794:24798   */\n      dup2\n        /* \"#utility.yul\":24668:24799   */\n      tag_503\n      jump\t// in\n    tag_731:\n        /* \"#utility.yul\":24660:24799   */\n      swap1\n      pop\n        /* \"#utility.yul\":24387:24806   */\n      swap2\n      swap1\n      pop\n      jump\t// out\n        /* \"#utility.yul\":24812:24983   */\n    tag_504:\n        /* \"#utility.yul\":24952:24975   */\n      0x53706f757365206e6f7420636f6d70617469626c650000000000000000000000\n        /* \"#utility.yul\":24948:24949   */\n      0x00\n        /* \"#utility.yul\":24940:24946   */\n      dup3\n        /* \"#utility.yul\":24936:24950   */\n      add\n        /* \"#utility.yul\":24929:24976   */\n      mstore\n        /* \"#utility.yul\":24812:24983   */\n      pop\n      jump\t// out\n        /* \"#utility.yul\":24989:25355   */\n    tag_505:\n        /* \"#utility.yul\":25131:25134   */\n      0x00\n        /* \"#utility.yul\":25152:25219   */\n      tag_734\n        /* \"#utility.yul\":25216:25218   */\n      0x15\n        /* \"#utility.yul\":25211:25214   */\n      dup4\n        /* \"#utility.yul\":25152:25219   */\n      tag_463\n      jump\t// in\n    tag_734:\n        /* \"#utility.yul\":25145:25219   */\n      swap2\n      pop\n        /* \"#utility.yul\":25228:25321   */\n      tag_735\n        /* \"#utility.yul\":25317:25320   */\n      dup3\n        /* \"#utility.yul\":25228:25321   */\n      tag_504\n      jump\t// in\n    tag_735:\n        /* \"#utility.yul\":25346:25348   */\n      0x20\n        /* \"#utility.yul\":25341:25344   */\n      dup3\n        /* \"#utility.yul\":25337:25349   */\n      add\n        /* \"#utility.yul\":25330:25349   */\n      swap1\n      pop\n        /* \"#utility.yul\":24989:25355   */\n      swap2\n      swap1\n      pop\n      jump\t// out\n        /* \"#utility.yul\":25361:25780   */\n    tag_338:\n        /* \"#utility.yul\":25527:25531   */\n      0x00\n        /* \"#utility.yul\":25565:25567   */\n      0x20\n        /* \"#utility.yul\":25554:25563   */\n      dup3\n        /* \"#utility.yul\":25550:25568   */\n      add\n        /* \"#utility.yul\":25542:25568   */\n      swap1\n      pop\n        /* \"#utility.yul\":25614:25623   */\n      dup2\n        /* \"#utility.yul\":25608:25612   */\n      dup2\n        /* \"#utility.yul\":25604:25624   */\n      sub\n        /* \"#utility.yul\":25600:25601   */\n      0x00\n        /* \"#utility.yul\":25589:25598   */\n      dup4\n        /* \"#utility.yul\":25585:25602   */\n      add\n        /* \"#utility.yul\":25578:25625   */\n      mstore\n        /* \"#utility.yul\":25642:25773   */\n      tag_737\n        /* \"#utility.yul\":25768:25772   */\n      dup2\n        /* \"#utility.yul\":25642:25773   */\n      tag_505\n      jump\t// in\n    tag_737:\n        /* \"#utility.yul\":25634:25773   */\n      swap1\n      pop\n        /* \"#utility.yul\":25361:25780   */\n      swap2\n      swap1\n      pop\n      jump\t// out\n        /* \"#utility.yul\":25786:25958   */\n    tag_506:\n        /* \"#utility.yul\":25926:25950   */\n      0x53706f75736520616c7265616479206d61727269656400000000000000000000\n        /* \"#utility.yul\":25922:25923   */\n      0x00\n        /* \"#utility.yul\":25914:25920   */\n      dup3\n        /* \"#utility.yul\":25910:25924   */\n      add\n        /* \"#utility.yul\":25903:25951   */\n      mstore\n        /* \"#utility.yul\":25786:25958   */\n      pop\n      jump\t// out\n        /* \"#utility.yul\":25964:26330   */\n    tag_507:\n        /* \"#utility.yul\":26106:26109   */\n      0x00\n        /* \"#utility.yul\":26127:26194   */\n      tag_740\n        /* \"#utility.yul\":26191:26193   */\n      0x16\n        /* \"#utility.yul\":26186:26189   */\n      dup4\n        /* \"#utility.yul\":26127:26194   */\n      tag_463\n      jump\t// in\n    tag_740:\n        /* \"#utility.yul\":26120:26194   */\n      swap2\n      pop\n        /* \"#utility.yul\":26203:26296   */\n      tag_741\n        /* \"#utility.yul\":26292:26295   */\n      dup3\n        /* \"#utility.yul\":26203:26296   */\n      tag_506\n      jump\t// in\n    tag_741:\n        /* \"#utility.yul\":26321:26323   */\n      0x20\n        /* \"#utility.yul\":26316:26319   */\n      dup3\n        /* \"#utility.yul\":26312:26324   */\n      add\n        /* \"#utility.yul\":26305:26324   */\n      swap1\n      pop\n        /* \"#utility.yul\":25964:26330   */\n      swap2\n      swap1\n      pop\n      jump\t// out\n        /* \"#utility.yul\":26336:26755   */\n    tag_342:\n        /* \"#utility.yul\":26502:26506   */\n      0x00\n        /* \"#utility.yul\":26540:26542   */\n      0x20\n        /* \"#utility.yul\":26529:26538   */\n      dup3\n        /* \"#utility.yul\":26525:26543   */\n      add\n        /* \"#utility.yul\":26517:26543   */\n      swap1\n      pop\n        /* \"#utility.yul\":26589:26598   */\n      dup2\n        /* \"#utility.yul\":26583:26587   */\n      dup2\n        /* \"#utility.yul\":26579:26599   */\n      sub\n        /* \"#utility.yul\":26575:26576   */\n      0x00\n        /* \"#utility.yul\":26564:26573   */\n      dup4\n        /* \"#utility.yul\":26560:26577   */\n      add\n        /* \"#utility.yul\":26553:26600   */\n      mstore\n        /* \"#utility.yul\":26617:26748   */\n      tag_743\n        /* \"#utility.yul\":26743:26747   */\n      dup2\n        /* \"#utility.yul\":26617:26748   */\n      tag_507\n      jump\t// in\n    tag_743:\n        /* \"#utility.yul\":26609:26748   */\n      swap1\n      pop\n        /* \"#utility.yul\":26336:26755   */\n      swap2\n      swap1\n      pop\n      jump\t// out\n        /* \"#utility.yul\":26761:26935   */\n    tag_508:\n        /* \"#utility.yul\":26901:26927   */\n      0x4661696c656420746f2075706461746520706172746e65720000000000000000\n        /* \"#utility.yul\":26897:26898   */\n      0x00\n        /* \"#utility.yul\":26889:26895   */\n      dup3\n        /* \"#utility.yul\":26885:26899   */\n      add\n        /* \"#utility.yul\":26878:26928   */\n      mstore\n        /* \"#utility.yul\":26761:26935   */\n      pop\n      jump\t// out\n        /* \"#utility.yul\":26941:27307   */\n    tag_509:\n        /* \"#utility.yul\":27083:27086   */\n      0x00\n        /* \"#utility.yul\":27104:27171   */\n      tag_746\n        /* \"#utility.yul\":27168:27170   */\n      0x18\n        /* \"#utility.yul\":27163:27166   */\n      dup4\n        /* \"#utility.yul\":27104:27171   */\n      tag_463\n      jump\t// in\n    tag_746:\n        /* \"#utility.yul\":27097:27171   */\n      swap2\n      pop\n        /* \"#utility.yul\":27180:27273   */\n      tag_747\n        /* \"#utility.yul\":27269:27272   */\n      dup3\n        /* \"#utility.yul\":27180:27273   */\n      tag_508\n      jump\t// in\n    tag_747:\n        /* \"#utility.yul\":27298:27300   */\n      0x20\n        /* \"#utility.yul\":27293:27296   */\n      dup3\n        /* \"#utility.yul\":27289:27301   */\n      add\n        /* \"#utility.yul\":27282:27301   */\n      swap1\n      pop\n        /* \"#utility.yul\":26941:27307   */\n      swap2\n      swap1\n      pop\n      jump\t// out\n        /* \"#utility.yul\":27313:27732   */\n    tag_352:\n        /* \"#utility.yul\":27479:27483   */\n      0x00\n        /* \"#utility.yul\":27517:27519   */\n      0x20\n        /* \"#utility.yul\":27506:27515   */\n      dup3\n        /* \"#utility.yul\":27502:27520   */\n      add\n        /* \"#utility.yul\":27494:27520   */\n      swap1\n      pop\n        /* \"#utility.yul\":27566:27575   */\n      dup2\n        /* \"#utility.yul\":27560:27564   */\n      dup2\n        /* \"#utility.yul\":27556:27576   */\n      sub\n        /* \"#utility.yul\":27552:27553   */\n      0x00\n        /* \"#utility.yul\":27541:27550   */\n      dup4\n        /* \"#utility.yul\":27537:27554   */\n      add\n        /* \"#utility.yul\":27530:27577   */\n      mstore\n        /* \"#utility.yul\":27594:27725   */\n      tag_749\n        /* \"#utility.yul\":27720:27724   */\n      dup2\n        /* \"#utility.yul\":27594:27725   */\n      tag_509\n      jump\t// in\n    tag_749:\n        /* \"#utility.yul\":27586:27725   */\n      swap1\n      pop\n        /* \"#utility.yul\":27313:27732   */\n      swap2\n      swap1\n      pop\n      jump\t// out\n        /* \"#utility.yul\":27738:27881   */\n    tag_510:\n        /* \"#utility.yul\":27795:27800   */\n      0x00\n        /* \"#utility.yul\":27826:27832   */\n      dup2\n        /* \"#utility.yul\":27820:27833   */\n      mload\n        /* \"#utility.yul\":27811:27833   */\n      swap1\n      pop\n        /* \"#utility.yul\":27842:27875   */\n      tag_751\n        /* \"#utility.yul\":27869:27874   */\n      dup2\n        /* \"#utility.yul\":27842:27875   */\n      tag_457\n      jump\t// in\n    tag_751:\n        /* \"#utility.yul\":27738:27881   */\n      swap3\n      swap2\n      pop\n      pop\n      jump\t// out\n        /* \"#utility.yul\":27887:28238   */\n    tag_357:\n        /* \"#utility.yul\":27957:27963   */\n      0x00\n        /* \"#utility.yul\":28006:28008   */\n      0x20\n        /* \"#utility.yul\":27994:28003   */\n      dup3\n        /* \"#utility.yul\":27985:27992   */\n      dup5\n        /* \"#utility.yul\":27981:28004   */\n      sub\n        /* \"#utility.yul\":27977:28009   */\n      slt\n        /* \"#utility.yul\":27974:28093   */\n      iszero\n      tag_753\n      jumpi\n        /* \"#utility.yul\":28012:28091   */\n      tag_754\n      tag_452\n      jump\t// in\n    tag_754:\n        /* \"#utility.yul\":27974:28093   */\n    tag_753:\n        /* \"#utility.yul\":28132:28133   */\n      0x00\n        /* \"#utility.yul\":28157:28221   */\n      tag_755\n        /* \"#utility.yul\":28213:28220   */\n      dup5\n        /* \"#utility.yul\":28204:28210   */\n      dup3\n        /* \"#utility.yul\":28193:28202   */\n      dup6\n        /* \"#utility.yul\":28189:28211   */\n      add\n        /* \"#utility.yul\":28157:28221   */\n      tag_510\n      jump\t// in\n    tag_755:\n        /* \"#utility.yul\":28147:28221   */\n      swap2\n      pop\n        /* \"#utility.yul\":28103:28231   */\n      pop\n        /* \"#utility.yul\":27887:28238   */\n      swap3\n      swap2\n      pop\n      pop\n      jump\t// out\n        /* \"#utility.yul\":28244:28425   */\n    tag_511:\n        /* \"#utility.yul\":28384:28417   */\n      0x4661696c656420746f2073657420706172746e657220616c6c6f77616e636500\n        /* \"#utility.yul\":28380:28381   */\n      0x00\n        /* \"#utility.yul\":28372:28378   */\n      dup3\n        /* \"#utility.yul\":28368:28382   */\n      add\n        /* \"#utility.yul\":28361:28418   */\n      mstore\n        /* \"#utility.yul\":28244:28425   */\n      pop\n      jump\t// out\n        /* \"#utility.yul\":28431:28797   */\n    tag_512:\n        /* \"#utility.yul\":28573:28576   */\n      0x00\n        /* \"#utility.yul\":28594:28661   */\n      tag_758\n        /* \"#utility.yul\":28658:28660   */\n      0x1f\n        /* \"#utility.yul\":28653:28656   */\n      dup4\n        /* \"#utility.yul\":28594:28661   */\n      tag_463\n      jump\t// in\n    tag_758:\n        /* \"#utility.yul\":28587:28661   */\n      swap2\n      pop\n        /* \"#utility.yul\":28670:28763   */\n      tag_759\n        /* \"#utility.yul\":28759:28762   */\n      dup3\n        /* \"#utility.yul\":28670:28763   */\n      tag_511\n      jump\t// in\n    tag_759:\n        /* \"#utility.yul\":28788:28790   */\n      0x20\n        /* \"#utility.yul\":28783:28786   */\n      dup3\n        /* \"#utility.yul\":28779:28791   */\n      add\n        /* \"#utility.yul\":28772:28791   */\n      swap1\n      pop\n        /* \"#utility.yul\":28431:28797   */\n      swap2\n      swap1\n      pop\n      jump\t// out\n        /* \"#utility.yul\":28803:29222   */\n    tag_366:\n        /* \"#utility.yul\":28969:28973   */\n      0x00\n        /* \"#utility.yul\":29007:29009   */\n      0x20\n        /* \"#utility.yul\":28996:29005   */\n      dup3\n        /* \"#utility.yul\":28992:29010   */\n      add\n        /* \"#utility.yul\":28984:29010   */\n      swap1\n      pop\n        /* \"#utility.yul\":29056:29065   */\n      dup2\n        /* \"#utility.yul\":29050:29054   */\n      dup2\n        /* \"#utility.yul\":29046:29066   */\n      sub\n        /* \"#utility.yul\":29042:29043   */\n      0x00\n        /* \"#utility.yul\":29031:29040   */\n      dup4\n        /* \"#utility.yul\":29027:29044   */\n      add\n        /* \"#utility.yul\":29020:29067   */\n      mstore\n        /* \"#utility.yul\":29084:29215   */\n      tag_761\n        /* \"#utility.yul\":29210:29214   */\n      dup2\n        /* \"#utility.yul\":29084:29215   */\n      tag_512\n      jump\t// in\n    tag_761:\n        /* \"#utility.yul\":29076:29215   */\n      swap1\n      pop\n        /* \"#utility.yul\":28803:29222   */\n      swap2\n      swap1\n      pop\n      jump\t// out\n        /* \"#utility.yul\":29228:29404   */\n    tag_513:\n        /* \"#utility.yul\":29368:29396   */\n      0x4f6e6c7920706172746e65722063616e2063616c6c2074686973000000000000\n        /* \"#utility.yul\":29364:29365   */\n      0x00\n        /* \"#utility.yul\":29356:29362   */\n      dup3\n        /* \"#utility.yul\":29352:29366   */\n      add\n        /* \"#utility.yul\":29345:29397   */\n      mstore\n        /* \"#utility.yul\":29228:29404   */\n      pop\n      jump\t// out\n        /* \"#utility.yul\":29410:29776   */\n    tag_514:\n        /* \"#utility.yul\":29552:29555   */\n      0x00\n        /* \"#utility.yul\":29573:29640   */\n      tag_764\n        /* \"#utility.yul\":29637:29639   */\n      0x1a\n        /* \"#utility.yul\":29632:29635   */\n      dup4\n        /* \"#utility.yul\":29573:29640   */\n      tag_463\n      jump\t// in\n    tag_764:\n        /* \"#utility.yul\":29566:29640   */\n      swap2\n      pop\n        /* \"#utility.yul\":29649:29742   */\n      tag_765\n        /* \"#utility.yul\":29738:29741   */\n      dup3\n        /* \"#utility.yul\":29649:29742   */\n      tag_513\n      jump\t// in\n    tag_765:\n        /* \"#utility.yul\":29767:29769   */\n      0x20\n        /* \"#utility.yul\":29762:29765   */\n      dup3\n        /* \"#utility.yul\":29758:29770   */\n      add\n        /* \"#utility.yul\":29751:29770   */\n      swap1\n      pop\n        /* \"#utility.yul\":29410:29776   */\n      swap2\n      swap1\n      pop\n      jump\t// out\n        /* \"#utility.yul\":29782:30201   */\n    tag_374:\n        /* \"#utility.yul\":29948:29952   */\n      0x00\n        /* \"#utility.yul\":29986:29988   */\n      0x20\n        /* \"#utility.yul\":29975:29984   */\n      dup3\n        /* \"#utility.yul\":29971:29989   */\n      add\n        /* \"#utility.yul\":29963:29989   */\n      swap1\n      pop\n        /* \"#utility.yul\":30035:30044   */\n      dup2\n        /* \"#utility.yul\":30029:30033   */\n      dup2\n        /* \"#utility.yul\":30025:30045   */\n      sub\n        /* \"#utility.yul\":30021:30022   */\n      0x00\n        /* \"#utility.yul\":30010:30019   */\n      dup4\n        /* \"#utility.yul\":30006:30023   */\n      add\n        /* \"#utility.yul\":29999:30046   */\n      mstore\n        /* \"#utility.yul\":30063:30194   */\n      tag_767\n        /* \"#utility.yul\":30189:30193   */\n      dup2\n        /* \"#utility.yul\":30063:30194   */\n      tag_514\n      jump\t// in\n    tag_767:\n        /* \"#utility.yul\":30055:30194   */\n      swap1\n      pop\n        /* \"#utility.yul\":29782:30201   */\n      swap2\n      swap1\n      pop\n      jump\t// out\n        /* \"#utility.yul\":30207:30376   */\n    tag_515:\n        /* \"#utility.yul\":30347:30368   */\n      0x4f6e6c792073706f7573652063616e2073657400000000000000000000000000\n        /* \"#utility.yul\":30343:30344   */\n      0x00\n        /* \"#utility.yul\":30335:30341   */\n      dup3\n        /* \"#utility.yul\":30331:30345   */\n      add\n        /* \"#utility.yul\":30324:30369   */\n      mstore\n        /* \"#utility.yul\":30207:30376   */\n      pop\n      jump\t// out\n        /* \"#utility.yul\":30382:30748   */\n    tag_516:\n        /* \"#utility.yul\":30524:30527   */\n      0x00\n        /* \"#utility.yul\":30545:30612   */\n      tag_770\n        /* \"#utility.yul\":30609:30611   */\n      0x13\n        /* \"#utility.yul\":30604:30607   */\n      dup4\n        /* \"#utility.yul\":30545:30612   */\n      tag_463\n      jump\t// in\n    tag_770:\n        /* \"#utility.yul\":30538:30612   */\n      swap2\n      pop\n        /* \"#utility.yul\":30621:30714   */\n      tag_771\n        /* \"#utility.yul\":30710:30713   */\n      dup3\n        /* \"#utility.yul\":30621:30714   */\n      tag_515\n      jump\t// in\n    tag_771:\n        /* \"#utility.yul\":30739:30741   */\n      0x20\n        /* \"#utility.yul\":30734:30737   */\n      dup3\n        /* \"#utility.yul\":30730:30742   */\n      add\n        /* \"#utility.yul\":30723:30742   */\n      swap1\n      pop\n        /* \"#utility.yul\":30382:30748   */\n      swap2\n      swap1\n      pop\n      jump\t// out\n        /* \"#utility.yul\":30754:31173   */\n    tag_382:\n        /* \"#utility.yul\":30920:30924   */\n      0x00\n        /* \"#utility.yul\":30958:30960   */\n      0x20\n        /* \"#utility.yul\":30947:30956   */\n      dup3\n        /* \"#utility.yul\":30943:30961   */\n      add\n        /* \"#utility.yul\":30935:30961   */\n      swap1\n      pop\n        /* \"#utility.yul\":31007:31016   */\n      dup2\n        /* \"#utility.yul\":31001:31005   */\n      dup2\n        /* \"#utility.yul\":30997:31017   */\n      sub\n        /* \"#utility.yul\":30993:30994   */\n      0x00\n        /* \"#utility.yul\":30982:30991   */\n      dup4\n        /* \"#utility.yul\":30978:30995   */\n      add\n        /* \"#utility.yul\":30971:31018   */\n      mstore\n        /* \"#utility.yul\":31035:31166   */\n      tag_773\n        /* \"#utility.yul\":31161:31165   */\n      dup2\n        /* \"#utility.yul\":31035:31166   */\n      tag_516\n      jump\t// in\n    tag_773:\n        /* \"#utility.yul\":31027:31166   */\n      swap1\n      pop\n        /* \"#utility.yul\":30754:31173   */\n      swap2\n      swap1\n      pop\n      jump\t// out\n        /* \"#utility.yul\":31179:31340   */\n    tag_517:\n        /* \"#utility.yul\":31319:31332   */\n      0x4e6f74206d617272696564000000000000000000000000000000000000000000\n        /* \"#utility.yul\":31315:31316   */\n      0x00\n        /* \"#utility.yul\":31307:31313   */\n      dup3\n        /* \"#utility.yul\":31303:31317   */\n      add\n        /* \"#utility.yul\":31296:31333   */\n      mstore\n        /* \"#utility.yul\":31179:31340   */\n      pop\n      jump\t// out\n        /* \"#utility.yul\":31346:31712   */\n    tag_518:\n        /* \"#utility.yul\":31488:31491   */\n      0x00\n        /* \"#utility.yul\":31509:31576   */\n      tag_776\n        /* \"#utility.yul\":31573:31575   */\n      0x0b\n        /* \"#utility.yul\":31568:31571   */\n      dup4\n        /* \"#utility.yul\":31509:31576   */\n      tag_463\n      jump\t// in\n    tag_776:\n        /* \"#utility.yul\":31502:31576   */\n      swap2\n      pop\n        /* \"#utility.yul\":31585:31678   */\n      tag_777\n        /* \"#utility.yul\":31674:31677   */\n      dup3\n        /* \"#utility.yul\":31585:31678   */\n      tag_517\n      jump\t// in\n    tag_777:\n        /* \"#utility.yul\":31703:31705   */\n      0x20\n        /* \"#utility.yul\":31698:31701   */\n      dup3\n        /* \"#utility.yul\":31694:31706   */\n      add\n        /* \"#utility.yul\":31687:31706   */\n      swap1\n      pop\n        /* \"#utility.yul\":31346:31712   */\n      swap2\n      swap1\n      pop\n      jump\t// out\n        /* \"#utility.yul\":31718:32137   */\n    tag_420:\n        /* \"#utility.yul\":31884:31888   */\n      0x00\n        /* \"#utility.yul\":31922:31924   */\n      0x20\n        /* \"#utility.yul\":31911:31920   */\n      dup3\n        /* \"#utility.yul\":31907:31925   */\n      add\n        /* \"#utility.yul\":31899:31925   */\n      swap1\n      pop\n        /* \"#utility.yul\":31971:31980   */\n      dup2\n        /* \"#utility.yul\":31965:31969   */\n      dup2\n        /* \"#utility.yul\":31961:31981   */\n      sub\n        /* \"#utility.yul\":31957:31958   */\n      0x00\n        /* \"#utility.yul\":31946:31955   */\n      dup4\n        /* \"#utility.yul\":31942:31959   */\n      add\n        /* \"#utility.yul\":31935:31982   */\n      mstore\n        /* \"#utility.yul\":31999:32130   */\n      tag_779\n        /* \"#utility.yul\":32125:32129   */\n      dup2\n        /* \"#utility.yul\":31999:32130   */\n      tag_518\n      jump\t// in\n    tag_779:\n        /* \"#utility.yul\":31991:32130   */\n      swap1\n      pop\n        /* \"#utility.yul\":31718:32137   */\n      swap2\n      swap1\n      pop\n      jump\t// out\n        /* \"#utility.yul\":32143:32317   */\n    tag_519:\n        /* \"#utility.yul\":32283:32309   */\n      0x4661696c656420746f206e6f7469667920706172746e65720000000000000000\n        /* \"#utility.yul\":32279:32280   */\n      0x00\n        /* \"#utility.yul\":32271:32277   */\n      dup3\n        /* \"#utility.yul\":32267:32281   */\n      add\n        /* \"#utility.yul\":32260:32310   */\n      mstore\n        /* \"#utility.yul\":32143:32317   */\n      pop\n      jump\t// out\n        /* \"#utility.yul\":32323:32689   */\n    tag_520:\n        /* \"#utility.yul\":32465:32468   */\n      0x00\n        /* \"#utility.yul\":32486:32553   */\n      tag_782\n        /* \"#utility.yul\":32550:32552   */\n      0x18\n        /* \"#utility.yul\":32545:32548   */\n      dup4\n        /* \"#utility.yul\":32486:32553   */\n      tag_463\n      jump\t// in\n    tag_782:\n        /* \"#utility.yul\":32479:32553   */\n      swap2\n      pop\n        /* \"#utility.yul\":32562:32655   */\n      tag_783\n        /* \"#utility.yul\":32651:32654   */\n      dup3\n        /* \"#utility.yul\":32562:32655   */\n      tag_519\n      jump\t// in\n    tag_783:\n        /* \"#utility.yul\":32680:32682   */\n      0x20\n        /* \"#utility.yul\":32675:32678   */\n      dup3\n        /* \"#utility.yul\":32671:32683   */\n      add\n        /* \"#utility.yul\":32664:32683   */\n      swap1\n      pop\n        /* \"#utility.yul\":32323:32689   */\n      swap2\n      swap1\n      pop\n      jump\t// out\n        /* \"#utility.yul\":32695:33114   */\n    tag_432:\n        /* \"#utility.yul\":32861:32865   */\n      0x00\n        /* \"#utility.yul\":32899:32901   */\n      0x20\n        /* \"#utility.yul\":32888:32897   */\n      dup3\n        /* \"#utility.yul\":32884:32902   */\n      add\n        /* \"#utility.yul\":32876:32902   */\n      swap1\n      pop\n        /* \"#utility.yul\":32948:32957   */\n      dup2\n        /* \"#utility.yul\":32942:32946   */\n      dup2\n        /* \"#utility.yul\":32938:32958   */\n      sub\n        /* \"#utility.yul\":32934:32935   */\n      0x00\n        /* \"#utility.yul\":32923:32932   */\n      dup4\n        /* \"#utility.yul\":32919:32936   */\n      add\n        /* \"#utility.yul\":32912:32959   */\n      mstore\n        /* \"#utility.yul\":32976:33107   */\n      tag_785\n        /* \"#utility.yul\":33102:33106   */\n      dup2\n        /* \"#utility.yul\":32976:33107   */\n      tag_520\n      jump\t// in\n    tag_785:\n        /* \"#utility.yul\":32968:33107   */\n      swap1\n      pop\n        /* \"#utility.yul\":32695:33114   */\n      swap2\n      swap1\n      pop\n      jump\t// out\n\n    auxdata: 0xa2646970667358221220917331d322b910ef0d6033e69456b66fdc9b7091c146023ec490f0fb5b04b24464736f6c634300081e0033\n}\n",
				"bytecode": {
					"linkReferences": {},
					"object": "60c060405234801561000f575f5ffd5b506040516136f83803806136f8833981810160405281019061003191906101de565b5f5f819055505f60015f6101000a81548160ff0219169083151502179055508160025f6101000a81548173ffffffffffffffffffffffffffffffffffffffff021916908373ffffffffffffffffffffffffffffffffffffffff1602179055508060035f6101000a81548173ffffffffffffffffffffffffffffffffffffffff021916908373ffffffffffffffffffffffffffffffffffffffff1602179055503373ffffffffffffffffffffffffffffffffffffffff1660808173ffffffffffffffffffffffffffffffffffffffff168152505061138860a081815250505f600160026101000a81548173ffffffffffffffffffffffffffffffffffffffff021916908373ffffffffffffffffffffffffffffffffffffffff1602179055505f60058190555060a05160048190555060018060016101000a81548160ff021916908315150217905550505061021c565b5f5ffd5b5f73ffffffffffffffffffffffffffffffffffffffff82169050919050565b5f6101ad82610184565b9050919050565b6101bd816101a3565b81146101c7575f5ffd5b50565b5f815190506101d8816101b4565b92915050565b5f5f604083850312156101f4576101f3610180565b5b5f610201858286016101ca565b9250506020610212858286016101ca565b9150509250929050565b60805160a05161347c61027c5f395f81816114d4015261213001525f81816107db015281816109df01528181610a7701528181610d7901528181610fdf0152818161124f015281816116330152818161170f01526121f7015261347c5ff3fe608060405234801561000f575f5ffd5b50600436106101f9575f3560e01c80636aa393f811610118578063c043decc116100ab578063d25d32b61161007a578063d25d32b614610541578063d852545e1461055d578063dfb986a21461057b578063dff44b2f14610599578063f7ec2f35146105a3576101f9565b8063c043decc146104cb578063c800409f146104e9578063cb01a92b14610507578063ccda832a14610523576101f9565b8063967e6e65116100e7578063967e6e6514610455578063a2f1309e14610473578063ae81f06814610491578063bccb358e146104af576101f9565b80636aa393f8146103cb578063790aa8de146103e95780638bc87745146104195780638da5cb5b14610437576101f9565b806338fb27ba116101905780634f0b03f91161015f5780634f0b03f914610357578063594db753146103735780635976d63b146103915780635f68c439146103af576101f9565b806338fb27ba146102d15780633c876c25146102ed578063483a93101461030b5780634ad8a7ae1461033b576101f9565b806325803d64116101cc57806325803d641461027157806327a80e0d1461028d578063308f838a146102ab57806337f65b79146102c7576101f9565b806310731c65146101fd578063108ece4d1461021b578063134617621461023957806314b9563114610255575b5f5ffd5b6102056105c1565b604051610212919061254a565b60405180910390f35b6102236107b0565b60405161023091906125a2565b60405180910390f35b610253600480360381019061024e919061261c565b6107d9565b005b61026f600480360381019061026a919061265a565b6109dd565b005b61028b6004803603810190610286919061265a565b610a75565b005b610295610b6e565b6040516102a2919061254a565b60405180910390f35b6102c560048036038101906102c09190612685565b610c95565b005b6102cf610d77565b005b6102eb60048036038101906102e691906126c3565b610ead565b005b6102f5610f86565b60405161030291906126fd565b60405180910390f35b6103256004803603810190610320919061265a565b610fb0565b60405161033291906126fd565b60405180910390f35b6103556004803603810190610350919061261c565b610fdd565b005b610371600480360381019061036c91906126c3565b6111e7565b005b61037b61122b565b60405161038891906126fd565b60405180910390f35b610399611239565b6040516103a6919061254a565b60405180910390f35b6103c960048036038101906103c4919061265a565b61124d565b005b6103d36114d1565b6040516103e091906126fd565b60405180910390f35b61040360048036038101906103fe91906126c3565b6114f8565b604051610410919061254a565b60405180910390f35b61042161161c565b60405161042e919061254a565b60405180910390f35b61043f611631565b60405161044c91906125a2565b60405180910390f35b61045d611655565b60405161046a91906126fd565b60405180910390f35b61047b61165d565b604051610488919061254a565b60405180910390f35b610499611684565b6040516104a6919061254a565b60405180910390f35b6104c960048036038101906104c491906126c3565b61170d565b005b6104d3611d90565b6040516104e091906126fd565b60405180910390f35b6104f1611d99565b6040516104fe919061254a565b60405180910390f35b610521600480360381019061051c91906126c3565b611daa565b005b61052b611e3d565b604051610538919061254a565b60405180910390f35b61055b6004803603810190610556919061265a565b611e6a565b005b610565611f04565b604051610572919061254a565b60405180910390f35b61058361219d565b604051610590919061254a565b60405180910390f35b6105a16121f5565b005b6105ab61245a565b6040516105b8919061254a565b60405180910390f35b5f5f73ffffffffffffffffffffffffffffffffffffffff16600160029054906101000a900473ffffffffffffffffffffffffffffffffffffffff1673ffffffffffffffffffffffffffffffffffffffff160361062e5760015f9054906101000a900460ff161590506107ad565b60015f9054906101000a900460ff16610649575f90506107ad565b5f600160029054906101000a900473ffffffffffffffffffffffffffffffffffffffff1690508073ffffffffffffffffffffffffffffffffffffffff1663108ece4d6040518163ffffffff1660e01b8152600401602060405180830381865afa9250505080156106d757506040513d601f19601f820116820180604052508101906106d4919061272a565b60015b6106e4575f9150506107ad565b3073ffffffffffffffffffffffffffffffffffffffff168173ffffffffffffffffffffffffffffffffffffffff1614610721575f925050506107ad565b508073ffffffffffffffffffffffffffffffffffffffff16638bc877456040518163ffffffff1660e01b8152600401602060405180830381865afa92505050801561078a57506040513d601f19601f82011682018060405250810190610787919061277f565b60015b610797575f9150506107ad565b806107a6575f925050506107ad565b5060019150505b90565b5f600160029054906101000a900473ffffffffffffffffffffffffffffffffffffffff16905090565b7f000000000000000000000000000000000000000000000000000000000000000073ffffffffffffffffffffffffffffffffffffffff163373ffffffffffffffffffffffffffffffffffffffff1614610867576040517f08c379a000000000000000000000000000000000000000000000000000000000815260040161085e90612804565b60405180910390fd5b5f73ffffffffffffffffffffffffffffffffffffffff168273ffffffffffffffffffffffffffffffffffffffff16036108d5576040517f08c379a00000000000000000000000000000000000000000000000000000000081526004016108cc9061286c565b60405180910390fd5b5f60065403610919576040517f08c379a0000000000000000000000000000000000000000000000000000000008152600401610910906128d4565b60405180910390fd5b8173ffffffffffffffffffffffffffffffffffffffff1663c2ca0ac5826040518263ffffffff1660e01b815260040161095291906126fd565b5f604051808303815f87803b158015610969575f5ffd5b505af192505050801561097a575060015b6109b9576040517f08c379a00000000000000000000000000000000000000000000000000000000081526004016109b09061293c565b60405180910390fd5b5f6006819055505f60075f6101000a81548160ff0219169083151502179055505050565b7f000000000000000000000000000000000000000000000000000000000000000073ffffffffffffffffffffffffffffffffffffffff163373ffffffffffffffffffffffffffffffffffffffff1614610a6b576040517f08c379a0000000000000000000000000000000000000000000000000000000008152600401610a6290612804565b60405180910390fd5b8060058190555050565b7f000000000000000000000000000000000000000000000000000000000000000073ffffffffffffffffffffffffffffffffffffffff163373ffffffffffffffffffffffffffffffffffffffff161480610b1c5750600160029054906101000a900473ffffffffffffffffffffffffffffffffffffffff1673ffffffffffffffffffffffffffffffffffffffff163373ffffffffffffffffffffffffffffffffffffffff16145b80610b2c5750610b2b3361246e565b5b610b6b576040517f08c379a0000000000000000000000000000000000000000000000000000000008152600401610b62906129a4565b60405180910390fd5b50565b5f5f73ffffffffffffffffffffffffffffffffffffffff16600160029054906101000a900473ffffffffffffffffffffffffffffffffffffffff1673ffffffffffffffffffffffffffffffffffffffff1603610bcd5760019050610c92565b5f600160029054906101000a900473ffffffffffffffffffffffffffffffffffffffff1690503073ffffffffffffffffffffffffffffffffffffffff168173ffffffffffffffffffffffffffffffffffffffff1663108ece4d6040518163ffffffff1660e01b8152600401602060405180830381865afa158015610c53573d5f5f3e3d5ffd5b505050506040513d601f19601f82011682018060405250810190610c77919061272a565b73ffffffffffffffffffffffffffffffffffffffff16149150505b90565b600160029054906101000a900473ffffffffffffffffffffffffffffffffffffffff1673ffffffffffffffffffffffffffffffffffffffff163373ffffffffffffffffffffffffffffffffffffffff161480610d1c57508073ffffffffffffffffffffffffffffffffffffffff163373ffffffffffffffffffffffffffffffffffffffff16145b610d5b576040517f08c379a0000000000000000000000000000000000000000000000000000000008152600401610d5290612a0c565b60405180910390fd5b8160045f828254610d6c9190612a57565b925050819055505050565b7f000000000000000000000000000000000000000000000000000000000000000073ffffffffffffffffffffffffffffffffffffffff163373ffffffffffffffffffffffffffffffffffffffff1614610e05576040517f08c379a0000000000000000000000000000000000000000000000000000000008152600401610dfc90612804565b60405180910390fd5b5f5f815480929190610e1690612a8a565b919050555060015f9054906101000a900460ff16158015610e8457505f73ffffffffffffffffffffffffffffffffffffffff16600160029054906101000a900473ffffffffffffffffffffffffffffffffffffffff1673ffffffffffffffffffffffffffffffffffffffff16145b15610eab5760415f5410610ea057611b58600481905550610eaa565b6113886004819055505b5b565b8073ffffffffffffffffffffffffffffffffffffffff163373ffffffffffffffffffffffffffffffffffffffff1614610f1b576040517f08c379a0000000000000000000000000000000000000000000000000000000008152600401610f1290612b1b565b60405180910390fd5b5f600160026101000a81548173ffffffffffffffffffffffffffffffffffffffff021916908373ffffffffffffffffffffffffffffffffffffffff1602179055505f60015f6101000a81548160ff021916908315150217905550610f7d612513565b60048190555050565b5f60045460055411610f9a575f9050610fad565b600454600554610faa9190612b39565b90505b90565b5f5f610fba610f86565b90506103e88382610fcb9190612b6c565b610fd59190612bda565b915050919050565b7f000000000000000000000000000000000000000000000000000000000000000073ffffffffffffffffffffffffffffffffffffffff163373ffffffffffffffffffffffffffffffffffffffff161461106b576040517f08c379a000000000000000000000000000000000000000000000000000000000815260040161106290612804565b60405180910390fd5b5f73ffffffffffffffffffffffffffffffffffffffff168273ffffffffffffffffffffffffffffffffffffffff16141580156110bd57505f8273ffffffffffffffffffffffffffffffffffffffff163b115b6110fc576040517f08c379a00000000000000000000000000000000000000000000000000000000081526004016110f390612c54565b60405180910390fd5b8173ffffffffffffffffffffffffffffffffffffffff1663f14fcbc88260405160200161112991906126fd565b604051602081830303815290604052805190602001206040518263ffffffff1660e01b815260040161115b9190612c8a565b5f604051808303815f87803b158015611172575f5ffd5b505af1925050508015611183575060015b6111c2576040517f08c379a00000000000000000000000000000000000000000000000000000000081526004016111b990612ced565b60405180910390fd5b80600681905550600160075f6101000a81548160ff0219169083151502179055505050565b80600160026101000a81548173ffffffffffffffffffffffffffffffffffffffff021916908373ffffffffffffffffffffffffffffffffffffffff16021790555050565b5f611234612513565b905090565b5f60018054906101000a900460ff16905090565b7f000000000000000000000000000000000000000000000000000000000000000073ffffffffffffffffffffffffffffffffffffffff163373ffffffffffffffffffffffffffffffffffffffff16146112db576040517f08c379a00000000000000000000000000000000000000000000000000000000081526004016112d290612804565b60405180910390fd5b5f73ffffffffffffffffffffffffffffffffffffffff16600160029054906101000a900473ffffffffffffffffffffffffffffffffffffffff1673ffffffffffffffffffffffffffffffffffffffff160361136b576040517f08c379a000000000000000000000000000000000000000000000000000000000815260040161136290612d55565b60405180910390fd5b5f81116113ad576040517f08c379a00000000000000000000000000000000000000000000000000000000081526004016113a490612dbd565b60405180910390fd5b6004548111156113f2576040517f08c379a00000000000000000000000000000000000000000000000000000000081526004016113e990612e25565b60405180910390fd5b8060045f8282546114039190612b39565b92505081905550600160029054906101000a900473ffffffffffffffffffffffffffffffffffffffff1673ffffffffffffffffffffffffffffffffffffffff1663308f838a82306040518363ffffffff1660e01b8152600401611467929190612e43565b5f604051808303815f87803b15801561147e575f5ffd5b505af192505050801561148f575060015b6114ce576040517f08c379a00000000000000000000000000000000000000000000000000000000081526004016114c590612eb4565b60405180910390fd5b50565b5f7f0000000000000000000000000000000000000000000000000000000000000000905090565b5f5f6006540361150b5760019050611617565b5f73ffffffffffffffffffffffffffffffffffffffff168273ffffffffffffffffffffffffffffffffffffffff16148061155b57505f8273ffffffffffffffffffffffffffffffffffffffff163b145b156115695760019050611617565b8173ffffffffffffffffffffffffffffffffffffffff16637b43a8e6306040518263ffffffff1660e01b81526004016115a291906125a2565b602060405180830381865afa9250505080156115dc57506040513d601f19601f820116820180604052508101906115d99190612efc565b60015b6115e8575f9050611617565b6006546040516020016115fb91906126fd565b6040516020818303038152906040528051906020012081149150505b919050565b5f60015f9054906101000a900460ff16905090565b7f000000000000000000000000000000000000000000000000000000000000000081565b5f5f54905090565b5f6004546005541161167c575f61167460c8610fb0565b149050611681565b600190505b90565b5f5f73ffffffffffffffffffffffffffffffffffffffff16600160029054906101000a900473ffffffffffffffffffffffffffffffffffffffff1673ffffffffffffffffffffffffffffffffffffffff161415806116ed575060015f9054906101000a900460ff165b156116fb576001905061170a565b611703612513565b6004541490505b90565b7f000000000000000000000000000000000000000000000000000000000000000073ffffffffffffffffffffffffffffffffffffffff163373ffffffffffffffffffffffffffffffffffffffff161461179b576040517f08c379a000000000000000000000000000000000000000000000000000000000815260040161179290612804565b60405180910390fd5b60015f9054906101000a900460ff16156117ea576040517f08c379a00000000000000000000000000000000000000000000000000000000081526004016117e190612f71565b60405180910390fd5b5f73ffffffffffffffffffffffffffffffffffffffff168173ffffffffffffffffffffffffffffffffffffffff1603611858576040517f08c379a000000000000000000000000000000000000000000000000000000000815260040161184f90612fd9565b60405180910390fd5b3073ffffffffffffffffffffffffffffffffffffffff168173ffffffffffffffffffffffffffffffffffffffff16036118c6576040517f08c379a00000000000000000000000000000000000000000000000000000000081526004016118bd90613041565b60405180910390fd5b5f8173ffffffffffffffffffffffffffffffffffffffff163b1161191f576040517f08c379a0000000000000000000000000000000000000000000000000000000008152600401611916906130a9565b60405180910390fd5b5f8173ffffffffffffffffffffffffffffffffffffffff16638bc877456040518163ffffffff1660e01b8152600401602060405180830381865afa92505050801561198857506040513d601f19601f82011682018060405250810190611985919061277f565b60015b6119c7576040517f08c379a00000000000000000000000000000000000000000000000000000000081526004016119be90613111565b60405180910390fd5b809150508015611a0c576040517f08c379a0000000000000000000000000000000000000000000000000000000008152600401611a0390613179565b60405180910390fd5b5f600160029054906101000a900473ffffffffffffffffffffffffffffffffffffffff1690505f8390505f81600160026101000a81548173ffffffffffffffffffffffffffffffffffffffff021916908373ffffffffffffffffffffffffffffffffffffffff1602179055506001805f6101000a81548160ff021916908315150217905550611a99612513565b600481905550600160029054906101000a900473ffffffffffffffffffffffffffffffffffffffff1673ffffffffffffffffffffffffffffffffffffffff1663cb01a92b306040518263ffffffff1660e01b8152600401611afa91906125a2565b5f604051808303815f87803b158015611b11575f5ffd5b505af1925050508015611b22575060015b611bc25782600160026101000a81548173ffffffffffffffffffffffffffffffffffffffff021916908373ffffffffffffffffffffffffffffffffffffffff1602179055505f60015f6101000a81548160ff021916908315150217905550806004819055506040517f08c379a0000000000000000000000000000000000000000000000000000000008152600401611bb9906131e1565b60405180910390fd5b8173ffffffffffffffffffffffffffffffffffffffff166325803d648373ffffffffffffffffffffffffffffffffffffffff1663594db7536040518163ffffffff1660e01b8152600401602060405180830381865afa158015611c27573d5f5f3e3d5ffd5b505050506040513d601f19601f82011682018060405250810190611c4b9190613213565b6040518263ffffffff1660e01b8152600401611c6791906126fd565b5f604051808303815f87803b158015611c7e575f5ffd5b505af1925050508015611c8f575060015b611d2f5782600160026101000a81548173ffffffffffffffffffffffffffffffffffffffff021916908373ffffffffffffffffffffffffffffffffffffffff1602179055505f60015f6101000a81548160ff021916908315150217905550806004819055506040517f08c379a0000000000000000000000000000000000000000000000000000000008152600401611d2690613288565b60405180910390fd5b8173ffffffffffffffffffffffffffffffffffffffff163073ffffffffffffffffffffffffffffffffffffffff167fc89ef770a4ad395ebdc22b63de541b88daf19f335056f203fa06e4154b62bb7b60405160405180910390a35050505050565b5f600454905090565b5f5f611da3610f86565b1015905090565b8073ffffffffffffffffffffffffffffffffffffffff163373ffffffffffffffffffffffffffffffffffffffff1614611e18576040517f08c379a0000000000000000000000000000000000000000000000000000000008152600401611e0f906132f0565b60405180910390fd5b611e21816111e7565b6001805f6101000a81548160ff02191690831515021790555050565b5f60075f9054906101000a900460ff1615611e5f575f60065414159050611e67565b5f6006541490505b90565b600160029054906101000a900473ffffffffffffffffffffffffffffffffffffffff1673ffffffffffffffffffffffffffffffffffffffff163373ffffffffffffffffffffffffffffffffffffffff1614611efa576040517f08c379a0000000000000000000000000000000000000000000000000000000008152600401611ef190613358565b60405180910390fd5b8060048190555050565b5f60015f9054906101000a900460ff161580611f6d57505f73ffffffffffffffffffffffffffffffffffffffff16600160029054906101000a900473ffffffffffffffffffffffffffffffffffffffff1673ffffffffffffffffffffffffffffffffffffffff16145b15611f7b576001905061219a565b5f60045490505f600160029054906101000a900473ffffffffffffffffffffffffffffffffffffffff1690505f5f5f8373ffffffffffffffffffffffffffffffffffffffff1663c043decc6040518163ffffffff1660e01b8152600401602060405180830381865afa92505050801561201257506040513d601f19601f8201168201806040525081019061200f9190613213565b60015b612023575f9550505050505061219a565b809350508373ffffffffffffffffffffffffffffffffffffffff16636aa393f86040518163ffffffff1660e01b8152600401602060405180830381865afa92505050801561208f57506040513d601f19601f8201168201806040525081019061208c9190613213565b60015b6120a0575f9550505050505061219a565b809250508373ffffffffffffffffffffffffffffffffffffffff1663594db7536040518163ffffffff1660e01b8152600401602060405180830381865afa92505050801561210c57506040513d601f19601f820116820180604052508101906121099190613213565b60015b61211d575f9550505050505061219a565b809150505f61212a612513565b90505f837f00000000000000000000000000000000000000000000000000000000000000006121599190612a57565b85886121659190612a57565b1490505f83836121759190612a57565b86896121819190612a57565b1115905081801561218f5750805b985050505050505050505b90565b5f3073ffffffffffffffffffffffffffffffffffffffff16600160029054906101000a900473ffffffffffffffffffffffffffffffffffffffff1673ffffffffffffffffffffffffffffffffffffffff161415905090565b7f000000000000000000000000000000000000000000000000000000000000000073ffffffffffffffffffffffffffffffffffffffff163373ffffffffffffffffffffffffffffffffffffffff1614612283576040517f08c379a000000000000000000000000000000000000000000000000000000000815260040161227a90612804565b60405180910390fd5b60015f9054906101000a900460ff166122d1576040517f08c379a00000000000000000000000000000000000000000000000000000000081526004016122c8906133c0565b60405180910390fd5b5f600160029054906101000a900473ffffffffffffffffffffffffffffffffffffffff1690505f600160026101000a81548173ffffffffffffffffffffffffffffffffffffffff021916908373ffffffffffffffffffffffffffffffffffffffff1602179055505f60015f6101000a81548160ff021916908315150217905550612359612513565b6004819055505f73ffffffffffffffffffffffffffffffffffffffff168173ffffffffffffffffffffffffffffffffffffffff16141580156123b157505f8173ffffffffffffffffffffffffffffffffffffffff163b115b15612457578073ffffffffffffffffffffffffffffffffffffffff166338fb27ba306040518263ffffffff1660e01b81526004016123ef91906125a2565b5f604051808303815f87803b158015612406575f5ffd5b505af1925050508015612417575060015b612456576040517f08c379a000000000000000000000000000000000000000000000000000000000815260040161244d90613428565b60405180910390fd5b5b50565b5f60018054906101000a900460ff16905090565b5f5f8273ffffffffffffffffffffffffffffffffffffffff163b03612495575f905061250e565b8173ffffffffffffffffffffffffffffffffffffffff1663f7ec2f356040518163ffffffff1660e01b8152600401602060405180830381865afa9250505080156124fd57506040513d601f19601f820116820180604052508101906124fa919061277f565b60015b612509575f905061250e565b809150505b919050565b5f60415f541061252757611b58905061252d565b61138890505b90565b5f8115159050919050565b61254481612530565b82525050565b5f60208201905061255d5f83018461253b565b92915050565b5f73ffffffffffffffffffffffffffffffffffffffff82169050919050565b5f61258c82612563565b9050919050565b61259c81612582565b82525050565b5f6020820190506125b55f830184612593565b92915050565b5f5ffd5b6125c881612582565b81146125d2575f5ffd5b50565b5f813590506125e3816125bf565b92915050565b5f819050919050565b6125fb816125e9565b8114612605575f5ffd5b50565b5f81359050612616816125f2565b92915050565b5f5f60408385031215612632576126316125bb565b5b5f61263f858286016125d5565b925050602061265085828601612608565b9150509250929050565b5f6020828403121561266f5761266e6125bb565b5b5f61267c84828501612608565b91505092915050565b5f5f6040838503121561269b5761269a6125bb565b5b5f6126a885828601612608565b92505060206126b9858286016125d5565b9150509250929050565b5f602082840312156126d8576126d76125bb565b5b5f6126e5848285016125d5565b91505092915050565b6126f7816125e9565b82525050565b5f6020820190506127105f8301846126ee565b92915050565b5f81519050612724816125bf565b92915050565b5f6020828403121561273f5761273e6125bb565b5b5f61274c84828501612716565b91505092915050565b61275e81612530565b8114612768575f5ffd5b50565b5f8151905061277981612755565b92915050565b5f60208284031215612794576127936125bb565b5b5f6127a18482850161276b565b91505092915050565b5f82825260208201905092915050565b7f4f6e6c79206f776e6572000000000000000000000000000000000000000000005f82015250565b5f6127ee600a836127aa565b91506127f9826127ba565b602082019050919050565b5f6020820190508181035f83015261281b816127e2565b9050919050565b7f496e76616c6964206c6f747465727279000000000000000000000000000000005f82015250565b5f6128566010836127aa565b915061286182612822565b602082019050919050565b5f6020820190508181035f8301526128838161284a565b9050919050565b7f4e6f20636f6d6d69747465642072657665616c000000000000000000000000005f82015250565b5f6128be6013836127aa565b91506128c98261288a565b602082019050919050565b5f6020820190508181035f8301526128eb816128b2565b9050919050565b7f4c6f74746572792072657665616c206661696c656400000000000000000000005f82015250565b5f6129266015836127aa565b9150612931826128f2565b602082019050919050565b5f6020820190508181035f8301526129538161291a565b9050919050565b7f4e6f7420617574686f72697a656420746f2073657420616c6c6f77616e6365005f82015250565b5f61298e601f836127aa565b91506129998261295a565b602082019050919050565b5f6020820190508181035f8301526129bb81612982565b9050919050565b7f4f6e6c792073706f757365206f72206f726967696e00000000000000000000005f82015250565b5f6129f66015836127aa565b9150612a01826129c2565b602082019050919050565b5f6020820190508181035f830152612a23816129ea565b9050919050565b7f4e487b71000000000000000000000000000000000000000000000000000000005f52601160045260245ffd5b5f612a61826125e9565b9150612a6c836125e9565b9250828201905080821115612a8457612a83612a2a565b5b92915050565b5f612a94826125e9565b91507fffffffffffffffffffffffffffffffffffffffffffffffffffffffffffffffff8203612ac657612ac5612a2a565b5b600182019050919050565b7f4f6e6c7920706172746e65722063616e206e6f746966790000000000000000005f82015250565b5f612b056017836127aa565b9150612b1082612ad1565b602082019050919050565b5f6020820190508181035f830152612b3281612af9565b9050919050565b5f612b43826125e9565b9150612b4e836125e9565b9250828203905081811115612b6657612b65612a2a565b5b92915050565b5f612b76826125e9565b9150612b81836125e9565b9250828202612b8f816125e9565b91508282048414831517612ba657612ba5612a2a565b5b5092915050565b7f4e487b71000000000000000000000000000000000000000000000000000000005f52601260045260245ffd5b5f612be4826125e9565b9150612bef836125e9565b925082612bff57612bfe612bad565b5b828204905092915050565b7f496e76616c6964206c6f747465727900000000000000000000000000000000005f82015250565b5f612c3e600f836127aa565b9150612c4982612c0a565b602082019050919050565b5f6020820190508181035f830152612c6b81612c32565b9050919050565b5f819050919050565b612c8481612c72565b82525050565b5f602082019050612c9d5f830184612c7b565b92915050565b7f4c6f747465727920636f6d6d6974206661696c656400000000000000000000005f82015250565b5f612cd76015836127aa565b9150612ce282612ca3565b602082019050919050565b5f6020820190508181035f830152612d0481612ccb565b9050919050565b7f4e6f2073706f75736500000000000000000000000000000000000000000000005f82015250565b5f612d3f6009836127aa565b9150612d4a82612d0b565b602082019050919050565b5f6020820190508181035f830152612d6c81612d33565b9050919050565b7f5a65726f206368616e67650000000000000000000000000000000000000000005f82015250565b5f612da7600b836127aa565b9150612db282612d73565b602082019050919050565b5f6020820190508181035f830152612dd481612d9b565b9050919050565b7f4e6f7420656e6f75676820616c6c6f77616e63650000000000000000000000005f82015250565b5f612e0f6014836127aa565b9150612e1a82612ddb565b602082019050919050565b5f6020820190508181035f830152612e3c81612e03565b9050919050565b5f604082019050612e565f8301856126ee565b612e636020830184612593565b9392505050565b7f4661696c656420746f207472616e736665722073706f757365000000000000005f82015250565b5f612e9e6019836127aa565b9150612ea982612e6a565b602082019050919050565b5f6020820190508181035f830152612ecb81612e92565b9050919050565b612edb81612c72565b8114612ee5575f5ffd5b50565b5f81519050612ef681612ed2565b92915050565b5f60208284031215612f1157612f106125bb565b5b5f612f1e84828501612ee8565b91505092915050565b7f4920616d20616c7265616479206d6172726965640000000000000000000000005f82015250565b5f612f5b6014836127aa565b9150612f6682612f27565b602082019050919050565b5f6020820190508181035f830152612f8881612f4f565b9050919050565b7f53706f7573652063616e6e6f74206265207a65726f20616464726573730000005f82015250565b5f612fc3601d836127aa565b9150612fce82612f8f565b602082019050919050565b5f6020820190508181035f830152612ff081612fb7565b9050919050565b7f43616e6e6f74206d61727279206d7973656c66000000000000000000000000005f82015250565b5f61302b6013836127aa565b915061303682612ff7565b602082019050919050565b5f6020820190508181035f8301526130588161301f565b9050919050565b7f53706f757365206d757374206265206120636f6e7472616374000000000000005f82015250565b5f6130936019836127aa565b915061309e8261305f565b602082019050919050565b5f6020820190508181035f8301526130c081613087565b9050919050565b7f53706f757365206e6f7420636f6d70617469626c6500000000000000000000005f82015250565b5f6130fb6015836127aa565b9150613106826130c7565b602082019050919050565b5f6020820190508181035f830152613128816130ef565b9050919050565b7f53706f75736520616c7265616479206d617272696564000000000000000000005f82015250565b5f6131636016836127aa565b915061316e8261312f565b602082019050919050565b5f6020820190508181035f83015261319081613157565b9050919050565b7f4661696c656420746f2075706461746520706172746e657200000000000000005f82015250565b5f6131cb6018836127aa565b91506131d682613197565b602082019050919050565b5f6020820190508181035f8301526131f8816131bf565b9050919050565b5f8151905061320d816125f2565b92915050565b5f60208284031215613228576132276125bb565b5b5f613235848285016131ff565b91505092915050565b7f4661696c656420746f2073657420706172746e657220616c6c6f77616e6365005f82015250565b5f613272601f836127aa565b915061327d8261323e565b602082019050919050565b5f6020820190508181035f83015261329f81613266565b9050919050565b7f4f6e6c7920706172746e65722063616e2063616c6c20746869730000000000005f82015250565b5f6132da601a836127aa565b91506132e5826132a6565b602082019050919050565b5f6020820190508181035f830152613307816132ce565b9050919050565b7f4f6e6c792073706f7573652063616e20736574000000000000000000000000005f82015250565b5f6133426013836127aa565b915061334d8261330e565b602082019050919050565b5f6020820190508181035f83015261336f81613336565b9050919050565b7f4e6f74206d6172726965640000000000000000000000000000000000000000005f82015250565b5f6133aa600b836127aa565b91506133b582613376565b602082019050919050565b5f6020820190508181035f8301526133d78161339e565b9050919050565b7f4661696c656420746f206e6f7469667920706172746e657200000000000000005f82015250565b5f6134126018836127aa565b915061341d826133de565b602082019050919050565b5f6020820190508181035f83015261343f81613406565b905091905056fea2646970667358221220917331d322b910ef0d6033e69456b66fdc9b7091c146023ec490f0fb5b04b24464736f6c634300081e0033",
					"opcodes": "PUSH1 0xC0 PUSH1 0x40 MSTORE CALLVALUE DUP1 ISZERO PUSH2 0xF JUMPI PUSH0 PUSH0 REVERT JUMPDEST POP PUSH1 0x40 MLOAD PUSH2 0x36F8 CODESIZE SUB DUP1 PUSH2 0x36F8 DUP4 CODECOPY DUP2 DUP2 ADD PUSH1 0x40 MSTORE DUP2 ADD SWAP1 PUSH2 0x31 SWAP2 SWAP1 PUSH2 0x1DE JUMP JUMPDEST PUSH0 PUSH0 DUP2 SWAP1 SSTORE POP PUSH0 PUSH1 0x1 PUSH0 PUSH2 0x100 EXP DUP2 SLOAD DUP2 PUSH1 0xFF MUL NOT AND SWAP1 DUP4 ISZERO ISZERO MUL OR SWAP1 SSTORE POP DUP2 PUSH1 0x2 PUSH0 PUSH2 0x100 EXP DUP2 SLOAD DUP2 PUSH20 0xFFFFFFFFFFFFFFFFFFFFFFFFFFFFFFFFFFFFFFFF MUL NOT AND SWAP1 DUP4 PUSH20 0xFFFFFFFFFFFFFFFFFFFFFFFFFFFFFFFFFFFFFFFF AND MUL OR SWAP1 SSTORE POP DUP1 PUSH1 0x3 PUSH0 PUSH2 0x100 EXP DUP2 SLOAD DUP2 PUSH20 0xFFFFFFFFFFFFFFFFFFFFFFFFFFFFFFFFFFFFFFFF MUL NOT AND SWAP1 DUP4 PUSH20 0xFFFFFFFFFFFFFFFFFFFFFFFFFFFFFFFFFFFFFFFF AND MUL OR SWAP1 SSTORE POP CALLER PUSH20 0xFFFFFFFFFFFFFFFFFFFFFFFFFFFFFFFFFFFFFFFF AND PUSH1 0x80 DUP2 PUSH20 0xFFFFFFFFFFFFFFFFFFFFFFFFFFFFFFFFFFFFFFFF AND DUP2 MSTORE POP POP PUSH2 0x1388 PUSH1 0xA0 DUP2 DUP2 MSTORE POP POP PUSH0 PUSH1 0x1 PUSH1 0x2 PUSH2 0x100 EXP DUP2 SLOAD DUP2 PUSH20 0xFFFFFFFFFFFFFFFFFFFFFFFFFFFFFFFFFFFFFFFF MUL NOT AND SWAP1 DUP4 PUSH20 0xFFFFFFFFFFFFFFFFFFFFFFFFFFFFFFFFFFFFFFFF AND MUL OR SWAP1 SSTORE POP PUSH0 PUSH1 0x5 DUP2 SWAP1 SSTORE POP PUSH1 0xA0 MLOAD PUSH1 0x4 DUP2 SWAP1 SSTORE POP PUSH1 0x1 DUP1 PUSH1 0x1 PUSH2 0x100 EXP DUP2 SLOAD DUP2 PUSH1 0xFF MUL NOT AND SWAP1 DUP4 ISZERO ISZERO MUL OR SWAP1 SSTORE POP POP POP PUSH2 0x21C JUMP JUMPDEST PUSH0 PUSH0 REVERT JUMPDEST PUSH0 PUSH20 0xFFFFFFFFFFFFFFFFFFFFFFFFFFFFFFFFFFFFFFFF DUP3 AND SWAP1 POP SWAP2 SWAP1 POP JUMP JUMPDEST PUSH0 PUSH2 0x1AD DUP3 PUSH2 0x184 JUMP JUMPDEST SWAP1 POP SWAP2 SWAP1 POP JUMP JUMPDEST PUSH2 0x1BD DUP2 PUSH2 0x1A3 JUMP JUMPDEST DUP2 EQ PUSH2 0x1C7 JUMPI PUSH0 PUSH0 REVERT JUMPDEST POP JUMP JUMPDEST PUSH0 DUP2 MLOAD SWAP1 POP PUSH2 0x1D8 DUP2 PUSH2 0x1B4 JUMP JUMPDEST SWAP3 SWAP2 POP POP JUMP JUMPDEST PUSH0 PUSH0 PUSH1 0x40 DUP4 DUP6 SUB SLT ISZERO PUSH2 0x1F4 JUMPI PUSH2 0x1F3 PUSH2 0x180 JUMP JUMPDEST JUMPDEST PUSH0 PUSH2 0x201 DUP6 DUP3 DUP7 ADD PUSH2 0x1CA JUMP JUMPDEST SWAP3 POP POP PUSH1 0x20 PUSH2 0x212 DUP6 DUP3 DUP7 ADD PUSH2 0x1CA JUMP JUMPDEST SWAP2 POP POP SWAP3 POP SWAP3 SWAP1 POP JUMP JUMPDEST PUSH1 0x80 MLOAD PUSH1 0xA0 MLOAD PUSH2 0x347C PUSH2 0x27C PUSH0 CODECOPY PUSH0 DUP2 DUP2 PUSH2 0x14D4 ADD MSTORE PUSH2 0x2130 ADD MSTORE PUSH0 DUP2 DUP2 PUSH2 0x7DB ADD MSTORE DUP2 DUP2 PUSH2 0x9DF ADD MSTORE DUP2 DUP2 PUSH2 0xA77 ADD MSTORE DUP2 DUP2 PUSH2 0xD79 ADD MSTORE DUP2 DUP2 PUSH2 0xFDF ADD MSTORE DUP2 DUP2 PUSH2 0x124F ADD MSTORE DUP2 DUP2 PUSH2 0x1633 ADD MSTORE DUP2 DUP2 PUSH2 0x170F ADD MSTORE PUSH2 0x21F7 ADD MSTORE PUSH2 0x347C PUSH0 RETURN INVALID PUSH1 0x80 PUSH1 0x40 MSTORE CALLVALUE DUP1 ISZERO PUSH2 0xF JUMPI PUSH0 PUSH0 REVERT JUMPDEST POP PUSH1 0x4 CALLDATASIZE LT PUSH2 0x1F9 JUMPI PUSH0 CALLDATALOAD PUSH1 0xE0 SHR DUP1 PUSH4 0x6AA393F8 GT PUSH2 0x118 JUMPI DUP1 PUSH4 0xC043DECC GT PUSH2 0xAB JUMPI DUP1 PUSH4 0xD25D32B6 GT PUSH2 0x7A JUMPI DUP1 PUSH4 0xD25D32B6 EQ PUSH2 0x541 JUMPI DUP1 PUSH4 0xD852545E EQ PUSH2 0x55D JUMPI DUP1 PUSH4 0xDFB986A2 EQ PUSH2 0x57B JUMPI DUP1 PUSH4 0xDFF44B2F EQ PUSH2 0x599 JUMPI DUP1 PUSH4 0xF7EC2F35 EQ PUSH2 0x5A3 JUMPI PUSH2 0x1F9 JUMP JUMPDEST DUP1 PUSH4 0xC043DECC EQ PUSH2 0x4CB JUMPI DUP1 PUSH4 0xC800409F EQ PUSH2 0x4E9 JUMPI DUP1 PUSH4 0xCB01A92B EQ PUSH2 0x507 JUMPI DUP1 PUSH4 0xCCDA832A EQ PUSH2 0x523 JUMPI PUSH2 0x1F9 JUMP JUMPDEST DUP1 PUSH4 0x967E6E65 GT PUSH2 0xE7 JUMPI DUP1 PUSH4 0x967E6E65 EQ PUSH2 0x455 JUMPI DUP1 PUSH4 0xA2F1309E EQ PUSH2 0x473 JUMPI DUP1 PUSH4 0xAE81F068 EQ PUSH2 0x491 JUMPI DUP1 PUSH4 0xBCCB358E EQ PUSH2 0x4AF JUMPI PUSH2 0x1F9 JUMP JUMPDEST DUP1 PUSH4 0x6AA393F8 EQ PUSH2 0x3CB JUMPI DUP1 PUSH4 0x790AA8DE EQ PUSH2 0x3E9 JUMPI DUP1 PUSH4 0x8BC87745 EQ PUSH2 0x419 JUMPI DUP1 PUSH4 0x8DA5CB5B EQ PUSH2 0x437 JUMPI PUSH2 0x1F9 JUMP JUMPDEST DUP1 PUSH4 0x38FB27BA GT PUSH2 0x190 JUMPI DUP1 PUSH4 0x4F0B03F9 GT PUSH2 0x15F JUMPI DUP1 PUSH4 0x4F0B03F9 EQ PUSH2 0x357 JUMPI DUP1 PUSH4 0x594DB753 EQ PUSH2 0x373 JUMPI DUP1 PUSH4 0x5976D63B EQ PUSH2 0x391 JUMPI DUP1 PUSH4 0x5F68C439 EQ PUSH2 0x3AF JUMPI PUSH2 0x1F9 JUMP JUMPDEST DUP1 PUSH4 0x38FB27BA EQ PUSH2 0x2D1 JUMPI DUP1 PUSH4 0x3C876C25 EQ PUSH2 0x2ED JUMPI DUP1 PUSH4 0x483A9310 EQ PUSH2 0x30B JUMPI DUP1 PUSH4 0x4AD8A7AE EQ PUSH2 0x33B JUMPI PUSH2 0x1F9 JUMP JUMPDEST DUP1 PUSH4 0x25803D64 GT PUSH2 0x1CC JUMPI DUP1 PUSH4 0x25803D64 EQ PUSH2 0x271 JUMPI DUP1 PUSH4 0x27A80E0D EQ PUSH2 0x28D JUMPI DUP1 PUSH4 0x308F838A EQ PUSH2 0x2AB JUMPI DUP1 PUSH4 0x37F65B79 EQ PUSH2 0x2C7 JUMPI PUSH2 0x1F9 JUMP JUMPDEST DUP1 PUSH4 0x10731C65 EQ PUSH2 0x1FD JUMPI DUP1 PUSH4 0x108ECE4D EQ PUSH2 0x21B JUMPI DUP1 PUSH4 0x13461762 EQ PUSH2 0x239 JUMPI DUP1 PUSH4 0x14B95631 EQ PUSH2 0x255 JUMPI JUMPDEST PUSH0 PUSH0 REVERT JUMPDEST PUSH2 0x205 PUSH2 0x5C1 JUMP JUMPDEST PUSH1 0x40 MLOAD PUSH2 0x212 SWAP2 SWAP1 PUSH2 0x254A JUMP JUMPDEST PUSH1 0x40 MLOAD DUP1 SWAP2 SUB SWAP1 RETURN JUMPDEST PUSH2 0x223 PUSH2 0x7B0 JUMP JUMPDEST PUSH1 0x40 MLOAD PUSH2 0x230 SWAP2 SWAP1 PUSH2 0x25A2 JUMP JUMPDEST PUSH1 0x40 MLOAD DUP1 SWAP2 SUB SWAP1 RETURN JUMPDEST PUSH2 0x253 PUSH1 0x4 DUP1 CALLDATASIZE SUB DUP2 ADD SWAP1 PUSH2 0x24E SWAP2 SWAP1 PUSH2 0x261C JUMP JUMPDEST PUSH2 0x7D9 JUMP JUMPDEST STOP JUMPDEST PUSH2 0x26F PUSH1 0x4 DUP1 CALLDATASIZE SUB DUP2 ADD SWAP1 PUSH2 0x26A SWAP2 SWAP1 PUSH2 0x265A JUMP JUMPDEST PUSH2 0x9DD JUMP JUMPDEST STOP JUMPDEST PUSH2 0x28B PUSH1 0x4 DUP1 CALLDATASIZE SUB DUP2 ADD SWAP1 PUSH2 0x286 SWAP2 SWAP1 PUSH2 0x265A JUMP JUMPDEST PUSH2 0xA75 JUMP JUMPDEST STOP JUMPDEST PUSH2 0x295 PUSH2 0xB6E JUMP JUMPDEST PUSH1 0x40 MLOAD PUSH2 0x2A2 SWAP2 SWAP1 PUSH2 0x254A JUMP JUMPDEST PUSH1 0x40 MLOAD DUP1 SWAP2 SUB SWAP1 RETURN JUMPDEST PUSH2 0x2C5 PUSH1 0x4 DUP1 CALLDATASIZE SUB DUP2 ADD SWAP1 PUSH2 0x2C0 SWAP2 SWAP1 PUSH2 0x2685 JUMP JUMPDEST PUSH2 0xC95 JUMP JUMPDEST STOP JUMPDEST PUSH2 0x2CF PUSH2 0xD77 JUMP JUMPDEST STOP JUMPDEST PUSH2 0x2EB PUSH1 0x4 DUP1 CALLDATASIZE SUB DUP2 ADD SWAP1 PUSH2 0x2E6 SWAP2 SWAP1 PUSH2 0x26C3 JUMP JUMPDEST PUSH2 0xEAD JUMP JUMPDEST STOP JUMPDEST PUSH2 0x2F5 PUSH2 0xF86 JUMP JUMPDEST PUSH1 0x40 MLOAD PUSH2 0x302 SWAP2 SWAP1 PUSH2 0x26FD JUMP JUMPDEST PUSH1 0x40 MLOAD DUP1 SWAP2 SUB SWAP1 RETURN JUMPDEST PUSH2 0x325 PUSH1 0x4 DUP1 CALLDATASIZE SUB DUP2 ADD SWAP1 PUSH2 0x320 SWAP2 SWAP1 PUSH2 0x265A JUMP JUMPDEST PUSH2 0xFB0 JUMP JUMPDEST PUSH1 0x40 MLOAD PUSH2 0x332 SWAP2 SWAP1 PUSH2 0x26FD JUMP JUMPDEST PUSH1 0x40 MLOAD DUP1 SWAP2 SUB SWAP1 RETURN JUMPDEST PUSH2 0x355 PUSH1 0x4 DUP1 CALLDATASIZE SUB DUP2 ADD SWAP1 PUSH2 0x350 SWAP2 SWAP1 PUSH2 0x261C JUMP JUMPDEST PUSH2 0xFDD JUMP JUMPDEST STOP JUMPDEST PUSH2 0x371 PUSH1 0x4 DUP1 CALLDATASIZE SUB DUP2 ADD SWAP1 PUSH2 0x36C SWAP2 SWAP1 PUSH2 0x26C3 JUMP JUMPDEST PUSH2 0x11E7 JUMP JUMPDEST STOP JUMPDEST PUSH2 0x37B PUSH2 0x122B JUMP JUMPDEST PUSH1 0x40 MLOAD PUSH2 0x388 SWAP2 SWAP1 PUSH2 0x26FD JUMP JUMPDEST PUSH1 0x40 MLOAD DUP1 SWAP2 SUB SWAP1 RETURN JUMPDEST PUSH2 0x399 PUSH2 0x1239 JUMP JUMPDEST PUSH1 0x40 MLOAD PUSH2 0x3A6 SWAP2 SWAP1 PUSH2 0x254A JUMP JUMPDEST PUSH1 0x40 MLOAD DUP1 SWAP2 SUB SWAP1 RETURN JUMPDEST PUSH2 0x3C9 PUSH1 0x4 DUP1 CALLDATASIZE SUB DUP2 ADD SWAP1 PUSH2 0x3C4 SWAP2 SWAP1 PUSH2 0x265A JUMP JUMPDEST PUSH2 0x124D JUMP JUMPDEST STOP JUMPDEST PUSH2 0x3D3 PUSH2 0x14D1 JUMP JUMPDEST PUSH1 0x40 MLOAD PUSH2 0x3E0 SWAP2 SWAP1 PUSH2 0x26FD JUMP JUMPDEST PUSH1 0x40 MLOAD DUP1 SWAP2 SUB SWAP1 RETURN JUMPDEST PUSH2 0x403 PUSH1 0x4 DUP1 CALLDATASIZE SUB DUP2 ADD SWAP1 PUSH2 0x3FE SWAP2 SWAP1 PUSH2 0x26C3 JUMP JUMPDEST PUSH2 0x14F8 JUMP JUMPDEST PUSH1 0x40 MLOAD PUSH2 0x410 SWAP2 SWAP1 PUSH2 0x254A JUMP JUMPDEST PUSH1 0x40 MLOAD DUP1 SWAP2 SUB SWAP1 RETURN JUMPDEST PUSH2 0x421 PUSH2 0x161C JUMP JUMPDEST PUSH1 0x40 MLOAD PUSH2 0x42E SWAP2 SWAP1 PUSH2 0x254A JUMP JUMPDEST PUSH1 0x40 MLOAD DUP1 SWAP2 SUB SWAP1 RETURN JUMPDEST PUSH2 0x43F PUSH2 0x1631 JUMP JUMPDEST PUSH1 0x40 MLOAD PUSH2 0x44C SWAP2 SWAP1 PUSH2 0x25A2 JUMP JUMPDEST PUSH1 0x40 MLOAD DUP1 SWAP2 SUB SWAP1 RETURN JUMPDEST PUSH2 0x45D PUSH2 0x1655 JUMP JUMPDEST PUSH1 0x40 MLOAD PUSH2 0x46A SWAP2 SWAP1 PUSH2 0x26FD JUMP JUMPDEST PUSH1 0x40 MLOAD DUP1 SWAP2 SUB SWAP1 RETURN JUMPDEST PUSH2 0x47B PUSH2 0x165D JUMP JUMPDEST PUSH1 0x40 MLOAD PUSH2 0x488 SWAP2 SWAP1 PUSH2 0x254A JUMP JUMPDEST PUSH1 0x40 MLOAD DUP1 SWAP2 SUB SWAP1 RETURN JUMPDEST PUSH2 0x499 PUSH2 0x1684 JUMP JUMPDEST PUSH1 0x40 MLOAD PUSH2 0x4A6 SWAP2 SWAP1 PUSH2 0x254A JUMP JUMPDEST PUSH1 0x40 MLOAD DUP1 SWAP2 SUB SWAP1 RETURN JUMPDEST PUSH2 0x4C9 PUSH1 0x4 DUP1 CALLDATASIZE SUB DUP2 ADD SWAP1 PUSH2 0x4C4 SWAP2 SWAP1 PUSH2 0x26C3 JUMP JUMPDEST PUSH2 0x170D JUMP JUMPDEST STOP JUMPDEST PUSH2 0x4D3 PUSH2 0x1D90 JUMP JUMPDEST PUSH1 0x40 MLOAD PUSH2 0x4E0 SWAP2 SWAP1 PUSH2 0x26FD JUMP JUMPDEST PUSH1 0x40 MLOAD DUP1 SWAP2 SUB SWAP1 RETURN JUMPDEST PUSH2 0x4F1 PUSH2 0x1D99 JUMP JUMPDEST PUSH1 0x40 MLOAD PUSH2 0x4FE SWAP2 SWAP1 PUSH2 0x254A JUMP JUMPDEST PUSH1 0x40 MLOAD DUP1 SWAP2 SUB SWAP1 RETURN JUMPDEST PUSH2 0x521 PUSH1 0x4 DUP1 CALLDATASIZE SUB DUP2 ADD SWAP1 PUSH2 0x51C SWAP2 SWAP1 PUSH2 0x26C3 JUMP JUMPDEST PUSH2 0x1DAA JUMP JUMPDEST STOP JUMPDEST PUSH2 0x52B PUSH2 0x1E3D JUMP JUMPDEST PUSH1 0x40 MLOAD PUSH2 0x538 SWAP2 SWAP1 PUSH2 0x254A JUMP JUMPDEST PUSH1 0x40 MLOAD DUP1 SWAP2 SUB SWAP1 RETURN JUMPDEST PUSH2 0x55B PUSH1 0x4 DUP1 CALLDATASIZE SUB DUP2 ADD SWAP1 PUSH2 0x556 SWAP2 SWAP1 PUSH2 0x265A JUMP JUMPDEST PUSH2 0x1E6A JUMP JUMPDEST STOP JUMPDEST PUSH2 0x565 PUSH2 0x1F04 JUMP JUMPDEST PUSH1 0x40 MLOAD PUSH2 0x572 SWAP2 SWAP1 PUSH2 0x254A JUMP JUMPDEST PUSH1 0x40 MLOAD DUP1 SWAP2 SUB SWAP1 RETURN JUMPDEST PUSH2 0x583 PUSH2 0x219D JUMP JUMPDEST PUSH1 0x40 MLOAD PUSH2 0x590 SWAP2 SWAP1 PUSH2 0x254A JUMP JUMPDEST PUSH1 0x40 MLOAD DUP1 SWAP2 SUB SWAP1 RETURN JUMPDEST PUSH2 0x5A1 PUSH2 0x21F5 JUMP JUMPDEST STOP JUMPDEST PUSH2 0x5AB PUSH2 0x245A JUMP JUMPDEST PUSH1 0x40 MLOAD PUSH2 0x5B8 SWAP2 SWAP1 PUSH2 0x254A JUMP JUMPDEST PUSH1 0x40 MLOAD DUP1 SWAP2 SUB SWAP1 RETURN JUMPDEST PUSH0 PUSH0 PUSH20 0xFFFFFFFFFFFFFFFFFFFFFFFFFFFFFFFFFFFFFFFF AND PUSH1 0x1 PUSH1 0x2 SWAP1 SLOAD SWAP1 PUSH2 0x100 EXP SWAP1 DIV PUSH20 0xFFFFFFFFFFFFFFFFFFFFFFFFFFFFFFFFFFFFFFFF AND PUSH20 0xFFFFFFFFFFFFFFFFFFFFFFFFFFFFFFFFFFFFFFFF AND SUB PUSH2 0x62E JUMPI PUSH1 0x1 PUSH0 SWAP1 SLOAD SWAP1 PUSH2 0x100 EXP SWAP1 DIV PUSH1 0xFF AND ISZERO SWAP1 POP PUSH2 0x7AD JUMP JUMPDEST PUSH1 0x1 PUSH0 SWAP1 SLOAD SWAP1 PUSH2 0x100 EXP SWAP1 DIV PUSH1 0xFF AND PUSH2 0x649 JUMPI PUSH0 SWAP1 POP PUSH2 0x7AD JUMP JUMPDEST PUSH0 PUSH1 0x1 PUSH1 0x2 SWAP1 SLOAD SWAP1 PUSH2 0x100 EXP SWAP1 DIV PUSH20 0xFFFFFFFFFFFFFFFFFFFFFFFFFFFFFFFFFFFFFFFF AND SWAP1 POP DUP1 PUSH20 0xFFFFFFFFFFFFFFFFFFFFFFFFFFFFFFFFFFFFFFFF AND PUSH4 0x108ECE4D PUSH1 0x40 MLOAD DUP2 PUSH4 0xFFFFFFFF AND PUSH1 0xE0 SHL DUP2 MSTORE PUSH1 0x4 ADD PUSH1 0x20 PUSH1 0x40 MLOAD DUP1 DUP4 SUB DUP2 DUP7 GAS STATICCALL SWAP3 POP POP POP DUP1 ISZERO PUSH2 0x6D7 JUMPI POP PUSH1 0x40 MLOAD RETURNDATASIZE PUSH1 0x1F NOT PUSH1 0x1F DUP3 ADD AND DUP3 ADD DUP1 PUSH1 0x40 MSTORE POP DUP2 ADD SWAP1 PUSH2 0x6D4 SWAP2 SWAP1 PUSH2 0x272A JUMP JUMPDEST PUSH1 0x1 JUMPDEST PUSH2 0x6E4 JUMPI PUSH0 SWAP2 POP POP PUSH2 0x7AD JUMP JUMPDEST ADDRESS PUSH20 0xFFFFFFFFFFFFFFFFFFFFFFFFFFFFFFFFFFFFFFFF AND DUP2 PUSH20 0xFFFFFFFFFFFFFFFFFFFFFFFFFFFFFFFFFFFFFFFF AND EQ PUSH2 0x721 JUMPI PUSH0 SWAP3 POP POP POP PUSH2 0x7AD JUMP JUMPDEST POP DUP1 PUSH20 0xFFFFFFFFFFFFFFFFFFFFFFFFFFFFFFFFFFFFFFFF AND PUSH4 0x8BC87745 PUSH1 0x40 MLOAD DUP2 PUSH4 0xFFFFFFFF AND PUSH1 0xE0 SHL DUP2 MSTORE PUSH1 0x4 ADD PUSH1 0x20 PUSH1 0x40 MLOAD DUP1 DUP4 SUB DUP2 DUP7 GAS STATICCALL SWAP3 POP POP POP DUP1 ISZERO PUSH2 0x78A JUMPI POP PUSH1 0x40 MLOAD RETURNDATASIZE PUSH1 0x1F NOT PUSH1 0x1F DUP3 ADD AND DUP3 ADD DUP1 PUSH1 0x40 MSTORE POP DUP2 ADD SWAP1 PUSH2 0x787 SWAP2 SWAP1 PUSH2 0x277F JUMP JUMPDEST PUSH1 0x1 JUMPDEST PUSH2 0x797 JUMPI PUSH0 SWAP2 POP POP PUSH2 0x7AD JUMP JUMPDEST DUP1 PUSH2 0x7A6 JUMPI PUSH0 SWAP3 POP POP POP PUSH2 0x7AD JUMP JUMPDEST POP PUSH1 0x1 SWAP2 POP POP JUMPDEST SWAP1 JUMP JUMPDEST PUSH0 PUSH1 0x1 PUSH1 0x2 SWAP1 SLOAD SWAP1 PUSH2 0x100 EXP SWAP1 DIV PUSH20 0xFFFFFFFFFFFFFFFFFFFFFFFFFFFFFFFFFFFFFFFF AND SWAP1 POP SWAP1 JUMP JUMPDEST PUSH32 0x0 PUSH20 0xFFFFFFFFFFFFFFFFFFFFFFFFFFFFFFFFFFFFFFFF AND CALLER PUSH20 0xFFFFFFFFFFFFFFFFFFFFFFFFFFFFFFFFFFFFFFFF AND EQ PUSH2 0x867 JUMPI PUSH1 0x40 MLOAD PUSH32 0x8C379A000000000000000000000000000000000000000000000000000000000 DUP2 MSTORE PUSH1 0x4 ADD PUSH2 0x85E SWAP1 PUSH2 0x2804 JUMP JUMPDEST PUSH1 0x40 MLOAD DUP1 SWAP2 SUB SWAP1 REVERT JUMPDEST PUSH0 PUSH20 0xFFFFFFFFFFFFFFFFFFFFFFFFFFFFFFFFFFFFFFFF AND DUP3 PUSH20 0xFFFFFFFFFFFFFFFFFFFFFFFFFFFFFFFFFFFFFFFF AND SUB PUSH2 0x8D5 JUMPI PUSH1 0x40 MLOAD PUSH32 0x8C379A000000000000000000000000000000000000000000000000000000000 DUP2 MSTORE PUSH1 0x4 ADD PUSH2 0x8CC SWAP1 PUSH2 0x286C JUMP JUMPDEST PUSH1 0x40 MLOAD DUP1 SWAP2 SUB SWAP1 REVERT JUMPDEST PUSH0 PUSH1 0x6 SLOAD SUB PUSH2 0x919 JUMPI PUSH1 0x40 MLOAD PUSH32 0x8C379A000000000000000000000000000000000000000000000000000000000 DUP2 MSTORE PUSH1 0x4 ADD PUSH2 0x910 SWAP1 PUSH2 0x28D4 JUMP JUMPDEST PUSH1 0x40 MLOAD DUP1 SWAP2 SUB SWAP1 REVERT JUMPDEST DUP2 PUSH20 0xFFFFFFFFFFFFFFFFFFFFFFFFFFFFFFFFFFFFFFFF AND PUSH4 0xC2CA0AC5 DUP3 PUSH1 0x40 MLOAD DUP3 PUSH4 0xFFFFFFFF AND PUSH1 0xE0 SHL DUP2 MSTORE PUSH1 0x4 ADD PUSH2 0x952 SWAP2 SWAP1 PUSH2 0x26FD JUMP JUMPDEST PUSH0 PUSH1 0x40 MLOAD DUP1 DUP4 SUB DUP2 PUSH0 DUP8 DUP1 EXTCODESIZE ISZERO DUP1 ISZERO PUSH2 0x969 JUMPI PUSH0 PUSH0 REVERT JUMPDEST POP GAS CALL SWAP3 POP POP POP DUP1 ISZERO PUSH2 0x97A JUMPI POP PUSH1 0x1 JUMPDEST PUSH2 0x9B9 JUMPI PUSH1 0x40 MLOAD PUSH32 0x8C379A000000000000000000000000000000000000000000000000000000000 DUP2 MSTORE PUSH1 0x4 ADD PUSH2 0x9B0 SWAP1 PUSH2 0x293C JUMP JUMPDEST PUSH1 0x40 MLOAD DUP1 SWAP2 SUB SWAP1 REVERT JUMPDEST PUSH0 PUSH1 0x6 DUP2 SWAP1 SSTORE POP PUSH0 PUSH1 0x7 PUSH0 PUSH2 0x100 EXP DUP2 SLOAD DUP2 PUSH1 0xFF MUL NOT AND SWAP1 DUP4 ISZERO ISZERO MUL OR SWAP1 SSTORE POP POP POP JUMP JUMPDEST PUSH32 0x0 PUSH20 0xFFFFFFFFFFFFFFFFFFFFFFFFFFFFFFFFFFFFFFFF AND CALLER PUSH20 0xFFFFFFFFFFFFFFFFFFFFFFFFFFFFFFFFFFFFFFFF AND EQ PUSH2 0xA6B JUMPI PUSH1 0x40 MLOAD PUSH32 0x8C379A000000000000000000000000000000000000000000000000000000000 DUP2 MSTORE PUSH1 0x4 ADD PUSH2 0xA62 SWAP1 PUSH2 0x2804 JUMP JUMPDEST PUSH1 0x40 MLOAD DUP1 SWAP2 SUB SWAP1 REVERT JUMPDEST DUP1 PUSH1 0x5 DUP2 SWAP1 SSTORE POP POP JUMP JUMPDEST PUSH32 0x0 PUSH20 0xFFFFFFFFFFFFFFFFFFFFFFFFFFFFFFFFFFFFFFFF AND CALLER PUSH20 0xFFFFFFFFFFFFFFFFFFFFFFFFFFFFFFFFFFFFFFFF AND EQ DUP1 PUSH2 0xB1C JUMPI POP PUSH1 0x1 PUSH1 0x2 SWAP1 SLOAD SWAP1 PUSH2 0x100 EXP SWAP1 DIV PUSH20 0xFFFFFFFFFFFFFFFFFFFFFFFFFFFFFFFFFFFFFFFF AND PUSH20 0xFFFFFFFFFFFFFFFFFFFFFFFFFFFFFFFFFFFFFFFF AND CALLER PUSH20 0xFFFFFFFFFFFFFFFFFFFFFFFFFFFFFFFFFFFFFFFF AND EQ JUMPDEST DUP1 PUSH2 0xB2C JUMPI POP PUSH2 0xB2B CALLER PUSH2 0x246E JUMP JUMPDEST JUMPDEST PUSH2 0xB6B JUMPI PUSH1 0x40 MLOAD PUSH32 0x8C379A000000000000000000000000000000000000000000000000000000000 DUP2 MSTORE PUSH1 0x4 ADD PUSH2 0xB62 SWAP1 PUSH2 0x29A4 JUMP JUMPDEST PUSH1 0x40 MLOAD DUP1 SWAP2 SUB SWAP1 REVERT JUMPDEST POP JUMP JUMPDEST PUSH0 PUSH0 PUSH20 0xFFFFFFFFFFFFFFFFFFFFFFFFFFFFFFFFFFFFFFFF AND PUSH1 0x1 PUSH1 0x2 SWAP1 SLOAD SWAP1 PUSH2 0x100 EXP SWAP1 DIV PUSH20 0xFFFFFFFFFFFFFFFFFFFFFFFFFFFFFFFFFFFFFFFF AND PUSH20 0xFFFFFFFFFFFFFFFFFFFFFFFFFFFFFFFFFFFFFFFF AND SUB PUSH2 0xBCD JUMPI PUSH1 0x1 SWAP1 POP PUSH2 0xC92 JUMP JUMPDEST PUSH0 PUSH1 0x1 PUSH1 0x2 SWAP1 SLOAD SWAP1 PUSH2 0x100 EXP SWAP1 DIV PUSH20 0xFFFFFFFFFFFFFFFFFFFFFFFFFFFFFFFFFFFFFFFF AND SWAP1 POP ADDRESS PUSH20 0xFFFFFFFFFFFFFFFFFFFFFFFFFFFFFFFFFFFFFFFF AND DUP2 PUSH20 0xFFFFFFFFFFFFFFFFFFFFFFFFFFFFFFFFFFFFFFFF AND PUSH4 0x108ECE4D PUSH1 0x40 MLOAD DUP2 PUSH4 0xFFFFFFFF AND PUSH1 0xE0 SHL DUP2 MSTORE PUSH1 0x4 ADD PUSH1 0x20 PUSH1 0x40 MLOAD DUP1 DUP4 SUB DUP2 DUP7 GAS STATICCALL ISZERO DUP1 ISZERO PUSH2 0xC53 JUMPI RETURNDATASIZE PUSH0 PUSH0 RETURNDATACOPY RETURNDATASIZE PUSH0 REVERT JUMPDEST POP POP POP POP PUSH1 0x40 MLOAD RETURNDATASIZE PUSH1 0x1F NOT PUSH1 0x1F DUP3 ADD AND DUP3 ADD DUP1 PUSH1 0x40 MSTORE POP DUP2 ADD SWAP1 PUSH2 0xC77 SWAP2 SWAP1 PUSH2 0x272A JUMP JUMPDEST PUSH20 0xFFFFFFFFFFFFFFFFFFFFFFFFFFFFFFFFFFFFFFFF AND EQ SWAP2 POP POP JUMPDEST SWAP1 JUMP JUMPDEST PUSH1 0x1 PUSH1 0x2 SWAP1 SLOAD SWAP1 PUSH2 0x100 EXP SWAP1 DIV PUSH20 0xFFFFFFFFFFFFFFFFFFFFFFFFFFFFFFFFFFFFFFFF AND PUSH20 0xFFFFFFFFFFFFFFFFFFFFFFFFFFFFFFFFFFFFFFFF AND CALLER PUSH20 0xFFFFFFFFFFFFFFFFFFFFFFFFFFFFFFFFFFFFFFFF AND EQ DUP1 PUSH2 0xD1C JUMPI POP DUP1 PUSH20 0xFFFFFFFFFFFFFFFFFFFFFFFFFFFFFFFFFFFFFFFF AND CALLER PUSH20 0xFFFFFFFFFFFFFFFFFFFFFFFFFFFFFFFFFFFFFFFF AND EQ JUMPDEST PUSH2 0xD5B JUMPI PUSH1 0x40 MLOAD PUSH32 0x8C379A000000000000000000000000000000000000000000000000000000000 DUP2 MSTORE PUSH1 0x4 ADD PUSH2 0xD52 SWAP1 PUSH2 0x2A0C JUMP JUMPDEST PUSH1 0x40 MLOAD DUP1 SWAP2 SUB SWAP1 REVERT JUMPDEST DUP2 PUSH1 0x4 PUSH0 DUP3 DUP3 SLOAD PUSH2 0xD6C SWAP2 SWAP1 PUSH2 0x2A57 JUMP JUMPDEST SWAP3 POP POP DUP2 SWAP1 SSTORE POP POP POP JUMP JUMPDEST PUSH32 0x0 PUSH20 0xFFFFFFFFFFFFFFFFFFFFFFFFFFFFFFFFFFFFFFFF AND CALLER PUSH20 0xFFFFFFFFFFFFFFFFFFFFFFFFFFFFFFFFFFFFFFFF AND EQ PUSH2 0xE05 JUMPI PUSH1 0x40 MLOAD PUSH32 0x8C379A000000000000000000000000000000000000000000000000000000000 DUP2 MSTORE PUSH1 0x4 ADD PUSH2 0xDFC SWAP1 PUSH2 0x2804 JUMP JUMPDEST PUSH1 0x40 MLOAD DUP1 SWAP2 SUB SWAP1 REVERT JUMPDEST PUSH0 PUSH0 DUP2 SLOAD DUP1 SWAP3 SWAP2 SWAP1 PUSH2 0xE16 SWAP1 PUSH2 0x2A8A JUMP JUMPDEST SWAP2 SWAP1 POP SSTORE POP PUSH1 0x1 PUSH0 SWAP1 SLOAD SWAP1 PUSH2 0x100 EXP SWAP1 DIV PUSH1 0xFF AND ISZERO DUP1 ISZERO PUSH2 0xE84 JUMPI POP PUSH0 PUSH20 0xFFFFFFFFFFFFFFFFFFFFFFFFFFFFFFFFFFFFFFFF AND PUSH1 0x1 PUSH1 0x2 SWAP1 SLOAD SWAP1 PUSH2 0x100 EXP SWAP1 DIV PUSH20 0xFFFFFFFFFFFFFFFFFFFFFFFFFFFFFFFFFFFFFFFF AND PUSH20 0xFFFFFFFFFFFFFFFFFFFFFFFFFFFFFFFFFFFFFFFF AND EQ JUMPDEST ISZERO PUSH2 0xEAB JUMPI PUSH1 0x41 PUSH0 SLOAD LT PUSH2 0xEA0 JUMPI PUSH2 0x1B58 PUSH1 0x4 DUP2 SWAP1 SSTORE POP PUSH2 0xEAA JUMP JUMPDEST PUSH2 0x1388 PUSH1 0x4 DUP2 SWAP1 SSTORE POP JUMPDEST JUMPDEST JUMP JUMPDEST DUP1 PUSH20 0xFFFFFFFFFFFFFFFFFFFFFFFFFFFFFFFFFFFFFFFF AND CALLER PUSH20 0xFFFFFFFFFFFFFFFFFFFFFFFFFFFFFFFFFFFFFFFF AND EQ PUSH2 0xF1B JUMPI PUSH1 0x40 MLOAD PUSH32 0x8C379A000000000000000000000000000000000000000000000000000000000 DUP2 MSTORE PUSH1 0x4 ADD PUSH2 0xF12 SWAP1 PUSH2 0x2B1B JUMP JUMPDEST PUSH1 0x40 MLOAD DUP1 SWAP2 SUB SWAP1 REVERT JUMPDEST PUSH0 PUSH1 0x1 PUSH1 0x2 PUSH2 0x100 EXP DUP2 SLOAD DUP2 PUSH20 0xFFFFFFFFFFFFFFFFFFFFFFFFFFFFFFFFFFFFFFFF MUL NOT AND SWAP1 DUP4 PUSH20 0xFFFFFFFFFFFFFFFFFFFFFFFFFFFFFFFFFFFFFFFF AND MUL OR SWAP1 SSTORE POP PUSH0 PUSH1 0x1 PUSH0 PUSH2 0x100 EXP DUP2 SLOAD DUP2 PUSH1 0xFF MUL NOT AND SWAP1 DUP4 ISZERO ISZERO MUL OR SWAP1 SSTORE POP PUSH2 0xF7D PUSH2 0x2513 JUMP JUMPDEST PUSH1 0x4 DUP2 SWAP1 SSTORE POP POP JUMP JUMPDEST PUSH0 PUSH1 0x4 SLOAD PUSH1 0x5 SLOAD GT PUSH2 0xF9A JUMPI PUSH0 SWAP1 POP PUSH2 0xFAD JUMP JUMPDEST PUSH1 0x4 SLOAD PUSH1 0x5 SLOAD PUSH2 0xFAA SWAP2 SWAP1 PUSH2 0x2B39 JUMP JUMPDEST SWAP1 POP JUMPDEST SWAP1 JUMP JUMPDEST PUSH0 PUSH0 PUSH2 0xFBA PUSH2 0xF86 JUMP JUMPDEST SWAP1 POP PUSH2 0x3E8 DUP4 DUP3 PUSH2 0xFCB SWAP2 SWAP1 PUSH2 0x2B6C JUMP JUMPDEST PUSH2 0xFD5 SWAP2 SWAP1 PUSH2 0x2BDA JUMP JUMPDEST SWAP2 POP POP SWAP2 SWAP1 POP JUMP JUMPDEST PUSH32 0x0 PUSH20 0xFFFFFFFFFFFFFFFFFFFFFFFFFFFFFFFFFFFFFFFF AND CALLER PUSH20 0xFFFFFFFFFFFFFFFFFFFFFFFFFFFFFFFFFFFFFFFF AND EQ PUSH2 0x106B JUMPI PUSH1 0x40 MLOAD PUSH32 0x8C379A000000000000000000000000000000000000000000000000000000000 DUP2 MSTORE PUSH1 0x4 ADD PUSH2 0x1062 SWAP1 PUSH2 0x2804 JUMP JUMPDEST PUSH1 0x40 MLOAD DUP1 SWAP2 SUB SWAP1 REVERT JUMPDEST PUSH0 PUSH20 0xFFFFFFFFFFFFFFFFFFFFFFFFFFFFFFFFFFFFFFFF AND DUP3 PUSH20 0xFFFFFFFFFFFFFFFFFFFFFFFFFFFFFFFFFFFFFFFF AND EQ ISZERO DUP1 ISZERO PUSH2 0x10BD JUMPI POP PUSH0 DUP3 PUSH20 0xFFFFFFFFFFFFFFFFFFFFFFFFFFFFFFFFFFFFFFFF AND EXTCODESIZE GT JUMPDEST PUSH2 0x10FC JUMPI PUSH1 0x40 MLOAD PUSH32 0x8C379A000000000000000000000000000000000000000000000000000000000 DUP2 MSTORE PUSH1 0x4 ADD PUSH2 0x10F3 SWAP1 PUSH2 0x2C54 JUMP JUMPDEST PUSH1 0x40 MLOAD DUP1 SWAP2 SUB SWAP1 REVERT JUMPDEST DUP2 PUSH20 0xFFFFFFFFFFFFFFFFFFFFFFFFFFFFFFFFFFFFFFFF AND PUSH4 0xF14FCBC8 DUP3 PUSH1 0x40 MLOAD PUSH1 0x20 ADD PUSH2 0x1129 SWAP2 SWAP1 PUSH2 0x26FD JUMP JUMPDEST PUSH1 0x40 MLOAD PUSH1 0x20 DUP2 DUP4 SUB SUB DUP2 MSTORE SWAP1 PUSH1 0x40 MSTORE DUP1 MLOAD SWAP1 PUSH1 0x20 ADD KECCAK256 PUSH1 0x40 MLOAD DUP3 PUSH4 0xFFFFFFFF AND PUSH1 0xE0 SHL DUP2 MSTORE PUSH1 0x4 ADD PUSH2 0x115B SWAP2 SWAP1 PUSH2 0x2C8A JUMP JUMPDEST PUSH0 PUSH1 0x40 MLOAD DUP1 DUP4 SUB DUP2 PUSH0 DUP8 DUP1 EXTCODESIZE ISZERO DUP1 ISZERO PUSH2 0x1172 JUMPI PUSH0 PUSH0 REVERT JUMPDEST POP GAS CALL SWAP3 POP POP POP DUP1 ISZERO PUSH2 0x1183 JUMPI POP PUSH1 0x1 JUMPDEST PUSH2 0x11C2 JUMPI PUSH1 0x40 MLOAD PUSH32 0x8C379A000000000000000000000000000000000000000000000000000000000 DUP2 MSTORE PUSH1 0x4 ADD PUSH2 0x11B9 SWAP1 PUSH2 0x2CED JUMP JUMPDEST PUSH1 0x40 MLOAD DUP1 SWAP2 SUB SWAP1 REVERT JUMPDEST DUP1 PUSH1 0x6 DUP2 SWAP1 SSTORE POP PUSH1 0x1 PUSH1 0x7 PUSH0 PUSH2 0x100 EXP DUP2 SLOAD DUP2 PUSH1 0xFF MUL NOT AND SWAP1 DUP4 ISZERO ISZERO MUL OR SWAP1 SSTORE POP POP POP JUMP JUMPDEST DUP1 PUSH1 0x1 PUSH1 0x2 PUSH2 0x100 EXP DUP2 SLOAD DUP2 PUSH20 0xFFFFFFFFFFFFFFFFFFFFFFFFFFFFFFFFFFFFFFFF MUL NOT AND SWAP1 DUP4 PUSH20 0xFFFFFFFFFFFFFFFFFFFFFFFFFFFFFFFFFFFFFFFF AND MUL OR SWAP1 SSTORE POP POP JUMP JUMPDEST PUSH0 PUSH2 0x1234 PUSH2 0x2513 JUMP JUMPDEST SWAP1 POP SWAP1 JUMP JUMPDEST PUSH0 PUSH1 0x1 DUP1 SLOAD SWAP1 PUSH2 0x100 EXP SWAP1 DIV PUSH1 0xFF AND SWAP1 POP SWAP1 JUMP JUMPDEST PUSH32 0x0 PUSH20 0xFFFFFFFFFFFFFFFFFFFFFFFFFFFFFFFFFFFFFFFF AND CALLER PUSH20 0xFFFFFFFFFFFFFFFFFFFFFFFFFFFFFFFFFFFFFFFF AND EQ PUSH2 0x12DB JUMPI PUSH1 0x40 MLOAD PUSH32 0x8C379A000000000000000000000000000000000000000000000000000000000 DUP2 MSTORE PUSH1 0x4 ADD PUSH2 0x12D2 SWAP1 PUSH2 0x2804 JUMP JUMPDEST PUSH1 0x40 MLOAD DUP1 SWAP2 SUB SWAP1 REVERT JUMPDEST PUSH0 PUSH20 0xFFFFFFFFFFFFFFFFFFFFFFFFFFFFFFFFFFFFFFFF AND PUSH1 0x1 PUSH1 0x2 SWAP1 SLOAD SWAP1 PUSH2 0x100 EXP SWAP1 DIV PUSH20 0xFFFFFFFFFFFFFFFFFFFFFFFFFFFFFFFFFFFFFFFF AND PUSH20 0xFFFFFFFFFFFFFFFFFFFFFFFFFFFFFFFFFFFFFFFF AND SUB PUSH2 0x136B JUMPI PUSH1 0x40 MLOAD PUSH32 0x8C379A000000000000000000000000000000000000000000000000000000000 DUP2 MSTORE PUSH1 0x4 ADD PUSH2 0x1362 SWAP1 PUSH2 0x2D55 JUMP JUMPDEST PUSH1 0x40 MLOAD DUP1 SWAP2 SUB SWAP1 REVERT JUMPDEST PUSH0 DUP2 GT PUSH2 0x13AD JUMPI PUSH1 0x40 MLOAD PUSH32 0x8C379A000000000000000000000000000000000000000000000000000000000 DUP2 MSTORE PUSH1 0x4 ADD PUSH2 0x13A4 SWAP1 PUSH2 0x2DBD JUMP JUMPDEST PUSH1 0x40 MLOAD DUP1 SWAP2 SUB SWAP1 REVERT JUMPDEST PUSH1 0x4 SLOAD DUP2 GT ISZERO PUSH2 0x13F2 JUMPI PUSH1 0x40 MLOAD PUSH32 0x8C379A000000000000000000000000000000000000000000000000000000000 DUP2 MSTORE PUSH1 0x4 ADD PUSH2 0x13E9 SWAP1 PUSH2 0x2E25 JUMP JUMPDEST PUSH1 0x40 MLOAD DUP1 SWAP2 SUB SWAP1 REVERT JUMPDEST DUP1 PUSH1 0x4 PUSH0 DUP3 DUP3 SLOAD PUSH2 0x1403 SWAP2 SWAP1 PUSH2 0x2B39 JUMP JUMPDEST SWAP3 POP POP DUP2 SWAP1 SSTORE POP PUSH1 0x1 PUSH1 0x2 SWAP1 SLOAD SWAP1 PUSH2 0x100 EXP SWAP1 DIV PUSH20 0xFFFFFFFFFFFFFFFFFFFFFFFFFFFFFFFFFFFFFFFF AND PUSH20 0xFFFFFFFFFFFFFFFFFFFFFFFFFFFFFFFFFFFFFFFF AND PUSH4 0x308F838A DUP3 ADDRESS PUSH1 0x40 MLOAD DUP4 PUSH4 0xFFFFFFFF AND PUSH1 0xE0 SHL DUP2 MSTORE PUSH1 0x4 ADD PUSH2 0x1467 SWAP3 SWAP2 SWAP1 PUSH2 0x2E43 JUMP JUMPDEST PUSH0 PUSH1 0x40 MLOAD DUP1 DUP4 SUB DUP2 PUSH0 DUP8 DUP1 EXTCODESIZE ISZERO DUP1 ISZERO PUSH2 0x147E JUMPI PUSH0 PUSH0 REVERT JUMPDEST POP GAS CALL SWAP3 POP POP POP DUP1 ISZERO PUSH2 0x148F JUMPI POP PUSH1 0x1 JUMPDEST PUSH2 0x14CE JUMPI PUSH1 0x40 MLOAD PUSH32 0x8C379A000000000000000000000000000000000000000000000000000000000 DUP2 MSTORE PUSH1 0x4 ADD PUSH2 0x14C5 SWAP1 PUSH2 0x2EB4 JUMP JUMPDEST PUSH1 0x40 MLOAD DUP1 SWAP2 SUB SWAP1 REVERT JUMPDEST POP JUMP JUMPDEST PUSH0 PUSH32 0x0 SWAP1 POP SWAP1 JUMP JUMPDEST PUSH0 PUSH0 PUSH1 0x6 SLOAD SUB PUSH2 0x150B JUMPI PUSH1 0x1 SWAP1 POP PUSH2 0x1617 JUMP JUMPDEST PUSH0 PUSH20 0xFFFFFFFFFFFFFFFFFFFFFFFFFFFFFFFFFFFFFFFF AND DUP3 PUSH20 0xFFFFFFFFFFFFFFFFFFFFFFFFFFFFFFFFFFFFFFFF AND EQ DUP1 PUSH2 0x155B JUMPI POP PUSH0 DUP3 PUSH20 0xFFFFFFFFFFFFFFFFFFFFFFFFFFFFFFFFFFFFFFFF AND EXTCODESIZE EQ JUMPDEST ISZERO PUSH2 0x1569 JUMPI PUSH1 0x1 SWAP1 POP PUSH2 0x1617 JUMP JUMPDEST DUP2 PUSH20 0xFFFFFFFFFFFFFFFFFFFFFFFFFFFFFFFFFFFFFFFF AND PUSH4 0x7B43A8E6 ADDRESS PUSH1 0x40 MLOAD DUP3 PUSH4 0xFFFFFFFF AND PUSH1 0xE0 SHL DUP2 MSTORE PUSH1 0x4 ADD PUSH2 0x15A2 SWAP2 SWAP1 PUSH2 0x25A2 JUMP JUMPDEST PUSH1 0x20 PUSH1 0x40 MLOAD DUP1 DUP4 SUB DUP2 DUP7 GAS STATICCALL SWAP3 POP POP POP DUP1 ISZERO PUSH2 0x15DC JUMPI POP PUSH1 0x40 MLOAD RETURNDATASIZE PUSH1 0x1F NOT PUSH1 0x1F DUP3 ADD AND DUP3 ADD DUP1 PUSH1 0x40 MSTORE POP DUP2 ADD SWAP1 PUSH2 0x15D9 SWAP2 SWAP1 PUSH2 0x2EFC JUMP JUMPDEST PUSH1 0x1 JUMPDEST PUSH2 0x15E8 JUMPI PUSH0 SWAP1 POP PUSH2 0x1617 JUMP JUMPDEST PUSH1 0x6 SLOAD PUSH1 0x40 MLOAD PUSH1 0x20 ADD PUSH2 0x15FB SWAP2 SWAP1 PUSH2 0x26FD JUMP JUMPDEST PUSH1 0x40 MLOAD PUSH1 0x20 DUP2 DUP4 SUB SUB DUP2 MSTORE SWAP1 PUSH1 0x40 MSTORE DUP1 MLOAD SWAP1 PUSH1 0x20 ADD KECCAK256 DUP2 EQ SWAP2 POP POP JUMPDEST SWAP2 SWAP1 POP JUMP JUMPDEST PUSH0 PUSH1 0x1 PUSH0 SWAP1 SLOAD SWAP1 PUSH2 0x100 EXP SWAP1 DIV PUSH1 0xFF AND SWAP1 POP SWAP1 JUMP JUMPDEST PUSH32 0x0 DUP2 JUMP JUMPDEST PUSH0 PUSH0 SLOAD SWAP1 POP SWAP1 JUMP JUMPDEST PUSH0 PUSH1 0x4 SLOAD PUSH1 0x5 SLOAD GT PUSH2 0x167C JUMPI PUSH0 PUSH2 0x1674 PUSH1 0xC8 PUSH2 0xFB0 JUMP JUMPDEST EQ SWAP1 POP PUSH2 0x1681 JUMP JUMPDEST PUSH1 0x1 SWAP1 POP JUMPDEST SWAP1 JUMP JUMPDEST PUSH0 PUSH0 PUSH20 0xFFFFFFFFFFFFFFFFFFFFFFFFFFFFFFFFFFFFFFFF AND PUSH1 0x1 PUSH1 0x2 SWAP1 SLOAD SWAP1 PUSH2 0x100 EXP SWAP1 DIV PUSH20 0xFFFFFFFFFFFFFFFFFFFFFFFFFFFFFFFFFFFFFFFF AND PUSH20 0xFFFFFFFFFFFFFFFFFFFFFFFFFFFFFFFFFFFFFFFF AND EQ ISZERO DUP1 PUSH2 0x16ED JUMPI POP PUSH1 0x1 PUSH0 SWAP1 SLOAD SWAP1 PUSH2 0x100 EXP SWAP1 DIV PUSH1 0xFF AND JUMPDEST ISZERO PUSH2 0x16FB JUMPI PUSH1 0x1 SWAP1 POP PUSH2 0x170A JUMP JUMPDEST PUSH2 0x1703 PUSH2 0x2513 JUMP JUMPDEST PUSH1 0x4 SLOAD EQ SWAP1 POP JUMPDEST SWAP1 JUMP JUMPDEST PUSH32 0x0 PUSH20 0xFFFFFFFFFFFFFFFFFFFFFFFFFFFFFFFFFFFFFFFF AND CALLER PUSH20 0xFFFFFFFFFFFFFFFFFFFFFFFFFFFFFFFFFFFFFFFF AND EQ PUSH2 0x179B JUMPI PUSH1 0x40 MLOAD PUSH32 0x8C379A000000000000000000000000000000000000000000000000000000000 DUP2 MSTORE PUSH1 0x4 ADD PUSH2 0x1792 SWAP1 PUSH2 0x2804 JUMP JUMPDEST PUSH1 0x40 MLOAD DUP1 SWAP2 SUB SWAP1 REVERT JUMPDEST PUSH1 0x1 PUSH0 SWAP1 SLOAD SWAP1 PUSH2 0x100 EXP SWAP1 DIV PUSH1 0xFF AND ISZERO PUSH2 0x17EA JUMPI PUSH1 0x40 MLOAD PUSH32 0x8C379A000000000000000000000000000000000000000000000000000000000 DUP2 MSTORE PUSH1 0x4 ADD PUSH2 0x17E1 SWAP1 PUSH2 0x2F71 JUMP JUMPDEST PUSH1 0x40 MLOAD DUP1 SWAP2 SUB SWAP1 REVERT JUMPDEST PUSH0 PUSH20 0xFFFFFFFFFFFFFFFFFFFFFFFFFFFFFFFFFFFFFFFF AND DUP2 PUSH20 0xFFFFFFFFFFFFFFFFFFFFFFFFFFFFFFFFFFFFFFFF AND SUB PUSH2 0x1858 JUMPI PUSH1 0x40 MLOAD PUSH32 0x8C379A000000000000000000000000000000000000000000000000000000000 DUP2 MSTORE PUSH1 0x4 ADD PUSH2 0x184F SWAP1 PUSH2 0x2FD9 JUMP JUMPDEST PUSH1 0x40 MLOAD DUP1 SWAP2 SUB SWAP1 REVERT JUMPDEST ADDRESS PUSH20 0xFFFFFFFFFFFFFFFFFFFFFFFFFFFFFFFFFFFFFFFF AND DUP2 PUSH20 0xFFFFFFFFFFFFFFFFFFFFFFFFFFFFFFFFFFFFFFFF AND SUB PUSH2 0x18C6 JUMPI PUSH1 0x40 MLOAD PUSH32 0x8C379A000000000000000000000000000000000000000000000000000000000 DUP2 MSTORE PUSH1 0x4 ADD PUSH2 0x18BD SWAP1 PUSH2 0x3041 JUMP JUMPDEST PUSH1 0x40 MLOAD DUP1 SWAP2 SUB SWAP1 REVERT JUMPDEST PUSH0 DUP2 PUSH20 0xFFFFFFFFFFFFFFFFFFFFFFFFFFFFFFFFFFFFFFFF AND EXTCODESIZE GT PUSH2 0x191F JUMPI PUSH1 0x40 MLOAD PUSH32 0x8C379A000000000000000000000000000000000000000000000000000000000 DUP2 MSTORE PUSH1 0x4 ADD PUSH2 0x1916 SWAP1 PUSH2 0x30A9 JUMP JUMPDEST PUSH1 0x40 MLOAD DUP1 SWAP2 SUB SWAP1 REVERT JUMPDEST PUSH0 DUP2 PUSH20 0xFFFFFFFFFFFFFFFFFFFFFFFFFFFFFFFFFFFFFFFF AND PUSH4 0x8BC87745 PUSH1 0x40 MLOAD DUP2 PUSH4 0xFFFFFFFF AND PUSH1 0xE0 SHL DUP2 MSTORE PUSH1 0x4 ADD PUSH1 0x20 PUSH1 0x40 MLOAD DUP1 DUP4 SUB DUP2 DUP7 GAS STATICCALL SWAP3 POP POP POP DUP1 ISZERO PUSH2 0x1988 JUMPI POP PUSH1 0x40 MLOAD RETURNDATASIZE PUSH1 0x1F NOT PUSH1 0x1F DUP3 ADD AND DUP3 ADD DUP1 PUSH1 0x40 MSTORE POP DUP2 ADD SWAP1 PUSH2 0x1985 SWAP2 SWAP1 PUSH2 0x277F JUMP JUMPDEST PUSH1 0x1 JUMPDEST PUSH2 0x19C7 JUMPI PUSH1 0x40 MLOAD PUSH32 0x8C379A000000000000000000000000000000000000000000000000000000000 DUP2 MSTORE PUSH1 0x4 ADD PUSH2 0x19BE SWAP1 PUSH2 0x3111 JUMP JUMPDEST PUSH1 0x40 MLOAD DUP1 SWAP2 SUB SWAP1 REVERT JUMPDEST DUP1 SWAP2 POP POP DUP1 ISZERO PUSH2 0x1A0C JUMPI PUSH1 0x40 MLOAD PUSH32 0x8C379A000000000000000000000000000000000000000000000000000000000 DUP2 MSTORE PUSH1 0x4 ADD PUSH2 0x1A03 SWAP1 PUSH2 0x3179 JUMP JUMPDEST PUSH1 0x40 MLOAD DUP1 SWAP2 SUB SWAP1 REVERT JUMPDEST PUSH0 PUSH1 0x1 PUSH1 0x2 SWAP1 SLOAD SWAP1 PUSH2 0x100 EXP SWAP1 DIV PUSH20 0xFFFFFFFFFFFFFFFFFFFFFFFFFFFFFFFFFFFFFFFF AND SWAP1 POP PUSH0 DUP4 SWAP1 POP PUSH0 DUP2 PUSH1 0x1 PUSH1 0x2 PUSH2 0x100 EXP DUP2 SLOAD DUP2 PUSH20 0xFFFFFFFFFFFFFFFFFFFFFFFFFFFFFFFFFFFFFFFF MUL NOT AND SWAP1 DUP4 PUSH20 0xFFFFFFFFFFFFFFFFFFFFFFFFFFFFFFFFFFFFFFFF AND MUL OR SWAP1 SSTORE POP PUSH1 0x1 DUP1 PUSH0 PUSH2 0x100 EXP DUP2 SLOAD DUP2 PUSH1 0xFF MUL NOT AND SWAP1 DUP4 ISZERO ISZERO MUL OR SWAP1 SSTORE POP PUSH2 0x1A99 PUSH2 0x2513 JUMP JUMPDEST PUSH1 0x4 DUP2 SWAP1 SSTORE POP PUSH1 0x1 PUSH1 0x2 SWAP1 SLOAD SWAP1 PUSH2 0x100 EXP SWAP1 DIV PUSH20 0xFFFFFFFFFFFFFFFFFFFFFFFFFFFFFFFFFFFFFFFF AND PUSH20 0xFFFFFFFFFFFFFFFFFFFFFFFFFFFFFFFFFFFFFFFF AND PUSH4 0xCB01A92B ADDRESS PUSH1 0x40 MLOAD DUP3 PUSH4 0xFFFFFFFF AND PUSH1 0xE0 SHL DUP2 MSTORE PUSH1 0x4 ADD PUSH2 0x1AFA SWAP2 SWAP1 PUSH2 0x25A2 JUMP JUMPDEST PUSH0 PUSH1 0x40 MLOAD DUP1 DUP4 SUB DUP2 PUSH0 DUP8 DUP1 EXTCODESIZE ISZERO DUP1 ISZERO PUSH2 0x1B11 JUMPI PUSH0 PUSH0 REVERT JUMPDEST POP GAS CALL SWAP3 POP POP POP DUP1 ISZERO PUSH2 0x1B22 JUMPI POP PUSH1 0x1 JUMPDEST PUSH2 0x1BC2 JUMPI DUP3 PUSH1 0x1 PUSH1 0x2 PUSH2 0x100 EXP DUP2 SLOAD DUP2 PUSH20 0xFFFFFFFFFFFFFFFFFFFFFFFFFFFFFFFFFFFFFFFF MUL NOT AND SWAP1 DUP4 PUSH20 0xFFFFFFFFFFFFFFFFFFFFFFFFFFFFFFFFFFFFFFFF AND MUL OR SWAP1 SSTORE POP PUSH0 PUSH1 0x1 PUSH0 PUSH2 0x100 EXP DUP2 SLOAD DUP2 PUSH1 0xFF MUL NOT AND SWAP1 DUP4 ISZERO ISZERO MUL OR SWAP1 SSTORE POP DUP1 PUSH1 0x4 DUP2 SWAP1 SSTORE POP PUSH1 0x40 MLOAD PUSH32 0x8C379A000000000000000000000000000000000000000000000000000000000 DUP2 MSTORE PUSH1 0x4 ADD PUSH2 0x1BB9 SWAP1 PUSH2 0x31E1 JUMP JUMPDEST PUSH1 0x40 MLOAD DUP1 SWAP2 SUB SWAP1 REVERT JUMPDEST DUP2 PUSH20 0xFFFFFFFFFFFFFFFFFFFFFFFFFFFFFFFFFFFFFFFF AND PUSH4 0x25803D64 DUP4 PUSH20 0xFFFFFFFFFFFFFFFFFFFFFFFFFFFFFFFFFFFFFFFF AND PUSH4 0x594DB753 PUSH1 0x40 MLOAD DUP2 PUSH4 0xFFFFFFFF AND PUSH1 0xE0 SHL DUP2 MSTORE PUSH1 0x4 ADD PUSH1 0x20 PUSH1 0x40 MLOAD DUP1 DUP4 SUB DUP2 DUP7 GAS STATICCALL ISZERO DUP1 ISZERO PUSH2 0x1C27 JUMPI RETURNDATASIZE PUSH0 PUSH0 RETURNDATACOPY RETURNDATASIZE PUSH0 REVERT JUMPDEST POP POP POP POP PUSH1 0x40 MLOAD RETURNDATASIZE PUSH1 0x1F NOT PUSH1 0x1F DUP3 ADD AND DUP3 ADD DUP1 PUSH1 0x40 MSTORE POP DUP2 ADD SWAP1 PUSH2 0x1C4B SWAP2 SWAP1 PUSH2 0x3213 JUMP JUMPDEST PUSH1 0x40 MLOAD DUP3 PUSH4 0xFFFFFFFF AND PUSH1 0xE0 SHL DUP2 MSTORE PUSH1 0x4 ADD PUSH2 0x1C67 SWAP2 SWAP1 PUSH2 0x26FD JUMP JUMPDEST PUSH0 PUSH1 0x40 MLOAD DUP1 DUP4 SUB DUP2 PUSH0 DUP8 DUP1 EXTCODESIZE ISZERO DUP1 ISZERO PUSH2 0x1C7E JUMPI PUSH0 PUSH0 REVERT JUMPDEST POP GAS CALL SWAP3 POP POP POP DUP1 ISZERO PUSH2 0x1C8F JUMPI POP PUSH1 0x1 JUMPDEST PUSH2 0x1D2F JUMPI DUP3 PUSH1 0x1 PUSH1 0x2 PUSH2 0x100 EXP DUP2 SLOAD DUP2 PUSH20 0xFFFFFFFFFFFFFFFFFFFFFFFFFFFFFFFFFFFFFFFF MUL NOT AND SWAP1 DUP4 PUSH20 0xFFFFFFFFFFFFFFFFFFFFFFFFFFFFFFFFFFFFFFFF AND MUL OR SWAP1 SSTORE POP PUSH0 PUSH1 0x1 PUSH0 PUSH2 0x100 EXP DUP2 SLOAD DUP2 PUSH1 0xFF MUL NOT AND SWAP1 DUP4 ISZERO ISZERO MUL OR SWAP1 SSTORE POP DUP1 PUSH1 0x4 DUP2 SWAP1 SSTORE POP PUSH1 0x40 MLOAD PUSH32 0x8C379A000000000000000000000000000000000000000000000000000000000 DUP2 MSTORE PUSH1 0x4 ADD PUSH2 0x1D26 SWAP1 PUSH2 0x3288 JUMP JUMPDEST PUSH1 0x40 MLOAD DUP1 SWAP2 SUB SWAP1 REVERT JUMPDEST DUP2 PUSH20 0xFFFFFFFFFFFFFFFFFFFFFFFFFFFFFFFFFFFFFFFF AND ADDRESS PUSH20 0xFFFFFFFFFFFFFFFFFFFFFFFFFFFFFFFFFFFFFFFF AND PUSH32 0xC89EF770A4AD395EBDC22B63DE541B88DAF19F335056F203FA06E4154B62BB7B PUSH1 0x40 MLOAD PUSH1 0x40 MLOAD DUP1 SWAP2 SUB SWAP1 LOG3 POP POP POP POP POP JUMP JUMPDEST PUSH0 PUSH1 0x4 SLOAD SWAP1 POP SWAP1 JUMP JUMPDEST PUSH0 PUSH0 PUSH2 0x1DA3 PUSH2 0xF86 JUMP JUMPDEST LT ISZERO SWAP1 POP SWAP1 JUMP JUMPDEST DUP1 PUSH20 0xFFFFFFFFFFFFFFFFFFFFFFFFFFFFFFFFFFFFFFFF AND CALLER PUSH20 0xFFFFFFFFFFFFFFFFFFFFFFFFFFFFFFFFFFFFFFFF AND EQ PUSH2 0x1E18 JUMPI PUSH1 0x40 MLOAD PUSH32 0x8C379A000000000000000000000000000000000000000000000000000000000 DUP2 MSTORE PUSH1 0x4 ADD PUSH2 0x1E0F SWAP1 PUSH2 0x32F0 JUMP JUMPDEST PUSH1 0x40 MLOAD DUP1 SWAP2 SUB SWAP1 REVERT JUMPDEST PUSH2 0x1E21 DUP2 PUSH2 0x11E7 JUMP JUMPDEST PUSH1 0x1 DUP1 PUSH0 PUSH2 0x100 EXP DUP2 SLOAD DUP2 PUSH1 0xFF MUL NOT AND SWAP1 DUP4 ISZERO ISZERO MUL OR SWAP1 SSTORE POP POP JUMP JUMPDEST PUSH0 PUSH1 0x7 PUSH0 SWAP1 SLOAD SWAP1 PUSH2 0x100 EXP SWAP1 DIV PUSH1 0xFF AND ISZERO PUSH2 0x1E5F JUMPI PUSH0 PUSH1 0x6 SLOAD EQ ISZERO SWAP1 POP PUSH2 0x1E67 JUMP JUMPDEST PUSH0 PUSH1 0x6 SLOAD EQ SWAP1 POP JUMPDEST SWAP1 JUMP JUMPDEST PUSH1 0x1 PUSH1 0x2 SWAP1 SLOAD SWAP1 PUSH2 0x100 EXP SWAP1 DIV PUSH20 0xFFFFFFFFFFFFFFFFFFFFFFFFFFFFFFFFFFFFFFFF AND PUSH20 0xFFFFFFFFFFFFFFFFFFFFFFFFFFFFFFFFFFFFFFFF AND CALLER PUSH20 0xFFFFFFFFFFFFFFFFFFFFFFFFFFFFFFFFFFFFFFFF AND EQ PUSH2 0x1EFA JUMPI PUSH1 0x40 MLOAD PUSH32 0x8C379A000000000000000000000000000000000000000000000000000000000 DUP2 MSTORE PUSH1 0x4 ADD PUSH2 0x1EF1 SWAP1 PUSH2 0x3358 JUMP JUMPDEST PUSH1 0x40 MLOAD DUP1 SWAP2 SUB SWAP1 REVERT JUMPDEST DUP1 PUSH1 0x4 DUP2 SWAP1 SSTORE POP POP JUMP JUMPDEST PUSH0 PUSH1 0x1 PUSH0 SWAP1 SLOAD SWAP1 PUSH2 0x100 EXP SWAP1 DIV PUSH1 0xFF AND ISZERO DUP1 PUSH2 0x1F6D JUMPI POP PUSH0 PUSH20 0xFFFFFFFFFFFFFFFFFFFFFFFFFFFFFFFFFFFFFFFF AND PUSH1 0x1 PUSH1 0x2 SWAP1 SLOAD SWAP1 PUSH2 0x100 EXP SWAP1 DIV PUSH20 0xFFFFFFFFFFFFFFFFFFFFFFFFFFFFFFFFFFFFFFFF AND PUSH20 0xFFFFFFFFFFFFFFFFFFFFFFFFFFFFFFFFFFFFFFFF AND EQ JUMPDEST ISZERO PUSH2 0x1F7B JUMPI PUSH1 0x1 SWAP1 POP PUSH2 0x219A JUMP JUMPDEST PUSH0 PUSH1 0x4 SLOAD SWAP1 POP PUSH0 PUSH1 0x1 PUSH1 0x2 SWAP1 SLOAD SWAP1 PUSH2 0x100 EXP SWAP1 DIV PUSH20 0xFFFFFFFFFFFFFFFFFFFFFFFFFFFFFFFFFFFFFFFF AND SWAP1 POP PUSH0 PUSH0 PUSH0 DUP4 PUSH20 0xFFFFFFFFFFFFFFFFFFFFFFFFFFFFFFFFFFFFFFFF AND PUSH4 0xC043DECC PUSH1 0x40 MLOAD DUP2 PUSH4 0xFFFFFFFF AND PUSH1 0xE0 SHL DUP2 MSTORE PUSH1 0x4 ADD PUSH1 0x20 PUSH1 0x40 MLOAD DUP1 DUP4 SUB DUP2 DUP7 GAS STATICCALL SWAP3 POP POP POP DUP1 ISZERO PUSH2 0x2012 JUMPI POP PUSH1 0x40 MLOAD RETURNDATASIZE PUSH1 0x1F NOT PUSH1 0x1F DUP3 ADD AND DUP3 ADD DUP1 PUSH1 0x40 MSTORE POP DUP2 ADD SWAP1 PUSH2 0x200F SWAP2 SWAP1 PUSH2 0x3213 JUMP JUMPDEST PUSH1 0x1 JUMPDEST PUSH2 0x2023 JUMPI PUSH0 SWAP6 POP POP POP POP POP POP PUSH2 0x219A JUMP JUMPDEST DUP1 SWAP4 POP POP DUP4 PUSH20 0xFFFFFFFFFFFFFFFFFFFFFFFFFFFFFFFFFFFFFFFF AND PUSH4 0x6AA393F8 PUSH1 0x40 MLOAD DUP2 PUSH4 0xFFFFFFFF AND PUSH1 0xE0 SHL DUP2 MSTORE PUSH1 0x4 ADD PUSH1 0x20 PUSH1 0x40 MLOAD DUP1 DUP4 SUB DUP2 DUP7 GAS STATICCALL SWAP3 POP POP POP DUP1 ISZERO PUSH2 0x208F JUMPI POP PUSH1 0x40 MLOAD RETURNDATASIZE PUSH1 0x1F NOT PUSH1 0x1F DUP3 ADD AND DUP3 ADD DUP1 PUSH1 0x40 MSTORE POP DUP2 ADD SWAP1 PUSH2 0x208C SWAP2 SWAP1 PUSH2 0x3213 JUMP JUMPDEST PUSH1 0x1 JUMPDEST PUSH2 0x20A0 JUMPI PUSH0 SWAP6 POP POP POP POP POP POP PUSH2 0x219A JUMP JUMPDEST DUP1 SWAP3 POP POP DUP4 PUSH20 0xFFFFFFFFFFFFFFFFFFFFFFFFFFFFFFFFFFFFFFFF AND PUSH4 0x594DB753 PUSH1 0x40 MLOAD DUP2 PUSH4 0xFFFFFFFF AND PUSH1 0xE0 SHL DUP2 MSTORE PUSH1 0x4 ADD PUSH1 0x20 PUSH1 0x40 MLOAD DUP1 DUP4 SUB DUP2 DUP7 GAS STATICCALL SWAP3 POP POP POP DUP1 ISZERO PUSH2 0x210C JUMPI POP PUSH1 0x40 MLOAD RETURNDATASIZE PUSH1 0x1F NOT PUSH1 0x1F DUP3 ADD AND DUP3 ADD DUP1 PUSH1 0x40 MSTORE POP DUP2 ADD SWAP1 PUSH2 0x2109 SWAP2 SWAP1 PUSH2 0x3213 JUMP JUMPDEST PUSH1 0x1 JUMPDEST PUSH2 0x211D JUMPI PUSH0 SWAP6 POP POP POP POP POP POP PUSH2 0x219A JUMP JUMPDEST DUP1 SWAP2 POP POP PUSH0 PUSH2 0x212A PUSH2 0x2513 JUMP JUMPDEST SWAP1 POP PUSH0 DUP4 PUSH32 0x0 PUSH2 0x2159 SWAP2 SWAP1 PUSH2 0x2A57 JUMP JUMPDEST DUP6 DUP9 PUSH2 0x2165 SWAP2 SWAP1 PUSH2 0x2A57 JUMP JUMPDEST EQ SWAP1 POP PUSH0 DUP4 DUP4 PUSH2 0x2175 SWAP2 SWAP1 PUSH2 0x2A57 JUMP JUMPDEST DUP7 DUP10 PUSH2 0x2181 SWAP2 SWAP1 PUSH2 0x2A57 JUMP JUMPDEST GT ISZERO SWAP1 POP DUP2 DUP1 ISZERO PUSH2 0x218F JUMPI POP DUP1 JUMPDEST SWAP9 POP POP POP POP POP POP POP POP POP JUMPDEST SWAP1 JUMP JUMPDEST PUSH0 ADDRESS PUSH20 0xFFFFFFFFFFFFFFFFFFFFFFFFFFFFFFFFFFFFFFFF AND PUSH1 0x1 PUSH1 0x2 SWAP1 SLOAD SWAP1 PUSH2 0x100 EXP SWAP1 DIV PUSH20 0xFFFFFFFFFFFFFFFFFFFFFFFFFFFFFFFFFFFFFFFF AND PUSH20 0xFFFFFFFFFFFFFFFFFFFFFFFFFFFFFFFFFFFFFFFF AND EQ ISZERO SWAP1 POP SWAP1 JUMP JUMPDEST PUSH32 0x0 PUSH20 0xFFFFFFFFFFFFFFFFFFFFFFFFFFFFFFFFFFFFFFFF AND CALLER PUSH20 0xFFFFFFFFFFFFFFFFFFFFFFFFFFFFFFFFFFFFFFFF AND EQ PUSH2 0x2283 JUMPI PUSH1 0x40 MLOAD PUSH32 0x8C379A000000000000000000000000000000000000000000000000000000000 DUP2 MSTORE PUSH1 0x4 ADD PUSH2 0x227A SWAP1 PUSH2 0x2804 JUMP JUMPDEST PUSH1 0x40 MLOAD DUP1 SWAP2 SUB SWAP1 REVERT JUMPDEST PUSH1 0x1 PUSH0 SWAP1 SLOAD SWAP1 PUSH2 0x100 EXP SWAP1 DIV PUSH1 0xFF AND PUSH2 0x22D1 JUMPI PUSH1 0x40 MLOAD PUSH32 0x8C379A000000000000000000000000000000000000000000000000000000000 DUP2 MSTORE PUSH1 0x4 ADD PUSH2 0x22C8 SWAP1 PUSH2 0x33C0 JUMP JUMPDEST PUSH1 0x40 MLOAD DUP1 SWAP2 SUB SWAP1 REVERT JUMPDEST PUSH0 PUSH1 0x1 PUSH1 0x2 SWAP1 SLOAD SWAP1 PUSH2 0x100 EXP SWAP1 DIV PUSH20 0xFFFFFFFFFFFFFFFFFFFFFFFFFFFFFFFFFFFFFFFF AND SWAP1 POP PUSH0 PUSH1 0x1 PUSH1 0x2 PUSH2 0x100 EXP DUP2 SLOAD DUP2 PUSH20 0xFFFFFFFFFFFFFFFFFFFFFFFFFFFFFFFFFFFFFFFF MUL NOT AND SWAP1 DUP4 PUSH20 0xFFFFFFFFFFFFFFFFFFFFFFFFFFFFFFFFFFFFFFFF AND MUL OR SWAP1 SSTORE POP PUSH0 PUSH1 0x1 PUSH0 PUSH2 0x100 EXP DUP2 SLOAD DUP2 PUSH1 0xFF MUL NOT AND SWAP1 DUP4 ISZERO ISZERO MUL OR SWAP1 SSTORE POP PUSH2 0x2359 PUSH2 0x2513 JUMP JUMPDEST PUSH1 0x4 DUP2 SWAP1 SSTORE POP PUSH0 PUSH20 0xFFFFFFFFFFFFFFFFFFFFFFFFFFFFFFFFFFFFFFFF AND DUP2 PUSH20 0xFFFFFFFFFFFFFFFFFFFFFFFFFFFFFFFFFFFFFFFF AND EQ ISZERO DUP1 ISZERO PUSH2 0x23B1 JUMPI POP PUSH0 DUP2 PUSH20 0xFFFFFFFFFFFFFFFFFFFFFFFFFFFFFFFFFFFFFFFF AND EXTCODESIZE GT JUMPDEST ISZERO PUSH2 0x2457 JUMPI DUP1 PUSH20 0xFFFFFFFFFFFFFFFFFFFFFFFFFFFFFFFFFFFFFFFF AND PUSH4 0x38FB27BA ADDRESS PUSH1 0x40 MLOAD DUP3 PUSH4 0xFFFFFFFF AND PUSH1 0xE0 SHL DUP2 MSTORE PUSH1 0x4 ADD PUSH2 0x23EF SWAP2 SWAP1 PUSH2 0x25A2 JUMP JUMPDEST PUSH0 PUSH1 0x40 MLOAD DUP1 DUP4 SUB DUP2 PUSH0 DUP8 DUP1 EXTCODESIZE ISZERO DUP1 ISZERO PUSH2 0x2406 JUMPI PUSH0 PUSH0 REVERT JUMPDEST POP GAS CALL SWAP3 POP POP POP DUP1 ISZERO PUSH2 0x2417 JUMPI POP PUSH1 0x1 JUMPDEST PUSH2 0x2456 JUMPI PUSH1 0x40 MLOAD PUSH32 0x8C379A000000000000000000000000000000000000000000000000000000000 DUP2 MSTORE PUSH1 0x4 ADD PUSH2 0x244D SWAP1 PUSH2 0x3428 JUMP JUMPDEST PUSH1 0x40 MLOAD DUP1 SWAP2 SUB SWAP1 REVERT JUMPDEST JUMPDEST POP JUMP JUMPDEST PUSH0 PUSH1 0x1 DUP1 SLOAD SWAP1 PUSH2 0x100 EXP SWAP1 DIV PUSH1 0xFF AND SWAP1 POP SWAP1 JUMP JUMPDEST PUSH0 PUSH0 DUP3 PUSH20 0xFFFFFFFFFFFFFFFFFFFFFFFFFFFFFFFFFFFFFFFF AND EXTCODESIZE SUB PUSH2 0x2495 JUMPI PUSH0 SWAP1 POP PUSH2 0x250E JUMP JUMPDEST DUP2 PUSH20 0xFFFFFFFFFFFFFFFFFFFFFFFFFFFFFFFFFFFFFFFF AND PUSH4 0xF7EC2F35 PUSH1 0x40 MLOAD DUP2 PUSH4 0xFFFFFFFF AND PUSH1 0xE0 SHL DUP2 MSTORE PUSH1 0x4 ADD PUSH1 0x20 PUSH1 0x40 MLOAD DUP1 DUP4 SUB DUP2 DUP7 GAS STATICCALL SWAP3 POP POP POP DUP1 ISZERO PUSH2 0x24FD JUMPI POP PUSH1 0x40 MLOAD RETURNDATASIZE PUSH1 0x1F NOT PUSH1 0x1F DUP3 ADD AND DUP3 ADD DUP1 PUSH1 0x40 MSTORE POP DUP2 ADD SWAP1 PUSH2 0x24FA SWAP2 SWAP1 PUSH2 0x277F JUMP JUMPDEST PUSH1 0x1 JUMPDEST PUSH2 0x2509 JUMPI PUSH0 SWAP1 POP PUSH2 0x250E JUMP JUMPDEST DUP1 SWAP2 POP POP JUMPDEST SWAP2 SWAP1 POP JUMP JUMPDEST PUSH0 PUSH1 0x41 PUSH0 SLOAD LT PUSH2 0x2527 JUMPI PUSH2 0x1B58 SWAP1 POP PUSH2 0x252D JUMP JUMPDEST PUSH2 0x1388 SWAP1 POP JUMPDEST SWAP1 JUMP JUMPDEST PUSH0 DUP2 ISZERO ISZERO SWAP1 POP SWAP2 SWAP1 POP JUMP JUMPDEST PUSH2 0x2544 DUP2 PUSH2 0x2530 JUMP JUMPDEST DUP3 MSTORE POP POP JUMP JUMPDEST PUSH0 PUSH1 0x20 DUP3 ADD SWAP1 POP PUSH2 0x255D PUSH0 DUP4 ADD DUP5 PUSH2 0x253B JUMP JUMPDEST SWAP3 SWAP2 POP POP JUMP JUMPDEST PUSH0 PUSH20 0xFFFFFFFFFFFFFFFFFFFFFFFFFFFFFFFFFFFFFFFF DUP3 AND SWAP1 POP SWAP2 SWAP1 POP JUMP JUMPDEST PUSH0 PUSH2 0x258C DUP3 PUSH2 0x2563 JUMP JUMPDEST SWAP1 POP SWAP2 SWAP1 POP JUMP JUMPDEST PUSH2 0x259C DUP2 PUSH2 0x2582 JUMP JUMPDEST DUP3 MSTORE POP POP JUMP JUMPDEST PUSH0 PUSH1 0x20 DUP3 ADD SWAP1 POP PUSH2 0x25B5 PUSH0 DUP4 ADD DUP5 PUSH2 0x2593 JUMP JUMPDEST SWAP3 SWAP2 POP POP JUMP JUMPDEST PUSH0 PUSH0 REVERT JUMPDEST PUSH2 0x25C8 DUP2 PUSH2 0x2582 JUMP JUMPDEST DUP2 EQ PUSH2 0x25D2 JUMPI PUSH0 PUSH0 REVERT JUMPDEST POP JUMP JUMPDEST PUSH0 DUP2 CALLDATALOAD SWAP1 POP PUSH2 0x25E3 DUP2 PUSH2 0x25BF JUMP JUMPDEST SWAP3 SWAP2 POP POP JUMP JUMPDEST PUSH0 DUP2 SWAP1 POP SWAP2 SWAP1 POP JUMP JUMPDEST PUSH2 0x25FB DUP2 PUSH2 0x25E9 JUMP JUMPDEST DUP2 EQ PUSH2 0x2605 JUMPI PUSH0 PUSH0 REVERT JUMPDEST POP JUMP JUMPDEST PUSH0 DUP2 CALLDATALOAD SWAP1 POP PUSH2 0x2616 DUP2 PUSH2 0x25F2 JUMP JUMPDEST SWAP3 SWAP2 POP POP JUMP JUMPDEST PUSH0 PUSH0 PUSH1 0x40 DUP4 DUP6 SUB SLT ISZERO PUSH2 0x2632 JUMPI PUSH2 0x2631 PUSH2 0x25BB JUMP JUMPDEST JUMPDEST PUSH0 PUSH2 0x263F DUP6 DUP3 DUP7 ADD PUSH2 0x25D5 JUMP JUMPDEST SWAP3 POP POP PUSH1 0x20 PUSH2 0x2650 DUP6 DUP3 DUP7 ADD PUSH2 0x2608 JUMP JUMPDEST SWAP2 POP POP SWAP3 POP SWAP3 SWAP1 POP JUMP JUMPDEST PUSH0 PUSH1 0x20 DUP3 DUP5 SUB SLT ISZERO PUSH2 0x266F JUMPI PUSH2 0x266E PUSH2 0x25BB JUMP JUMPDEST JUMPDEST PUSH0 PUSH2 0x267C DUP5 DUP3 DUP6 ADD PUSH2 0x2608 JUMP JUMPDEST SWAP2 POP POP SWAP3 SWAP2 POP POP JUMP JUMPDEST PUSH0 PUSH0 PUSH1 0x40 DUP4 DUP6 SUB SLT ISZERO PUSH2 0x269B JUMPI PUSH2 0x269A PUSH2 0x25BB JUMP JUMPDEST JUMPDEST PUSH0 PUSH2 0x26A8 DUP6 DUP3 DUP7 ADD PUSH2 0x2608 JUMP JUMPDEST SWAP3 POP POP PUSH1 0x20 PUSH2 0x26B9 DUP6 DUP3 DUP7 ADD PUSH2 0x25D5 JUMP JUMPDEST SWAP2 POP POP SWAP3 POP SWAP3 SWAP1 POP JUMP JUMPDEST PUSH0 PUSH1 0x20 DUP3 DUP5 SUB SLT ISZERO PUSH2 0x26D8 JUMPI PUSH2 0x26D7 PUSH2 0x25BB JUMP JUMPDEST JUMPDEST PUSH0 PUSH2 0x26E5 DUP5 DUP3 DUP6 ADD PUSH2 0x25D5 JUMP JUMPDEST SWAP2 POP POP SWAP3 SWAP2 POP POP JUMP JUMPDEST PUSH2 0x26F7 DUP2 PUSH2 0x25E9 JUMP JUMPDEST DUP3 MSTORE POP POP JUMP JUMPDEST PUSH0 PUSH1 0x20 DUP3 ADD SWAP1 POP PUSH2 0x2710 PUSH0 DUP4 ADD DUP5 PUSH2 0x26EE JUMP JUMPDEST SWAP3 SWAP2 POP POP JUMP JUMPDEST PUSH0 DUP2 MLOAD SWAP1 POP PUSH2 0x2724 DUP2 PUSH2 0x25BF JUMP JUMPDEST SWAP3 SWAP2 POP POP JUMP JUMPDEST PUSH0 PUSH1 0x20 DUP3 DUP5 SUB SLT ISZERO PUSH2 0x273F JUMPI PUSH2 0x273E PUSH2 0x25BB JUMP JUMPDEST JUMPDEST PUSH0 PUSH2 0x274C DUP5 DUP3 DUP6 ADD PUSH2 0x2716 JUMP JUMPDEST SWAP2 POP POP SWAP3 SWAP2 POP POP JUMP JUMPDEST PUSH2 0x275E DUP2 PUSH2 0x2530 JUMP JUMPDEST DUP2 EQ PUSH2 0x2768 JUMPI PUSH0 PUSH0 REVERT JUMPDEST POP JUMP JUMPDEST PUSH0 DUP2 MLOAD SWAP1 POP PUSH2 0x2779 DUP2 PUSH2 0x2755 JUMP JUMPDEST SWAP3 SWAP2 POP POP JUMP JUMPDEST PUSH0 PUSH1 0x20 DUP3 DUP5 SUB SLT ISZERO PUSH2 0x2794 JUMPI PUSH2 0x2793 PUSH2 0x25BB JUMP JUMPDEST JUMPDEST PUSH0 PUSH2 0x27A1 DUP5 DUP3 DUP6 ADD PUSH2 0x276B JUMP JUMPDEST SWAP2 POP POP SWAP3 SWAP2 POP POP JUMP JUMPDEST PUSH0 DUP3 DUP3 MSTORE PUSH1 0x20 DUP3 ADD SWAP1 POP SWAP3 SWAP2 POP POP JUMP JUMPDEST PUSH32 0x4F6E6C79206F776E657200000000000000000000000000000000000000000000 PUSH0 DUP3 ADD MSTORE POP JUMP JUMPDEST PUSH0 PUSH2 0x27EE PUSH1 0xA DUP4 PUSH2 0x27AA JUMP JUMPDEST SWAP2 POP PUSH2 0x27F9 DUP3 PUSH2 0x27BA JUMP JUMPDEST PUSH1 0x20 DUP3 ADD SWAP1 POP SWAP2 SWAP1 POP JUMP JUMPDEST PUSH0 PUSH1 0x20 DUP3 ADD SWAP1 POP DUP2 DUP2 SUB PUSH0 DUP4 ADD MSTORE PUSH2 0x281B DUP2 PUSH2 0x27E2 JUMP JUMPDEST SWAP1 POP SWAP2 SWAP1 POP JUMP JUMPDEST PUSH32 0x496E76616C6964206C6F74746572727900000000000000000000000000000000 PUSH0 DUP3 ADD MSTORE POP JUMP JUMPDEST PUSH0 PUSH2 0x2856 PUSH1 0x10 DUP4 PUSH2 0x27AA JUMP JUMPDEST SWAP2 POP PUSH2 0x2861 DUP3 PUSH2 0x2822 JUMP JUMPDEST PUSH1 0x20 DUP3 ADD SWAP1 POP SWAP2 SWAP1 POP JUMP JUMPDEST PUSH0 PUSH1 0x20 DUP3 ADD SWAP1 POP DUP2 DUP2 SUB PUSH0 DUP4 ADD MSTORE PUSH2 0x2883 DUP2 PUSH2 0x284A JUMP JUMPDEST SWAP1 POP SWAP2 SWAP1 POP JUMP JUMPDEST PUSH32 0x4E6F20636F6D6D69747465642072657665616C00000000000000000000000000 PUSH0 DUP3 ADD MSTORE POP JUMP JUMPDEST PUSH0 PUSH2 0x28BE PUSH1 0x13 DUP4 PUSH2 0x27AA JUMP JUMPDEST SWAP2 POP PUSH2 0x28C9 DUP3 PUSH2 0x288A JUMP JUMPDEST PUSH1 0x20 DUP3 ADD SWAP1 POP SWAP2 SWAP1 POP JUMP JUMPDEST PUSH0 PUSH1 0x20 DUP3 ADD SWAP1 POP DUP2 DUP2 SUB PUSH0 DUP4 ADD MSTORE PUSH2 0x28EB DUP2 PUSH2 0x28B2 JUMP JUMPDEST SWAP1 POP SWAP2 SWAP1 POP JUMP JUMPDEST PUSH32 0x4C6F74746572792072657665616C206661696C65640000000000000000000000 PUSH0 DUP3 ADD MSTORE POP JUMP JUMPDEST PUSH0 PUSH2 0x2926 PUSH1 0x15 DUP4 PUSH2 0x27AA JUMP JUMPDEST SWAP2 POP PUSH2 0x2931 DUP3 PUSH2 0x28F2 JUMP JUMPDEST PUSH1 0x20 DUP3 ADD SWAP1 POP SWAP2 SWAP1 POP JUMP JUMPDEST PUSH0 PUSH1 0x20 DUP3 ADD SWAP1 POP DUP2 DUP2 SUB PUSH0 DUP4 ADD MSTORE PUSH2 0x2953 DUP2 PUSH2 0x291A JUMP JUMPDEST SWAP1 POP SWAP2 SWAP1 POP JUMP JUMPDEST PUSH32 0x4E6F7420617574686F72697A656420746F2073657420616C6C6F77616E636500 PUSH0 DUP3 ADD MSTORE POP JUMP JUMPDEST PUSH0 PUSH2 0x298E PUSH1 0x1F DUP4 PUSH2 0x27AA JUMP JUMPDEST SWAP2 POP PUSH2 0x2999 DUP3 PUSH2 0x295A JUMP JUMPDEST PUSH1 0x20 DUP3 ADD SWAP1 POP SWAP2 SWAP1 POP JUMP JUMPDEST PUSH0 PUSH1 0x20 DUP3 ADD SWAP1 POP DUP2 DUP2 SUB PUSH0 DUP4 ADD MSTORE PUSH2 0x29BB DUP2 PUSH2 0x2982 JUMP JUMPDEST SWAP1 POP SWAP2 SWAP1 POP JUMP JUMPDEST PUSH32 0x4F6E6C792073706F757365206F72206F726967696E0000000000000000000000 PUSH0 DUP3 ADD MSTORE POP JUMP JUMPDEST PUSH0 PUSH2 0x29F6 PUSH1 0x15 DUP4 PUSH2 0x27AA JUMP JUMPDEST SWAP2 POP PUSH2 0x2A01 DUP3 PUSH2 0x29C2 JUMP JUMPDEST PUSH1 0x20 DUP3 ADD SWAP1 POP SWAP2 SWAP1 POP JUMP JUMPDEST PUSH0 PUSH1 0x20 DUP3 ADD SWAP1 POP DUP2 DUP2 SUB PUSH0 DUP4 ADD MSTORE PUSH2 0x2A23 DUP2 PUSH2 0x29EA JUMP JUMPDEST SWAP1 POP SWAP2 SWAP1 POP JUMP JUMPDEST PUSH32 0x4E487B7100000000000000000000000000000000000000000000000000000000 PUSH0 MSTORE PUSH1 0x11 PUSH1 0x4 MSTORE PUSH1 0x24 PUSH0 REVERT JUMPDEST PUSH0 PUSH2 0x2A61 DUP3 PUSH2 0x25E9 JUMP JUMPDEST SWAP2 POP PUSH2 0x2A6C DUP4 PUSH2 0x25E9 JUMP JUMPDEST SWAP3 POP DUP3 DUP3 ADD SWAP1 POP DUP1 DUP3 GT ISZERO PUSH2 0x2A84 JUMPI PUSH2 0x2A83 PUSH2 0x2A2A JUMP JUMPDEST JUMPDEST SWAP3 SWAP2 POP POP JUMP JUMPDEST PUSH0 PUSH2 0x2A94 DUP3 PUSH2 0x25E9 JUMP JUMPDEST SWAP2 POP PUSH32 0xFFFFFFFFFFFFFFFFFFFFFFFFFFFFFFFFFFFFFFFFFFFFFFFFFFFFFFFFFFFFFFFF DUP3 SUB PUSH2 0x2AC6 JUMPI PUSH2 0x2AC5 PUSH2 0x2A2A JUMP JUMPDEST JUMPDEST PUSH1 0x1 DUP3 ADD SWAP1 POP SWAP2 SWAP1 POP JUMP JUMPDEST PUSH32 0x4F6E6C7920706172746E65722063616E206E6F74696679000000000000000000 PUSH0 DUP3 ADD MSTORE POP JUMP JUMPDEST PUSH0 PUSH2 0x2B05 PUSH1 0x17 DUP4 PUSH2 0x27AA JUMP JUMPDEST SWAP2 POP PUSH2 0x2B10 DUP3 PUSH2 0x2AD1 JUMP JUMPDEST PUSH1 0x20 DUP3 ADD SWAP1 POP SWAP2 SWAP1 POP JUMP JUMPDEST PUSH0 PUSH1 0x20 DUP3 ADD SWAP1 POP DUP2 DUP2 SUB PUSH0 DUP4 ADD MSTORE PUSH2 0x2B32 DUP2 PUSH2 0x2AF9 JUMP JUMPDEST SWAP1 POP SWAP2 SWAP1 POP JUMP JUMPDEST PUSH0 PUSH2 0x2B43 DUP3 PUSH2 0x25E9 JUMP JUMPDEST SWAP2 POP PUSH2 0x2B4E DUP4 PUSH2 0x25E9 JUMP JUMPDEST SWAP3 POP DUP3 DUP3 SUB SWAP1 POP DUP2 DUP2 GT ISZERO PUSH2 0x2B66 JUMPI PUSH2 0x2B65 PUSH2 0x2A2A JUMP JUMPDEST JUMPDEST SWAP3 SWAP2 POP POP JUMP JUMPDEST PUSH0 PUSH2 0x2B76 DUP3 PUSH2 0x25E9 JUMP JUMPDEST SWAP2 POP PUSH2 0x2B81 DUP4 PUSH2 0x25E9 JUMP JUMPDEST SWAP3 POP DUP3 DUP3 MUL PUSH2 0x2B8F DUP2 PUSH2 0x25E9 JUMP JUMPDEST SWAP2 POP DUP3 DUP3 DIV DUP5 EQ DUP4 ISZERO OR PUSH2 0x2BA6 JUMPI PUSH2 0x2BA5 PUSH2 0x2A2A JUMP JUMPDEST JUMPDEST POP SWAP3 SWAP2 POP POP JUMP JUMPDEST PUSH32 0x4E487B7100000000000000000000000000000000000000000000000000000000 PUSH0 MSTORE PUSH1 0x12 PUSH1 0x4 MSTORE PUSH1 0x24 PUSH0 REVERT JUMPDEST PUSH0 PUSH2 0x2BE4 DUP3 PUSH2 0x25E9 JUMP JUMPDEST SWAP2 POP PUSH2 0x2BEF DUP4 PUSH2 0x25E9 JUMP JUMPDEST SWAP3 POP DUP3 PUSH2 0x2BFF JUMPI PUSH2 0x2BFE PUSH2 0x2BAD JUMP JUMPDEST JUMPDEST DUP3 DUP3 DIV SWAP1 POP SWAP3 SWAP2 POP POP JUMP JUMPDEST PUSH32 0x496E76616C6964206C6F74746572790000000000000000000000000000000000 PUSH0 DUP3 ADD MSTORE POP JUMP JUMPDEST PUSH0 PUSH2 0x2C3E PUSH1 0xF DUP4 PUSH2 0x27AA JUMP JUMPDEST SWAP2 POP PUSH2 0x2C49 DUP3 PUSH2 0x2C0A JUMP JUMPDEST PUSH1 0x20 DUP3 ADD SWAP1 POP SWAP2 SWAP1 POP JUMP JUMPDEST PUSH0 PUSH1 0x20 DUP3 ADD SWAP1 POP DUP2 DUP2 SUB PUSH0 DUP4 ADD MSTORE PUSH2 0x2C6B DUP2 PUSH2 0x2C32 JUMP JUMPDEST SWAP1 POP SWAP2 SWAP1 POP JUMP JUMPDEST PUSH0 DUP2 SWAP1 POP SWAP2 SWAP1 POP JUMP JUMPDEST PUSH2 0x2C84 DUP2 PUSH2 0x2C72 JUMP JUMPDEST DUP3 MSTORE POP POP JUMP JUMPDEST PUSH0 PUSH1 0x20 DUP3 ADD SWAP1 POP PUSH2 0x2C9D PUSH0 DUP4 ADD DUP5 PUSH2 0x2C7B JUMP JUMPDEST SWAP3 SWAP2 POP POP JUMP JUMPDEST PUSH32 0x4C6F747465727920636F6D6D6974206661696C65640000000000000000000000 PUSH0 DUP3 ADD MSTORE POP JUMP JUMPDEST PUSH0 PUSH2 0x2CD7 PUSH1 0x15 DUP4 PUSH2 0x27AA JUMP JUMPDEST SWAP2 POP PUSH2 0x2CE2 DUP3 PUSH2 0x2CA3 JUMP JUMPDEST PUSH1 0x20 DUP3 ADD SWAP1 POP SWAP2 SWAP1 POP JUMP JUMPDEST PUSH0 PUSH1 0x20 DUP3 ADD SWAP1 POP DUP2 DUP2 SUB PUSH0 DUP4 ADD MSTORE PUSH2 0x2D04 DUP2 PUSH2 0x2CCB JUMP JUMPDEST SWAP1 POP SWAP2 SWAP1 POP JUMP JUMPDEST PUSH32 0x4E6F2073706F7573650000000000000000000000000000000000000000000000 PUSH0 DUP3 ADD MSTORE POP JUMP JUMPDEST PUSH0 PUSH2 0x2D3F PUSH1 0x9 DUP4 PUSH2 0x27AA JUMP JUMPDEST SWAP2 POP PUSH2 0x2D4A DUP3 PUSH2 0x2D0B JUMP JUMPDEST PUSH1 0x20 DUP3 ADD SWAP1 POP SWAP2 SWAP1 POP JUMP JUMPDEST PUSH0 PUSH1 0x20 DUP3 ADD SWAP1 POP DUP2 DUP2 SUB PUSH0 DUP4 ADD MSTORE PUSH2 0x2D6C DUP2 PUSH2 0x2D33 JUMP JUMPDEST SWAP1 POP SWAP2 SWAP1 POP JUMP JUMPDEST PUSH32 0x5A65726F206368616E6765000000000000000000000000000000000000000000 PUSH0 DUP3 ADD MSTORE POP JUMP JUMPDEST PUSH0 PUSH2 0x2DA7 PUSH1 0xB DUP4 PUSH2 0x27AA JUMP JUMPDEST SWAP2 POP PUSH2 0x2DB2 DUP3 PUSH2 0x2D73 JUMP JUMPDEST PUSH1 0x20 DUP3 ADD SWAP1 POP SWAP2 SWAP1 POP JUMP JUMPDEST PUSH0 PUSH1 0x20 DUP3 ADD SWAP1 POP DUP2 DUP2 SUB PUSH0 DUP4 ADD MSTORE PUSH2 0x2DD4 DUP2 PUSH2 0x2D9B JUMP JUMPDEST SWAP1 POP SWAP2 SWAP1 POP JUMP JUMPDEST PUSH32 0x4E6F7420656E6F75676820616C6C6F77616E6365000000000000000000000000 PUSH0 DUP3 ADD MSTORE POP JUMP JUMPDEST PUSH0 PUSH2 0x2E0F PUSH1 0x14 DUP4 PUSH2 0x27AA JUMP JUMPDEST SWAP2 POP PUSH2 0x2E1A DUP3 PUSH2 0x2DDB JUMP JUMPDEST PUSH1 0x20 DUP3 ADD SWAP1 POP SWAP2 SWAP1 POP JUMP JUMPDEST PUSH0 PUSH1 0x20 DUP3 ADD SWAP1 POP DUP2 DUP2 SUB PUSH0 DUP4 ADD MSTORE PUSH2 0x2E3C DUP2 PUSH2 0x2E03 JUMP JUMPDEST SWAP1 POP SWAP2 SWAP1 POP JUMP JUMPDEST PUSH0 PUSH1 0x40 DUP3 ADD SWAP1 POP PUSH2 0x2E56 PUSH0 DUP4 ADD DUP6 PUSH2 0x26EE JUMP JUMPDEST PUSH2 0x2E63 PUSH1 0x20 DUP4 ADD DUP5 PUSH2 0x2593 JUMP JUMPDEST SWAP4 SWAP3 POP POP POP JUMP JUMPDEST PUSH32 0x4661696C656420746F207472616E736665722073706F75736500000000000000 PUSH0 DUP3 ADD MSTORE POP JUMP JUMPDEST PUSH0 PUSH2 0x2E9E PUSH1 0x19 DUP4 PUSH2 0x27AA JUMP JUMPDEST SWAP2 POP PUSH2 0x2EA9 DUP3 PUSH2 0x2E6A JUMP JUMPDEST PUSH1 0x20 DUP3 ADD SWAP1 POP SWAP2 SWAP1 POP JUMP JUMPDEST PUSH0 PUSH1 0x20 DUP3 ADD SWAP1 POP DUP2 DUP2 SUB PUSH0 DUP4 ADD MSTORE PUSH2 0x2ECB DUP2 PUSH2 0x2E92 JUMP JUMPDEST SWAP1 POP SWAP2 SWAP1 POP JUMP JUMPDEST PUSH2 0x2EDB DUP2 PUSH2 0x2C72 JUMP JUMPDEST DUP2 EQ PUSH2 0x2EE5 JUMPI PUSH0 PUSH0 REVERT JUMPDEST POP JUMP JUMPDEST PUSH0 DUP2 MLOAD SWAP1 POP PUSH2 0x2EF6 DUP2 PUSH2 0x2ED2 JUMP JUMPDEST SWAP3 SWAP2 POP POP JUMP JUMPDEST PUSH0 PUSH1 0x20 DUP3 DUP5 SUB SLT ISZERO PUSH2 0x2F11 JUMPI PUSH2 0x2F10 PUSH2 0x25BB JUMP JUMPDEST JUMPDEST PUSH0 PUSH2 0x2F1E DUP5 DUP3 DUP6 ADD PUSH2 0x2EE8 JUMP JUMPDEST SWAP2 POP POP SWAP3 SWAP2 POP POP JUMP JUMPDEST PUSH32 0x4920616D20616C7265616479206D617272696564000000000000000000000000 PUSH0 DUP3 ADD MSTORE POP JUMP JUMPDEST PUSH0 PUSH2 0x2F5B PUSH1 0x14 DUP4 PUSH2 0x27AA JUMP JUMPDEST SWAP2 POP PUSH2 0x2F66 DUP3 PUSH2 0x2F27 JUMP JUMPDEST PUSH1 0x20 DUP3 ADD SWAP1 POP SWAP2 SWAP1 POP JUMP JUMPDEST PUSH0 PUSH1 0x20 DUP3 ADD SWAP1 POP DUP2 DUP2 SUB PUSH0 DUP4 ADD MSTORE PUSH2 0x2F88 DUP2 PUSH2 0x2F4F JUMP JUMPDEST SWAP1 POP SWAP2 SWAP1 POP JUMP JUMPDEST PUSH32 0x53706F7573652063616E6E6F74206265207A65726F2061646472657373000000 PUSH0 DUP3 ADD MSTORE POP JUMP JUMPDEST PUSH0 PUSH2 0x2FC3 PUSH1 0x1D DUP4 PUSH2 0x27AA JUMP JUMPDEST SWAP2 POP PUSH2 0x2FCE DUP3 PUSH2 0x2F8F JUMP JUMPDEST PUSH1 0x20 DUP3 ADD SWAP1 POP SWAP2 SWAP1 POP JUMP JUMPDEST PUSH0 PUSH1 0x20 DUP3 ADD SWAP1 POP DUP2 DUP2 SUB PUSH0 DUP4 ADD MSTORE PUSH2 0x2FF0 DUP2 PUSH2 0x2FB7 JUMP JUMPDEST SWAP1 POP SWAP2 SWAP1 POP JUMP JUMPDEST PUSH32 0x43616E6E6F74206D61727279206D7973656C6600000000000000000000000000 PUSH0 DUP3 ADD MSTORE POP JUMP JUMPDEST PUSH0 PUSH2 0x302B PUSH1 0x13 DUP4 PUSH2 0x27AA JUMP JUMPDEST SWAP2 POP PUSH2 0x3036 DUP3 PUSH2 0x2FF7 JUMP JUMPDEST PUSH1 0x20 DUP3 ADD SWAP1 POP SWAP2 SWAP1 POP JUMP JUMPDEST PUSH0 PUSH1 0x20 DUP3 ADD SWAP1 POP DUP2 DUP2 SUB PUSH0 DUP4 ADD MSTORE PUSH2 0x3058 DUP2 PUSH2 0x301F JUMP JUMPDEST SWAP1 POP SWAP2 SWAP1 POP JUMP JUMPDEST PUSH32 0x53706F757365206D757374206265206120636F6E747261637400000000000000 PUSH0 DUP3 ADD MSTORE POP JUMP JUMPDEST PUSH0 PUSH2 0x3093 PUSH1 0x19 DUP4 PUSH2 0x27AA JUMP JUMPDEST SWAP2 POP PUSH2 0x309E DUP3 PUSH2 0x305F JUMP JUMPDEST PUSH1 0x20 DUP3 ADD SWAP1 POP SWAP2 SWAP1 POP JUMP JUMPDEST PUSH0 PUSH1 0x20 DUP3 ADD SWAP1 POP DUP2 DUP2 SUB PUSH0 DUP4 ADD MSTORE PUSH2 0x30C0 DUP2 PUSH2 0x3087 JUMP JUMPDEST SWAP1 POP SWAP2 SWAP1 POP JUMP JUMPDEST PUSH32 0x53706F757365206E6F7420636F6D70617469626C650000000000000000000000 PUSH0 DUP3 ADD MSTORE POP JUMP JUMPDEST PUSH0 PUSH2 0x30FB PUSH1 0x15 DUP4 PUSH2 0x27AA JUMP JUMPDEST SWAP2 POP PUSH2 0x3106 DUP3 PUSH2 0x30C7 JUMP JUMPDEST PUSH1 0x20 DUP3 ADD SWAP1 POP SWAP2 SWAP1 POP JUMP JUMPDEST PUSH0 PUSH1 0x20 DUP3 ADD SWAP1 POP DUP2 DUP2 SUB PUSH0 DUP4 ADD MSTORE PUSH2 0x3128 DUP2 PUSH2 0x30EF JUMP JUMPDEST SWAP1 POP SWAP2 SWAP1 POP JUMP JUMPDEST PUSH32 0x53706F75736520616C7265616479206D61727269656400000000000000000000 PUSH0 DUP3 ADD MSTORE POP JUMP JUMPDEST PUSH0 PUSH2 0x3163 PUSH1 0x16 DUP4 PUSH2 0x27AA JUMP JUMPDEST SWAP2 POP PUSH2 0x316E DUP3 PUSH2 0x312F JUMP JUMPDEST PUSH1 0x20 DUP3 ADD SWAP1 POP SWAP2 SWAP1 POP JUMP JUMPDEST PUSH0 PUSH1 0x20 DUP3 ADD SWAP1 POP DUP2 DUP2 SUB PUSH0 DUP4 ADD MSTORE PUSH2 0x3190 DUP2 PUSH2 0x3157 JUMP JUMPDEST SWAP1 POP SWAP2 SWAP1 POP JUMP JUMPDEST PUSH32 0x4661696C656420746F2075706461746520706172746E65720000000000000000 PUSH0 DUP3 ADD MSTORE POP JUMP JUMPDEST PUSH0 PUSH2 0x31CB PUSH1 0x18 DUP4 PUSH2 0x27AA JUMP JUMPDEST SWAP2 POP PUSH2 0x31D6 DUP3 PUSH2 0x3197 JUMP JUMPDEST PUSH1 0x20 DUP3 ADD SWAP1 POP SWAP2 SWAP1 POP JUMP JUMPDEST PUSH0 PUSH1 0x20 DUP3 ADD SWAP1 POP DUP2 DUP2 SUB PUSH0 DUP4 ADD MSTORE PUSH2 0x31F8 DUP2 PUSH2 0x31BF JUMP JUMPDEST SWAP1 POP SWAP2 SWAP1 POP JUMP JUMPDEST PUSH0 DUP2 MLOAD SWAP1 POP PUSH2 0x320D DUP2 PUSH2 0x25F2 JUMP JUMPDEST SWAP3 SWAP2 POP POP JUMP JUMPDEST PUSH0 PUSH1 0x20 DUP3 DUP5 SUB SLT ISZERO PUSH2 0x3228 JUMPI PUSH2 0x3227 PUSH2 0x25BB JUMP JUMPDEST JUMPDEST PUSH0 PUSH2 0x3235 DUP5 DUP3 DUP6 ADD PUSH2 0x31FF JUMP JUMPDEST SWAP2 POP POP SWAP3 SWAP2 POP POP JUMP JUMPDEST PUSH32 0x4661696C656420746F2073657420706172746E657220616C6C6F77616E636500 PUSH0 DUP3 ADD MSTORE POP JUMP JUMPDEST PUSH0 PUSH2 0x3272 PUSH1 0x1F DUP4 PUSH2 0x27AA JUMP JUMPDEST SWAP2 POP PUSH2 0x327D DUP3 PUSH2 0x323E JUMP JUMPDEST PUSH1 0x20 DUP3 ADD SWAP1 POP SWAP2 SWAP1 POP JUMP JUMPDEST PUSH0 PUSH1 0x20 DUP3 ADD SWAP1 POP DUP2 DUP2 SUB PUSH0 DUP4 ADD MSTORE PUSH2 0x329F DUP2 PUSH2 0x3266 JUMP JUMPDEST SWAP1 POP SWAP2 SWAP1 POP JUMP JUMPDEST PUSH32 0x4F6E6C7920706172746E65722063616E2063616C6C2074686973000000000000 PUSH0 DUP3 ADD MSTORE POP JUMP JUMPDEST PUSH0 PUSH2 0x32DA PUSH1 0x1A DUP4 PUSH2 0x27AA JUMP JUMPDEST SWAP2 POP PUSH2 0x32E5 DUP3 PUSH2 0x32A6 JUMP JUMPDEST PUSH1 0x20 DUP3 ADD SWAP1 POP SWAP2 SWAP1 POP JUMP JUMPDEST PUSH0 PUSH1 0x20 DUP3 ADD SWAP1 POP DUP2 DUP2 SUB PUSH0 DUP4 ADD MSTORE PUSH2 0x3307 DUP2 PUSH2 0x32CE JUMP JUMPDEST SWAP1 POP SWAP2 SWAP1 POP JUMP JUMPDEST PUSH32 0x4F6E6C792073706F7573652063616E2073657400000000000000000000000000 PUSH0 DUP3 ADD MSTORE POP JUMP JUMPDEST PUSH0 PUSH2 0x3342 PUSH1 0x13 DUP4 PUSH2 0x27AA JUMP JUMPDEST SWAP2 POP PUSH2 0x334D DUP3 PUSH2 0x330E JUMP JUMPDEST PUSH1 0x20 DUP3 ADD SWAP1 POP SWAP2 SWAP1 POP JUMP JUMPDEST PUSH0 PUSH1 0x20 DUP3 ADD SWAP1 POP DUP2 DUP2 SUB PUSH0 DUP4 ADD MSTORE PUSH2 0x336F DUP2 PUSH2 0x3336 JUMP JUMPDEST SWAP1 POP SWAP2 SWAP1 POP JUMP JUMPDEST PUSH32 0x4E6F74206D617272696564000000000000000000000000000000000000000000 PUSH0 DUP3 ADD MSTORE POP JUMP JUMPDEST PUSH0 PUSH2 0x33AA PUSH1 0xB DUP4 PUSH2 0x27AA JUMP JUMPDEST SWAP2 POP PUSH2 0x33B5 DUP3 PUSH2 0x3376 JUMP JUMPDEST PUSH1 0x20 DUP3 ADD SWAP1 POP SWAP2 SWAP1 POP JUMP JUMPDEST PUSH0 PUSH1 0x20 DUP3 ADD SWAP1 POP DUP2 DUP2 SUB PUSH0 DUP4 ADD MSTORE PUSH2 0x33D7 DUP2 PUSH2 0x339E JUMP JUMPDEST SWAP1 POP SWAP2 SWAP1 POP JUMP JUMPDEST PUSH32 0x4661696C656420746F206E6F7469667920706172746E65720000000000000000 PUSH0 DUP3 ADD MSTORE POP JUMP JUMPDEST PUSH0 PUSH2 0x3412 PUSH1 0x18 DUP4 PUSH2 0x27AA JUMP JUMPDEST SWAP2 POP PUSH2 0x341D DUP3 PUSH2 0x33DE JUMP JUMPDEST PUSH1 0x20 DUP3 ADD SWAP1 POP SWAP2 SWAP1 POP JUMP JUMPDEST PUSH0 PUSH1 0x20 DUP3 ADD SWAP1 POP DUP2 DUP2 SUB PUSH0 DUP4 ADD MSTORE PUSH2 0x343F DUP2 PUSH2 0x3406 JUMP JUMPDEST SWAP1 POP SWAP2 SWAP1 POP JUMP INVALID LOG2 PUSH5 0x6970667358 0x22 SLT KECCAK256 SWAP2 PUSH20 0x31D322B910EF0D6033E69456B66FDC9B7091C146 MUL RETURNDATACOPY 0xC4 SWAP1 CREATE EXTSTATICCALL JUMPDEST DIV 0xB2 PREVRANDAO PUSH5 0x736F6C6343 STOP ADDMOD 0x1E STOP CALLER "
				},
				"gasEstimates": {
					"creation": {
						"codeDepositCost": "2687200",
						"executionCost": "infinite",
						"totalCost": "infinite"
					},
					"external": {
						"calculateTax(uint256)": "infinite",
						"divorce()": "infinite",
						"echidna_age_allowance_base_consistency_single()": "9084",
						"echidna_commit_consistency(address)": "infinite",
						"echidna_iscontract_is_true()": "2610",
						"echidna_marriage_consistency()": "infinite",
						"echidna_mutual_marriage_and_flags()": "infinite",
						"echidna_no_tax_below_allowance()": "infinite",
						"echidna_not_self_spouse()": "2632",
						"echidna_rev_reset_after_reveal()": "4723",
						"echidna_spousal_allowance_sum_constant()": "infinite",
						"echidna_taxable_non_negative()": "infinite",
						"getAge()": "2476",
						"getDefaultAllowance()": "2566",
						"getInitialTaxAllowance()": "infinite",
						"getIsMarried()": "2563",
						"getSpouse()": "2635",
						"getTaxAllowance()": "2477",
						"haveBirthday()": "infinite",
						"isContract()": "2653",
						"joinLottery(address,uint256)": "infinite",
						"marry(address)": "infinite",
						"notifyDivorceFromPartner(address)": "73391",
						"owner()": "infinite",
						"receiveAllowance(uint256,address)": "infinite",
						"revealLottery(address,uint256)": "infinite",
						"setIncome(uint256)": "infinite",
						"setSpouse(address)": "24811",
						"setTaxAllowance(uint256)": "infinite",
						"setTaxAllowanceBySpouse(uint256)": "24779",
						"taxableIncome()": "infinite",
						"transferAllowance(uint256)": "infinite",
						"updateMarriageFromPartner(address)": "49184"
					},
					"internal": {
						"determineDefaultAllowance()": "2155",
						"isAuthorizedContract(address)": "infinite"
					}
				},
				"methodIdentifiers": {
					"calculateTax(uint256)": "483a9310",
					"divorce()": "dff44b2f",
					"echidna_age_allowance_base_consistency_single()": "ae81f068",
					"echidna_commit_consistency(address)": "790aa8de",
					"echidna_iscontract_is_true()": "5976d63b",
					"echidna_marriage_consistency()": "27a80e0d",
					"echidna_mutual_marriage_and_flags()": "10731c65",
					"echidna_no_tax_below_allowance()": "a2f1309e",
					"echidna_not_self_spouse()": "dfb986a2",
					"echidna_rev_reset_after_reveal()": "ccda832a",
					"echidna_spousal_allowance_sum_constant()": "d852545e",
					"echidna_taxable_non_negative()": "c800409f",
					"getAge()": "967e6e65",
					"getDefaultAllowance()": "594db753",
					"getInitialTaxAllowance()": "6aa393f8",
					"getIsMarried()": "8bc87745",
					"getSpouse()": "108ece4d",
					"getTaxAllowance()": "c043decc",
					"haveBirthday()": "37f65b79",
					"isContract()": "f7ec2f35",
					"joinLottery(address,uint256)": "4ad8a7ae",
					"marry(address)": "bccb358e",
					"notifyDivorceFromPartner(address)": "38fb27ba",
					"owner()": "8da5cb5b",
					"receiveAllowance(uint256,address)": "308f838a",
					"revealLottery(address,uint256)": "13461762",
					"setIncome(uint256)": "14b95631",
					"setSpouse(address)": "4f0b03f9",
					"setTaxAllowance(uint256)": "25803d64",
					"setTaxAllowanceBySpouse(uint256)": "d25d32b6",
					"taxableIncome()": "3c876c25",
					"transferAllowance(uint256)": "5f68c439",
					"updateMarriageFromPartner(address)": "cb01a92b"
				}
			},
			"storageLayout": {
				"storage": [
					{
						"astId": 255,
						"contract": "Taxpayer.sol:Taxpayer",
						"label": "age",
						"offset": 0,
						"slot": "0",
						"type": "t_uint256"
					},
					{
						"astId": 257,
						"contract": "Taxpayer.sol:Taxpayer",
						"label": "isMarried",
						"offset": 0,
						"slot": "1",
						"type": "t_bool"
					},
					{
						"astId": 259,
						"contract": "Taxpayer.sol:Taxpayer",
						"label": "iscontract",
						"offset": 1,
						"slot": "1",
						"type": "t_bool"
					},
					{
						"astId": 261,
						"contract": "Taxpayer.sol:Taxpayer",
						"label": "spouse",
						"offset": 2,
						"slot": "1",
						"type": "t_address"
					},
					{
						"astId": 263,
						"contract": "Taxpayer.sol:Taxpayer",
						"label": "parent1",
						"offset": 0,
						"slot": "2",
						"type": "t_address"
					},
					{
						"astId": 265,
						"contract": "Taxpayer.sol:Taxpayer",
						"label": "parent2",
						"offset": 0,
						"slot": "3",
						"type": "t_address"
					},
					{
						"astId": 277,
						"contract": "Taxpayer.sol:Taxpayer",
						"label": "tax_allowance",
						"offset": 0,
						"slot": "4",
						"type": "t_uint256"
					},
					{
						"astId": 279,
						"contract": "Taxpayer.sol:Taxpayer",
						"label": "income",
						"offset": 0,
						"slot": "5",
						"type": "t_uint256"
					},
					{
						"astId": 281,
						"contract": "Taxpayer.sol:Taxpayer",
						"label": "rev",
						"offset": 0,
						"slot": "6",
						"type": "t_uint256"
					},
					{
						"astId": 283,
						"contract": "Taxpayer.sol:Taxpayer",
						"label": "committed",
						"offset": 0,
						"slot": "7",
						"type": "t_bool"
					}
				],
				"types": {
					"t_address": {
						"encoding": "inplace",
						"label": "address",
						"numberOfBytes": "20"
					},
					"t_bool": {
						"encoding": "inplace",
						"label": "bool",
						"numberOfBytes": "1"
					},
					"t_uint256": {
						"encoding": "inplace",
						"label": "uint256",
						"numberOfBytes": "32"
					}
				}
			},
			"userdoc": {
				"kind": "user",
				"methods": {},
				"version": 1
			}
		}
	}
}