{
	"Taxpayer.sol": {
		"Taxpayer": {
			"abi": [
				{
					"inputs": [
						{
							"internalType": "address",
							"name": "p1",
							"type": "address"
						},
						{
							"internalType": "address",
							"name": "p2",
							"type": "address"
						}
					],
					"stateMutability": "nonpayable",
					"type": "constructor"
				},
				{
					"anonymous": false,
					"inputs": [
						{
							"indexed": true,
							"internalType": "address",
							"name": "a",
							"type": "address"
						},
						{
							"indexed": true,
							"internalType": "address",
							"name": "b",
							"type": "address"
						}
					],
					"name": "Married",
					"type": "event"
				},
				{
					"inputs": [
						{
							"internalType": "uint256",
							"name": "value",
							"type": "uint256"
						}
					],
					"name": "calculateTax",
					"outputs": [
						{
							"internalType": "uint256",
							"name": "",
							"type": "uint256"
						}
					],
					"stateMutability": "view",
					"type": "function"
				},
				{
					"inputs": [],
					"name": "committed",
					"outputs": [
						{
							"internalType": "bool",
							"name": "",
							"type": "bool"
						}
					],
					"stateMutability": "view",
					"type": "function"
				},
				{
					"inputs": [],
					"name": "divorce",
					"outputs": [],
					"stateMutability": "nonpayable",
					"type": "function"
				},
				{
					"inputs": [],
					"name": "echidna_age_allowance_base_consistency_single",
					"outputs": [
						{
							"internalType": "bool",
							"name": "",
							"type": "bool"
						}
					],
					"stateMutability": "view",
					"type": "function"
				},
				{
					"inputs": [
						{
							"internalType": "address",
							"name": "lot",
							"type": "address"
						}
					],
					"name": "echidna_commit_consistency",
					"outputs": [
						{
							"internalType": "bool",
							"name": "",
							"type": "bool"
						}
					],
					"stateMutability": "view",
					"type": "function"
				},
				{
					"inputs": [],
					"name": "echidna_iscontract_is_true",
					"outputs": [
						{
							"internalType": "bool",
							"name": "",
							"type": "bool"
						}
					],
					"stateMutability": "view",
					"type": "function"
				},
				{
					"inputs": [],
					"name": "echidna_marriage_consistency",
					"outputs": [
						{
							"internalType": "bool",
							"name": "",
							"type": "bool"
						}
					],
					"stateMutability": "view",
					"type": "function"
				},
				{
					"inputs": [],
					"name": "echidna_mutual_marriage_and_flags",
					"outputs": [
						{
							"internalType": "bool",
							"name": "",
							"type": "bool"
						}
					],
					"stateMutability": "view",
					"type": "function"
				},
				{
					"inputs": [],
					"name": "echidna_no_tax_below_allowance",
					"outputs": [
						{
							"internalType": "bool",
							"name": "",
							"type": "bool"
						}
					],
					"stateMutability": "view",
					"type": "function"
				},
				{
					"inputs": [],
					"name": "echidna_not_self_spouse",
					"outputs": [
						{
							"internalType": "bool",
							"name": "",
							"type": "bool"
						}
					],
					"stateMutability": "view",
					"type": "function"
				},
				{
					"inputs": [],
					"name": "echidna_rev_reset_after_reveal",
					"outputs": [
						{
							"internalType": "bool",
							"name": "",
							"type": "bool"
						}
					],
					"stateMutability": "view",
					"type": "function"
				},
				{
					"inputs": [],
					"name": "echidna_spousal_allowance_sum_constant",
					"outputs": [
						{
							"internalType": "bool",
							"name": "",
							"type": "bool"
						}
					],
					"stateMutability": "view",
					"type": "function"
				},
				{
					"inputs": [],
					"name": "echidna_taxable_non_negative",
					"outputs": [
						{
							"internalType": "bool",
							"name": "",
							"type": "bool"
						}
					],
					"stateMutability": "view",
					"type": "function"
				},
				{
					"inputs": [],
					"name": "getAge",
					"outputs": [
						{
							"internalType": "uint256",
							"name": "",
							"type": "uint256"
						}
					],
					"stateMutability": "view",
					"type": "function"
				},
				{
					"inputs": [],
					"name": "getDefaultAllowance",
					"outputs": [
						{
							"internalType": "uint256",
							"name": "",
							"type": "uint256"
						}
					],
					"stateMutability": "view",
					"type": "function"
				},
				{
					"inputs": [],
					"name": "getIncome",
					"outputs": [
						{
							"internalType": "uint256",
							"name": "",
							"type": "uint256"
						}
					],
					"stateMutability": "view",
					"type": "function"
				},
				{
					"inputs": [],
					"name": "getInitialTaxAllowance",
					"outputs": [
						{
							"internalType": "uint256",
							"name": "",
							"type": "uint256"
						}
					],
					"stateMutability": "view",
					"type": "function"
				},
				{
					"inputs": [],
					"name": "getIsMarried",
					"outputs": [
						{
							"internalType": "bool",
							"name": "",
							"type": "bool"
						}
					],
					"stateMutability": "view",
					"type": "function"
				},
				{
					"inputs": [],
					"name": "getSpouse",
					"outputs": [
						{
							"internalType": "address",
							"name": "",
							"type": "address"
						}
					],
					"stateMutability": "view",
					"type": "function"
				},
				{
					"inputs": [],
					"name": "getTaxAllowance",
					"outputs": [
						{
							"internalType": "uint256",
							"name": "",
							"type": "uint256"
						}
					],
					"stateMutability": "view",
					"type": "function"
				},
				{
					"inputs": [],
					"name": "haveBirthday",
					"outputs": [],
					"stateMutability": "nonpayable",
					"type": "function"
				},
				{
					"inputs": [],
					"name": "isContract",
					"outputs": [
						{
							"internalType": "bool",
							"name": "",
							"type": "bool"
						}
					],
					"stateMutability": "view",
					"type": "function"
				},
				{
					"inputs": [
						{
							"internalType": "address",
							"name": "lot",
							"type": "address"
						},
						{
							"internalType": "uint256",
							"name": "r",
							"type": "uint256"
						}
					],
					"name": "joinLottery",
					"outputs": [],
					"stateMutability": "nonpayable",
					"type": "function"
				},
				{
					"inputs": [
						{
							"internalType": "address",
							"name": "new_spouse",
							"type": "address"
						}
					],
					"name": "marry",
					"outputs": [],
					"stateMutability": "nonpayable",
					"type": "function"
				},
				{
					"inputs": [
						{
							"internalType": "address",
							"name": "p",
							"type": "address"
						}
					],
					"name": "notifyDivorceFromPartner",
					"outputs": [],
					"stateMutability": "nonpayable",
					"type": "function"
				},
				{
					"inputs": [],
					"name": "owner",
					"outputs": [
						{
							"internalType": "address",
							"name": "",
							"type": "address"
						}
					],
					"stateMutability": "view",
					"type": "function"
				},
				{
					"inputs": [
						{
							"internalType": "uint256",
							"name": "amount",
							"type": "uint256"
						},
						{
							"internalType": "address",
							"name": "from",
							"type": "address"
						}
					],
					"name": "receiveAllowance",
					"outputs": [],
					"stateMutability": "nonpayable",
					"type": "function"
				},
				{
					"inputs": [],
					"name": "rev",
					"outputs": [
						{
							"internalType": "uint256",
							"name": "",
							"type": "uint256"
						}
					],
					"stateMutability": "view",
					"type": "function"
				},
				{
					"inputs": [
						{
							"internalType": "address",
							"name": "lot",
							"type": "address"
						},
						{
							"internalType": "uint256",
							"name": "r",
							"type": "uint256"
						}
					],
					"name": "revealLottery",
					"outputs": [],
					"stateMutability": "nonpayable",
					"type": "function"
				},
				{
					"inputs": [
						{
							"internalType": "uint256",
							"name": "i",
							"type": "uint256"
						}
					],
					"name": "setIncome",
					"outputs": [],
					"stateMutability": "nonpayable",
					"type": "function"
				},
				{
					"inputs": [
						{
							"internalType": "address",
							"name": "a",
							"type": "address"
						}
					],
					"name": "setSpouse",
					"outputs": [],
					"stateMutability": "nonpayable",
					"type": "function"
				},
				{
					"inputs": [
						{
							"internalType": "uint256",
							"name": "ta",
							"type": "uint256"
						}
					],
					"name": "setTaxAllowance",
					"outputs": [],
					"stateMutability": "view",
					"type": "function"
				},
				{
					"inputs": [
						{
							"internalType": "uint256",
							"name": "ta",
							"type": "uint256"
						}
					],
					"name": "setTaxAllowanceBySpouse",
					"outputs": [],
					"stateMutability": "nonpayable",
					"type": "function"
				},
				{
					"inputs": [],
					"name": "taxableIncome",
					"outputs": [
						{
							"internalType": "uint256",
							"name": "",
							"type": "uint256"
						}
					],
					"stateMutability": "view",
					"type": "function"
				},
				{
					"inputs": [
						{
							"internalType": "uint256",
							"name": "change",
							"type": "uint256"
						}
					],
					"name": "transferAllowance",
					"outputs": [],
					"stateMutability": "nonpayable",
					"type": "function"
				},
				{
					"inputs": [
						{
							"internalType": "address",
							"name": "partner",
							"type": "address"
						}
					],
					"name": "updateMarriageFromPartner",
					"outputs": [],
					"stateMutability": "nonpayable",
					"type": "function"
				}
			],
			"devdoc": {
				"kind": "dev",
				"methods": {},
				"version": 1
			},
			"evm": {
				"assembly": "    /* \"Taxpayer.sol\":49:12906  contract Taxpayer {... */\n  mstore(0x40, 0xc0)\n    /* \"Taxpayer.sol\":1455:1842  constructor(address p1, address p2) {... */\n  callvalue\n  dup1\n  iszero\n  tag_1\n  jumpi\n  revert(0x00, 0x00)\ntag_1:\n  pop\n  mload(0x40)\n  sub(codesize, bytecodeSize)\n  dup1\n  bytecodeSize\n  dup4\n  codecopy\n  dup2\n  dup2\n  add\n  0x40\n  mstore\n  dup2\n  add\n  swap1\n  tag_2\n  swap2\n  swap1\n  tag_3\n  jump\t// in\ntag_2:\n    /* \"Taxpayer.sol\":1502:1503  0 */\n  0x00\n    /* \"Taxpayer.sol\":1496:1499  age */\n  0x00\n    /* \"Taxpayer.sol\":1496:1503  age = 0 */\n  dup2\n  swap1\n  sstore\n  pop\n    /* \"Taxpayer.sol\":1520:1525  false */\n  0x00\n    /* \"Taxpayer.sol\":1508:1517  isMarried */\n  0x01\n  0x00\n    /* \"Taxpayer.sol\":1508:1525  isMarried = false */\n  0x0100\n  exp\n  dup2\n  sload\n  dup2\n  0xff\n  mul\n  not\n  and\n  swap1\n  dup4\n  iszero\n  iszero\n  mul\n  or\n  swap1\n  sstore\n  pop\n    /* \"Taxpayer.sol\":1540:1542  p1 */\n  dup2\n    /* \"Taxpayer.sol\":1530:1537  parent1 */\n  0x02\n  0x00\n    /* \"Taxpayer.sol\":1530:1542  parent1 = p1 */\n  0x0100\n  exp\n  dup2\n  sload\n  dup2\n  0xffffffffffffffffffffffffffffffffffffffff\n  mul\n  not\n  and\n  swap1\n  dup4\n  0xffffffffffffffffffffffffffffffffffffffff\n  and\n  mul\n  or\n  swap1\n  sstore\n  pop\n    /* \"Taxpayer.sol\":1557:1559  p2 */\n  dup1\n    /* \"Taxpayer.sol\":1547:1554  parent2 */\n  0x03\n  0x00\n    /* \"Taxpayer.sol\":1547:1559  parent2 = p2 */\n  0x0100\n  exp\n  dup2\n  sload\n  dup2\n  0xffffffffffffffffffffffffffffffffffffffff\n  mul\n  not\n  and\n  swap1\n  dup4\n  0xffffffffffffffffffffffffffffffffffffffff\n  and\n  mul\n  or\n  swap1\n  sstore\n  pop\n    /* \"Taxpayer.sol\":1572:1582  msg.sender */\n  caller\n    /* \"Taxpayer.sol\":1564:1582  owner = msg.sender */\n  0xffffffffffffffffffffffffffffffffffffffff\n  and\n  0x80\n  dup2\n  0xffffffffffffffffffffffffffffffffffffffff\n  and\n  dup2\n  mstore\n  pop\n  pop\n    /* \"Taxpayer.sol\":398:402  5000 */\n  0x1388\n    /* \"Taxpayer.sol\":1612:1653  INITIAL_TAX_ALLOWANCE = DEFAULT_ALLOWANCE */\n  0xa0\n  dup2\n  dup2\n  mstore\n  pop\n  pop\n    /* \"Taxpayer.sol\":1712:1713  0 */\n  0x00\n    /* \"Taxpayer.sol\":1695:1701  spouse */\n  0x01\n  0x02\n    /* \"Taxpayer.sol\":1695:1714  spouse = address(0) */\n  0x0100\n  exp\n  dup2\n  sload\n  dup2\n  0xffffffffffffffffffffffffffffffffffffffff\n  mul\n  not\n  and\n  swap1\n  dup4\n  0xffffffffffffffffffffffffffffffffffffffff\n  and\n  mul\n  or\n  swap1\n  sstore\n  pop\n    /* \"Taxpayer.sol\":1728:1729  0 */\n  0x00\n    /* \"Taxpayer.sol\":1719:1725  income */\n  0x05\n    /* \"Taxpayer.sol\":1719:1729  income = 0 */\n  dup2\n  swap1\n  sstore\n  pop\n    /* \"Taxpayer.sol\":1750:1771  INITIAL_TAX_ALLOWANCE */\n  mload(0xa0)\n    /* \"Taxpayer.sol\":1734:1747  tax_allowance */\n  0x04\n    /* \"Taxpayer.sol\":1734:1771  tax_allowance = INITIAL_TAX_ALLOWANCE */\n  dup2\n  swap1\n  sstore\n  pop\n    /* \"Taxpayer.sol\":1789:1793  true */\n  0x01\n    /* \"Taxpayer.sol\":1776:1786  iscontract */\n  dup1\n  0x01\n    /* \"Taxpayer.sol\":1776:1793  iscontract = true */\n  0x0100\n  exp\n  dup2\n  sload\n  dup2\n  0xff\n  mul\n  not\n  and\n  swap1\n  dup4\n  iszero\n  iszero\n  mul\n  or\n  swap1\n  sstore\n  pop\n    /* \"Taxpayer.sol\":1455:1842  constructor(address p1, address p2) {... */\n  pop\n  pop\n    /* \"Taxpayer.sol\":49:12906  contract Taxpayer {... */\n  jump(tag_6)\n    /* \"#utility.yul\":88:205   */\ntag_8:\n    /* \"#utility.yul\":197:198   */\n  0x00\n    /* \"#utility.yul\":194:195   */\n  0x00\n    /* \"#utility.yul\":187:199   */\n  revert\n    /* \"#utility.yul\":334:460   */\ntag_10:\n    /* \"#utility.yul\":371:378   */\n  0x00\n    /* \"#utility.yul\":411:453   */\n  0xffffffffffffffffffffffffffffffffffffffff\n    /* \"#utility.yul\":404:409   */\n  dup3\n    /* \"#utility.yul\":400:454   */\n  and\n    /* \"#utility.yul\":389:454   */\n  swap1\n  pop\n    /* \"#utility.yul\":334:460   */\n  swap2\n  swap1\n  pop\n  jump\t// out\n    /* \"#utility.yul\":466:562   */\ntag_11:\n    /* \"#utility.yul\":503:510   */\n  0x00\n    /* \"#utility.yul\":532:556   */\n  tag_20\n    /* \"#utility.yul\":550:555   */\n  dup3\n    /* \"#utility.yul\":532:556   */\n  tag_10\n  jump\t// in\ntag_20:\n    /* \"#utility.yul\":521:556   */\n  swap1\n  pop\n    /* \"#utility.yul\":466:562   */\n  swap2\n  swap1\n  pop\n  jump\t// out\n    /* \"#utility.yul\":568:690   */\ntag_12:\n    /* \"#utility.yul\":641:665   */\n  tag_22\n    /* \"#utility.yul\":659:664   */\n  dup2\n    /* \"#utility.yul\":641:665   */\n  tag_11\n  jump\t// in\ntag_22:\n    /* \"#utility.yul\":634:639   */\n  dup2\n    /* \"#utility.yul\":631:666   */\n  eq\n    /* \"#utility.yul\":621:684   */\n  tag_23\n  jumpi\n    /* \"#utility.yul\":680:681   */\n  0x00\n    /* \"#utility.yul\":677:678   */\n  0x00\n    /* \"#utility.yul\":670:682   */\n  revert\n    /* \"#utility.yul\":621:684   */\ntag_23:\n    /* \"#utility.yul\":568:690   */\n  pop\n  jump\t// out\n    /* \"#utility.yul\":696:839   */\ntag_13:\n    /* \"#utility.yul\":753:758   */\n  0x00\n    /* \"#utility.yul\":784:790   */\n  dup2\n    /* \"#utility.yul\":778:791   */\n  mload\n    /* \"#utility.yul\":769:791   */\n  swap1\n  pop\n    /* \"#utility.yul\":800:833   */\n  tag_25\n    /* \"#utility.yul\":827:832   */\n  dup2\n    /* \"#utility.yul\":800:833   */\n  tag_12\n  jump\t// in\ntag_25:\n    /* \"#utility.yul\":696:839   */\n  swap3\n  swap2\n  pop\n  pop\n  jump\t// out\n    /* \"#utility.yul\":845:1352   */\ntag_3:\n    /* \"#utility.yul\":924:930   */\n  0x00\n    /* \"#utility.yul\":932:938   */\n  0x00\n    /* \"#utility.yul\":981:983   */\n  0x40\n    /* \"#utility.yul\":969:978   */\n  dup4\n    /* \"#utility.yul\":960:967   */\n  dup6\n    /* \"#utility.yul\":956:979   */\n  sub\n    /* \"#utility.yul\":952:984   */\n  slt\n    /* \"#utility.yul\":949:1068   */\n  iszero\n  tag_27\n  jumpi\n    /* \"#utility.yul\":987:1066   */\n  tag_28\n  tag_8\n  jump\t// in\ntag_28:\n    /* \"#utility.yul\":949:1068   */\ntag_27:\n    /* \"#utility.yul\":1107:1108   */\n  0x00\n    /* \"#utility.yul\":1132:1196   */\n  tag_29\n    /* \"#utility.yul\":1188:1195   */\n  dup6\n    /* \"#utility.yul\":1179:1185   */\n  dup3\n    /* \"#utility.yul\":1168:1177   */\n  dup7\n    /* \"#utility.yul\":1164:1186   */\n  add\n    /* \"#utility.yul\":1132:1196   */\n  tag_13\n  jump\t// in\ntag_29:\n    /* \"#utility.yul\":1122:1196   */\n  swap3\n  pop\n    /* \"#utility.yul\":1078:1206   */\n  pop\n    /* \"#utility.yul\":1245:1247   */\n  0x20\n    /* \"#utility.yul\":1271:1335   */\n  tag_30\n    /* \"#utility.yul\":1327:1334   */\n  dup6\n    /* \"#utility.yul\":1318:1324   */\n  dup3\n    /* \"#utility.yul\":1307:1316   */\n  dup7\n    /* \"#utility.yul\":1303:1325   */\n  add\n    /* \"#utility.yul\":1271:1335   */\n  tag_13\n  jump\t// in\ntag_30:\n    /* \"#utility.yul\":1261:1335   */\n  swap2\n  pop\n    /* \"#utility.yul\":1216:1345   */\n  pop\n    /* \"#utility.yul\":845:1352   */\n  swap3\n  pop\n  swap3\n  swap1\n  pop\n  jump\t// out\n    /* \"Taxpayer.sol\":49:12906  contract Taxpayer {... */\ntag_6:\n  mload(0x80)\n  mload(0xa0)\n  codecopy(0x00, dataOffset(sub_0), dataSize(sub_0))\n  0x00\n  assignImmutable(\"0xe54f8e4a5d17b2e4d97cb94ddb2a2b00b3620f93c06158e24f4515b3f1ad0dd8\")\n  0x00\n  assignImmutable(\"0x7d94b1fd5befe75fac04677148728067a5c7750c4535d59cf8d692301dae078c\")\n  return(0x00, dataSize(sub_0))\nstop\n\nsub_0: assembly {\n        /* \"Taxpayer.sol\":49:12906  contract Taxpayer {... */\n      mstore(0x40, 0x80)\n      callvalue\n      dup1\n      iszero\n      tag_1\n      jumpi\n      revert(0x00, 0x00)\n    tag_1:\n      pop\n      jumpi(tag_2, lt(calldatasize, 0x04))\n      shr(0xe0, calldataload(0x00))\n      dup1\n      0x8bc87745\n      gt\n      tag_39\n      jumpi\n      dup1\n      0xc800409f\n      gt\n      tag_40\n      jumpi\n      dup1\n      0xd852545e\n      gt\n      tag_41\n      jumpi\n      dup1\n      0xd852545e\n      eq\n      tag_34\n      jumpi\n      dup1\n      0xdfb986a2\n      eq\n      tag_35\n      jumpi\n      dup1\n      0xdff44b2f\n      eq\n      tag_36\n      jumpi\n      dup1\n      0xf247e3de\n      eq\n      tag_37\n      jumpi\n      dup1\n      0xf7ec2f35\n      eq\n      tag_38\n      jumpi\n      jump(tag_2)\n    tag_41:\n      dup1\n      0xc800409f\n      eq\n      tag_30\n      jumpi\n      dup1\n      0xcb01a92b\n      eq\n      tag_31\n      jumpi\n      dup1\n      0xccda832a\n      eq\n      tag_32\n      jumpi\n      dup1\n      0xd25d32b6\n      eq\n      tag_33\n      jumpi\n      jump(tag_2)\n    tag_40:\n      dup1\n      0xa2f1309e\n      gt\n      tag_42\n      jumpi\n      dup1\n      0xa2f1309e\n      eq\n      tag_25\n      jumpi\n      dup1\n      0xae81f068\n      eq\n      tag_26\n      jumpi\n      dup1\n      0xaeee48c0\n      eq\n      tag_27\n      jumpi\n      dup1\n      0xbccb358e\n      eq\n      tag_28\n      jumpi\n      dup1\n      0xc043decc\n      eq\n      tag_29\n      jumpi\n      jump(tag_2)\n    tag_42:\n      dup1\n      0x8bc87745\n      eq\n      tag_21\n      jumpi\n      dup1\n      0x8da5cb5b\n      eq\n      tag_22\n      jumpi\n      dup1\n      0x967e6e65\n      eq\n      tag_23\n      jumpi\n      dup1\n      0x9b6b9664\n      eq\n      tag_24\n      jumpi\n      jump(tag_2)\n    tag_39:\n      dup1\n      0x3c876c25\n      gt\n      tag_43\n      jumpi\n      dup1\n      0x594db753\n      gt\n      tag_44\n      jumpi\n      dup1\n      0x594db753\n      eq\n      tag_16\n      jumpi\n      dup1\n      0x5976d63b\n      eq\n      tag_17\n      jumpi\n      dup1\n      0x5f68c439\n      eq\n      tag_18\n      jumpi\n      dup1\n      0x6aa393f8\n      eq\n      tag_19\n      jumpi\n      dup1\n      0x790aa8de\n      eq\n      tag_20\n      jumpi\n      jump(tag_2)\n    tag_44:\n      dup1\n      0x3c876c25\n      eq\n      tag_12\n      jumpi\n      dup1\n      0x483a9310\n      eq\n      tag_13\n      jumpi\n      dup1\n      0x4ad8a7ae\n      eq\n      tag_14\n      jumpi\n      dup1\n      0x4f0b03f9\n      eq\n      tag_15\n      jumpi\n      jump(tag_2)\n    tag_43:\n      dup1\n      0x25803d64\n      gt\n      tag_45\n      jumpi\n      dup1\n      0x25803d64\n      eq\n      tag_7\n      jumpi\n      dup1\n      0x27a80e0d\n      eq\n      tag_8\n      jumpi\n      dup1\n      0x308f838a\n      eq\n      tag_9\n      jumpi\n      dup1\n      0x37f65b79\n      eq\n      tag_10\n      jumpi\n      dup1\n      0x38fb27ba\n      eq\n      tag_11\n      jumpi\n      jump(tag_2)\n    tag_45:\n      dup1\n      0x10731c65\n      eq\n      tag_3\n      jumpi\n      dup1\n      0x108ece4d\n      eq\n      tag_4\n      jumpi\n      dup1\n      0x13461762\n      eq\n      tag_5\n      jumpi\n      dup1\n      0x14b95631\n      eq\n      tag_6\n      jumpi\n    tag_2:\n      revert(0x00, 0x00)\n        /* \"Taxpayer.sol\":5467:6249  function echidna_mutual_marriage_and_flags() public view returns(bool) {... */\n    tag_3:\n      tag_46\n      tag_47\n      jump\t// in\n    tag_46:\n      mload(0x40)\n      tag_48\n      swap2\n      swap1\n      tag_49\n      jump\t// in\n    tag_48:\n      mload(0x40)\n      dup1\n      swap2\n      sub\n      swap1\n      return\n        /* \"Taxpayer.sol\":864:936  function getSpouse() public view returns(address) {... */\n    tag_4:\n      tag_50\n      tag_51\n      jump\t// in\n    tag_50:\n      mload(0x40)\n      tag_52\n      swap2\n      swap1\n      tag_53\n      jump\t// in\n    tag_52:\n      mload(0x40)\n      dup1\n      swap2\n      sub\n      swap1\n      return\n        /* \"Taxpayer.sol\":12198:12519  function revealLottery(address lot, uint256 r) public onlyOwner {... */\n    tag_5:\n      tag_54\n      0x04\n      dup1\n      calldatasize\n      sub\n      dup2\n      add\n      swap1\n      tag_55\n      swap2\n      swap1\n      tag_56\n      jump\t// in\n    tag_55:\n      tag_57\n      jump\t// in\n    tag_54:\n      stop\n        /* \"Taxpayer.sol\":1366:1427  function setIncome(uint i) public onlyOwner {... */\n    tag_6:\n      tag_58\n      0x04\n      dup1\n      calldatasize\n      sub\n      dup2\n      add\n      swap1\n      tag_59\n      swap2\n      swap1\n      tag_60\n      jump\t// in\n    tag_59:\n      tag_61\n      jump\t// in\n    tag_58:\n      stop\n        /* \"Taxpayer.sol\":10953:11133  function setTaxAllowance(uint ta) public view {... */\n    tag_7:\n      tag_62\n      0x04\n      dup1\n      calldatasize\n      sub\n      dup2\n      add\n      swap1\n      tag_63\n      swap2\n      swap1\n      tag_60\n      jump\t// in\n    tag_63:\n      tag_64\n      jump\t// in\n    tag_62:\n      stop\n        /* \"Taxpayer.sol\":5142:5356  function echidna_marriage_consistency() public view returns(bool) {... */\n    tag_8:\n      tag_65\n      tag_66\n      jump\t// in\n    tag_65:\n      mload(0x40)\n      tag_67\n      swap2\n      swap1\n      tag_49\n      jump\t// in\n    tag_67:\n      mload(0x40)\n      dup1\n      swap2\n      sub\n      swap1\n      return\n        /* \"Taxpayer.sol\":10093:10623  function receiveAllowance(uint amount, address from) public {... */\n    tag_9:\n      tag_68\n      0x04\n      dup1\n      calldatasize\n      sub\n      dup2\n      add\n      swap1\n      tag_69\n      swap2\n      swap1\n      tag_70\n      jump\t// in\n    tag_69:\n      tag_71\n      jump\t// in\n    tag_68:\n      stop\n        /* \"Taxpayer.sol\":10685:10948  function haveBirthday() public onlyOwner {... */\n    tag_10:\n      tag_72\n      tag_73\n      jump\t// in\n    tag_72:\n      stop\n        /* \"Taxpayer.sol\":4628:4860  function notifyDivorceFromPartner(address p) public {... */\n    tag_11:\n      tag_74\n      0x04\n      dup1\n      calldatasize\n      sub\n      dup2\n      add\n      swap1\n      tag_75\n      swap2\n      swap1\n      tag_76\n      jump\t// in\n    tag_75:\n      tag_77\n      jump\t// in\n    tag_74:\n      stop\n        /* \"Taxpayer.sol\":12596:12744  function taxableIncome() public view returns(uint) {... */\n    tag_12:\n      tag_78\n      tag_79\n      jump\t// in\n    tag_78:\n      mload(0x40)\n      tag_80\n      swap2\n      swap1\n      tag_81\n      jump\t// in\n    tag_80:\n      mload(0x40)\n      dup1\n      swap2\n      sub\n      swap1\n      return\n        /* \"Taxpayer.sol\":12773:12900  function calculateTax(uint value) public view returns (uint) {... */\n    tag_13:\n      tag_82\n      0x04\n      dup1\n      calldatasize\n      sub\n      dup2\n      add\n      swap1\n      tag_83\n      swap2\n      swap1\n      tag_60\n      jump\t// in\n    tag_83:\n      tag_84\n      jump\t// in\n    tag_82:\n      mload(0x40)\n      tag_85\n      swap2\n      swap1\n      tag_81\n      jump\t// in\n    tag_85:\n      mload(0x40)\n      dup1\n      swap2\n      sub\n      swap1\n      return\n        /* \"Taxpayer.sol\":11800:12192  function joinLottery(address lot, uint256 r) public onlyOwner {... */\n    tag_14:\n      tag_86\n      0x04\n      dup1\n      calldatasize\n      sub\n      dup2\n      add\n      swap1\n      tag_87\n      swap2\n      swap1\n      tag_56\n      jump\t// in\n    tag_87:\n      tag_88\n      jump\t// in\n    tag_86:\n      stop\n        /* \"Taxpayer.sol\":1310:1364  function setSpouse(address a) public {... */\n    tag_15:\n      tag_89\n      0x04\n      dup1\n      calldatasize\n      sub\n      dup2\n      add\n      swap1\n      tag_90\n      swap2\n      swap1\n      tag_76\n      jump\t// in\n    tag_90:\n      tag_91\n      jump\t// in\n    tag_89:\n      stop\n        /* \"Taxpayer.sol\":1136:1235  function getDefaultAllowance() public view returns (uint) {... */\n    tag_16:\n      tag_92\n      tag_93\n      jump\t// in\n    tag_92:\n      mload(0x40)\n      tag_94\n      swap2\n      swap1\n      tag_81\n      jump\t// in\n    tag_94:\n      mload(0x40)\n      dup1\n      swap2\n      sub\n      swap1\n      return\n        /* \"Taxpayer.sol\":6898:6991  function echidna_iscontract_is_true() public view returns (bool) {... */\n    tag_17:\n      tag_95\n      tag_96\n      jump\t// in\n    tag_95:\n      mload(0x40)\n      tag_97\n      swap2\n      swap1\n      tag_49\n      jump\t// in\n    tag_97:\n      mload(0x40)\n      dup1\n      swap2\n      sub\n      swap1\n      return\n        /* \"Taxpayer.sol\":9630:10089  function transferAllowance(uint change) public onlyOwner {... */\n    tag_18:\n      tag_98\n      0x04\n      dup1\n      calldatasize\n      sub\n      dup2\n      add\n      swap1\n      tag_99\n      swap2\n      swap1\n      tag_60\n      jump\t// in\n    tag_99:\n      tag_100\n      jump\t// in\n    tag_98:\n      stop\n        /* \"Taxpayer.sol\":1008:1134  function getInitialTaxAllowance() public view returns (uint) {... */\n    tag_19:\n      tag_101\n      tag_102\n      jump\t// in\n    tag_101:\n      mload(0x40)\n      tag_103\n      swap2\n      swap1\n      tag_81\n      jump\t// in\n    tag_103:\n      mload(0x40)\n      dup1\n      swap2\n      sub\n      swap1\n      return\n        /* \"Taxpayer.sol\":8704:9232  function echidna_commit_consistency(address lot) public view returns (bool) {... */\n    tag_20:\n      tag_104\n      0x04\n      dup1\n      calldatasize\n      sub\n      dup2\n      add\n      swap1\n      tag_105\n      swap2\n      swap1\n      tag_76\n      jump\t// in\n    tag_105:\n      tag_106\n      jump\t// in\n    tag_104:\n      mload(0x40)\n      tag_107\n      swap2\n      swap1\n      tag_49\n      jump\t// in\n    tag_107:\n      mload(0x40)\n      dup1\n      swap2\n      sub\n      swap1\n      return\n        /* \"Taxpayer.sol\":787:862  function getIsMarried() public view returns(bool) {... */\n    tag_21:\n      tag_108\n      tag_109\n      jump\t// in\n    tag_108:\n      mload(0x40)\n      tag_110\n      swap2\n      swap1\n      tag_49\n      jump\t// in\n    tag_110:\n      mload(0x40)\n      dup1\n      swap2\n      sub\n      swap1\n      return\n        /* \"Taxpayer.sol\":249:280  address public  immutable owner */\n    tag_22:\n      tag_111\n      tag_112\n      jump\t// in\n    tag_111:\n      mload(0x40)\n      tag_113\n      swap2\n      swap1\n      tag_53\n      jump\t// in\n    tag_113:\n      mload(0x40)\n      dup1\n      swap2\n      sub\n      swap1\n      return\n        /* \"Taxpayer.sol\":1237:1299  function getAge() public view returns (uint) {... */\n    tag_23:\n      tag_114\n      tag_115\n      jump\t// in\n    tag_114:\n      mload(0x40)\n      tag_116\n      swap2\n      swap1\n      tag_81\n      jump\t// in\n    tag_116:\n      mload(0x40)\n      dup1\n      swap2\n      sub\n      swap1\n      return\n        /* \"Taxpayer.sol\":700:721  bool public committed */\n    tag_24:\n      tag_117\n      tag_118\n      jump\t// in\n    tag_117:\n      mload(0x40)\n      tag_119\n      swap2\n      swap1\n      tag_49\n      jump\t// in\n    tag_119:\n      mload(0x40)\n      dup1\n      swap2\n      sub\n      swap1\n      return\n        /* \"Taxpayer.sol\":6600:6795  function echidna_no_tax_below_allowance() public view returns (bool) {... */\n    tag_25:\n      tag_120\n      tag_121\n      jump\t// in\n    tag_120:\n      mload(0x40)\n      tag_122\n      swap2\n      swap1\n      tag_49\n      jump\t// in\n    tag_122:\n      mload(0x40)\n      dup1\n      swap2\n      sub\n      swap1\n      return\n        /* \"Taxpayer.sol\":7075:7322  function echidna_age_allowance_base_consistency_single() public view returns (bool) {... */\n    tag_26:\n      tag_123\n      tag_124\n      jump\t// in\n    tag_123:\n      mload(0x40)\n      tag_125\n      swap2\n      swap1\n      tag_49\n      jump\t// in\n    tag_125:\n      mload(0x40)\n      dup1\n      swap2\n      sub\n      swap1\n      return\n        /* \"Taxpayer.sol\":680:698  uint256 public rev */\n    tag_27:\n      tag_126\n      tag_127\n      jump\t// in\n    tag_126:\n      mload(0x40)\n      tag_128\n      swap2\n      swap1\n      tag_81\n      jump\t// in\n    tag_128:\n      mload(0x40)\n      dup1\n      swap2\n      sub\n      swap1\n      return\n        /* \"Taxpayer.sol\":2188:3808  function marry(address new_spouse) public onlyOwner {... */\n    tag_28:\n      tag_129\n      0x04\n      dup1\n      calldatasize\n      sub\n      dup2\n      add\n      swap1\n      tag_130\n      swap2\n      swap1\n      tag_76\n      jump\t// in\n    tag_130:\n      tag_131\n      jump\t// in\n    tag_129:\n      stop\n        /* \"Taxpayer.sol\":11630:11714  function getTaxAllowance() public view returns(uint) {... */\n    tag_29:\n      tag_132\n      tag_133\n      jump\t// in\n    tag_132:\n      mload(0x40)\n      tag_134\n      swap2\n      swap1\n      tag_81\n      jump\t// in\n    tag_134:\n      mload(0x40)\n      dup1\n      swap2\n      sub\n      swap1\n      return\n        /* \"Taxpayer.sol\":6464:6596  function echidna_taxable_non_negative() public view returns (bool) {... */\n    tag_30:\n      tag_135\n      tag_136\n      jump\t// in\n    tag_135:\n      mload(0x40)\n      tag_137\n      swap2\n      swap1\n      tag_49\n      jump\t// in\n    tag_137:\n      mload(0x40)\n      dup1\n      swap2\n      sub\n      swap1\n      return\n        /* \"Taxpayer.sol\":3861:4037  function updateMarriageFromPartner(address partner) public {... */\n    tag_31:\n      tag_138\n      0x04\n      dup1\n      calldatasize\n      sub\n      dup2\n      add\n      swap1\n      tag_139\n      swap2\n      swap1\n      tag_76\n      jump\t// in\n    tag_139:\n      tag_140\n      jump\t// in\n    tag_138:\n      stop\n        /* \"Taxpayer.sol\":9307:9573  function echidna_rev_reset_after_reveal() public view returns(bool) {... */\n    tag_32:\n      tag_141\n      tag_142\n      jump\t// in\n    tag_141:\n      mload(0x40)\n      tag_143\n      swap2\n      swap1\n      tag_49\n      jump\t// in\n    tag_143:\n      mload(0x40)\n      dup1\n      swap2\n      sub\n      swap1\n      return\n        /* \"Taxpayer.sol\":4930:5060  function setTaxAllowanceBySpouse(uint ta) public {... */\n    tag_33:\n      tag_144\n      0x04\n      dup1\n      calldatasize\n      sub\n      dup2\n      add\n      swap1\n      tag_145\n      swap2\n      swap1\n      tag_60\n      jump\t// in\n    tag_145:\n      tag_146\n      jump\t// in\n    tag_144:\n      stop\n        /* \"Taxpayer.sol\":7396:8647  function echidna_spousal_allowance_sum_constant() public view returns (bool) {... */\n    tag_34:\n      tag_147\n      tag_148\n      jump\t// in\n    tag_147:\n      mload(0x40)\n      tag_149\n      swap2\n      swap1\n      tag_49\n      jump\t// in\n    tag_149:\n      mload(0x40)\n      dup1\n      swap2\n      sub\n      swap1\n      return\n        /* \"Taxpayer.sol\":6301:6404  function echidna_not_self_spouse() public view returns (bool) {... */\n    tag_35:\n      tag_150\n      tag_151\n      jump\t// in\n    tag_150:\n      mload(0x40)\n      tag_152\n      swap2\n      swap1\n      tag_49\n      jump\t// in\n    tag_152:\n      mload(0x40)\n      dup1\n      swap2\n      sub\n      swap1\n      return\n        /* \"Taxpayer.sol\":4042:4625  function divorce() public onlyOwner {... */\n    tag_36:\n      tag_153\n      tag_154\n      jump\t// in\n    tag_153:\n      stop\n        /* \"Taxpayer.sol\":938:1006  function getIncome() public view returns (uint) {... */\n    tag_37:\n      tag_155\n      tag_156\n      jump\t// in\n    tag_155:\n      mload(0x40)\n      tag_157\n      swap2\n      swap1\n      tag_81\n      jump\t// in\n    tag_157:\n      mload(0x40)\n      dup1\n      swap2\n      sub\n      swap1\n      return\n        /* \"Taxpayer.sol\":11719:11794  function isContract() public view returns(bool){... */\n    tag_38:\n      tag_158\n      tag_159\n      jump\t// in\n    tag_158:\n      mload(0x40)\n      tag_160\n      swap2\n      swap1\n      tag_49\n      jump\t// in\n    tag_160:\n      mload(0x40)\n      dup1\n      swap2\n      sub\n      swap1\n      return\n        /* \"Taxpayer.sol\":5467:6249  function echidna_mutual_marriage_and_flags() public view returns(bool) {... */\n    tag_47:\n        /* \"Taxpayer.sol\":5532:5536  bool */\n      0x00\n        /* \"Taxpayer.sol\":5565:5566  0 */\n      0x00\n        /* \"Taxpayer.sol\":5547:5567  spouse == address(0) */\n      0xffffffffffffffffffffffffffffffffffffffff\n      and\n        /* \"Taxpayer.sol\":5547:5553  spouse */\n      0x01\n      0x02\n      swap1\n      sload\n      swap1\n      0x0100\n      exp\n      swap1\n      div\n      0xffffffffffffffffffffffffffffffffffffffff\n      and\n        /* \"Taxpayer.sol\":5547:5567  spouse == address(0) */\n      0xffffffffffffffffffffffffffffffffffffffff\n      and\n      sub\n        /* \"Taxpayer.sol\":5544:5674  if(spouse == address(0)) {... */\n      tag_162\n      jumpi\n        /* \"Taxpayer.sol\":5658:5667  isMarried */\n      0x01\n      0x00\n      swap1\n      sload\n      swap1\n      0x0100\n      exp\n      swap1\n      div\n      0xff\n      and\n        /* \"Taxpayer.sol\":5657:5667  !isMarried */\n      iszero\n        /* \"Taxpayer.sol\":5650:5667  return !isMarried */\n      swap1\n      pop\n      jump(tag_161)\n        /* \"Taxpayer.sol\":5544:5674  if(spouse == address(0)) {... */\n    tag_162:\n        /* \"Taxpayer.sol\":5717:5726  isMarried */\n      0x01\n      0x00\n      swap1\n      sload\n      swap1\n      0x0100\n      exp\n      swap1\n      div\n      0xff\n      and\n        /* \"Taxpayer.sol\":5713:5755  if(!isMarried) {... */\n      tag_163\n      jumpi\n        /* \"Taxpayer.sol\":5743:5748  false */\n      0x00\n        /* \"Taxpayer.sol\":5736:5748  return false */\n      swap1\n      pop\n      jump(tag_161)\n        /* \"Taxpayer.sol\":5713:5755  if(!isMarried) {... */\n    tag_163:\n        /* \"Taxpayer.sol\":5834:5850  Taxpayer partner */\n      0x00\n        /* \"Taxpayer.sol\":5862:5868  spouse */\n      0x01\n      0x02\n      swap1\n      sload\n      swap1\n      0x0100\n      exp\n      swap1\n      div\n      0xffffffffffffffffffffffffffffffffffffffff\n      and\n        /* \"Taxpayer.sol\":5834:5869  Taxpayer partner = Taxpayer(spouse) */\n      swap1\n      pop\n        /* \"Taxpayer.sol\":5945:5952  partner */\n      dup1\n        /* \"Taxpayer.sol\":5945:5962  partner.getSpouse */\n      0xffffffffffffffffffffffffffffffffffffffff\n      and\n      0x108ece4d\n        /* \"Taxpayer.sol\":5945:5964  partner.getSpouse() */\n      mload(0x40)\n      dup2\n      0xffffffff\n      and\n      0xe0\n      shl\n      dup2\n      mstore\n      0x04\n      add\n      0x20\n      mload(0x40)\n      dup1\n      dup4\n      sub\n      dup2\n      dup7\n      gas\n      staticcall\n      swap3\n      pop\n      pop\n      pop\n      dup1\n      iszero\n      tag_164\n      jumpi\n      pop\n      mload(0x40)\n      returndatasize\n      not(0x1f)\n      0x1f\n      dup3\n      add\n      and\n      dup3\n      add\n      dup1\n      0x40\n      mstore\n      pop\n      dup2\n      add\n      swap1\n      tag_165\n      swap2\n      swap1\n      tag_166\n      jump\t// in\n    tag_165:\n      0x01\n    tag_164:\n        /* \"Taxpayer.sol\":5941:6089  try partner.getSpouse() returns (address ps) {... */\n      tag_167\n      jumpi\n        /* \"Taxpayer.sol\":6077:6082  false */\n      0x00\n        /* \"Taxpayer.sol\":6070:6082  return false */\n      swap2\n      pop\n      pop\n      jump(tag_161)\n        /* \"Taxpayer.sol\":5941:6089  try partner.getSpouse() returns (address ps) {... */\n    tag_167:\n        /* \"Taxpayer.sol\":6011:6015  this */\n      address\n        /* \"Taxpayer.sol\":5997:6016  ps != address(this) */\n      0xffffffffffffffffffffffffffffffffffffffff\n      and\n        /* \"Taxpayer.sol\":5997:5999  ps */\n      dup2\n        /* \"Taxpayer.sol\":5997:6016  ps != address(this) */\n      0xffffffffffffffffffffffffffffffffffffffff\n      and\n      eq\n        /* \"Taxpayer.sol\":5994:6049  if(ps != address(this)) {... */\n      tag_172\n      jumpi\n        /* \"Taxpayer.sol\":6035:6040  false */\n      0x00\n        /* \"Taxpayer.sol\":6028:6040  return false */\n      swap3\n      pop\n      pop\n      pop\n      jump(tag_161)\n        /* \"Taxpayer.sol\":5994:6049  if(ps != address(this)) {... */\n    tag_172:\n        /* \"Taxpayer.sol\":5965:6055  returns (address ps) {... */\n      pop\n        /* \"Taxpayer.sol\":6099:6106  partner */\n      dup1\n        /* \"Taxpayer.sol\":6099:6119  partner.getIsMarried */\n      0xffffffffffffffffffffffffffffffffffffffff\n      and\n      0x8bc87745\n        /* \"Taxpayer.sol\":6099:6121  partner.getIsMarried() */\n      mload(0x40)\n      dup2\n      0xffffffff\n      and\n      0xe0\n      shl\n      dup2\n      mstore\n      0x04\n      add\n      0x20\n      mload(0x40)\n      dup1\n      dup4\n      sub\n      dup2\n      dup7\n      gas\n      staticcall\n      swap3\n      pop\n      pop\n      pop\n      dup1\n      iszero\n      tag_173\n      jumpi\n      pop\n      mload(0x40)\n      returndatasize\n      not(0x1f)\n      0x1f\n      dup3\n      add\n      and\n      dup3\n      add\n      dup1\n      0x40\n      mstore\n      pop\n      dup2\n      add\n      swap1\n      tag_174\n      swap2\n      swap1\n      tag_175\n      jump\t// in\n    tag_174:\n      0x01\n    tag_173:\n        /* \"Taxpayer.sol\":6095:6227  try partner.getIsMarried() returns (bool pm) {... */\n      tag_176\n      jumpi\n        /* \"Taxpayer.sol\":6215:6220  false */\n      0x00\n        /* \"Taxpayer.sol\":6208:6220  return false */\n      swap2\n      pop\n      pop\n      jump(tag_161)\n        /* \"Taxpayer.sol\":6095:6227  try partner.getIsMarried() returns (bool pm) {... */\n    tag_176:\n        /* \"Taxpayer.sol\":6152:6154  pm */\n      dup1\n        /* \"Taxpayer.sol\":6148:6187  if(!pm) {... */\n      tag_181\n      jumpi\n        /* \"Taxpayer.sol\":6173:6178  false */\n      0x00\n        /* \"Taxpayer.sol\":6166:6178  return false */\n      swap3\n      pop\n      pop\n      pop\n      jump(tag_161)\n        /* \"Taxpayer.sol\":6148:6187  if(!pm) {... */\n    tag_181:\n        /* \"Taxpayer.sol\":6122:6193  returns (bool pm) {... */\n      pop\n        /* \"Taxpayer.sol\":6240:6244  true */\n      0x01\n        /* \"Taxpayer.sol\":6233:6244  return true */\n      swap2\n      pop\n      pop\n        /* \"Taxpayer.sol\":5467:6249  function echidna_mutual_marriage_and_flags() public view returns(bool) {... */\n    tag_161:\n      swap1\n      jump\t// out\n        /* \"Taxpayer.sol\":864:936  function getSpouse() public view returns(address) {... */\n    tag_51:\n        /* \"Taxpayer.sol\":905:912  address */\n      0x00\n        /* \"Taxpayer.sol\":927:933  spouse */\n      0x01\n      0x02\n      swap1\n      sload\n      swap1\n      0x0100\n      exp\n      swap1\n      div\n      0xffffffffffffffffffffffffffffffffffffffff\n      and\n        /* \"Taxpayer.sol\":920:933  return spouse */\n      swap1\n      pop\n        /* \"Taxpayer.sol\":864:936  function getSpouse() public view returns(address) {... */\n      swap1\n      jump\t// out\n        /* \"Taxpayer.sol\":12198:12519  function revealLottery(address lot, uint256 r) public onlyOwner {... */\n    tag_57:\n        /* \"Taxpayer.sol\":2074:2079  owner */\n      immutable(\"0x7d94b1fd5befe75fac04677148728067a5c7750c4535d59cf8d692301dae078c\")\n        /* \"Taxpayer.sol\":2060:2079  msg.sender == owner */\n      0xffffffffffffffffffffffffffffffffffffffff\n      and\n        /* \"Taxpayer.sol\":2060:2070  msg.sender */\n      caller\n        /* \"Taxpayer.sol\":2060:2079  msg.sender == owner */\n      0xffffffffffffffffffffffffffffffffffffffff\n      and\n      eq\n        /* \"Taxpayer.sol\":2052:2094  require(msg.sender == owner, \"Only owner\") */\n      tag_184\n      jumpi\n      mload(0x40)\n      0x08c379a000000000000000000000000000000000000000000000000000000000\n      dup2\n      mstore\n      0x04\n      add\n      tag_185\n      swap1\n      tag_186\n      jump\t// in\n    tag_185:\n      mload(0x40)\n      dup1\n      swap2\n      sub\n      swap1\n      revert\n    tag_184:\n        /* \"Taxpayer.sol\":12291:12292  0 */\n      0x00\n        /* \"Taxpayer.sol\":12276:12293  lot != address(0) */\n      0xffffffffffffffffffffffffffffffffffffffff\n      and\n        /* \"Taxpayer.sol\":12276:12279  lot */\n      dup3\n        /* \"Taxpayer.sol\":12276:12293  lot != address(0) */\n      0xffffffffffffffffffffffffffffffffffffffff\n      and\n      sub\n        /* \"Taxpayer.sol\":12268:12314  require(lot != address(0), \"Invalid lotterry\") */\n      tag_188\n      jumpi\n      mload(0x40)\n      0x08c379a000000000000000000000000000000000000000000000000000000000\n      dup2\n      mstore\n      0x04\n      add\n      tag_189\n      swap1\n      tag_190\n      jump\t// in\n    tag_189:\n      mload(0x40)\n      dup1\n      swap2\n      sub\n      swap1\n      revert\n    tag_188:\n        /* \"Taxpayer.sol\":12335:12336  0 */\n      0x00\n        /* \"Taxpayer.sol\":12328:12331  rev */\n      sload(0x06)\n        /* \"Taxpayer.sol\":12328:12336  rev != 0 */\n      sub\n        /* \"Taxpayer.sol\":12320:12360  require(rev != 0, \"No committed reveal\") */\n      tag_191\n      jumpi\n      mload(0x40)\n      0x08c379a000000000000000000000000000000000000000000000000000000000\n      dup2\n      mstore\n      0x04\n      add\n      tag_192\n      swap1\n      tag_193\n      jump\t// in\n    tag_192:\n      mload(0x40)\n      dup1\n      swap2\n      sub\n      swap1\n      revert\n    tag_191:\n        /* \"Taxpayer.sol\":12379:12382  lot */\n      dup2\n        /* \"Taxpayer.sol\":12371:12390  Lottery(lot).reveal */\n      0xffffffffffffffffffffffffffffffffffffffff\n      and\n      0xc2ca0ac5\n        /* \"Taxpayer.sol\":12391:12392  r */\n      dup3\n        /* \"Taxpayer.sol\":12371:12393  Lottery(lot).reveal(r) */\n      mload(0x40)\n      dup3\n      0xffffffff\n      and\n      0xe0\n      shl\n      dup2\n      mstore\n      0x04\n      add\n      tag_194\n      swap2\n      swap1\n      tag_81\n      jump\t// in\n    tag_194:\n      0x00\n      mload(0x40)\n      dup1\n      dup4\n      sub\n      dup2\n      0x00\n      dup8\n      dup1\n      extcodesize\n      iszero\n      dup1\n      iszero\n      tag_195\n      jumpi\n      revert(0x00, 0x00)\n    tag_195:\n      pop\n      gas\n      call\n      swap3\n      pop\n      pop\n      pop\n      dup1\n      iszero\n      tag_196\n      jumpi\n      pop\n      0x01\n    tag_196:\n        /* \"Taxpayer.sol\":12367:12515  try Lottery(lot).reveal(r) {... */\n      tag_197\n      jumpi\n        /* \"Taxpayer.sol\":12477:12508  revert(\"Lottery reveal failed\") */\n      mload(0x40)\n      0x08c379a000000000000000000000000000000000000000000000000000000000\n      dup2\n      mstore\n      0x04\n      add\n      tag_201\n      swap1\n      tag_202\n      jump\t// in\n    tag_201:\n      mload(0x40)\n      dup1\n      swap2\n      sub\n      swap1\n      revert\n        /* \"Taxpayer.sol\":12367:12515  try Lottery(lot).reveal(r) {... */\n    tag_197:\n        /* \"Taxpayer.sol\":12408:12409  0 */\n      0x00\n        /* \"Taxpayer.sol\":12402:12405  rev */\n      0x06\n        /* \"Taxpayer.sol\":12402:12409  rev = 0 */\n      dup2\n      swap1\n      sstore\n      pop\n        /* \"Taxpayer.sol\":12429:12434  false */\n      0x00\n        /* \"Taxpayer.sol\":12417:12426  committed */\n      0x07\n      0x00\n        /* \"Taxpayer.sol\":12417:12434  committed = false */\n      0x0100\n      exp\n      dup2\n      sload\n      dup2\n      0xff\n      mul\n      not\n      and\n      swap1\n      dup4\n      iszero\n      iszero\n      mul\n      or\n      swap1\n      sstore\n      pop\n        /* \"Taxpayer.sol\":12198:12519  function revealLottery(address lot, uint256 r) public onlyOwner {... */\n      pop\n      pop\n      jump\t// out\n        /* \"Taxpayer.sol\":1366:1427  function setIncome(uint i) public onlyOwner {... */\n    tag_61:\n        /* \"Taxpayer.sol\":2074:2079  owner */\n      immutable(\"0x7d94b1fd5befe75fac04677148728067a5c7750c4535d59cf8d692301dae078c\")\n        /* \"Taxpayer.sol\":2060:2079  msg.sender == owner */\n      0xffffffffffffffffffffffffffffffffffffffff\n      and\n        /* \"Taxpayer.sol\":2060:2070  msg.sender */\n      caller\n        /* \"Taxpayer.sol\":2060:2079  msg.sender == owner */\n      0xffffffffffffffffffffffffffffffffffffffff\n      and\n      eq\n        /* \"Taxpayer.sol\":2052:2094  require(msg.sender == owner, \"Only owner\") */\n      tag_205\n      jumpi\n      mload(0x40)\n      0x08c379a000000000000000000000000000000000000000000000000000000000\n      dup2\n      mstore\n      0x04\n      add\n      tag_206\n      swap1\n      tag_186\n      jump\t// in\n    tag_206:\n      mload(0x40)\n      dup1\n      swap2\n      sub\n      swap1\n      revert\n    tag_205:\n        /* \"Taxpayer.sol\":1423:1424  i */\n      dup1\n        /* \"Taxpayer.sol\":1414:1420  income */\n      0x05\n        /* \"Taxpayer.sol\":1414:1424  income = i */\n      dup2\n      swap1\n      sstore\n      pop\n        /* \"Taxpayer.sol\":1366:1427  function setIncome(uint i) public onlyOwner {... */\n      pop\n      jump\t// out\n        /* \"Taxpayer.sol\":10953:11133  function setTaxAllowance(uint ta) public view {... */\n    tag_64:\n        /* \"Taxpayer.sol\":11027:11032  owner */\n      immutable(\"0x7d94b1fd5befe75fac04677148728067a5c7750c4535d59cf8d692301dae078c\")\n        /* \"Taxpayer.sol\":11013:11032  msg.sender == owner */\n      0xffffffffffffffffffffffffffffffffffffffff\n      and\n        /* \"Taxpayer.sol\":11013:11023  msg.sender */\n      caller\n        /* \"Taxpayer.sol\":11013:11032  msg.sender == owner */\n      0xffffffffffffffffffffffffffffffffffffffff\n      and\n      eq\n        /* \"Taxpayer.sol\":11013:11056  msg.sender == owner || msg.sender == spouse */\n      dup1\n      tag_209\n      jumpi\n      pop\n        /* \"Taxpayer.sol\":11050:11056  spouse */\n      0x01\n      0x02\n      swap1\n      sload\n      swap1\n      0x0100\n      exp\n      swap1\n      div\n      0xffffffffffffffffffffffffffffffffffffffff\n      and\n        /* \"Taxpayer.sol\":11036:11056  msg.sender == spouse */\n      0xffffffffffffffffffffffffffffffffffffffff\n      and\n        /* \"Taxpayer.sol\":11036:11046  msg.sender */\n      caller\n        /* \"Taxpayer.sol\":11036:11056  msg.sender == spouse */\n      0xffffffffffffffffffffffffffffffffffffffff\n      and\n      eq\n        /* \"Taxpayer.sol\":11013:11056  msg.sender == owner || msg.sender == spouse */\n    tag_209:\n        /* \"Taxpayer.sol\":11013:11092  msg.sender == owner || msg.sender == spouse || isAuthorizedContract(msg.sender) */\n      dup1\n      tag_210\n      jumpi\n      pop\n        /* \"Taxpayer.sol\":11060:11092  isAuthorizedContract(msg.sender) */\n      tag_211\n        /* \"Taxpayer.sol\":11081:11091  msg.sender */\n      caller\n        /* \"Taxpayer.sol\":11060:11080  isAuthorizedContract */\n      tag_212\n        /* \"Taxpayer.sol\":11060:11092  isAuthorizedContract(msg.sender) */\n      jump\t// in\n    tag_211:\n        /* \"Taxpayer.sol\":11013:11092  msg.sender == owner || msg.sender == spouse || isAuthorizedContract(msg.sender) */\n    tag_210:\n        /* \"Taxpayer.sol\":11005:11128  require(msg.sender == owner || msg.sender == spouse || isAuthorizedContract(msg.sender), \"Not authorized to set allowance\") */\n      tag_213\n      jumpi\n      mload(0x40)\n      0x08c379a000000000000000000000000000000000000000000000000000000000\n      dup2\n      mstore\n      0x04\n      add\n      tag_214\n      swap1\n      tag_215\n      jump\t// in\n    tag_214:\n      mload(0x40)\n      dup1\n      swap2\n      sub\n      swap1\n      revert\n    tag_213:\n        /* \"Taxpayer.sol\":10953:11133  function setTaxAllowance(uint ta) public view {... */\n      pop\n      jump\t// out\n        /* \"Taxpayer.sol\":5142:5356  function echidna_marriage_consistency() public view returns(bool) {... */\n    tag_66:\n        /* \"Taxpayer.sol\":5202:5206  bool */\n      0x00\n        /* \"Taxpayer.sol\":5235:5236  0 */\n      0x00\n        /* \"Taxpayer.sol\":5217:5237  spouse == address(0) */\n      0xffffffffffffffffffffffffffffffffffffffff\n      and\n        /* \"Taxpayer.sol\":5217:5223  spouse */\n      0x01\n      0x02\n      swap1\n      sload\n      swap1\n      0x0100\n      exp\n      swap1\n      div\n      0xffffffffffffffffffffffffffffffffffffffff\n      and\n        /* \"Taxpayer.sol\":5217:5237  spouse == address(0) */\n      0xffffffffffffffffffffffffffffffffffffffff\n      and\n      sub\n        /* \"Taxpayer.sol\":5214:5256  if(spouse == address(0))... */\n      tag_217\n      jumpi\n        /* \"Taxpayer.sol\":5252:5256  true */\n      0x01\n        /* \"Taxpayer.sol\":5245:5256  return true */\n      swap1\n      pop\n      jump(tag_216)\n        /* \"Taxpayer.sol\":5214:5256  if(spouse == address(0))... */\n    tag_217:\n        /* \"Taxpayer.sol\":5267:5283  Taxpayer partner */\n      0x00\n        /* \"Taxpayer.sol\":5295:5301  spouse */\n      0x01\n      0x02\n      swap1\n      sload\n      swap1\n      0x0100\n      exp\n      swap1\n      div\n      0xffffffffffffffffffffffffffffffffffffffff\n      and\n        /* \"Taxpayer.sol\":5267:5302  Taxpayer partner = Taxpayer(spouse) */\n      swap1\n      pop\n        /* \"Taxpayer.sol\":5346:5350  this */\n      address\n        /* \"Taxpayer.sol\":5315:5351  partner.getSpouse() == address(this) */\n      0xffffffffffffffffffffffffffffffffffffffff\n      and\n        /* \"Taxpayer.sol\":5315:5322  partner */\n      dup2\n        /* \"Taxpayer.sol\":5315:5332  partner.getSpouse */\n      0xffffffffffffffffffffffffffffffffffffffff\n      and\n      0x108ece4d\n        /* \"Taxpayer.sol\":5315:5334  partner.getSpouse() */\n      mload(0x40)\n      dup2\n      0xffffffff\n      and\n      0xe0\n      shl\n      dup2\n      mstore\n      0x04\n      add\n      0x20\n      mload(0x40)\n      dup1\n      dup4\n      sub\n      dup2\n      dup7\n      gas\n      staticcall\n      iszero\n      dup1\n      iszero\n      tag_219\n      jumpi\n      returndatacopy(0x00, 0x00, returndatasize)\n      revert(0x00, returndatasize)\n    tag_219:\n      pop\n      pop\n      pop\n      pop\n      mload(0x40)\n      returndatasize\n      not(0x1f)\n      0x1f\n      dup3\n      add\n      and\n      dup3\n      add\n      dup1\n      0x40\n      mstore\n      pop\n      dup2\n      add\n      swap1\n      tag_220\n      swap2\n      swap1\n      tag_166\n      jump\t// in\n    tag_220:\n        /* \"Taxpayer.sol\":5315:5351  partner.getSpouse() == address(this) */\n      0xffffffffffffffffffffffffffffffffffffffff\n      and\n      eq\n        /* \"Taxpayer.sol\":5308:5351  return partner.getSpouse() == address(this) */\n      swap2\n      pop\n      pop\n        /* \"Taxpayer.sol\":5142:5356  function echidna_marriage_consistency() public view returns(bool) {... */\n    tag_216:\n      swap1\n      jump\t// out\n        /* \"Taxpayer.sol\":10093:10623  function receiveAllowance(uint amount, address from) public {... */\n    tag_71:\n        /* \"Taxpayer.sol\":10212:10218  spouse */\n      0x01\n      0x02\n      swap1\n      sload\n      swap1\n      0x0100\n      exp\n      swap1\n      div\n      0xffffffffffffffffffffffffffffffffffffffff\n      and\n        /* \"Taxpayer.sol\":10198:10218  msg.sender == spouse */\n      0xffffffffffffffffffffffffffffffffffffffff\n      and\n        /* \"Taxpayer.sol\":10198:10208  msg.sender */\n      caller\n        /* \"Taxpayer.sol\":10198:10218  msg.sender == spouse */\n      0xffffffffffffffffffffffffffffffffffffffff\n      and\n      sub\n        /* \"Taxpayer.sol\":10195:10266  if(msg.sender == spouse) {... */\n      tag_222\n      jumpi\n        /* \"Taxpayer.sol\":10243:10249  amount */\n      dup2\n        /* \"Taxpayer.sol\":10226:10239  tax_allowance */\n      0x04\n      0x00\n        /* \"Taxpayer.sol\":10226:10249  tax_allowance += amount */\n      dup3\n      dup3\n      sload\n      tag_223\n      swap2\n      swap1\n      tag_224\n      jump\t// in\n    tag_223:\n      swap3\n      pop\n      pop\n      dup2\n      swap1\n      sstore\n      pop\n        /* \"Taxpayer.sol\":10255:10262  return; */\n      jump(tag_221)\n        /* \"Taxpayer.sol\":10195:10266  if(msg.sender == spouse) {... */\n    tag_222:\n        /* \"Taxpayer.sol\":10407:10408  0 */\n      0x00\n        /* \"Taxpayer.sol\":10382:10392  msg.sender */\n      caller\n        /* \"Taxpayer.sol\":10382:10404  msg.sender.code.length */\n      0xffffffffffffffffffffffffffffffffffffffff\n      and\n      extcodesize\n        /* \"Taxpayer.sol\":10382:10408  msg.sender.code.length > 0 */\n      gt\n        /* \"Taxpayer.sol\":10374:10438  require(msg.sender.code.length > 0, \"Caller must be a contract\") */\n      tag_225\n      jumpi\n      mload(0x40)\n      0x08c379a000000000000000000000000000000000000000000000000000000000\n      dup2\n      mstore\n      0x04\n      add\n      tag_226\n      swap1\n      tag_227\n      jump\t// in\n    tag_226:\n      mload(0x40)\n      dup1\n      swap2\n      sub\n      swap1\n      revert\n    tag_225:\n        /* \"Taxpayer.sol\":10458:10468  msg.sender */\n      caller\n        /* \"Taxpayer.sol\":10450:10468  from == msg.sender */\n      0xffffffffffffffffffffffffffffffffffffffff\n      and\n        /* \"Taxpayer.sol\":10450:10454  from */\n      dup2\n        /* \"Taxpayer.sol\":10450:10468  from == msg.sender */\n      0xffffffffffffffffffffffffffffffffffffffff\n      and\n      eq\n        /* \"Taxpayer.sol\":10442:10521  require(from == msg.sender, \"From must be equal caller for 3rd-party contract\") */\n      tag_228\n      jumpi\n      mload(0x40)\n      0x08c379a000000000000000000000000000000000000000000000000000000000\n      dup2\n      mstore\n      0x04\n      add\n      tag_229\n      swap1\n      tag_230\n      jump\t// in\n    tag_229:\n      mload(0x40)\n      dup1\n      swap2\n      sub\n      swap1\n      revert\n    tag_228:\n        /* \"Taxpayer.sol\":10533:10565  isAuthorizedContract(msg.sender) */\n      tag_231\n        /* \"Taxpayer.sol\":10554:10564  msg.sender */\n      caller\n        /* \"Taxpayer.sol\":10533:10553  isAuthorizedContract */\n      tag_212\n        /* \"Taxpayer.sol\":10533:10565  isAuthorizedContract(msg.sender) */\n      jump\t// in\n    tag_231:\n        /* \"Taxpayer.sol\":10525:10591  require(isAuthorizedContract(msg.sender), \"Caller not authorized\") */\n      tag_232\n      jumpi\n      mload(0x40)\n      0x08c379a000000000000000000000000000000000000000000000000000000000\n      dup2\n      mstore\n      0x04\n      add\n      tag_233\n      swap1\n      tag_234\n      jump\t// in\n    tag_233:\n      mload(0x40)\n      dup1\n      swap2\n      sub\n      swap1\n      revert\n    tag_232:\n        /* \"Taxpayer.sol\":10613:10619  amount */\n      dup2\n        /* \"Taxpayer.sol\":10596:10609  tax_allowance */\n      0x04\n      0x00\n        /* \"Taxpayer.sol\":10596:10619  tax_allowance += amount */\n      dup3\n      dup3\n      sload\n      tag_235\n      swap2\n      swap1\n      tag_224\n      jump\t// in\n    tag_235:\n      swap3\n      pop\n      pop\n      dup2\n      swap1\n      sstore\n      pop\n        /* \"Taxpayer.sol\":10093:10623  function receiveAllowance(uint amount, address from) public {... */\n    tag_221:\n      pop\n      pop\n      jump\t// out\n        /* \"Taxpayer.sol\":10685:10948  function haveBirthday() public onlyOwner {... */\n    tag_73:\n        /* \"Taxpayer.sol\":2074:2079  owner */\n      immutable(\"0x7d94b1fd5befe75fac04677148728067a5c7750c4535d59cf8d692301dae078c\")\n        /* \"Taxpayer.sol\":2060:2079  msg.sender == owner */\n      0xffffffffffffffffffffffffffffffffffffffff\n      and\n        /* \"Taxpayer.sol\":2060:2070  msg.sender */\n      caller\n        /* \"Taxpayer.sol\":2060:2079  msg.sender == owner */\n      0xffffffffffffffffffffffffffffffffffffffff\n      and\n      eq\n        /* \"Taxpayer.sol\":2052:2094  require(msg.sender == owner, \"Only owner\") */\n      tag_237\n      jumpi\n      mload(0x40)\n      0x08c379a000000000000000000000000000000000000000000000000000000000\n      dup2\n      mstore\n      0x04\n      add\n      tag_238\n      swap1\n      tag_186\n      jump\t// in\n    tag_238:\n      mload(0x40)\n      dup1\n      swap2\n      sub\n      swap1\n      revert\n    tag_237:\n        /* \"Taxpayer.sol\":10730:10733  age */\n      0x00\n      0x00\n        /* \"Taxpayer.sol\":10730:10735  age++ */\n      dup2\n      sload\n      dup1\n      swap3\n      swap2\n      swap1\n      tag_240\n      swap1\n      tag_241\n      jump\t// in\n    tag_240:\n      swap2\n      swap1\n      pop\n      sstore\n      pop\n        /* \"Taxpayer.sol\":10743:10752  isMarried */\n      0x01\n      0x00\n      swap1\n      sload\n      swap1\n      0x0100\n      exp\n      swap1\n      div\n      0xff\n      and\n        /* \"Taxpayer.sol\":10742:10752  !isMarried */\n      iszero\n        /* \"Taxpayer.sol\":10742:10776  !isMarried && spouse == address(0) */\n      dup1\n      iszero\n      tag_242\n      jumpi\n      pop\n        /* \"Taxpayer.sol\":10774:10775  0 */\n      0x00\n        /* \"Taxpayer.sol\":10756:10776  spouse == address(0) */\n      0xffffffffffffffffffffffffffffffffffffffff\n      and\n        /* \"Taxpayer.sol\":10756:10762  spouse */\n      0x01\n      0x02\n      swap1\n      sload\n      swap1\n      0x0100\n      exp\n      swap1\n      div\n      0xffffffffffffffffffffffffffffffffffffffff\n      and\n        /* \"Taxpayer.sol\":10756:10776  spouse == address(0) */\n      0xffffffffffffffffffffffffffffffffffffffff\n      and\n      eq\n        /* \"Taxpayer.sol\":10742:10776  !isMarried && spouse == address(0) */\n    tag_242:\n        /* \"Taxpayer.sol\":10739:10945  if(!isMarried && spouse == address(0)) {  // only if single... */\n      iszero\n      tag_243\n      jumpi\n        /* \"Taxpayer.sol\":10817:10819  65 */\n      0x41\n        /* \"Taxpayer.sol\":10810:10813  age */\n      sload(0x00)\n        /* \"Taxpayer.sol\":10810:10819  age >= 65 */\n      lt\n        /* \"Taxpayer.sol\":10807:10939  if(age >= 65) {... */\n      tag_244\n      jumpi\n        /* \"Taxpayer.sol\":502:506  9000 */\n      0x2328\n        /* \"Taxpayer.sol\":10835:10848  tax_allowance */\n      0x04\n        /* \"Taxpayer.sol\":10835:10864  tax_allowance = ALLOWANCE_OAP */\n      dup2\n      swap1\n      sstore\n      pop\n        /* \"Taxpayer.sol\":10807:10939  if(age >= 65) {... */\n      jump(tag_245)\n    tag_244:\n        /* \"Taxpayer.sol\":398:402  5000 */\n      0x1388\n        /* \"Taxpayer.sol\":10895:10908  tax_allowance */\n      0x04\n        /* \"Taxpayer.sol\":10895:10928  tax_allowance = DEFAULT_ALLOWANCE */\n      dup2\n      swap1\n      sstore\n      pop\n        /* \"Taxpayer.sol\":10807:10939  if(age >= 65) {... */\n    tag_245:\n        /* \"Taxpayer.sol\":10739:10945  if(!isMarried && spouse == address(0)) {  // only if single... */\n    tag_243:\n        /* \"Taxpayer.sol\":10685:10948  function haveBirthday() public onlyOwner {... */\n      jump\t// out\n        /* \"Taxpayer.sol\":4628:4860  function notifyDivorceFromPartner(address p) public {... */\n    tag_77:\n        /* \"Taxpayer.sol\":4706:4707  p */\n      dup1\n        /* \"Taxpayer.sol\":4692:4707  msg.sender == p */\n      0xffffffffffffffffffffffffffffffffffffffff\n      and\n        /* \"Taxpayer.sol\":4692:4702  msg.sender */\n      caller\n        /* \"Taxpayer.sol\":4692:4707  msg.sender == p */\n      0xffffffffffffffffffffffffffffffffffffffff\n      and\n      eq\n        /* \"Taxpayer.sol\":4684:4735  require(msg.sender == p, \"Only partner can notify\") */\n      tag_247\n      jumpi\n      mload(0x40)\n      0x08c379a000000000000000000000000000000000000000000000000000000000\n      dup2\n      mstore\n      0x04\n      add\n      tag_248\n      swap1\n      tag_249\n      jump\t// in\n    tag_248:\n      mload(0x40)\n      dup1\n      swap2\n      sub\n      swap1\n      revert\n    tag_247:\n        /* \"Taxpayer.sol\":4756:4757  0 */\n      0x00\n        /* \"Taxpayer.sol\":4739:4745  spouse */\n      0x01\n      0x02\n        /* \"Taxpayer.sol\":4739:4758  spouse = address(0) */\n      0x0100\n      exp\n      dup2\n      sload\n      dup2\n      0xffffffffffffffffffffffffffffffffffffffff\n      mul\n      not\n      and\n      swap1\n      dup4\n      0xffffffffffffffffffffffffffffffffffffffff\n      and\n      mul\n      or\n      swap1\n      sstore\n      pop\n        /* \"Taxpayer.sol\":4774:4779  false */\n      0x00\n        /* \"Taxpayer.sol\":4762:4771  isMarried */\n      0x01\n      0x00\n        /* \"Taxpayer.sol\":4762:4779  isMarried = false */\n      0x0100\n      exp\n      dup2\n      sload\n      dup2\n      0xff\n      mul\n      not\n      and\n      swap1\n      dup4\n      iszero\n      iszero\n      mul\n      or\n      swap1\n      sstore\n      pop\n        /* \"Taxpayer.sol\":4829:4856  determineDefaultAllowance() */\n      tag_250\n        /* \"Taxpayer.sol\":4829:4854  determineDefaultAllowance */\n      tag_251\n        /* \"Taxpayer.sol\":4829:4856  determineDefaultAllowance() */\n      jump\t// in\n    tag_250:\n        /* \"Taxpayer.sol\":4813:4826  tax_allowance */\n      0x04\n        /* \"Taxpayer.sol\":4813:4856  tax_allowance = determineDefaultAllowance() */\n      dup2\n      swap1\n      sstore\n      pop\n        /* \"Taxpayer.sol\":4628:4860  function notifyDivorceFromPartner(address p) public {... */\n      pop\n      jump\t// out\n        /* \"Taxpayer.sol\":12596:12744  function taxableIncome() public view returns(uint) {... */\n    tag_79:\n        /* \"Taxpayer.sol\":12641:12645  uint */\n      0x00\n        /* \"Taxpayer.sol\":12666:12679  tax_allowance */\n      sload(0x04)\n        /* \"Taxpayer.sol\":12656:12662  income */\n      sload(0x05)\n        /* \"Taxpayer.sol\":12656:12679  income <= tax_allowance */\n      gt\n        /* \"Taxpayer.sol\":12653:12704  if(income <= tax_allowance) {... */\n      tag_253\n      jumpi\n        /* \"Taxpayer.sol\":12696:12697  0 */\n      0x00\n        /* \"Taxpayer.sol\":12689:12697  return 0 */\n      swap1\n      pop\n      jump(tag_252)\n        /* \"Taxpayer.sol\":12653:12704  if(income <= tax_allowance) {... */\n    tag_253:\n        /* \"Taxpayer.sol\":12726:12739  tax_allowance */\n      sload(0x04)\n        /* \"Taxpayer.sol\":12717:12723  income */\n      sload(0x05)\n        /* \"Taxpayer.sol\":12717:12739  income - tax_allowance */\n      tag_254\n      swap2\n      swap1\n      tag_255\n      jump\t// in\n    tag_254:\n        /* \"Taxpayer.sol\":12710:12739  return income - tax_allowance */\n      swap1\n      pop\n        /* \"Taxpayer.sol\":12596:12744  function taxableIncome() public view returns(uint) {... */\n    tag_252:\n      swap1\n      jump\t// out\n        /* \"Taxpayer.sol\":12773:12900  function calculateTax(uint value) public view returns (uint) {... */\n    tag_84:\n        /* \"Taxpayer.sol\":12828:12832  uint */\n      0x00\n        /* \"Taxpayer.sol\":12840:12846  uint t */\n      0x00\n        /* \"Taxpayer.sol\":12849:12864  taxableIncome() */\n      tag_257\n        /* \"Taxpayer.sol\":12849:12862  taxableIncome */\n      tag_79\n        /* \"Taxpayer.sol\":12849:12864  taxableIncome() */\n      jump\t// in\n    tag_257:\n        /* \"Taxpayer.sol\":12840:12864  uint t = taxableIncome() */\n      swap1\n      pop\n        /* \"Taxpayer.sol\":12891:12895  1000 */\n      0x03e8\n        /* \"Taxpayer.sol\":12882:12887  value */\n      dup4\n        /* \"Taxpayer.sol\":12878:12879  t */\n      dup3\n        /* \"Taxpayer.sol\":12878:12887  t * value */\n      tag_258\n      swap2\n      swap1\n      tag_259\n      jump\t// in\n    tag_258:\n        /* \"Taxpayer.sol\":12877:12895  (t * value) / 1000 */\n      tag_260\n      swap2\n      swap1\n      tag_261\n      jump\t// in\n    tag_260:\n        /* \"Taxpayer.sol\":12870:12895  return (t * value) / 1000 */\n      swap2\n      pop\n      pop\n        /* \"Taxpayer.sol\":12773:12900  function calculateTax(uint value) public view returns (uint) {... */\n      swap2\n      swap1\n      pop\n      jump\t// out\n        /* \"Taxpayer.sol\":11800:12192  function joinLottery(address lot, uint256 r) public onlyOwner {... */\n    tag_88:\n        /* \"Taxpayer.sol\":2074:2079  owner */\n      immutable(\"0x7d94b1fd5befe75fac04677148728067a5c7750c4535d59cf8d692301dae078c\")\n        /* \"Taxpayer.sol\":2060:2079  msg.sender == owner */\n      0xffffffffffffffffffffffffffffffffffffffff\n      and\n        /* \"Taxpayer.sol\":2060:2070  msg.sender */\n      caller\n        /* \"Taxpayer.sol\":2060:2079  msg.sender == owner */\n      0xffffffffffffffffffffffffffffffffffffffff\n      and\n      eq\n        /* \"Taxpayer.sol\":2052:2094  require(msg.sender == owner, \"Only owner\") */\n      tag_263\n      jumpi\n      mload(0x40)\n      0x08c379a000000000000000000000000000000000000000000000000000000000\n      dup2\n      mstore\n      0x04\n      add\n      tag_264\n      swap1\n      tag_186\n      jump\t// in\n    tag_264:\n      mload(0x40)\n      dup1\n      swap2\n      sub\n      swap1\n      revert\n    tag_263:\n        /* \"Taxpayer.sol\":11891:11892  0 */\n      0x00\n        /* \"Taxpayer.sol\":11876:11893  lot != address(0) */\n      0xffffffffffffffffffffffffffffffffffffffff\n      and\n        /* \"Taxpayer.sol\":11876:11879  lot */\n      dup3\n        /* \"Taxpayer.sol\":11876:11893  lot != address(0) */\n      0xffffffffffffffffffffffffffffffffffffffff\n      and\n      eq\n      iszero\n        /* \"Taxpayer.sol\":11876:11916  lot != address(0) && lot.code.length > 0 */\n      dup1\n      iszero\n      tag_266\n      jumpi\n      pop\n        /* \"Taxpayer.sol\":11915:11916  0 */\n      0x00\n        /* \"Taxpayer.sol\":11897:11900  lot */\n      dup3\n        /* \"Taxpayer.sol\":11897:11912  lot.code.length */\n      0xffffffffffffffffffffffffffffffffffffffff\n      and\n      extcodesize\n        /* \"Taxpayer.sol\":11897:11916  lot.code.length > 0 */\n      gt\n        /* \"Taxpayer.sol\":11876:11916  lot != address(0) && lot.code.length > 0 */\n    tag_266:\n        /* \"Taxpayer.sol\":11868:11937  require(lot != address(0) && lot.code.length > 0 , \"Invalid lottery\") */\n      tag_267\n      jumpi\n      mload(0x40)\n      0x08c379a000000000000000000000000000000000000000000000000000000000\n      dup2\n      mstore\n      0x04\n      add\n      tag_268\n      swap1\n      tag_269\n      jump\t// in\n    tag_268:\n      mload(0x40)\n      dup1\n      swap2\n      sub\n      swap1\n      revert\n    tag_267:\n        /* \"Taxpayer.sol\":11988:11991  lot */\n      dup2\n        /* \"Taxpayer.sol\":11980:11999  Lottery(lot).commit */\n      0xffffffffffffffffffffffffffffffffffffffff\n      and\n      0xf14fcbc8\n        /* \"Taxpayer.sol\":12021:12022  r */\n      dup3\n        /* \"Taxpayer.sol\":12010:12023  abi.encode(r) */\n      add(0x20, mload(0x40))\n      tag_270\n      swap2\n      swap1\n      tag_81\n      jump\t// in\n    tag_270:\n      mload(0x40)\n      0x20\n      dup2\n      dup4\n      sub\n      sub\n      dup2\n      mstore\n      swap1\n      0x40\n      mstore\n        /* \"Taxpayer.sol\":12000:12024  keccak256(abi.encode(r)) */\n      dup1\n      mload\n      swap1\n      0x20\n      add\n      keccak256\n        /* \"Taxpayer.sol\":11980:12025  Lottery(lot).commit(keccak256(abi.encode(r))) */\n      mload(0x40)\n      dup3\n      0xffffffff\n      and\n      0xe0\n      shl\n      dup2\n      mstore\n      0x04\n      add\n      tag_271\n      swap2\n      swap1\n      tag_272\n      jump\t// in\n    tag_271:\n      0x00\n      mload(0x40)\n      dup1\n      dup4\n      sub\n      dup2\n      0x00\n      dup8\n      dup1\n      extcodesize\n      iszero\n      dup1\n      iszero\n      tag_273\n      jumpi\n      revert(0x00, 0x00)\n    tag_273:\n      pop\n      gas\n      call\n      swap3\n      pop\n      pop\n      pop\n      dup1\n      iszero\n      tag_274\n      jumpi\n      pop\n      0x01\n    tag_274:\n        /* \"Taxpayer.sol\":11976:12188  try Lottery(lot).commit(keccak256(abi.encode(r))) {   // try-catch to avoid failure... */\n      tag_275\n      jumpi\n        /* \"Taxpayer.sol\":12150:12181  revert(\"Lottery commit failed\") */\n      mload(0x40)\n      0x08c379a000000000000000000000000000000000000000000000000000000000\n      dup2\n      mstore\n      0x04\n      add\n      tag_279\n      swap1\n      tag_280\n      jump\t// in\n    tag_279:\n      mload(0x40)\n      dup1\n      swap2\n      sub\n      swap1\n      revert\n        /* \"Taxpayer.sol\":11976:12188  try Lottery(lot).commit(keccak256(abi.encode(r))) {   // try-catch to avoid failure... */\n    tag_275:\n        /* \"Taxpayer.sol\":12072:12073  r */\n      dup1\n        /* \"Taxpayer.sol\":12066:12069  rev */\n      0x06\n        /* \"Taxpayer.sol\":12066:12073  rev = r */\n      dup2\n      swap1\n      sstore\n      pop\n        /* \"Taxpayer.sol\":12093:12097  true */\n      0x01\n        /* \"Taxpayer.sol\":12081:12090  committed */\n      0x07\n      0x00\n        /* \"Taxpayer.sol\":12081:12097  committed = true */\n      0x0100\n      exp\n      dup2\n      sload\n      dup2\n      0xff\n      mul\n      not\n      and\n      swap1\n      dup4\n      iszero\n      iszero\n      mul\n      or\n      swap1\n      sstore\n      pop\n        /* \"Taxpayer.sol\":11800:12192  function joinLottery(address lot, uint256 r) public onlyOwner {... */\n      pop\n      pop\n      jump\t// out\n        /* \"Taxpayer.sol\":1310:1364  function setSpouse(address a) public {... */\n    tag_91:\n        /* \"Taxpayer.sol\":1360:1361  a */\n      dup1\n        /* \"Taxpayer.sol\":1351:1357  spouse */\n      0x01\n      0x02\n        /* \"Taxpayer.sol\":1351:1361  spouse = a */\n      0x0100\n      exp\n      dup2\n      sload\n      dup2\n      0xffffffffffffffffffffffffffffffffffffffff\n      mul\n      not\n      and\n      swap1\n      dup4\n      0xffffffffffffffffffffffffffffffffffffffff\n      and\n      mul\n      or\n      swap1\n      sstore\n      pop\n        /* \"Taxpayer.sol\":1310:1364  function setSpouse(address a) public {... */\n      pop\n      jump\t// out\n        /* \"Taxpayer.sol\":1136:1235  function getDefaultAllowance() public view returns (uint) {... */\n    tag_93:\n        /* \"Taxpayer.sol\":1188:1192  uint */\n      0x00\n        /* \"Taxpayer.sol\":1205:1232  determineDefaultAllowance() */\n      tag_284\n        /* \"Taxpayer.sol\":1205:1230  determineDefaultAllowance */\n      tag_251\n        /* \"Taxpayer.sol\":1205:1232  determineDefaultAllowance() */\n      jump\t// in\n    tag_284:\n        /* \"Taxpayer.sol\":1198:1232  return determineDefaultAllowance() */\n      swap1\n      pop\n        /* \"Taxpayer.sol\":1136:1235  function getDefaultAllowance() public view returns (uint) {... */\n      swap1\n      jump\t// out\n        /* \"Taxpayer.sol\":6898:6991  function echidna_iscontract_is_true() public view returns (bool) {... */\n    tag_96:\n        /* \"Taxpayer.sol\":6957:6961  bool */\n      0x00\n        /* \"Taxpayer.sol\":6976:6986  iscontract */\n      0x01\n      dup1\n      sload\n      swap1\n      0x0100\n      exp\n      swap1\n      div\n      0xff\n      and\n        /* \"Taxpayer.sol\":6969:6986  return iscontract */\n      swap1\n      pop\n        /* \"Taxpayer.sol\":6898:6991  function echidna_iscontract_is_true() public view returns (bool) {... */\n      swap1\n      jump\t// out\n        /* \"Taxpayer.sol\":9630:10089  function transferAllowance(uint change) public onlyOwner {... */\n    tag_100:\n        /* \"Taxpayer.sol\":2074:2079  owner */\n      immutable(\"0x7d94b1fd5befe75fac04677148728067a5c7750c4535d59cf8d692301dae078c\")\n        /* \"Taxpayer.sol\":2060:2079  msg.sender == owner */\n      0xffffffffffffffffffffffffffffffffffffffff\n      and\n        /* \"Taxpayer.sol\":2060:2070  msg.sender */\n      caller\n        /* \"Taxpayer.sol\":2060:2079  msg.sender == owner */\n      0xffffffffffffffffffffffffffffffffffffffff\n      and\n      eq\n        /* \"Taxpayer.sol\":2052:2094  require(msg.sender == owner, \"Only owner\") */\n      tag_287\n      jumpi\n      mload(0x40)\n      0x08c379a000000000000000000000000000000000000000000000000000000000\n      dup2\n      mstore\n      0x04\n      add\n      tag_288\n      swap1\n      tag_186\n      jump\t// in\n    tag_288:\n      mload(0x40)\n      dup1\n      swap2\n      sub\n      swap1\n      revert\n    tag_287:\n        /* \"Taxpayer.sol\":9720:9721  0 */\n      0x00\n        /* \"Taxpayer.sol\":9702:9722  spouse != address(0) */\n      0xffffffffffffffffffffffffffffffffffffffff\n      and\n        /* \"Taxpayer.sol\":9702:9708  spouse */\n      0x01\n      0x02\n      swap1\n      sload\n      swap1\n      0x0100\n      exp\n      swap1\n      div\n      0xffffffffffffffffffffffffffffffffffffffff\n      and\n        /* \"Taxpayer.sol\":9702:9722  spouse != address(0) */\n      0xffffffffffffffffffffffffffffffffffffffff\n      and\n      sub\n        /* \"Taxpayer.sol\":9694:9736  require(spouse != address(0), \"No spouse\") */\n      tag_290\n      jumpi\n      mload(0x40)\n      0x08c379a000000000000000000000000000000000000000000000000000000000\n      dup2\n      mstore\n      0x04\n      add\n      tag_291\n      swap1\n      tag_292\n      jump\t// in\n    tag_291:\n      mload(0x40)\n      dup1\n      swap2\n      sub\n      swap1\n      revert\n    tag_290:\n        /* \"Taxpayer.sol\":9757:9758  0 */\n      0x00\n        /* \"Taxpayer.sol\":9748:9754  change */\n      dup2\n        /* \"Taxpayer.sol\":9748:9758  change > 0 */\n      gt\n        /* \"Taxpayer.sol\":9740:9774  require(change > 0, \"Zero change\") */\n      tag_293\n      jumpi\n      mload(0x40)\n      0x08c379a000000000000000000000000000000000000000000000000000000000\n      dup2\n      mstore\n      0x04\n      add\n      tag_294\n      swap1\n      tag_295\n      jump\t// in\n    tag_294:\n      mload(0x40)\n      dup1\n      swap2\n      sub\n      swap1\n      revert\n    tag_293:\n        /* \"Taxpayer.sol\":9796:9809  tax_allowance */\n      sload(0x04)\n        /* \"Taxpayer.sol\":9786:9792  change */\n      dup2\n        /* \"Taxpayer.sol\":9786:9809  change <= tax_allowance */\n      gt\n      iszero\n        /* \"Taxpayer.sol\":9778:9834  require(change <= tax_allowance, \"Not enough allowance\") */\n      tag_296\n      jumpi\n      mload(0x40)\n      0x08c379a000000000000000000000000000000000000000000000000000000000\n      dup2\n      mstore\n      0x04\n      add\n      tag_297\n      swap1\n      tag_298\n      jump\t// in\n    tag_297:\n      mload(0x40)\n      dup1\n      swap2\n      sub\n      swap1\n      revert\n    tag_296:\n        /* \"Taxpayer.sol\":9856:9862  change */\n      dup1\n        /* \"Taxpayer.sol\":9839:9852  tax_allowance */\n      0x04\n      0x00\n        /* \"Taxpayer.sol\":9839:9862  tax_allowance -= change */\n      dup3\n      dup3\n      sload\n      tag_299\n      swap2\n      swap1\n      tag_255\n      jump\t// in\n    tag_299:\n      swap3\n      pop\n      pop\n      dup2\n      swap1\n      sstore\n      pop\n        /* \"Taxpayer.sol\":9905:9911  spouse */\n      0x01\n      0x02\n      swap1\n      sload\n      swap1\n      0x0100\n      exp\n      swap1\n      div\n      0xffffffffffffffffffffffffffffffffffffffff\n      and\n        /* \"Taxpayer.sol\":9896:9929  Taxpayer(spouse).receiveAllowance */\n      0xffffffffffffffffffffffffffffffffffffffff\n      and\n      0x308f838a\n        /* \"Taxpayer.sol\":9930:9936  change */\n      dup3\n        /* \"Taxpayer.sol\":9946:9950  this */\n      address\n        /* \"Taxpayer.sol\":9896:9952  Taxpayer(spouse).receiveAllowance(change, address(this)) */\n      mload(0x40)\n      dup4\n      0xffffffff\n      and\n      0xe0\n      shl\n      dup2\n      mstore\n      0x04\n      add\n      tag_300\n      swap3\n      swap2\n      swap1\n      tag_301\n      jump\t// in\n    tag_300:\n      0x00\n      mload(0x40)\n      dup1\n      dup4\n      sub\n      dup2\n      0x00\n      dup8\n      dup1\n      extcodesize\n      iszero\n      dup1\n      iszero\n      tag_302\n      jumpi\n      revert(0x00, 0x00)\n    tag_302:\n      pop\n      gas\n      call\n      swap3\n      pop\n      pop\n      pop\n      dup1\n      iszero\n      tag_303\n      jumpi\n      pop\n      0x01\n    tag_303:\n        /* \"Taxpayer.sol\":9892:10086  try Taxpayer(spouse).receiveAllowance(change, address(this)) {... */\n      tag_304\n      jumpi\n        /* \"Taxpayer.sol\":10034:10040  change */\n      dup1\n        /* \"Taxpayer.sol\":10017:10030  tax_allowance */\n      0x04\n      0x00\n        /* \"Taxpayer.sol\":10017:10040  tax_allowance += change */\n      dup3\n      dup3\n      sload\n      tag_308\n      swap2\n      swap1\n      tag_224\n      jump\t// in\n    tag_308:\n      swap3\n      pop\n      pop\n      dup2\n      swap1\n      sstore\n      pop\n        /* \"Taxpayer.sol\":10046:10081  revert(\"Failed to transfer spouse\") */\n      mload(0x40)\n      0x08c379a000000000000000000000000000000000000000000000000000000000\n      dup2\n      mstore\n      0x04\n      add\n      tag_309\n      swap1\n      tag_310\n      jump\t// in\n    tag_309:\n      mload(0x40)\n      dup1\n      swap2\n      sub\n      swap1\n      revert\n        /* \"Taxpayer.sol\":9892:10086  try Taxpayer(spouse).receiveAllowance(change, address(this)) {... */\n    tag_304:\n        /* \"Taxpayer.sol\":9630:10089  function transferAllowance(uint change) public onlyOwner {... */\n      pop\n      jump\t// out\n        /* \"Taxpayer.sol\":1008:1134  function getInitialTaxAllowance() public view returns (uint) {... */\n    tag_102:\n        /* \"Taxpayer.sol\":1063:1067  uint */\n      0x00\n        /* \"Taxpayer.sol\":1080:1101  INITIAL_TAX_ALLOWANCE */\n      immutable(\"0xe54f8e4a5d17b2e4d97cb94ddb2a2b00b3620f93c06158e24f4515b3f1ad0dd8\")\n        /* \"Taxpayer.sol\":1073:1101  return INITIAL_TAX_ALLOWANCE */\n      swap1\n      pop\n        /* \"Taxpayer.sol\":1008:1134  function getInitialTaxAllowance() public view returns (uint) {... */\n      swap1\n      jump\t// out\n        /* \"Taxpayer.sol\":8704:9232  function echidna_commit_consistency(address lot) public view returns (bool) {... */\n    tag_106:\n        /* \"Taxpayer.sol\":8774:8778  bool */\n      0x00\n        /* \"Taxpayer.sol\":8850:8851  0 */\n      0x00\n        /* \"Taxpayer.sol\":8843:8846  rev */\n      sload(0x06)\n        /* \"Taxpayer.sol\":8843:8851  rev == 0 */\n      sub\n        /* \"Taxpayer.sol\":8840:8879  if(rev == 0) {... */\n      tag_314\n      jumpi\n        /* \"Taxpayer.sol\":8868:8872  true */\n      0x01\n        /* \"Taxpayer.sol\":8861:8872  return true */\n      swap1\n      pop\n      jump(tag_313)\n        /* \"Taxpayer.sol\":8840:8879  if(rev == 0) {... */\n    tag_314:\n        /* \"Taxpayer.sol\":8937:8938  0 */\n      0x00\n        /* \"Taxpayer.sol\":8922:8939  lot == address(0) */\n      0xffffffffffffffffffffffffffffffffffffffff\n      and\n        /* \"Taxpayer.sol\":8922:8925  lot */\n      dup3\n        /* \"Taxpayer.sol\":8922:8939  lot == address(0) */\n      0xffffffffffffffffffffffffffffffffffffffff\n      and\n      eq\n        /* \"Taxpayer.sol\":8922:8963  lot == address(0) || lot.code.length == 0 */\n      dup1\n      tag_315\n      jumpi\n      pop\n        /* \"Taxpayer.sol\":8962:8963  0 */\n      0x00\n        /* \"Taxpayer.sol\":8943:8946  lot */\n      dup3\n        /* \"Taxpayer.sol\":8943:8958  lot.code.length */\n      0xffffffffffffffffffffffffffffffffffffffff\n      and\n      extcodesize\n        /* \"Taxpayer.sol\":8943:8963  lot.code.length == 0 */\n      eq\n        /* \"Taxpayer.sol\":8922:8963  lot == address(0) || lot.code.length == 0 */\n    tag_315:\n        /* \"Taxpayer.sol\":8919:9010  if(lot == address(0) || lot.code.length == 0) {... */\n      iszero\n      tag_316\n      jumpi\n        /* \"Taxpayer.sol\":8980:8984  true */\n      0x01\n        /* \"Taxpayer.sol\":8973:8984  return true */\n      swap1\n      pop\n      jump(tag_313)\n        /* \"Taxpayer.sol\":8919:9010  if(lot == address(0) || lot.code.length == 0) {... */\n    tag_316:\n        /* \"Taxpayer.sol\":9028:9031  lot */\n      dup2\n        /* \"Taxpayer.sol\":9020:9040  Lottery(lot).commits */\n      0xffffffffffffffffffffffffffffffffffffffff\n      and\n      0x7b43a8e6\n        /* \"Taxpayer.sol\":9049:9053  this */\n      address\n        /* \"Taxpayer.sol\":9020:9055  Lottery(lot).commits(address(this)) */\n      mload(0x40)\n      dup3\n      0xffffffff\n      and\n      0xe0\n      shl\n      dup2\n      mstore\n      0x04\n      add\n      tag_317\n      swap2\n      swap1\n      tag_53\n      jump\t// in\n    tag_317:\n      0x20\n      mload(0x40)\n      dup1\n      dup4\n      sub\n      dup2\n      dup7\n      gas\n      staticcall\n      swap3\n      pop\n      pop\n      pop\n      dup1\n      iszero\n      tag_318\n      jumpi\n      pop\n      mload(0x40)\n      returndatasize\n      not(0x1f)\n      0x1f\n      dup3\n      add\n      and\n      dup3\n      add\n      dup1\n      0x40\n      mstore\n      pop\n      dup2\n      add\n      swap1\n      tag_319\n      swap2\n      swap1\n      tag_320\n      jump\t// in\n    tag_319:\n      0x01\n    tag_318:\n        /* \"Taxpayer.sol\":9016:9227  try Lottery(lot).commits(address(this)) returns (bytes32 c) {... */\n      tag_321\n      jumpi\n        /* \"Taxpayer.sol\":9151:9156  false */\n      0x00\n        /* \"Taxpayer.sol\":9144:9156  return false */\n      swap1\n      pop\n      jump(tag_313)\n        /* \"Taxpayer.sol\":9016:9227  try Lottery(lot).commits(address(this)) returns (bytes32 c) {... */\n    tag_321:\n        /* \"Taxpayer.sol\":9117:9120  rev */\n      sload(0x06)\n        /* \"Taxpayer.sol\":9106:9121  abi.encode(rev) */\n      add(0x20, mload(0x40))\n      tag_326\n      swap2\n      swap1\n      tag_81\n      jump\t// in\n    tag_326:\n      mload(0x40)\n      0x20\n      dup2\n      dup4\n      sub\n      sub\n      dup2\n      mstore\n      swap1\n      0x40\n      mstore\n        /* \"Taxpayer.sol\":9096:9122  keccak256(abi.encode(rev)) */\n      dup1\n      mload\n      swap1\n      0x20\n      add\n      keccak256\n        /* \"Taxpayer.sol\":9091:9092  c */\n      dup2\n        /* \"Taxpayer.sol\":9091:9122  c == keccak256(abi.encode(rev)) */\n      eq\n        /* \"Taxpayer.sol\":9084:9122  return c == keccak256(abi.encode(rev)) */\n      swap2\n      pop\n      pop\n        /* \"Taxpayer.sol\":8704:9232  function echidna_commit_consistency(address lot) public view returns (bool) {... */\n    tag_313:\n      swap2\n      swap1\n      pop\n      jump\t// out\n        /* \"Taxpayer.sol\":787:862  function getIsMarried() public view returns(bool) {... */\n    tag_109:\n        /* \"Taxpayer.sol\":831:835  bool */\n      0x00\n        /* \"Taxpayer.sol\":850:859  isMarried */\n      0x01\n      0x00\n      swap1\n      sload\n      swap1\n      0x0100\n      exp\n      swap1\n      div\n      0xff\n      and\n        /* \"Taxpayer.sol\":843:859  return isMarried */\n      swap1\n      pop\n        /* \"Taxpayer.sol\":787:862  function getIsMarried() public view returns(bool) {... */\n      swap1\n      jump\t// out\n        /* \"Taxpayer.sol\":249:280  address public  immutable owner */\n    tag_112:\n      immutable(\"0x7d94b1fd5befe75fac04677148728067a5c7750c4535d59cf8d692301dae078c\")\n      dup2\n      jump\t// out\n        /* \"Taxpayer.sol\":1237:1299  function getAge() public view returns (uint) {... */\n    tag_115:\n        /* \"Taxpayer.sol\":1276:1280  uint */\n      0x00\n        /* \"Taxpayer.sol\":1293:1296  age */\n      sload(0x00)\n        /* \"Taxpayer.sol\":1286:1296  return age */\n      swap1\n      pop\n        /* \"Taxpayer.sol\":1237:1299  function getAge() public view returns (uint) {... */\n      swap1\n      jump\t// out\n        /* \"Taxpayer.sol\":700:721  bool public committed */\n    tag_118:\n      0x07\n      0x00\n      swap1\n      sload\n      swap1\n      0x0100\n      exp\n      swap1\n      div\n      0xff\n      and\n      dup2\n      jump\t// out\n        /* \"Taxpayer.sol\":6600:6795  function echidna_no_tax_below_allowance() public view returns (bool) {... */\n    tag_121:\n        /* \"Taxpayer.sol\":6663:6667  bool */\n      0x00\n        /* \"Taxpayer.sol\":6688:6701  tax_allowance */\n      sload(0x04)\n        /* \"Taxpayer.sol\":6678:6684  income */\n      sload(0x05)\n        /* \"Taxpayer.sol\":6678:6701  income <= tax_allowance */\n      gt\n        /* \"Taxpayer.sol\":6675:6774  if(income <= tax_allowance) {... */\n      tag_330\n      jumpi\n        /* \"Taxpayer.sol\":6739:6740  0 */\n      0x00\n        /* \"Taxpayer.sol\":6718:6735  calculateTax(200) */\n      tag_331\n        /* \"Taxpayer.sol\":6731:6734  200 */\n      0xc8\n        /* \"Taxpayer.sol\":6718:6730  calculateTax */\n      tag_84\n        /* \"Taxpayer.sol\":6718:6735  calculateTax(200) */\n      jump\t// in\n    tag_331:\n        /* \"Taxpayer.sol\":6718:6740  calculateTax(200) == 0 */\n      eq\n        /* \"Taxpayer.sol\":6711:6740  return calculateTax(200) == 0 */\n      swap1\n      pop\n      jump(tag_329)\n        /* \"Taxpayer.sol\":6675:6774  if(income <= tax_allowance) {... */\n    tag_330:\n        /* \"Taxpayer.sol\":6786:6790  true */\n      0x01\n        /* \"Taxpayer.sol\":6779:6790  return true */\n      swap1\n      pop\n        /* \"Taxpayer.sol\":6600:6795  function echidna_no_tax_below_allowance() public view returns (bool) {... */\n    tag_329:\n      swap1\n      jump\t// out\n        /* \"Taxpayer.sol\":7075:7322  function echidna_age_allowance_base_consistency_single() public view returns (bool) {... */\n    tag_124:\n        /* \"Taxpayer.sol\":7153:7157  bool */\n      0x00\n        /* \"Taxpayer.sol\":7186:7187  0 */\n      0x00\n        /* \"Taxpayer.sol\":7168:7188  spouse != address(0) */\n      0xffffffffffffffffffffffffffffffffffffffff\n      and\n        /* \"Taxpayer.sol\":7168:7174  spouse */\n      0x01\n      0x02\n      swap1\n      sload\n      swap1\n      0x0100\n      exp\n      swap1\n      div\n      0xffffffffffffffffffffffffffffffffffffffff\n      and\n        /* \"Taxpayer.sol\":7168:7188  spouse != address(0) */\n      0xffffffffffffffffffffffffffffffffffffffff\n      and\n      eq\n      iszero\n        /* \"Taxpayer.sol\":7168:7201  spouse != address(0) || isMarried */\n      dup1\n      tag_333\n      jumpi\n      pop\n        /* \"Taxpayer.sol\":7192:7201  isMarried */\n      0x01\n      0x00\n      swap1\n      sload\n      swap1\n      0x0100\n      exp\n      swap1\n      div\n      0xff\n      and\n        /* \"Taxpayer.sol\":7168:7201  spouse != address(0) || isMarried */\n    tag_333:\n        /* \"Taxpayer.sol\":7165:7261  if(spouse != address(0) || isMarried) {... */\n      iszero\n      tag_334\n      jumpi\n        /* \"Taxpayer.sol\":7218:7222  true */\n      0x01\n        /* \"Taxpayer.sol\":7211:7222  return true */\n      swap1\n      pop\n      jump(tag_332)\n        /* \"Taxpayer.sol\":7165:7261  if(spouse != address(0) || isMarried) {... */\n    tag_334:\n        /* \"Taxpayer.sol\":7290:7317  determineDefaultAllowance() */\n      tag_335\n        /* \"Taxpayer.sol\":7290:7315  determineDefaultAllowance */\n      tag_251\n        /* \"Taxpayer.sol\":7290:7317  determineDefaultAllowance() */\n      jump\t// in\n    tag_335:\n        /* \"Taxpayer.sol\":7273:7286  tax_allowance */\n      sload(0x04)\n        /* \"Taxpayer.sol\":7273:7317  tax_allowance == determineDefaultAllowance() */\n      eq\n        /* \"Taxpayer.sol\":7266:7317  return tax_allowance == determineDefaultAllowance() */\n      swap1\n      pop\n        /* \"Taxpayer.sol\":7075:7322  function echidna_age_allowance_base_consistency_single() public view returns (bool) {... */\n    tag_332:\n      swap1\n      jump\t// out\n        /* \"Taxpayer.sol\":680:698  uint256 public rev */\n    tag_127:\n      sload(0x06)\n      dup2\n      jump\t// out\n        /* \"Taxpayer.sol\":2188:3808  function marry(address new_spouse) public onlyOwner {... */\n    tag_131:\n        /* \"Taxpayer.sol\":2074:2079  owner */\n      immutable(\"0x7d94b1fd5befe75fac04677148728067a5c7750c4535d59cf8d692301dae078c\")\n        /* \"Taxpayer.sol\":2060:2079  msg.sender == owner */\n      0xffffffffffffffffffffffffffffffffffffffff\n      and\n        /* \"Taxpayer.sol\":2060:2070  msg.sender */\n      caller\n        /* \"Taxpayer.sol\":2060:2079  msg.sender == owner */\n      0xffffffffffffffffffffffffffffffffffffffff\n      and\n      eq\n        /* \"Taxpayer.sol\":2052:2094  require(msg.sender == owner, \"Only owner\") */\n      tag_337\n      jumpi\n      mload(0x40)\n      0x08c379a000000000000000000000000000000000000000000000000000000000\n      dup2\n      mstore\n      0x04\n      add\n      tag_338\n      swap1\n      tag_186\n      jump\t// in\n    tag_338:\n      mload(0x40)\n      dup1\n      swap2\n      sub\n      swap1\n      revert\n    tag_337:\n        /* \"Taxpayer.sol\":2253:2262  isMarried */\n      0x01\n      0x00\n      swap1\n      sload\n      swap1\n      0x0100\n      exp\n      swap1\n      div\n      0xff\n      and\n        /* \"Taxpayer.sol\":2252:2262  !isMarried */\n      iszero\n        /* \"Taxpayer.sol\":2244:2287  require(!isMarried, \"I am already married\") */\n      tag_340\n      jumpi\n      mload(0x40)\n      0x08c379a000000000000000000000000000000000000000000000000000000000\n      dup2\n      mstore\n      0x04\n      add\n      tag_341\n      swap1\n      tag_342\n      jump\t// in\n    tag_341:\n      mload(0x40)\n      dup1\n      swap2\n      sub\n      swap1\n      revert\n    tag_340:\n        /* \"Taxpayer.sol\":2321:2322  0 */\n      0x00\n        /* \"Taxpayer.sol\":2299:2323  new_spouse != address(0) */\n      0xffffffffffffffffffffffffffffffffffffffff\n      and\n        /* \"Taxpayer.sol\":2299:2309  new_spouse */\n      dup2\n        /* \"Taxpayer.sol\":2299:2323  new_spouse != address(0) */\n      0xffffffffffffffffffffffffffffffffffffffff\n      and\n      sub\n        /* \"Taxpayer.sol\":2291:2357  require(new_spouse != address(0), \"Spouse cannot be zero address\") */\n      tag_343\n      jumpi\n      mload(0x40)\n      0x08c379a000000000000000000000000000000000000000000000000000000000\n      dup2\n      mstore\n      0x04\n      add\n      tag_344\n      swap1\n      tag_345\n      jump\t// in\n    tag_344:\n      mload(0x40)\n      dup1\n      swap2\n      sub\n      swap1\n      revert\n    tag_343:\n        /* \"Taxpayer.sol\":2391:2395  this */\n      address\n        /* \"Taxpayer.sol\":2369:2396  new_spouse != address(this) */\n      0xffffffffffffffffffffffffffffffffffffffff\n      and\n        /* \"Taxpayer.sol\":2369:2379  new_spouse */\n      dup2\n        /* \"Taxpayer.sol\":2369:2396  new_spouse != address(this) */\n      0xffffffffffffffffffffffffffffffffffffffff\n      and\n      sub\n        /* \"Taxpayer.sol\":2361:2420  require(new_spouse != address(this), \"Cannot marry myself\") */\n      tag_346\n      jumpi\n      mload(0x40)\n      0x08c379a000000000000000000000000000000000000000000000000000000000\n      dup2\n      mstore\n      0x04\n      add\n      tag_347\n      swap1\n      tag_348\n      jump\t// in\n    tag_347:\n      mload(0x40)\n      dup1\n      swap2\n      sub\n      swap1\n      revert\n    tag_346:\n        /* \"Taxpayer.sol\":2460:2461  0 */\n      0x00\n        /* \"Taxpayer.sol\":2435:2445  new_spouse */\n      dup2\n        /* \"Taxpayer.sol\":2435:2457  new_spouse.code.length */\n      0xffffffffffffffffffffffffffffffffffffffff\n      and\n      extcodesize\n        /* \"Taxpayer.sol\":2435:2461  new_spouse.code.length > 0 */\n      gt\n        /* \"Taxpayer.sol\":2427:2491  require(new_spouse.code.length > 0, \"Spouse must be a contract\") */\n      tag_349\n      jumpi\n      mload(0x40)\n      0x08c379a000000000000000000000000000000000000000000000000000000000\n      dup2\n      mstore\n      0x04\n      add\n      tag_350\n      swap1\n      tag_351\n      jump\t// in\n    tag_350:\n      mload(0x40)\n      dup1\n      swap2\n      sub\n      swap1\n      revert\n    tag_349:\n        /* \"Taxpayer.sol\":2623:2642  bool partnerMarried */\n      0x00\n        /* \"Taxpayer.sol\":2659:2669  new_spouse */\n      dup2\n        /* \"Taxpayer.sol\":2650:2683  Taxpayer(new_spouse).getIsMarried */\n      0xffffffffffffffffffffffffffffffffffffffff\n      and\n      0x8bc87745\n        /* \"Taxpayer.sol\":2650:2685  Taxpayer(new_spouse).getIsMarried() */\n      mload(0x40)\n      dup2\n      0xffffffff\n      and\n      0xe0\n      shl\n      dup2\n      mstore\n      0x04\n      add\n      0x20\n      mload(0x40)\n      dup1\n      dup4\n      sub\n      dup2\n      dup7\n      gas\n      staticcall\n      swap3\n      pop\n      pop\n      pop\n      dup1\n      iszero\n      tag_352\n      jumpi\n      pop\n      mload(0x40)\n      returndatasize\n      not(0x1f)\n      0x1f\n      dup3\n      add\n      and\n      dup3\n      add\n      dup1\n      0x40\n      mstore\n      pop\n      dup2\n      add\n      swap1\n      tag_353\n      swap2\n      swap1\n      tag_175\n      jump\t// in\n    tag_353:\n      0x01\n    tag_352:\n        /* \"Taxpayer.sol\":2646:2783  try Taxpayer(new_spouse).getIsMarried() returns (bool pm) {... */\n      tag_354\n      jumpi\n        /* \"Taxpayer.sol\":2747:2778  revert(\"Spouse not compatible\") */\n      mload(0x40)\n      0x08c379a000000000000000000000000000000000000000000000000000000000\n      dup2\n      mstore\n      0x04\n      add\n      tag_358\n      swap1\n      tag_359\n      jump\t// in\n    tag_358:\n      mload(0x40)\n      dup1\n      swap2\n      sub\n      swap1\n      revert\n        /* \"Taxpayer.sol\":2646:2783  try Taxpayer(new_spouse).getIsMarried() returns (bool pm) {... */\n    tag_354:\n        /* \"Taxpayer.sol\":2727:2729  pm */\n      dup1\n        /* \"Taxpayer.sol\":2710:2729  partnerMarried = pm */\n      swap2\n      pop\n        /* \"Taxpayer.sol\":2686:2734  returns (bool pm) {... */\n      pop\n        /* \"Taxpayer.sol\":2795:2809  partnerMarried */\n      dup1\n        /* \"Taxpayer.sol\":2794:2809  !partnerMarried */\n      iszero\n        /* \"Taxpayer.sol\":2786:2836  require(!partnerMarried, \"Spouse already married\") */\n      tag_361\n      jumpi\n      mload(0x40)\n      0x08c379a000000000000000000000000000000000000000000000000000000000\n      dup2\n      mstore\n      0x04\n      add\n      tag_362\n      swap1\n      tag_363\n      jump\t// in\n    tag_362:\n      mload(0x40)\n      dup1\n      swap2\n      sub\n      swap1\n      revert\n    tag_361:\n        /* \"Taxpayer.sol\":2841:2858  address oldSpouse */\n      0x00\n        /* \"Taxpayer.sol\":2861:2867  spouse */\n      0x01\n      0x02\n      swap1\n      sload\n      swap1\n      0x0100\n      exp\n      swap1\n      div\n      0xffffffffffffffffffffffffffffffffffffffff\n      and\n        /* \"Taxpayer.sol\":2841:2867  address oldSpouse = spouse */\n      swap1\n      pop\n        /* \"Taxpayer.sol\":2871:2893  address newSpouseLocal */\n      0x00\n        /* \"Taxpayer.sol\":2897:2907  new_spouse */\n      dup4\n        /* \"Taxpayer.sol\":2871:2907  address newSpouseLocal =  new_spouse */\n      swap1\n      pop\n        /* \"Taxpayer.sol\":2911:2931  uint oldTaxAllowance */\n      0x00\n        /* \"Taxpayer.sol\":2934:2947  tax_allowance */\n      sload(0x04)\n        /* \"Taxpayer.sol\":2911:2947  uint oldTaxAllowance = tax_allowance */\n      swap1\n      pop\n        /* \"Taxpayer.sol\":2977:2991  newSpouseLocal */\n      dup2\n        /* \"Taxpayer.sol\":2968:2974  spouse */\n      0x01\n      0x02\n        /* \"Taxpayer.sol\":2968:2991  spouse = newSpouseLocal */\n      0x0100\n      exp\n      dup2\n      sload\n      dup2\n      0xffffffffffffffffffffffffffffffffffffffff\n      mul\n      not\n      and\n      swap1\n      dup4\n      0xffffffffffffffffffffffffffffffffffffffff\n      and\n      mul\n      or\n      swap1\n      sstore\n      pop\n        /* \"Taxpayer.sol\":3007:3011  true */\n      0x01\n        /* \"Taxpayer.sol\":2995:3004  isMarried */\n      dup1\n      0x00\n        /* \"Taxpayer.sol\":2995:3011  isMarried = true */\n      0x0100\n      exp\n      dup2\n      sload\n      dup2\n      0xff\n      mul\n      not\n      and\n      swap1\n      dup4\n      iszero\n      iszero\n      mul\n      or\n      swap1\n      sstore\n      pop\n        /* \"Taxpayer.sol\":3031:3058  determineDefaultAllowance() */\n      tag_364\n        /* \"Taxpayer.sol\":3031:3056  determineDefaultAllowance */\n      tag_251\n        /* \"Taxpayer.sol\":3031:3058  determineDefaultAllowance() */\n      jump\t// in\n    tag_364:\n        /* \"Taxpayer.sol\":3015:3028  tax_allowance */\n      0x04\n        /* \"Taxpayer.sol\":3015:3058  tax_allowance = determineDefaultAllowance() */\n      dup2\n      swap1\n      sstore\n      pop\n        /* \"Taxpayer.sol\":3188:3194  spouse */\n      0x01\n      0x02\n      swap1\n      sload\n      swap1\n      0x0100\n      exp\n      swap1\n      div\n      0xffffffffffffffffffffffffffffffffffffffff\n      and\n        /* \"Taxpayer.sol\":3179:3221  Taxpayer(spouse).updateMarriageFromPartner */\n      0xffffffffffffffffffffffffffffffffffffffff\n      and\n      0xcb01a92b\n        /* \"Taxpayer.sol\":3230:3234  this */\n      address\n        /* \"Taxpayer.sol\":3179:3236  Taxpayer(spouse).updateMarriageFromPartner(address(this)) */\n      mload(0x40)\n      dup3\n      0xffffffff\n      and\n      0xe0\n      shl\n      dup2\n      mstore\n      0x04\n      add\n      tag_365\n      swap2\n      swap1\n      tag_53\n      jump\t// in\n    tag_365:\n      0x00\n      mload(0x40)\n      dup1\n      dup4\n      sub\n      dup2\n      0x00\n      dup8\n      dup1\n      extcodesize\n      iszero\n      dup1\n      iszero\n      tag_366\n      jumpi\n      revert(0x00, 0x00)\n    tag_366:\n      pop\n      gas\n      call\n      swap3\n      pop\n      pop\n      pop\n      dup1\n      iszero\n      tag_367\n      jumpi\n      pop\n      0x01\n    tag_367:\n        /* \"Taxpayer.sol\":3175:3427  try Taxpayer(spouse).updateMarriageFromPartner(address(this)) {... */\n      tag_368\n      jumpi\n        /* \"Taxpayer.sol\":3313:3322  oldSpouse */\n      dup3\n        /* \"Taxpayer.sol\":3304:3310  spouse */\n      0x01\n      0x02\n        /* \"Taxpayer.sol\":3304:3322  spouse = oldSpouse */\n      0x0100\n      exp\n      dup2\n      sload\n      dup2\n      0xffffffffffffffffffffffffffffffffffffffff\n      mul\n      not\n      and\n      swap1\n      dup4\n      0xffffffffffffffffffffffffffffffffffffffff\n      and\n      mul\n      or\n      swap1\n      sstore\n      pop\n        /* \"Taxpayer.sol\":3340:3345  false */\n      0x00\n        /* \"Taxpayer.sol\":3328:3337  isMarried */\n      0x01\n      0x00\n        /* \"Taxpayer.sol\":3328:3345  isMarried = false */\n      0x0100\n      exp\n      dup2\n      sload\n      dup2\n      0xff\n      mul\n      not\n      and\n      swap1\n      dup4\n      iszero\n      iszero\n      mul\n      or\n      swap1\n      sstore\n      pop\n        /* \"Taxpayer.sol\":3367:3382  oldTaxAllowance */\n      dup1\n        /* \"Taxpayer.sol\":3351:3364  tax_allowance */\n      0x04\n        /* \"Taxpayer.sol\":3351:3382  tax_allowance = oldTaxAllowance */\n      dup2\n      swap1\n      sstore\n      pop\n        /* \"Taxpayer.sol\":3388:3422  revert(\"Failed to update partner\") */\n      mload(0x40)\n      0x08c379a000000000000000000000000000000000000000000000000000000000\n      dup2\n      mstore\n      0x04\n      add\n      tag_372\n      swap1\n      tag_373\n      jump\t// in\n    tag_372:\n      mload(0x40)\n      dup1\n      swap2\n      sub\n      swap1\n      revert\n        /* \"Taxpayer.sol\":3175:3427  try Taxpayer(spouse).updateMarriageFromPartner(address(this)) {... */\n    tag_368:\n        /* \"Taxpayer.sol\":3478:3492  newSpouseLocal */\n      dup2\n        /* \"Taxpayer.sol\":3469:3509  Taxpayer(newSpouseLocal).setTaxAllowance */\n      0xffffffffffffffffffffffffffffffffffffffff\n      and\n      0x25803d64\n        /* \"Taxpayer.sol\":3519:3533  newSpouseLocal */\n      dup4\n        /* \"Taxpayer.sol\":3510:3554  Taxpayer(newSpouseLocal).getDefaultAllowance */\n      0xffffffffffffffffffffffffffffffffffffffff\n      and\n      0x594db753\n        /* \"Taxpayer.sol\":3510:3556  Taxpayer(newSpouseLocal).getDefaultAllowance() */\n      mload(0x40)\n      dup2\n      0xffffffff\n      and\n      0xe0\n      shl\n      dup2\n      mstore\n      0x04\n      add\n      0x20\n      mload(0x40)\n      dup1\n      dup4\n      sub\n      dup2\n      dup7\n      gas\n      staticcall\n      iszero\n      dup1\n      iszero\n      tag_376\n      jumpi\n      returndatacopy(0x00, 0x00, returndatasize)\n      revert(0x00, returndatasize)\n    tag_376:\n      pop\n      pop\n      pop\n      pop\n      mload(0x40)\n      returndatasize\n      not(0x1f)\n      0x1f\n      dup3\n      add\n      and\n      dup3\n      add\n      dup1\n      0x40\n      mstore\n      pop\n      dup2\n      add\n      swap1\n      tag_377\n      swap2\n      swap1\n      tag_378\n      jump\t// in\n    tag_377:\n        /* \"Taxpayer.sol\":3469:3557  Taxpayer(newSpouseLocal).setTaxAllowance(Taxpayer(newSpouseLocal).getDefaultAllowance()) */\n      mload(0x40)\n      dup3\n      0xffffffff\n      and\n      0xe0\n      shl\n      dup2\n      mstore\n      0x04\n      add\n      tag_379\n      swap2\n      swap1\n      tag_81\n      jump\t// in\n    tag_379:\n      0x00\n      mload(0x40)\n      dup1\n      dup4\n      sub\n      dup2\n      dup7\n      dup1\n      extcodesize\n      iszero\n      dup1\n      iszero\n      tag_380\n      jumpi\n      revert(0x00, 0x00)\n    tag_380:\n      pop\n      gas\n      staticcall\n      swap3\n      pop\n      pop\n      pop\n      dup1\n      iszero\n      tag_381\n      jumpi\n      pop\n      0x01\n    tag_381:\n        /* \"Taxpayer.sol\":3465:3755  try Taxpayer(newSpouseLocal).setTaxAllowance(Taxpayer(newSpouseLocal).getDefaultAllowance()) {... */\n      tag_382\n      jumpi\n        /* \"Taxpayer.sol\":3634:3643  oldSpouse */\n      dup3\n        /* \"Taxpayer.sol\":3625:3631  spouse */\n      0x01\n      0x02\n        /* \"Taxpayer.sol\":3625:3643  spouse = oldSpouse */\n      0x0100\n      exp\n      dup2\n      sload\n      dup2\n      0xffffffffffffffffffffffffffffffffffffffff\n      mul\n      not\n      and\n      swap1\n      dup4\n      0xffffffffffffffffffffffffffffffffffffffff\n      and\n      mul\n      or\n      swap1\n      sstore\n      pop\n        /* \"Taxpayer.sol\":3661:3666  false */\n      0x00\n        /* \"Taxpayer.sol\":3649:3658  isMarried */\n      0x01\n      0x00\n        /* \"Taxpayer.sol\":3649:3666  isMarried = false */\n      0x0100\n      exp\n      dup2\n      sload\n      dup2\n      0xff\n      mul\n      not\n      and\n      swap1\n      dup4\n      iszero\n      iszero\n      mul\n      or\n      swap1\n      sstore\n      pop\n        /* \"Taxpayer.sol\":3688:3703  oldTaxAllowance */\n      dup1\n        /* \"Taxpayer.sol\":3672:3685  tax_allowance */\n      0x04\n        /* \"Taxpayer.sol\":3672:3703  tax_allowance = oldTaxAllowance */\n      dup2\n      swap1\n      sstore\n      pop\n        /* \"Taxpayer.sol\":3709:3750  revert(\"Failed to set partner allowance\") */\n      mload(0x40)\n      0x08c379a000000000000000000000000000000000000000000000000000000000\n      dup2\n      mstore\n      0x04\n      add\n      tag_386\n      swap1\n      tag_387\n      jump\t// in\n    tag_386:\n      mload(0x40)\n      dup1\n      swap2\n      sub\n      swap1\n      revert\n        /* \"Taxpayer.sol\":3465:3755  try Taxpayer(newSpouseLocal).setTaxAllowance(Taxpayer(newSpouseLocal).getDefaultAllowance()) {... */\n    tag_382:\n        /* \"Taxpayer.sol\":3788:3802  newSpouseLocal */\n      dup2\n        /* \"Taxpayer.sol\":3765:3803  Married(address(this), newSpouseLocal) */\n      0xffffffffffffffffffffffffffffffffffffffff\n      and\n        /* \"Taxpayer.sol\":3781:3785  this */\n      address\n        /* \"Taxpayer.sol\":3765:3803  Married(address(this), newSpouseLocal) */\n      0xffffffffffffffffffffffffffffffffffffffff\n      and\n      0xc89ef770a4ad395ebdc22b63de541b88daf19f335056f203fa06e4154b62bb7b\n      mload(0x40)\n      mload(0x40)\n      dup1\n      swap2\n      sub\n      swap1\n      log3\n        /* \"Taxpayer.sol\":2240:3808  {... */\n      pop\n      pop\n      pop\n      pop\n        /* \"Taxpayer.sol\":2188:3808  function marry(address new_spouse) public onlyOwner {... */\n      pop\n      jump\t// out\n        /* \"Taxpayer.sol\":11630:11714  function getTaxAllowance() public view returns(uint) {... */\n    tag_133:\n        /* \"Taxpayer.sol\":11677:11681  uint */\n      0x00\n        /* \"Taxpayer.sol\":11696:11709  tax_allowance */\n      sload(0x04)\n        /* \"Taxpayer.sol\":11689:11709  return tax_allowance */\n      swap1\n      pop\n        /* \"Taxpayer.sol\":11630:11714  function getTaxAllowance() public view returns(uint) {... */\n      swap1\n      jump\t// out\n        /* \"Taxpayer.sol\":6464:6596  function echidna_taxable_non_negative() public view returns (bool) {... */\n    tag_136:\n        /* \"Taxpayer.sol\":6525:6529  bool */\n      0x00\n        /* \"Taxpayer.sol\":6563:6564  0 */\n      0x00\n        /* \"Taxpayer.sol\":6544:6559  taxableIncome() */\n      tag_391\n        /* \"Taxpayer.sol\":6544:6557  taxableIncome */\n      tag_79\n        /* \"Taxpayer.sol\":6544:6559  taxableIncome() */\n      jump\t// in\n    tag_391:\n        /* \"Taxpayer.sol\":6544:6564  taxableIncome() >= 0 */\n      lt\n      iszero\n        /* \"Taxpayer.sol\":6537:6564  return taxableIncome() >= 0 */\n      swap1\n      pop\n        /* \"Taxpayer.sol\":6464:6596  function echidna_taxable_non_negative() public view returns (bool) {... */\n      swap1\n      jump\t// out\n        /* \"Taxpayer.sol\":3861:4037  function updateMarriageFromPartner(address partner) public {... */\n    tag_140:\n        /* \"Taxpayer.sol\":3948:3955  partner */\n      dup1\n        /* \"Taxpayer.sol\":3934:3955  msg.sender == partner */\n      0xffffffffffffffffffffffffffffffffffffffff\n      and\n        /* \"Taxpayer.sol\":3934:3944  msg.sender */\n      caller\n        /* \"Taxpayer.sol\":3934:3955  msg.sender == partner */\n      0xffffffffffffffffffffffffffffffffffffffff\n      and\n      eq\n        /* \"Taxpayer.sol\":3926:3986  require(msg.sender == partner, \"Only partner can call this\") */\n      tag_393\n      jumpi\n      mload(0x40)\n      0x08c379a000000000000000000000000000000000000000000000000000000000\n      dup2\n      mstore\n      0x04\n      add\n      tag_394\n      swap1\n      tag_395\n      jump\t// in\n    tag_394:\n      mload(0x40)\n      dup1\n      swap2\n      sub\n      swap1\n      revert\n    tag_393:\n        /* \"Taxpayer.sol\":3992:4010  setSpouse(partner) */\n      tag_396\n        /* \"Taxpayer.sol\":4002:4009  partner */\n      dup2\n        /* \"Taxpayer.sol\":3992:4001  setSpouse */\n      tag_91\n        /* \"Taxpayer.sol\":3992:4010  setSpouse(partner) */\n      jump\t// in\n    tag_396:\n        /* \"Taxpayer.sol\":4028:4032  true */\n      0x01\n        /* \"Taxpayer.sol\":4016:4025  isMarried */\n      dup1\n      0x00\n        /* \"Taxpayer.sol\":4016:4032  isMarried = true */\n      0x0100\n      exp\n      dup2\n      sload\n      dup2\n      0xff\n      mul\n      not\n      and\n      swap1\n      dup4\n      iszero\n      iszero\n      mul\n      or\n      swap1\n      sstore\n      pop\n        /* \"Taxpayer.sol\":3861:4037  function updateMarriageFromPartner(address partner) public {... */\n      pop\n      jump\t// out\n        /* \"Taxpayer.sol\":9307:9573  function echidna_rev_reset_after_reveal() public view returns(bool) {... */\n    tag_142:\n        /* \"Taxpayer.sol\":9369:9373  bool */\n      0x00\n        /* \"Taxpayer.sol\":9455:9464  committed */\n      0x07\n      0x00\n      swap1\n      sload\n      swap1\n      0x0100\n      exp\n      swap1\n      div\n      0xff\n      and\n        /* \"Taxpayer.sol\":9452:9569  if(committed) {... */\n      iszero\n      tag_398\n      jumpi\n        /* \"Taxpayer.sol\":9488:9489  0 */\n      0x00\n        /* \"Taxpayer.sol\":9481:9484  rev */\n      sload(0x06)\n        /* \"Taxpayer.sol\":9481:9489  rev != 0 */\n      eq\n      iszero\n        /* \"Taxpayer.sol\":9474:9489  return rev != 0 */\n      swap1\n      pop\n      jump(tag_397)\n        /* \"Taxpayer.sol\":9452:9569  if(committed) {... */\n    tag_398:\n        /* \"Taxpayer.sol\":9524:9525  0 */\n      0x00\n        /* \"Taxpayer.sol\":9517:9520  rev */\n      sload(0x06)\n        /* \"Taxpayer.sol\":9517:9525  rev == 0 */\n      eq\n        /* \"Taxpayer.sol\":9510:9525  return rev == 0 */\n      swap1\n      pop\n        /* \"Taxpayer.sol\":9307:9573  function echidna_rev_reset_after_reveal() public view returns(bool) {... */\n    tag_397:\n      swap1\n      jump\t// out\n        /* \"Taxpayer.sol\":4930:5060  function setTaxAllowanceBySpouse(uint ta) public {... */\n    tag_146:\n        /* \"Taxpayer.sol\":5005:5011  spouse */\n      0x01\n      0x02\n      swap1\n      sload\n      swap1\n      0x0100\n      exp\n      swap1\n      div\n      0xffffffffffffffffffffffffffffffffffffffff\n      and\n        /* \"Taxpayer.sol\":4991:5011  msg.sender == spouse */\n      0xffffffffffffffffffffffffffffffffffffffff\n      and\n        /* \"Taxpayer.sol\":4991:5001  msg.sender */\n      caller\n        /* \"Taxpayer.sol\":4991:5011  msg.sender == spouse */\n      0xffffffffffffffffffffffffffffffffffffffff\n      and\n      eq\n        /* \"Taxpayer.sol\":4983:5035  require(msg.sender == spouse, \"Only spouse can set\") */\n      tag_401\n      jumpi\n      mload(0x40)\n      0x08c379a000000000000000000000000000000000000000000000000000000000\n      dup2\n      mstore\n      0x04\n      add\n      tag_402\n      swap1\n      tag_403\n      jump\t// in\n    tag_402:\n      mload(0x40)\n      dup1\n      swap2\n      sub\n      swap1\n      revert\n    tag_401:\n        /* \"Taxpayer.sol\":5055:5057  ta */\n      dup1\n        /* \"Taxpayer.sol\":5039:5052  tax_allowance */\n      0x04\n        /* \"Taxpayer.sol\":5039:5057  tax_allowance = ta */\n      dup2\n      swap1\n      sstore\n      pop\n        /* \"Taxpayer.sol\":4930:5060  function setTaxAllowanceBySpouse(uint ta) public {... */\n      pop\n      jump\t// out\n        /* \"Taxpayer.sol\":7396:8647  function echidna_spousal_allowance_sum_constant() public view returns (bool) {... */\n    tag_148:\n        /* \"Taxpayer.sol\":7467:7471  bool */\n      0x00\n        /* \"Taxpayer.sol\":7484:7493  isMarried */\n      0x01\n      0x00\n      swap1\n      sload\n      swap1\n      0x0100\n      exp\n      swap1\n      div\n      0xff\n      and\n        /* \"Taxpayer.sol\":7483:7493  !isMarried */\n      iszero\n        /* \"Taxpayer.sol\":7483:7517  !isMarried || spouse == address(0) */\n      dup1\n      tag_405\n      jumpi\n      pop\n        /* \"Taxpayer.sol\":7515:7516  0 */\n      0x00\n        /* \"Taxpayer.sol\":7497:7517  spouse == address(0) */\n      0xffffffffffffffffffffffffffffffffffffffff\n      and\n        /* \"Taxpayer.sol\":7497:7503  spouse */\n      0x01\n      0x02\n      swap1\n      sload\n      swap1\n      0x0100\n      exp\n      swap1\n      div\n      0xffffffffffffffffffffffffffffffffffffffff\n      and\n        /* \"Taxpayer.sol\":7497:7517  spouse == address(0) */\n      0xffffffffffffffffffffffffffffffffffffffff\n      and\n      eq\n        /* \"Taxpayer.sol\":7483:7517  !isMarried || spouse == address(0) */\n    tag_405:\n        /* \"Taxpayer.sol\":7480:7566  if(!isMarried || spouse == address(0)) {... */\n      iszero\n      tag_406\n      jumpi\n        /* \"Taxpayer.sol\":7534:7538  true */\n      0x01\n        /* \"Taxpayer.sol\":7527:7538  return true */\n      swap1\n      pop\n      jump(tag_404)\n        /* \"Taxpayer.sol\":7480:7566  if(!isMarried || spouse == address(0)) {... */\n    tag_406:\n        /* \"Taxpayer.sol\":7572:7586  uint myCurrent */\n      0x00\n        /* \"Taxpayer.sol\":7589:7602  tax_allowance */\n      sload(0x04)\n        /* \"Taxpayer.sol\":7572:7602  uint myCurrent = tax_allowance */\n      swap1\n      pop\n        /* \"Taxpayer.sol\":7608:7624  Taxpayer partner */\n      0x00\n        /* \"Taxpayer.sol\":7636:7642  spouse */\n      0x01\n      0x02\n      swap1\n      sload\n      swap1\n      0x0100\n      exp\n      swap1\n      div\n      0xffffffffffffffffffffffffffffffffffffffff\n      and\n        /* \"Taxpayer.sol\":7608:7643  Taxpayer partner = Taxpayer(spouse) */\n      swap1\n      pop\n        /* \"Taxpayer.sol\":7650:7669  uint partnerCurrent */\n      0x00\n        /* \"Taxpayer.sol\":7675:7694  uint partnerInitial */\n      0x00\n        /* \"Taxpayer.sol\":7700:7716  uint partnerBase */\n      0x00\n        /* \"Taxpayer.sol\":7773:7780  partner */\n      dup4\n        /* \"Taxpayer.sol\":7773:7796  partner.getTaxAllowance */\n      0xffffffffffffffffffffffffffffffffffffffff\n      and\n      0xc043decc\n        /* \"Taxpayer.sol\":7773:7798  partner.getTaxAllowance() */\n      mload(0x40)\n      dup2\n      0xffffffff\n      and\n      0xe0\n      shl\n      dup2\n      mstore\n      0x04\n      add\n      0x20\n      mload(0x40)\n      dup1\n      dup4\n      sub\n      dup2\n      dup7\n      gas\n      staticcall\n      swap3\n      pop\n      pop\n      pop\n      dup1\n      iszero\n      tag_407\n      jumpi\n      pop\n      mload(0x40)\n      returndatasize\n      not(0x1f)\n      0x1f\n      dup3\n      add\n      and\n      dup3\n      add\n      dup1\n      0x40\n      mstore\n      pop\n      dup2\n      add\n      swap1\n      tag_408\n      swap2\n      swap1\n      tag_378\n      jump\t// in\n    tag_408:\n      0x01\n    tag_407:\n        /* \"Taxpayer.sol\":7769:7926  try partner.getTaxAllowance() returns (uint pc) {... */\n      tag_409\n      jumpi\n        /* \"Taxpayer.sol\":7873:7878  false */\n      0x00\n        /* \"Taxpayer.sol\":7866:7878  return false */\n      swap6\n      pop\n      pop\n      pop\n      pop\n      pop\n      pop\n      jump(tag_404)\n        /* \"Taxpayer.sol\":7769:7926  try partner.getTaxAllowance() returns (uint pc) {... */\n    tag_409:\n        /* \"Taxpayer.sol\":7842:7844  pc */\n      dup1\n        /* \"Taxpayer.sol\":7825:7844  partnerCurrent = pc */\n      swap4\n      pop\n        /* \"Taxpayer.sol\":7799:7851  returns (uint pc) {... */\n      pop\n        /* \"Taxpayer.sol\":7985:7992  partner */\n      dup4\n        /* \"Taxpayer.sol\":7985:8015  partner.getInitialTaxAllowance */\n      0xffffffffffffffffffffffffffffffffffffffff\n      and\n      0x6aa393f8\n        /* \"Taxpayer.sol\":7985:8017  partner.getInitialTaxAllowance() */\n      mload(0x40)\n      dup2\n      0xffffffff\n      and\n      0xe0\n      shl\n      dup2\n      mstore\n      0x04\n      add\n      0x20\n      mload(0x40)\n      dup1\n      dup4\n      sub\n      dup2\n      dup7\n      gas\n      staticcall\n      swap3\n      pop\n      pop\n      pop\n      dup1\n      iszero\n      tag_414\n      jumpi\n      pop\n      mload(0x40)\n      returndatasize\n      not(0x1f)\n      0x1f\n      dup3\n      add\n      and\n      dup3\n      add\n      dup1\n      0x40\n      mstore\n      pop\n      dup2\n      add\n      swap1\n      tag_415\n      swap2\n      swap1\n      tag_378\n      jump\t// in\n    tag_415:\n      0x01\n    tag_414:\n        /* \"Taxpayer.sol\":7981:8104  try partner.getInitialTaxAllowance() returns (uint pi) {... */\n      tag_416\n      jumpi\n        /* \"Taxpayer.sol\":8092:8097  false */\n      0x00\n        /* \"Taxpayer.sol\":8085:8097  return false */\n      swap6\n      pop\n      pop\n      pop\n      pop\n      pop\n      pop\n      jump(tag_404)\n        /* \"Taxpayer.sol\":7981:8104  try partner.getInitialTaxAllowance() returns (uint pi) {... */\n    tag_416:\n        /* \"Taxpayer.sol\":8061:8063  pi */\n      dup1\n        /* \"Taxpayer.sol\":8044:8063  partnerInitial = pi */\n      swap3\n      pop\n        /* \"Taxpayer.sol\":8018:8070  returns (uint pi) {... */\n      pop\n        /* \"Taxpayer.sol\":8183:8190  partner */\n      dup4\n        /* \"Taxpayer.sol\":8183:8210  partner.getDefaultAllowance */\n      0xffffffffffffffffffffffffffffffffffffffff\n      and\n      0x594db753\n        /* \"Taxpayer.sol\":8183:8212  partner.getDefaultAllowance() */\n      mload(0x40)\n      dup2\n      0xffffffff\n      and\n      0xe0\n      shl\n      dup2\n      mstore\n      0x04\n      add\n      0x20\n      mload(0x40)\n      dup1\n      dup4\n      sub\n      dup2\n      dup7\n      gas\n      staticcall\n      swap3\n      pop\n      pop\n      pop\n      dup1\n      iszero\n      tag_421\n      jumpi\n      pop\n      mload(0x40)\n      returndatasize\n      not(0x1f)\n      0x1f\n      dup3\n      add\n      and\n      dup3\n      add\n      dup1\n      0x40\n      mstore\n      pop\n      dup2\n      add\n      swap1\n      tag_422\n      swap2\n      swap1\n      tag_378\n      jump\t// in\n    tag_422:\n      0x01\n    tag_421:\n        /* \"Taxpayer.sol\":8179:8296  try partner.getDefaultAllowance() returns (uint pb) {... */\n      tag_423\n      jumpi\n        /* \"Taxpayer.sol\":8284:8289  false */\n      0x00\n        /* \"Taxpayer.sol\":8277:8289  return false */\n      swap6\n      pop\n      pop\n      pop\n      pop\n      pop\n      pop\n      jump(tag_404)\n        /* \"Taxpayer.sol\":8179:8296  try partner.getDefaultAllowance() returns (uint pb) {... */\n    tag_423:\n        /* \"Taxpayer.sol\":8253:8255  pb */\n      dup1\n        /* \"Taxpayer.sol\":8239:8255  partnerBase = pb */\n      swap2\n      pop\n        /* \"Taxpayer.sol\":8213:8262  returns (uint pb) {... */\n      pop\n        /* \"Taxpayer.sol\":8302:8313  uint myBase */\n      0x00\n        /* \"Taxpayer.sol\":8316:8343  determineDefaultAllowance() */\n      tag_428\n        /* \"Taxpayer.sol\":8316:8341  determineDefaultAllowance */\n      tag_251\n        /* \"Taxpayer.sol\":8316:8343  determineDefaultAllowance() */\n      jump\t// in\n    tag_428:\n        /* \"Taxpayer.sol\":8302:8343  uint myBase = determineDefaultAllowance() */\n      swap1\n      pop\n        /* \"Taxpayer.sol\":8435:8452  bool checkInitial */\n      0x00\n        /* \"Taxpayer.sol\":8512:8526  partnerInitial */\n      dup4\n        /* \"Taxpayer.sol\":8488:8509  INITIAL_TAX_ALLOWANCE */\n      immutable(\"0xe54f8e4a5d17b2e4d97cb94ddb2a2b00b3620f93c06158e24f4515b3f1ad0dd8\")\n        /* \"Taxpayer.sol\":8488:8526  INITIAL_TAX_ALLOWANCE + partnerInitial */\n      tag_429\n      swap2\n      swap1\n      tag_224\n      jump\t// in\n    tag_429:\n        /* \"Taxpayer.sol\":8468:8482  partnerCurrent */\n      dup6\n        /* \"Taxpayer.sol\":8456:8465  myCurrent */\n      dup9\n        /* \"Taxpayer.sol\":8456:8482  myCurrent + partnerCurrent */\n      tag_430\n      swap2\n      swap1\n      tag_224\n      jump\t// in\n    tag_430:\n        /* \"Taxpayer.sol\":8455:8527  (myCurrent + partnerCurrent) == (INITIAL_TAX_ALLOWANCE + partnerInitial) */\n      eq\n        /* \"Taxpayer.sol\":8435:8527  bool checkInitial = (myCurrent + partnerCurrent) == (INITIAL_TAX_ALLOWANCE + partnerInitial) */\n      swap1\n      pop\n        /* \"Taxpayer.sol\":8533:8546  bool checkOAP */\n      0x00\n        /* \"Taxpayer.sol\":8591:8602  partnerBase */\n      dup4\n        /* \"Taxpayer.sol\":8582:8588  myBase */\n      dup4\n        /* \"Taxpayer.sol\":8582:8602  myBase + partnerBase */\n      tag_431\n      swap2\n      swap1\n      tag_224\n      jump\t// in\n    tag_431:\n        /* \"Taxpayer.sol\":8562:8576  partnerCurrent */\n      dup7\n        /* \"Taxpayer.sol\":8550:8559  myCurrent */\n      dup10\n        /* \"Taxpayer.sol\":8550:8576  myCurrent + partnerCurrent */\n      tag_432\n      swap2\n      swap1\n      tag_224\n      jump\t// in\n    tag_432:\n        /* \"Taxpayer.sol\":8549:8603  (myCurrent + partnerCurrent) <= (myBase + partnerBase) */\n      gt\n      iszero\n        /* \"Taxpayer.sol\":8533:8603  bool checkOAP = (myCurrent + partnerCurrent) <= (myBase + partnerBase) */\n      swap1\n      pop\n        /* \"Taxpayer.sol\":8617:8629  checkInitial */\n      dup2\n        /* \"Taxpayer.sol\":8617:8641  checkInitial && checkOAP */\n      dup1\n      iszero\n      tag_433\n      jumpi\n      pop\n        /* \"Taxpayer.sol\":8633:8641  checkOAP */\n      dup1\n        /* \"Taxpayer.sol\":8617:8641  checkInitial && checkOAP */\n    tag_433:\n        /* \"Taxpayer.sol\":8610:8641  return checkInitial && checkOAP */\n      swap9\n      pop\n      pop\n      pop\n      pop\n      pop\n      pop\n      pop\n      pop\n      pop\n        /* \"Taxpayer.sol\":7396:8647  function echidna_spousal_allowance_sum_constant() public view returns (bool) {... */\n    tag_404:\n      swap1\n      jump\t// out\n        /* \"Taxpayer.sol\":6301:6404  function echidna_not_self_spouse() public view returns (bool) {... */\n    tag_151:\n        /* \"Taxpayer.sol\":6357:6361  bool */\n      0x00\n        /* \"Taxpayer.sol\":6394:6398  this */\n      address\n        /* \"Taxpayer.sol\":6376:6399  spouse != address(this) */\n      0xffffffffffffffffffffffffffffffffffffffff\n      and\n        /* \"Taxpayer.sol\":6376:6382  spouse */\n      0x01\n      0x02\n      swap1\n      sload\n      swap1\n      0x0100\n      exp\n      swap1\n      div\n      0xffffffffffffffffffffffffffffffffffffffff\n      and\n        /* \"Taxpayer.sol\":6376:6399  spouse != address(this) */\n      0xffffffffffffffffffffffffffffffffffffffff\n      and\n      eq\n      iszero\n        /* \"Taxpayer.sol\":6369:6399  return spouse != address(this) */\n      swap1\n      pop\n        /* \"Taxpayer.sol\":6301:6404  function echidna_not_self_spouse() public view returns (bool) {... */\n      swap1\n      jump\t// out\n        /* \"Taxpayer.sol\":4042:4625  function divorce() public onlyOwner {... */\n    tag_154:\n        /* \"Taxpayer.sol\":2074:2079  owner */\n      immutable(\"0x7d94b1fd5befe75fac04677148728067a5c7750c4535d59cf8d692301dae078c\")\n        /* \"Taxpayer.sol\":2060:2079  msg.sender == owner */\n      0xffffffffffffffffffffffffffffffffffffffff\n      and\n        /* \"Taxpayer.sol\":2060:2070  msg.sender */\n      caller\n        /* \"Taxpayer.sol\":2060:2079  msg.sender == owner */\n      0xffffffffffffffffffffffffffffffffffffffff\n      and\n      eq\n        /* \"Taxpayer.sol\":2052:2094  require(msg.sender == owner, \"Only owner\") */\n      tag_436\n      jumpi\n      mload(0x40)\n      0x08c379a000000000000000000000000000000000000000000000000000000000\n      dup2\n      mstore\n      0x04\n      add\n      tag_437\n      swap1\n      tag_186\n      jump\t// in\n    tag_437:\n      mload(0x40)\n      dup1\n      swap2\n      sub\n      swap1\n      revert\n    tag_436:\n        /* \"Taxpayer.sol\":4147:4156  isMarried */\n      0x01\n      0x00\n      swap1\n      sload\n      swap1\n      0x0100\n      exp\n      swap1\n      div\n      0xff\n      and\n        /* \"Taxpayer.sol\":4139:4172  require(isMarried, \"Not married\") */\n      tag_439\n      jumpi\n      mload(0x40)\n      0x08c379a000000000000000000000000000000000000000000000000000000000\n      dup2\n      mstore\n      0x04\n      add\n      tag_440\n      swap1\n      tag_441\n      jump\t// in\n    tag_440:\n      mload(0x40)\n      dup1\n      swap2\n      sub\n      swap1\n      revert\n    tag_439:\n        /* \"Taxpayer.sol\":4176:4193  address oldSpouse */\n      0x00\n        /* \"Taxpayer.sol\":4196:4202  spouse */\n      0x01\n      0x02\n      swap1\n      sload\n      swap1\n      0x0100\n      exp\n      swap1\n      div\n      0xffffffffffffffffffffffffffffffffffffffff\n      and\n        /* \"Taxpayer.sol\":4176:4202  address oldSpouse = spouse */\n      swap1\n      pop\n        /* \"Taxpayer.sol\":4243:4244  0 */\n      0x00\n        /* \"Taxpayer.sol\":4226:4232  spouse */\n      0x01\n      0x02\n        /* \"Taxpayer.sol\":4226:4245  spouse = address(0) */\n      0x0100\n      exp\n      dup2\n      sload\n      dup2\n      0xffffffffffffffffffffffffffffffffffffffff\n      mul\n      not\n      and\n      swap1\n      dup4\n      0xffffffffffffffffffffffffffffffffffffffff\n      and\n      mul\n      or\n      swap1\n      sstore\n      pop\n        /* \"Taxpayer.sol\":4261:4266  false */\n      0x00\n        /* \"Taxpayer.sol\":4249:4258  isMarried */\n      0x01\n      0x00\n        /* \"Taxpayer.sol\":4249:4266  isMarried = false */\n      0x0100\n      exp\n      dup2\n      sload\n      dup2\n      0xff\n      mul\n      not\n      and\n      swap1\n      dup4\n      iszero\n      iszero\n      mul\n      or\n      swap1\n      sstore\n      pop\n        /* \"Taxpayer.sol\":4322:4349  determineDefaultAllowance() */\n      tag_442\n        /* \"Taxpayer.sol\":4322:4347  determineDefaultAllowance */\n      tag_251\n        /* \"Taxpayer.sol\":4322:4349  determineDefaultAllowance() */\n      jump\t// in\n    tag_442:\n        /* \"Taxpayer.sol\":4306:4319  tax_allowance */\n      0x04\n        /* \"Taxpayer.sol\":4306:4349  tax_allowance = determineDefaultAllowance() */\n      dup2\n      swap1\n      sstore\n      pop\n        /* \"Taxpayer.sol\":4434:4435  0 */\n      0x00\n        /* \"Taxpayer.sol\":4413:4436  oldSpouse != address(0) */\n      0xffffffffffffffffffffffffffffffffffffffff\n      and\n        /* \"Taxpayer.sol\":4413:4422  oldSpouse */\n      dup2\n        /* \"Taxpayer.sol\":4413:4436  oldSpouse != address(0) */\n      0xffffffffffffffffffffffffffffffffffffffff\n      and\n      eq\n      iszero\n        /* \"Taxpayer.sol\":4413:4465  oldSpouse != address(0) && oldSpouse.code.length > 0 */\n      dup1\n      iszero\n      tag_443\n      jumpi\n      pop\n        /* \"Taxpayer.sol\":4464:4465  0 */\n      0x00\n        /* \"Taxpayer.sol\":4440:4449  oldSpouse */\n      dup2\n        /* \"Taxpayer.sol\":4440:4461  oldSpouse.code.length */\n      0xffffffffffffffffffffffffffffffffffffffff\n      and\n      extcodesize\n        /* \"Taxpayer.sol\":4440:4465  oldSpouse.code.length > 0 */\n      gt\n        /* \"Taxpayer.sol\":4413:4465  oldSpouse != address(0) && oldSpouse.code.length > 0 */\n    tag_443:\n        /* \"Taxpayer.sol\":4410:4621  if(oldSpouse != address(0) && oldSpouse.code.length > 0) {... */\n      iszero\n      tag_444\n      jumpi\n        /* \"Taxpayer.sol\":4486:4495  oldSpouse */\n      dup1\n        /* \"Taxpayer.sol\":4477:4521  Taxpayer(oldSpouse).notifyDivorceFromPartner */\n      0xffffffffffffffffffffffffffffffffffffffff\n      and\n      0x38fb27ba\n        /* \"Taxpayer.sol\":4530:4534  this */\n      address\n        /* \"Taxpayer.sol\":4477:4536  Taxpayer(oldSpouse).notifyDivorceFromPartner(address(this)) */\n      mload(0x40)\n      dup3\n      0xffffffff\n      and\n      0xe0\n      shl\n      dup2\n      mstore\n      0x04\n      add\n      tag_445\n      swap2\n      swap1\n      tag_53\n      jump\t// in\n    tag_445:\n      0x00\n      mload(0x40)\n      dup1\n      dup4\n      sub\n      dup2\n      0x00\n      dup8\n      dup1\n      extcodesize\n      iszero\n      dup1\n      iszero\n      tag_446\n      jumpi\n      revert(0x00, 0x00)\n    tag_446:\n      pop\n      gas\n      call\n      swap3\n      pop\n      pop\n      pop\n      dup1\n      iszero\n      tag_447\n      jumpi\n      pop\n      0x01\n    tag_447:\n        /* \"Taxpayer.sol\":4473:4617  try Taxpayer(oldSpouse).notifyDivorceFromPartner(address(this)) {... */\n      tag_448\n      jumpi\n        /* \"Taxpayer.sol\":4576:4610  revert(\"Failed to notify partner\") */\n      mload(0x40)\n      0x08c379a000000000000000000000000000000000000000000000000000000000\n      dup2\n      mstore\n      0x04\n      add\n      tag_452\n      swap1\n      tag_453\n      jump\t// in\n    tag_452:\n      mload(0x40)\n      dup1\n      swap2\n      sub\n      swap1\n      revert\n        /* \"Taxpayer.sol\":4473:4617  try Taxpayer(oldSpouse).notifyDivorceFromPartner(address(this)) {... */\n    tag_448:\n        /* \"Taxpayer.sol\":4410:4621  if(oldSpouse != address(0) && oldSpouse.code.length > 0) {... */\n    tag_444:\n        /* \"Taxpayer.sol\":4078:4625  {... */\n      pop\n        /* \"Taxpayer.sol\":4042:4625  function divorce() public onlyOwner {... */\n      jump\t// out\n        /* \"Taxpayer.sol\":938:1006  function getIncome() public view returns (uint) {... */\n    tag_156:\n        /* \"Taxpayer.sol\":980:984  uint */\n      0x00\n        /* \"Taxpayer.sol\":997:1003  income */\n      sload(0x05)\n        /* \"Taxpayer.sol\":990:1003  return income */\n      swap1\n      pop\n        /* \"Taxpayer.sol\":938:1006  function getIncome() public view returns (uint) {... */\n      swap1\n      jump\t// out\n        /* \"Taxpayer.sol\":11719:11794  function isContract() public view returns(bool){... */\n    tag_159:\n        /* \"Taxpayer.sol\":11761:11765  bool */\n      0x00\n        /* \"Taxpayer.sol\":11779:11789  iscontract */\n      0x01\n      dup1\n      sload\n      swap1\n      0x0100\n      exp\n      swap1\n      div\n      0xff\n      and\n        /* \"Taxpayer.sol\":11772:11789  return iscontract */\n      swap1\n      pop\n        /* \"Taxpayer.sol\":11719:11794  function isContract() public view returns(bool){... */\n      swap1\n      jump\t// out\n        /* \"Taxpayer.sol\":11219:11460  function isAuthorizedContract(address a) internal view returns (bool) {... */\n    tag_212:\n        /* \"Taxpayer.sol\":11283:11287  bool */\n      0x00\n        /* \"Taxpayer.sol\":11315:11316  0 */\n      0x00\n        /* \"Taxpayer.sol\":11298:11299  a */\n      dup3\n        /* \"Taxpayer.sol\":11298:11311  a.code.length */\n      0xffffffffffffffffffffffffffffffffffffffff\n      and\n      extcodesize\n        /* \"Taxpayer.sol\":11298:11316  a.code.length == 0 */\n      sub\n        /* \"Taxpayer.sol\":11295:11345  if(a.code.length == 0) {... */\n      tag_458\n      jumpi\n        /* \"Taxpayer.sol\":11333:11338  false */\n      0x00\n        /* \"Taxpayer.sol\":11326:11338  return false */\n      swap1\n      pop\n      jump(tag_457)\n        /* \"Taxpayer.sol\":11295:11345  if(a.code.length == 0) {... */\n    tag_458:\n        /* \"Taxpayer.sol\":11363:11364  a */\n      dup2\n        /* \"Taxpayer.sol\":11355:11376  Lottery(a).isContract */\n      0xffffffffffffffffffffffffffffffffffffffff\n      and\n      0xf7ec2f35\n        /* \"Taxpayer.sol\":11355:11378  Lottery(a).isContract() */\n      mload(0x40)\n      dup2\n      0xffffffff\n      and\n      0xe0\n      shl\n      dup2\n      mstore\n      0x04\n      add\n      0x20\n      mload(0x40)\n      dup1\n      dup4\n      sub\n      dup2\n      dup7\n      gas\n      staticcall\n      swap3\n      pop\n      pop\n      pop\n      dup1\n      iszero\n      tag_459\n      jumpi\n      pop\n      mload(0x40)\n      returndatasize\n      not(0x1f)\n      0x1f\n      dup3\n      add\n      and\n      dup3\n      add\n      dup1\n      0x40\n      mstore\n      pop\n      dup2\n      add\n      swap1\n      tag_460\n      swap2\n      swap1\n      tag_175\n      jump\t// in\n    tag_460:\n      0x01\n    tag_459:\n        /* \"Taxpayer.sol\":11351:11455  try Lottery(a).isContract() returns (bool ok) {... */\n      tag_461\n      jumpi\n        /* \"Taxpayer.sol\":11443:11448  false */\n      0x00\n        /* \"Taxpayer.sol\":11436:11448  return false */\n      swap1\n      pop\n      jump(tag_457)\n        /* \"Taxpayer.sol\":11351:11455  try Lottery(a).isContract() returns (bool ok) {... */\n    tag_461:\n        /* \"Taxpayer.sol\":11412:11414  ok */\n      dup1\n        /* \"Taxpayer.sol\":11405:11414  return ok */\n      swap2\n      pop\n      pop\n        /* \"Taxpayer.sol\":11219:11460  function isAuthorizedContract(address a) internal view returns (bool) {... */\n    tag_457:\n      swap2\n      swap1\n      pop\n      jump\t// out\n        /* \"Taxpayer.sol\":11470:11625  function determineDefaultAllowance() internal view returns (uint) {... */\n    tag_251:\n        /* \"Taxpayer.sol\":11530:11534  uint */\n      0x00\n        /* \"Taxpayer.sol\":11552:11554  65 */\n      0x41\n        /* \"Taxpayer.sol\":11545:11548  age */\n      sload(0x00)\n        /* \"Taxpayer.sol\":11545:11554  age >= 65 */\n      lt\n        /* \"Taxpayer.sol\":11542:11591  if(age >= 65) {... */\n      tag_467\n      jumpi\n        /* \"Taxpayer.sol\":502:506  9000 */\n      0x2328\n        /* \"Taxpayer.sol\":11564:11584  return ALLOWANCE_OAP */\n      swap1\n      pop\n      jump(tag_466)\n        /* \"Taxpayer.sol\":11542:11591  if(age >= 65) {... */\n    tag_467:\n        /* \"Taxpayer.sol\":398:402  5000 */\n      0x1388\n        /* \"Taxpayer.sol\":11596:11620  return DEFAULT_ALLOWANCE */\n      swap1\n      pop\n        /* \"Taxpayer.sol\":11470:11625  function determineDefaultAllowance() internal view returns (uint) {... */\n    tag_466:\n      swap1\n      jump\t// out\n        /* \"#utility.yul\":7:97   */\n    tag_468:\n        /* \"#utility.yul\":41:48   */\n      0x00\n        /* \"#utility.yul\":84:89   */\n      dup2\n        /* \"#utility.yul\":77:90   */\n      iszero\n        /* \"#utility.yul\":70:91   */\n      iszero\n        /* \"#utility.yul\":59:91   */\n      swap1\n      pop\n        /* \"#utility.yul\":7:97   */\n      swap2\n      swap1\n      pop\n      jump\t// out\n        /* \"#utility.yul\":103:212   */\n    tag_469:\n        /* \"#utility.yul\":184:205   */\n      tag_550\n        /* \"#utility.yul\":199:204   */\n      dup2\n        /* \"#utility.yul\":184:205   */\n      tag_468\n      jump\t// in\n    tag_550:\n        /* \"#utility.yul\":179:182   */\n      dup3\n        /* \"#utility.yul\":172:206   */\n      mstore\n        /* \"#utility.yul\":103:212   */\n      pop\n      pop\n      jump\t// out\n        /* \"#utility.yul\":218:428   */\n    tag_49:\n        /* \"#utility.yul\":305:309   */\n      0x00\n        /* \"#utility.yul\":343:345   */\n      0x20\n        /* \"#utility.yul\":332:341   */\n      dup3\n        /* \"#utility.yul\":328:346   */\n      add\n        /* \"#utility.yul\":320:346   */\n      swap1\n      pop\n        /* \"#utility.yul\":356:421   */\n      tag_552\n        /* \"#utility.yul\":418:419   */\n      0x00\n        /* \"#utility.yul\":407:416   */\n      dup4\n        /* \"#utility.yul\":403:420   */\n      add\n        /* \"#utility.yul\":394:400   */\n      dup5\n        /* \"#utility.yul\":356:421   */\n      tag_469\n      jump\t// in\n    tag_552:\n        /* \"#utility.yul\":218:428   */\n      swap3\n      swap2\n      pop\n      pop\n      jump\t// out\n        /* \"#utility.yul\":434:560   */\n    tag_470:\n        /* \"#utility.yul\":471:478   */\n      0x00\n        /* \"#utility.yul\":511:553   */\n      0xffffffffffffffffffffffffffffffffffffffff\n        /* \"#utility.yul\":504:509   */\n      dup3\n        /* \"#utility.yul\":500:554   */\n      and\n        /* \"#utility.yul\":489:554   */\n      swap1\n      pop\n        /* \"#utility.yul\":434:560   */\n      swap2\n      swap1\n      pop\n      jump\t// out\n        /* \"#utility.yul\":566:662   */\n    tag_471:\n        /* \"#utility.yul\":603:610   */\n      0x00\n        /* \"#utility.yul\":632:656   */\n      tag_555\n        /* \"#utility.yul\":650:655   */\n      dup3\n        /* \"#utility.yul\":632:656   */\n      tag_470\n      jump\t// in\n    tag_555:\n        /* \"#utility.yul\":621:656   */\n      swap1\n      pop\n        /* \"#utility.yul\":566:662   */\n      swap2\n      swap1\n      pop\n      jump\t// out\n        /* \"#utility.yul\":668:786   */\n    tag_472:\n        /* \"#utility.yul\":755:779   */\n      tag_557\n        /* \"#utility.yul\":773:778   */\n      dup2\n        /* \"#utility.yul\":755:779   */\n      tag_471\n      jump\t// in\n    tag_557:\n        /* \"#utility.yul\":750:753   */\n      dup3\n        /* \"#utility.yul\":743:780   */\n      mstore\n        /* \"#utility.yul\":668:786   */\n      pop\n      pop\n      jump\t// out\n        /* \"#utility.yul\":792:1014   */\n    tag_53:\n        /* \"#utility.yul\":885:889   */\n      0x00\n        /* \"#utility.yul\":923:925   */\n      0x20\n        /* \"#utility.yul\":912:921   */\n      dup3\n        /* \"#utility.yul\":908:926   */\n      add\n        /* \"#utility.yul\":900:926   */\n      swap1\n      pop\n        /* \"#utility.yul\":936:1007   */\n      tag_559\n        /* \"#utility.yul\":1004:1005   */\n      0x00\n        /* \"#utility.yul\":993:1002   */\n      dup4\n        /* \"#utility.yul\":989:1006   */\n      add\n        /* \"#utility.yul\":980:986   */\n      dup5\n        /* \"#utility.yul\":936:1007   */\n      tag_472\n      jump\t// in\n    tag_559:\n        /* \"#utility.yul\":792:1014   */\n      swap3\n      swap2\n      pop\n      pop\n      jump\t// out\n        /* \"#utility.yul\":1101:1218   */\n    tag_474:\n        /* \"#utility.yul\":1210:1211   */\n      0x00\n        /* \"#utility.yul\":1207:1208   */\n      0x00\n        /* \"#utility.yul\":1200:1212   */\n      revert\n        /* \"#utility.yul\":1347:1469   */\n    tag_476:\n        /* \"#utility.yul\":1420:1444   */\n      tag_564\n        /* \"#utility.yul\":1438:1443   */\n      dup2\n        /* \"#utility.yul\":1420:1444   */\n      tag_471\n      jump\t// in\n    tag_564:\n        /* \"#utility.yul\":1413:1418   */\n      dup2\n        /* \"#utility.yul\":1410:1445   */\n      eq\n        /* \"#utility.yul\":1400:1463   */\n      tag_565\n      jumpi\n        /* \"#utility.yul\":1459:1460   */\n      0x00\n        /* \"#utility.yul\":1456:1457   */\n      0x00\n        /* \"#utility.yul\":1449:1461   */\n      revert\n        /* \"#utility.yul\":1400:1463   */\n    tag_565:\n        /* \"#utility.yul\":1347:1469   */\n      pop\n      jump\t// out\n        /* \"#utility.yul\":1475:1614   */\n    tag_477:\n        /* \"#utility.yul\":1521:1526   */\n      0x00\n        /* \"#utility.yul\":1559:1565   */\n      dup2\n        /* \"#utility.yul\":1546:1566   */\n      calldataload\n        /* \"#utility.yul\":1537:1566   */\n      swap1\n      pop\n        /* \"#utility.yul\":1575:1608   */\n      tag_567\n        /* \"#utility.yul\":1602:1607   */\n      dup2\n        /* \"#utility.yul\":1575:1608   */\n      tag_476\n      jump\t// in\n    tag_567:\n        /* \"#utility.yul\":1475:1614   */\n      swap3\n      swap2\n      pop\n      pop\n      jump\t// out\n        /* \"#utility.yul\":1620:1697   */\n    tag_478:\n        /* \"#utility.yul\":1657:1664   */\n      0x00\n        /* \"#utility.yul\":1686:1691   */\n      dup2\n        /* \"#utility.yul\":1675:1691   */\n      swap1\n      pop\n        /* \"#utility.yul\":1620:1697   */\n      swap2\n      swap1\n      pop\n      jump\t// out\n        /* \"#utility.yul\":1703:1825   */\n    tag_479:\n        /* \"#utility.yul\":1776:1800   */\n      tag_570\n        /* \"#utility.yul\":1794:1799   */\n      dup2\n        /* \"#utility.yul\":1776:1800   */\n      tag_478\n      jump\t// in\n    tag_570:\n        /* \"#utility.yul\":1769:1774   */\n      dup2\n        /* \"#utility.yul\":1766:1801   */\n      eq\n        /* \"#utility.yul\":1756:1819   */\n      tag_571\n      jumpi\n        /* \"#utility.yul\":1815:1816   */\n      0x00\n        /* \"#utility.yul\":1812:1813   */\n      0x00\n        /* \"#utility.yul\":1805:1817   */\n      revert\n        /* \"#utility.yul\":1756:1819   */\n    tag_571:\n        /* \"#utility.yul\":1703:1825   */\n      pop\n      jump\t// out\n        /* \"#utility.yul\":1831:1970   */\n    tag_480:\n        /* \"#utility.yul\":1877:1882   */\n      0x00\n        /* \"#utility.yul\":1915:1921   */\n      dup2\n        /* \"#utility.yul\":1902:1922   */\n      calldataload\n        /* \"#utility.yul\":1893:1922   */\n      swap1\n      pop\n        /* \"#utility.yul\":1931:1964   */\n      tag_573\n        /* \"#utility.yul\":1958:1963   */\n      dup2\n        /* \"#utility.yul\":1931:1964   */\n      tag_479\n      jump\t// in\n    tag_573:\n        /* \"#utility.yul\":1831:1970   */\n      swap3\n      swap2\n      pop\n      pop\n      jump\t// out\n        /* \"#utility.yul\":1976:2450   */\n    tag_56:\n        /* \"#utility.yul\":2044:2050   */\n      0x00\n        /* \"#utility.yul\":2052:2058   */\n      0x00\n        /* \"#utility.yul\":2101:2103   */\n      0x40\n        /* \"#utility.yul\":2089:2098   */\n      dup4\n        /* \"#utility.yul\":2080:2087   */\n      dup6\n        /* \"#utility.yul\":2076:2099   */\n      sub\n        /* \"#utility.yul\":2072:2104   */\n      slt\n        /* \"#utility.yul\":2069:2188   */\n      iszero\n      tag_575\n      jumpi\n        /* \"#utility.yul\":2107:2186   */\n      tag_576\n      tag_474\n      jump\t// in\n    tag_576:\n        /* \"#utility.yul\":2069:2188   */\n    tag_575:\n        /* \"#utility.yul\":2227:2228   */\n      0x00\n        /* \"#utility.yul\":2252:2305   */\n      tag_577\n        /* \"#utility.yul\":2297:2304   */\n      dup6\n        /* \"#utility.yul\":2288:2294   */\n      dup3\n        /* \"#utility.yul\":2277:2286   */\n      dup7\n        /* \"#utility.yul\":2273:2295   */\n      add\n        /* \"#utility.yul\":2252:2305   */\n      tag_477\n      jump\t// in\n    tag_577:\n        /* \"#utility.yul\":2242:2305   */\n      swap3\n      pop\n        /* \"#utility.yul\":2198:2315   */\n      pop\n        /* \"#utility.yul\":2354:2356   */\n      0x20\n        /* \"#utility.yul\":2380:2433   */\n      tag_578\n        /* \"#utility.yul\":2425:2432   */\n      dup6\n        /* \"#utility.yul\":2416:2422   */\n      dup3\n        /* \"#utility.yul\":2405:2414   */\n      dup7\n        /* \"#utility.yul\":2401:2423   */\n      add\n        /* \"#utility.yul\":2380:2433   */\n      tag_480\n      jump\t// in\n    tag_578:\n        /* \"#utility.yul\":2370:2433   */\n      swap2\n      pop\n        /* \"#utility.yul\":2325:2443   */\n      pop\n        /* \"#utility.yul\":1976:2450   */\n      swap3\n      pop\n      swap3\n      swap1\n      pop\n      jump\t// out\n        /* \"#utility.yul\":2456:2785   */\n    tag_60:\n        /* \"#utility.yul\":2515:2521   */\n      0x00\n        /* \"#utility.yul\":2564:2566   */\n      0x20\n        /* \"#utility.yul\":2552:2561   */\n      dup3\n        /* \"#utility.yul\":2543:2550   */\n      dup5\n        /* \"#utility.yul\":2539:2562   */\n      sub\n        /* \"#utility.yul\":2535:2567   */\n      slt\n        /* \"#utility.yul\":2532:2651   */\n      iszero\n      tag_580\n      jumpi\n        /* \"#utility.yul\":2570:2649   */\n      tag_581\n      tag_474\n      jump\t// in\n    tag_581:\n        /* \"#utility.yul\":2532:2651   */\n    tag_580:\n        /* \"#utility.yul\":2690:2691   */\n      0x00\n        /* \"#utility.yul\":2715:2768   */\n      tag_582\n        /* \"#utility.yul\":2760:2767   */\n      dup5\n        /* \"#utility.yul\":2751:2757   */\n      dup3\n        /* \"#utility.yul\":2740:2749   */\n      dup6\n        /* \"#utility.yul\":2736:2758   */\n      add\n        /* \"#utility.yul\":2715:2768   */\n      tag_480\n      jump\t// in\n    tag_582:\n        /* \"#utility.yul\":2705:2768   */\n      swap2\n      pop\n        /* \"#utility.yul\":2661:2778   */\n      pop\n        /* \"#utility.yul\":2456:2785   */\n      swap3\n      swap2\n      pop\n      pop\n      jump\t// out\n        /* \"#utility.yul\":2791:3265   */\n    tag_70:\n        /* \"#utility.yul\":2859:2865   */\n      0x00\n        /* \"#utility.yul\":2867:2873   */\n      0x00\n        /* \"#utility.yul\":2916:2918   */\n      0x40\n        /* \"#utility.yul\":2904:2913   */\n      dup4\n        /* \"#utility.yul\":2895:2902   */\n      dup6\n        /* \"#utility.yul\":2891:2914   */\n      sub\n        /* \"#utility.yul\":2887:2919   */\n      slt\n        /* \"#utility.yul\":2884:3003   */\n      iszero\n      tag_584\n      jumpi\n        /* \"#utility.yul\":2922:3001   */\n      tag_585\n      tag_474\n      jump\t// in\n    tag_585:\n        /* \"#utility.yul\":2884:3003   */\n    tag_584:\n        /* \"#utility.yul\":3042:3043   */\n      0x00\n        /* \"#utility.yul\":3067:3120   */\n      tag_586\n        /* \"#utility.yul\":3112:3119   */\n      dup6\n        /* \"#utility.yul\":3103:3109   */\n      dup3\n        /* \"#utility.yul\":3092:3101   */\n      dup7\n        /* \"#utility.yul\":3088:3110   */\n      add\n        /* \"#utility.yul\":3067:3120   */\n      tag_480\n      jump\t// in\n    tag_586:\n        /* \"#utility.yul\":3057:3120   */\n      swap3\n      pop\n        /* \"#utility.yul\":3013:3130   */\n      pop\n        /* \"#utility.yul\":3169:3171   */\n      0x20\n        /* \"#utility.yul\":3195:3248   */\n      tag_587\n        /* \"#utility.yul\":3240:3247   */\n      dup6\n        /* \"#utility.yul\":3231:3237   */\n      dup3\n        /* \"#utility.yul\":3220:3229   */\n      dup7\n        /* \"#utility.yul\":3216:3238   */\n      add\n        /* \"#utility.yul\":3195:3248   */\n      tag_477\n      jump\t// in\n    tag_587:\n        /* \"#utility.yul\":3185:3248   */\n      swap2\n      pop\n        /* \"#utility.yul\":3140:3258   */\n      pop\n        /* \"#utility.yul\":2791:3265   */\n      swap3\n      pop\n      swap3\n      swap1\n      pop\n      jump\t// out\n        /* \"#utility.yul\":3271:3600   */\n    tag_76:\n        /* \"#utility.yul\":3330:3336   */\n      0x00\n        /* \"#utility.yul\":3379:3381   */\n      0x20\n        /* \"#utility.yul\":3367:3376   */\n      dup3\n        /* \"#utility.yul\":3358:3365   */\n      dup5\n        /* \"#utility.yul\":3354:3377   */\n      sub\n        /* \"#utility.yul\":3350:3382   */\n      slt\n        /* \"#utility.yul\":3347:3466   */\n      iszero\n      tag_589\n      jumpi\n        /* \"#utility.yul\":3385:3464   */\n      tag_590\n      tag_474\n      jump\t// in\n    tag_590:\n        /* \"#utility.yul\":3347:3466   */\n    tag_589:\n        /* \"#utility.yul\":3505:3506   */\n      0x00\n        /* \"#utility.yul\":3530:3583   */\n      tag_591\n        /* \"#utility.yul\":3575:3582   */\n      dup5\n        /* \"#utility.yul\":3566:3572   */\n      dup3\n        /* \"#utility.yul\":3555:3564   */\n      dup6\n        /* \"#utility.yul\":3551:3573   */\n      add\n        /* \"#utility.yul\":3530:3583   */\n      tag_477\n      jump\t// in\n    tag_591:\n        /* \"#utility.yul\":3520:3583   */\n      swap2\n      pop\n        /* \"#utility.yul\":3476:3593   */\n      pop\n        /* \"#utility.yul\":3271:3600   */\n      swap3\n      swap2\n      pop\n      pop\n      jump\t// out\n        /* \"#utility.yul\":3606:3724   */\n    tag_481:\n        /* \"#utility.yul\":3693:3717   */\n      tag_593\n        /* \"#utility.yul\":3711:3716   */\n      dup2\n        /* \"#utility.yul\":3693:3717   */\n      tag_478\n      jump\t// in\n    tag_593:\n        /* \"#utility.yul\":3688:3691   */\n      dup3\n        /* \"#utility.yul\":3681:3718   */\n      mstore\n        /* \"#utility.yul\":3606:3724   */\n      pop\n      pop\n      jump\t// out\n        /* \"#utility.yul\":3730:3952   */\n    tag_81:\n        /* \"#utility.yul\":3823:3827   */\n      0x00\n        /* \"#utility.yul\":3861:3863   */\n      0x20\n        /* \"#utility.yul\":3850:3859   */\n      dup3\n        /* \"#utility.yul\":3846:3864   */\n      add\n        /* \"#utility.yul\":3838:3864   */\n      swap1\n      pop\n        /* \"#utility.yul\":3874:3945   */\n      tag_595\n        /* \"#utility.yul\":3942:3943   */\n      0x00\n        /* \"#utility.yul\":3931:3940   */\n      dup4\n        /* \"#utility.yul\":3927:3944   */\n      add\n        /* \"#utility.yul\":3918:3924   */\n      dup5\n        /* \"#utility.yul\":3874:3945   */\n      tag_481\n      jump\t// in\n    tag_595:\n        /* \"#utility.yul\":3730:3952   */\n      swap3\n      swap2\n      pop\n      pop\n      jump\t// out\n        /* \"#utility.yul\":3958:4101   */\n    tag_482:\n        /* \"#utility.yul\":4015:4020   */\n      0x00\n        /* \"#utility.yul\":4046:4052   */\n      dup2\n        /* \"#utility.yul\":4040:4053   */\n      mload\n        /* \"#utility.yul\":4031:4053   */\n      swap1\n      pop\n        /* \"#utility.yul\":4062:4095   */\n      tag_597\n        /* \"#utility.yul\":4089:4094   */\n      dup2\n        /* \"#utility.yul\":4062:4095   */\n      tag_476\n      jump\t// in\n    tag_597:\n        /* \"#utility.yul\":3958:4101   */\n      swap3\n      swap2\n      pop\n      pop\n      jump\t// out\n        /* \"#utility.yul\":4107:4458   */\n    tag_166:\n        /* \"#utility.yul\":4177:4183   */\n      0x00\n        /* \"#utility.yul\":4226:4228   */\n      0x20\n        /* \"#utility.yul\":4214:4223   */\n      dup3\n        /* \"#utility.yul\":4205:4212   */\n      dup5\n        /* \"#utility.yul\":4201:4224   */\n      sub\n        /* \"#utility.yul\":4197:4229   */\n      slt\n        /* \"#utility.yul\":4194:4313   */\n      iszero\n      tag_599\n      jumpi\n        /* \"#utility.yul\":4232:4311   */\n      tag_600\n      tag_474\n      jump\t// in\n    tag_600:\n        /* \"#utility.yul\":4194:4313   */\n    tag_599:\n        /* \"#utility.yul\":4352:4353   */\n      0x00\n        /* \"#utility.yul\":4377:4441   */\n      tag_601\n        /* \"#utility.yul\":4433:4440   */\n      dup5\n        /* \"#utility.yul\":4424:4430   */\n      dup3\n        /* \"#utility.yul\":4413:4422   */\n      dup6\n        /* \"#utility.yul\":4409:4431   */\n      add\n        /* \"#utility.yul\":4377:4441   */\n      tag_482\n      jump\t// in\n    tag_601:\n        /* \"#utility.yul\":4367:4441   */\n      swap2\n      pop\n        /* \"#utility.yul\":4323:4451   */\n      pop\n        /* \"#utility.yul\":4107:4458   */\n      swap3\n      swap2\n      pop\n      pop\n      jump\t// out\n        /* \"#utility.yul\":4464:4580   */\n    tag_483:\n        /* \"#utility.yul\":4534:4555   */\n      tag_603\n        /* \"#utility.yul\":4549:4554   */\n      dup2\n        /* \"#utility.yul\":4534:4555   */\n      tag_468\n      jump\t// in\n    tag_603:\n        /* \"#utility.yul\":4527:4532   */\n      dup2\n        /* \"#utility.yul\":4524:4556   */\n      eq\n        /* \"#utility.yul\":4514:4574   */\n      tag_604\n      jumpi\n        /* \"#utility.yul\":4570:4571   */\n      0x00\n        /* \"#utility.yul\":4567:4568   */\n      0x00\n        /* \"#utility.yul\":4560:4572   */\n      revert\n        /* \"#utility.yul\":4514:4574   */\n    tag_604:\n        /* \"#utility.yul\":4464:4580   */\n      pop\n      jump\t// out\n        /* \"#utility.yul\":4586:4723   */\n    tag_484:\n        /* \"#utility.yul\":4640:4645   */\n      0x00\n        /* \"#utility.yul\":4671:4677   */\n      dup2\n        /* \"#utility.yul\":4665:4678   */\n      mload\n        /* \"#utility.yul\":4656:4678   */\n      swap1\n      pop\n        /* \"#utility.yul\":4687:4717   */\n      tag_606\n        /* \"#utility.yul\":4711:4716   */\n      dup2\n        /* \"#utility.yul\":4687:4717   */\n      tag_483\n      jump\t// in\n    tag_606:\n        /* \"#utility.yul\":4586:4723   */\n      swap3\n      swap2\n      pop\n      pop\n      jump\t// out\n        /* \"#utility.yul\":4729:5074   */\n    tag_175:\n        /* \"#utility.yul\":4796:4802   */\n      0x00\n        /* \"#utility.yul\":4845:4847   */\n      0x20\n        /* \"#utility.yul\":4833:4842   */\n      dup3\n        /* \"#utility.yul\":4824:4831   */\n      dup5\n        /* \"#utility.yul\":4820:4843   */\n      sub\n        /* \"#utility.yul\":4816:4848   */\n      slt\n        /* \"#utility.yul\":4813:4932   */\n      iszero\n      tag_608\n      jumpi\n        /* \"#utility.yul\":4851:4930   */\n      tag_609\n      tag_474\n      jump\t// in\n    tag_609:\n        /* \"#utility.yul\":4813:4932   */\n    tag_608:\n        /* \"#utility.yul\":4971:4972   */\n      0x00\n        /* \"#utility.yul\":4996:5057   */\n      tag_610\n        /* \"#utility.yul\":5049:5056   */\n      dup5\n        /* \"#utility.yul\":5040:5046   */\n      dup3\n        /* \"#utility.yul\":5029:5038   */\n      dup6\n        /* \"#utility.yul\":5025:5047   */\n      add\n        /* \"#utility.yul\":4996:5057   */\n      tag_484\n      jump\t// in\n    tag_610:\n        /* \"#utility.yul\":4986:5057   */\n      swap2\n      pop\n        /* \"#utility.yul\":4942:5067   */\n      pop\n        /* \"#utility.yul\":4729:5074   */\n      swap3\n      swap2\n      pop\n      pop\n      jump\t// out\n        /* \"#utility.yul\":5080:5249   */\n    tag_485:\n        /* \"#utility.yul\":5164:5175   */\n      0x00\n        /* \"#utility.yul\":5198:5204   */\n      dup3\n        /* \"#utility.yul\":5193:5196   */\n      dup3\n        /* \"#utility.yul\":5186:5205   */\n      mstore\n        /* \"#utility.yul\":5238:5242   */\n      0x20\n        /* \"#utility.yul\":5233:5236   */\n      dup3\n        /* \"#utility.yul\":5229:5243   */\n      add\n        /* \"#utility.yul\":5214:5243   */\n      swap1\n      pop\n        /* \"#utility.yul\":5080:5249   */\n      swap3\n      swap2\n      pop\n      pop\n      jump\t// out\n        /* \"#utility.yul\":5255:5415   */\n    tag_486:\n        /* \"#utility.yul\":5395:5407   */\n      0x4f6e6c79206f776e657200000000000000000000000000000000000000000000\n        /* \"#utility.yul\":5391:5392   */\n      0x00\n        /* \"#utility.yul\":5383:5389   */\n      dup3\n        /* \"#utility.yul\":5379:5393   */\n      add\n        /* \"#utility.yul\":5372:5408   */\n      mstore\n        /* \"#utility.yul\":5255:5415   */\n      pop\n      jump\t// out\n        /* \"#utility.yul\":5421:5787   */\n    tag_487:\n        /* \"#utility.yul\":5563:5566   */\n      0x00\n        /* \"#utility.yul\":5584:5651   */\n      tag_614\n        /* \"#utility.yul\":5648:5650   */\n      0x0a\n        /* \"#utility.yul\":5643:5646   */\n      dup4\n        /* \"#utility.yul\":5584:5651   */\n      tag_485\n      jump\t// in\n    tag_614:\n        /* \"#utility.yul\":5577:5651   */\n      swap2\n      pop\n        /* \"#utility.yul\":5660:5753   */\n      tag_615\n        /* \"#utility.yul\":5749:5752   */\n      dup3\n        /* \"#utility.yul\":5660:5753   */\n      tag_486\n      jump\t// in\n    tag_615:\n        /* \"#utility.yul\":5778:5780   */\n      0x20\n        /* \"#utility.yul\":5773:5776   */\n      dup3\n        /* \"#utility.yul\":5769:5781   */\n      add\n        /* \"#utility.yul\":5762:5781   */\n      swap1\n      pop\n        /* \"#utility.yul\":5421:5787   */\n      swap2\n      swap1\n      pop\n      jump\t// out\n        /* \"#utility.yul\":5793:6212   */\n    tag_186:\n        /* \"#utility.yul\":5959:5963   */\n      0x00\n        /* \"#utility.yul\":5997:5999   */\n      0x20\n        /* \"#utility.yul\":5986:5995   */\n      dup3\n        /* \"#utility.yul\":5982:6000   */\n      add\n        /* \"#utility.yul\":5974:6000   */\n      swap1\n      pop\n        /* \"#utility.yul\":6046:6055   */\n      dup2\n        /* \"#utility.yul\":6040:6044   */\n      dup2\n        /* \"#utility.yul\":6036:6056   */\n      sub\n        /* \"#utility.yul\":6032:6033   */\n      0x00\n        /* \"#utility.yul\":6021:6030   */\n      dup4\n        /* \"#utility.yul\":6017:6034   */\n      add\n        /* \"#utility.yul\":6010:6057   */\n      mstore\n        /* \"#utility.yul\":6074:6205   */\n      tag_617\n        /* \"#utility.yul\":6200:6204   */\n      dup2\n        /* \"#utility.yul\":6074:6205   */\n      tag_487\n      jump\t// in\n    tag_617:\n        /* \"#utility.yul\":6066:6205   */\n      swap1\n      pop\n        /* \"#utility.yul\":5793:6212   */\n      swap2\n      swap1\n      pop\n      jump\t// out\n        /* \"#utility.yul\":6218:6384   */\n    tag_488:\n        /* \"#utility.yul\":6358:6376   */\n      0x496e76616c6964206c6f74746572727900000000000000000000000000000000\n        /* \"#utility.yul\":6354:6355   */\n      0x00\n        /* \"#utility.yul\":6346:6352   */\n      dup3\n        /* \"#utility.yul\":6342:6356   */\n      add\n        /* \"#utility.yul\":6335:6377   */\n      mstore\n        /* \"#utility.yul\":6218:6384   */\n      pop\n      jump\t// out\n        /* \"#utility.yul\":6390:6756   */\n    tag_489:\n        /* \"#utility.yul\":6532:6535   */\n      0x00\n        /* \"#utility.yul\":6553:6620   */\n      tag_620\n        /* \"#utility.yul\":6617:6619   */\n      0x10\n        /* \"#utility.yul\":6612:6615   */\n      dup4\n        /* \"#utility.yul\":6553:6620   */\n      tag_485\n      jump\t// in\n    tag_620:\n        /* \"#utility.yul\":6546:6620   */\n      swap2\n      pop\n        /* \"#utility.yul\":6629:6722   */\n      tag_621\n        /* \"#utility.yul\":6718:6721   */\n      dup3\n        /* \"#utility.yul\":6629:6722   */\n      tag_488\n      jump\t// in\n    tag_621:\n        /* \"#utility.yul\":6747:6749   */\n      0x20\n        /* \"#utility.yul\":6742:6745   */\n      dup3\n        /* \"#utility.yul\":6738:6750   */\n      add\n        /* \"#utility.yul\":6731:6750   */\n      swap1\n      pop\n        /* \"#utility.yul\":6390:6756   */\n      swap2\n      swap1\n      pop\n      jump\t// out\n        /* \"#utility.yul\":6762:7181   */\n    tag_190:\n        /* \"#utility.yul\":6928:6932   */\n      0x00\n        /* \"#utility.yul\":6966:6968   */\n      0x20\n        /* \"#utility.yul\":6955:6964   */\n      dup3\n        /* \"#utility.yul\":6951:6969   */\n      add\n        /* \"#utility.yul\":6943:6969   */\n      swap1\n      pop\n        /* \"#utility.yul\":7015:7024   */\n      dup2\n        /* \"#utility.yul\":7009:7013   */\n      dup2\n        /* \"#utility.yul\":7005:7025   */\n      sub\n        /* \"#utility.yul\":7001:7002   */\n      0x00\n        /* \"#utility.yul\":6990:6999   */\n      dup4\n        /* \"#utility.yul\":6986:7003   */\n      add\n        /* \"#utility.yul\":6979:7026   */\n      mstore\n        /* \"#utility.yul\":7043:7174   */\n      tag_623\n        /* \"#utility.yul\":7169:7173   */\n      dup2\n        /* \"#utility.yul\":7043:7174   */\n      tag_489\n      jump\t// in\n    tag_623:\n        /* \"#utility.yul\":7035:7174   */\n      swap1\n      pop\n        /* \"#utility.yul\":6762:7181   */\n      swap2\n      swap1\n      pop\n      jump\t// out\n        /* \"#utility.yul\":7187:7356   */\n    tag_490:\n        /* \"#utility.yul\":7327:7348   */\n      0x4e6f20636f6d6d69747465642072657665616c00000000000000000000000000\n        /* \"#utility.yul\":7323:7324   */\n      0x00\n        /* \"#utility.yul\":7315:7321   */\n      dup3\n        /* \"#utility.yul\":7311:7325   */\n      add\n        /* \"#utility.yul\":7304:7349   */\n      mstore\n        /* \"#utility.yul\":7187:7356   */\n      pop\n      jump\t// out\n        /* \"#utility.yul\":7362:7728   */\n    tag_491:\n        /* \"#utility.yul\":7504:7507   */\n      0x00\n        /* \"#utility.yul\":7525:7592   */\n      tag_626\n        /* \"#utility.yul\":7589:7591   */\n      0x13\n        /* \"#utility.yul\":7584:7587   */\n      dup4\n        /* \"#utility.yul\":7525:7592   */\n      tag_485\n      jump\t// in\n    tag_626:\n        /* \"#utility.yul\":7518:7592   */\n      swap2\n      pop\n        /* \"#utility.yul\":7601:7694   */\n      tag_627\n        /* \"#utility.yul\":7690:7693   */\n      dup3\n        /* \"#utility.yul\":7601:7694   */\n      tag_490\n      jump\t// in\n    tag_627:\n        /* \"#utility.yul\":7719:7721   */\n      0x20\n        /* \"#utility.yul\":7714:7717   */\n      dup3\n        /* \"#utility.yul\":7710:7722   */\n      add\n        /* \"#utility.yul\":7703:7722   */\n      swap1\n      pop\n        /* \"#utility.yul\":7362:7728   */\n      swap2\n      swap1\n      pop\n      jump\t// out\n        /* \"#utility.yul\":7734:8153   */\n    tag_193:\n        /* \"#utility.yul\":7900:7904   */\n      0x00\n        /* \"#utility.yul\":7938:7940   */\n      0x20\n        /* \"#utility.yul\":7927:7936   */\n      dup3\n        /* \"#utility.yul\":7923:7941   */\n      add\n        /* \"#utility.yul\":7915:7941   */\n      swap1\n      pop\n        /* \"#utility.yul\":7987:7996   */\n      dup2\n        /* \"#utility.yul\":7981:7985   */\n      dup2\n        /* \"#utility.yul\":7977:7997   */\n      sub\n        /* \"#utility.yul\":7973:7974   */\n      0x00\n        /* \"#utility.yul\":7962:7971   */\n      dup4\n        /* \"#utility.yul\":7958:7975   */\n      add\n        /* \"#utility.yul\":7951:7998   */\n      mstore\n        /* \"#utility.yul\":8015:8146   */\n      tag_629\n        /* \"#utility.yul\":8141:8145   */\n      dup2\n        /* \"#utility.yul\":8015:8146   */\n      tag_491\n      jump\t// in\n    tag_629:\n        /* \"#utility.yul\":8007:8146   */\n      swap1\n      pop\n        /* \"#utility.yul\":7734:8153   */\n      swap2\n      swap1\n      pop\n      jump\t// out\n        /* \"#utility.yul\":8159:8330   */\n    tag_492:\n        /* \"#utility.yul\":8299:8322   */\n      0x4c6f74746572792072657665616c206661696c65640000000000000000000000\n        /* \"#utility.yul\":8295:8296   */\n      0x00\n        /* \"#utility.yul\":8287:8293   */\n      dup3\n        /* \"#utility.yul\":8283:8297   */\n      add\n        /* \"#utility.yul\":8276:8323   */\n      mstore\n        /* \"#utility.yul\":8159:8330   */\n      pop\n      jump\t// out\n        /* \"#utility.yul\":8336:8702   */\n    tag_493:\n        /* \"#utility.yul\":8478:8481   */\n      0x00\n        /* \"#utility.yul\":8499:8566   */\n      tag_632\n        /* \"#utility.yul\":8563:8565   */\n      0x15\n        /* \"#utility.yul\":8558:8561   */\n      dup4\n        /* \"#utility.yul\":8499:8566   */\n      tag_485\n      jump\t// in\n    tag_632:\n        /* \"#utility.yul\":8492:8566   */\n      swap2\n      pop\n        /* \"#utility.yul\":8575:8668   */\n      tag_633\n        /* \"#utility.yul\":8664:8667   */\n      dup3\n        /* \"#utility.yul\":8575:8668   */\n      tag_492\n      jump\t// in\n    tag_633:\n        /* \"#utility.yul\":8693:8695   */\n      0x20\n        /* \"#utility.yul\":8688:8691   */\n      dup3\n        /* \"#utility.yul\":8684:8696   */\n      add\n        /* \"#utility.yul\":8677:8696   */\n      swap1\n      pop\n        /* \"#utility.yul\":8336:8702   */\n      swap2\n      swap1\n      pop\n      jump\t// out\n        /* \"#utility.yul\":8708:9127   */\n    tag_202:\n        /* \"#utility.yul\":8874:8878   */\n      0x00\n        /* \"#utility.yul\":8912:8914   */\n      0x20\n        /* \"#utility.yul\":8901:8910   */\n      dup3\n        /* \"#utility.yul\":8897:8915   */\n      add\n        /* \"#utility.yul\":8889:8915   */\n      swap1\n      pop\n        /* \"#utility.yul\":8961:8970   */\n      dup2\n        /* \"#utility.yul\":8955:8959   */\n      dup2\n        /* \"#utility.yul\":8951:8971   */\n      sub\n        /* \"#utility.yul\":8947:8948   */\n      0x00\n        /* \"#utility.yul\":8936:8945   */\n      dup4\n        /* \"#utility.yul\":8932:8949   */\n      add\n        /* \"#utility.yul\":8925:8972   */\n      mstore\n        /* \"#utility.yul\":8989:9120   */\n      tag_635\n        /* \"#utility.yul\":9115:9119   */\n      dup2\n        /* \"#utility.yul\":8989:9120   */\n      tag_493\n      jump\t// in\n    tag_635:\n        /* \"#utility.yul\":8981:9120   */\n      swap1\n      pop\n        /* \"#utility.yul\":8708:9127   */\n      swap2\n      swap1\n      pop\n      jump\t// out\n        /* \"#utility.yul\":9133:9314   */\n    tag_494:\n        /* \"#utility.yul\":9273:9306   */\n      0x4e6f7420617574686f72697a656420746f2073657420616c6c6f77616e636500\n        /* \"#utility.yul\":9269:9270   */\n      0x00\n        /* \"#utility.yul\":9261:9267   */\n      dup3\n        /* \"#utility.yul\":9257:9271   */\n      add\n        /* \"#utility.yul\":9250:9307   */\n      mstore\n        /* \"#utility.yul\":9133:9314   */\n      pop\n      jump\t// out\n        /* \"#utility.yul\":9320:9686   */\n    tag_495:\n        /* \"#utility.yul\":9462:9465   */\n      0x00\n        /* \"#utility.yul\":9483:9550   */\n      tag_638\n        /* \"#utility.yul\":9547:9549   */\n      0x1f\n        /* \"#utility.yul\":9542:9545   */\n      dup4\n        /* \"#utility.yul\":9483:9550   */\n      tag_485\n      jump\t// in\n    tag_638:\n        /* \"#utility.yul\":9476:9550   */\n      swap2\n      pop\n        /* \"#utility.yul\":9559:9652   */\n      tag_639\n        /* \"#utility.yul\":9648:9651   */\n      dup3\n        /* \"#utility.yul\":9559:9652   */\n      tag_494\n      jump\t// in\n    tag_639:\n        /* \"#utility.yul\":9677:9679   */\n      0x20\n        /* \"#utility.yul\":9672:9675   */\n      dup3\n        /* \"#utility.yul\":9668:9680   */\n      add\n        /* \"#utility.yul\":9661:9680   */\n      swap1\n      pop\n        /* \"#utility.yul\":9320:9686   */\n      swap2\n      swap1\n      pop\n      jump\t// out\n        /* \"#utility.yul\":9692:10111   */\n    tag_215:\n        /* \"#utility.yul\":9858:9862   */\n      0x00\n        /* \"#utility.yul\":9896:9898   */\n      0x20\n        /* \"#utility.yul\":9885:9894   */\n      dup3\n        /* \"#utility.yul\":9881:9899   */\n      add\n        /* \"#utility.yul\":9873:9899   */\n      swap1\n      pop\n        /* \"#utility.yul\":9945:9954   */\n      dup2\n        /* \"#utility.yul\":9939:9943   */\n      dup2\n        /* \"#utility.yul\":9935:9955   */\n      sub\n        /* \"#utility.yul\":9931:9932   */\n      0x00\n        /* \"#utility.yul\":9920:9929   */\n      dup4\n        /* \"#utility.yul\":9916:9933   */\n      add\n        /* \"#utility.yul\":9909:9956   */\n      mstore\n        /* \"#utility.yul\":9973:10104   */\n      tag_641\n        /* \"#utility.yul\":10099:10103   */\n      dup2\n        /* \"#utility.yul\":9973:10104   */\n      tag_495\n      jump\t// in\n    tag_641:\n        /* \"#utility.yul\":9965:10104   */\n      swap1\n      pop\n        /* \"#utility.yul\":9692:10111   */\n      swap2\n      swap1\n      pop\n      jump\t// out\n        /* \"#utility.yul\":10117:10297   */\n    tag_496:\n        /* \"#utility.yul\":10165:10242   */\n      0x4e487b7100000000000000000000000000000000000000000000000000000000\n        /* \"#utility.yul\":10162:10163   */\n      0x00\n        /* \"#utility.yul\":10155:10243   */\n      mstore\n        /* \"#utility.yul\":10262:10266   */\n      0x11\n        /* \"#utility.yul\":10259:10260   */\n      0x04\n        /* \"#utility.yul\":10252:10267   */\n      mstore\n        /* \"#utility.yul\":10286:10290   */\n      0x24\n        /* \"#utility.yul\":10283:10284   */\n      0x00\n        /* \"#utility.yul\":10276:10291   */\n      revert\n        /* \"#utility.yul\":10303:10494   */\n    tag_224:\n        /* \"#utility.yul\":10343:10346   */\n      0x00\n        /* \"#utility.yul\":10362:10382   */\n      tag_644\n        /* \"#utility.yul\":10380:10381   */\n      dup3\n        /* \"#utility.yul\":10362:10382   */\n      tag_478\n      jump\t// in\n    tag_644:\n        /* \"#utility.yul\":10357:10382   */\n      swap2\n      pop\n        /* \"#utility.yul\":10396:10416   */\n      tag_645\n        /* \"#utility.yul\":10414:10415   */\n      dup4\n        /* \"#utility.yul\":10396:10416   */\n      tag_478\n      jump\t// in\n    tag_645:\n        /* \"#utility.yul\":10391:10416   */\n      swap3\n      pop\n        /* \"#utility.yul\":10439:10440   */\n      dup3\n        /* \"#utility.yul\":10436:10437   */\n      dup3\n        /* \"#utility.yul\":10432:10441   */\n      add\n        /* \"#utility.yul\":10425:10441   */\n      swap1\n      pop\n        /* \"#utility.yul\":10460:10463   */\n      dup1\n        /* \"#utility.yul\":10457:10458   */\n      dup3\n        /* \"#utility.yul\":10454:10464   */\n      gt\n        /* \"#utility.yul\":10451:10487   */\n      iszero\n      tag_646\n      jumpi\n        /* \"#utility.yul\":10467:10485   */\n      tag_647\n      tag_496\n      jump\t// in\n    tag_647:\n        /* \"#utility.yul\":10451:10487   */\n    tag_646:\n        /* \"#utility.yul\":10303:10494   */\n      swap3\n      swap2\n      pop\n      pop\n      jump\t// out\n        /* \"#utility.yul\":10500:10675   */\n    tag_497:\n        /* \"#utility.yul\":10640:10667   */\n      0x43616c6c6572206d757374206265206120636f6e747261637400000000000000\n        /* \"#utility.yul\":10636:10637   */\n      0x00\n        /* \"#utility.yul\":10628:10634   */\n      dup3\n        /* \"#utility.yul\":10624:10638   */\n      add\n        /* \"#utility.yul\":10617:10668   */\n      mstore\n        /* \"#utility.yul\":10500:10675   */\n      pop\n      jump\t// out\n        /* \"#utility.yul\":10681:11047   */\n    tag_498:\n        /* \"#utility.yul\":10823:10826   */\n      0x00\n        /* \"#utility.yul\":10844:10911   */\n      tag_650\n        /* \"#utility.yul\":10908:10910   */\n      0x19\n        /* \"#utility.yul\":10903:10906   */\n      dup4\n        /* \"#utility.yul\":10844:10911   */\n      tag_485\n      jump\t// in\n    tag_650:\n        /* \"#utility.yul\":10837:10911   */\n      swap2\n      pop\n        /* \"#utility.yul\":10920:11013   */\n      tag_651\n        /* \"#utility.yul\":11009:11012   */\n      dup3\n        /* \"#utility.yul\":10920:11013   */\n      tag_497\n      jump\t// in\n    tag_651:\n        /* \"#utility.yul\":11038:11040   */\n      0x20\n        /* \"#utility.yul\":11033:11036   */\n      dup3\n        /* \"#utility.yul\":11029:11041   */\n      add\n        /* \"#utility.yul\":11022:11041   */\n      swap1\n      pop\n        /* \"#utility.yul\":10681:11047   */\n      swap2\n      swap1\n      pop\n      jump\t// out\n        /* \"#utility.yul\":11053:11472   */\n    tag_227:\n        /* \"#utility.yul\":11219:11223   */\n      0x00\n        /* \"#utility.yul\":11257:11259   */\n      0x20\n        /* \"#utility.yul\":11246:11255   */\n      dup3\n        /* \"#utility.yul\":11242:11260   */\n      add\n        /* \"#utility.yul\":11234:11260   */\n      swap1\n      pop\n        /* \"#utility.yul\":11306:11315   */\n      dup2\n        /* \"#utility.yul\":11300:11304   */\n      dup2\n        /* \"#utility.yul\":11296:11316   */\n      sub\n        /* \"#utility.yul\":11292:11293   */\n      0x00\n        /* \"#utility.yul\":11281:11290   */\n      dup4\n        /* \"#utility.yul\":11277:11294   */\n      add\n        /* \"#utility.yul\":11270:11317   */\n      mstore\n        /* \"#utility.yul\":11334:11465   */\n      tag_653\n        /* \"#utility.yul\":11460:11464   */\n      dup2\n        /* \"#utility.yul\":11334:11465   */\n      tag_498\n      jump\t// in\n    tag_653:\n        /* \"#utility.yul\":11326:11465   */\n      swap1\n      pop\n        /* \"#utility.yul\":11053:11472   */\n      swap2\n      swap1\n      pop\n      jump\t// out\n        /* \"#utility.yul\":11478:11713   */\n    tag_499:\n        /* \"#utility.yul\":11618:11652   */\n      0x46726f6d206d75737420626520657175616c2063616c6c657220666f72203372\n        /* \"#utility.yul\":11614:11615   */\n      0x00\n        /* \"#utility.yul\":11606:11612   */\n      dup3\n        /* \"#utility.yul\":11602:11616   */\n      add\n        /* \"#utility.yul\":11595:11653   */\n      mstore\n        /* \"#utility.yul\":11687:11705   */\n      0x642d706172747920636f6e747261637400000000000000000000000000000000\n        /* \"#utility.yul\":11682:11684   */\n      0x20\n        /* \"#utility.yul\":11674:11680   */\n      dup3\n        /* \"#utility.yul\":11670:11685   */\n      add\n        /* \"#utility.yul\":11663:11706   */\n      mstore\n        /* \"#utility.yul\":11478:11713   */\n      pop\n      jump\t// out\n        /* \"#utility.yul\":11719:12085   */\n    tag_500:\n        /* \"#utility.yul\":11861:11864   */\n      0x00\n        /* \"#utility.yul\":11882:11949   */\n      tag_656\n        /* \"#utility.yul\":11946:11948   */\n      0x30\n        /* \"#utility.yul\":11941:11944   */\n      dup4\n        /* \"#utility.yul\":11882:11949   */\n      tag_485\n      jump\t// in\n    tag_656:\n        /* \"#utility.yul\":11875:11949   */\n      swap2\n      pop\n        /* \"#utility.yul\":11958:12051   */\n      tag_657\n        /* \"#utility.yul\":12047:12050   */\n      dup3\n        /* \"#utility.yul\":11958:12051   */\n      tag_499\n      jump\t// in\n    tag_657:\n        /* \"#utility.yul\":12076:12078   */\n      0x40\n        /* \"#utility.yul\":12071:12074   */\n      dup3\n        /* \"#utility.yul\":12067:12079   */\n      add\n        /* \"#utility.yul\":12060:12079   */\n      swap1\n      pop\n        /* \"#utility.yul\":11719:12085   */\n      swap2\n      swap1\n      pop\n      jump\t// out\n        /* \"#utility.yul\":12091:12510   */\n    tag_230:\n        /* \"#utility.yul\":12257:12261   */\n      0x00\n        /* \"#utility.yul\":12295:12297   */\n      0x20\n        /* \"#utility.yul\":12284:12293   */\n      dup3\n        /* \"#utility.yul\":12280:12298   */\n      add\n        /* \"#utility.yul\":12272:12298   */\n      swap1\n      pop\n        /* \"#utility.yul\":12344:12353   */\n      dup2\n        /* \"#utility.yul\":12338:12342   */\n      dup2\n        /* \"#utility.yul\":12334:12354   */\n      sub\n        /* \"#utility.yul\":12330:12331   */\n      0x00\n        /* \"#utility.yul\":12319:12328   */\n      dup4\n        /* \"#utility.yul\":12315:12332   */\n      add\n        /* \"#utility.yul\":12308:12355   */\n      mstore\n        /* \"#utility.yul\":12372:12503   */\n      tag_659\n        /* \"#utility.yul\":12498:12502   */\n      dup2\n        /* \"#utility.yul\":12372:12503   */\n      tag_500\n      jump\t// in\n    tag_659:\n        /* \"#utility.yul\":12364:12503   */\n      swap1\n      pop\n        /* \"#utility.yul\":12091:12510   */\n      swap2\n      swap1\n      pop\n      jump\t// out\n        /* \"#utility.yul\":12516:12687   */\n    tag_501:\n        /* \"#utility.yul\":12656:12679   */\n      0x43616c6c6572206e6f7420617574686f72697a65640000000000000000000000\n        /* \"#utility.yul\":12652:12653   */\n      0x00\n        /* \"#utility.yul\":12644:12650   */\n      dup3\n        /* \"#utility.yul\":12640:12654   */\n      add\n        /* \"#utility.yul\":12633:12680   */\n      mstore\n        /* \"#utility.yul\":12516:12687   */\n      pop\n      jump\t// out\n        /* \"#utility.yul\":12693:13059   */\n    tag_502:\n        /* \"#utility.yul\":12835:12838   */\n      0x00\n        /* \"#utility.yul\":12856:12923   */\n      tag_662\n        /* \"#utility.yul\":12920:12922   */\n      0x15\n        /* \"#utility.yul\":12915:12918   */\n      dup4\n        /* \"#utility.yul\":12856:12923   */\n      tag_485\n      jump\t// in\n    tag_662:\n        /* \"#utility.yul\":12849:12923   */\n      swap2\n      pop\n        /* \"#utility.yul\":12932:13025   */\n      tag_663\n        /* \"#utility.yul\":13021:13024   */\n      dup3\n        /* \"#utility.yul\":12932:13025   */\n      tag_501\n      jump\t// in\n    tag_663:\n        /* \"#utility.yul\":13050:13052   */\n      0x20\n        /* \"#utility.yul\":13045:13048   */\n      dup3\n        /* \"#utility.yul\":13041:13053   */\n      add\n        /* \"#utility.yul\":13034:13053   */\n      swap1\n      pop\n        /* \"#utility.yul\":12693:13059   */\n      swap2\n      swap1\n      pop\n      jump\t// out\n        /* \"#utility.yul\":13065:13484   */\n    tag_234:\n        /* \"#utility.yul\":13231:13235   */\n      0x00\n        /* \"#utility.yul\":13269:13271   */\n      0x20\n        /* \"#utility.yul\":13258:13267   */\n      dup3\n        /* \"#utility.yul\":13254:13272   */\n      add\n        /* \"#utility.yul\":13246:13272   */\n      swap1\n      pop\n        /* \"#utility.yul\":13318:13327   */\n      dup2\n        /* \"#utility.yul\":13312:13316   */\n      dup2\n        /* \"#utility.yul\":13308:13328   */\n      sub\n        /* \"#utility.yul\":13304:13305   */\n      0x00\n        /* \"#utility.yul\":13293:13302   */\n      dup4\n        /* \"#utility.yul\":13289:13306   */\n      add\n        /* \"#utility.yul\":13282:13329   */\n      mstore\n        /* \"#utility.yul\":13346:13477   */\n      tag_665\n        /* \"#utility.yul\":13472:13476   */\n      dup2\n        /* \"#utility.yul\":13346:13477   */\n      tag_502\n      jump\t// in\n    tag_665:\n        /* \"#utility.yul\":13338:13477   */\n      swap1\n      pop\n        /* \"#utility.yul\":13065:13484   */\n      swap2\n      swap1\n      pop\n      jump\t// out\n        /* \"#utility.yul\":13490:13723   */\n    tag_241:\n        /* \"#utility.yul\":13529:13532   */\n      0x00\n        /* \"#utility.yul\":13552:13576   */\n      tag_667\n        /* \"#utility.yul\":13570:13575   */\n      dup3\n        /* \"#utility.yul\":13552:13576   */\n      tag_478\n      jump\t// in\n    tag_667:\n        /* \"#utility.yul\":13543:13576   */\n      swap2\n      pop\n        /* \"#utility.yul\":13598:13664   */\n      0xffffffffffffffffffffffffffffffffffffffffffffffffffffffffffffffff\n        /* \"#utility.yul\":13591:13596   */\n      dup3\n        /* \"#utility.yul\":13588:13665   */\n      sub\n        /* \"#utility.yul\":13585:13688   */\n      tag_668\n      jumpi\n        /* \"#utility.yul\":13668:13686   */\n      tag_669\n      tag_496\n      jump\t// in\n    tag_669:\n        /* \"#utility.yul\":13585:13688   */\n    tag_668:\n        /* \"#utility.yul\":13715:13716   */\n      0x01\n        /* \"#utility.yul\":13708:13713   */\n      dup3\n        /* \"#utility.yul\":13704:13717   */\n      add\n        /* \"#utility.yul\":13697:13717   */\n      swap1\n      pop\n        /* \"#utility.yul\":13490:13723   */\n      swap2\n      swap1\n      pop\n      jump\t// out\n        /* \"#utility.yul\":13729:13902   */\n    tag_503:\n        /* \"#utility.yul\":13869:13894   */\n      0x4f6e6c7920706172746e65722063616e206e6f74696679000000000000000000\n        /* \"#utility.yul\":13865:13866   */\n      0x00\n        /* \"#utility.yul\":13857:13863   */\n      dup3\n        /* \"#utility.yul\":13853:13867   */\n      add\n        /* \"#utility.yul\":13846:13895   */\n      mstore\n        /* \"#utility.yul\":13729:13902   */\n      pop\n      jump\t// out\n        /* \"#utility.yul\":13908:14274   */\n    tag_504:\n        /* \"#utility.yul\":14050:14053   */\n      0x00\n        /* \"#utility.yul\":14071:14138   */\n      tag_672\n        /* \"#utility.yul\":14135:14137   */\n      0x17\n        /* \"#utility.yul\":14130:14133   */\n      dup4\n        /* \"#utility.yul\":14071:14138   */\n      tag_485\n      jump\t// in\n    tag_672:\n        /* \"#utility.yul\":14064:14138   */\n      swap2\n      pop\n        /* \"#utility.yul\":14147:14240   */\n      tag_673\n        /* \"#utility.yul\":14236:14239   */\n      dup3\n        /* \"#utility.yul\":14147:14240   */\n      tag_503\n      jump\t// in\n    tag_673:\n        /* \"#utility.yul\":14265:14267   */\n      0x20\n        /* \"#utility.yul\":14260:14263   */\n      dup3\n        /* \"#utility.yul\":14256:14268   */\n      add\n        /* \"#utility.yul\":14249:14268   */\n      swap1\n      pop\n        /* \"#utility.yul\":13908:14274   */\n      swap2\n      swap1\n      pop\n      jump\t// out\n        /* \"#utility.yul\":14280:14699   */\n    tag_249:\n        /* \"#utility.yul\":14446:14450   */\n      0x00\n        /* \"#utility.yul\":14484:14486   */\n      0x20\n        /* \"#utility.yul\":14473:14482   */\n      dup3\n        /* \"#utility.yul\":14469:14487   */\n      add\n        /* \"#utility.yul\":14461:14487   */\n      swap1\n      pop\n        /* \"#utility.yul\":14533:14542   */\n      dup2\n        /* \"#utility.yul\":14527:14531   */\n      dup2\n        /* \"#utility.yul\":14523:14543   */\n      sub\n        /* \"#utility.yul\":14519:14520   */\n      0x00\n        /* \"#utility.yul\":14508:14517   */\n      dup4\n        /* \"#utility.yul\":14504:14521   */\n      add\n        /* \"#utility.yul\":14497:14544   */\n      mstore\n        /* \"#utility.yul\":14561:14692   */\n      tag_675\n        /* \"#utility.yul\":14687:14691   */\n      dup2\n        /* \"#utility.yul\":14561:14692   */\n      tag_504\n      jump\t// in\n    tag_675:\n        /* \"#utility.yul\":14553:14692   */\n      swap1\n      pop\n        /* \"#utility.yul\":14280:14699   */\n      swap2\n      swap1\n      pop\n      jump\t// out\n        /* \"#utility.yul\":14705:14899   */\n    tag_255:\n        /* \"#utility.yul\":14745:14749   */\n      0x00\n        /* \"#utility.yul\":14765:14785   */\n      tag_677\n        /* \"#utility.yul\":14783:14784   */\n      dup3\n        /* \"#utility.yul\":14765:14785   */\n      tag_478\n      jump\t// in\n    tag_677:\n        /* \"#utility.yul\":14760:14785   */\n      swap2\n      pop\n        /* \"#utility.yul\":14799:14819   */\n      tag_678\n        /* \"#utility.yul\":14817:14818   */\n      dup4\n        /* \"#utility.yul\":14799:14819   */\n      tag_478\n      jump\t// in\n    tag_678:\n        /* \"#utility.yul\":14794:14819   */\n      swap3\n      pop\n        /* \"#utility.yul\":14843:14844   */\n      dup3\n        /* \"#utility.yul\":14840:14841   */\n      dup3\n        /* \"#utility.yul\":14836:14845   */\n      sub\n        /* \"#utility.yul\":14828:14845   */\n      swap1\n      pop\n        /* \"#utility.yul\":14867:14868   */\n      dup2\n        /* \"#utility.yul\":14861:14865   */\n      dup2\n        /* \"#utility.yul\":14858:14869   */\n      gt\n        /* \"#utility.yul\":14855:14892   */\n      iszero\n      tag_679\n      jumpi\n        /* \"#utility.yul\":14872:14890   */\n      tag_680\n      tag_496\n      jump\t// in\n    tag_680:\n        /* \"#utility.yul\":14855:14892   */\n    tag_679:\n        /* \"#utility.yul\":14705:14899   */\n      swap3\n      swap2\n      pop\n      pop\n      jump\t// out\n        /* \"#utility.yul\":14905:15315   */\n    tag_259:\n        /* \"#utility.yul\":14945:14952   */\n      0x00\n        /* \"#utility.yul\":14968:14988   */\n      tag_682\n        /* \"#utility.yul\":14986:14987   */\n      dup3\n        /* \"#utility.yul\":14968:14988   */\n      tag_478\n      jump\t// in\n    tag_682:\n        /* \"#utility.yul\":14963:14988   */\n      swap2\n      pop\n        /* \"#utility.yul\":15002:15022   */\n      tag_683\n        /* \"#utility.yul\":15020:15021   */\n      dup4\n        /* \"#utility.yul\":15002:15022   */\n      tag_478\n      jump\t// in\n    tag_683:\n        /* \"#utility.yul\":14997:15022   */\n      swap3\n      pop\n        /* \"#utility.yul\":15057:15058   */\n      dup3\n        /* \"#utility.yul\":15054:15055   */\n      dup3\n        /* \"#utility.yul\":15050:15059   */\n      mul\n        /* \"#utility.yul\":15079:15109   */\n      tag_684\n        /* \"#utility.yul\":15097:15108   */\n      dup2\n        /* \"#utility.yul\":15079:15109   */\n      tag_478\n      jump\t// in\n    tag_684:\n        /* \"#utility.yul\":15068:15109   */\n      swap2\n      pop\n        /* \"#utility.yul\":15258:15259   */\n      dup3\n        /* \"#utility.yul\":15249:15256   */\n      dup3\n        /* \"#utility.yul\":15245:15260   */\n      div\n        /* \"#utility.yul\":15242:15243   */\n      dup5\n        /* \"#utility.yul\":15239:15261   */\n      eq\n        /* \"#utility.yul\":15219:15220   */\n      dup4\n        /* \"#utility.yul\":15212:15221   */\n      iszero\n        /* \"#utility.yul\":15192:15275   */\n      or\n        /* \"#utility.yul\":15169:15308   */\n      tag_685\n      jumpi\n        /* \"#utility.yul\":15288:15306   */\n      tag_686\n      tag_496\n      jump\t// in\n    tag_686:\n        /* \"#utility.yul\":15169:15308   */\n    tag_685:\n        /* \"#utility.yul\":14953:15315   */\n      pop\n        /* \"#utility.yul\":14905:15315   */\n      swap3\n      swap2\n      pop\n      pop\n      jump\t// out\n        /* \"#utility.yul\":15321:15501   */\n    tag_505:\n        /* \"#utility.yul\":15369:15446   */\n      0x4e487b7100000000000000000000000000000000000000000000000000000000\n        /* \"#utility.yul\":15366:15367   */\n      0x00\n        /* \"#utility.yul\":15359:15447   */\n      mstore\n        /* \"#utility.yul\":15466:15470   */\n      0x12\n        /* \"#utility.yul\":15463:15464   */\n      0x04\n        /* \"#utility.yul\":15456:15471   */\n      mstore\n        /* \"#utility.yul\":15490:15494   */\n      0x24\n        /* \"#utility.yul\":15487:15488   */\n      0x00\n        /* \"#utility.yul\":15480:15495   */\n      revert\n        /* \"#utility.yul\":15507:15692   */\n    tag_261:\n        /* \"#utility.yul\":15547:15548   */\n      0x00\n        /* \"#utility.yul\":15564:15584   */\n      tag_689\n        /* \"#utility.yul\":15582:15583   */\n      dup3\n        /* \"#utility.yul\":15564:15584   */\n      tag_478\n      jump\t// in\n    tag_689:\n        /* \"#utility.yul\":15559:15584   */\n      swap2\n      pop\n        /* \"#utility.yul\":15598:15618   */\n      tag_690\n        /* \"#utility.yul\":15616:15617   */\n      dup4\n        /* \"#utility.yul\":15598:15618   */\n      tag_478\n      jump\t// in\n    tag_690:\n        /* \"#utility.yul\":15593:15618   */\n      swap3\n      pop\n        /* \"#utility.yul\":15637:15638   */\n      dup3\n        /* \"#utility.yul\":15627:15662   */\n      tag_691\n      jumpi\n        /* \"#utility.yul\":15642:15660   */\n      tag_692\n      tag_505\n      jump\t// in\n    tag_692:\n        /* \"#utility.yul\":15627:15662   */\n    tag_691:\n        /* \"#utility.yul\":15684:15685   */\n      dup3\n        /* \"#utility.yul\":15681:15682   */\n      dup3\n        /* \"#utility.yul\":15677:15686   */\n      div\n        /* \"#utility.yul\":15672:15686   */\n      swap1\n      pop\n        /* \"#utility.yul\":15507:15692   */\n      swap3\n      swap2\n      pop\n      pop\n      jump\t// out\n        /* \"#utility.yul\":15698:15863   */\n    tag_506:\n        /* \"#utility.yul\":15838:15855   */\n      0x496e76616c6964206c6f74746572790000000000000000000000000000000000\n        /* \"#utility.yul\":15834:15835   */\n      0x00\n        /* \"#utility.yul\":15826:15832   */\n      dup3\n        /* \"#utility.yul\":15822:15836   */\n      add\n        /* \"#utility.yul\":15815:15856   */\n      mstore\n        /* \"#utility.yul\":15698:15863   */\n      pop\n      jump\t// out\n        /* \"#utility.yul\":15869:16235   */\n    tag_507:\n        /* \"#utility.yul\":16011:16014   */\n      0x00\n        /* \"#utility.yul\":16032:16099   */\n      tag_695\n        /* \"#utility.yul\":16096:16098   */\n      0x0f\n        /* \"#utility.yul\":16091:16094   */\n      dup4\n        /* \"#utility.yul\":16032:16099   */\n      tag_485\n      jump\t// in\n    tag_695:\n        /* \"#utility.yul\":16025:16099   */\n      swap2\n      pop\n        /* \"#utility.yul\":16108:16201   */\n      tag_696\n        /* \"#utility.yul\":16197:16200   */\n      dup3\n        /* \"#utility.yul\":16108:16201   */\n      tag_506\n      jump\t// in\n    tag_696:\n        /* \"#utility.yul\":16226:16228   */\n      0x20\n        /* \"#utility.yul\":16221:16224   */\n      dup3\n        /* \"#utility.yul\":16217:16229   */\n      add\n        /* \"#utility.yul\":16210:16229   */\n      swap1\n      pop\n        /* \"#utility.yul\":15869:16235   */\n      swap2\n      swap1\n      pop\n      jump\t// out\n        /* \"#utility.yul\":16241:16660   */\n    tag_269:\n        /* \"#utility.yul\":16407:16411   */\n      0x00\n        /* \"#utility.yul\":16445:16447   */\n      0x20\n        /* \"#utility.yul\":16434:16443   */\n      dup3\n        /* \"#utility.yul\":16430:16448   */\n      add\n        /* \"#utility.yul\":16422:16448   */\n      swap1\n      pop\n        /* \"#utility.yul\":16494:16503   */\n      dup2\n        /* \"#utility.yul\":16488:16492   */\n      dup2\n        /* \"#utility.yul\":16484:16504   */\n      sub\n        /* \"#utility.yul\":16480:16481   */\n      0x00\n        /* \"#utility.yul\":16469:16478   */\n      dup4\n        /* \"#utility.yul\":16465:16482   */\n      add\n        /* \"#utility.yul\":16458:16505   */\n      mstore\n        /* \"#utility.yul\":16522:16653   */\n      tag_698\n        /* \"#utility.yul\":16648:16652   */\n      dup2\n        /* \"#utility.yul\":16522:16653   */\n      tag_507\n      jump\t// in\n    tag_698:\n        /* \"#utility.yul\":16514:16653   */\n      swap1\n      pop\n        /* \"#utility.yul\":16241:16660   */\n      swap2\n      swap1\n      pop\n      jump\t// out\n        /* \"#utility.yul\":16666:16743   */\n    tag_508:\n        /* \"#utility.yul\":16703:16710   */\n      0x00\n        /* \"#utility.yul\":16732:16737   */\n      dup2\n        /* \"#utility.yul\":16721:16737   */\n      swap1\n      pop\n        /* \"#utility.yul\":16666:16743   */\n      swap2\n      swap1\n      pop\n      jump\t// out\n        /* \"#utility.yul\":16749:16867   */\n    tag_509:\n        /* \"#utility.yul\":16836:16860   */\n      tag_701\n        /* \"#utility.yul\":16854:16859   */\n      dup2\n        /* \"#utility.yul\":16836:16860   */\n      tag_508\n      jump\t// in\n    tag_701:\n        /* \"#utility.yul\":16831:16834   */\n      dup3\n        /* \"#utility.yul\":16824:16861   */\n      mstore\n        /* \"#utility.yul\":16749:16867   */\n      pop\n      pop\n      jump\t// out\n        /* \"#utility.yul\":16873:17095   */\n    tag_272:\n        /* \"#utility.yul\":16966:16970   */\n      0x00\n        /* \"#utility.yul\":17004:17006   */\n      0x20\n        /* \"#utility.yul\":16993:17002   */\n      dup3\n        /* \"#utility.yul\":16989:17007   */\n      add\n        /* \"#utility.yul\":16981:17007   */\n      swap1\n      pop\n        /* \"#utility.yul\":17017:17088   */\n      tag_703\n        /* \"#utility.yul\":17085:17086   */\n      0x00\n        /* \"#utility.yul\":17074:17083   */\n      dup4\n        /* \"#utility.yul\":17070:17087   */\n      add\n        /* \"#utility.yul\":17061:17067   */\n      dup5\n        /* \"#utility.yul\":17017:17088   */\n      tag_509\n      jump\t// in\n    tag_703:\n        /* \"#utility.yul\":16873:17095   */\n      swap3\n      swap2\n      pop\n      pop\n      jump\t// out\n        /* \"#utility.yul\":17101:17272   */\n    tag_510:\n        /* \"#utility.yul\":17241:17264   */\n      0x4c6f747465727920636f6d6d6974206661696c65640000000000000000000000\n        /* \"#utility.yul\":17237:17238   */\n      0x00\n        /* \"#utility.yul\":17229:17235   */\n      dup3\n        /* \"#utility.yul\":17225:17239   */\n      add\n        /* \"#utility.yul\":17218:17265   */\n      mstore\n        /* \"#utility.yul\":17101:17272   */\n      pop\n      jump\t// out\n        /* \"#utility.yul\":17278:17644   */\n    tag_511:\n        /* \"#utility.yul\":17420:17423   */\n      0x00\n        /* \"#utility.yul\":17441:17508   */\n      tag_706\n        /* \"#utility.yul\":17505:17507   */\n      0x15\n        /* \"#utility.yul\":17500:17503   */\n      dup4\n        /* \"#utility.yul\":17441:17508   */\n      tag_485\n      jump\t// in\n    tag_706:\n        /* \"#utility.yul\":17434:17508   */\n      swap2\n      pop\n        /* \"#utility.yul\":17517:17610   */\n      tag_707\n        /* \"#utility.yul\":17606:17609   */\n      dup3\n        /* \"#utility.yul\":17517:17610   */\n      tag_510\n      jump\t// in\n    tag_707:\n        /* \"#utility.yul\":17635:17637   */\n      0x20\n        /* \"#utility.yul\":17630:17633   */\n      dup3\n        /* \"#utility.yul\":17626:17638   */\n      add\n        /* \"#utility.yul\":17619:17638   */\n      swap1\n      pop\n        /* \"#utility.yul\":17278:17644   */\n      swap2\n      swap1\n      pop\n      jump\t// out\n        /* \"#utility.yul\":17650:18069   */\n    tag_280:\n        /* \"#utility.yul\":17816:17820   */\n      0x00\n        /* \"#utility.yul\":17854:17856   */\n      0x20\n        /* \"#utility.yul\":17843:17852   */\n      dup3\n        /* \"#utility.yul\":17839:17857   */\n      add\n        /* \"#utility.yul\":17831:17857   */\n      swap1\n      pop\n        /* \"#utility.yul\":17903:17912   */\n      dup2\n        /* \"#utility.yul\":17897:17901   */\n      dup2\n        /* \"#utility.yul\":17893:17913   */\n      sub\n        /* \"#utility.yul\":17889:17890   */\n      0x00\n        /* \"#utility.yul\":17878:17887   */\n      dup4\n        /* \"#utility.yul\":17874:17891   */\n      add\n        /* \"#utility.yul\":17867:17914   */\n      mstore\n        /* \"#utility.yul\":17931:18062   */\n      tag_709\n        /* \"#utility.yul\":18057:18061   */\n      dup2\n        /* \"#utility.yul\":17931:18062   */\n      tag_511\n      jump\t// in\n    tag_709:\n        /* \"#utility.yul\":17923:18062   */\n      swap1\n      pop\n        /* \"#utility.yul\":17650:18069   */\n      swap2\n      swap1\n      pop\n      jump\t// out\n        /* \"#utility.yul\":18075:18234   */\n    tag_512:\n        /* \"#utility.yul\":18215:18226   */\n      0x4e6f2073706f7573650000000000000000000000000000000000000000000000\n        /* \"#utility.yul\":18211:18212   */\n      0x00\n        /* \"#utility.yul\":18203:18209   */\n      dup3\n        /* \"#utility.yul\":18199:18213   */\n      add\n        /* \"#utility.yul\":18192:18227   */\n      mstore\n        /* \"#utility.yul\":18075:18234   */\n      pop\n      jump\t// out\n        /* \"#utility.yul\":18240:18605   */\n    tag_513:\n        /* \"#utility.yul\":18382:18385   */\n      0x00\n        /* \"#utility.yul\":18403:18469   */\n      tag_712\n        /* \"#utility.yul\":18467:18468   */\n      0x09\n        /* \"#utility.yul\":18462:18465   */\n      dup4\n        /* \"#utility.yul\":18403:18469   */\n      tag_485\n      jump\t// in\n    tag_712:\n        /* \"#utility.yul\":18396:18469   */\n      swap2\n      pop\n        /* \"#utility.yul\":18478:18571   */\n      tag_713\n        /* \"#utility.yul\":18567:18570   */\n      dup3\n        /* \"#utility.yul\":18478:18571   */\n      tag_512\n      jump\t// in\n    tag_713:\n        /* \"#utility.yul\":18596:18598   */\n      0x20\n        /* \"#utility.yul\":18591:18594   */\n      dup3\n        /* \"#utility.yul\":18587:18599   */\n      add\n        /* \"#utility.yul\":18580:18599   */\n      swap1\n      pop\n        /* \"#utility.yul\":18240:18605   */\n      swap2\n      swap1\n      pop\n      jump\t// out\n        /* \"#utility.yul\":18611:19030   */\n    tag_292:\n        /* \"#utility.yul\":18777:18781   */\n      0x00\n        /* \"#utility.yul\":18815:18817   */\n      0x20\n        /* \"#utility.yul\":18804:18813   */\n      dup3\n        /* \"#utility.yul\":18800:18818   */\n      add\n        /* \"#utility.yul\":18792:18818   */\n      swap1\n      pop\n        /* \"#utility.yul\":18864:18873   */\n      dup2\n        /* \"#utility.yul\":18858:18862   */\n      dup2\n        /* \"#utility.yul\":18854:18874   */\n      sub\n        /* \"#utility.yul\":18850:18851   */\n      0x00\n        /* \"#utility.yul\":18839:18848   */\n      dup4\n        /* \"#utility.yul\":18835:18852   */\n      add\n        /* \"#utility.yul\":18828:18875   */\n      mstore\n        /* \"#utility.yul\":18892:19023   */\n      tag_715\n        /* \"#utility.yul\":19018:19022   */\n      dup2\n        /* \"#utility.yul\":18892:19023   */\n      tag_513\n      jump\t// in\n    tag_715:\n        /* \"#utility.yul\":18884:19023   */\n      swap1\n      pop\n        /* \"#utility.yul\":18611:19030   */\n      swap2\n      swap1\n      pop\n      jump\t// out\n        /* \"#utility.yul\":19036:19197   */\n    tag_514:\n        /* \"#utility.yul\":19176:19189   */\n      0x5a65726f206368616e6765000000000000000000000000000000000000000000\n        /* \"#utility.yul\":19172:19173   */\n      0x00\n        /* \"#utility.yul\":19164:19170   */\n      dup3\n        /* \"#utility.yul\":19160:19174   */\n      add\n        /* \"#utility.yul\":19153:19190   */\n      mstore\n        /* \"#utility.yul\":19036:19197   */\n      pop\n      jump\t// out\n        /* \"#utility.yul\":19203:19569   */\n    tag_515:\n        /* \"#utility.yul\":19345:19348   */\n      0x00\n        /* \"#utility.yul\":19366:19433   */\n      tag_718\n        /* \"#utility.yul\":19430:19432   */\n      0x0b\n        /* \"#utility.yul\":19425:19428   */\n      dup4\n        /* \"#utility.yul\":19366:19433   */\n      tag_485\n      jump\t// in\n    tag_718:\n        /* \"#utility.yul\":19359:19433   */\n      swap2\n      pop\n        /* \"#utility.yul\":19442:19535   */\n      tag_719\n        /* \"#utility.yul\":19531:19534   */\n      dup3\n        /* \"#utility.yul\":19442:19535   */\n      tag_514\n      jump\t// in\n    tag_719:\n        /* \"#utility.yul\":19560:19562   */\n      0x20\n        /* \"#utility.yul\":19555:19558   */\n      dup3\n        /* \"#utility.yul\":19551:19563   */\n      add\n        /* \"#utility.yul\":19544:19563   */\n      swap1\n      pop\n        /* \"#utility.yul\":19203:19569   */\n      swap2\n      swap1\n      pop\n      jump\t// out\n        /* \"#utility.yul\":19575:19994   */\n    tag_295:\n        /* \"#utility.yul\":19741:19745   */\n      0x00\n        /* \"#utility.yul\":19779:19781   */\n      0x20\n        /* \"#utility.yul\":19768:19777   */\n      dup3\n        /* \"#utility.yul\":19764:19782   */\n      add\n        /* \"#utility.yul\":19756:19782   */\n      swap1\n      pop\n        /* \"#utility.yul\":19828:19837   */\n      dup2\n        /* \"#utility.yul\":19822:19826   */\n      dup2\n        /* \"#utility.yul\":19818:19838   */\n      sub\n        /* \"#utility.yul\":19814:19815   */\n      0x00\n        /* \"#utility.yul\":19803:19812   */\n      dup4\n        /* \"#utility.yul\":19799:19816   */\n      add\n        /* \"#utility.yul\":19792:19839   */\n      mstore\n        /* \"#utility.yul\":19856:19987   */\n      tag_721\n        /* \"#utility.yul\":19982:19986   */\n      dup2\n        /* \"#utility.yul\":19856:19987   */\n      tag_515\n      jump\t// in\n    tag_721:\n        /* \"#utility.yul\":19848:19987   */\n      swap1\n      pop\n        /* \"#utility.yul\":19575:19994   */\n      swap2\n      swap1\n      pop\n      jump\t// out\n        /* \"#utility.yul\":20000:20170   */\n    tag_516:\n        /* \"#utility.yul\":20140:20162   */\n      0x4e6f7420656e6f75676820616c6c6f77616e6365000000000000000000000000\n        /* \"#utility.yul\":20136:20137   */\n      0x00\n        /* \"#utility.yul\":20128:20134   */\n      dup3\n        /* \"#utility.yul\":20124:20138   */\n      add\n        /* \"#utility.yul\":20117:20163   */\n      mstore\n        /* \"#utility.yul\":20000:20170   */\n      pop\n      jump\t// out\n        /* \"#utility.yul\":20176:20542   */\n    tag_517:\n        /* \"#utility.yul\":20318:20321   */\n      0x00\n        /* \"#utility.yul\":20339:20406   */\n      tag_724\n        /* \"#utility.yul\":20403:20405   */\n      0x14\n        /* \"#utility.yul\":20398:20401   */\n      dup4\n        /* \"#utility.yul\":20339:20406   */\n      tag_485\n      jump\t// in\n    tag_724:\n        /* \"#utility.yul\":20332:20406   */\n      swap2\n      pop\n        /* \"#utility.yul\":20415:20508   */\n      tag_725\n        /* \"#utility.yul\":20504:20507   */\n      dup3\n        /* \"#utility.yul\":20415:20508   */\n      tag_516\n      jump\t// in\n    tag_725:\n        /* \"#utility.yul\":20533:20535   */\n      0x20\n        /* \"#utility.yul\":20528:20531   */\n      dup3\n        /* \"#utility.yul\":20524:20536   */\n      add\n        /* \"#utility.yul\":20517:20536   */\n      swap1\n      pop\n        /* \"#utility.yul\":20176:20542   */\n      swap2\n      swap1\n      pop\n      jump\t// out\n        /* \"#utility.yul\":20548:20967   */\n    tag_298:\n        /* \"#utility.yul\":20714:20718   */\n      0x00\n        /* \"#utility.yul\":20752:20754   */\n      0x20\n        /* \"#utility.yul\":20741:20750   */\n      dup3\n        /* \"#utility.yul\":20737:20755   */\n      add\n        /* \"#utility.yul\":20729:20755   */\n      swap1\n      pop\n        /* \"#utility.yul\":20801:20810   */\n      dup2\n        /* \"#utility.yul\":20795:20799   */\n      dup2\n        /* \"#utility.yul\":20791:20811   */\n      sub\n        /* \"#utility.yul\":20787:20788   */\n      0x00\n        /* \"#utility.yul\":20776:20785   */\n      dup4\n        /* \"#utility.yul\":20772:20789   */\n      add\n        /* \"#utility.yul\":20765:20812   */\n      mstore\n        /* \"#utility.yul\":20829:20960   */\n      tag_727\n        /* \"#utility.yul\":20955:20959   */\n      dup2\n        /* \"#utility.yul\":20829:20960   */\n      tag_517\n      jump\t// in\n    tag_727:\n        /* \"#utility.yul\":20821:20960   */\n      swap1\n      pop\n        /* \"#utility.yul\":20548:20967   */\n      swap2\n      swap1\n      pop\n      jump\t// out\n        /* \"#utility.yul\":20973:21305   */\n    tag_301:\n        /* \"#utility.yul\":21094:21098   */\n      0x00\n        /* \"#utility.yul\":21132:21134   */\n      0x40\n        /* \"#utility.yul\":21121:21130   */\n      dup3\n        /* \"#utility.yul\":21117:21135   */\n      add\n        /* \"#utility.yul\":21109:21135   */\n      swap1\n      pop\n        /* \"#utility.yul\":21145:21216   */\n      tag_729\n        /* \"#utility.yul\":21213:21214   */\n      0x00\n        /* \"#utility.yul\":21202:21211   */\n      dup4\n        /* \"#utility.yul\":21198:21215   */\n      add\n        /* \"#utility.yul\":21189:21195   */\n      dup6\n        /* \"#utility.yul\":21145:21216   */\n      tag_481\n      jump\t// in\n    tag_729:\n        /* \"#utility.yul\":21226:21298   */\n      tag_730\n        /* \"#utility.yul\":21294:21296   */\n      0x20\n        /* \"#utility.yul\":21283:21292   */\n      dup4\n        /* \"#utility.yul\":21279:21297   */\n      add\n        /* \"#utility.yul\":21270:21276   */\n      dup5\n        /* \"#utility.yul\":21226:21298   */\n      tag_472\n      jump\t// in\n    tag_730:\n        /* \"#utility.yul\":20973:21305   */\n      swap4\n      swap3\n      pop\n      pop\n      pop\n      jump\t// out\n        /* \"#utility.yul\":21311:21486   */\n    tag_518:\n        /* \"#utility.yul\":21451:21478   */\n      0x4661696c656420746f207472616e736665722073706f75736500000000000000\n        /* \"#utility.yul\":21447:21448   */\n      0x00\n        /* \"#utility.yul\":21439:21445   */\n      dup3\n        /* \"#utility.yul\":21435:21449   */\n      add\n        /* \"#utility.yul\":21428:21479   */\n      mstore\n        /* \"#utility.yul\":21311:21486   */\n      pop\n      jump\t// out\n        /* \"#utility.yul\":21492:21858   */\n    tag_519:\n        /* \"#utility.yul\":21634:21637   */\n      0x00\n        /* \"#utility.yul\":21655:21722   */\n      tag_733\n        /* \"#utility.yul\":21719:21721   */\n      0x19\n        /* \"#utility.yul\":21714:21717   */\n      dup4\n        /* \"#utility.yul\":21655:21722   */\n      tag_485\n      jump\t// in\n    tag_733:\n        /* \"#utility.yul\":21648:21722   */\n      swap2\n      pop\n        /* \"#utility.yul\":21731:21824   */\n      tag_734\n        /* \"#utility.yul\":21820:21823   */\n      dup3\n        /* \"#utility.yul\":21731:21824   */\n      tag_518\n      jump\t// in\n    tag_734:\n        /* \"#utility.yul\":21849:21851   */\n      0x20\n        /* \"#utility.yul\":21844:21847   */\n      dup3\n        /* \"#utility.yul\":21840:21852   */\n      add\n        /* \"#utility.yul\":21833:21852   */\n      swap1\n      pop\n        /* \"#utility.yul\":21492:21858   */\n      swap2\n      swap1\n      pop\n      jump\t// out\n        /* \"#utility.yul\":21864:22283   */\n    tag_310:\n        /* \"#utility.yul\":22030:22034   */\n      0x00\n        /* \"#utility.yul\":22068:22070   */\n      0x20\n        /* \"#utility.yul\":22057:22066   */\n      dup3\n        /* \"#utility.yul\":22053:22071   */\n      add\n        /* \"#utility.yul\":22045:22071   */\n      swap1\n      pop\n        /* \"#utility.yul\":22117:22126   */\n      dup2\n        /* \"#utility.yul\":22111:22115   */\n      dup2\n        /* \"#utility.yul\":22107:22127   */\n      sub\n        /* \"#utility.yul\":22103:22104   */\n      0x00\n        /* \"#utility.yul\":22092:22101   */\n      dup4\n        /* \"#utility.yul\":22088:22105   */\n      add\n        /* \"#utility.yul\":22081:22128   */\n      mstore\n        /* \"#utility.yul\":22145:22276   */\n      tag_736\n        /* \"#utility.yul\":22271:22275   */\n      dup2\n        /* \"#utility.yul\":22145:22276   */\n      tag_519\n      jump\t// in\n    tag_736:\n        /* \"#utility.yul\":22137:22276   */\n      swap1\n      pop\n        /* \"#utility.yul\":21864:22283   */\n      swap2\n      swap1\n      pop\n      jump\t// out\n        /* \"#utility.yul\":22289:22411   */\n    tag_520:\n        /* \"#utility.yul\":22362:22386   */\n      tag_738\n        /* \"#utility.yul\":22380:22385   */\n      dup2\n        /* \"#utility.yul\":22362:22386   */\n      tag_508\n      jump\t// in\n    tag_738:\n        /* \"#utility.yul\":22355:22360   */\n      dup2\n        /* \"#utility.yul\":22352:22387   */\n      eq\n        /* \"#utility.yul\":22342:22405   */\n      tag_739\n      jumpi\n        /* \"#utility.yul\":22401:22402   */\n      0x00\n        /* \"#utility.yul\":22398:22399   */\n      0x00\n        /* \"#utility.yul\":22391:22403   */\n      revert\n        /* \"#utility.yul\":22342:22405   */\n    tag_739:\n        /* \"#utility.yul\":22289:22411   */\n      pop\n      jump\t// out\n        /* \"#utility.yul\":22417:22560   */\n    tag_521:\n        /* \"#utility.yul\":22474:22479   */\n      0x00\n        /* \"#utility.yul\":22505:22511   */\n      dup2\n        /* \"#utility.yul\":22499:22512   */\n      mload\n        /* \"#utility.yul\":22490:22512   */\n      swap1\n      pop\n        /* \"#utility.yul\":22521:22554   */\n      tag_741\n        /* \"#utility.yul\":22548:22553   */\n      dup2\n        /* \"#utility.yul\":22521:22554   */\n      tag_520\n      jump\t// in\n    tag_741:\n        /* \"#utility.yul\":22417:22560   */\n      swap3\n      swap2\n      pop\n      pop\n      jump\t// out\n        /* \"#utility.yul\":22566:22917   */\n    tag_320:\n        /* \"#utility.yul\":22636:22642   */\n      0x00\n        /* \"#utility.yul\":22685:22687   */\n      0x20\n        /* \"#utility.yul\":22673:22682   */\n      dup3\n        /* \"#utility.yul\":22664:22671   */\n      dup5\n        /* \"#utility.yul\":22660:22683   */\n      sub\n        /* \"#utility.yul\":22656:22688   */\n      slt\n        /* \"#utility.yul\":22653:22772   */\n      iszero\n      tag_743\n      jumpi\n        /* \"#utility.yul\":22691:22770   */\n      tag_744\n      tag_474\n      jump\t// in\n    tag_744:\n        /* \"#utility.yul\":22653:22772   */\n    tag_743:\n        /* \"#utility.yul\":22811:22812   */\n      0x00\n        /* \"#utility.yul\":22836:22900   */\n      tag_745\n        /* \"#utility.yul\":22892:22899   */\n      dup5\n        /* \"#utility.yul\":22883:22889   */\n      dup3\n        /* \"#utility.yul\":22872:22881   */\n      dup6\n        /* \"#utility.yul\":22868:22890   */\n      add\n        /* \"#utility.yul\":22836:22900   */\n      tag_521\n      jump\t// in\n    tag_745:\n        /* \"#utility.yul\":22826:22900   */\n      swap2\n      pop\n        /* \"#utility.yul\":22782:22910   */\n      pop\n        /* \"#utility.yul\":22566:22917   */\n      swap3\n      swap2\n      pop\n      pop\n      jump\t// out\n        /* \"#utility.yul\":22923:23093   */\n    tag_522:\n        /* \"#utility.yul\":23063:23085   */\n      0x4920616d20616c7265616479206d617272696564000000000000000000000000\n        /* \"#utility.yul\":23059:23060   */\n      0x00\n        /* \"#utility.yul\":23051:23057   */\n      dup3\n        /* \"#utility.yul\":23047:23061   */\n      add\n        /* \"#utility.yul\":23040:23086   */\n      mstore\n        /* \"#utility.yul\":22923:23093   */\n      pop\n      jump\t// out\n        /* \"#utility.yul\":23099:23465   */\n    tag_523:\n        /* \"#utility.yul\":23241:23244   */\n      0x00\n        /* \"#utility.yul\":23262:23329   */\n      tag_748\n        /* \"#utility.yul\":23326:23328   */\n      0x14\n        /* \"#utility.yul\":23321:23324   */\n      dup4\n        /* \"#utility.yul\":23262:23329   */\n      tag_485\n      jump\t// in\n    tag_748:\n        /* \"#utility.yul\":23255:23329   */\n      swap2\n      pop\n        /* \"#utility.yul\":23338:23431   */\n      tag_749\n        /* \"#utility.yul\":23427:23430   */\n      dup3\n        /* \"#utility.yul\":23338:23431   */\n      tag_522\n      jump\t// in\n    tag_749:\n        /* \"#utility.yul\":23456:23458   */\n      0x20\n        /* \"#utility.yul\":23451:23454   */\n      dup3\n        /* \"#utility.yul\":23447:23459   */\n      add\n        /* \"#utility.yul\":23440:23459   */\n      swap1\n      pop\n        /* \"#utility.yul\":23099:23465   */\n      swap2\n      swap1\n      pop\n      jump\t// out\n        /* \"#utility.yul\":23471:23890   */\n    tag_342:\n        /* \"#utility.yul\":23637:23641   */\n      0x00\n        /* \"#utility.yul\":23675:23677   */\n      0x20\n        /* \"#utility.yul\":23664:23673   */\n      dup3\n        /* \"#utility.yul\":23660:23678   */\n      add\n        /* \"#utility.yul\":23652:23678   */\n      swap1\n      pop\n        /* \"#utility.yul\":23724:23733   */\n      dup2\n        /* \"#utility.yul\":23718:23722   */\n      dup2\n        /* \"#utility.yul\":23714:23734   */\n      sub\n        /* \"#utility.yul\":23710:23711   */\n      0x00\n        /* \"#utility.yul\":23699:23708   */\n      dup4\n        /* \"#utility.yul\":23695:23712   */\n      add\n        /* \"#utility.yul\":23688:23735   */\n      mstore\n        /* \"#utility.yul\":23752:23883   */\n      tag_751\n        /* \"#utility.yul\":23878:23882   */\n      dup2\n        /* \"#utility.yul\":23752:23883   */\n      tag_523\n      jump\t// in\n    tag_751:\n        /* \"#utility.yul\":23744:23883   */\n      swap1\n      pop\n        /* \"#utility.yul\":23471:23890   */\n      swap2\n      swap1\n      pop\n      jump\t// out\n        /* \"#utility.yul\":23896:24075   */\n    tag_524:\n        /* \"#utility.yul\":24036:24067   */\n      0x53706f7573652063616e6e6f74206265207a65726f2061646472657373000000\n        /* \"#utility.yul\":24032:24033   */\n      0x00\n        /* \"#utility.yul\":24024:24030   */\n      dup3\n        /* \"#utility.yul\":24020:24034   */\n      add\n        /* \"#utility.yul\":24013:24068   */\n      mstore\n        /* \"#utility.yul\":23896:24075   */\n      pop\n      jump\t// out\n        /* \"#utility.yul\":24081:24447   */\n    tag_525:\n        /* \"#utility.yul\":24223:24226   */\n      0x00\n        /* \"#utility.yul\":24244:24311   */\n      tag_754\n        /* \"#utility.yul\":24308:24310   */\n      0x1d\n        /* \"#utility.yul\":24303:24306   */\n      dup4\n        /* \"#utility.yul\":24244:24311   */\n      tag_485\n      jump\t// in\n    tag_754:\n        /* \"#utility.yul\":24237:24311   */\n      swap2\n      pop\n        /* \"#utility.yul\":24320:24413   */\n      tag_755\n        /* \"#utility.yul\":24409:24412   */\n      dup3\n        /* \"#utility.yul\":24320:24413   */\n      tag_524\n      jump\t// in\n    tag_755:\n        /* \"#utility.yul\":24438:24440   */\n      0x20\n        /* \"#utility.yul\":24433:24436   */\n      dup3\n        /* \"#utility.yul\":24429:24441   */\n      add\n        /* \"#utility.yul\":24422:24441   */\n      swap1\n      pop\n        /* \"#utility.yul\":24081:24447   */\n      swap2\n      swap1\n      pop\n      jump\t// out\n        /* \"#utility.yul\":24453:24872   */\n    tag_345:\n        /* \"#utility.yul\":24619:24623   */\n      0x00\n        /* \"#utility.yul\":24657:24659   */\n      0x20\n        /* \"#utility.yul\":24646:24655   */\n      dup3\n        /* \"#utility.yul\":24642:24660   */\n      add\n        /* \"#utility.yul\":24634:24660   */\n      swap1\n      pop\n        /* \"#utility.yul\":24706:24715   */\n      dup2\n        /* \"#utility.yul\":24700:24704   */\n      dup2\n        /* \"#utility.yul\":24696:24716   */\n      sub\n        /* \"#utility.yul\":24692:24693   */\n      0x00\n        /* \"#utility.yul\":24681:24690   */\n      dup4\n        /* \"#utility.yul\":24677:24694   */\n      add\n        /* \"#utility.yul\":24670:24717   */\n      mstore\n        /* \"#utility.yul\":24734:24865   */\n      tag_757\n        /* \"#utility.yul\":24860:24864   */\n      dup2\n        /* \"#utility.yul\":24734:24865   */\n      tag_525\n      jump\t// in\n    tag_757:\n        /* \"#utility.yul\":24726:24865   */\n      swap1\n      pop\n        /* \"#utility.yul\":24453:24872   */\n      swap2\n      swap1\n      pop\n      jump\t// out\n        /* \"#utility.yul\":24878:25047   */\n    tag_526:\n        /* \"#utility.yul\":25018:25039   */\n      0x43616e6e6f74206d61727279206d7973656c6600000000000000000000000000\n        /* \"#utility.yul\":25014:25015   */\n      0x00\n        /* \"#utility.yul\":25006:25012   */\n      dup3\n        /* \"#utility.yul\":25002:25016   */\n      add\n        /* \"#utility.yul\":24995:25040   */\n      mstore\n        /* \"#utility.yul\":24878:25047   */\n      pop\n      jump\t// out\n        /* \"#utility.yul\":25053:25419   */\n    tag_527:\n        /* \"#utility.yul\":25195:25198   */\n      0x00\n        /* \"#utility.yul\":25216:25283   */\n      tag_760\n        /* \"#utility.yul\":25280:25282   */\n      0x13\n        /* \"#utility.yul\":25275:25278   */\n      dup4\n        /* \"#utility.yul\":25216:25283   */\n      tag_485\n      jump\t// in\n    tag_760:\n        /* \"#utility.yul\":25209:25283   */\n      swap2\n      pop\n        /* \"#utility.yul\":25292:25385   */\n      tag_761\n        /* \"#utility.yul\":25381:25384   */\n      dup3\n        /* \"#utility.yul\":25292:25385   */\n      tag_526\n      jump\t// in\n    tag_761:\n        /* \"#utility.yul\":25410:25412   */\n      0x20\n        /* \"#utility.yul\":25405:25408   */\n      dup3\n        /* \"#utility.yul\":25401:25413   */\n      add\n        /* \"#utility.yul\":25394:25413   */\n      swap1\n      pop\n        /* \"#utility.yul\":25053:25419   */\n      swap2\n      swap1\n      pop\n      jump\t// out\n        /* \"#utility.yul\":25425:25844   */\n    tag_348:\n        /* \"#utility.yul\":25591:25595   */\n      0x00\n        /* \"#utility.yul\":25629:25631   */\n      0x20\n        /* \"#utility.yul\":25618:25627   */\n      dup3\n        /* \"#utility.yul\":25614:25632   */\n      add\n        /* \"#utility.yul\":25606:25632   */\n      swap1\n      pop\n        /* \"#utility.yul\":25678:25687   */\n      dup2\n        /* \"#utility.yul\":25672:25676   */\n      dup2\n        /* \"#utility.yul\":25668:25688   */\n      sub\n        /* \"#utility.yul\":25664:25665   */\n      0x00\n        /* \"#utility.yul\":25653:25662   */\n      dup4\n        /* \"#utility.yul\":25649:25666   */\n      add\n        /* \"#utility.yul\":25642:25689   */\n      mstore\n        /* \"#utility.yul\":25706:25837   */\n      tag_763\n        /* \"#utility.yul\":25832:25836   */\n      dup2\n        /* \"#utility.yul\":25706:25837   */\n      tag_527\n      jump\t// in\n    tag_763:\n        /* \"#utility.yul\":25698:25837   */\n      swap1\n      pop\n        /* \"#utility.yul\":25425:25844   */\n      swap2\n      swap1\n      pop\n      jump\t// out\n        /* \"#utility.yul\":25850:26025   */\n    tag_528:\n        /* \"#utility.yul\":25990:26017   */\n      0x53706f757365206d757374206265206120636f6e747261637400000000000000\n        /* \"#utility.yul\":25986:25987   */\n      0x00\n        /* \"#utility.yul\":25978:25984   */\n      dup3\n        /* \"#utility.yul\":25974:25988   */\n      add\n        /* \"#utility.yul\":25967:26018   */\n      mstore\n        /* \"#utility.yul\":25850:26025   */\n      pop\n      jump\t// out\n        /* \"#utility.yul\":26031:26397   */\n    tag_529:\n        /* \"#utility.yul\":26173:26176   */\n      0x00\n        /* \"#utility.yul\":26194:26261   */\n      tag_766\n        /* \"#utility.yul\":26258:26260   */\n      0x19\n        /* \"#utility.yul\":26253:26256   */\n      dup4\n        /* \"#utility.yul\":26194:26261   */\n      tag_485\n      jump\t// in\n    tag_766:\n        /* \"#utility.yul\":26187:26261   */\n      swap2\n      pop\n        /* \"#utility.yul\":26270:26363   */\n      tag_767\n        /* \"#utility.yul\":26359:26362   */\n      dup3\n        /* \"#utility.yul\":26270:26363   */\n      tag_528\n      jump\t// in\n    tag_767:\n        /* \"#utility.yul\":26388:26390   */\n      0x20\n        /* \"#utility.yul\":26383:26386   */\n      dup3\n        /* \"#utility.yul\":26379:26391   */\n      add\n        /* \"#utility.yul\":26372:26391   */\n      swap1\n      pop\n        /* \"#utility.yul\":26031:26397   */\n      swap2\n      swap1\n      pop\n      jump\t// out\n        /* \"#utility.yul\":26403:26822   */\n    tag_351:\n        /* \"#utility.yul\":26569:26573   */\n      0x00\n        /* \"#utility.yul\":26607:26609   */\n      0x20\n        /* \"#utility.yul\":26596:26605   */\n      dup3\n        /* \"#utility.yul\":26592:26610   */\n      add\n        /* \"#utility.yul\":26584:26610   */\n      swap1\n      pop\n        /* \"#utility.yul\":26656:26665   */\n      dup2\n        /* \"#utility.yul\":26650:26654   */\n      dup2\n        /* \"#utility.yul\":26646:26666   */\n      sub\n        /* \"#utility.yul\":26642:26643   */\n      0x00\n        /* \"#utility.yul\":26631:26640   */\n      dup4\n        /* \"#utility.yul\":26627:26644   */\n      add\n        /* \"#utility.yul\":26620:26667   */\n      mstore\n        /* \"#utility.yul\":26684:26815   */\n      tag_769\n        /* \"#utility.yul\":26810:26814   */\n      dup2\n        /* \"#utility.yul\":26684:26815   */\n      tag_529\n      jump\t// in\n    tag_769:\n        /* \"#utility.yul\":26676:26815   */\n      swap1\n      pop\n        /* \"#utility.yul\":26403:26822   */\n      swap2\n      swap1\n      pop\n      jump\t// out\n        /* \"#utility.yul\":26828:26999   */\n    tag_530:\n        /* \"#utility.yul\":26968:26991   */\n      0x53706f757365206e6f7420636f6d70617469626c650000000000000000000000\n        /* \"#utility.yul\":26964:26965   */\n      0x00\n        /* \"#utility.yul\":26956:26962   */\n      dup3\n        /* \"#utility.yul\":26952:26966   */\n      add\n        /* \"#utility.yul\":26945:26992   */\n      mstore\n        /* \"#utility.yul\":26828:26999   */\n      pop\n      jump\t// out\n        /* \"#utility.yul\":27005:27371   */\n    tag_531:\n        /* \"#utility.yul\":27147:27150   */\n      0x00\n        /* \"#utility.yul\":27168:27235   */\n      tag_772\n        /* \"#utility.yul\":27232:27234   */\n      0x15\n        /* \"#utility.yul\":27227:27230   */\n      dup4\n        /* \"#utility.yul\":27168:27235   */\n      tag_485\n      jump\t// in\n    tag_772:\n        /* \"#utility.yul\":27161:27235   */\n      swap2\n      pop\n        /* \"#utility.yul\":27244:27337   */\n      tag_773\n        /* \"#utility.yul\":27333:27336   */\n      dup3\n        /* \"#utility.yul\":27244:27337   */\n      tag_530\n      jump\t// in\n    tag_773:\n        /* \"#utility.yul\":27362:27364   */\n      0x20\n        /* \"#utility.yul\":27357:27360   */\n      dup3\n        /* \"#utility.yul\":27353:27365   */\n      add\n        /* \"#utility.yul\":27346:27365   */\n      swap1\n      pop\n        /* \"#utility.yul\":27005:27371   */\n      swap2\n      swap1\n      pop\n      jump\t// out\n        /* \"#utility.yul\":27377:27796   */\n    tag_359:\n        /* \"#utility.yul\":27543:27547   */\n      0x00\n        /* \"#utility.yul\":27581:27583   */\n      0x20\n        /* \"#utility.yul\":27570:27579   */\n      dup3\n        /* \"#utility.yul\":27566:27584   */\n      add\n        /* \"#utility.yul\":27558:27584   */\n      swap1\n      pop\n        /* \"#utility.yul\":27630:27639   */\n      dup2\n        /* \"#utility.yul\":27624:27628   */\n      dup2\n        /* \"#utility.yul\":27620:27640   */\n      sub\n        /* \"#utility.yul\":27616:27617   */\n      0x00\n        /* \"#utility.yul\":27605:27614   */\n      dup4\n        /* \"#utility.yul\":27601:27618   */\n      add\n        /* \"#utility.yul\":27594:27641   */\n      mstore\n        /* \"#utility.yul\":27658:27789   */\n      tag_775\n        /* \"#utility.yul\":27784:27788   */\n      dup2\n        /* \"#utility.yul\":27658:27789   */\n      tag_531\n      jump\t// in\n    tag_775:\n        /* \"#utility.yul\":27650:27789   */\n      swap1\n      pop\n        /* \"#utility.yul\":27377:27796   */\n      swap2\n      swap1\n      pop\n      jump\t// out\n        /* \"#utility.yul\":27802:27974   */\n    tag_532:\n        /* \"#utility.yul\":27942:27966   */\n      0x53706f75736520616c7265616479206d61727269656400000000000000000000\n        /* \"#utility.yul\":27938:27939   */\n      0x00\n        /* \"#utility.yul\":27930:27936   */\n      dup3\n        /* \"#utility.yul\":27926:27940   */\n      add\n        /* \"#utility.yul\":27919:27967   */\n      mstore\n        /* \"#utility.yul\":27802:27974   */\n      pop\n      jump\t// out\n        /* \"#utility.yul\":27980:28346   */\n    tag_533:\n        /* \"#utility.yul\":28122:28125   */\n      0x00\n        /* \"#utility.yul\":28143:28210   */\n      tag_778\n        /* \"#utility.yul\":28207:28209   */\n      0x16\n        /* \"#utility.yul\":28202:28205   */\n      dup4\n        /* \"#utility.yul\":28143:28210   */\n      tag_485\n      jump\t// in\n    tag_778:\n        /* \"#utility.yul\":28136:28210   */\n      swap2\n      pop\n        /* \"#utility.yul\":28219:28312   */\n      tag_779\n        /* \"#utility.yul\":28308:28311   */\n      dup3\n        /* \"#utility.yul\":28219:28312   */\n      tag_532\n      jump\t// in\n    tag_779:\n        /* \"#utility.yul\":28337:28339   */\n      0x20\n        /* \"#utility.yul\":28332:28335   */\n      dup3\n        /* \"#utility.yul\":28328:28340   */\n      add\n        /* \"#utility.yul\":28321:28340   */\n      swap1\n      pop\n        /* \"#utility.yul\":27980:28346   */\n      swap2\n      swap1\n      pop\n      jump\t// out\n        /* \"#utility.yul\":28352:28771   */\n    tag_363:\n        /* \"#utility.yul\":28518:28522   */\n      0x00\n        /* \"#utility.yul\":28556:28558   */\n      0x20\n        /* \"#utility.yul\":28545:28554   */\n      dup3\n        /* \"#utility.yul\":28541:28559   */\n      add\n        /* \"#utility.yul\":28533:28559   */\n      swap1\n      pop\n        /* \"#utility.yul\":28605:28614   */\n      dup2\n        /* \"#utility.yul\":28599:28603   */\n      dup2\n        /* \"#utility.yul\":28595:28615   */\n      sub\n        /* \"#utility.yul\":28591:28592   */\n      0x00\n        /* \"#utility.yul\":28580:28589   */\n      dup4\n        /* \"#utility.yul\":28576:28593   */\n      add\n        /* \"#utility.yul\":28569:28616   */\n      mstore\n        /* \"#utility.yul\":28633:28764   */\n      tag_781\n        /* \"#utility.yul\":28759:28763   */\n      dup2\n        /* \"#utility.yul\":28633:28764   */\n      tag_533\n      jump\t// in\n    tag_781:\n        /* \"#utility.yul\":28625:28764   */\n      swap1\n      pop\n        /* \"#utility.yul\":28352:28771   */\n      swap2\n      swap1\n      pop\n      jump\t// out\n        /* \"#utility.yul\":28777:28951   */\n    tag_534:\n        /* \"#utility.yul\":28917:28943   */\n      0x4661696c656420746f2075706461746520706172746e65720000000000000000\n        /* \"#utility.yul\":28913:28914   */\n      0x00\n        /* \"#utility.yul\":28905:28911   */\n      dup3\n        /* \"#utility.yul\":28901:28915   */\n      add\n        /* \"#utility.yul\":28894:28944   */\n      mstore\n        /* \"#utility.yul\":28777:28951   */\n      pop\n      jump\t// out\n        /* \"#utility.yul\":28957:29323   */\n    tag_535:\n        /* \"#utility.yul\":29099:29102   */\n      0x00\n        /* \"#utility.yul\":29120:29187   */\n      tag_784\n        /* \"#utility.yul\":29184:29186   */\n      0x18\n        /* \"#utility.yul\":29179:29182   */\n      dup4\n        /* \"#utility.yul\":29120:29187   */\n      tag_485\n      jump\t// in\n    tag_784:\n        /* \"#utility.yul\":29113:29187   */\n      swap2\n      pop\n        /* \"#utility.yul\":29196:29289   */\n      tag_785\n        /* \"#utility.yul\":29285:29288   */\n      dup3\n        /* \"#utility.yul\":29196:29289   */\n      tag_534\n      jump\t// in\n    tag_785:\n        /* \"#utility.yul\":29314:29316   */\n      0x20\n        /* \"#utility.yul\":29309:29312   */\n      dup3\n        /* \"#utility.yul\":29305:29317   */\n      add\n        /* \"#utility.yul\":29298:29317   */\n      swap1\n      pop\n        /* \"#utility.yul\":28957:29323   */\n      swap2\n      swap1\n      pop\n      jump\t// out\n        /* \"#utility.yul\":29329:29748   */\n    tag_373:\n        /* \"#utility.yul\":29495:29499   */\n      0x00\n        /* \"#utility.yul\":29533:29535   */\n      0x20\n        /* \"#utility.yul\":29522:29531   */\n      dup3\n        /* \"#utility.yul\":29518:29536   */\n      add\n        /* \"#utility.yul\":29510:29536   */\n      swap1\n      pop\n        /* \"#utility.yul\":29582:29591   */\n      dup2\n        /* \"#utility.yul\":29576:29580   */\n      dup2\n        /* \"#utility.yul\":29572:29592   */\n      sub\n        /* \"#utility.yul\":29568:29569   */\n      0x00\n        /* \"#utility.yul\":29557:29566   */\n      dup4\n        /* \"#utility.yul\":29553:29570   */\n      add\n        /* \"#utility.yul\":29546:29593   */\n      mstore\n        /* \"#utility.yul\":29610:29741   */\n      tag_787\n        /* \"#utility.yul\":29736:29740   */\n      dup2\n        /* \"#utility.yul\":29610:29741   */\n      tag_535\n      jump\t// in\n    tag_787:\n        /* \"#utility.yul\":29602:29741   */\n      swap1\n      pop\n        /* \"#utility.yul\":29329:29748   */\n      swap2\n      swap1\n      pop\n      jump\t// out\n        /* \"#utility.yul\":29754:29897   */\n    tag_536:\n        /* \"#utility.yul\":29811:29816   */\n      0x00\n        /* \"#utility.yul\":29842:29848   */\n      dup2\n        /* \"#utility.yul\":29836:29849   */\n      mload\n        /* \"#utility.yul\":29827:29849   */\n      swap1\n      pop\n        /* \"#utility.yul\":29858:29891   */\n      tag_789\n        /* \"#utility.yul\":29885:29890   */\n      dup2\n        /* \"#utility.yul\":29858:29891   */\n      tag_479\n      jump\t// in\n    tag_789:\n        /* \"#utility.yul\":29754:29897   */\n      swap3\n      swap2\n      pop\n      pop\n      jump\t// out\n        /* \"#utility.yul\":29903:30254   */\n    tag_378:\n        /* \"#utility.yul\":29973:29979   */\n      0x00\n        /* \"#utility.yul\":30022:30024   */\n      0x20\n        /* \"#utility.yul\":30010:30019   */\n      dup3\n        /* \"#utility.yul\":30001:30008   */\n      dup5\n        /* \"#utility.yul\":29997:30020   */\n      sub\n        /* \"#utility.yul\":29993:30025   */\n      slt\n        /* \"#utility.yul\":29990:30109   */\n      iszero\n      tag_791\n      jumpi\n        /* \"#utility.yul\":30028:30107   */\n      tag_792\n      tag_474\n      jump\t// in\n    tag_792:\n        /* \"#utility.yul\":29990:30109   */\n    tag_791:\n        /* \"#utility.yul\":30148:30149   */\n      0x00\n        /* \"#utility.yul\":30173:30237   */\n      tag_793\n        /* \"#utility.yul\":30229:30236   */\n      dup5\n        /* \"#utility.yul\":30220:30226   */\n      dup3\n        /* \"#utility.yul\":30209:30218   */\n      dup6\n        /* \"#utility.yul\":30205:30227   */\n      add\n        /* \"#utility.yul\":30173:30237   */\n      tag_536\n      jump\t// in\n    tag_793:\n        /* \"#utility.yul\":30163:30237   */\n      swap2\n      pop\n        /* \"#utility.yul\":30119:30247   */\n      pop\n        /* \"#utility.yul\":29903:30254   */\n      swap3\n      swap2\n      pop\n      pop\n      jump\t// out\n        /* \"#utility.yul\":30260:30441   */\n    tag_537:\n        /* \"#utility.yul\":30400:30433   */\n      0x4661696c656420746f2073657420706172746e657220616c6c6f77616e636500\n        /* \"#utility.yul\":30396:30397   */\n      0x00\n        /* \"#utility.yul\":30388:30394   */\n      dup3\n        /* \"#utility.yul\":30384:30398   */\n      add\n        /* \"#utility.yul\":30377:30434   */\n      mstore\n        /* \"#utility.yul\":30260:30441   */\n      pop\n      jump\t// out\n        /* \"#utility.yul\":30447:30813   */\n    tag_538:\n        /* \"#utility.yul\":30589:30592   */\n      0x00\n        /* \"#utility.yul\":30610:30677   */\n      tag_796\n        /* \"#utility.yul\":30674:30676   */\n      0x1f\n        /* \"#utility.yul\":30669:30672   */\n      dup4\n        /* \"#utility.yul\":30610:30677   */\n      tag_485\n      jump\t// in\n    tag_796:\n        /* \"#utility.yul\":30603:30677   */\n      swap2\n      pop\n        /* \"#utility.yul\":30686:30779   */\n      tag_797\n        /* \"#utility.yul\":30775:30778   */\n      dup3\n        /* \"#utility.yul\":30686:30779   */\n      tag_537\n      jump\t// in\n    tag_797:\n        /* \"#utility.yul\":30804:30806   */\n      0x20\n        /* \"#utility.yul\":30799:30802   */\n      dup3\n        /* \"#utility.yul\":30795:30807   */\n      add\n        /* \"#utility.yul\":30788:30807   */\n      swap1\n      pop\n        /* \"#utility.yul\":30447:30813   */\n      swap2\n      swap1\n      pop\n      jump\t// out\n        /* \"#utility.yul\":30819:31238   */\n    tag_387:\n        /* \"#utility.yul\":30985:30989   */\n      0x00\n        /* \"#utility.yul\":31023:31025   */\n      0x20\n        /* \"#utility.yul\":31012:31021   */\n      dup3\n        /* \"#utility.yul\":31008:31026   */\n      add\n        /* \"#utility.yul\":31000:31026   */\n      swap1\n      pop\n        /* \"#utility.yul\":31072:31081   */\n      dup2\n        /* \"#utility.yul\":31066:31070   */\n      dup2\n        /* \"#utility.yul\":31062:31082   */\n      sub\n        /* \"#utility.yul\":31058:31059   */\n      0x00\n        /* \"#utility.yul\":31047:31056   */\n      dup4\n        /* \"#utility.yul\":31043:31060   */\n      add\n        /* \"#utility.yul\":31036:31083   */\n      mstore\n        /* \"#utility.yul\":31100:31231   */\n      tag_799\n        /* \"#utility.yul\":31226:31230   */\n      dup2\n        /* \"#utility.yul\":31100:31231   */\n      tag_538\n      jump\t// in\n    tag_799:\n        /* \"#utility.yul\":31092:31231   */\n      swap1\n      pop\n        /* \"#utility.yul\":30819:31238   */\n      swap2\n      swap1\n      pop\n      jump\t// out\n        /* \"#utility.yul\":31244:31420   */\n    tag_539:\n        /* \"#utility.yul\":31384:31412   */\n      0x4f6e6c7920706172746e65722063616e2063616c6c2074686973000000000000\n        /* \"#utility.yul\":31380:31381   */\n      0x00\n        /* \"#utility.yul\":31372:31378   */\n      dup3\n        /* \"#utility.yul\":31368:31382   */\n      add\n        /* \"#utility.yul\":31361:31413   */\n      mstore\n        /* \"#utility.yul\":31244:31420   */\n      pop\n      jump\t// out\n        /* \"#utility.yul\":31426:31792   */\n    tag_540:\n        /* \"#utility.yul\":31568:31571   */\n      0x00\n        /* \"#utility.yul\":31589:31656   */\n      tag_802\n        /* \"#utility.yul\":31653:31655   */\n      0x1a\n        /* \"#utility.yul\":31648:31651   */\n      dup4\n        /* \"#utility.yul\":31589:31656   */\n      tag_485\n      jump\t// in\n    tag_802:\n        /* \"#utility.yul\":31582:31656   */\n      swap2\n      pop\n        /* \"#utility.yul\":31665:31758   */\n      tag_803\n        /* \"#utility.yul\":31754:31757   */\n      dup3\n        /* \"#utility.yul\":31665:31758   */\n      tag_539\n      jump\t// in\n    tag_803:\n        /* \"#utility.yul\":31783:31785   */\n      0x20\n        /* \"#utility.yul\":31778:31781   */\n      dup3\n        /* \"#utility.yul\":31774:31786   */\n      add\n        /* \"#utility.yul\":31767:31786   */\n      swap1\n      pop\n        /* \"#utility.yul\":31426:31792   */\n      swap2\n      swap1\n      pop\n      jump\t// out\n        /* \"#utility.yul\":31798:32217   */\n    tag_395:\n        /* \"#utility.yul\":31964:31968   */\n      0x00\n        /* \"#utility.yul\":32002:32004   */\n      0x20\n        /* \"#utility.yul\":31991:32000   */\n      dup3\n        /* \"#utility.yul\":31987:32005   */\n      add\n        /* \"#utility.yul\":31979:32005   */\n      swap1\n      pop\n        /* \"#utility.yul\":32051:32060   */\n      dup2\n        /* \"#utility.yul\":32045:32049   */\n      dup2\n        /* \"#utility.yul\":32041:32061   */\n      sub\n        /* \"#utility.yul\":32037:32038   */\n      0x00\n        /* \"#utility.yul\":32026:32035   */\n      dup4\n        /* \"#utility.yul\":32022:32039   */\n      add\n        /* \"#utility.yul\":32015:32062   */\n      mstore\n        /* \"#utility.yul\":32079:32210   */\n      tag_805\n        /* \"#utility.yul\":32205:32209   */\n      dup2\n        /* \"#utility.yul\":32079:32210   */\n      tag_540\n      jump\t// in\n    tag_805:\n        /* \"#utility.yul\":32071:32210   */\n      swap1\n      pop\n        /* \"#utility.yul\":31798:32217   */\n      swap2\n      swap1\n      pop\n      jump\t// out\n        /* \"#utility.yul\":32223:32392   */\n    tag_541:\n        /* \"#utility.yul\":32363:32384   */\n      0x4f6e6c792073706f7573652063616e2073657400000000000000000000000000\n        /* \"#utility.yul\":32359:32360   */\n      0x00\n        /* \"#utility.yul\":32351:32357   */\n      dup3\n        /* \"#utility.yul\":32347:32361   */\n      add\n        /* \"#utility.yul\":32340:32385   */\n      mstore\n        /* \"#utility.yul\":32223:32392   */\n      pop\n      jump\t// out\n        /* \"#utility.yul\":32398:32764   */\n    tag_542:\n        /* \"#utility.yul\":32540:32543   */\n      0x00\n        /* \"#utility.yul\":32561:32628   */\n      tag_808\n        /* \"#utility.yul\":32625:32627   */\n      0x13\n        /* \"#utility.yul\":32620:32623   */\n      dup4\n        /* \"#utility.yul\":32561:32628   */\n      tag_485\n      jump\t// in\n    tag_808:\n        /* \"#utility.yul\":32554:32628   */\n      swap2\n      pop\n        /* \"#utility.yul\":32637:32730   */\n      tag_809\n        /* \"#utility.yul\":32726:32729   */\n      dup3\n        /* \"#utility.yul\":32637:32730   */\n      tag_541\n      jump\t// in\n    tag_809:\n        /* \"#utility.yul\":32755:32757   */\n      0x20\n        /* \"#utility.yul\":32750:32753   */\n      dup3\n        /* \"#utility.yul\":32746:32758   */\n      add\n        /* \"#utility.yul\":32739:32758   */\n      swap1\n      pop\n        /* \"#utility.yul\":32398:32764   */\n      swap2\n      swap1\n      pop\n      jump\t// out\n        /* \"#utility.yul\":32770:33189   */\n    tag_403:\n        /* \"#utility.yul\":32936:32940   */\n      0x00\n        /* \"#utility.yul\":32974:32976   */\n      0x20\n        /* \"#utility.yul\":32963:32972   */\n      dup3\n        /* \"#utility.yul\":32959:32977   */\n      add\n        /* \"#utility.yul\":32951:32977   */\n      swap1\n      pop\n        /* \"#utility.yul\":33023:33032   */\n      dup2\n        /* \"#utility.yul\":33017:33021   */\n      dup2\n        /* \"#utility.yul\":33013:33033   */\n      sub\n        /* \"#utility.yul\":33009:33010   */\n      0x00\n        /* \"#utility.yul\":32998:33007   */\n      dup4\n        /* \"#utility.yul\":32994:33011   */\n      add\n        /* \"#utility.yul\":32987:33034   */\n      mstore\n        /* \"#utility.yul\":33051:33182   */\n      tag_811\n        /* \"#utility.yul\":33177:33181   */\n      dup2\n        /* \"#utility.yul\":33051:33182   */\n      tag_542\n      jump\t// in\n    tag_811:\n        /* \"#utility.yul\":33043:33182   */\n      swap1\n      pop\n        /* \"#utility.yul\":32770:33189   */\n      swap2\n      swap1\n      pop\n      jump\t// out\n        /* \"#utility.yul\":33195:33356   */\n    tag_543:\n        /* \"#utility.yul\":33335:33348   */\n      0x4e6f74206d617272696564000000000000000000000000000000000000000000\n        /* \"#utility.yul\":33331:33332   */\n      0x00\n        /* \"#utility.yul\":33323:33329   */\n      dup3\n        /* \"#utility.yul\":33319:33333   */\n      add\n        /* \"#utility.yul\":33312:33349   */\n      mstore\n        /* \"#utility.yul\":33195:33356   */\n      pop\n      jump\t// out\n        /* \"#utility.yul\":33362:33728   */\n    tag_544:\n        /* \"#utility.yul\":33504:33507   */\n      0x00\n        /* \"#utility.yul\":33525:33592   */\n      tag_814\n        /* \"#utility.yul\":33589:33591   */\n      0x0b\n        /* \"#utility.yul\":33584:33587   */\n      dup4\n        /* \"#utility.yul\":33525:33592   */\n      tag_485\n      jump\t// in\n    tag_814:\n        /* \"#utility.yul\":33518:33592   */\n      swap2\n      pop\n        /* \"#utility.yul\":33601:33694   */\n      tag_815\n        /* \"#utility.yul\":33690:33693   */\n      dup3\n        /* \"#utility.yul\":33601:33694   */\n      tag_543\n      jump\t// in\n    tag_815:\n        /* \"#utility.yul\":33719:33721   */\n      0x20\n        /* \"#utility.yul\":33714:33717   */\n      dup3\n        /* \"#utility.yul\":33710:33722   */\n      add\n        /* \"#utility.yul\":33703:33722   */\n      swap1\n      pop\n        /* \"#utility.yul\":33362:33728   */\n      swap2\n      swap1\n      pop\n      jump\t// out\n        /* \"#utility.yul\":33734:34153   */\n    tag_441:\n        /* \"#utility.yul\":33900:33904   */\n      0x00\n        /* \"#utility.yul\":33938:33940   */\n      0x20\n        /* \"#utility.yul\":33927:33936   */\n      dup3\n        /* \"#utility.yul\":33923:33941   */\n      add\n        /* \"#utility.yul\":33915:33941   */\n      swap1\n      pop\n        /* \"#utility.yul\":33987:33996   */\n      dup2\n        /* \"#utility.yul\":33981:33985   */\n      dup2\n        /* \"#utility.yul\":33977:33997   */\n      sub\n        /* \"#utility.yul\":33973:33974   */\n      0x00\n        /* \"#utility.yul\":33962:33971   */\n      dup4\n        /* \"#utility.yul\":33958:33975   */\n      add\n        /* \"#utility.yul\":33951:33998   */\n      mstore\n        /* \"#utility.yul\":34015:34146   */\n      tag_817\n        /* \"#utility.yul\":34141:34145   */\n      dup2\n        /* \"#utility.yul\":34015:34146   */\n      tag_544\n      jump\t// in\n    tag_817:\n        /* \"#utility.yul\":34007:34146   */\n      swap1\n      pop\n        /* \"#utility.yul\":33734:34153   */\n      swap2\n      swap1\n      pop\n      jump\t// out\n        /* \"#utility.yul\":34159:34333   */\n    tag_545:\n        /* \"#utility.yul\":34299:34325   */\n      0x4661696c656420746f206e6f7469667920706172746e65720000000000000000\n        /* \"#utility.yul\":34295:34296   */\n      0x00\n        /* \"#utility.yul\":34287:34293   */\n      dup3\n        /* \"#utility.yul\":34283:34297   */\n      add\n        /* \"#utility.yul\":34276:34326   */\n      mstore\n        /* \"#utility.yul\":34159:34333   */\n      pop\n      jump\t// out\n        /* \"#utility.yul\":34339:34705   */\n    tag_546:\n        /* \"#utility.yul\":34481:34484   */\n      0x00\n        /* \"#utility.yul\":34502:34569   */\n      tag_820\n        /* \"#utility.yul\":34566:34568   */\n      0x18\n        /* \"#utility.yul\":34561:34564   */\n      dup4\n        /* \"#utility.yul\":34502:34569   */\n      tag_485\n      jump\t// in\n    tag_820:\n        /* \"#utility.yul\":34495:34569   */\n      swap2\n      pop\n        /* \"#utility.yul\":34578:34671   */\n      tag_821\n        /* \"#utility.yul\":34667:34670   */\n      dup3\n        /* \"#utility.yul\":34578:34671   */\n      tag_545\n      jump\t// in\n    tag_821:\n        /* \"#utility.yul\":34696:34698   */\n      0x20\n        /* \"#utility.yul\":34691:34694   */\n      dup3\n        /* \"#utility.yul\":34687:34699   */\n      add\n        /* \"#utility.yul\":34680:34699   */\n      swap1\n      pop\n        /* \"#utility.yul\":34339:34705   */\n      swap2\n      swap1\n      pop\n      jump\t// out\n        /* \"#utility.yul\":34711:35130   */\n    tag_453:\n        /* \"#utility.yul\":34877:34881   */\n      0x00\n        /* \"#utility.yul\":34915:34917   */\n      0x20\n        /* \"#utility.yul\":34904:34913   */\n      dup3\n        /* \"#utility.yul\":34900:34918   */\n      add\n        /* \"#utility.yul\":34892:34918   */\n      swap1\n      pop\n        /* \"#utility.yul\":34964:34973   */\n      dup2\n        /* \"#utility.yul\":34958:34962   */\n      dup2\n        /* \"#utility.yul\":34954:34974   */\n      sub\n        /* \"#utility.yul\":34950:34951   */\n      0x00\n        /* \"#utility.yul\":34939:34948   */\n      dup4\n        /* \"#utility.yul\":34935:34952   */\n      add\n        /* \"#utility.yul\":34928:34975   */\n      mstore\n        /* \"#utility.yul\":34992:35123   */\n      tag_823\n        /* \"#utility.yul\":35118:35122   */\n      dup2\n        /* \"#utility.yul\":34992:35123   */\n      tag_546\n      jump\t// in\n    tag_823:\n        /* \"#utility.yul\":34984:35123   */\n      swap1\n      pop\n        /* \"#utility.yul\":34711:35130   */\n      swap2\n      swap1\n      pop\n      jump\t// out\n\n    auxdata: 0xa2646970667358221220e2addf65d086d783da97bcb07761ca8fb6c849dfbf7d0cefb39380e3cf6e331264736f6c634300081e0033\n}\n",
				"bytecode": {
					"linkReferences": {},
					"object": "60c060405234801561000f575f5ffd5b50604051613962380380613962833981810160405281019061003191906101de565b5f5f819055505f60015f6101000a81548160ff0219169083151502179055508160025f6101000a81548173ffffffffffffffffffffffffffffffffffffffff021916908373ffffffffffffffffffffffffffffffffffffffff1602179055508060035f6101000a81548173ffffffffffffffffffffffffffffffffffffffff021916908373ffffffffffffffffffffffffffffffffffffffff1602179055503373ffffffffffffffffffffffffffffffffffffffff1660808173ffffffffffffffffffffffffffffffffffffffff168152505061138860a081815250505f600160026101000a81548173ffffffffffffffffffffffffffffffffffffffff021916908373ffffffffffffffffffffffffffffffffffffffff1602179055505f60058190555060a05160048190555060018060016101000a81548160ff021916908315150217905550505061021c565b5f5ffd5b5f73ffffffffffffffffffffffffffffffffffffffff82169050919050565b5f6101ad82610184565b9050919050565b6101bd816101a3565b81146101c7575f5ffd5b50565b5f815190506101d8816101b4565b92915050565b5f5f604083850312156101f4576101f3610180565b5b5f610201858286016101ca565b9250506020610212858286016101ca565b9150509250929050565b60805160a0516136e661027c5f395f8181611623015261229b01525f818161085601528181610a5a01528181610af201528181610eb001528181611116015281816113860152818161178201528181611876015261236201526136e65ff3fe608060405234801561000f575f5ffd5b506004361061021a575f3560e01c80638bc8774511610123578063c800409f116100ab578063d852545e1161007a578063d852545e146105ba578063dfb986a2146105d8578063dff44b2f146105f6578063f247e3de14610600578063f7ec2f351461061e5761021a565b8063c800409f14610546578063cb01a92b14610564578063ccda832a14610580578063d25d32b61461059e5761021a565b8063a2f1309e116100f2578063a2f1309e146104b2578063ae81f068146104d0578063aeee48c0146104ee578063bccb358e1461050c578063c043decc146105285761021a565b80638bc877451461043a5780638da5cb5b14610458578063967e6e65146104765780639b6b9664146104945761021a565b80633c876c25116101a6578063594db75311610175578063594db753146103945780635976d63b146103b25780635f68c439146103d05780636aa393f8146103ec578063790aa8de1461040a5761021a565b80633c876c251461030e578063483a93101461032c5780634ad8a7ae1461035c5780634f0b03f9146103785761021a565b806325803d64116101ed57806325803d641461029257806327a80e0d146102ae578063308f838a146102cc57806337f65b79146102e857806338fb27ba146102f25761021a565b806310731c651461021e578063108ece4d1461023c578063134617621461025a57806314b9563114610276575b5f5ffd5b61022661063c565b60405161023391906126be565b60405180910390f35b61024461082b565b6040516102519190612716565b60405180910390f35b610274600480360381019061026f9190612790565b610854565b005b610290600480360381019061028b91906127ce565b610a58565b005b6102ac60048036038101906102a791906127ce565b610af0565b005b6102b6610be9565b6040516102c391906126be565b60405180910390f35b6102e660048036038101906102e191906127f9565b610d10565b005b6102f0610eae565b005b61030c60048036038101906103079190612837565b610fe4565b005b6103166110bd565b6040516103239190612871565b60405180910390f35b610346600480360381019061034191906127ce565b6110e7565b6040516103539190612871565b60405180910390f35b61037660048036038101906103719190612790565b611114565b005b610392600480360381019061038d9190612837565b61131e565b005b61039c611362565b6040516103a99190612871565b60405180910390f35b6103ba611370565b6040516103c791906126be565b60405180910390f35b6103ea60048036038101906103e591906127ce565b611384565b005b6103f4611620565b6040516104019190612871565b60405180910390f35b610424600480360381019061041f9190612837565b611647565b60405161043191906126be565b60405180910390f35b61044261176b565b60405161044f91906126be565b60405180910390f35b610460611780565b60405161046d9190612716565b60405180910390f35b61047e6117a4565b60405161048b9190612871565b60405180910390f35b61049c6117ac565b6040516104a991906126be565b60405180910390f35b6104ba6117be565b6040516104c791906126be565b60405180910390f35b6104d86117e5565b6040516104e591906126be565b60405180910390f35b6104f661186e565b6040516105039190612871565b60405180910390f35b61052660048036038101906105219190612837565b611874565b005b610530611efb565b60405161053d9190612871565b60405180910390f35b61054e611f04565b60405161055b91906126be565b60405180910390f35b61057e60048036038101906105799190612837565b611f15565b005b610588611fa8565b60405161059591906126be565b60405180910390f35b6105b860048036038101906105b391906127ce565b611fd5565b005b6105c261206f565b6040516105cf91906126be565b60405180910390f35b6105e0612308565b6040516105ed91906126be565b60405180910390f35b6105fe612360565b005b6106086125c5565b6040516106159190612871565b60405180910390f35b6106266125ce565b60405161063391906126be565b60405180910390f35b5f5f73ffffffffffffffffffffffffffffffffffffffff16600160029054906101000a900473ffffffffffffffffffffffffffffffffffffffff1673ffffffffffffffffffffffffffffffffffffffff16036106a95760015f9054906101000a900460ff16159050610828565b60015f9054906101000a900460ff166106c4575f9050610828565b5f600160029054906101000a900473ffffffffffffffffffffffffffffffffffffffff1690508073ffffffffffffffffffffffffffffffffffffffff1663108ece4d6040518163ffffffff1660e01b8152600401602060405180830381865afa92505050801561075257506040513d601f19601f8201168201806040525081019061074f919061289e565b60015b61075f575f915050610828565b3073ffffffffffffffffffffffffffffffffffffffff168173ffffffffffffffffffffffffffffffffffffffff161461079c575f92505050610828565b508073ffffffffffffffffffffffffffffffffffffffff16638bc877456040518163ffffffff1660e01b8152600401602060405180830381865afa92505050801561080557506040513d601f19601f8201168201806040525081019061080291906128f3565b60015b610812575f915050610828565b80610821575f92505050610828565b5060019150505b90565b5f600160029054906101000a900473ffffffffffffffffffffffffffffffffffffffff16905090565b7f000000000000000000000000000000000000000000000000000000000000000073ffffffffffffffffffffffffffffffffffffffff163373ffffffffffffffffffffffffffffffffffffffff16146108e2576040517f08c379a00000000000000000000000000000000000000000000000000000000081526004016108d990612978565b60405180910390fd5b5f73ffffffffffffffffffffffffffffffffffffffff168273ffffffffffffffffffffffffffffffffffffffff1603610950576040517f08c379a0000000000000000000000000000000000000000000000000000000008152600401610947906129e0565b60405180910390fd5b5f60065403610994576040517f08c379a000000000000000000000000000000000000000000000000000000000815260040161098b90612a48565b60405180910390fd5b8173ffffffffffffffffffffffffffffffffffffffff1663c2ca0ac5826040518263ffffffff1660e01b81526004016109cd9190612871565b5f604051808303815f87803b1580156109e4575f5ffd5b505af19250505080156109f5575060015b610a34576040517f08c379a0000000000000000000000000000000000000000000000000000000008152600401610a2b90612ab0565b60405180910390fd5b5f6006819055505f60075f6101000a81548160ff0219169083151502179055505050565b7f000000000000000000000000000000000000000000000000000000000000000073ffffffffffffffffffffffffffffffffffffffff163373ffffffffffffffffffffffffffffffffffffffff1614610ae6576040517f08c379a0000000000000000000000000000000000000000000000000000000008152600401610add90612978565b60405180910390fd5b8060058190555050565b7f000000000000000000000000000000000000000000000000000000000000000073ffffffffffffffffffffffffffffffffffffffff163373ffffffffffffffffffffffffffffffffffffffff161480610b975750600160029054906101000a900473ffffffffffffffffffffffffffffffffffffffff1673ffffffffffffffffffffffffffffffffffffffff163373ffffffffffffffffffffffffffffffffffffffff16145b80610ba75750610ba6336125e2565b5b610be6576040517f08c379a0000000000000000000000000000000000000000000000000000000008152600401610bdd90612b18565b60405180910390fd5b50565b5f5f73ffffffffffffffffffffffffffffffffffffffff16600160029054906101000a900473ffffffffffffffffffffffffffffffffffffffff1673ffffffffffffffffffffffffffffffffffffffff1603610c485760019050610d0d565b5f600160029054906101000a900473ffffffffffffffffffffffffffffffffffffffff1690503073ffffffffffffffffffffffffffffffffffffffff168173ffffffffffffffffffffffffffffffffffffffff1663108ece4d6040518163ffffffff1660e01b8152600401602060405180830381865afa158015610cce573d5f5f3e3d5ffd5b505050506040513d601f19601f82011682018060405250810190610cf2919061289e565b73ffffffffffffffffffffffffffffffffffffffff16149150505b90565b600160029054906101000a900473ffffffffffffffffffffffffffffffffffffffff1673ffffffffffffffffffffffffffffffffffffffff163373ffffffffffffffffffffffffffffffffffffffff1603610d82578160045f828254610d769190612b63565b92505081905550610eaa565b5f3373ffffffffffffffffffffffffffffffffffffffff163b11610ddb576040517f08c379a0000000000000000000000000000000000000000000000000000000008152600401610dd290612be0565b60405180910390fd5b3373ffffffffffffffffffffffffffffffffffffffff168173ffffffffffffffffffffffffffffffffffffffff1614610e49576040517f08c379a0000000000000000000000000000000000000000000000000000000008152600401610e4090612c6e565b60405180910390fd5b610e52336125e2565b610e91576040517f08c379a0000000000000000000000000000000000000000000000000000000008152600401610e8890612cd6565b60405180910390fd5b8160045f828254610ea29190612b63565b925050819055505b5050565b7f000000000000000000000000000000000000000000000000000000000000000073ffffffffffffffffffffffffffffffffffffffff163373ffffffffffffffffffffffffffffffffffffffff1614610f3c576040517f08c379a0000000000000000000000000000000000000000000000000000000008152600401610f3390612978565b60405180910390fd5b5f5f815480929190610f4d90612cf4565b919050555060015f9054906101000a900460ff16158015610fbb57505f73ffffffffffffffffffffffffffffffffffffffff16600160029054906101000a900473ffffffffffffffffffffffffffffffffffffffff1673ffffffffffffffffffffffffffffffffffffffff16145b15610fe25760415f5410610fd757612328600481905550610fe1565b6113886004819055505b5b565b8073ffffffffffffffffffffffffffffffffffffffff163373ffffffffffffffffffffffffffffffffffffffff1614611052576040517f08c379a000000000000000000000000000000000000000000000000000000000815260040161104990612d85565b60405180910390fd5b5f600160026101000a81548173ffffffffffffffffffffffffffffffffffffffff021916908373ffffffffffffffffffffffffffffffffffffffff1602179055505f60015f6101000a81548160ff0219169083151502179055506110b4612687565b60048190555050565b5f600454600554116110d1575f90506110e4565b6004546005546110e19190612da3565b90505b90565b5f5f6110f16110bd565b90506103e883826111029190612dd6565b61110c9190612e44565b915050919050565b7f000000000000000000000000000000000000000000000000000000000000000073ffffffffffffffffffffffffffffffffffffffff163373ffffffffffffffffffffffffffffffffffffffff16146111a2576040517f08c379a000000000000000000000000000000000000000000000000000000000815260040161119990612978565b60405180910390fd5b5f73ffffffffffffffffffffffffffffffffffffffff168273ffffffffffffffffffffffffffffffffffffffff16141580156111f457505f8273ffffffffffffffffffffffffffffffffffffffff163b115b611233576040517f08c379a000000000000000000000000000000000000000000000000000000000815260040161122a90612ebe565b60405180910390fd5b8173ffffffffffffffffffffffffffffffffffffffff1663f14fcbc8826040516020016112609190612871565b604051602081830303815290604052805190602001206040518263ffffffff1660e01b81526004016112929190612ef4565b5f604051808303815f87803b1580156112a9575f5ffd5b505af19250505080156112ba575060015b6112f9576040517f08c379a00000000000000000000000000000000000000000000000000000000081526004016112f090612f57565b60405180910390fd5b80600681905550600160075f6101000a81548160ff0219169083151502179055505050565b80600160026101000a81548173ffffffffffffffffffffffffffffffffffffffff021916908373ffffffffffffffffffffffffffffffffffffffff16021790555050565b5f61136b612687565b905090565b5f60018054906101000a900460ff16905090565b7f000000000000000000000000000000000000000000000000000000000000000073ffffffffffffffffffffffffffffffffffffffff163373ffffffffffffffffffffffffffffffffffffffff1614611412576040517f08c379a000000000000000000000000000000000000000000000000000000000815260040161140990612978565b60405180910390fd5b5f73ffffffffffffffffffffffffffffffffffffffff16600160029054906101000a900473ffffffffffffffffffffffffffffffffffffffff1673ffffffffffffffffffffffffffffffffffffffff16036114a2576040517f08c379a000000000000000000000000000000000000000000000000000000000815260040161149990612fbf565b60405180910390fd5b5f81116114e4576040517f08c379a00000000000000000000000000000000000000000000000000000000081526004016114db90613027565b60405180910390fd5b600454811115611529576040517f08c379a00000000000000000000000000000000000000000000000000000000081526004016115209061308f565b60405180910390fd5b8060045f82825461153a9190612da3565b92505081905550600160029054906101000a900473ffffffffffffffffffffffffffffffffffffffff1673ffffffffffffffffffffffffffffffffffffffff1663308f838a82306040518363ffffffff1660e01b815260040161159e9291906130ad565b5f604051808303815f87803b1580156115b5575f5ffd5b505af19250505080156115c6575060015b61161d578060045f8282546115db9190612b63565b925050819055506040517f08c379a00000000000000000000000000000000000000000000000000000000081526004016116149061311e565b60405180910390fd5b50565b5f7f0000000000000000000000000000000000000000000000000000000000000000905090565b5f5f6006540361165a5760019050611766565b5f73ffffffffffffffffffffffffffffffffffffffff168273ffffffffffffffffffffffffffffffffffffffff1614806116aa57505f8273ffffffffffffffffffffffffffffffffffffffff163b145b156116b85760019050611766565b8173ffffffffffffffffffffffffffffffffffffffff16637b43a8e6306040518263ffffffff1660e01b81526004016116f19190612716565b602060405180830381865afa92505050801561172b57506040513d601f19601f820116820180604052508101906117289190613166565b60015b611737575f9050611766565b60065460405160200161174a9190612871565b6040516020818303038152906040528051906020012081149150505b919050565b5f60015f9054906101000a900460ff16905090565b7f000000000000000000000000000000000000000000000000000000000000000081565b5f5f54905090565b60075f9054906101000a900460ff1681565b5f600454600554116117dd575f6117d560c86110e7565b1490506117e2565b600190505b90565b5f5f73ffffffffffffffffffffffffffffffffffffffff16600160029054906101000a900473ffffffffffffffffffffffffffffffffffffffff1673ffffffffffffffffffffffffffffffffffffffff1614158061184e575060015f9054906101000a900460ff165b1561185c576001905061186b565b611864612687565b6004541490505b90565b60065481565b7f000000000000000000000000000000000000000000000000000000000000000073ffffffffffffffffffffffffffffffffffffffff163373ffffffffffffffffffffffffffffffffffffffff1614611902576040517f08c379a00000000000000000000000000000000000000000000000000000000081526004016118f990612978565b60405180910390fd5b60015f9054906101000a900460ff1615611951576040517f08c379a0000000000000000000000000000000000000000000000000000000008152600401611948906131db565b60405180910390fd5b5f73ffffffffffffffffffffffffffffffffffffffff168173ffffffffffffffffffffffffffffffffffffffff16036119bf576040517f08c379a00000000000000000000000000000000000000000000000000000000081526004016119b690613243565b60405180910390fd5b3073ffffffffffffffffffffffffffffffffffffffff168173ffffffffffffffffffffffffffffffffffffffff1603611a2d576040517f08c379a0000000000000000000000000000000000000000000000000000000008152600401611a24906132ab565b60405180910390fd5b5f8173ffffffffffffffffffffffffffffffffffffffff163b11611a86576040517f08c379a0000000000000000000000000000000000000000000000000000000008152600401611a7d90613313565b60405180910390fd5b5f8173ffffffffffffffffffffffffffffffffffffffff16638bc877456040518163ffffffff1660e01b8152600401602060405180830381865afa925050508015611aef57506040513d601f19601f82011682018060405250810190611aec91906128f3565b60015b611b2e576040517f08c379a0000000000000000000000000000000000000000000000000000000008152600401611b259061337b565b60405180910390fd5b809150508015611b73576040517f08c379a0000000000000000000000000000000000000000000000000000000008152600401611b6a906133e3565b60405180910390fd5b5f600160029054906101000a900473ffffffffffffffffffffffffffffffffffffffff1690505f8390505f600454905081600160026101000a81548173ffffffffffffffffffffffffffffffffffffffff021916908373ffffffffffffffffffffffffffffffffffffffff1602179055506001805f6101000a81548160ff021916908315150217905550611c05612687565b600481905550600160029054906101000a900473ffffffffffffffffffffffffffffffffffffffff1673ffffffffffffffffffffffffffffffffffffffff1663cb01a92b306040518263ffffffff1660e01b8152600401611c669190612716565b5f604051808303815f87803b158015611c7d575f5ffd5b505af1925050508015611c8e575060015b611d2e5782600160026101000a81548173ffffffffffffffffffffffffffffffffffffffff021916908373ffffffffffffffffffffffffffffffffffffffff1602179055505f60015f6101000a81548160ff021916908315150217905550806004819055506040517f08c379a0000000000000000000000000000000000000000000000000000000008152600401611d259061344b565b60405180910390fd5b8173ffffffffffffffffffffffffffffffffffffffff166325803d648373ffffffffffffffffffffffffffffffffffffffff1663594db7536040518163ffffffff1660e01b8152600401602060405180830381865afa158015611d93573d5f5f3e3d5ffd5b505050506040513d601f19601f82011682018060405250810190611db7919061347d565b6040518263ffffffff1660e01b8152600401611dd39190612871565b5f6040518083038186803b158015611de9575f5ffd5b505afa925050508015611dfa575060015b611e9a5782600160026101000a81548173ffffffffffffffffffffffffffffffffffffffff021916908373ffffffffffffffffffffffffffffffffffffffff1602179055505f60015f6101000a81548160ff021916908315150217905550806004819055506040517f08c379a0000000000000000000000000000000000000000000000000000000008152600401611e91906134f2565b60405180910390fd5b8173ffffffffffffffffffffffffffffffffffffffff163073ffffffffffffffffffffffffffffffffffffffff167fc89ef770a4ad395ebdc22b63de541b88daf19f335056f203fa06e4154b62bb7b60405160405180910390a35050505050565b5f600454905090565b5f5f611f0e6110bd565b1015905090565b8073ffffffffffffffffffffffffffffffffffffffff163373ffffffffffffffffffffffffffffffffffffffff1614611f83576040517f08c379a0000000000000000000000000000000000000000000000000000000008152600401611f7a9061355a565b60405180910390fd5b611f8c8161131e565b6001805f6101000a81548160ff02191690831515021790555050565b5f60075f9054906101000a900460ff1615611fca575f60065414159050611fd2565b5f6006541490505b90565b600160029054906101000a900473ffffffffffffffffffffffffffffffffffffffff1673ffffffffffffffffffffffffffffffffffffffff163373ffffffffffffffffffffffffffffffffffffffff1614612065576040517f08c379a000000000000000000000000000000000000000000000000000000000815260040161205c906135c2565b60405180910390fd5b8060048190555050565b5f60015f9054906101000a900460ff1615806120d857505f73ffffffffffffffffffffffffffffffffffffffff16600160029054906101000a900473ffffffffffffffffffffffffffffffffffffffff1673ffffffffffffffffffffffffffffffffffffffff16145b156120e65760019050612305565b5f60045490505f600160029054906101000a900473ffffffffffffffffffffffffffffffffffffffff1690505f5f5f8373ffffffffffffffffffffffffffffffffffffffff1663c043decc6040518163ffffffff1660e01b8152600401602060405180830381865afa92505050801561217d57506040513d601f19601f8201168201806040525081019061217a919061347d565b60015b61218e575f95505050505050612305565b809350508373ffffffffffffffffffffffffffffffffffffffff16636aa393f86040518163ffffffff1660e01b8152600401602060405180830381865afa9250505080156121fa57506040513d601f19601f820116820180604052508101906121f7919061347d565b60015b61220b575f95505050505050612305565b809250508373ffffffffffffffffffffffffffffffffffffffff1663594db7536040518163ffffffff1660e01b8152600401602060405180830381865afa92505050801561227757506040513d601f19601f82011682018060405250810190612274919061347d565b60015b612288575f95505050505050612305565b809150505f612295612687565b90505f837f00000000000000000000000000000000000000000000000000000000000000006122c49190612b63565b85886122d09190612b63565b1490505f83836122e09190612b63565b86896122ec9190612b63565b111590508180156122fa5750805b985050505050505050505b90565b5f3073ffffffffffffffffffffffffffffffffffffffff16600160029054906101000a900473ffffffffffffffffffffffffffffffffffffffff1673ffffffffffffffffffffffffffffffffffffffff161415905090565b7f000000000000000000000000000000000000000000000000000000000000000073ffffffffffffffffffffffffffffffffffffffff163373ffffffffffffffffffffffffffffffffffffffff16146123ee576040517f08c379a00000000000000000000000000000000000000000000000000000000081526004016123e590612978565b60405180910390fd5b60015f9054906101000a900460ff1661243c576040517f08c379a00000000000000000000000000000000000000000000000000000000081526004016124339061362a565b60405180910390fd5b5f600160029054906101000a900473ffffffffffffffffffffffffffffffffffffffff1690505f600160026101000a81548173ffffffffffffffffffffffffffffffffffffffff021916908373ffffffffffffffffffffffffffffffffffffffff1602179055505f60015f6101000a81548160ff0219169083151502179055506124c4612687565b6004819055505f73ffffffffffffffffffffffffffffffffffffffff168173ffffffffffffffffffffffffffffffffffffffff161415801561251c57505f8173ffffffffffffffffffffffffffffffffffffffff163b115b156125c2578073ffffffffffffffffffffffffffffffffffffffff166338fb27ba306040518263ffffffff1660e01b815260040161255a9190612716565b5f604051808303815f87803b158015612571575f5ffd5b505af1925050508015612582575060015b6125c1576040517f08c379a00000000000000000000000000000000000000000000000000000000081526004016125b890613692565b60405180910390fd5b5b50565b5f600554905090565b5f60018054906101000a900460ff16905090565b5f5f8273ffffffffffffffffffffffffffffffffffffffff163b03612609575f9050612682565b8173ffffffffffffffffffffffffffffffffffffffff1663f7ec2f356040518163ffffffff1660e01b8152600401602060405180830381865afa92505050801561267157506040513d601f19601f8201168201806040525081019061266e91906128f3565b60015b61267d575f9050612682565b809150505b919050565b5f60415f541061269b5761232890506126a1565b61138890505b90565b5f8115159050919050565b6126b8816126a4565b82525050565b5f6020820190506126d15f8301846126af565b92915050565b5f73ffffffffffffffffffffffffffffffffffffffff82169050919050565b5f612700826126d7565b9050919050565b612710816126f6565b82525050565b5f6020820190506127295f830184612707565b92915050565b5f5ffd5b61273c816126f6565b8114612746575f5ffd5b50565b5f8135905061275781612733565b92915050565b5f819050919050565b61276f8161275d565b8114612779575f5ffd5b50565b5f8135905061278a81612766565b92915050565b5f5f604083850312156127a6576127a561272f565b5b5f6127b385828601612749565b92505060206127c48582860161277c565b9150509250929050565b5f602082840312156127e3576127e261272f565b5b5f6127f08482850161277c565b91505092915050565b5f5f6040838503121561280f5761280e61272f565b5b5f61281c8582860161277c565b925050602061282d85828601612749565b9150509250929050565b5f6020828403121561284c5761284b61272f565b5b5f61285984828501612749565b91505092915050565b61286b8161275d565b82525050565b5f6020820190506128845f830184612862565b92915050565b5f8151905061289881612733565b92915050565b5f602082840312156128b3576128b261272f565b5b5f6128c08482850161288a565b91505092915050565b6128d2816126a4565b81146128dc575f5ffd5b50565b5f815190506128ed816128c9565b92915050565b5f602082840312156129085761290761272f565b5b5f612915848285016128df565b91505092915050565b5f82825260208201905092915050565b7f4f6e6c79206f776e6572000000000000000000000000000000000000000000005f82015250565b5f612962600a8361291e565b915061296d8261292e565b602082019050919050565b5f6020820190508181035f83015261298f81612956565b9050919050565b7f496e76616c6964206c6f747465727279000000000000000000000000000000005f82015250565b5f6129ca60108361291e565b91506129d582612996565b602082019050919050565b5f6020820190508181035f8301526129f7816129be565b9050919050565b7f4e6f20636f6d6d69747465642072657665616c000000000000000000000000005f82015250565b5f612a3260138361291e565b9150612a3d826129fe565b602082019050919050565b5f6020820190508181035f830152612a5f81612a26565b9050919050565b7f4c6f74746572792072657665616c206661696c656400000000000000000000005f82015250565b5f612a9a60158361291e565b9150612aa582612a66565b602082019050919050565b5f6020820190508181035f830152612ac781612a8e565b9050919050565b7f4e6f7420617574686f72697a656420746f2073657420616c6c6f77616e6365005f82015250565b5f612b02601f8361291e565b9150612b0d82612ace565b602082019050919050565b5f6020820190508181035f830152612b2f81612af6565b9050919050565b7f4e487b71000000000000000000000000000000000000000000000000000000005f52601160045260245ffd5b5f612b6d8261275d565b9150612b788361275d565b9250828201905080821115612b9057612b8f612b36565b5b92915050565b7f43616c6c6572206d757374206265206120636f6e7472616374000000000000005f82015250565b5f612bca60198361291e565b9150612bd582612b96565b602082019050919050565b5f6020820190508181035f830152612bf781612bbe565b9050919050565b7f46726f6d206d75737420626520657175616c2063616c6c657220666f722033725f8201527f642d706172747920636f6e747261637400000000000000000000000000000000602082015250565b5f612c5860308361291e565b9150612c6382612bfe565b604082019050919050565b5f6020820190508181035f830152612c8581612c4c565b9050919050565b7f43616c6c6572206e6f7420617574686f72697a656400000000000000000000005f82015250565b5f612cc060158361291e565b9150612ccb82612c8c565b602082019050919050565b5f6020820190508181035f830152612ced81612cb4565b9050919050565b5f612cfe8261275d565b91507fffffffffffffffffffffffffffffffffffffffffffffffffffffffffffffffff8203612d3057612d2f612b36565b5b600182019050919050565b7f4f6e6c7920706172746e65722063616e206e6f746966790000000000000000005f82015250565b5f612d6f60178361291e565b9150612d7a82612d3b565b602082019050919050565b5f6020820190508181035f830152612d9c81612d63565b9050919050565b5f612dad8261275d565b9150612db88361275d565b9250828203905081811115612dd057612dcf612b36565b5b92915050565b5f612de08261275d565b9150612deb8361275d565b9250828202612df98161275d565b91508282048414831517612e1057612e0f612b36565b5b5092915050565b7f4e487b71000000000000000000000000000000000000000000000000000000005f52601260045260245ffd5b5f612e4e8261275d565b9150612e598361275d565b925082612e6957612e68612e17565b5b828204905092915050565b7f496e76616c6964206c6f747465727900000000000000000000000000000000005f82015250565b5f612ea8600f8361291e565b9150612eb382612e74565b602082019050919050565b5f6020820190508181035f830152612ed581612e9c565b9050919050565b5f819050919050565b612eee81612edc565b82525050565b5f602082019050612f075f830184612ee5565b92915050565b7f4c6f747465727920636f6d6d6974206661696c656400000000000000000000005f82015250565b5f612f4160158361291e565b9150612f4c82612f0d565b602082019050919050565b5f6020820190508181035f830152612f6e81612f35565b9050919050565b7f4e6f2073706f75736500000000000000000000000000000000000000000000005f82015250565b5f612fa960098361291e565b9150612fb482612f75565b602082019050919050565b5f6020820190508181035f830152612fd681612f9d565b9050919050565b7f5a65726f206368616e67650000000000000000000000000000000000000000005f82015250565b5f613011600b8361291e565b915061301c82612fdd565b602082019050919050565b5f6020820190508181035f83015261303e81613005565b9050919050565b7f4e6f7420656e6f75676820616c6c6f77616e63650000000000000000000000005f82015250565b5f61307960148361291e565b915061308482613045565b602082019050919050565b5f6020820190508181035f8301526130a68161306d565b9050919050565b5f6040820190506130c05f830185612862565b6130cd6020830184612707565b9392505050565b7f4661696c656420746f207472616e736665722073706f757365000000000000005f82015250565b5f61310860198361291e565b9150613113826130d4565b602082019050919050565b5f6020820190508181035f830152613135816130fc565b9050919050565b61314581612edc565b811461314f575f5ffd5b50565b5f815190506131608161313c565b92915050565b5f6020828403121561317b5761317a61272f565b5b5f61318884828501613152565b91505092915050565b7f4920616d20616c7265616479206d6172726965640000000000000000000000005f82015250565b5f6131c560148361291e565b91506131d082613191565b602082019050919050565b5f6020820190508181035f8301526131f2816131b9565b9050919050565b7f53706f7573652063616e6e6f74206265207a65726f20616464726573730000005f82015250565b5f61322d601d8361291e565b9150613238826131f9565b602082019050919050565b5f6020820190508181035f83015261325a81613221565b9050919050565b7f43616e6e6f74206d61727279206d7973656c66000000000000000000000000005f82015250565b5f61329560138361291e565b91506132a082613261565b602082019050919050565b5f6020820190508181035f8301526132c281613289565b9050919050565b7f53706f757365206d757374206265206120636f6e7472616374000000000000005f82015250565b5f6132fd60198361291e565b9150613308826132c9565b602082019050919050565b5f6020820190508181035f83015261332a816132f1565b9050919050565b7f53706f757365206e6f7420636f6d70617469626c6500000000000000000000005f82015250565b5f61336560158361291e565b915061337082613331565b602082019050919050565b5f6020820190508181035f83015261339281613359565b9050919050565b7f53706f75736520616c7265616479206d617272696564000000000000000000005f82015250565b5f6133cd60168361291e565b91506133d882613399565b602082019050919050565b5f6020820190508181035f8301526133fa816133c1565b9050919050565b7f4661696c656420746f2075706461746520706172746e657200000000000000005f82015250565b5f61343560188361291e565b915061344082613401565b602082019050919050565b5f6020820190508181035f83015261346281613429565b9050919050565b5f8151905061347781612766565b92915050565b5f602082840312156134925761349161272f565b5b5f61349f84828501613469565b91505092915050565b7f4661696c656420746f2073657420706172746e657220616c6c6f77616e6365005f82015250565b5f6134dc601f8361291e565b91506134e7826134a8565b602082019050919050565b5f6020820190508181035f830152613509816134d0565b9050919050565b7f4f6e6c7920706172746e65722063616e2063616c6c20746869730000000000005f82015250565b5f613544601a8361291e565b915061354f82613510565b602082019050919050565b5f6020820190508181035f83015261357181613538565b9050919050565b7f4f6e6c792073706f7573652063616e20736574000000000000000000000000005f82015250565b5f6135ac60138361291e565b91506135b782613578565b602082019050919050565b5f6020820190508181035f8301526135d9816135a0565b9050919050565b7f4e6f74206d6172726965640000000000000000000000000000000000000000005f82015250565b5f613614600b8361291e565b915061361f826135e0565b602082019050919050565b5f6020820190508181035f83015261364181613608565b9050919050565b7f4661696c656420746f206e6f7469667920706172746e657200000000000000005f82015250565b5f61367c60188361291e565b915061368782613648565b602082019050919050565b5f6020820190508181035f8301526136a981613670565b905091905056fea2646970667358221220e2addf65d086d783da97bcb07761ca8fb6c849dfbf7d0cefb39380e3cf6e331264736f6c634300081e0033",
					"opcodes": "PUSH1 0xC0 PUSH1 0x40 MSTORE CALLVALUE DUP1 ISZERO PUSH2 0xF JUMPI PUSH0 PUSH0 REVERT JUMPDEST POP PUSH1 0x40 MLOAD PUSH2 0x3962 CODESIZE SUB DUP1 PUSH2 0x3962 DUP4 CODECOPY DUP2 DUP2 ADD PUSH1 0x40 MSTORE DUP2 ADD SWAP1 PUSH2 0x31 SWAP2 SWAP1 PUSH2 0x1DE JUMP JUMPDEST PUSH0 PUSH0 DUP2 SWAP1 SSTORE POP PUSH0 PUSH1 0x1 PUSH0 PUSH2 0x100 EXP DUP2 SLOAD DUP2 PUSH1 0xFF MUL NOT AND SWAP1 DUP4 ISZERO ISZERO MUL OR SWAP1 SSTORE POP DUP2 PUSH1 0x2 PUSH0 PUSH2 0x100 EXP DUP2 SLOAD DUP2 PUSH20 0xFFFFFFFFFFFFFFFFFFFFFFFFFFFFFFFFFFFFFFFF MUL NOT AND SWAP1 DUP4 PUSH20 0xFFFFFFFFFFFFFFFFFFFFFFFFFFFFFFFFFFFFFFFF AND MUL OR SWAP1 SSTORE POP DUP1 PUSH1 0x3 PUSH0 PUSH2 0x100 EXP DUP2 SLOAD DUP2 PUSH20 0xFFFFFFFFFFFFFFFFFFFFFFFFFFFFFFFFFFFFFFFF MUL NOT AND SWAP1 DUP4 PUSH20 0xFFFFFFFFFFFFFFFFFFFFFFFFFFFFFFFFFFFFFFFF AND MUL OR SWAP1 SSTORE POP CALLER PUSH20 0xFFFFFFFFFFFFFFFFFFFFFFFFFFFFFFFFFFFFFFFF AND PUSH1 0x80 DUP2 PUSH20 0xFFFFFFFFFFFFFFFFFFFFFFFFFFFFFFFFFFFFFFFF AND DUP2 MSTORE POP POP PUSH2 0x1388 PUSH1 0xA0 DUP2 DUP2 MSTORE POP POP PUSH0 PUSH1 0x1 PUSH1 0x2 PUSH2 0x100 EXP DUP2 SLOAD DUP2 PUSH20 0xFFFFFFFFFFFFFFFFFFFFFFFFFFFFFFFFFFFFFFFF MUL NOT AND SWAP1 DUP4 PUSH20 0xFFFFFFFFFFFFFFFFFFFFFFFFFFFFFFFFFFFFFFFF AND MUL OR SWAP1 SSTORE POP PUSH0 PUSH1 0x5 DUP2 SWAP1 SSTORE POP PUSH1 0xA0 MLOAD PUSH1 0x4 DUP2 SWAP1 SSTORE POP PUSH1 0x1 DUP1 PUSH1 0x1 PUSH2 0x100 EXP DUP2 SLOAD DUP2 PUSH1 0xFF MUL NOT AND SWAP1 DUP4 ISZERO ISZERO MUL OR SWAP1 SSTORE POP POP POP PUSH2 0x21C JUMP JUMPDEST PUSH0 PUSH0 REVERT JUMPDEST PUSH0 PUSH20 0xFFFFFFFFFFFFFFFFFFFFFFFFFFFFFFFFFFFFFFFF DUP3 AND SWAP1 POP SWAP2 SWAP1 POP JUMP JUMPDEST PUSH0 PUSH2 0x1AD DUP3 PUSH2 0x184 JUMP JUMPDEST SWAP1 POP SWAP2 SWAP1 POP JUMP JUMPDEST PUSH2 0x1BD DUP2 PUSH2 0x1A3 JUMP JUMPDEST DUP2 EQ PUSH2 0x1C7 JUMPI PUSH0 PUSH0 REVERT JUMPDEST POP JUMP JUMPDEST PUSH0 DUP2 MLOAD SWAP1 POP PUSH2 0x1D8 DUP2 PUSH2 0x1B4 JUMP JUMPDEST SWAP3 SWAP2 POP POP JUMP JUMPDEST PUSH0 PUSH0 PUSH1 0x40 DUP4 DUP6 SUB SLT ISZERO PUSH2 0x1F4 JUMPI PUSH2 0x1F3 PUSH2 0x180 JUMP JUMPDEST JUMPDEST PUSH0 PUSH2 0x201 DUP6 DUP3 DUP7 ADD PUSH2 0x1CA JUMP JUMPDEST SWAP3 POP POP PUSH1 0x20 PUSH2 0x212 DUP6 DUP3 DUP7 ADD PUSH2 0x1CA JUMP JUMPDEST SWAP2 POP POP SWAP3 POP SWAP3 SWAP1 POP JUMP JUMPDEST PUSH1 0x80 MLOAD PUSH1 0xA0 MLOAD PUSH2 0x36E6 PUSH2 0x27C PUSH0 CODECOPY PUSH0 DUP2 DUP2 PUSH2 0x1623 ADD MSTORE PUSH2 0x229B ADD MSTORE PUSH0 DUP2 DUP2 PUSH2 0x856 ADD MSTORE DUP2 DUP2 PUSH2 0xA5A ADD MSTORE DUP2 DUP2 PUSH2 0xAF2 ADD MSTORE DUP2 DUP2 PUSH2 0xEB0 ADD MSTORE DUP2 DUP2 PUSH2 0x1116 ADD MSTORE DUP2 DUP2 PUSH2 0x1386 ADD MSTORE DUP2 DUP2 PUSH2 0x1782 ADD MSTORE DUP2 DUP2 PUSH2 0x1876 ADD MSTORE PUSH2 0x2362 ADD MSTORE PUSH2 0x36E6 PUSH0 RETURN INVALID PUSH1 0x80 PUSH1 0x40 MSTORE CALLVALUE DUP1 ISZERO PUSH2 0xF JUMPI PUSH0 PUSH0 REVERT JUMPDEST POP PUSH1 0x4 CALLDATASIZE LT PUSH2 0x21A JUMPI PUSH0 CALLDATALOAD PUSH1 0xE0 SHR DUP1 PUSH4 0x8BC87745 GT PUSH2 0x123 JUMPI DUP1 PUSH4 0xC800409F GT PUSH2 0xAB JUMPI DUP1 PUSH4 0xD852545E GT PUSH2 0x7A JUMPI DUP1 PUSH4 0xD852545E EQ PUSH2 0x5BA JUMPI DUP1 PUSH4 0xDFB986A2 EQ PUSH2 0x5D8 JUMPI DUP1 PUSH4 0xDFF44B2F EQ PUSH2 0x5F6 JUMPI DUP1 PUSH4 0xF247E3DE EQ PUSH2 0x600 JUMPI DUP1 PUSH4 0xF7EC2F35 EQ PUSH2 0x61E JUMPI PUSH2 0x21A JUMP JUMPDEST DUP1 PUSH4 0xC800409F EQ PUSH2 0x546 JUMPI DUP1 PUSH4 0xCB01A92B EQ PUSH2 0x564 JUMPI DUP1 PUSH4 0xCCDA832A EQ PUSH2 0x580 JUMPI DUP1 PUSH4 0xD25D32B6 EQ PUSH2 0x59E JUMPI PUSH2 0x21A JUMP JUMPDEST DUP1 PUSH4 0xA2F1309E GT PUSH2 0xF2 JUMPI DUP1 PUSH4 0xA2F1309E EQ PUSH2 0x4B2 JUMPI DUP1 PUSH4 0xAE81F068 EQ PUSH2 0x4D0 JUMPI DUP1 PUSH4 0xAEEE48C0 EQ PUSH2 0x4EE JUMPI DUP1 PUSH4 0xBCCB358E EQ PUSH2 0x50C JUMPI DUP1 PUSH4 0xC043DECC EQ PUSH2 0x528 JUMPI PUSH2 0x21A JUMP JUMPDEST DUP1 PUSH4 0x8BC87745 EQ PUSH2 0x43A JUMPI DUP1 PUSH4 0x8DA5CB5B EQ PUSH2 0x458 JUMPI DUP1 PUSH4 0x967E6E65 EQ PUSH2 0x476 JUMPI DUP1 PUSH4 0x9B6B9664 EQ PUSH2 0x494 JUMPI PUSH2 0x21A JUMP JUMPDEST DUP1 PUSH4 0x3C876C25 GT PUSH2 0x1A6 JUMPI DUP1 PUSH4 0x594DB753 GT PUSH2 0x175 JUMPI DUP1 PUSH4 0x594DB753 EQ PUSH2 0x394 JUMPI DUP1 PUSH4 0x5976D63B EQ PUSH2 0x3B2 JUMPI DUP1 PUSH4 0x5F68C439 EQ PUSH2 0x3D0 JUMPI DUP1 PUSH4 0x6AA393F8 EQ PUSH2 0x3EC JUMPI DUP1 PUSH4 0x790AA8DE EQ PUSH2 0x40A JUMPI PUSH2 0x21A JUMP JUMPDEST DUP1 PUSH4 0x3C876C25 EQ PUSH2 0x30E JUMPI DUP1 PUSH4 0x483A9310 EQ PUSH2 0x32C JUMPI DUP1 PUSH4 0x4AD8A7AE EQ PUSH2 0x35C JUMPI DUP1 PUSH4 0x4F0B03F9 EQ PUSH2 0x378 JUMPI PUSH2 0x21A JUMP JUMPDEST DUP1 PUSH4 0x25803D64 GT PUSH2 0x1ED JUMPI DUP1 PUSH4 0x25803D64 EQ PUSH2 0x292 JUMPI DUP1 PUSH4 0x27A80E0D EQ PUSH2 0x2AE JUMPI DUP1 PUSH4 0x308F838A EQ PUSH2 0x2CC JUMPI DUP1 PUSH4 0x37F65B79 EQ PUSH2 0x2E8 JUMPI DUP1 PUSH4 0x38FB27BA EQ PUSH2 0x2F2 JUMPI PUSH2 0x21A JUMP JUMPDEST DUP1 PUSH4 0x10731C65 EQ PUSH2 0x21E JUMPI DUP1 PUSH4 0x108ECE4D EQ PUSH2 0x23C JUMPI DUP1 PUSH4 0x13461762 EQ PUSH2 0x25A JUMPI DUP1 PUSH4 0x14B95631 EQ PUSH2 0x276 JUMPI JUMPDEST PUSH0 PUSH0 REVERT JUMPDEST PUSH2 0x226 PUSH2 0x63C JUMP JUMPDEST PUSH1 0x40 MLOAD PUSH2 0x233 SWAP2 SWAP1 PUSH2 0x26BE JUMP JUMPDEST PUSH1 0x40 MLOAD DUP1 SWAP2 SUB SWAP1 RETURN JUMPDEST PUSH2 0x244 PUSH2 0x82B JUMP JUMPDEST PUSH1 0x40 MLOAD PUSH2 0x251 SWAP2 SWAP1 PUSH2 0x2716 JUMP JUMPDEST PUSH1 0x40 MLOAD DUP1 SWAP2 SUB SWAP1 RETURN JUMPDEST PUSH2 0x274 PUSH1 0x4 DUP1 CALLDATASIZE SUB DUP2 ADD SWAP1 PUSH2 0x26F SWAP2 SWAP1 PUSH2 0x2790 JUMP JUMPDEST PUSH2 0x854 JUMP JUMPDEST STOP JUMPDEST PUSH2 0x290 PUSH1 0x4 DUP1 CALLDATASIZE SUB DUP2 ADD SWAP1 PUSH2 0x28B SWAP2 SWAP1 PUSH2 0x27CE JUMP JUMPDEST PUSH2 0xA58 JUMP JUMPDEST STOP JUMPDEST PUSH2 0x2AC PUSH1 0x4 DUP1 CALLDATASIZE SUB DUP2 ADD SWAP1 PUSH2 0x2A7 SWAP2 SWAP1 PUSH2 0x27CE JUMP JUMPDEST PUSH2 0xAF0 JUMP JUMPDEST STOP JUMPDEST PUSH2 0x2B6 PUSH2 0xBE9 JUMP JUMPDEST PUSH1 0x40 MLOAD PUSH2 0x2C3 SWAP2 SWAP1 PUSH2 0x26BE JUMP JUMPDEST PUSH1 0x40 MLOAD DUP1 SWAP2 SUB SWAP1 RETURN JUMPDEST PUSH2 0x2E6 PUSH1 0x4 DUP1 CALLDATASIZE SUB DUP2 ADD SWAP1 PUSH2 0x2E1 SWAP2 SWAP1 PUSH2 0x27F9 JUMP JUMPDEST PUSH2 0xD10 JUMP JUMPDEST STOP JUMPDEST PUSH2 0x2F0 PUSH2 0xEAE JUMP JUMPDEST STOP JUMPDEST PUSH2 0x30C PUSH1 0x4 DUP1 CALLDATASIZE SUB DUP2 ADD SWAP1 PUSH2 0x307 SWAP2 SWAP1 PUSH2 0x2837 JUMP JUMPDEST PUSH2 0xFE4 JUMP JUMPDEST STOP JUMPDEST PUSH2 0x316 PUSH2 0x10BD JUMP JUMPDEST PUSH1 0x40 MLOAD PUSH2 0x323 SWAP2 SWAP1 PUSH2 0x2871 JUMP JUMPDEST PUSH1 0x40 MLOAD DUP1 SWAP2 SUB SWAP1 RETURN JUMPDEST PUSH2 0x346 PUSH1 0x4 DUP1 CALLDATASIZE SUB DUP2 ADD SWAP1 PUSH2 0x341 SWAP2 SWAP1 PUSH2 0x27CE JUMP JUMPDEST PUSH2 0x10E7 JUMP JUMPDEST PUSH1 0x40 MLOAD PUSH2 0x353 SWAP2 SWAP1 PUSH2 0x2871 JUMP JUMPDEST PUSH1 0x40 MLOAD DUP1 SWAP2 SUB SWAP1 RETURN JUMPDEST PUSH2 0x376 PUSH1 0x4 DUP1 CALLDATASIZE SUB DUP2 ADD SWAP1 PUSH2 0x371 SWAP2 SWAP1 PUSH2 0x2790 JUMP JUMPDEST PUSH2 0x1114 JUMP JUMPDEST STOP JUMPDEST PUSH2 0x392 PUSH1 0x4 DUP1 CALLDATASIZE SUB DUP2 ADD SWAP1 PUSH2 0x38D SWAP2 SWAP1 PUSH2 0x2837 JUMP JUMPDEST PUSH2 0x131E JUMP JUMPDEST STOP JUMPDEST PUSH2 0x39C PUSH2 0x1362 JUMP JUMPDEST PUSH1 0x40 MLOAD PUSH2 0x3A9 SWAP2 SWAP1 PUSH2 0x2871 JUMP JUMPDEST PUSH1 0x40 MLOAD DUP1 SWAP2 SUB SWAP1 RETURN JUMPDEST PUSH2 0x3BA PUSH2 0x1370 JUMP JUMPDEST PUSH1 0x40 MLOAD PUSH2 0x3C7 SWAP2 SWAP1 PUSH2 0x26BE JUMP JUMPDEST PUSH1 0x40 MLOAD DUP1 SWAP2 SUB SWAP1 RETURN JUMPDEST PUSH2 0x3EA PUSH1 0x4 DUP1 CALLDATASIZE SUB DUP2 ADD SWAP1 PUSH2 0x3E5 SWAP2 SWAP1 PUSH2 0x27CE JUMP JUMPDEST PUSH2 0x1384 JUMP JUMPDEST STOP JUMPDEST PUSH2 0x3F4 PUSH2 0x1620 JUMP JUMPDEST PUSH1 0x40 MLOAD PUSH2 0x401 SWAP2 SWAP1 PUSH2 0x2871 JUMP JUMPDEST PUSH1 0x40 MLOAD DUP1 SWAP2 SUB SWAP1 RETURN JUMPDEST PUSH2 0x424 PUSH1 0x4 DUP1 CALLDATASIZE SUB DUP2 ADD SWAP1 PUSH2 0x41F SWAP2 SWAP1 PUSH2 0x2837 JUMP JUMPDEST PUSH2 0x1647 JUMP JUMPDEST PUSH1 0x40 MLOAD PUSH2 0x431 SWAP2 SWAP1 PUSH2 0x26BE JUMP JUMPDEST PUSH1 0x40 MLOAD DUP1 SWAP2 SUB SWAP1 RETURN JUMPDEST PUSH2 0x442 PUSH2 0x176B JUMP JUMPDEST PUSH1 0x40 MLOAD PUSH2 0x44F SWAP2 SWAP1 PUSH2 0x26BE JUMP JUMPDEST PUSH1 0x40 MLOAD DUP1 SWAP2 SUB SWAP1 RETURN JUMPDEST PUSH2 0x460 PUSH2 0x1780 JUMP JUMPDEST PUSH1 0x40 MLOAD PUSH2 0x46D SWAP2 SWAP1 PUSH2 0x2716 JUMP JUMPDEST PUSH1 0x40 MLOAD DUP1 SWAP2 SUB SWAP1 RETURN JUMPDEST PUSH2 0x47E PUSH2 0x17A4 JUMP JUMPDEST PUSH1 0x40 MLOAD PUSH2 0x48B SWAP2 SWAP1 PUSH2 0x2871 JUMP JUMPDEST PUSH1 0x40 MLOAD DUP1 SWAP2 SUB SWAP1 RETURN JUMPDEST PUSH2 0x49C PUSH2 0x17AC JUMP JUMPDEST PUSH1 0x40 MLOAD PUSH2 0x4A9 SWAP2 SWAP1 PUSH2 0x26BE JUMP JUMPDEST PUSH1 0x40 MLOAD DUP1 SWAP2 SUB SWAP1 RETURN JUMPDEST PUSH2 0x4BA PUSH2 0x17BE JUMP JUMPDEST PUSH1 0x40 MLOAD PUSH2 0x4C7 SWAP2 SWAP1 PUSH2 0x26BE JUMP JUMPDEST PUSH1 0x40 MLOAD DUP1 SWAP2 SUB SWAP1 RETURN JUMPDEST PUSH2 0x4D8 PUSH2 0x17E5 JUMP JUMPDEST PUSH1 0x40 MLOAD PUSH2 0x4E5 SWAP2 SWAP1 PUSH2 0x26BE JUMP JUMPDEST PUSH1 0x40 MLOAD DUP1 SWAP2 SUB SWAP1 RETURN JUMPDEST PUSH2 0x4F6 PUSH2 0x186E JUMP JUMPDEST PUSH1 0x40 MLOAD PUSH2 0x503 SWAP2 SWAP1 PUSH2 0x2871 JUMP JUMPDEST PUSH1 0x40 MLOAD DUP1 SWAP2 SUB SWAP1 RETURN JUMPDEST PUSH2 0x526 PUSH1 0x4 DUP1 CALLDATASIZE SUB DUP2 ADD SWAP1 PUSH2 0x521 SWAP2 SWAP1 PUSH2 0x2837 JUMP JUMPDEST PUSH2 0x1874 JUMP JUMPDEST STOP JUMPDEST PUSH2 0x530 PUSH2 0x1EFB JUMP JUMPDEST PUSH1 0x40 MLOAD PUSH2 0x53D SWAP2 SWAP1 PUSH2 0x2871 JUMP JUMPDEST PUSH1 0x40 MLOAD DUP1 SWAP2 SUB SWAP1 RETURN JUMPDEST PUSH2 0x54E PUSH2 0x1F04 JUMP JUMPDEST PUSH1 0x40 MLOAD PUSH2 0x55B SWAP2 SWAP1 PUSH2 0x26BE JUMP JUMPDEST PUSH1 0x40 MLOAD DUP1 SWAP2 SUB SWAP1 RETURN JUMPDEST PUSH2 0x57E PUSH1 0x4 DUP1 CALLDATASIZE SUB DUP2 ADD SWAP1 PUSH2 0x579 SWAP2 SWAP1 PUSH2 0x2837 JUMP JUMPDEST PUSH2 0x1F15 JUMP JUMPDEST STOP JUMPDEST PUSH2 0x588 PUSH2 0x1FA8 JUMP JUMPDEST PUSH1 0x40 MLOAD PUSH2 0x595 SWAP2 SWAP1 PUSH2 0x26BE JUMP JUMPDEST PUSH1 0x40 MLOAD DUP1 SWAP2 SUB SWAP1 RETURN JUMPDEST PUSH2 0x5B8 PUSH1 0x4 DUP1 CALLDATASIZE SUB DUP2 ADD SWAP1 PUSH2 0x5B3 SWAP2 SWAP1 PUSH2 0x27CE JUMP JUMPDEST PUSH2 0x1FD5 JUMP JUMPDEST STOP JUMPDEST PUSH2 0x5C2 PUSH2 0x206F JUMP JUMPDEST PUSH1 0x40 MLOAD PUSH2 0x5CF SWAP2 SWAP1 PUSH2 0x26BE JUMP JUMPDEST PUSH1 0x40 MLOAD DUP1 SWAP2 SUB SWAP1 RETURN JUMPDEST PUSH2 0x5E0 PUSH2 0x2308 JUMP JUMPDEST PUSH1 0x40 MLOAD PUSH2 0x5ED SWAP2 SWAP1 PUSH2 0x26BE JUMP JUMPDEST PUSH1 0x40 MLOAD DUP1 SWAP2 SUB SWAP1 RETURN JUMPDEST PUSH2 0x5FE PUSH2 0x2360 JUMP JUMPDEST STOP JUMPDEST PUSH2 0x608 PUSH2 0x25C5 JUMP JUMPDEST PUSH1 0x40 MLOAD PUSH2 0x615 SWAP2 SWAP1 PUSH2 0x2871 JUMP JUMPDEST PUSH1 0x40 MLOAD DUP1 SWAP2 SUB SWAP1 RETURN JUMPDEST PUSH2 0x626 PUSH2 0x25CE JUMP JUMPDEST PUSH1 0x40 MLOAD PUSH2 0x633 SWAP2 SWAP1 PUSH2 0x26BE JUMP JUMPDEST PUSH1 0x40 MLOAD DUP1 SWAP2 SUB SWAP1 RETURN JUMPDEST PUSH0 PUSH0 PUSH20 0xFFFFFFFFFFFFFFFFFFFFFFFFFFFFFFFFFFFFFFFF AND PUSH1 0x1 PUSH1 0x2 SWAP1 SLOAD SWAP1 PUSH2 0x100 EXP SWAP1 DIV PUSH20 0xFFFFFFFFFFFFFFFFFFFFFFFFFFFFFFFFFFFFFFFF AND PUSH20 0xFFFFFFFFFFFFFFFFFFFFFFFFFFFFFFFFFFFFFFFF AND SUB PUSH2 0x6A9 JUMPI PUSH1 0x1 PUSH0 SWAP1 SLOAD SWAP1 PUSH2 0x100 EXP SWAP1 DIV PUSH1 0xFF AND ISZERO SWAP1 POP PUSH2 0x828 JUMP JUMPDEST PUSH1 0x1 PUSH0 SWAP1 SLOAD SWAP1 PUSH2 0x100 EXP SWAP1 DIV PUSH1 0xFF AND PUSH2 0x6C4 JUMPI PUSH0 SWAP1 POP PUSH2 0x828 JUMP JUMPDEST PUSH0 PUSH1 0x1 PUSH1 0x2 SWAP1 SLOAD SWAP1 PUSH2 0x100 EXP SWAP1 DIV PUSH20 0xFFFFFFFFFFFFFFFFFFFFFFFFFFFFFFFFFFFFFFFF AND SWAP1 POP DUP1 PUSH20 0xFFFFFFFFFFFFFFFFFFFFFFFFFFFFFFFFFFFFFFFF AND PUSH4 0x108ECE4D PUSH1 0x40 MLOAD DUP2 PUSH4 0xFFFFFFFF AND PUSH1 0xE0 SHL DUP2 MSTORE PUSH1 0x4 ADD PUSH1 0x20 PUSH1 0x40 MLOAD DUP1 DUP4 SUB DUP2 DUP7 GAS STATICCALL SWAP3 POP POP POP DUP1 ISZERO PUSH2 0x752 JUMPI POP PUSH1 0x40 MLOAD RETURNDATASIZE PUSH1 0x1F NOT PUSH1 0x1F DUP3 ADD AND DUP3 ADD DUP1 PUSH1 0x40 MSTORE POP DUP2 ADD SWAP1 PUSH2 0x74F SWAP2 SWAP1 PUSH2 0x289E JUMP JUMPDEST PUSH1 0x1 JUMPDEST PUSH2 0x75F JUMPI PUSH0 SWAP2 POP POP PUSH2 0x828 JUMP JUMPDEST ADDRESS PUSH20 0xFFFFFFFFFFFFFFFFFFFFFFFFFFFFFFFFFFFFFFFF AND DUP2 PUSH20 0xFFFFFFFFFFFFFFFFFFFFFFFFFFFFFFFFFFFFFFFF AND EQ PUSH2 0x79C JUMPI PUSH0 SWAP3 POP POP POP PUSH2 0x828 JUMP JUMPDEST POP DUP1 PUSH20 0xFFFFFFFFFFFFFFFFFFFFFFFFFFFFFFFFFFFFFFFF AND PUSH4 0x8BC87745 PUSH1 0x40 MLOAD DUP2 PUSH4 0xFFFFFFFF AND PUSH1 0xE0 SHL DUP2 MSTORE PUSH1 0x4 ADD PUSH1 0x20 PUSH1 0x40 MLOAD DUP1 DUP4 SUB DUP2 DUP7 GAS STATICCALL SWAP3 POP POP POP DUP1 ISZERO PUSH2 0x805 JUMPI POP PUSH1 0x40 MLOAD RETURNDATASIZE PUSH1 0x1F NOT PUSH1 0x1F DUP3 ADD AND DUP3 ADD DUP1 PUSH1 0x40 MSTORE POP DUP2 ADD SWAP1 PUSH2 0x802 SWAP2 SWAP1 PUSH2 0x28F3 JUMP JUMPDEST PUSH1 0x1 JUMPDEST PUSH2 0x812 JUMPI PUSH0 SWAP2 POP POP PUSH2 0x828 JUMP JUMPDEST DUP1 PUSH2 0x821 JUMPI PUSH0 SWAP3 POP POP POP PUSH2 0x828 JUMP JUMPDEST POP PUSH1 0x1 SWAP2 POP POP JUMPDEST SWAP1 JUMP JUMPDEST PUSH0 PUSH1 0x1 PUSH1 0x2 SWAP1 SLOAD SWAP1 PUSH2 0x100 EXP SWAP1 DIV PUSH20 0xFFFFFFFFFFFFFFFFFFFFFFFFFFFFFFFFFFFFFFFF AND SWAP1 POP SWAP1 JUMP JUMPDEST PUSH32 0x0 PUSH20 0xFFFFFFFFFFFFFFFFFFFFFFFFFFFFFFFFFFFFFFFF AND CALLER PUSH20 0xFFFFFFFFFFFFFFFFFFFFFFFFFFFFFFFFFFFFFFFF AND EQ PUSH2 0x8E2 JUMPI PUSH1 0x40 MLOAD PUSH32 0x8C379A000000000000000000000000000000000000000000000000000000000 DUP2 MSTORE PUSH1 0x4 ADD PUSH2 0x8D9 SWAP1 PUSH2 0x2978 JUMP JUMPDEST PUSH1 0x40 MLOAD DUP1 SWAP2 SUB SWAP1 REVERT JUMPDEST PUSH0 PUSH20 0xFFFFFFFFFFFFFFFFFFFFFFFFFFFFFFFFFFFFFFFF AND DUP3 PUSH20 0xFFFFFFFFFFFFFFFFFFFFFFFFFFFFFFFFFFFFFFFF AND SUB PUSH2 0x950 JUMPI PUSH1 0x40 MLOAD PUSH32 0x8C379A000000000000000000000000000000000000000000000000000000000 DUP2 MSTORE PUSH1 0x4 ADD PUSH2 0x947 SWAP1 PUSH2 0x29E0 JUMP JUMPDEST PUSH1 0x40 MLOAD DUP1 SWAP2 SUB SWAP1 REVERT JUMPDEST PUSH0 PUSH1 0x6 SLOAD SUB PUSH2 0x994 JUMPI PUSH1 0x40 MLOAD PUSH32 0x8C379A000000000000000000000000000000000000000000000000000000000 DUP2 MSTORE PUSH1 0x4 ADD PUSH2 0x98B SWAP1 PUSH2 0x2A48 JUMP JUMPDEST PUSH1 0x40 MLOAD DUP1 SWAP2 SUB SWAP1 REVERT JUMPDEST DUP2 PUSH20 0xFFFFFFFFFFFFFFFFFFFFFFFFFFFFFFFFFFFFFFFF AND PUSH4 0xC2CA0AC5 DUP3 PUSH1 0x40 MLOAD DUP3 PUSH4 0xFFFFFFFF AND PUSH1 0xE0 SHL DUP2 MSTORE PUSH1 0x4 ADD PUSH2 0x9CD SWAP2 SWAP1 PUSH2 0x2871 JUMP JUMPDEST PUSH0 PUSH1 0x40 MLOAD DUP1 DUP4 SUB DUP2 PUSH0 DUP8 DUP1 EXTCODESIZE ISZERO DUP1 ISZERO PUSH2 0x9E4 JUMPI PUSH0 PUSH0 REVERT JUMPDEST POP GAS CALL SWAP3 POP POP POP DUP1 ISZERO PUSH2 0x9F5 JUMPI POP PUSH1 0x1 JUMPDEST PUSH2 0xA34 JUMPI PUSH1 0x40 MLOAD PUSH32 0x8C379A000000000000000000000000000000000000000000000000000000000 DUP2 MSTORE PUSH1 0x4 ADD PUSH2 0xA2B SWAP1 PUSH2 0x2AB0 JUMP JUMPDEST PUSH1 0x40 MLOAD DUP1 SWAP2 SUB SWAP1 REVERT JUMPDEST PUSH0 PUSH1 0x6 DUP2 SWAP1 SSTORE POP PUSH0 PUSH1 0x7 PUSH0 PUSH2 0x100 EXP DUP2 SLOAD DUP2 PUSH1 0xFF MUL NOT AND SWAP1 DUP4 ISZERO ISZERO MUL OR SWAP1 SSTORE POP POP POP JUMP JUMPDEST PUSH32 0x0 PUSH20 0xFFFFFFFFFFFFFFFFFFFFFFFFFFFFFFFFFFFFFFFF AND CALLER PUSH20 0xFFFFFFFFFFFFFFFFFFFFFFFFFFFFFFFFFFFFFFFF AND EQ PUSH2 0xAE6 JUMPI PUSH1 0x40 MLOAD PUSH32 0x8C379A000000000000000000000000000000000000000000000000000000000 DUP2 MSTORE PUSH1 0x4 ADD PUSH2 0xADD SWAP1 PUSH2 0x2978 JUMP JUMPDEST PUSH1 0x40 MLOAD DUP1 SWAP2 SUB SWAP1 REVERT JUMPDEST DUP1 PUSH1 0x5 DUP2 SWAP1 SSTORE POP POP JUMP JUMPDEST PUSH32 0x0 PUSH20 0xFFFFFFFFFFFFFFFFFFFFFFFFFFFFFFFFFFFFFFFF AND CALLER PUSH20 0xFFFFFFFFFFFFFFFFFFFFFFFFFFFFFFFFFFFFFFFF AND EQ DUP1 PUSH2 0xB97 JUMPI POP PUSH1 0x1 PUSH1 0x2 SWAP1 SLOAD SWAP1 PUSH2 0x100 EXP SWAP1 DIV PUSH20 0xFFFFFFFFFFFFFFFFFFFFFFFFFFFFFFFFFFFFFFFF AND PUSH20 0xFFFFFFFFFFFFFFFFFFFFFFFFFFFFFFFFFFFFFFFF AND CALLER PUSH20 0xFFFFFFFFFFFFFFFFFFFFFFFFFFFFFFFFFFFFFFFF AND EQ JUMPDEST DUP1 PUSH2 0xBA7 JUMPI POP PUSH2 0xBA6 CALLER PUSH2 0x25E2 JUMP JUMPDEST JUMPDEST PUSH2 0xBE6 JUMPI PUSH1 0x40 MLOAD PUSH32 0x8C379A000000000000000000000000000000000000000000000000000000000 DUP2 MSTORE PUSH1 0x4 ADD PUSH2 0xBDD SWAP1 PUSH2 0x2B18 JUMP JUMPDEST PUSH1 0x40 MLOAD DUP1 SWAP2 SUB SWAP1 REVERT JUMPDEST POP JUMP JUMPDEST PUSH0 PUSH0 PUSH20 0xFFFFFFFFFFFFFFFFFFFFFFFFFFFFFFFFFFFFFFFF AND PUSH1 0x1 PUSH1 0x2 SWAP1 SLOAD SWAP1 PUSH2 0x100 EXP SWAP1 DIV PUSH20 0xFFFFFFFFFFFFFFFFFFFFFFFFFFFFFFFFFFFFFFFF AND PUSH20 0xFFFFFFFFFFFFFFFFFFFFFFFFFFFFFFFFFFFFFFFF AND SUB PUSH2 0xC48 JUMPI PUSH1 0x1 SWAP1 POP PUSH2 0xD0D JUMP JUMPDEST PUSH0 PUSH1 0x1 PUSH1 0x2 SWAP1 SLOAD SWAP1 PUSH2 0x100 EXP SWAP1 DIV PUSH20 0xFFFFFFFFFFFFFFFFFFFFFFFFFFFFFFFFFFFFFFFF AND SWAP1 POP ADDRESS PUSH20 0xFFFFFFFFFFFFFFFFFFFFFFFFFFFFFFFFFFFFFFFF AND DUP2 PUSH20 0xFFFFFFFFFFFFFFFFFFFFFFFFFFFFFFFFFFFFFFFF AND PUSH4 0x108ECE4D PUSH1 0x40 MLOAD DUP2 PUSH4 0xFFFFFFFF AND PUSH1 0xE0 SHL DUP2 MSTORE PUSH1 0x4 ADD PUSH1 0x20 PUSH1 0x40 MLOAD DUP1 DUP4 SUB DUP2 DUP7 GAS STATICCALL ISZERO DUP1 ISZERO PUSH2 0xCCE JUMPI RETURNDATASIZE PUSH0 PUSH0 RETURNDATACOPY RETURNDATASIZE PUSH0 REVERT JUMPDEST POP POP POP POP PUSH1 0x40 MLOAD RETURNDATASIZE PUSH1 0x1F NOT PUSH1 0x1F DUP3 ADD AND DUP3 ADD DUP1 PUSH1 0x40 MSTORE POP DUP2 ADD SWAP1 PUSH2 0xCF2 SWAP2 SWAP1 PUSH2 0x289E JUMP JUMPDEST PUSH20 0xFFFFFFFFFFFFFFFFFFFFFFFFFFFFFFFFFFFFFFFF AND EQ SWAP2 POP POP JUMPDEST SWAP1 JUMP JUMPDEST PUSH1 0x1 PUSH1 0x2 SWAP1 SLOAD SWAP1 PUSH2 0x100 EXP SWAP1 DIV PUSH20 0xFFFFFFFFFFFFFFFFFFFFFFFFFFFFFFFFFFFFFFFF AND PUSH20 0xFFFFFFFFFFFFFFFFFFFFFFFFFFFFFFFFFFFFFFFF AND CALLER PUSH20 0xFFFFFFFFFFFFFFFFFFFFFFFFFFFFFFFFFFFFFFFF AND SUB PUSH2 0xD82 JUMPI DUP2 PUSH1 0x4 PUSH0 DUP3 DUP3 SLOAD PUSH2 0xD76 SWAP2 SWAP1 PUSH2 0x2B63 JUMP JUMPDEST SWAP3 POP POP DUP2 SWAP1 SSTORE POP PUSH2 0xEAA JUMP JUMPDEST PUSH0 CALLER PUSH20 0xFFFFFFFFFFFFFFFFFFFFFFFFFFFFFFFFFFFFFFFF AND EXTCODESIZE GT PUSH2 0xDDB JUMPI PUSH1 0x40 MLOAD PUSH32 0x8C379A000000000000000000000000000000000000000000000000000000000 DUP2 MSTORE PUSH1 0x4 ADD PUSH2 0xDD2 SWAP1 PUSH2 0x2BE0 JUMP JUMPDEST PUSH1 0x40 MLOAD DUP1 SWAP2 SUB SWAP1 REVERT JUMPDEST CALLER PUSH20 0xFFFFFFFFFFFFFFFFFFFFFFFFFFFFFFFFFFFFFFFF AND DUP2 PUSH20 0xFFFFFFFFFFFFFFFFFFFFFFFFFFFFFFFFFFFFFFFF AND EQ PUSH2 0xE49 JUMPI PUSH1 0x40 MLOAD PUSH32 0x8C379A000000000000000000000000000000000000000000000000000000000 DUP2 MSTORE PUSH1 0x4 ADD PUSH2 0xE40 SWAP1 PUSH2 0x2C6E JUMP JUMPDEST PUSH1 0x40 MLOAD DUP1 SWAP2 SUB SWAP1 REVERT JUMPDEST PUSH2 0xE52 CALLER PUSH2 0x25E2 JUMP JUMPDEST PUSH2 0xE91 JUMPI PUSH1 0x40 MLOAD PUSH32 0x8C379A000000000000000000000000000000000000000000000000000000000 DUP2 MSTORE PUSH1 0x4 ADD PUSH2 0xE88 SWAP1 PUSH2 0x2CD6 JUMP JUMPDEST PUSH1 0x40 MLOAD DUP1 SWAP2 SUB SWAP1 REVERT JUMPDEST DUP2 PUSH1 0x4 PUSH0 DUP3 DUP3 SLOAD PUSH2 0xEA2 SWAP2 SWAP1 PUSH2 0x2B63 JUMP JUMPDEST SWAP3 POP POP DUP2 SWAP1 SSTORE POP JUMPDEST POP POP JUMP JUMPDEST PUSH32 0x0 PUSH20 0xFFFFFFFFFFFFFFFFFFFFFFFFFFFFFFFFFFFFFFFF AND CALLER PUSH20 0xFFFFFFFFFFFFFFFFFFFFFFFFFFFFFFFFFFFFFFFF AND EQ PUSH2 0xF3C JUMPI PUSH1 0x40 MLOAD PUSH32 0x8C379A000000000000000000000000000000000000000000000000000000000 DUP2 MSTORE PUSH1 0x4 ADD PUSH2 0xF33 SWAP1 PUSH2 0x2978 JUMP JUMPDEST PUSH1 0x40 MLOAD DUP1 SWAP2 SUB SWAP1 REVERT JUMPDEST PUSH0 PUSH0 DUP2 SLOAD DUP1 SWAP3 SWAP2 SWAP1 PUSH2 0xF4D SWAP1 PUSH2 0x2CF4 JUMP JUMPDEST SWAP2 SWAP1 POP SSTORE POP PUSH1 0x1 PUSH0 SWAP1 SLOAD SWAP1 PUSH2 0x100 EXP SWAP1 DIV PUSH1 0xFF AND ISZERO DUP1 ISZERO PUSH2 0xFBB JUMPI POP PUSH0 PUSH20 0xFFFFFFFFFFFFFFFFFFFFFFFFFFFFFFFFFFFFFFFF AND PUSH1 0x1 PUSH1 0x2 SWAP1 SLOAD SWAP1 PUSH2 0x100 EXP SWAP1 DIV PUSH20 0xFFFFFFFFFFFFFFFFFFFFFFFFFFFFFFFFFFFFFFFF AND PUSH20 0xFFFFFFFFFFFFFFFFFFFFFFFFFFFFFFFFFFFFFFFF AND EQ JUMPDEST ISZERO PUSH2 0xFE2 JUMPI PUSH1 0x41 PUSH0 SLOAD LT PUSH2 0xFD7 JUMPI PUSH2 0x2328 PUSH1 0x4 DUP2 SWAP1 SSTORE POP PUSH2 0xFE1 JUMP JUMPDEST PUSH2 0x1388 PUSH1 0x4 DUP2 SWAP1 SSTORE POP JUMPDEST JUMPDEST JUMP JUMPDEST DUP1 PUSH20 0xFFFFFFFFFFFFFFFFFFFFFFFFFFFFFFFFFFFFFFFF AND CALLER PUSH20 0xFFFFFFFFFFFFFFFFFFFFFFFFFFFFFFFFFFFFFFFF AND EQ PUSH2 0x1052 JUMPI PUSH1 0x40 MLOAD PUSH32 0x8C379A000000000000000000000000000000000000000000000000000000000 DUP2 MSTORE PUSH1 0x4 ADD PUSH2 0x1049 SWAP1 PUSH2 0x2D85 JUMP JUMPDEST PUSH1 0x40 MLOAD DUP1 SWAP2 SUB SWAP1 REVERT JUMPDEST PUSH0 PUSH1 0x1 PUSH1 0x2 PUSH2 0x100 EXP DUP2 SLOAD DUP2 PUSH20 0xFFFFFFFFFFFFFFFFFFFFFFFFFFFFFFFFFFFFFFFF MUL NOT AND SWAP1 DUP4 PUSH20 0xFFFFFFFFFFFFFFFFFFFFFFFFFFFFFFFFFFFFFFFF AND MUL OR SWAP1 SSTORE POP PUSH0 PUSH1 0x1 PUSH0 PUSH2 0x100 EXP DUP2 SLOAD DUP2 PUSH1 0xFF MUL NOT AND SWAP1 DUP4 ISZERO ISZERO MUL OR SWAP1 SSTORE POP PUSH2 0x10B4 PUSH2 0x2687 JUMP JUMPDEST PUSH1 0x4 DUP2 SWAP1 SSTORE POP POP JUMP JUMPDEST PUSH0 PUSH1 0x4 SLOAD PUSH1 0x5 SLOAD GT PUSH2 0x10D1 JUMPI PUSH0 SWAP1 POP PUSH2 0x10E4 JUMP JUMPDEST PUSH1 0x4 SLOAD PUSH1 0x5 SLOAD PUSH2 0x10E1 SWAP2 SWAP1 PUSH2 0x2DA3 JUMP JUMPDEST SWAP1 POP JUMPDEST SWAP1 JUMP JUMPDEST PUSH0 PUSH0 PUSH2 0x10F1 PUSH2 0x10BD JUMP JUMPDEST SWAP1 POP PUSH2 0x3E8 DUP4 DUP3 PUSH2 0x1102 SWAP2 SWAP1 PUSH2 0x2DD6 JUMP JUMPDEST PUSH2 0x110C SWAP2 SWAP1 PUSH2 0x2E44 JUMP JUMPDEST SWAP2 POP POP SWAP2 SWAP1 POP JUMP JUMPDEST PUSH32 0x0 PUSH20 0xFFFFFFFFFFFFFFFFFFFFFFFFFFFFFFFFFFFFFFFF AND CALLER PUSH20 0xFFFFFFFFFFFFFFFFFFFFFFFFFFFFFFFFFFFFFFFF AND EQ PUSH2 0x11A2 JUMPI PUSH1 0x40 MLOAD PUSH32 0x8C379A000000000000000000000000000000000000000000000000000000000 DUP2 MSTORE PUSH1 0x4 ADD PUSH2 0x1199 SWAP1 PUSH2 0x2978 JUMP JUMPDEST PUSH1 0x40 MLOAD DUP1 SWAP2 SUB SWAP1 REVERT JUMPDEST PUSH0 PUSH20 0xFFFFFFFFFFFFFFFFFFFFFFFFFFFFFFFFFFFFFFFF AND DUP3 PUSH20 0xFFFFFFFFFFFFFFFFFFFFFFFFFFFFFFFFFFFFFFFF AND EQ ISZERO DUP1 ISZERO PUSH2 0x11F4 JUMPI POP PUSH0 DUP3 PUSH20 0xFFFFFFFFFFFFFFFFFFFFFFFFFFFFFFFFFFFFFFFF AND EXTCODESIZE GT JUMPDEST PUSH2 0x1233 JUMPI PUSH1 0x40 MLOAD PUSH32 0x8C379A000000000000000000000000000000000000000000000000000000000 DUP2 MSTORE PUSH1 0x4 ADD PUSH2 0x122A SWAP1 PUSH2 0x2EBE JUMP JUMPDEST PUSH1 0x40 MLOAD DUP1 SWAP2 SUB SWAP1 REVERT JUMPDEST DUP2 PUSH20 0xFFFFFFFFFFFFFFFFFFFFFFFFFFFFFFFFFFFFFFFF AND PUSH4 0xF14FCBC8 DUP3 PUSH1 0x40 MLOAD PUSH1 0x20 ADD PUSH2 0x1260 SWAP2 SWAP1 PUSH2 0x2871 JUMP JUMPDEST PUSH1 0x40 MLOAD PUSH1 0x20 DUP2 DUP4 SUB SUB DUP2 MSTORE SWAP1 PUSH1 0x40 MSTORE DUP1 MLOAD SWAP1 PUSH1 0x20 ADD KECCAK256 PUSH1 0x40 MLOAD DUP3 PUSH4 0xFFFFFFFF AND PUSH1 0xE0 SHL DUP2 MSTORE PUSH1 0x4 ADD PUSH2 0x1292 SWAP2 SWAP1 PUSH2 0x2EF4 JUMP JUMPDEST PUSH0 PUSH1 0x40 MLOAD DUP1 DUP4 SUB DUP2 PUSH0 DUP8 DUP1 EXTCODESIZE ISZERO DUP1 ISZERO PUSH2 0x12A9 JUMPI PUSH0 PUSH0 REVERT JUMPDEST POP GAS CALL SWAP3 POP POP POP DUP1 ISZERO PUSH2 0x12BA JUMPI POP PUSH1 0x1 JUMPDEST PUSH2 0x12F9 JUMPI PUSH1 0x40 MLOAD PUSH32 0x8C379A000000000000000000000000000000000000000000000000000000000 DUP2 MSTORE PUSH1 0x4 ADD PUSH2 0x12F0 SWAP1 PUSH2 0x2F57 JUMP JUMPDEST PUSH1 0x40 MLOAD DUP1 SWAP2 SUB SWAP1 REVERT JUMPDEST DUP1 PUSH1 0x6 DUP2 SWAP1 SSTORE POP PUSH1 0x1 PUSH1 0x7 PUSH0 PUSH2 0x100 EXP DUP2 SLOAD DUP2 PUSH1 0xFF MUL NOT AND SWAP1 DUP4 ISZERO ISZERO MUL OR SWAP1 SSTORE POP POP POP JUMP JUMPDEST DUP1 PUSH1 0x1 PUSH1 0x2 PUSH2 0x100 EXP DUP2 SLOAD DUP2 PUSH20 0xFFFFFFFFFFFFFFFFFFFFFFFFFFFFFFFFFFFFFFFF MUL NOT AND SWAP1 DUP4 PUSH20 0xFFFFFFFFFFFFFFFFFFFFFFFFFFFFFFFFFFFFFFFF AND MUL OR SWAP1 SSTORE POP POP JUMP JUMPDEST PUSH0 PUSH2 0x136B PUSH2 0x2687 JUMP JUMPDEST SWAP1 POP SWAP1 JUMP JUMPDEST PUSH0 PUSH1 0x1 DUP1 SLOAD SWAP1 PUSH2 0x100 EXP SWAP1 DIV PUSH1 0xFF AND SWAP1 POP SWAP1 JUMP JUMPDEST PUSH32 0x0 PUSH20 0xFFFFFFFFFFFFFFFFFFFFFFFFFFFFFFFFFFFFFFFF AND CALLER PUSH20 0xFFFFFFFFFFFFFFFFFFFFFFFFFFFFFFFFFFFFFFFF AND EQ PUSH2 0x1412 JUMPI PUSH1 0x40 MLOAD PUSH32 0x8C379A000000000000000000000000000000000000000000000000000000000 DUP2 MSTORE PUSH1 0x4 ADD PUSH2 0x1409 SWAP1 PUSH2 0x2978 JUMP JUMPDEST PUSH1 0x40 MLOAD DUP1 SWAP2 SUB SWAP1 REVERT JUMPDEST PUSH0 PUSH20 0xFFFFFFFFFFFFFFFFFFFFFFFFFFFFFFFFFFFFFFFF AND PUSH1 0x1 PUSH1 0x2 SWAP1 SLOAD SWAP1 PUSH2 0x100 EXP SWAP1 DIV PUSH20 0xFFFFFFFFFFFFFFFFFFFFFFFFFFFFFFFFFFFFFFFF AND PUSH20 0xFFFFFFFFFFFFFFFFFFFFFFFFFFFFFFFFFFFFFFFF AND SUB PUSH2 0x14A2 JUMPI PUSH1 0x40 MLOAD PUSH32 0x8C379A000000000000000000000000000000000000000000000000000000000 DUP2 MSTORE PUSH1 0x4 ADD PUSH2 0x1499 SWAP1 PUSH2 0x2FBF JUMP JUMPDEST PUSH1 0x40 MLOAD DUP1 SWAP2 SUB SWAP1 REVERT JUMPDEST PUSH0 DUP2 GT PUSH2 0x14E4 JUMPI PUSH1 0x40 MLOAD PUSH32 0x8C379A000000000000000000000000000000000000000000000000000000000 DUP2 MSTORE PUSH1 0x4 ADD PUSH2 0x14DB SWAP1 PUSH2 0x3027 JUMP JUMPDEST PUSH1 0x40 MLOAD DUP1 SWAP2 SUB SWAP1 REVERT JUMPDEST PUSH1 0x4 SLOAD DUP2 GT ISZERO PUSH2 0x1529 JUMPI PUSH1 0x40 MLOAD PUSH32 0x8C379A000000000000000000000000000000000000000000000000000000000 DUP2 MSTORE PUSH1 0x4 ADD PUSH2 0x1520 SWAP1 PUSH2 0x308F JUMP JUMPDEST PUSH1 0x40 MLOAD DUP1 SWAP2 SUB SWAP1 REVERT JUMPDEST DUP1 PUSH1 0x4 PUSH0 DUP3 DUP3 SLOAD PUSH2 0x153A SWAP2 SWAP1 PUSH2 0x2DA3 JUMP JUMPDEST SWAP3 POP POP DUP2 SWAP1 SSTORE POP PUSH1 0x1 PUSH1 0x2 SWAP1 SLOAD SWAP1 PUSH2 0x100 EXP SWAP1 DIV PUSH20 0xFFFFFFFFFFFFFFFFFFFFFFFFFFFFFFFFFFFFFFFF AND PUSH20 0xFFFFFFFFFFFFFFFFFFFFFFFFFFFFFFFFFFFFFFFF AND PUSH4 0x308F838A DUP3 ADDRESS PUSH1 0x40 MLOAD DUP4 PUSH4 0xFFFFFFFF AND PUSH1 0xE0 SHL DUP2 MSTORE PUSH1 0x4 ADD PUSH2 0x159E SWAP3 SWAP2 SWAP1 PUSH2 0x30AD JUMP JUMPDEST PUSH0 PUSH1 0x40 MLOAD DUP1 DUP4 SUB DUP2 PUSH0 DUP8 DUP1 EXTCODESIZE ISZERO DUP1 ISZERO PUSH2 0x15B5 JUMPI PUSH0 PUSH0 REVERT JUMPDEST POP GAS CALL SWAP3 POP POP POP DUP1 ISZERO PUSH2 0x15C6 JUMPI POP PUSH1 0x1 JUMPDEST PUSH2 0x161D JUMPI DUP1 PUSH1 0x4 PUSH0 DUP3 DUP3 SLOAD PUSH2 0x15DB SWAP2 SWAP1 PUSH2 0x2B63 JUMP JUMPDEST SWAP3 POP POP DUP2 SWAP1 SSTORE POP PUSH1 0x40 MLOAD PUSH32 0x8C379A000000000000000000000000000000000000000000000000000000000 DUP2 MSTORE PUSH1 0x4 ADD PUSH2 0x1614 SWAP1 PUSH2 0x311E JUMP JUMPDEST PUSH1 0x40 MLOAD DUP1 SWAP2 SUB SWAP1 REVERT JUMPDEST POP JUMP JUMPDEST PUSH0 PUSH32 0x0 SWAP1 POP SWAP1 JUMP JUMPDEST PUSH0 PUSH0 PUSH1 0x6 SLOAD SUB PUSH2 0x165A JUMPI PUSH1 0x1 SWAP1 POP PUSH2 0x1766 JUMP JUMPDEST PUSH0 PUSH20 0xFFFFFFFFFFFFFFFFFFFFFFFFFFFFFFFFFFFFFFFF AND DUP3 PUSH20 0xFFFFFFFFFFFFFFFFFFFFFFFFFFFFFFFFFFFFFFFF AND EQ DUP1 PUSH2 0x16AA JUMPI POP PUSH0 DUP3 PUSH20 0xFFFFFFFFFFFFFFFFFFFFFFFFFFFFFFFFFFFFFFFF AND EXTCODESIZE EQ JUMPDEST ISZERO PUSH2 0x16B8 JUMPI PUSH1 0x1 SWAP1 POP PUSH2 0x1766 JUMP JUMPDEST DUP2 PUSH20 0xFFFFFFFFFFFFFFFFFFFFFFFFFFFFFFFFFFFFFFFF AND PUSH4 0x7B43A8E6 ADDRESS PUSH1 0x40 MLOAD DUP3 PUSH4 0xFFFFFFFF AND PUSH1 0xE0 SHL DUP2 MSTORE PUSH1 0x4 ADD PUSH2 0x16F1 SWAP2 SWAP1 PUSH2 0x2716 JUMP JUMPDEST PUSH1 0x20 PUSH1 0x40 MLOAD DUP1 DUP4 SUB DUP2 DUP7 GAS STATICCALL SWAP3 POP POP POP DUP1 ISZERO PUSH2 0x172B JUMPI POP PUSH1 0x40 MLOAD RETURNDATASIZE PUSH1 0x1F NOT PUSH1 0x1F DUP3 ADD AND DUP3 ADD DUP1 PUSH1 0x40 MSTORE POP DUP2 ADD SWAP1 PUSH2 0x1728 SWAP2 SWAP1 PUSH2 0x3166 JUMP JUMPDEST PUSH1 0x1 JUMPDEST PUSH2 0x1737 JUMPI PUSH0 SWAP1 POP PUSH2 0x1766 JUMP JUMPDEST PUSH1 0x6 SLOAD PUSH1 0x40 MLOAD PUSH1 0x20 ADD PUSH2 0x174A SWAP2 SWAP1 PUSH2 0x2871 JUMP JUMPDEST PUSH1 0x40 MLOAD PUSH1 0x20 DUP2 DUP4 SUB SUB DUP2 MSTORE SWAP1 PUSH1 0x40 MSTORE DUP1 MLOAD SWAP1 PUSH1 0x20 ADD KECCAK256 DUP2 EQ SWAP2 POP POP JUMPDEST SWAP2 SWAP1 POP JUMP JUMPDEST PUSH0 PUSH1 0x1 PUSH0 SWAP1 SLOAD SWAP1 PUSH2 0x100 EXP SWAP1 DIV PUSH1 0xFF AND SWAP1 POP SWAP1 JUMP JUMPDEST PUSH32 0x0 DUP2 JUMP JUMPDEST PUSH0 PUSH0 SLOAD SWAP1 POP SWAP1 JUMP JUMPDEST PUSH1 0x7 PUSH0 SWAP1 SLOAD SWAP1 PUSH2 0x100 EXP SWAP1 DIV PUSH1 0xFF AND DUP2 JUMP JUMPDEST PUSH0 PUSH1 0x4 SLOAD PUSH1 0x5 SLOAD GT PUSH2 0x17DD JUMPI PUSH0 PUSH2 0x17D5 PUSH1 0xC8 PUSH2 0x10E7 JUMP JUMPDEST EQ SWAP1 POP PUSH2 0x17E2 JUMP JUMPDEST PUSH1 0x1 SWAP1 POP JUMPDEST SWAP1 JUMP JUMPDEST PUSH0 PUSH0 PUSH20 0xFFFFFFFFFFFFFFFFFFFFFFFFFFFFFFFFFFFFFFFF AND PUSH1 0x1 PUSH1 0x2 SWAP1 SLOAD SWAP1 PUSH2 0x100 EXP SWAP1 DIV PUSH20 0xFFFFFFFFFFFFFFFFFFFFFFFFFFFFFFFFFFFFFFFF AND PUSH20 0xFFFFFFFFFFFFFFFFFFFFFFFFFFFFFFFFFFFFFFFF AND EQ ISZERO DUP1 PUSH2 0x184E JUMPI POP PUSH1 0x1 PUSH0 SWAP1 SLOAD SWAP1 PUSH2 0x100 EXP SWAP1 DIV PUSH1 0xFF AND JUMPDEST ISZERO PUSH2 0x185C JUMPI PUSH1 0x1 SWAP1 POP PUSH2 0x186B JUMP JUMPDEST PUSH2 0x1864 PUSH2 0x2687 JUMP JUMPDEST PUSH1 0x4 SLOAD EQ SWAP1 POP JUMPDEST SWAP1 JUMP JUMPDEST PUSH1 0x6 SLOAD DUP2 JUMP JUMPDEST PUSH32 0x0 PUSH20 0xFFFFFFFFFFFFFFFFFFFFFFFFFFFFFFFFFFFFFFFF AND CALLER PUSH20 0xFFFFFFFFFFFFFFFFFFFFFFFFFFFFFFFFFFFFFFFF AND EQ PUSH2 0x1902 JUMPI PUSH1 0x40 MLOAD PUSH32 0x8C379A000000000000000000000000000000000000000000000000000000000 DUP2 MSTORE PUSH1 0x4 ADD PUSH2 0x18F9 SWAP1 PUSH2 0x2978 JUMP JUMPDEST PUSH1 0x40 MLOAD DUP1 SWAP2 SUB SWAP1 REVERT JUMPDEST PUSH1 0x1 PUSH0 SWAP1 SLOAD SWAP1 PUSH2 0x100 EXP SWAP1 DIV PUSH1 0xFF AND ISZERO PUSH2 0x1951 JUMPI PUSH1 0x40 MLOAD PUSH32 0x8C379A000000000000000000000000000000000000000000000000000000000 DUP2 MSTORE PUSH1 0x4 ADD PUSH2 0x1948 SWAP1 PUSH2 0x31DB JUMP JUMPDEST PUSH1 0x40 MLOAD DUP1 SWAP2 SUB SWAP1 REVERT JUMPDEST PUSH0 PUSH20 0xFFFFFFFFFFFFFFFFFFFFFFFFFFFFFFFFFFFFFFFF AND DUP2 PUSH20 0xFFFFFFFFFFFFFFFFFFFFFFFFFFFFFFFFFFFFFFFF AND SUB PUSH2 0x19BF JUMPI PUSH1 0x40 MLOAD PUSH32 0x8C379A000000000000000000000000000000000000000000000000000000000 DUP2 MSTORE PUSH1 0x4 ADD PUSH2 0x19B6 SWAP1 PUSH2 0x3243 JUMP JUMPDEST PUSH1 0x40 MLOAD DUP1 SWAP2 SUB SWAP1 REVERT JUMPDEST ADDRESS PUSH20 0xFFFFFFFFFFFFFFFFFFFFFFFFFFFFFFFFFFFFFFFF AND DUP2 PUSH20 0xFFFFFFFFFFFFFFFFFFFFFFFFFFFFFFFFFFFFFFFF AND SUB PUSH2 0x1A2D JUMPI PUSH1 0x40 MLOAD PUSH32 0x8C379A000000000000000000000000000000000000000000000000000000000 DUP2 MSTORE PUSH1 0x4 ADD PUSH2 0x1A24 SWAP1 PUSH2 0x32AB JUMP JUMPDEST PUSH1 0x40 MLOAD DUP1 SWAP2 SUB SWAP1 REVERT JUMPDEST PUSH0 DUP2 PUSH20 0xFFFFFFFFFFFFFFFFFFFFFFFFFFFFFFFFFFFFFFFF AND EXTCODESIZE GT PUSH2 0x1A86 JUMPI PUSH1 0x40 MLOAD PUSH32 0x8C379A000000000000000000000000000000000000000000000000000000000 DUP2 MSTORE PUSH1 0x4 ADD PUSH2 0x1A7D SWAP1 PUSH2 0x3313 JUMP JUMPDEST PUSH1 0x40 MLOAD DUP1 SWAP2 SUB SWAP1 REVERT JUMPDEST PUSH0 DUP2 PUSH20 0xFFFFFFFFFFFFFFFFFFFFFFFFFFFFFFFFFFFFFFFF AND PUSH4 0x8BC87745 PUSH1 0x40 MLOAD DUP2 PUSH4 0xFFFFFFFF AND PUSH1 0xE0 SHL DUP2 MSTORE PUSH1 0x4 ADD PUSH1 0x20 PUSH1 0x40 MLOAD DUP1 DUP4 SUB DUP2 DUP7 GAS STATICCALL SWAP3 POP POP POP DUP1 ISZERO PUSH2 0x1AEF JUMPI POP PUSH1 0x40 MLOAD RETURNDATASIZE PUSH1 0x1F NOT PUSH1 0x1F DUP3 ADD AND DUP3 ADD DUP1 PUSH1 0x40 MSTORE POP DUP2 ADD SWAP1 PUSH2 0x1AEC SWAP2 SWAP1 PUSH2 0x28F3 JUMP JUMPDEST PUSH1 0x1 JUMPDEST PUSH2 0x1B2E JUMPI PUSH1 0x40 MLOAD PUSH32 0x8C379A000000000000000000000000000000000000000000000000000000000 DUP2 MSTORE PUSH1 0x4 ADD PUSH2 0x1B25 SWAP1 PUSH2 0x337B JUMP JUMPDEST PUSH1 0x40 MLOAD DUP1 SWAP2 SUB SWAP1 REVERT JUMPDEST DUP1 SWAP2 POP POP DUP1 ISZERO PUSH2 0x1B73 JUMPI PUSH1 0x40 MLOAD PUSH32 0x8C379A000000000000000000000000000000000000000000000000000000000 DUP2 MSTORE PUSH1 0x4 ADD PUSH2 0x1B6A SWAP1 PUSH2 0x33E3 JUMP JUMPDEST PUSH1 0x40 MLOAD DUP1 SWAP2 SUB SWAP1 REVERT JUMPDEST PUSH0 PUSH1 0x1 PUSH1 0x2 SWAP1 SLOAD SWAP1 PUSH2 0x100 EXP SWAP1 DIV PUSH20 0xFFFFFFFFFFFFFFFFFFFFFFFFFFFFFFFFFFFFFFFF AND SWAP1 POP PUSH0 DUP4 SWAP1 POP PUSH0 PUSH1 0x4 SLOAD SWAP1 POP DUP2 PUSH1 0x1 PUSH1 0x2 PUSH2 0x100 EXP DUP2 SLOAD DUP2 PUSH20 0xFFFFFFFFFFFFFFFFFFFFFFFFFFFFFFFFFFFFFFFF MUL NOT AND SWAP1 DUP4 PUSH20 0xFFFFFFFFFFFFFFFFFFFFFFFFFFFFFFFFFFFFFFFF AND MUL OR SWAP1 SSTORE POP PUSH1 0x1 DUP1 PUSH0 PUSH2 0x100 EXP DUP2 SLOAD DUP2 PUSH1 0xFF MUL NOT AND SWAP1 DUP4 ISZERO ISZERO MUL OR SWAP1 SSTORE POP PUSH2 0x1C05 PUSH2 0x2687 JUMP JUMPDEST PUSH1 0x4 DUP2 SWAP1 SSTORE POP PUSH1 0x1 PUSH1 0x2 SWAP1 SLOAD SWAP1 PUSH2 0x100 EXP SWAP1 DIV PUSH20 0xFFFFFFFFFFFFFFFFFFFFFFFFFFFFFFFFFFFFFFFF AND PUSH20 0xFFFFFFFFFFFFFFFFFFFFFFFFFFFFFFFFFFFFFFFF AND PUSH4 0xCB01A92B ADDRESS PUSH1 0x40 MLOAD DUP3 PUSH4 0xFFFFFFFF AND PUSH1 0xE0 SHL DUP2 MSTORE PUSH1 0x4 ADD PUSH2 0x1C66 SWAP2 SWAP1 PUSH2 0x2716 JUMP JUMPDEST PUSH0 PUSH1 0x40 MLOAD DUP1 DUP4 SUB DUP2 PUSH0 DUP8 DUP1 EXTCODESIZE ISZERO DUP1 ISZERO PUSH2 0x1C7D JUMPI PUSH0 PUSH0 REVERT JUMPDEST POP GAS CALL SWAP3 POP POP POP DUP1 ISZERO PUSH2 0x1C8E JUMPI POP PUSH1 0x1 JUMPDEST PUSH2 0x1D2E JUMPI DUP3 PUSH1 0x1 PUSH1 0x2 PUSH2 0x100 EXP DUP2 SLOAD DUP2 PUSH20 0xFFFFFFFFFFFFFFFFFFFFFFFFFFFFFFFFFFFFFFFF MUL NOT AND SWAP1 DUP4 PUSH20 0xFFFFFFFFFFFFFFFFFFFFFFFFFFFFFFFFFFFFFFFF AND MUL OR SWAP1 SSTORE POP PUSH0 PUSH1 0x1 PUSH0 PUSH2 0x100 EXP DUP2 SLOAD DUP2 PUSH1 0xFF MUL NOT AND SWAP1 DUP4 ISZERO ISZERO MUL OR SWAP1 SSTORE POP DUP1 PUSH1 0x4 DUP2 SWAP1 SSTORE POP PUSH1 0x40 MLOAD PUSH32 0x8C379A000000000000000000000000000000000000000000000000000000000 DUP2 MSTORE PUSH1 0x4 ADD PUSH2 0x1D25 SWAP1 PUSH2 0x344B JUMP JUMPDEST PUSH1 0x40 MLOAD DUP1 SWAP2 SUB SWAP1 REVERT JUMPDEST DUP2 PUSH20 0xFFFFFFFFFFFFFFFFFFFFFFFFFFFFFFFFFFFFFFFF AND PUSH4 0x25803D64 DUP4 PUSH20 0xFFFFFFFFFFFFFFFFFFFFFFFFFFFFFFFFFFFFFFFF AND PUSH4 0x594DB753 PUSH1 0x40 MLOAD DUP2 PUSH4 0xFFFFFFFF AND PUSH1 0xE0 SHL DUP2 MSTORE PUSH1 0x4 ADD PUSH1 0x20 PUSH1 0x40 MLOAD DUP1 DUP4 SUB DUP2 DUP7 GAS STATICCALL ISZERO DUP1 ISZERO PUSH2 0x1D93 JUMPI RETURNDATASIZE PUSH0 PUSH0 RETURNDATACOPY RETURNDATASIZE PUSH0 REVERT JUMPDEST POP POP POP POP PUSH1 0x40 MLOAD RETURNDATASIZE PUSH1 0x1F NOT PUSH1 0x1F DUP3 ADD AND DUP3 ADD DUP1 PUSH1 0x40 MSTORE POP DUP2 ADD SWAP1 PUSH2 0x1DB7 SWAP2 SWAP1 PUSH2 0x347D JUMP JUMPDEST PUSH1 0x40 MLOAD DUP3 PUSH4 0xFFFFFFFF AND PUSH1 0xE0 SHL DUP2 MSTORE PUSH1 0x4 ADD PUSH2 0x1DD3 SWAP2 SWAP1 PUSH2 0x2871 JUMP JUMPDEST PUSH0 PUSH1 0x40 MLOAD DUP1 DUP4 SUB DUP2 DUP7 DUP1 EXTCODESIZE ISZERO DUP1 ISZERO PUSH2 0x1DE9 JUMPI PUSH0 PUSH0 REVERT JUMPDEST POP GAS STATICCALL SWAP3 POP POP POP DUP1 ISZERO PUSH2 0x1DFA JUMPI POP PUSH1 0x1 JUMPDEST PUSH2 0x1E9A JUMPI DUP3 PUSH1 0x1 PUSH1 0x2 PUSH2 0x100 EXP DUP2 SLOAD DUP2 PUSH20 0xFFFFFFFFFFFFFFFFFFFFFFFFFFFFFFFFFFFFFFFF MUL NOT AND SWAP1 DUP4 PUSH20 0xFFFFFFFFFFFFFFFFFFFFFFFFFFFFFFFFFFFFFFFF AND MUL OR SWAP1 SSTORE POP PUSH0 PUSH1 0x1 PUSH0 PUSH2 0x100 EXP DUP2 SLOAD DUP2 PUSH1 0xFF MUL NOT AND SWAP1 DUP4 ISZERO ISZERO MUL OR SWAP1 SSTORE POP DUP1 PUSH1 0x4 DUP2 SWAP1 SSTORE POP PUSH1 0x40 MLOAD PUSH32 0x8C379A000000000000000000000000000000000000000000000000000000000 DUP2 MSTORE PUSH1 0x4 ADD PUSH2 0x1E91 SWAP1 PUSH2 0x34F2 JUMP JUMPDEST PUSH1 0x40 MLOAD DUP1 SWAP2 SUB SWAP1 REVERT JUMPDEST DUP2 PUSH20 0xFFFFFFFFFFFFFFFFFFFFFFFFFFFFFFFFFFFFFFFF AND ADDRESS PUSH20 0xFFFFFFFFFFFFFFFFFFFFFFFFFFFFFFFFFFFFFFFF AND PUSH32 0xC89EF770A4AD395EBDC22B63DE541B88DAF19F335056F203FA06E4154B62BB7B PUSH1 0x40 MLOAD PUSH1 0x40 MLOAD DUP1 SWAP2 SUB SWAP1 LOG3 POP POP POP POP POP JUMP JUMPDEST PUSH0 PUSH1 0x4 SLOAD SWAP1 POP SWAP1 JUMP JUMPDEST PUSH0 PUSH0 PUSH2 0x1F0E PUSH2 0x10BD JUMP JUMPDEST LT ISZERO SWAP1 POP SWAP1 JUMP JUMPDEST DUP1 PUSH20 0xFFFFFFFFFFFFFFFFFFFFFFFFFFFFFFFFFFFFFFFF AND CALLER PUSH20 0xFFFFFFFFFFFFFFFFFFFFFFFFFFFFFFFFFFFFFFFF AND EQ PUSH2 0x1F83 JUMPI PUSH1 0x40 MLOAD PUSH32 0x8C379A000000000000000000000000000000000000000000000000000000000 DUP2 MSTORE PUSH1 0x4 ADD PUSH2 0x1F7A SWAP1 PUSH2 0x355A JUMP JUMPDEST PUSH1 0x40 MLOAD DUP1 SWAP2 SUB SWAP1 REVERT JUMPDEST PUSH2 0x1F8C DUP2 PUSH2 0x131E JUMP JUMPDEST PUSH1 0x1 DUP1 PUSH0 PUSH2 0x100 EXP DUP2 SLOAD DUP2 PUSH1 0xFF MUL NOT AND SWAP1 DUP4 ISZERO ISZERO MUL OR SWAP1 SSTORE POP POP JUMP JUMPDEST PUSH0 PUSH1 0x7 PUSH0 SWAP1 SLOAD SWAP1 PUSH2 0x100 EXP SWAP1 DIV PUSH1 0xFF AND ISZERO PUSH2 0x1FCA JUMPI PUSH0 PUSH1 0x6 SLOAD EQ ISZERO SWAP1 POP PUSH2 0x1FD2 JUMP JUMPDEST PUSH0 PUSH1 0x6 SLOAD EQ SWAP1 POP JUMPDEST SWAP1 JUMP JUMPDEST PUSH1 0x1 PUSH1 0x2 SWAP1 SLOAD SWAP1 PUSH2 0x100 EXP SWAP1 DIV PUSH20 0xFFFFFFFFFFFFFFFFFFFFFFFFFFFFFFFFFFFFFFFF AND PUSH20 0xFFFFFFFFFFFFFFFFFFFFFFFFFFFFFFFFFFFFFFFF AND CALLER PUSH20 0xFFFFFFFFFFFFFFFFFFFFFFFFFFFFFFFFFFFFFFFF AND EQ PUSH2 0x2065 JUMPI PUSH1 0x40 MLOAD PUSH32 0x8C379A000000000000000000000000000000000000000000000000000000000 DUP2 MSTORE PUSH1 0x4 ADD PUSH2 0x205C SWAP1 PUSH2 0x35C2 JUMP JUMPDEST PUSH1 0x40 MLOAD DUP1 SWAP2 SUB SWAP1 REVERT JUMPDEST DUP1 PUSH1 0x4 DUP2 SWAP1 SSTORE POP POP JUMP JUMPDEST PUSH0 PUSH1 0x1 PUSH0 SWAP1 SLOAD SWAP1 PUSH2 0x100 EXP SWAP1 DIV PUSH1 0xFF AND ISZERO DUP1 PUSH2 0x20D8 JUMPI POP PUSH0 PUSH20 0xFFFFFFFFFFFFFFFFFFFFFFFFFFFFFFFFFFFFFFFF AND PUSH1 0x1 PUSH1 0x2 SWAP1 SLOAD SWAP1 PUSH2 0x100 EXP SWAP1 DIV PUSH20 0xFFFFFFFFFFFFFFFFFFFFFFFFFFFFFFFFFFFFFFFF AND PUSH20 0xFFFFFFFFFFFFFFFFFFFFFFFFFFFFFFFFFFFFFFFF AND EQ JUMPDEST ISZERO PUSH2 0x20E6 JUMPI PUSH1 0x1 SWAP1 POP PUSH2 0x2305 JUMP JUMPDEST PUSH0 PUSH1 0x4 SLOAD SWAP1 POP PUSH0 PUSH1 0x1 PUSH1 0x2 SWAP1 SLOAD SWAP1 PUSH2 0x100 EXP SWAP1 DIV PUSH20 0xFFFFFFFFFFFFFFFFFFFFFFFFFFFFFFFFFFFFFFFF AND SWAP1 POP PUSH0 PUSH0 PUSH0 DUP4 PUSH20 0xFFFFFFFFFFFFFFFFFFFFFFFFFFFFFFFFFFFFFFFF AND PUSH4 0xC043DECC PUSH1 0x40 MLOAD DUP2 PUSH4 0xFFFFFFFF AND PUSH1 0xE0 SHL DUP2 MSTORE PUSH1 0x4 ADD PUSH1 0x20 PUSH1 0x40 MLOAD DUP1 DUP4 SUB DUP2 DUP7 GAS STATICCALL SWAP3 POP POP POP DUP1 ISZERO PUSH2 0x217D JUMPI POP PUSH1 0x40 MLOAD RETURNDATASIZE PUSH1 0x1F NOT PUSH1 0x1F DUP3 ADD AND DUP3 ADD DUP1 PUSH1 0x40 MSTORE POP DUP2 ADD SWAP1 PUSH2 0x217A SWAP2 SWAP1 PUSH2 0x347D JUMP JUMPDEST PUSH1 0x1 JUMPDEST PUSH2 0x218E JUMPI PUSH0 SWAP6 POP POP POP POP POP POP PUSH2 0x2305 JUMP JUMPDEST DUP1 SWAP4 POP POP DUP4 PUSH20 0xFFFFFFFFFFFFFFFFFFFFFFFFFFFFFFFFFFFFFFFF AND PUSH4 0x6AA393F8 PUSH1 0x40 MLOAD DUP2 PUSH4 0xFFFFFFFF AND PUSH1 0xE0 SHL DUP2 MSTORE PUSH1 0x4 ADD PUSH1 0x20 PUSH1 0x40 MLOAD DUP1 DUP4 SUB DUP2 DUP7 GAS STATICCALL SWAP3 POP POP POP DUP1 ISZERO PUSH2 0x21FA JUMPI POP PUSH1 0x40 MLOAD RETURNDATASIZE PUSH1 0x1F NOT PUSH1 0x1F DUP3 ADD AND DUP3 ADD DUP1 PUSH1 0x40 MSTORE POP DUP2 ADD SWAP1 PUSH2 0x21F7 SWAP2 SWAP1 PUSH2 0x347D JUMP JUMPDEST PUSH1 0x1 JUMPDEST PUSH2 0x220B JUMPI PUSH0 SWAP6 POP POP POP POP POP POP PUSH2 0x2305 JUMP JUMPDEST DUP1 SWAP3 POP POP DUP4 PUSH20 0xFFFFFFFFFFFFFFFFFFFFFFFFFFFFFFFFFFFFFFFF AND PUSH4 0x594DB753 PUSH1 0x40 MLOAD DUP2 PUSH4 0xFFFFFFFF AND PUSH1 0xE0 SHL DUP2 MSTORE PUSH1 0x4 ADD PUSH1 0x20 PUSH1 0x40 MLOAD DUP1 DUP4 SUB DUP2 DUP7 GAS STATICCALL SWAP3 POP POP POP DUP1 ISZERO PUSH2 0x2277 JUMPI POP PUSH1 0x40 MLOAD RETURNDATASIZE PUSH1 0x1F NOT PUSH1 0x1F DUP3 ADD AND DUP3 ADD DUP1 PUSH1 0x40 MSTORE POP DUP2 ADD SWAP1 PUSH2 0x2274 SWAP2 SWAP1 PUSH2 0x347D JUMP JUMPDEST PUSH1 0x1 JUMPDEST PUSH2 0x2288 JUMPI PUSH0 SWAP6 POP POP POP POP POP POP PUSH2 0x2305 JUMP JUMPDEST DUP1 SWAP2 POP POP PUSH0 PUSH2 0x2295 PUSH2 0x2687 JUMP JUMPDEST SWAP1 POP PUSH0 DUP4 PUSH32 0x0 PUSH2 0x22C4 SWAP2 SWAP1 PUSH2 0x2B63 JUMP JUMPDEST DUP6 DUP9 PUSH2 0x22D0 SWAP2 SWAP1 PUSH2 0x2B63 JUMP JUMPDEST EQ SWAP1 POP PUSH0 DUP4 DUP4 PUSH2 0x22E0 SWAP2 SWAP1 PUSH2 0x2B63 JUMP JUMPDEST DUP7 DUP10 PUSH2 0x22EC SWAP2 SWAP1 PUSH2 0x2B63 JUMP JUMPDEST GT ISZERO SWAP1 POP DUP2 DUP1 ISZERO PUSH2 0x22FA JUMPI POP DUP1 JUMPDEST SWAP9 POP POP POP POP POP POP POP POP POP JUMPDEST SWAP1 JUMP JUMPDEST PUSH0 ADDRESS PUSH20 0xFFFFFFFFFFFFFFFFFFFFFFFFFFFFFFFFFFFFFFFF AND PUSH1 0x1 PUSH1 0x2 SWAP1 SLOAD SWAP1 PUSH2 0x100 EXP SWAP1 DIV PUSH20 0xFFFFFFFFFFFFFFFFFFFFFFFFFFFFFFFFFFFFFFFF AND PUSH20 0xFFFFFFFFFFFFFFFFFFFFFFFFFFFFFFFFFFFFFFFF AND EQ ISZERO SWAP1 POP SWAP1 JUMP JUMPDEST PUSH32 0x0 PUSH20 0xFFFFFFFFFFFFFFFFFFFFFFFFFFFFFFFFFFFFFFFF AND CALLER PUSH20 0xFFFFFFFFFFFFFFFFFFFFFFFFFFFFFFFFFFFFFFFF AND EQ PUSH2 0x23EE JUMPI PUSH1 0x40 MLOAD PUSH32 0x8C379A000000000000000000000000000000000000000000000000000000000 DUP2 MSTORE PUSH1 0x4 ADD PUSH2 0x23E5 SWAP1 PUSH2 0x2978 JUMP JUMPDEST PUSH1 0x40 MLOAD DUP1 SWAP2 SUB SWAP1 REVERT JUMPDEST PUSH1 0x1 PUSH0 SWAP1 SLOAD SWAP1 PUSH2 0x100 EXP SWAP1 DIV PUSH1 0xFF AND PUSH2 0x243C JUMPI PUSH1 0x40 MLOAD PUSH32 0x8C379A000000000000000000000000000000000000000000000000000000000 DUP2 MSTORE PUSH1 0x4 ADD PUSH2 0x2433 SWAP1 PUSH2 0x362A JUMP JUMPDEST PUSH1 0x40 MLOAD DUP1 SWAP2 SUB SWAP1 REVERT JUMPDEST PUSH0 PUSH1 0x1 PUSH1 0x2 SWAP1 SLOAD SWAP1 PUSH2 0x100 EXP SWAP1 DIV PUSH20 0xFFFFFFFFFFFFFFFFFFFFFFFFFFFFFFFFFFFFFFFF AND SWAP1 POP PUSH0 PUSH1 0x1 PUSH1 0x2 PUSH2 0x100 EXP DUP2 SLOAD DUP2 PUSH20 0xFFFFFFFFFFFFFFFFFFFFFFFFFFFFFFFFFFFFFFFF MUL NOT AND SWAP1 DUP4 PUSH20 0xFFFFFFFFFFFFFFFFFFFFFFFFFFFFFFFFFFFFFFFF AND MUL OR SWAP1 SSTORE POP PUSH0 PUSH1 0x1 PUSH0 PUSH2 0x100 EXP DUP2 SLOAD DUP2 PUSH1 0xFF MUL NOT AND SWAP1 DUP4 ISZERO ISZERO MUL OR SWAP1 SSTORE POP PUSH2 0x24C4 PUSH2 0x2687 JUMP JUMPDEST PUSH1 0x4 DUP2 SWAP1 SSTORE POP PUSH0 PUSH20 0xFFFFFFFFFFFFFFFFFFFFFFFFFFFFFFFFFFFFFFFF AND DUP2 PUSH20 0xFFFFFFFFFFFFFFFFFFFFFFFFFFFFFFFFFFFFFFFF AND EQ ISZERO DUP1 ISZERO PUSH2 0x251C JUMPI POP PUSH0 DUP2 PUSH20 0xFFFFFFFFFFFFFFFFFFFFFFFFFFFFFFFFFFFFFFFF AND EXTCODESIZE GT JUMPDEST ISZERO PUSH2 0x25C2 JUMPI DUP1 PUSH20 0xFFFFFFFFFFFFFFFFFFFFFFFFFFFFFFFFFFFFFFFF AND PUSH4 0x38FB27BA ADDRESS PUSH1 0x40 MLOAD DUP3 PUSH4 0xFFFFFFFF AND PUSH1 0xE0 SHL DUP2 MSTORE PUSH1 0x4 ADD PUSH2 0x255A SWAP2 SWAP1 PUSH2 0x2716 JUMP JUMPDEST PUSH0 PUSH1 0x40 MLOAD DUP1 DUP4 SUB DUP2 PUSH0 DUP8 DUP1 EXTCODESIZE ISZERO DUP1 ISZERO PUSH2 0x2571 JUMPI PUSH0 PUSH0 REVERT JUMPDEST POP GAS CALL SWAP3 POP POP POP DUP1 ISZERO PUSH2 0x2582 JUMPI POP PUSH1 0x1 JUMPDEST PUSH2 0x25C1 JUMPI PUSH1 0x40 MLOAD PUSH32 0x8C379A000000000000000000000000000000000000000000000000000000000 DUP2 MSTORE PUSH1 0x4 ADD PUSH2 0x25B8 SWAP1 PUSH2 0x3692 JUMP JUMPDEST PUSH1 0x40 MLOAD DUP1 SWAP2 SUB SWAP1 REVERT JUMPDEST JUMPDEST POP JUMP JUMPDEST PUSH0 PUSH1 0x5 SLOAD SWAP1 POP SWAP1 JUMP JUMPDEST PUSH0 PUSH1 0x1 DUP1 SLOAD SWAP1 PUSH2 0x100 EXP SWAP1 DIV PUSH1 0xFF AND SWAP1 POP SWAP1 JUMP JUMPDEST PUSH0 PUSH0 DUP3 PUSH20 0xFFFFFFFFFFFFFFFFFFFFFFFFFFFFFFFFFFFFFFFF AND EXTCODESIZE SUB PUSH2 0x2609 JUMPI PUSH0 SWAP1 POP PUSH2 0x2682 JUMP JUMPDEST DUP2 PUSH20 0xFFFFFFFFFFFFFFFFFFFFFFFFFFFFFFFFFFFFFFFF AND PUSH4 0xF7EC2F35 PUSH1 0x40 MLOAD DUP2 PUSH4 0xFFFFFFFF AND PUSH1 0xE0 SHL DUP2 MSTORE PUSH1 0x4 ADD PUSH1 0x20 PUSH1 0x40 MLOAD DUP1 DUP4 SUB DUP2 DUP7 GAS STATICCALL SWAP3 POP POP POP DUP1 ISZERO PUSH2 0x2671 JUMPI POP PUSH1 0x40 MLOAD RETURNDATASIZE PUSH1 0x1F NOT PUSH1 0x1F DUP3 ADD AND DUP3 ADD DUP1 PUSH1 0x40 MSTORE POP DUP2 ADD SWAP1 PUSH2 0x266E SWAP2 SWAP1 PUSH2 0x28F3 JUMP JUMPDEST PUSH1 0x1 JUMPDEST PUSH2 0x267D JUMPI PUSH0 SWAP1 POP PUSH2 0x2682 JUMP JUMPDEST DUP1 SWAP2 POP POP JUMPDEST SWAP2 SWAP1 POP JUMP JUMPDEST PUSH0 PUSH1 0x41 PUSH0 SLOAD LT PUSH2 0x269B JUMPI PUSH2 0x2328 SWAP1 POP PUSH2 0x26A1 JUMP JUMPDEST PUSH2 0x1388 SWAP1 POP JUMPDEST SWAP1 JUMP JUMPDEST PUSH0 DUP2 ISZERO ISZERO SWAP1 POP SWAP2 SWAP1 POP JUMP JUMPDEST PUSH2 0x26B8 DUP2 PUSH2 0x26A4 JUMP JUMPDEST DUP3 MSTORE POP POP JUMP JUMPDEST PUSH0 PUSH1 0x20 DUP3 ADD SWAP1 POP PUSH2 0x26D1 PUSH0 DUP4 ADD DUP5 PUSH2 0x26AF JUMP JUMPDEST SWAP3 SWAP2 POP POP JUMP JUMPDEST PUSH0 PUSH20 0xFFFFFFFFFFFFFFFFFFFFFFFFFFFFFFFFFFFFFFFF DUP3 AND SWAP1 POP SWAP2 SWAP1 POP JUMP JUMPDEST PUSH0 PUSH2 0x2700 DUP3 PUSH2 0x26D7 JUMP JUMPDEST SWAP1 POP SWAP2 SWAP1 POP JUMP JUMPDEST PUSH2 0x2710 DUP2 PUSH2 0x26F6 JUMP JUMPDEST DUP3 MSTORE POP POP JUMP JUMPDEST PUSH0 PUSH1 0x20 DUP3 ADD SWAP1 POP PUSH2 0x2729 PUSH0 DUP4 ADD DUP5 PUSH2 0x2707 JUMP JUMPDEST SWAP3 SWAP2 POP POP JUMP JUMPDEST PUSH0 PUSH0 REVERT JUMPDEST PUSH2 0x273C DUP2 PUSH2 0x26F6 JUMP JUMPDEST DUP2 EQ PUSH2 0x2746 JUMPI PUSH0 PUSH0 REVERT JUMPDEST POP JUMP JUMPDEST PUSH0 DUP2 CALLDATALOAD SWAP1 POP PUSH2 0x2757 DUP2 PUSH2 0x2733 JUMP JUMPDEST SWAP3 SWAP2 POP POP JUMP JUMPDEST PUSH0 DUP2 SWAP1 POP SWAP2 SWAP1 POP JUMP JUMPDEST PUSH2 0x276F DUP2 PUSH2 0x275D JUMP JUMPDEST DUP2 EQ PUSH2 0x2779 JUMPI PUSH0 PUSH0 REVERT JUMPDEST POP JUMP JUMPDEST PUSH0 DUP2 CALLDATALOAD SWAP1 POP PUSH2 0x278A DUP2 PUSH2 0x2766 JUMP JUMPDEST SWAP3 SWAP2 POP POP JUMP JUMPDEST PUSH0 PUSH0 PUSH1 0x40 DUP4 DUP6 SUB SLT ISZERO PUSH2 0x27A6 JUMPI PUSH2 0x27A5 PUSH2 0x272F JUMP JUMPDEST JUMPDEST PUSH0 PUSH2 0x27B3 DUP6 DUP3 DUP7 ADD PUSH2 0x2749 JUMP JUMPDEST SWAP3 POP POP PUSH1 0x20 PUSH2 0x27C4 DUP6 DUP3 DUP7 ADD PUSH2 0x277C JUMP JUMPDEST SWAP2 POP POP SWAP3 POP SWAP3 SWAP1 POP JUMP JUMPDEST PUSH0 PUSH1 0x20 DUP3 DUP5 SUB SLT ISZERO PUSH2 0x27E3 JUMPI PUSH2 0x27E2 PUSH2 0x272F JUMP JUMPDEST JUMPDEST PUSH0 PUSH2 0x27F0 DUP5 DUP3 DUP6 ADD PUSH2 0x277C JUMP JUMPDEST SWAP2 POP POP SWAP3 SWAP2 POP POP JUMP JUMPDEST PUSH0 PUSH0 PUSH1 0x40 DUP4 DUP6 SUB SLT ISZERO PUSH2 0x280F JUMPI PUSH2 0x280E PUSH2 0x272F JUMP JUMPDEST JUMPDEST PUSH0 PUSH2 0x281C DUP6 DUP3 DUP7 ADD PUSH2 0x277C JUMP JUMPDEST SWAP3 POP POP PUSH1 0x20 PUSH2 0x282D DUP6 DUP3 DUP7 ADD PUSH2 0x2749 JUMP JUMPDEST SWAP2 POP POP SWAP3 POP SWAP3 SWAP1 POP JUMP JUMPDEST PUSH0 PUSH1 0x20 DUP3 DUP5 SUB SLT ISZERO PUSH2 0x284C JUMPI PUSH2 0x284B PUSH2 0x272F JUMP JUMPDEST JUMPDEST PUSH0 PUSH2 0x2859 DUP5 DUP3 DUP6 ADD PUSH2 0x2749 JUMP JUMPDEST SWAP2 POP POP SWAP3 SWAP2 POP POP JUMP JUMPDEST PUSH2 0x286B DUP2 PUSH2 0x275D JUMP JUMPDEST DUP3 MSTORE POP POP JUMP JUMPDEST PUSH0 PUSH1 0x20 DUP3 ADD SWAP1 POP PUSH2 0x2884 PUSH0 DUP4 ADD DUP5 PUSH2 0x2862 JUMP JUMPDEST SWAP3 SWAP2 POP POP JUMP JUMPDEST PUSH0 DUP2 MLOAD SWAP1 POP PUSH2 0x2898 DUP2 PUSH2 0x2733 JUMP JUMPDEST SWAP3 SWAP2 POP POP JUMP JUMPDEST PUSH0 PUSH1 0x20 DUP3 DUP5 SUB SLT ISZERO PUSH2 0x28B3 JUMPI PUSH2 0x28B2 PUSH2 0x272F JUMP JUMPDEST JUMPDEST PUSH0 PUSH2 0x28C0 DUP5 DUP3 DUP6 ADD PUSH2 0x288A JUMP JUMPDEST SWAP2 POP POP SWAP3 SWAP2 POP POP JUMP JUMPDEST PUSH2 0x28D2 DUP2 PUSH2 0x26A4 JUMP JUMPDEST DUP2 EQ PUSH2 0x28DC JUMPI PUSH0 PUSH0 REVERT JUMPDEST POP JUMP JUMPDEST PUSH0 DUP2 MLOAD SWAP1 POP PUSH2 0x28ED DUP2 PUSH2 0x28C9 JUMP JUMPDEST SWAP3 SWAP2 POP POP JUMP JUMPDEST PUSH0 PUSH1 0x20 DUP3 DUP5 SUB SLT ISZERO PUSH2 0x2908 JUMPI PUSH2 0x2907 PUSH2 0x272F JUMP JUMPDEST JUMPDEST PUSH0 PUSH2 0x2915 DUP5 DUP3 DUP6 ADD PUSH2 0x28DF JUMP JUMPDEST SWAP2 POP POP SWAP3 SWAP2 POP POP JUMP JUMPDEST PUSH0 DUP3 DUP3 MSTORE PUSH1 0x20 DUP3 ADD SWAP1 POP SWAP3 SWAP2 POP POP JUMP JUMPDEST PUSH32 0x4F6E6C79206F776E657200000000000000000000000000000000000000000000 PUSH0 DUP3 ADD MSTORE POP JUMP JUMPDEST PUSH0 PUSH2 0x2962 PUSH1 0xA DUP4 PUSH2 0x291E JUMP JUMPDEST SWAP2 POP PUSH2 0x296D DUP3 PUSH2 0x292E JUMP JUMPDEST PUSH1 0x20 DUP3 ADD SWAP1 POP SWAP2 SWAP1 POP JUMP JUMPDEST PUSH0 PUSH1 0x20 DUP3 ADD SWAP1 POP DUP2 DUP2 SUB PUSH0 DUP4 ADD MSTORE PUSH2 0x298F DUP2 PUSH2 0x2956 JUMP JUMPDEST SWAP1 POP SWAP2 SWAP1 POP JUMP JUMPDEST PUSH32 0x496E76616C6964206C6F74746572727900000000000000000000000000000000 PUSH0 DUP3 ADD MSTORE POP JUMP JUMPDEST PUSH0 PUSH2 0x29CA PUSH1 0x10 DUP4 PUSH2 0x291E JUMP JUMPDEST SWAP2 POP PUSH2 0x29D5 DUP3 PUSH2 0x2996 JUMP JUMPDEST PUSH1 0x20 DUP3 ADD SWAP1 POP SWAP2 SWAP1 POP JUMP JUMPDEST PUSH0 PUSH1 0x20 DUP3 ADD SWAP1 POP DUP2 DUP2 SUB PUSH0 DUP4 ADD MSTORE PUSH2 0x29F7 DUP2 PUSH2 0x29BE JUMP JUMPDEST SWAP1 POP SWAP2 SWAP1 POP JUMP JUMPDEST PUSH32 0x4E6F20636F6D6D69747465642072657665616C00000000000000000000000000 PUSH0 DUP3 ADD MSTORE POP JUMP JUMPDEST PUSH0 PUSH2 0x2A32 PUSH1 0x13 DUP4 PUSH2 0x291E JUMP JUMPDEST SWAP2 POP PUSH2 0x2A3D DUP3 PUSH2 0x29FE JUMP JUMPDEST PUSH1 0x20 DUP3 ADD SWAP1 POP SWAP2 SWAP1 POP JUMP JUMPDEST PUSH0 PUSH1 0x20 DUP3 ADD SWAP1 POP DUP2 DUP2 SUB PUSH0 DUP4 ADD MSTORE PUSH2 0x2A5F DUP2 PUSH2 0x2A26 JUMP JUMPDEST SWAP1 POP SWAP2 SWAP1 POP JUMP JUMPDEST PUSH32 0x4C6F74746572792072657665616C206661696C65640000000000000000000000 PUSH0 DUP3 ADD MSTORE POP JUMP JUMPDEST PUSH0 PUSH2 0x2A9A PUSH1 0x15 DUP4 PUSH2 0x291E JUMP JUMPDEST SWAP2 POP PUSH2 0x2AA5 DUP3 PUSH2 0x2A66 JUMP JUMPDEST PUSH1 0x20 DUP3 ADD SWAP1 POP SWAP2 SWAP1 POP JUMP JUMPDEST PUSH0 PUSH1 0x20 DUP3 ADD SWAP1 POP DUP2 DUP2 SUB PUSH0 DUP4 ADD MSTORE PUSH2 0x2AC7 DUP2 PUSH2 0x2A8E JUMP JUMPDEST SWAP1 POP SWAP2 SWAP1 POP JUMP JUMPDEST PUSH32 0x4E6F7420617574686F72697A656420746F2073657420616C6C6F77616E636500 PUSH0 DUP3 ADD MSTORE POP JUMP JUMPDEST PUSH0 PUSH2 0x2B02 PUSH1 0x1F DUP4 PUSH2 0x291E JUMP JUMPDEST SWAP2 POP PUSH2 0x2B0D DUP3 PUSH2 0x2ACE JUMP JUMPDEST PUSH1 0x20 DUP3 ADD SWAP1 POP SWAP2 SWAP1 POP JUMP JUMPDEST PUSH0 PUSH1 0x20 DUP3 ADD SWAP1 POP DUP2 DUP2 SUB PUSH0 DUP4 ADD MSTORE PUSH2 0x2B2F DUP2 PUSH2 0x2AF6 JUMP JUMPDEST SWAP1 POP SWAP2 SWAP1 POP JUMP JUMPDEST PUSH32 0x4E487B7100000000000000000000000000000000000000000000000000000000 PUSH0 MSTORE PUSH1 0x11 PUSH1 0x4 MSTORE PUSH1 0x24 PUSH0 REVERT JUMPDEST PUSH0 PUSH2 0x2B6D DUP3 PUSH2 0x275D JUMP JUMPDEST SWAP2 POP PUSH2 0x2B78 DUP4 PUSH2 0x275D JUMP JUMPDEST SWAP3 POP DUP3 DUP3 ADD SWAP1 POP DUP1 DUP3 GT ISZERO PUSH2 0x2B90 JUMPI PUSH2 0x2B8F PUSH2 0x2B36 JUMP JUMPDEST JUMPDEST SWAP3 SWAP2 POP POP JUMP JUMPDEST PUSH32 0x43616C6C6572206D757374206265206120636F6E747261637400000000000000 PUSH0 DUP3 ADD MSTORE POP JUMP JUMPDEST PUSH0 PUSH2 0x2BCA PUSH1 0x19 DUP4 PUSH2 0x291E JUMP JUMPDEST SWAP2 POP PUSH2 0x2BD5 DUP3 PUSH2 0x2B96 JUMP JUMPDEST PUSH1 0x20 DUP3 ADD SWAP1 POP SWAP2 SWAP1 POP JUMP JUMPDEST PUSH0 PUSH1 0x20 DUP3 ADD SWAP1 POP DUP2 DUP2 SUB PUSH0 DUP4 ADD MSTORE PUSH2 0x2BF7 DUP2 PUSH2 0x2BBE JUMP JUMPDEST SWAP1 POP SWAP2 SWAP1 POP JUMP JUMPDEST PUSH32 0x46726F6D206D75737420626520657175616C2063616C6C657220666F72203372 PUSH0 DUP3 ADD MSTORE PUSH32 0x642D706172747920636F6E747261637400000000000000000000000000000000 PUSH1 0x20 DUP3 ADD MSTORE POP JUMP JUMPDEST PUSH0 PUSH2 0x2C58 PUSH1 0x30 DUP4 PUSH2 0x291E JUMP JUMPDEST SWAP2 POP PUSH2 0x2C63 DUP3 PUSH2 0x2BFE JUMP JUMPDEST PUSH1 0x40 DUP3 ADD SWAP1 POP SWAP2 SWAP1 POP JUMP JUMPDEST PUSH0 PUSH1 0x20 DUP3 ADD SWAP1 POP DUP2 DUP2 SUB PUSH0 DUP4 ADD MSTORE PUSH2 0x2C85 DUP2 PUSH2 0x2C4C JUMP JUMPDEST SWAP1 POP SWAP2 SWAP1 POP JUMP JUMPDEST PUSH32 0x43616C6C6572206E6F7420617574686F72697A65640000000000000000000000 PUSH0 DUP3 ADD MSTORE POP JUMP JUMPDEST PUSH0 PUSH2 0x2CC0 PUSH1 0x15 DUP4 PUSH2 0x291E JUMP JUMPDEST SWAP2 POP PUSH2 0x2CCB DUP3 PUSH2 0x2C8C JUMP JUMPDEST PUSH1 0x20 DUP3 ADD SWAP1 POP SWAP2 SWAP1 POP JUMP JUMPDEST PUSH0 PUSH1 0x20 DUP3 ADD SWAP1 POP DUP2 DUP2 SUB PUSH0 DUP4 ADD MSTORE PUSH2 0x2CED DUP2 PUSH2 0x2CB4 JUMP JUMPDEST SWAP1 POP SWAP2 SWAP1 POP JUMP JUMPDEST PUSH0 PUSH2 0x2CFE DUP3 PUSH2 0x275D JUMP JUMPDEST SWAP2 POP PUSH32 0xFFFFFFFFFFFFFFFFFFFFFFFFFFFFFFFFFFFFFFFFFFFFFFFFFFFFFFFFFFFFFFFF DUP3 SUB PUSH2 0x2D30 JUMPI PUSH2 0x2D2F PUSH2 0x2B36 JUMP JUMPDEST JUMPDEST PUSH1 0x1 DUP3 ADD SWAP1 POP SWAP2 SWAP1 POP JUMP JUMPDEST PUSH32 0x4F6E6C7920706172746E65722063616E206E6F74696679000000000000000000 PUSH0 DUP3 ADD MSTORE POP JUMP JUMPDEST PUSH0 PUSH2 0x2D6F PUSH1 0x17 DUP4 PUSH2 0x291E JUMP JUMPDEST SWAP2 POP PUSH2 0x2D7A DUP3 PUSH2 0x2D3B JUMP JUMPDEST PUSH1 0x20 DUP3 ADD SWAP1 POP SWAP2 SWAP1 POP JUMP JUMPDEST PUSH0 PUSH1 0x20 DUP3 ADD SWAP1 POP DUP2 DUP2 SUB PUSH0 DUP4 ADD MSTORE PUSH2 0x2D9C DUP2 PUSH2 0x2D63 JUMP JUMPDEST SWAP1 POP SWAP2 SWAP1 POP JUMP JUMPDEST PUSH0 PUSH2 0x2DAD DUP3 PUSH2 0x275D JUMP JUMPDEST SWAP2 POP PUSH2 0x2DB8 DUP4 PUSH2 0x275D JUMP JUMPDEST SWAP3 POP DUP3 DUP3 SUB SWAP1 POP DUP2 DUP2 GT ISZERO PUSH2 0x2DD0 JUMPI PUSH2 0x2DCF PUSH2 0x2B36 JUMP JUMPDEST JUMPDEST SWAP3 SWAP2 POP POP JUMP JUMPDEST PUSH0 PUSH2 0x2DE0 DUP3 PUSH2 0x275D JUMP JUMPDEST SWAP2 POP PUSH2 0x2DEB DUP4 PUSH2 0x275D JUMP JUMPDEST SWAP3 POP DUP3 DUP3 MUL PUSH2 0x2DF9 DUP2 PUSH2 0x275D JUMP JUMPDEST SWAP2 POP DUP3 DUP3 DIV DUP5 EQ DUP4 ISZERO OR PUSH2 0x2E10 JUMPI PUSH2 0x2E0F PUSH2 0x2B36 JUMP JUMPDEST JUMPDEST POP SWAP3 SWAP2 POP POP JUMP JUMPDEST PUSH32 0x4E487B7100000000000000000000000000000000000000000000000000000000 PUSH0 MSTORE PUSH1 0x12 PUSH1 0x4 MSTORE PUSH1 0x24 PUSH0 REVERT JUMPDEST PUSH0 PUSH2 0x2E4E DUP3 PUSH2 0x275D JUMP JUMPDEST SWAP2 POP PUSH2 0x2E59 DUP4 PUSH2 0x275D JUMP JUMPDEST SWAP3 POP DUP3 PUSH2 0x2E69 JUMPI PUSH2 0x2E68 PUSH2 0x2E17 JUMP JUMPDEST JUMPDEST DUP3 DUP3 DIV SWAP1 POP SWAP3 SWAP2 POP POP JUMP JUMPDEST PUSH32 0x496E76616C6964206C6F74746572790000000000000000000000000000000000 PUSH0 DUP3 ADD MSTORE POP JUMP JUMPDEST PUSH0 PUSH2 0x2EA8 PUSH1 0xF DUP4 PUSH2 0x291E JUMP JUMPDEST SWAP2 POP PUSH2 0x2EB3 DUP3 PUSH2 0x2E74 JUMP JUMPDEST PUSH1 0x20 DUP3 ADD SWAP1 POP SWAP2 SWAP1 POP JUMP JUMPDEST PUSH0 PUSH1 0x20 DUP3 ADD SWAP1 POP DUP2 DUP2 SUB PUSH0 DUP4 ADD MSTORE PUSH2 0x2ED5 DUP2 PUSH2 0x2E9C JUMP JUMPDEST SWAP1 POP SWAP2 SWAP1 POP JUMP JUMPDEST PUSH0 DUP2 SWAP1 POP SWAP2 SWAP1 POP JUMP JUMPDEST PUSH2 0x2EEE DUP2 PUSH2 0x2EDC JUMP JUMPDEST DUP3 MSTORE POP POP JUMP JUMPDEST PUSH0 PUSH1 0x20 DUP3 ADD SWAP1 POP PUSH2 0x2F07 PUSH0 DUP4 ADD DUP5 PUSH2 0x2EE5 JUMP JUMPDEST SWAP3 SWAP2 POP POP JUMP JUMPDEST PUSH32 0x4C6F747465727920636F6D6D6974206661696C65640000000000000000000000 PUSH0 DUP3 ADD MSTORE POP JUMP JUMPDEST PUSH0 PUSH2 0x2F41 PUSH1 0x15 DUP4 PUSH2 0x291E JUMP JUMPDEST SWAP2 POP PUSH2 0x2F4C DUP3 PUSH2 0x2F0D JUMP JUMPDEST PUSH1 0x20 DUP3 ADD SWAP1 POP SWAP2 SWAP1 POP JUMP JUMPDEST PUSH0 PUSH1 0x20 DUP3 ADD SWAP1 POP DUP2 DUP2 SUB PUSH0 DUP4 ADD MSTORE PUSH2 0x2F6E DUP2 PUSH2 0x2F35 JUMP JUMPDEST SWAP1 POP SWAP2 SWAP1 POP JUMP JUMPDEST PUSH32 0x4E6F2073706F7573650000000000000000000000000000000000000000000000 PUSH0 DUP3 ADD MSTORE POP JUMP JUMPDEST PUSH0 PUSH2 0x2FA9 PUSH1 0x9 DUP4 PUSH2 0x291E JUMP JUMPDEST SWAP2 POP PUSH2 0x2FB4 DUP3 PUSH2 0x2F75 JUMP JUMPDEST PUSH1 0x20 DUP3 ADD SWAP1 POP SWAP2 SWAP1 POP JUMP JUMPDEST PUSH0 PUSH1 0x20 DUP3 ADD SWAP1 POP DUP2 DUP2 SUB PUSH0 DUP4 ADD MSTORE PUSH2 0x2FD6 DUP2 PUSH2 0x2F9D JUMP JUMPDEST SWAP1 POP SWAP2 SWAP1 POP JUMP JUMPDEST PUSH32 0x5A65726F206368616E6765000000000000000000000000000000000000000000 PUSH0 DUP3 ADD MSTORE POP JUMP JUMPDEST PUSH0 PUSH2 0x3011 PUSH1 0xB DUP4 PUSH2 0x291E JUMP JUMPDEST SWAP2 POP PUSH2 0x301C DUP3 PUSH2 0x2FDD JUMP JUMPDEST PUSH1 0x20 DUP3 ADD SWAP1 POP SWAP2 SWAP1 POP JUMP JUMPDEST PUSH0 PUSH1 0x20 DUP3 ADD SWAP1 POP DUP2 DUP2 SUB PUSH0 DUP4 ADD MSTORE PUSH2 0x303E DUP2 PUSH2 0x3005 JUMP JUMPDEST SWAP1 POP SWAP2 SWAP1 POP JUMP JUMPDEST PUSH32 0x4E6F7420656E6F75676820616C6C6F77616E6365000000000000000000000000 PUSH0 DUP3 ADD MSTORE POP JUMP JUMPDEST PUSH0 PUSH2 0x3079 PUSH1 0x14 DUP4 PUSH2 0x291E JUMP JUMPDEST SWAP2 POP PUSH2 0x3084 DUP3 PUSH2 0x3045 JUMP JUMPDEST PUSH1 0x20 DUP3 ADD SWAP1 POP SWAP2 SWAP1 POP JUMP JUMPDEST PUSH0 PUSH1 0x20 DUP3 ADD SWAP1 POP DUP2 DUP2 SUB PUSH0 DUP4 ADD MSTORE PUSH2 0x30A6 DUP2 PUSH2 0x306D JUMP JUMPDEST SWAP1 POP SWAP2 SWAP1 POP JUMP JUMPDEST PUSH0 PUSH1 0x40 DUP3 ADD SWAP1 POP PUSH2 0x30C0 PUSH0 DUP4 ADD DUP6 PUSH2 0x2862 JUMP JUMPDEST PUSH2 0x30CD PUSH1 0x20 DUP4 ADD DUP5 PUSH2 0x2707 JUMP JUMPDEST SWAP4 SWAP3 POP POP POP JUMP JUMPDEST PUSH32 0x4661696C656420746F207472616E736665722073706F75736500000000000000 PUSH0 DUP3 ADD MSTORE POP JUMP JUMPDEST PUSH0 PUSH2 0x3108 PUSH1 0x19 DUP4 PUSH2 0x291E JUMP JUMPDEST SWAP2 POP PUSH2 0x3113 DUP3 PUSH2 0x30D4 JUMP JUMPDEST PUSH1 0x20 DUP3 ADD SWAP1 POP SWAP2 SWAP1 POP JUMP JUMPDEST PUSH0 PUSH1 0x20 DUP3 ADD SWAP1 POP DUP2 DUP2 SUB PUSH0 DUP4 ADD MSTORE PUSH2 0x3135 DUP2 PUSH2 0x30FC JUMP JUMPDEST SWAP1 POP SWAP2 SWAP1 POP JUMP JUMPDEST PUSH2 0x3145 DUP2 PUSH2 0x2EDC JUMP JUMPDEST DUP2 EQ PUSH2 0x314F JUMPI PUSH0 PUSH0 REVERT JUMPDEST POP JUMP JUMPDEST PUSH0 DUP2 MLOAD SWAP1 POP PUSH2 0x3160 DUP2 PUSH2 0x313C JUMP JUMPDEST SWAP3 SWAP2 POP POP JUMP JUMPDEST PUSH0 PUSH1 0x20 DUP3 DUP5 SUB SLT ISZERO PUSH2 0x317B JUMPI PUSH2 0x317A PUSH2 0x272F JUMP JUMPDEST JUMPDEST PUSH0 PUSH2 0x3188 DUP5 DUP3 DUP6 ADD PUSH2 0x3152 JUMP JUMPDEST SWAP2 POP POP SWAP3 SWAP2 POP POP JUMP JUMPDEST PUSH32 0x4920616D20616C7265616479206D617272696564000000000000000000000000 PUSH0 DUP3 ADD MSTORE POP JUMP JUMPDEST PUSH0 PUSH2 0x31C5 PUSH1 0x14 DUP4 PUSH2 0x291E JUMP JUMPDEST SWAP2 POP PUSH2 0x31D0 DUP3 PUSH2 0x3191 JUMP JUMPDEST PUSH1 0x20 DUP3 ADD SWAP1 POP SWAP2 SWAP1 POP JUMP JUMPDEST PUSH0 PUSH1 0x20 DUP3 ADD SWAP1 POP DUP2 DUP2 SUB PUSH0 DUP4 ADD MSTORE PUSH2 0x31F2 DUP2 PUSH2 0x31B9 JUMP JUMPDEST SWAP1 POP SWAP2 SWAP1 POP JUMP JUMPDEST PUSH32 0x53706F7573652063616E6E6F74206265207A65726F2061646472657373000000 PUSH0 DUP3 ADD MSTORE POP JUMP JUMPDEST PUSH0 PUSH2 0x322D PUSH1 0x1D DUP4 PUSH2 0x291E JUMP JUMPDEST SWAP2 POP PUSH2 0x3238 DUP3 PUSH2 0x31F9 JUMP JUMPDEST PUSH1 0x20 DUP3 ADD SWAP1 POP SWAP2 SWAP1 POP JUMP JUMPDEST PUSH0 PUSH1 0x20 DUP3 ADD SWAP1 POP DUP2 DUP2 SUB PUSH0 DUP4 ADD MSTORE PUSH2 0x325A DUP2 PUSH2 0x3221 JUMP JUMPDEST SWAP1 POP SWAP2 SWAP1 POP JUMP JUMPDEST PUSH32 0x43616E6E6F74206D61727279206D7973656C6600000000000000000000000000 PUSH0 DUP3 ADD MSTORE POP JUMP JUMPDEST PUSH0 PUSH2 0x3295 PUSH1 0x13 DUP4 PUSH2 0x291E JUMP JUMPDEST SWAP2 POP PUSH2 0x32A0 DUP3 PUSH2 0x3261 JUMP JUMPDEST PUSH1 0x20 DUP3 ADD SWAP1 POP SWAP2 SWAP1 POP JUMP JUMPDEST PUSH0 PUSH1 0x20 DUP3 ADD SWAP1 POP DUP2 DUP2 SUB PUSH0 DUP4 ADD MSTORE PUSH2 0x32C2 DUP2 PUSH2 0x3289 JUMP JUMPDEST SWAP1 POP SWAP2 SWAP1 POP JUMP JUMPDEST PUSH32 0x53706F757365206D757374206265206120636F6E747261637400000000000000 PUSH0 DUP3 ADD MSTORE POP JUMP JUMPDEST PUSH0 PUSH2 0x32FD PUSH1 0x19 DUP4 PUSH2 0x291E JUMP JUMPDEST SWAP2 POP PUSH2 0x3308 DUP3 PUSH2 0x32C9 JUMP JUMPDEST PUSH1 0x20 DUP3 ADD SWAP1 POP SWAP2 SWAP1 POP JUMP JUMPDEST PUSH0 PUSH1 0x20 DUP3 ADD SWAP1 POP DUP2 DUP2 SUB PUSH0 DUP4 ADD MSTORE PUSH2 0x332A DUP2 PUSH2 0x32F1 JUMP JUMPDEST SWAP1 POP SWAP2 SWAP1 POP JUMP JUMPDEST PUSH32 0x53706F757365206E6F7420636F6D70617469626C650000000000000000000000 PUSH0 DUP3 ADD MSTORE POP JUMP JUMPDEST PUSH0 PUSH2 0x3365 PUSH1 0x15 DUP4 PUSH2 0x291E JUMP JUMPDEST SWAP2 POP PUSH2 0x3370 DUP3 PUSH2 0x3331 JUMP JUMPDEST PUSH1 0x20 DUP3 ADD SWAP1 POP SWAP2 SWAP1 POP JUMP JUMPDEST PUSH0 PUSH1 0x20 DUP3 ADD SWAP1 POP DUP2 DUP2 SUB PUSH0 DUP4 ADD MSTORE PUSH2 0x3392 DUP2 PUSH2 0x3359 JUMP JUMPDEST SWAP1 POP SWAP2 SWAP1 POP JUMP JUMPDEST PUSH32 0x53706F75736520616C7265616479206D61727269656400000000000000000000 PUSH0 DUP3 ADD MSTORE POP JUMP JUMPDEST PUSH0 PUSH2 0x33CD PUSH1 0x16 DUP4 PUSH2 0x291E JUMP JUMPDEST SWAP2 POP PUSH2 0x33D8 DUP3 PUSH2 0x3399 JUMP JUMPDEST PUSH1 0x20 DUP3 ADD SWAP1 POP SWAP2 SWAP1 POP JUMP JUMPDEST PUSH0 PUSH1 0x20 DUP3 ADD SWAP1 POP DUP2 DUP2 SUB PUSH0 DUP4 ADD MSTORE PUSH2 0x33FA DUP2 PUSH2 0x33C1 JUMP JUMPDEST SWAP1 POP SWAP2 SWAP1 POP JUMP JUMPDEST PUSH32 0x4661696C656420746F2075706461746520706172746E65720000000000000000 PUSH0 DUP3 ADD MSTORE POP JUMP JUMPDEST PUSH0 PUSH2 0x3435 PUSH1 0x18 DUP4 PUSH2 0x291E JUMP JUMPDEST SWAP2 POP PUSH2 0x3440 DUP3 PUSH2 0x3401 JUMP JUMPDEST PUSH1 0x20 DUP3 ADD SWAP1 POP SWAP2 SWAP1 POP JUMP JUMPDEST PUSH0 PUSH1 0x20 DUP3 ADD SWAP1 POP DUP2 DUP2 SUB PUSH0 DUP4 ADD MSTORE PUSH2 0x3462 DUP2 PUSH2 0x3429 JUMP JUMPDEST SWAP1 POP SWAP2 SWAP1 POP JUMP JUMPDEST PUSH0 DUP2 MLOAD SWAP1 POP PUSH2 0x3477 DUP2 PUSH2 0x2766 JUMP JUMPDEST SWAP3 SWAP2 POP POP JUMP JUMPDEST PUSH0 PUSH1 0x20 DUP3 DUP5 SUB SLT ISZERO PUSH2 0x3492 JUMPI PUSH2 0x3491 PUSH2 0x272F JUMP JUMPDEST JUMPDEST PUSH0 PUSH2 0x349F DUP5 DUP3 DUP6 ADD PUSH2 0x3469 JUMP JUMPDEST SWAP2 POP POP SWAP3 SWAP2 POP POP JUMP JUMPDEST PUSH32 0x4661696C656420746F2073657420706172746E657220616C6C6F77616E636500 PUSH0 DUP3 ADD MSTORE POP JUMP JUMPDEST PUSH0 PUSH2 0x34DC PUSH1 0x1F DUP4 PUSH2 0x291E JUMP JUMPDEST SWAP2 POP PUSH2 0x34E7 DUP3 PUSH2 0x34A8 JUMP JUMPDEST PUSH1 0x20 DUP3 ADD SWAP1 POP SWAP2 SWAP1 POP JUMP JUMPDEST PUSH0 PUSH1 0x20 DUP3 ADD SWAP1 POP DUP2 DUP2 SUB PUSH0 DUP4 ADD MSTORE PUSH2 0x3509 DUP2 PUSH2 0x34D0 JUMP JUMPDEST SWAP1 POP SWAP2 SWAP1 POP JUMP JUMPDEST PUSH32 0x4F6E6C7920706172746E65722063616E2063616C6C2074686973000000000000 PUSH0 DUP3 ADD MSTORE POP JUMP JUMPDEST PUSH0 PUSH2 0x3544 PUSH1 0x1A DUP4 PUSH2 0x291E JUMP JUMPDEST SWAP2 POP PUSH2 0x354F DUP3 PUSH2 0x3510 JUMP JUMPDEST PUSH1 0x20 DUP3 ADD SWAP1 POP SWAP2 SWAP1 POP JUMP JUMPDEST PUSH0 PUSH1 0x20 DUP3 ADD SWAP1 POP DUP2 DUP2 SUB PUSH0 DUP4 ADD MSTORE PUSH2 0x3571 DUP2 PUSH2 0x3538 JUMP JUMPDEST SWAP1 POP SWAP2 SWAP1 POP JUMP JUMPDEST PUSH32 0x4F6E6C792073706F7573652063616E2073657400000000000000000000000000 PUSH0 DUP3 ADD MSTORE POP JUMP JUMPDEST PUSH0 PUSH2 0x35AC PUSH1 0x13 DUP4 PUSH2 0x291E JUMP JUMPDEST SWAP2 POP PUSH2 0x35B7 DUP3 PUSH2 0x3578 JUMP JUMPDEST PUSH1 0x20 DUP3 ADD SWAP1 POP SWAP2 SWAP1 POP JUMP JUMPDEST PUSH0 PUSH1 0x20 DUP3 ADD SWAP1 POP DUP2 DUP2 SUB PUSH0 DUP4 ADD MSTORE PUSH2 0x35D9 DUP2 PUSH2 0x35A0 JUMP JUMPDEST SWAP1 POP SWAP2 SWAP1 POP JUMP JUMPDEST PUSH32 0x4E6F74206D617272696564000000000000000000000000000000000000000000 PUSH0 DUP3 ADD MSTORE POP JUMP JUMPDEST PUSH0 PUSH2 0x3614 PUSH1 0xB DUP4 PUSH2 0x291E JUMP JUMPDEST SWAP2 POP PUSH2 0x361F DUP3 PUSH2 0x35E0 JUMP JUMPDEST PUSH1 0x20 DUP3 ADD SWAP1 POP SWAP2 SWAP1 POP JUMP JUMPDEST PUSH0 PUSH1 0x20 DUP3 ADD SWAP1 POP DUP2 DUP2 SUB PUSH0 DUP4 ADD MSTORE PUSH2 0x3641 DUP2 PUSH2 0x3608 JUMP JUMPDEST SWAP1 POP SWAP2 SWAP1 POP JUMP JUMPDEST PUSH32 0x4661696C656420746F206E6F7469667920706172746E65720000000000000000 PUSH0 DUP3 ADD MSTORE POP JUMP JUMPDEST PUSH0 PUSH2 0x367C PUSH1 0x18 DUP4 PUSH2 0x291E JUMP JUMPDEST SWAP2 POP PUSH2 0x3687 DUP3 PUSH2 0x3648 JUMP JUMPDEST PUSH1 0x20 DUP3 ADD SWAP1 POP SWAP2 SWAP1 POP JUMP JUMPDEST PUSH0 PUSH1 0x20 DUP3 ADD SWAP1 POP DUP2 DUP2 SUB PUSH0 DUP4 ADD MSTORE PUSH2 0x36A9 DUP2 PUSH2 0x3670 JUMP JUMPDEST SWAP1 POP SWAP2 SWAP1 POP JUMP INVALID LOG2 PUSH5 0x6970667358 0x22 SLT KECCAK256 0xE2 0xAD 0xDF PUSH6 0xD086D783DA97 0xBC 0xB0 PUSH24 0x61CA8FB6C849DFBF7D0CEFB39380E3CF6E331264736F6C63 NUMBER STOP ADDMOD 0x1E STOP CALLER "
				},
				"gasEstimates": {
					"creation": {
						"codeDepositCost": "2810800",
						"executionCost": "infinite",
						"totalCost": "infinite"
					},
					"external": {
						"calculateTax(uint256)": "infinite",
						"committed()": "2578",
						"divorce()": "infinite",
						"echidna_age_allowance_base_consistency_single()": "9062",
						"echidna_commit_consistency(address)": "infinite",
						"echidna_iscontract_is_true()": "2588",
						"echidna_marriage_consistency()": "infinite",
						"echidna_mutual_marriage_and_flags()": "infinite",
						"echidna_no_tax_below_allowance()": "infinite",
						"echidna_not_self_spouse()": "2610",
						"echidna_rev_reset_after_reveal()": "4701",
						"echidna_spousal_allowance_sum_constant()": "infinite",
						"echidna_taxable_non_negative()": "infinite",
						"getAge()": "2521",
						"getDefaultAllowance()": "2544",
						"getIncome()": "2542",
						"getInitialTaxAllowance()": "infinite",
						"getIsMarried()": "2519",
						"getSpouse()": "2635",
						"getTaxAllowance()": "2565",
						"haveBirthday()": "infinite",
						"isContract()": "2653",
						"joinLottery(address,uint256)": "infinite",
						"marry(address)": "infinite",
						"notifyDivorceFromPartner(address)": "73479",
						"owner()": "infinite",
						"receiveAllowance(uint256,address)": "infinite",
						"rev()": "2514",
						"revealLottery(address,uint256)": "infinite",
						"setIncome(uint256)": "infinite",
						"setSpouse(address)": "24878",
						"setTaxAllowance(uint256)": "infinite",
						"setTaxAllowanceBySpouse(uint256)": "24846",
						"taxableIncome()": "infinite",
						"transferAllowance(uint256)": "infinite",
						"updateMarriageFromPartner(address)": "49162"
					},
					"internal": {
						"determineDefaultAllowance()": "2155",
						"isAuthorizedContract(address)": "infinite"
					}
				},
				"methodIdentifiers": {
					"calculateTax(uint256)": "483a9310",
					"committed()": "9b6b9664",
					"divorce()": "dff44b2f",
					"echidna_age_allowance_base_consistency_single()": "ae81f068",
					"echidna_commit_consistency(address)": "790aa8de",
					"echidna_iscontract_is_true()": "5976d63b",
					"echidna_marriage_consistency()": "27a80e0d",
					"echidna_mutual_marriage_and_flags()": "10731c65",
					"echidna_no_tax_below_allowance()": "a2f1309e",
					"echidna_not_self_spouse()": "dfb986a2",
					"echidna_rev_reset_after_reveal()": "ccda832a",
					"echidna_spousal_allowance_sum_constant()": "d852545e",
					"echidna_taxable_non_negative()": "c800409f",
					"getAge()": "967e6e65",
					"getDefaultAllowance()": "594db753",
					"getIncome()": "f247e3de",
					"getInitialTaxAllowance()": "6aa393f8",
					"getIsMarried()": "8bc87745",
					"getSpouse()": "108ece4d",
					"getTaxAllowance()": "c043decc",
					"haveBirthday()": "37f65b79",
					"isContract()": "f7ec2f35",
					"joinLottery(address,uint256)": "4ad8a7ae",
					"marry(address)": "bccb358e",
					"notifyDivorceFromPartner(address)": "38fb27ba",
					"owner()": "8da5cb5b",
					"receiveAllowance(uint256,address)": "308f838a",
					"rev()": "aeee48c0",
					"revealLottery(address,uint256)": "13461762",
					"setIncome(uint256)": "14b95631",
					"setSpouse(address)": "4f0b03f9",
					"setTaxAllowance(uint256)": "25803d64",
					"setTaxAllowanceBySpouse(uint256)": "d25d32b6",
					"taxableIncome()": "3c876c25",
					"transferAllowance(uint256)": "5f68c439",
					"updateMarriageFromPartner(address)": "cb01a92b"
				}
			},
			"storageLayout": {
				"storage": [
					{
						"astId": 255,
						"contract": "Taxpayer.sol:Taxpayer",
						"label": "age",
						"offset": 0,
						"slot": "0",
						"type": "t_uint256"
					},
					{
						"astId": 257,
						"contract": "Taxpayer.sol:Taxpayer",
						"label": "isMarried",
						"offset": 0,
						"slot": "1",
						"type": "t_bool"
					},
					{
						"astId": 259,
						"contract": "Taxpayer.sol:Taxpayer",
						"label": "iscontract",
						"offset": 1,
						"slot": "1",
						"type": "t_bool"
					},
					{
						"astId": 261,
						"contract": "Taxpayer.sol:Taxpayer",
						"label": "spouse",
						"offset": 2,
						"slot": "1",
						"type": "t_address"
					},
					{
						"astId": 263,
						"contract": "Taxpayer.sol:Taxpayer",
						"label": "parent1",
						"offset": 0,
						"slot": "2",
						"type": "t_address"
					},
					{
						"astId": 265,
						"contract": "Taxpayer.sol:Taxpayer",
						"label": "parent2",
						"offset": 0,
						"slot": "3",
						"type": "t_address"
					},
					{
						"astId": 277,
						"contract": "Taxpayer.sol:Taxpayer",
						"label": "tax_allowance",
						"offset": 0,
						"slot": "4",
						"type": "t_uint256"
					},
					{
						"astId": 279,
						"contract": "Taxpayer.sol:Taxpayer",
						"label": "income",
						"offset": 0,
						"slot": "5",
						"type": "t_uint256"
					},
					{
						"astId": 281,
						"contract": "Taxpayer.sol:Taxpayer",
						"label": "rev",
						"offset": 0,
						"slot": "6",
						"type": "t_uint256"
					},
					{
						"astId": 283,
						"contract": "Taxpayer.sol:Taxpayer",
						"label": "committed",
						"offset": 0,
						"slot": "7",
						"type": "t_bool"
					}
				],
				"types": {
					"t_address": {
						"encoding": "inplace",
						"label": "address",
						"numberOfBytes": "20"
					},
					"t_bool": {
						"encoding": "inplace",
						"label": "bool",
						"numberOfBytes": "1"
					},
					"t_uint256": {
						"encoding": "inplace",
						"label": "uint256",
						"numberOfBytes": "32"
					}
				}
			},
			"userdoc": {
				"kind": "user",
				"methods": {},
				"version": 1
			}
		}
	}
}