{
	"Lottery.sol": {
		"Lottery": {
			"abi": [
				{
					"inputs": [
						{
							"internalType": "uint256",
							"name": "p",
							"type": "uint256"
						}
					],
					"stateMutability": "nonpayable",
					"type": "constructor"
				},
				{
					"inputs": [
						{
							"internalType": "bytes32",
							"name": "y",
							"type": "bytes32"
						}
					],
					"name": "commit",
					"outputs": [],
					"stateMutability": "nonpayable",
					"type": "function"
				},
				{
					"inputs": [
						{
							"internalType": "address",
							"name": "",
							"type": "address"
						}
					],
					"name": "commits",
					"outputs": [
						{
							"internalType": "bytes32",
							"name": "",
							"type": "bytes32"
						}
					],
					"stateMutability": "view",
					"type": "function"
				},
				{
					"inputs": [],
					"name": "endLottery",
					"outputs": [],
					"stateMutability": "nonpayable",
					"type": "function"
				},
				{
					"inputs": [],
					"name": "isContract",
					"outputs": [
						{
							"internalType": "bool",
							"name": "",
							"type": "bool"
						}
					],
					"stateMutability": "view",
					"type": "function"
				},
				{
					"inputs": [
						{
							"internalType": "uint256",
							"name": "rev",
							"type": "uint256"
						}
					],
					"name": "reveal",
					"outputs": [],
					"stateMutability": "nonpayable",
					"type": "function"
				},
				{
					"inputs": [],
					"name": "revealTime",
					"outputs": [
						{
							"internalType": "uint256",
							"name": "",
							"type": "uint256"
						}
					],
					"stateMutability": "view",
					"type": "function"
				},
				{
					"inputs": [],
					"name": "startLottery",
					"outputs": [],
					"stateMutability": "nonpayable",
					"type": "function"
				}
			],
			"devdoc": {
				"kind": "dev",
				"methods": {},
				"version": 1
			},
			"evm": {
				"assembly": "    /* \"Lottery.sol\":88:2223  contract Lottery {... */\n  mstore(0x40, 0x80)\n    /* \"Lottery.sol\":427:538  constructor(uint p) {... */\n  callvalue\n  dup1\n  iszero\n  tag_1\n  jumpi\n  revert(0x00, 0x00)\ntag_1:\n  pop\n  mload(0x40)\n  sub(codesize, bytecodeSize)\n  dup1\n  bytecodeSize\n  dup4\n  codecopy\n  dup2\n  dup2\n  add\n  0x40\n  mstore\n  dup2\n  add\n  swap1\n  tag_2\n  swap2\n  swap1\n  tag_3\n  jump\t// in\ntag_2:\n    /* \"Lottery.sol\":460:461  p */\n  dup1\n    /* \"Lottery.sol\":451:457  period */\n  0x07\n    /* \"Lottery.sol\":451:461  period = p */\n  dup2\n  swap1\n  sstore\n  pop\n    /* \"Lottery.sol\":477:478  0 */\n  0x00\n    /* \"Lottery.sol\":465:474  startTime */\n  0x04\n    /* \"Lottery.sol\":465:478  startTime = 0 */\n  dup2\n  swap1\n  sstore\n  pop\n    /* \"Lottery.sol\":492:493  0 */\n  0x00\n    /* \"Lottery.sol\":482:489  endTime */\n  0x06\n    /* \"Lottery.sol\":482:493  endTime = 0 */\n  dup2\n  swap1\n  sstore\n  pop\n    /* \"Lottery.sol\":508:512  true */\n  0x01\n    /* \"Lottery.sol\":497:507  iscontract */\n  0x08\n  0x00\n    /* \"Lottery.sol\":497:512  iscontract=true */\n  0x0100\n  exp\n  dup2\n  sload\n  dup2\n  0xff\n  mul\n  not\n  and\n  swap1\n  dup4\n  iszero\n  iszero\n  mul\n  or\n  swap1\n  sstore\n  pop\n    /* \"Lottery.sol\":524:534  msg.sender */\n  caller\n    /* \"Lottery.sol\":516:521  owner */\n  0x00\n  0x00\n    /* \"Lottery.sol\":516:534  owner = msg.sender */\n  0x0100\n  exp\n  dup2\n  sload\n  dup2\n  0xffffffffffffffffffffffffffffffffffffffff\n  mul\n  not\n  and\n  swap1\n  dup4\n  0xffffffffffffffffffffffffffffffffffffffff\n  and\n  mul\n  or\n  swap1\n  sstore\n  pop\n    /* \"Lottery.sol\":427:538  constructor(uint p) {... */\n  pop\n    /* \"Lottery.sol\":88:2223  contract Lottery {... */\n  jump(tag_6)\n    /* \"#utility.yul\":88:205   */\ntag_8:\n    /* \"#utility.yul\":197:198   */\n  0x00\n    /* \"#utility.yul\":194:195   */\n  0x00\n    /* \"#utility.yul\":187:199   */\n  revert\n    /* \"#utility.yul\":334:411   */\ntag_10:\n    /* \"#utility.yul\":371:378   */\n  0x00\n    /* \"#utility.yul\":400:405   */\n  dup2\n    /* \"#utility.yul\":389:405   */\n  swap1\n  pop\n    /* \"#utility.yul\":334:411   */\n  swap2\n  swap1\n  pop\n  jump\t// out\n    /* \"#utility.yul\":417:539   */\ntag_11:\n    /* \"#utility.yul\":490:514   */\n  tag_19\n    /* \"#utility.yul\":508:513   */\n  dup2\n    /* \"#utility.yul\":490:514   */\n  tag_10\n  jump\t// in\ntag_19:\n    /* \"#utility.yul\":483:488   */\n  dup2\n    /* \"#utility.yul\":480:515   */\n  eq\n    /* \"#utility.yul\":470:533   */\n  tag_20\n  jumpi\n    /* \"#utility.yul\":529:530   */\n  0x00\n    /* \"#utility.yul\":526:527   */\n  0x00\n    /* \"#utility.yul\":519:531   */\n  revert\n    /* \"#utility.yul\":470:533   */\ntag_20:\n    /* \"#utility.yul\":417:539   */\n  pop\n  jump\t// out\n    /* \"#utility.yul\":545:688   */\ntag_12:\n    /* \"#utility.yul\":602:607   */\n  0x00\n    /* \"#utility.yul\":633:639   */\n  dup2\n    /* \"#utility.yul\":627:640   */\n  mload\n    /* \"#utility.yul\":618:640   */\n  swap1\n  pop\n    /* \"#utility.yul\":649:682   */\n  tag_22\n    /* \"#utility.yul\":676:681   */\n  dup2\n    /* \"#utility.yul\":649:682   */\n  tag_11\n  jump\t// in\ntag_22:\n    /* \"#utility.yul\":545:688   */\n  swap3\n  swap2\n  pop\n  pop\n  jump\t// out\n    /* \"#utility.yul\":694:1045   */\ntag_3:\n    /* \"#utility.yul\":764:770   */\n  0x00\n    /* \"#utility.yul\":813:815   */\n  0x20\n    /* \"#utility.yul\":801:810   */\n  dup3\n    /* \"#utility.yul\":792:799   */\n  dup5\n    /* \"#utility.yul\":788:811   */\n  sub\n    /* \"#utility.yul\":784:816   */\n  slt\n    /* \"#utility.yul\":781:900   */\n  iszero\n  tag_24\n  jumpi\n    /* \"#utility.yul\":819:898   */\n  tag_25\n  tag_8\n  jump\t// in\ntag_25:\n    /* \"#utility.yul\":781:900   */\ntag_24:\n    /* \"#utility.yul\":939:940   */\n  0x00\n    /* \"#utility.yul\":964:1028   */\n  tag_26\n    /* \"#utility.yul\":1020:1027   */\n  dup5\n    /* \"#utility.yul\":1011:1017   */\n  dup3\n    /* \"#utility.yul\":1000:1009   */\n  dup6\n    /* \"#utility.yul\":996:1018   */\n  add\n    /* \"#utility.yul\":964:1028   */\n  tag_12\n  jump\t// in\ntag_26:\n    /* \"#utility.yul\":954:1028   */\n  swap2\n  pop\n    /* \"#utility.yul\":910:1038   */\n  pop\n    /* \"#utility.yul\":694:1045   */\n  swap3\n  swap2\n  pop\n  pop\n  jump\t// out\n    /* \"Lottery.sol\":88:2223  contract Lottery {... */\ntag_6:\n  dataSize(sub_0)\n  dup1\n  dataOffset(sub_0)\n  0x00\n  codecopy\n  0x00\n  return\nstop\n\nsub_0: assembly {\n        /* \"Lottery.sol\":88:2223  contract Lottery {... */\n      mstore(0x40, 0x80)\n      callvalue\n      dup1\n      iszero\n      tag_1\n      jumpi\n      revert(0x00, 0x00)\n    tag_1:\n      pop\n      jumpi(tag_2, lt(calldatasize, 0x04))\n      shr(0xe0, calldataload(0x00))\n      dup1\n      0xba829d71\n      gt\n      tag_10\n      jumpi\n      dup1\n      0xba829d71\n      eq\n      tag_6\n      jumpi\n      dup1\n      0xc2ca0ac5\n      eq\n      tag_7\n      jumpi\n      dup1\n      0xf14fcbc8\n      eq\n      tag_8\n      jumpi\n      dup1\n      0xf7ec2f35\n      eq\n      tag_9\n      jumpi\n      jump(tag_2)\n    tag_10:\n      dup1\n      0x1593a8c7\n      eq\n      tag_3\n      jumpi\n      dup1\n      0x160344e2\n      eq\n      tag_4\n      jumpi\n      dup1\n      0x7b43a8e6\n      eq\n      tag_5\n      jumpi\n    tag_2:\n      revert(0x00, 0x00)\n        /* \"Lottery.sol\":1645:2133  function endLottery() public onlyOwner {  // only the owner can close a lotttery... */\n    tag_3:\n      tag_11\n      tag_12\n      jump\t// in\n    tag_11:\n      stop\n        /* \"Lottery.sol\":704:1056  function startLottery() public onlyOwner {... */\n    tag_4:\n      tag_13\n      tag_14\n      jump\t// in\n    tag_13:\n      stop\n        /* \"Lottery.sol\":176:219  mapping (address => bytes32) public commits */\n    tag_5:\n      tag_15\n      0x04\n      dup1\n      calldatasize\n      sub\n      dup2\n      add\n      swap1\n      tag_16\n      swap2\n      swap1\n      tag_17\n      jump\t// in\n    tag_16:\n      tag_18\n      jump\t// in\n    tag_15:\n      mload(0x40)\n      tag_19\n      swap2\n      swap1\n      tag_20\n      jump\t// in\n    tag_19:\n      mload(0x40)\n      dup1\n      swap2\n      sub\n      swap1\n      return\n        /* \"Lottery.sol\":296:321  uint256 public revealTime */\n    tag_6:\n      tag_21\n      tag_22\n      jump\t// in\n    tag_21:\n      mload(0x40)\n      tag_23\n      swap2\n      swap1\n      tag_24\n      jump\t// in\n    tag_23:\n      mload(0x40)\n      dup1\n      swap2\n      sub\n      swap1\n      return\n        /* \"Lottery.sol\":1342:1600  function reveal(uint256 rev) public {... */\n    tag_7:\n      tag_25\n      0x04\n      dup1\n      calldatasize\n      sub\n      dup2\n      add\n      swap1\n      tag_26\n      swap2\n      swap1\n      tag_27\n      jump\t// in\n    tag_26:\n      tag_28\n      jump\t// in\n    tag_25:\n      stop\n        /* \"Lottery.sol\":1097:1265  function commit(bytes32 y) public {... */\n    tag_8:\n      tag_29\n      0x04\n      dup1\n      calldatasize\n      sub\n      dup2\n      add\n      swap1\n      tag_30\n      swap2\n      swap1\n      tag_31\n      jump\t// in\n    tag_30:\n      tag_32\n      jump\t// in\n    tag_29:\n      stop\n        /* \"Lottery.sol\":2136:2208  function isContract() public view returns(bool) {... */\n    tag_9:\n      tag_33\n      tag_34\n      jump\t// in\n    tag_33:\n      mload(0x40)\n      tag_35\n      swap2\n      swap1\n      tag_36\n      jump\t// in\n    tag_35:\n      mload(0x40)\n      dup1\n      swap2\n      sub\n      swap1\n      return\n        /* \"Lottery.sol\":1645:2133  function endLottery() public onlyOwner {  // only the owner can close a lotttery... */\n    tag_12:\n        /* \"Lottery.sol\":610:615  owner */\n      0x00\n      0x00\n      swap1\n      sload\n      swap1\n      0x0100\n      exp\n      swap1\n      div\n      0xffffffffffffffffffffffffffffffffffffffff\n      and\n        /* \"Lottery.sol\":596:615  msg.sender == owner */\n      0xffffffffffffffffffffffffffffffffffffffff\n      and\n        /* \"Lottery.sol\":596:606  msg.sender */\n      caller\n        /* \"Lottery.sol\":596:615  msg.sender == owner */\n      0xffffffffffffffffffffffffffffffffffffffff\n      and\n      eq\n        /* \"Lottery.sol\":588:630  require(msg.sender == owner, \"Only owner\") */\n      tag_38\n      jumpi\n      mload(0x40)\n      0x08c379a000000000000000000000000000000000000000000000000000000000\n      dup2\n      mstore\n      0x04\n      add\n      tag_39\n      swap1\n      tag_40\n      jump\t// in\n    tag_39:\n      mload(0x40)\n      dup1\n      swap2\n      sub\n      swap1\n      revert\n    tag_38:\n        /* \"Lottery.sol\":1755:1762  endTime */\n      sload(0x06)\n        /* \"Lottery.sol\":1736:1751  block.timestamp */\n      timestamp\n        /* \"Lottery.sol\":1736:1762  block.timestamp >= endTime */\n      lt\n      iszero\n        /* \"Lottery.sol\":1728:1788  require(block.timestamp >= endTime, \"Lottery not ended yet\") */\n      tag_42\n      jumpi\n      mload(0x40)\n      0x08c379a000000000000000000000000000000000000000000000000000000000\n      dup2\n      mstore\n      0x04\n      add\n      tag_43\n      swap1\n      tag_44\n      jump\t// in\n    tag_43:\n      mload(0x40)\n      dup1\n      swap2\n      sub\n      swap1\n      revert\n    tag_42:\n        /* \"Lottery.sol\":1818:1819  0 */\n      0x00\n        /* \"Lottery.sol\":1800:1808  revealed */\n      0x03\n        /* \"Lottery.sol\":1800:1815  revealed.length */\n      dup1\n      sload\n      swap1\n      pop\n        /* \"Lottery.sol\":1800:1819  revealed.length > 0 */\n      gt\n        /* \"Lottery.sol\":1792:1839  require(revealed.length > 0, \"No participants\") */\n      tag_45\n      jumpi\n      mload(0x40)\n      0x08c379a000000000000000000000000000000000000000000000000000000000\n      dup2\n      mstore\n      0x04\n      add\n      tag_46\n      swap1\n      tag_47\n      jump\t// in\n    tag_46:\n      mload(0x40)\n      dup1\n      swap2\n      sub\n      swap1\n      revert\n    tag_45:\n        /* \"Lottery.sol\":1844:1854  uint total */\n      0x00\n        /* \"Lottery.sol\":1857:1858  0 */\n      0x00\n        /* \"Lottery.sol\":1844:1858  uint total = 0 */\n      swap1\n      pop\n        /* \"Lottery.sol\":1868:1874  uint i */\n      0x00\n        /* \"Lottery.sol\":1877:1878  0 */\n      0x00\n        /* \"Lottery.sol\":1868:1878  uint i = 0 */\n      swap1\n      pop\n        /* \"Lottery.sol\":1863:1938  for (uint i = 0; i < revealed.length; i++)... */\n    tag_48:\n        /* \"Lottery.sol\":1884:1892  revealed */\n      0x03\n        /* \"Lottery.sol\":1884:1899  revealed.length */\n      dup1\n      sload\n      swap1\n      pop\n        /* \"Lottery.sol\":1880:1881  i */\n      dup2\n        /* \"Lottery.sol\":1880:1899  i < revealed.length */\n      lt\n        /* \"Lottery.sol\":1863:1938  for (uint i = 0; i < revealed.length; i++)... */\n      iszero\n      tag_49\n      jumpi\n        /* \"Lottery.sol\":1918:1925  reveals */\n      0x02\n        /* \"Lottery.sol\":1918:1938  reveals[revealed[i]] */\n      0x00\n        /* \"Lottery.sol\":1926:1934  revealed */\n      0x03\n        /* \"Lottery.sol\":1935:1936  i */\n      dup4\n        /* \"Lottery.sol\":1926:1937  revealed[i] */\n      dup2\n      sload\n      dup2\n      lt\n      tag_51\n      jumpi\n      tag_52\n      tag_53\n      jump\t// in\n    tag_52:\n    tag_51:\n      swap1\n      0x00\n      mstore\n      keccak256(0x00, 0x20)\n      add\n      0x00\n      swap1\n      sload\n      swap1\n      0x0100\n      exp\n      swap1\n      div\n      0xffffffffffffffffffffffffffffffffffffffff\n      and\n        /* \"Lottery.sol\":1918:1938  reveals[revealed[i]] */\n      0xffffffffffffffffffffffffffffffffffffffff\n      and\n      0xffffffffffffffffffffffffffffffffffffffff\n      and\n      dup2\n      mstore\n      0x20\n      add\n      swap1\n      dup2\n      mstore\n      0x20\n      add\n      0x00\n      keccak256\n      sload\n        /* \"Lottery.sol\":1910:1938  total+= reveals[revealed[i]] */\n      dup3\n      tag_55\n      swap2\n      swap1\n      tag_56\n      jump\t// in\n    tag_55:\n      swap2\n      pop\n        /* \"Lottery.sol\":1901:1904  i++ */\n      dup1\n      dup1\n      0x01\n      add\n      swap2\n      pop\n      pop\n        /* \"Lottery.sol\":1863:1938  for (uint i = 0; i < revealed.length; i++)... */\n      jump(tag_48)\n    tag_49:\n      pop\n        /* \"Lottery.sol\":2008:2016  revealed */\n      0x03\n        /* \"Lottery.sol\":2023:2031  revealed */\n      dup1\n        /* \"Lottery.sol\":2023:2038  revealed.length */\n      dup1\n      sload\n      swap1\n      pop\n        /* \"Lottery.sol\":2017:2022  total */\n      dup3\n        /* \"Lottery.sol\":2017:2038  total%revealed.length */\n      tag_57\n      swap2\n      swap1\n      tag_58\n      jump\t// in\n    tag_57:\n        /* \"Lottery.sol\":2008:2039  revealed[total%revealed.length] */\n      dup2\n      sload\n      dup2\n      lt\n      tag_59\n      jumpi\n      tag_60\n      tag_53\n      jump\t// in\n    tag_60:\n    tag_59:\n      swap1\n      0x00\n      mstore\n      keccak256(0x00, 0x20)\n      add\n      0x00\n      swap1\n      sload\n      swap1\n      0x0100\n      exp\n      swap1\n      div\n      0xffffffffffffffffffffffffffffffffffffffff\n      and\n        /* \"Lottery.sol\":1999:2056  Taxpayer(revealed[total%revealed.length]).setTaxAllowance */\n      0xffffffffffffffffffffffffffffffffffffffff\n      and\n      0x25803d64\n        /* \"Lottery.sol\":2057:2061  9000 */\n      0x2328\n        /* \"Lottery.sol\":1999:2062  Taxpayer(revealed[total%revealed.length]).setTaxAllowance(9000) */\n      mload(0x40)\n      dup3\n      0xffffffff\n      and\n      0xe0\n      shl\n      dup2\n      mstore\n      0x04\n      add\n      tag_62\n      swap2\n      swap1\n      tag_63\n      jump\t// in\n    tag_62:\n      0x00\n      mload(0x40)\n      dup1\n      dup4\n      sub\n      dup2\n      dup7\n      dup1\n      extcodesize\n      iszero\n      dup1\n      iszero\n      tag_64\n      jumpi\n      revert(0x00, 0x00)\n    tag_64:\n      pop\n      gas\n      staticcall\n      iszero\n      dup1\n      iszero\n      tag_66\n      jumpi\n      returndatacopy(0x00, 0x00, returndatasize)\n      revert(0x00, returndatasize)\n    tag_66:\n      pop\n      pop\n      pop\n      pop\n        /* \"Lottery.sol\":2079:2080  0 */\n      0x00\n        /* \"Lottery.sol\":2067:2076  startTime */\n      0x04\n        /* \"Lottery.sol\":2067:2080  startTime = 0 */\n      dup2\n      swap1\n      sstore\n      pop\n        /* \"Lottery.sol\":2095:2096  0 */\n      0x00\n        /* \"Lottery.sol\":2084:2094  revealTime */\n      0x05\n        /* \"Lottery.sol\":2084:2096  revealTime=0 */\n      dup2\n      swap1\n      sstore\n      pop\n        /* \"Lottery.sol\":2110:2111  0 */\n      0x00\n        /* \"Lottery.sol\":2100:2107  endTime */\n      0x06\n        /* \"Lottery.sol\":2100:2111  endTime = 0 */\n      dup2\n      swap1\n      sstore\n      pop\n        /* \"Lottery.sol\":2122:2130  revealed */\n      0x03\n      0x00\n        /* \"Lottery.sol\":2115:2130  delete revealed */\n      tag_67\n      swap2\n      swap1\n      tag_68\n      jump\t// in\n    tag_67:\n        /* \"Lottery.sol\":1684:2133  {  // only the owner can close a lotttery... */\n      pop\n        /* \"Lottery.sol\":1645:2133  function endLottery() public onlyOwner {  // only the owner can close a lotttery... */\n      jump\t// out\n        /* \"Lottery.sol\":704:1056  function startLottery() public onlyOwner {... */\n    tag_14:\n        /* \"Lottery.sol\":610:615  owner */\n      0x00\n      0x00\n      swap1\n      sload\n      swap1\n      0x0100\n      exp\n      swap1\n      div\n      0xffffffffffffffffffffffffffffffffffffffff\n      and\n        /* \"Lottery.sol\":596:615  msg.sender == owner */\n      0xffffffffffffffffffffffffffffffffffffffff\n      and\n        /* \"Lottery.sol\":596:606  msg.sender */\n      caller\n        /* \"Lottery.sol\":596:615  msg.sender == owner */\n      0xffffffffffffffffffffffffffffffffffffffff\n      and\n      eq\n        /* \"Lottery.sol\":588:630  require(msg.sender == owner, \"Only owner\") */\n      tag_70\n      jumpi\n      mload(0x40)\n      0x08c379a000000000000000000000000000000000000000000000000000000000\n      dup2\n      mstore\n      0x04\n      add\n      tag_71\n      swap1\n      tag_40\n      jump\t// in\n    tag_71:\n      mload(0x40)\n      dup1\n      swap2\n      sub\n      swap1\n      revert\n    tag_70:\n        /* \"Lottery.sol\":771:772  0 */\n      0x00\n        /* \"Lottery.sol\":758:767  startTime */\n      sload(0x04)\n        /* \"Lottery.sol\":758:772  startTime == 0 */\n      eq\n        /* \"Lottery.sol\":749:800  require (startTime == 0, \"Lottery already started\") */\n      tag_73\n      jumpi\n      mload(0x40)\n      0x08c379a000000000000000000000000000000000000000000000000000000000\n      dup2\n      mstore\n      0x04\n      add\n      tag_74\n      swap1\n      tag_75\n      jump\t// in\n    tag_74:\n      mload(0x40)\n      dup1\n      swap2\n      sub\n      swap1\n      revert\n    tag_73:\n        /* \"Lottery.sol\":877:892  block.timestamp */\n      timestamp\n        /* \"Lottery.sol\":865:874  startTime */\n      0x04\n        /* \"Lottery.sol\":865:892  startTime = block.timestamp */\n      dup2\n      swap1\n      sstore\n      pop\n        /* \"Lottery.sol\":979:985  period */\n      sload(0x07)\n        /* \"Lottery.sol\":969:978  startTime */\n      sload(0x04)\n        /* \"Lottery.sol\":969:985  startTime+period */\n      tag_76\n      swap2\n      swap1\n      tag_56\n      jump\t// in\n    tag_76:\n        /* \"Lottery.sol\":956:966  revealTime */\n      0x05\n        /* \"Lottery.sol\":956:985  revealTime = startTime+period */\n      dup2\n      swap1\n      sstore\n      pop\n        /* \"Lottery.sol\":1047:1053  period */\n      sload(0x07)\n        /* \"Lottery.sol\":1036:1046  revealTime */\n      sload(0x05)\n        /* \"Lottery.sol\":1036:1053  revealTime+period */\n      tag_77\n      swap2\n      swap1\n      tag_56\n      jump\t// in\n    tag_77:\n        /* \"Lottery.sol\":1026:1033  endTime */\n      0x06\n        /* \"Lottery.sol\":1026:1053  endTime = revealTime+period */\n      dup2\n      swap1\n      sstore\n      pop\n        /* \"Lottery.sol\":704:1056  function startLottery() public onlyOwner {... */\n      jump\t// out\n        /* \"Lottery.sol\":176:219  mapping (address => bytes32) public commits */\n    tag_18:\n      mstore(0x20, 0x01)\n      dup1\n      0x00\n      mstore\n      keccak256(0x00, 0x40)\n      0x00\n      swap2\n      pop\n      swap1\n      pop\n      sload\n      dup2\n      jump\t// out\n        /* \"Lottery.sol\":296:321  uint256 public revealTime */\n    tag_22:\n      sload(0x05)\n      dup2\n      jump\t// out\n        /* \"Lottery.sol\":1342:1600  function reveal(uint256 rev) public {... */\n    tag_28:\n        /* \"Lottery.sol\":1409:1419  revealTime */\n      sload(0x05)\n        /* \"Lottery.sol\":1390:1405  block.timestamp */\n      timestamp\n        /* \"Lottery.sol\":1390:1419  block.timestamp >= revealTime */\n      lt\n      iszero\n        /* \"Lottery.sol\":1382:1452  require(block.timestamp >= revealTime, \"Reveal phase not started yet\") */\n      tag_79\n      jumpi\n      mload(0x40)\n      0x08c379a000000000000000000000000000000000000000000000000000000000\n      dup2\n      mstore\n      0x04\n      add\n      tag_80\n      swap1\n      tag_81\n      jump\t// in\n    tag_80:\n      mload(0x40)\n      dup1\n      swap2\n      sub\n      swap1\n      revert\n    tag_79:\n        /* \"Lottery.sol\":1492:1499  commits */\n      0x01\n        /* \"Lottery.sol\":1492:1511  commits[msg.sender] */\n      0x00\n        /* \"Lottery.sol\":1500:1510  msg.sender */\n      caller\n        /* \"Lottery.sol\":1492:1511  commits[msg.sender] */\n      0xffffffffffffffffffffffffffffffffffffffff\n      and\n      0xffffffffffffffffffffffffffffffffffffffff\n      and\n      dup2\n      mstore\n      0x20\n      add\n      swap1\n      dup2\n      mstore\n      0x20\n      add\n      0x00\n      keccak256\n      sload\n        /* \"Lottery.sol\":1485:1488  rev */\n      dup2\n        /* \"Lottery.sol\":1474:1489  abi.encode(rev) */\n      add(0x20, mload(0x40))\n      tag_82\n      swap2\n      swap1\n      tag_24\n      jump\t// in\n    tag_82:\n      mload(0x40)\n      0x20\n      dup2\n      dup4\n      sub\n      sub\n      dup2\n      mstore\n      swap1\n      0x40\n      mstore\n        /* \"Lottery.sol\":1464:1490  keccak256(abi.encode(rev)) */\n      dup1\n      mload\n      swap1\n      0x20\n      add\n      keccak256\n        /* \"Lottery.sol\":1464:1511  keccak256(abi.encode(rev))==commits[msg.sender] */\n      eq\n        /* \"Lottery.sol\":1456:1530  require(keccak256(abi.encode(rev))==commits[msg.sender], \"Invalid reveal\") */\n      tag_83\n      jumpi\n      mload(0x40)\n      0x08c379a000000000000000000000000000000000000000000000000000000000\n      dup2\n      mstore\n      0x04\n      add\n      tag_84\n      swap1\n      tag_85\n      jump\t// in\n    tag_84:\n      mload(0x40)\n      dup1\n      swap2\n      sub\n      swap1\n      revert\n    tag_83:\n        /* \"Lottery.sol\":1534:1542  revealed */\n      0x03\n        /* \"Lottery.sol\":1548:1558  msg.sender */\n      caller\n        /* \"Lottery.sol\":1534:1559  revealed.push(msg.sender) */\n      swap1\n      dup1\n      0x01\n      dup2\n      sload\n      add\n      dup1\n      dup3\n      sstore\n      dup1\n      swap2\n      pop\n      pop\n      0x01\n      swap1\n      sub\n      swap1\n      0x00\n      mstore\n      keccak256(0x00, 0x20)\n      add\n      0x00\n      swap1\n      swap2\n      swap1\n      swap2\n      swap1\n      swap2\n      0x0100\n      exp\n      dup2\n      sload\n      dup2\n      0xffffffffffffffffffffffffffffffffffffffff\n      mul\n      not\n      and\n      swap1\n      dup4\n      0xffffffffffffffffffffffffffffffffffffffff\n      and\n      mul\n      or\n      swap1\n      sstore\n      pop\n        /* \"Lottery.sol\":1590:1593  rev */\n      dup1\n        /* \"Lottery.sol\":1563:1570  reveals */\n      0x02\n        /* \"Lottery.sol\":1563:1582  reveals[msg.sender] */\n      0x00\n        /* \"Lottery.sol\":1571:1581  msg.sender */\n      caller\n        /* \"Lottery.sol\":1563:1582  reveals[msg.sender] */\n      0xffffffffffffffffffffffffffffffffffffffff\n      and\n      0xffffffffffffffffffffffffffffffffffffffff\n      and\n      dup2\n      mstore\n      0x20\n      add\n      swap1\n      dup2\n      mstore\n      0x20\n      add\n      0x00\n      keccak256\n        /* \"Lottery.sol\":1563:1594  reveals[msg.sender] = uint(rev) */\n      dup2\n      swap1\n      sstore\n      pop\n        /* \"Lottery.sol\":1342:1600  function reveal(uint256 rev) public {... */\n      pop\n      jump\t// out\n        /* \"Lottery.sol\":1097:1265  function commit(bytes32 y) public {... */\n    tag_32:\n        /* \"Lottery.sol\":1156:1157  0 */\n      0x00\n        /* \"Lottery.sol\":1143:1152  startTime */\n      sload(0x04)\n        /* \"Lottery.sol\":1143:1157  startTime != 0 */\n      sub\n        /* \"Lottery.sol\":1135:1181  require(startTime != 0, \"Lottery not started\") */\n      tag_88\n      jumpi\n      mload(0x40)\n      0x08c379a000000000000000000000000000000000000000000000000000000000\n      dup2\n      mstore\n      0x04\n      add\n      tag_89\n      swap1\n      tag_90\n      jump\t// in\n    tag_89:\n      mload(0x40)\n      dup1\n      swap2\n      sub\n      swap1\n      revert\n    tag_88:\n        /* \"Lottery.sol\":1212:1221  startTime */\n      sload(0x04)\n        /* \"Lottery.sol\":1193:1208  block.timestamp */\n      timestamp\n        /* \"Lottery.sol\":1193:1221  block.timestamp >= startTime */\n      lt\n      iszero\n        /* \"Lottery.sol\":1185:1235  require(block.timestamp >= startTime, \"Too early\") */\n      tag_91\n      jumpi\n      mload(0x40)\n      0x08c379a000000000000000000000000000000000000000000000000000000000\n      dup2\n      mstore\n      0x04\n      add\n      tag_92\n      swap1\n      tag_93\n      jump\t// in\n    tag_92:\n      mload(0x40)\n      dup1\n      swap2\n      sub\n      swap1\n      revert\n    tag_91:\n        /* \"Lottery.sol\":1261:1262  y */\n      dup1\n        /* \"Lottery.sol\":1239:1246  commits */\n      0x01\n        /* \"Lottery.sol\":1239:1258  commits[msg.sender] */\n      0x00\n        /* \"Lottery.sol\":1247:1257  msg.sender */\n      caller\n        /* \"Lottery.sol\":1239:1258  commits[msg.sender] */\n      0xffffffffffffffffffffffffffffffffffffffff\n      and\n      0xffffffffffffffffffffffffffffffffffffffff\n      and\n      dup2\n      mstore\n      0x20\n      add\n      swap1\n      dup2\n      mstore\n      0x20\n      add\n      0x00\n      keccak256\n        /* \"Lottery.sol\":1239:1262  commits[msg.sender] = y */\n      dup2\n      swap1\n      sstore\n      pop\n        /* \"Lottery.sol\":1097:1265  function commit(bytes32 y) public {... */\n      pop\n      jump\t// out\n        /* \"Lottery.sol\":2136:2208  function isContract() public view returns(bool) {... */\n    tag_34:\n        /* \"Lottery.sol\":2178:2182  bool */\n      0x00\n        /* \"Lottery.sol\":2195:2205  iscontract */\n      0x08\n      0x00\n      swap1\n      sload\n      swap1\n      0x0100\n      exp\n      swap1\n      div\n      0xff\n      and\n        /* \"Lottery.sol\":2188:2205  return iscontract */\n      swap1\n      pop\n        /* \"Lottery.sol\":2136:2208  function isContract() public view returns(bool) {... */\n      swap1\n      jump\t// out\n    tag_68:\n      pop\n      dup1\n      sload\n      0x00\n      dup3\n      sstore\n      swap1\n      0x00\n      mstore\n      keccak256(0x00, 0x20)\n      swap1\n      dup2\n      add\n      swap1\n      tag_96\n      swap2\n      swap1\n      tag_97\n      jump\t// in\n    tag_96:\n      pop\n      jump\t// out\n    tag_97:\n    tag_98:\n      dup1\n      dup3\n      gt\n      iszero\n      tag_99\n      jumpi\n      0x00\n      dup2\n      0x00\n      swap1\n      sstore\n      pop\n      0x01\n      add\n      jump(tag_98)\n    tag_99:\n      pop\n      swap1\n      jump\t// out\n        /* \"#utility.yul\":88:205   */\n    tag_101:\n        /* \"#utility.yul\":197:198   */\n      0x00\n        /* \"#utility.yul\":194:195   */\n      0x00\n        /* \"#utility.yul\":187:199   */\n      revert\n        /* \"#utility.yul\":334:460   */\n    tag_103:\n        /* \"#utility.yul\":371:378   */\n      0x00\n        /* \"#utility.yul\":411:453   */\n      0xffffffffffffffffffffffffffffffffffffffff\n        /* \"#utility.yul\":404:409   */\n      dup3\n        /* \"#utility.yul\":400:454   */\n      and\n        /* \"#utility.yul\":389:454   */\n      swap1\n      pop\n        /* \"#utility.yul\":334:460   */\n      swap2\n      swap1\n      pop\n      jump\t// out\n        /* \"#utility.yul\":466:562   */\n    tag_104:\n        /* \"#utility.yul\":503:510   */\n      0x00\n        /* \"#utility.yul\":532:556   */\n      tag_146\n        /* \"#utility.yul\":550:555   */\n      dup3\n        /* \"#utility.yul\":532:556   */\n      tag_103\n      jump\t// in\n    tag_146:\n        /* \"#utility.yul\":521:556   */\n      swap1\n      pop\n        /* \"#utility.yul\":466:562   */\n      swap2\n      swap1\n      pop\n      jump\t// out\n        /* \"#utility.yul\":568:690   */\n    tag_105:\n        /* \"#utility.yul\":641:665   */\n      tag_148\n        /* \"#utility.yul\":659:664   */\n      dup2\n        /* \"#utility.yul\":641:665   */\n      tag_104\n      jump\t// in\n    tag_148:\n        /* \"#utility.yul\":634:639   */\n      dup2\n        /* \"#utility.yul\":631:666   */\n      eq\n        /* \"#utility.yul\":621:684   */\n      tag_149\n      jumpi\n        /* \"#utility.yul\":680:681   */\n      0x00\n        /* \"#utility.yul\":677:678   */\n      0x00\n        /* \"#utility.yul\":670:682   */\n      revert\n        /* \"#utility.yul\":621:684   */\n    tag_149:\n        /* \"#utility.yul\":568:690   */\n      pop\n      jump\t// out\n        /* \"#utility.yul\":696:835   */\n    tag_106:\n        /* \"#utility.yul\":742:747   */\n      0x00\n        /* \"#utility.yul\":780:786   */\n      dup2\n        /* \"#utility.yul\":767:787   */\n      calldataload\n        /* \"#utility.yul\":758:787   */\n      swap1\n      pop\n        /* \"#utility.yul\":796:829   */\n      tag_151\n        /* \"#utility.yul\":823:828   */\n      dup2\n        /* \"#utility.yul\":796:829   */\n      tag_105\n      jump\t// in\n    tag_151:\n        /* \"#utility.yul\":696:835   */\n      swap3\n      swap2\n      pop\n      pop\n      jump\t// out\n        /* \"#utility.yul\":841:1170   */\n    tag_17:\n        /* \"#utility.yul\":900:906   */\n      0x00\n        /* \"#utility.yul\":949:951   */\n      0x20\n        /* \"#utility.yul\":937:946   */\n      dup3\n        /* \"#utility.yul\":928:935   */\n      dup5\n        /* \"#utility.yul\":924:947   */\n      sub\n        /* \"#utility.yul\":920:952   */\n      slt\n        /* \"#utility.yul\":917:1036   */\n      iszero\n      tag_153\n      jumpi\n        /* \"#utility.yul\":955:1034   */\n      tag_154\n      tag_101\n      jump\t// in\n    tag_154:\n        /* \"#utility.yul\":917:1036   */\n    tag_153:\n        /* \"#utility.yul\":1075:1076   */\n      0x00\n        /* \"#utility.yul\":1100:1153   */\n      tag_155\n        /* \"#utility.yul\":1145:1152   */\n      dup5\n        /* \"#utility.yul\":1136:1142   */\n      dup3\n        /* \"#utility.yul\":1125:1134   */\n      dup6\n        /* \"#utility.yul\":1121:1143   */\n      add\n        /* \"#utility.yul\":1100:1153   */\n      tag_106\n      jump\t// in\n    tag_155:\n        /* \"#utility.yul\":1090:1153   */\n      swap2\n      pop\n        /* \"#utility.yul\":1046:1163   */\n      pop\n        /* \"#utility.yul\":841:1170   */\n      swap3\n      swap2\n      pop\n      pop\n      jump\t// out\n        /* \"#utility.yul\":1176:1253   */\n    tag_107:\n        /* \"#utility.yul\":1213:1220   */\n      0x00\n        /* \"#utility.yul\":1242:1247   */\n      dup2\n        /* \"#utility.yul\":1231:1247   */\n      swap1\n      pop\n        /* \"#utility.yul\":1176:1253   */\n      swap2\n      swap1\n      pop\n      jump\t// out\n        /* \"#utility.yul\":1259:1377   */\n    tag_108:\n        /* \"#utility.yul\":1346:1370   */\n      tag_158\n        /* \"#utility.yul\":1364:1369   */\n      dup2\n        /* \"#utility.yul\":1346:1370   */\n      tag_107\n      jump\t// in\n    tag_158:\n        /* \"#utility.yul\":1341:1344   */\n      dup3\n        /* \"#utility.yul\":1334:1371   */\n      mstore\n        /* \"#utility.yul\":1259:1377   */\n      pop\n      pop\n      jump\t// out\n        /* \"#utility.yul\":1383:1605   */\n    tag_20:\n        /* \"#utility.yul\":1476:1480   */\n      0x00\n        /* \"#utility.yul\":1514:1516   */\n      0x20\n        /* \"#utility.yul\":1503:1512   */\n      dup3\n        /* \"#utility.yul\":1499:1517   */\n      add\n        /* \"#utility.yul\":1491:1517   */\n      swap1\n      pop\n        /* \"#utility.yul\":1527:1598   */\n      tag_160\n        /* \"#utility.yul\":1595:1596   */\n      0x00\n        /* \"#utility.yul\":1584:1593   */\n      dup4\n        /* \"#utility.yul\":1580:1597   */\n      add\n        /* \"#utility.yul\":1571:1577   */\n      dup5\n        /* \"#utility.yul\":1527:1598   */\n      tag_108\n      jump\t// in\n    tag_160:\n        /* \"#utility.yul\":1383:1605   */\n      swap3\n      swap2\n      pop\n      pop\n      jump\t// out\n        /* \"#utility.yul\":1611:1688   */\n    tag_109:\n        /* \"#utility.yul\":1648:1655   */\n      0x00\n        /* \"#utility.yul\":1677:1682   */\n      dup2\n        /* \"#utility.yul\":1666:1682   */\n      swap1\n      pop\n        /* \"#utility.yul\":1611:1688   */\n      swap2\n      swap1\n      pop\n      jump\t// out\n        /* \"#utility.yul\":1694:1812   */\n    tag_110:\n        /* \"#utility.yul\":1781:1805   */\n      tag_163\n        /* \"#utility.yul\":1799:1804   */\n      dup2\n        /* \"#utility.yul\":1781:1805   */\n      tag_109\n      jump\t// in\n    tag_163:\n        /* \"#utility.yul\":1776:1779   */\n      dup3\n        /* \"#utility.yul\":1769:1806   */\n      mstore\n        /* \"#utility.yul\":1694:1812   */\n      pop\n      pop\n      jump\t// out\n        /* \"#utility.yul\":1818:2040   */\n    tag_24:\n        /* \"#utility.yul\":1911:1915   */\n      0x00\n        /* \"#utility.yul\":1949:1951   */\n      0x20\n        /* \"#utility.yul\":1938:1947   */\n      dup3\n        /* \"#utility.yul\":1934:1952   */\n      add\n        /* \"#utility.yul\":1926:1952   */\n      swap1\n      pop\n        /* \"#utility.yul\":1962:2033   */\n      tag_165\n        /* \"#utility.yul\":2030:2031   */\n      0x00\n        /* \"#utility.yul\":2019:2028   */\n      dup4\n        /* \"#utility.yul\":2015:2032   */\n      add\n        /* \"#utility.yul\":2006:2012   */\n      dup5\n        /* \"#utility.yul\":1962:2033   */\n      tag_110\n      jump\t// in\n    tag_165:\n        /* \"#utility.yul\":1818:2040   */\n      swap3\n      swap2\n      pop\n      pop\n      jump\t// out\n        /* \"#utility.yul\":2046:2168   */\n    tag_111:\n        /* \"#utility.yul\":2119:2143   */\n      tag_167\n        /* \"#utility.yul\":2137:2142   */\n      dup2\n        /* \"#utility.yul\":2119:2143   */\n      tag_109\n      jump\t// in\n    tag_167:\n        /* \"#utility.yul\":2112:2117   */\n      dup2\n        /* \"#utility.yul\":2109:2144   */\n      eq\n        /* \"#utility.yul\":2099:2162   */\n      tag_168\n      jumpi\n        /* \"#utility.yul\":2158:2159   */\n      0x00\n        /* \"#utility.yul\":2155:2156   */\n      0x00\n        /* \"#utility.yul\":2148:2160   */\n      revert\n        /* \"#utility.yul\":2099:2162   */\n    tag_168:\n        /* \"#utility.yul\":2046:2168   */\n      pop\n      jump\t// out\n        /* \"#utility.yul\":2174:2313   */\n    tag_112:\n        /* \"#utility.yul\":2220:2225   */\n      0x00\n        /* \"#utility.yul\":2258:2264   */\n      dup2\n        /* \"#utility.yul\":2245:2265   */\n      calldataload\n        /* \"#utility.yul\":2236:2265   */\n      swap1\n      pop\n        /* \"#utility.yul\":2274:2307   */\n      tag_170\n        /* \"#utility.yul\":2301:2306   */\n      dup2\n        /* \"#utility.yul\":2274:2307   */\n      tag_111\n      jump\t// in\n    tag_170:\n        /* \"#utility.yul\":2174:2313   */\n      swap3\n      swap2\n      pop\n      pop\n      jump\t// out\n        /* \"#utility.yul\":2319:2648   */\n    tag_27:\n        /* \"#utility.yul\":2378:2384   */\n      0x00\n        /* \"#utility.yul\":2427:2429   */\n      0x20\n        /* \"#utility.yul\":2415:2424   */\n      dup3\n        /* \"#utility.yul\":2406:2413   */\n      dup5\n        /* \"#utility.yul\":2402:2425   */\n      sub\n        /* \"#utility.yul\":2398:2430   */\n      slt\n        /* \"#utility.yul\":2395:2514   */\n      iszero\n      tag_172\n      jumpi\n        /* \"#utility.yul\":2433:2512   */\n      tag_173\n      tag_101\n      jump\t// in\n    tag_173:\n        /* \"#utility.yul\":2395:2514   */\n    tag_172:\n        /* \"#utility.yul\":2553:2554   */\n      0x00\n        /* \"#utility.yul\":2578:2631   */\n      tag_174\n        /* \"#utility.yul\":2623:2630   */\n      dup5\n        /* \"#utility.yul\":2614:2620   */\n      dup3\n        /* \"#utility.yul\":2603:2612   */\n      dup6\n        /* \"#utility.yul\":2599:2621   */\n      add\n        /* \"#utility.yul\":2578:2631   */\n      tag_112\n      jump\t// in\n    tag_174:\n        /* \"#utility.yul\":2568:2631   */\n      swap2\n      pop\n        /* \"#utility.yul\":2524:2641   */\n      pop\n        /* \"#utility.yul\":2319:2648   */\n      swap3\n      swap2\n      pop\n      pop\n      jump\t// out\n        /* \"#utility.yul\":2654:2776   */\n    tag_113:\n        /* \"#utility.yul\":2727:2751   */\n      tag_176\n        /* \"#utility.yul\":2745:2750   */\n      dup2\n        /* \"#utility.yul\":2727:2751   */\n      tag_107\n      jump\t// in\n    tag_176:\n        /* \"#utility.yul\":2720:2725   */\n      dup2\n        /* \"#utility.yul\":2717:2752   */\n      eq\n        /* \"#utility.yul\":2707:2770   */\n      tag_177\n      jumpi\n        /* \"#utility.yul\":2766:2767   */\n      0x00\n        /* \"#utility.yul\":2763:2764   */\n      0x00\n        /* \"#utility.yul\":2756:2768   */\n      revert\n        /* \"#utility.yul\":2707:2770   */\n    tag_177:\n        /* \"#utility.yul\":2654:2776   */\n      pop\n      jump\t// out\n        /* \"#utility.yul\":2782:2921   */\n    tag_114:\n        /* \"#utility.yul\":2828:2833   */\n      0x00\n        /* \"#utility.yul\":2866:2872   */\n      dup2\n        /* \"#utility.yul\":2853:2873   */\n      calldataload\n        /* \"#utility.yul\":2844:2873   */\n      swap1\n      pop\n        /* \"#utility.yul\":2882:2915   */\n      tag_179\n        /* \"#utility.yul\":2909:2914   */\n      dup2\n        /* \"#utility.yul\":2882:2915   */\n      tag_113\n      jump\t// in\n    tag_179:\n        /* \"#utility.yul\":2782:2921   */\n      swap3\n      swap2\n      pop\n      pop\n      jump\t// out\n        /* \"#utility.yul\":2927:3256   */\n    tag_31:\n        /* \"#utility.yul\":2986:2992   */\n      0x00\n        /* \"#utility.yul\":3035:3037   */\n      0x20\n        /* \"#utility.yul\":3023:3032   */\n      dup3\n        /* \"#utility.yul\":3014:3021   */\n      dup5\n        /* \"#utility.yul\":3010:3033   */\n      sub\n        /* \"#utility.yul\":3006:3038   */\n      slt\n        /* \"#utility.yul\":3003:3122   */\n      iszero\n      tag_181\n      jumpi\n        /* \"#utility.yul\":3041:3120   */\n      tag_182\n      tag_101\n      jump\t// in\n    tag_182:\n        /* \"#utility.yul\":3003:3122   */\n    tag_181:\n        /* \"#utility.yul\":3161:3162   */\n      0x00\n        /* \"#utility.yul\":3186:3239   */\n      tag_183\n        /* \"#utility.yul\":3231:3238   */\n      dup5\n        /* \"#utility.yul\":3222:3228   */\n      dup3\n        /* \"#utility.yul\":3211:3220   */\n      dup6\n        /* \"#utility.yul\":3207:3229   */\n      add\n        /* \"#utility.yul\":3186:3239   */\n      tag_114\n      jump\t// in\n    tag_183:\n        /* \"#utility.yul\":3176:3239   */\n      swap2\n      pop\n        /* \"#utility.yul\":3132:3249   */\n      pop\n        /* \"#utility.yul\":2927:3256   */\n      swap3\n      swap2\n      pop\n      pop\n      jump\t// out\n        /* \"#utility.yul\":3262:3352   */\n    tag_115:\n        /* \"#utility.yul\":3296:3303   */\n      0x00\n        /* \"#utility.yul\":3339:3344   */\n      dup2\n        /* \"#utility.yul\":3332:3345   */\n      iszero\n        /* \"#utility.yul\":3325:3346   */\n      iszero\n        /* \"#utility.yul\":3314:3346   */\n      swap1\n      pop\n        /* \"#utility.yul\":3262:3352   */\n      swap2\n      swap1\n      pop\n      jump\t// out\n        /* \"#utility.yul\":3358:3467   */\n    tag_116:\n        /* \"#utility.yul\":3439:3460   */\n      tag_186\n        /* \"#utility.yul\":3454:3459   */\n      dup2\n        /* \"#utility.yul\":3439:3460   */\n      tag_115\n      jump\t// in\n    tag_186:\n        /* \"#utility.yul\":3434:3437   */\n      dup3\n        /* \"#utility.yul\":3427:3461   */\n      mstore\n        /* \"#utility.yul\":3358:3467   */\n      pop\n      pop\n      jump\t// out\n        /* \"#utility.yul\":3473:3683   */\n    tag_36:\n        /* \"#utility.yul\":3560:3564   */\n      0x00\n        /* \"#utility.yul\":3598:3600   */\n      0x20\n        /* \"#utility.yul\":3587:3596   */\n      dup3\n        /* \"#utility.yul\":3583:3601   */\n      add\n        /* \"#utility.yul\":3575:3601   */\n      swap1\n      pop\n        /* \"#utility.yul\":3611:3676   */\n      tag_188\n        /* \"#utility.yul\":3673:3674   */\n      0x00\n        /* \"#utility.yul\":3662:3671   */\n      dup4\n        /* \"#utility.yul\":3658:3675   */\n      add\n        /* \"#utility.yul\":3649:3655   */\n      dup5\n        /* \"#utility.yul\":3611:3676   */\n      tag_116\n      jump\t// in\n    tag_188:\n        /* \"#utility.yul\":3473:3683   */\n      swap3\n      swap2\n      pop\n      pop\n      jump\t// out\n        /* \"#utility.yul\":3689:3858   */\n    tag_117:\n        /* \"#utility.yul\":3773:3784   */\n      0x00\n        /* \"#utility.yul\":3807:3813   */\n      dup3\n        /* \"#utility.yul\":3802:3805   */\n      dup3\n        /* \"#utility.yul\":3795:3814   */\n      mstore\n        /* \"#utility.yul\":3847:3851   */\n      0x20\n        /* \"#utility.yul\":3842:3845   */\n      dup3\n        /* \"#utility.yul\":3838:3852   */\n      add\n        /* \"#utility.yul\":3823:3852   */\n      swap1\n      pop\n        /* \"#utility.yul\":3689:3858   */\n      swap3\n      swap2\n      pop\n      pop\n      jump\t// out\n        /* \"#utility.yul\":3864:4024   */\n    tag_118:\n        /* \"#utility.yul\":4004:4016   */\n      0x4f6e6c79206f776e657200000000000000000000000000000000000000000000\n        /* \"#utility.yul\":4000:4001   */\n      0x00\n        /* \"#utility.yul\":3992:3998   */\n      dup3\n        /* \"#utility.yul\":3988:4002   */\n      add\n        /* \"#utility.yul\":3981:4017   */\n      mstore\n        /* \"#utility.yul\":3864:4024   */\n      pop\n      jump\t// out\n        /* \"#utility.yul\":4030:4396   */\n    tag_119:\n        /* \"#utility.yul\":4172:4175   */\n      0x00\n        /* \"#utility.yul\":4193:4260   */\n      tag_192\n        /* \"#utility.yul\":4257:4259   */\n      0x0a\n        /* \"#utility.yul\":4252:4255   */\n      dup4\n        /* \"#utility.yul\":4193:4260   */\n      tag_117\n      jump\t// in\n    tag_192:\n        /* \"#utility.yul\":4186:4260   */\n      swap2\n      pop\n        /* \"#utility.yul\":4269:4362   */\n      tag_193\n        /* \"#utility.yul\":4358:4361   */\n      dup3\n        /* \"#utility.yul\":4269:4362   */\n      tag_118\n      jump\t// in\n    tag_193:\n        /* \"#utility.yul\":4387:4389   */\n      0x20\n        /* \"#utility.yul\":4382:4385   */\n      dup3\n        /* \"#utility.yul\":4378:4390   */\n      add\n        /* \"#utility.yul\":4371:4390   */\n      swap1\n      pop\n        /* \"#utility.yul\":4030:4396   */\n      swap2\n      swap1\n      pop\n      jump\t// out\n        /* \"#utility.yul\":4402:4821   */\n    tag_40:\n        /* \"#utility.yul\":4568:4572   */\n      0x00\n        /* \"#utility.yul\":4606:4608   */\n      0x20\n        /* \"#utility.yul\":4595:4604   */\n      dup3\n        /* \"#utility.yul\":4591:4609   */\n      add\n        /* \"#utility.yul\":4583:4609   */\n      swap1\n      pop\n        /* \"#utility.yul\":4655:4664   */\n      dup2\n        /* \"#utility.yul\":4649:4653   */\n      dup2\n        /* \"#utility.yul\":4645:4665   */\n      sub\n        /* \"#utility.yul\":4641:4642   */\n      0x00\n        /* \"#utility.yul\":4630:4639   */\n      dup4\n        /* \"#utility.yul\":4626:4643   */\n      add\n        /* \"#utility.yul\":4619:4666   */\n      mstore\n        /* \"#utility.yul\":4683:4814   */\n      tag_195\n        /* \"#utility.yul\":4809:4813   */\n      dup2\n        /* \"#utility.yul\":4683:4814   */\n      tag_119\n      jump\t// in\n    tag_195:\n        /* \"#utility.yul\":4675:4814   */\n      swap1\n      pop\n        /* \"#utility.yul\":4402:4821   */\n      swap2\n      swap1\n      pop\n      jump\t// out\n        /* \"#utility.yul\":4827:4998   */\n    tag_120:\n        /* \"#utility.yul\":4967:4990   */\n      0x4c6f7474657279206e6f7420656e646564207965740000000000000000000000\n        /* \"#utility.yul\":4963:4964   */\n      0x00\n        /* \"#utility.yul\":4955:4961   */\n      dup3\n        /* \"#utility.yul\":4951:4965   */\n      add\n        /* \"#utility.yul\":4944:4991   */\n      mstore\n        /* \"#utility.yul\":4827:4998   */\n      pop\n      jump\t// out\n        /* \"#utility.yul\":5004:5370   */\n    tag_121:\n        /* \"#utility.yul\":5146:5149   */\n      0x00\n        /* \"#utility.yul\":5167:5234   */\n      tag_198\n        /* \"#utility.yul\":5231:5233   */\n      0x15\n        /* \"#utility.yul\":5226:5229   */\n      dup4\n        /* \"#utility.yul\":5167:5234   */\n      tag_117\n      jump\t// in\n    tag_198:\n        /* \"#utility.yul\":5160:5234   */\n      swap2\n      pop\n        /* \"#utility.yul\":5243:5336   */\n      tag_199\n        /* \"#utility.yul\":5332:5335   */\n      dup3\n        /* \"#utility.yul\":5243:5336   */\n      tag_120\n      jump\t// in\n    tag_199:\n        /* \"#utility.yul\":5361:5363   */\n      0x20\n        /* \"#utility.yul\":5356:5359   */\n      dup3\n        /* \"#utility.yul\":5352:5364   */\n      add\n        /* \"#utility.yul\":5345:5364   */\n      swap1\n      pop\n        /* \"#utility.yul\":5004:5370   */\n      swap2\n      swap1\n      pop\n      jump\t// out\n        /* \"#utility.yul\":5376:5795   */\n    tag_44:\n        /* \"#utility.yul\":5542:5546   */\n      0x00\n        /* \"#utility.yul\":5580:5582   */\n      0x20\n        /* \"#utility.yul\":5569:5578   */\n      dup3\n        /* \"#utility.yul\":5565:5583   */\n      add\n        /* \"#utility.yul\":5557:5583   */\n      swap1\n      pop\n        /* \"#utility.yul\":5629:5638   */\n      dup2\n        /* \"#utility.yul\":5623:5627   */\n      dup2\n        /* \"#utility.yul\":5619:5639   */\n      sub\n        /* \"#utility.yul\":5615:5616   */\n      0x00\n        /* \"#utility.yul\":5604:5613   */\n      dup4\n        /* \"#utility.yul\":5600:5617   */\n      add\n        /* \"#utility.yul\":5593:5640   */\n      mstore\n        /* \"#utility.yul\":5657:5788   */\n      tag_201\n        /* \"#utility.yul\":5783:5787   */\n      dup2\n        /* \"#utility.yul\":5657:5788   */\n      tag_121\n      jump\t// in\n    tag_201:\n        /* \"#utility.yul\":5649:5788   */\n      swap1\n      pop\n        /* \"#utility.yul\":5376:5795   */\n      swap2\n      swap1\n      pop\n      jump\t// out\n        /* \"#utility.yul\":5801:5966   */\n    tag_122:\n        /* \"#utility.yul\":5941:5958   */\n      0x4e6f207061727469636970616e74730000000000000000000000000000000000\n        /* \"#utility.yul\":5937:5938   */\n      0x00\n        /* \"#utility.yul\":5929:5935   */\n      dup3\n        /* \"#utility.yul\":5925:5939   */\n      add\n        /* \"#utility.yul\":5918:5959   */\n      mstore\n        /* \"#utility.yul\":5801:5966   */\n      pop\n      jump\t// out\n        /* \"#utility.yul\":5972:6338   */\n    tag_123:\n        /* \"#utility.yul\":6114:6117   */\n      0x00\n        /* \"#utility.yul\":6135:6202   */\n      tag_204\n        /* \"#utility.yul\":6199:6201   */\n      0x0f\n        /* \"#utility.yul\":6194:6197   */\n      dup4\n        /* \"#utility.yul\":6135:6202   */\n      tag_117\n      jump\t// in\n    tag_204:\n        /* \"#utility.yul\":6128:6202   */\n      swap2\n      pop\n        /* \"#utility.yul\":6211:6304   */\n      tag_205\n        /* \"#utility.yul\":6300:6303   */\n      dup3\n        /* \"#utility.yul\":6211:6304   */\n      tag_122\n      jump\t// in\n    tag_205:\n        /* \"#utility.yul\":6329:6331   */\n      0x20\n        /* \"#utility.yul\":6324:6327   */\n      dup3\n        /* \"#utility.yul\":6320:6332   */\n      add\n        /* \"#utility.yul\":6313:6332   */\n      swap1\n      pop\n        /* \"#utility.yul\":5972:6338   */\n      swap2\n      swap1\n      pop\n      jump\t// out\n        /* \"#utility.yul\":6344:6763   */\n    tag_47:\n        /* \"#utility.yul\":6510:6514   */\n      0x00\n        /* \"#utility.yul\":6548:6550   */\n      0x20\n        /* \"#utility.yul\":6537:6546   */\n      dup3\n        /* \"#utility.yul\":6533:6551   */\n      add\n        /* \"#utility.yul\":6525:6551   */\n      swap1\n      pop\n        /* \"#utility.yul\":6597:6606   */\n      dup2\n        /* \"#utility.yul\":6591:6595   */\n      dup2\n        /* \"#utility.yul\":6587:6607   */\n      sub\n        /* \"#utility.yul\":6583:6584   */\n      0x00\n        /* \"#utility.yul\":6572:6581   */\n      dup4\n        /* \"#utility.yul\":6568:6585   */\n      add\n        /* \"#utility.yul\":6561:6608   */\n      mstore\n        /* \"#utility.yul\":6625:6756   */\n      tag_207\n        /* \"#utility.yul\":6751:6755   */\n      dup2\n        /* \"#utility.yul\":6625:6756   */\n      tag_123\n      jump\t// in\n    tag_207:\n        /* \"#utility.yul\":6617:6756   */\n      swap1\n      pop\n        /* \"#utility.yul\":6344:6763   */\n      swap2\n      swap1\n      pop\n      jump\t// out\n        /* \"#utility.yul\":6769:6949   */\n    tag_53:\n        /* \"#utility.yul\":6817:6894   */\n      0x4e487b7100000000000000000000000000000000000000000000000000000000\n        /* \"#utility.yul\":6814:6815   */\n      0x00\n        /* \"#utility.yul\":6807:6895   */\n      mstore\n        /* \"#utility.yul\":6914:6918   */\n      0x32\n        /* \"#utility.yul\":6911:6912   */\n      0x04\n        /* \"#utility.yul\":6904:6919   */\n      mstore\n        /* \"#utility.yul\":6938:6942   */\n      0x24\n        /* \"#utility.yul\":6935:6936   */\n      0x00\n        /* \"#utility.yul\":6928:6943   */\n      revert\n        /* \"#utility.yul\":6955:7135   */\n    tag_124:\n        /* \"#utility.yul\":7003:7080   */\n      0x4e487b7100000000000000000000000000000000000000000000000000000000\n        /* \"#utility.yul\":7000:7001   */\n      0x00\n        /* \"#utility.yul\":6993:7081   */\n      mstore\n        /* \"#utility.yul\":7100:7104   */\n      0x11\n        /* \"#utility.yul\":7097:7098   */\n      0x04\n        /* \"#utility.yul\":7090:7105   */\n      mstore\n        /* \"#utility.yul\":7124:7128   */\n      0x24\n        /* \"#utility.yul\":7121:7122   */\n      0x00\n        /* \"#utility.yul\":7114:7129   */\n      revert\n        /* \"#utility.yul\":7141:7332   */\n    tag_56:\n        /* \"#utility.yul\":7181:7184   */\n      0x00\n        /* \"#utility.yul\":7200:7220   */\n      tag_211\n        /* \"#utility.yul\":7218:7219   */\n      dup3\n        /* \"#utility.yul\":7200:7220   */\n      tag_109\n      jump\t// in\n    tag_211:\n        /* \"#utility.yul\":7195:7220   */\n      swap2\n      pop\n        /* \"#utility.yul\":7234:7254   */\n      tag_212\n        /* \"#utility.yul\":7252:7253   */\n      dup4\n        /* \"#utility.yul\":7234:7254   */\n      tag_109\n      jump\t// in\n    tag_212:\n        /* \"#utility.yul\":7229:7254   */\n      swap3\n      pop\n        /* \"#utility.yul\":7277:7278   */\n      dup3\n        /* \"#utility.yul\":7274:7275   */\n      dup3\n        /* \"#utility.yul\":7270:7279   */\n      add\n        /* \"#utility.yul\":7263:7279   */\n      swap1\n      pop\n        /* \"#utility.yul\":7298:7301   */\n      dup1\n        /* \"#utility.yul\":7295:7296   */\n      dup3\n        /* \"#utility.yul\":7292:7302   */\n      gt\n        /* \"#utility.yul\":7289:7325   */\n      iszero\n      tag_213\n      jumpi\n        /* \"#utility.yul\":7305:7323   */\n      tag_214\n      tag_124\n      jump\t// in\n    tag_214:\n        /* \"#utility.yul\":7289:7325   */\n    tag_213:\n        /* \"#utility.yul\":7141:7332   */\n      swap3\n      swap2\n      pop\n      pop\n      jump\t// out\n        /* \"#utility.yul\":7338:7518   */\n    tag_125:\n        /* \"#utility.yul\":7386:7463   */\n      0x4e487b7100000000000000000000000000000000000000000000000000000000\n        /* \"#utility.yul\":7383:7384   */\n      0x00\n        /* \"#utility.yul\":7376:7464   */\n      mstore\n        /* \"#utility.yul\":7483:7487   */\n      0x12\n        /* \"#utility.yul\":7480:7481   */\n      0x04\n        /* \"#utility.yul\":7473:7488   */\n      mstore\n        /* \"#utility.yul\":7507:7511   */\n      0x24\n        /* \"#utility.yul\":7504:7505   */\n      0x00\n        /* \"#utility.yul\":7497:7512   */\n      revert\n        /* \"#utility.yul\":7524:7700   */\n    tag_58:\n        /* \"#utility.yul\":7556:7557   */\n      0x00\n        /* \"#utility.yul\":7573:7593   */\n      tag_217\n        /* \"#utility.yul\":7591:7592   */\n      dup3\n        /* \"#utility.yul\":7573:7593   */\n      tag_109\n      jump\t// in\n    tag_217:\n        /* \"#utility.yul\":7568:7593   */\n      swap2\n      pop\n        /* \"#utility.yul\":7607:7627   */\n      tag_218\n        /* \"#utility.yul\":7625:7626   */\n      dup4\n        /* \"#utility.yul\":7607:7627   */\n      tag_109\n      jump\t// in\n    tag_218:\n        /* \"#utility.yul\":7602:7627   */\n      swap3\n      pop\n        /* \"#utility.yul\":7646:7647   */\n      dup3\n        /* \"#utility.yul\":7636:7671   */\n      tag_219\n      jumpi\n        /* \"#utility.yul\":7651:7669   */\n      tag_220\n      tag_125\n      jump\t// in\n    tag_220:\n        /* \"#utility.yul\":7636:7671   */\n    tag_219:\n        /* \"#utility.yul\":7692:7693   */\n      dup3\n        /* \"#utility.yul\":7689:7690   */\n      dup3\n        /* \"#utility.yul\":7685:7694   */\n      mod\n        /* \"#utility.yul\":7680:7694   */\n      swap1\n      pop\n        /* \"#utility.yul\":7524:7700   */\n      swap3\n      swap2\n      pop\n      pop\n      jump\t// out\n        /* \"#utility.yul\":7706:7794   */\n    tag_126:\n        /* \"#utility.yul\":7754:7761   */\n      0x00\n        /* \"#utility.yul\":7783:7788   */\n      dup2\n        /* \"#utility.yul\":7772:7788   */\n      swap1\n      pop\n        /* \"#utility.yul\":7706:7794   */\n      swap2\n      swap1\n      pop\n      jump\t// out\n        /* \"#utility.yul\":7800:7860   */\n    tag_127:\n        /* \"#utility.yul\":7828:7831   */\n      0x00\n        /* \"#utility.yul\":7849:7854   */\n      dup2\n        /* \"#utility.yul\":7842:7854   */\n      swap1\n      pop\n        /* \"#utility.yul\":7800:7860   */\n      swap2\n      swap1\n      pop\n      jump\t// out\n        /* \"#utility.yul\":7866:8030   */\n    tag_128:\n        /* \"#utility.yul\":7927:7936   */\n      0x00\n        /* \"#utility.yul\":7960:8024   */\n      tag_224\n        /* \"#utility.yul\":7978:8023   */\n      tag_225\n        /* \"#utility.yul\":7987:8022   */\n      tag_226\n        /* \"#utility.yul\":8016:8021   */\n      dup5\n        /* \"#utility.yul\":7987:8022   */\n      tag_126\n      jump\t// in\n    tag_226:\n        /* \"#utility.yul\":7978:8023   */\n      tag_127\n      jump\t// in\n    tag_225:\n        /* \"#utility.yul\":7960:8024   */\n      tag_109\n      jump\t// in\n    tag_224:\n        /* \"#utility.yul\":7947:8024   */\n      swap1\n      pop\n        /* \"#utility.yul\":7866:8030   */\n      swap2\n      swap1\n      pop\n      jump\t// out\n        /* \"#utility.yul\":8036:8189   */\n    tag_129:\n        /* \"#utility.yul\":8134:8182   */\n      tag_228\n        /* \"#utility.yul\":8176:8181   */\n      dup2\n        /* \"#utility.yul\":8134:8182   */\n      tag_128\n      jump\t// in\n    tag_228:\n        /* \"#utility.yul\":8129:8132   */\n      dup3\n        /* \"#utility.yul\":8122:8183   */\n      mstore\n        /* \"#utility.yul\":8036:8189   */\n      pop\n      pop\n      jump\t// out\n        /* \"#utility.yul\":8195:8439   */\n    tag_63:\n        /* \"#utility.yul\":8299:8303   */\n      0x00\n        /* \"#utility.yul\":8337:8339   */\n      0x20\n        /* \"#utility.yul\":8326:8335   */\n      dup3\n        /* \"#utility.yul\":8322:8340   */\n      add\n        /* \"#utility.yul\":8314:8340   */\n      swap1\n      pop\n        /* \"#utility.yul\":8350:8432   */\n      tag_230\n        /* \"#utility.yul\":8429:8430   */\n      0x00\n        /* \"#utility.yul\":8418:8427   */\n      dup4\n        /* \"#utility.yul\":8414:8431   */\n      add\n        /* \"#utility.yul\":8405:8411   */\n      dup5\n        /* \"#utility.yul\":8350:8432   */\n      tag_129\n      jump\t// in\n    tag_230:\n        /* \"#utility.yul\":8195:8439   */\n      swap3\n      swap2\n      pop\n      pop\n      jump\t// out\n        /* \"#utility.yul\":8445:8618   */\n    tag_130:\n        /* \"#utility.yul\":8585:8610   */\n      0x4c6f747465727920616c72656164792073746172746564000000000000000000\n        /* \"#utility.yul\":8581:8582   */\n      0x00\n        /* \"#utility.yul\":8573:8579   */\n      dup3\n        /* \"#utility.yul\":8569:8583   */\n      add\n        /* \"#utility.yul\":8562:8611   */\n      mstore\n        /* \"#utility.yul\":8445:8618   */\n      pop\n      jump\t// out\n        /* \"#utility.yul\":8624:8990   */\n    tag_131:\n        /* \"#utility.yul\":8766:8769   */\n      0x00\n        /* \"#utility.yul\":8787:8854   */\n      tag_233\n        /* \"#utility.yul\":8851:8853   */\n      0x17\n        /* \"#utility.yul\":8846:8849   */\n      dup4\n        /* \"#utility.yul\":8787:8854   */\n      tag_117\n      jump\t// in\n    tag_233:\n        /* \"#utility.yul\":8780:8854   */\n      swap2\n      pop\n        /* \"#utility.yul\":8863:8956   */\n      tag_234\n        /* \"#utility.yul\":8952:8955   */\n      dup3\n        /* \"#utility.yul\":8863:8956   */\n      tag_130\n      jump\t// in\n    tag_234:\n        /* \"#utility.yul\":8981:8983   */\n      0x20\n        /* \"#utility.yul\":8976:8979   */\n      dup3\n        /* \"#utility.yul\":8972:8984   */\n      add\n        /* \"#utility.yul\":8965:8984   */\n      swap1\n      pop\n        /* \"#utility.yul\":8624:8990   */\n      swap2\n      swap1\n      pop\n      jump\t// out\n        /* \"#utility.yul\":8996:9415   */\n    tag_75:\n        /* \"#utility.yul\":9162:9166   */\n      0x00\n        /* \"#utility.yul\":9200:9202   */\n      0x20\n        /* \"#utility.yul\":9189:9198   */\n      dup3\n        /* \"#utility.yul\":9185:9203   */\n      add\n        /* \"#utility.yul\":9177:9203   */\n      swap1\n      pop\n        /* \"#utility.yul\":9249:9258   */\n      dup2\n        /* \"#utility.yul\":9243:9247   */\n      dup2\n        /* \"#utility.yul\":9239:9259   */\n      sub\n        /* \"#utility.yul\":9235:9236   */\n      0x00\n        /* \"#utility.yul\":9224:9233   */\n      dup4\n        /* \"#utility.yul\":9220:9237   */\n      add\n        /* \"#utility.yul\":9213:9260   */\n      mstore\n        /* \"#utility.yul\":9277:9408   */\n      tag_236\n        /* \"#utility.yul\":9403:9407   */\n      dup2\n        /* \"#utility.yul\":9277:9408   */\n      tag_131\n      jump\t// in\n    tag_236:\n        /* \"#utility.yul\":9269:9408   */\n      swap1\n      pop\n        /* \"#utility.yul\":8996:9415   */\n      swap2\n      swap1\n      pop\n      jump\t// out\n        /* \"#utility.yul\":9421:9599   */\n    tag_132:\n        /* \"#utility.yul\":9561:9591   */\n      0x52657665616c207068617365206e6f7420737461727465642079657400000000\n        /* \"#utility.yul\":9557:9558   */\n      0x00\n        /* \"#utility.yul\":9549:9555   */\n      dup3\n        /* \"#utility.yul\":9545:9559   */\n      add\n        /* \"#utility.yul\":9538:9592   */\n      mstore\n        /* \"#utility.yul\":9421:9599   */\n      pop\n      jump\t// out\n        /* \"#utility.yul\":9605:9971   */\n    tag_133:\n        /* \"#utility.yul\":9747:9750   */\n      0x00\n        /* \"#utility.yul\":9768:9835   */\n      tag_239\n        /* \"#utility.yul\":9832:9834   */\n      0x1c\n        /* \"#utility.yul\":9827:9830   */\n      dup4\n        /* \"#utility.yul\":9768:9835   */\n      tag_117\n      jump\t// in\n    tag_239:\n        /* \"#utility.yul\":9761:9835   */\n      swap2\n      pop\n        /* \"#utility.yul\":9844:9937   */\n      tag_240\n        /* \"#utility.yul\":9933:9936   */\n      dup3\n        /* \"#utility.yul\":9844:9937   */\n      tag_132\n      jump\t// in\n    tag_240:\n        /* \"#utility.yul\":9962:9964   */\n      0x20\n        /* \"#utility.yul\":9957:9960   */\n      dup3\n        /* \"#utility.yul\":9953:9965   */\n      add\n        /* \"#utility.yul\":9946:9965   */\n      swap1\n      pop\n        /* \"#utility.yul\":9605:9971   */\n      swap2\n      swap1\n      pop\n      jump\t// out\n        /* \"#utility.yul\":9977:10396   */\n    tag_81:\n        /* \"#utility.yul\":10143:10147   */\n      0x00\n        /* \"#utility.yul\":10181:10183   */\n      0x20\n        /* \"#utility.yul\":10170:10179   */\n      dup3\n        /* \"#utility.yul\":10166:10184   */\n      add\n        /* \"#utility.yul\":10158:10184   */\n      swap1\n      pop\n        /* \"#utility.yul\":10230:10239   */\n      dup2\n        /* \"#utility.yul\":10224:10228   */\n      dup2\n        /* \"#utility.yul\":10220:10240   */\n      sub\n        /* \"#utility.yul\":10216:10217   */\n      0x00\n        /* \"#utility.yul\":10205:10214   */\n      dup4\n        /* \"#utility.yul\":10201:10218   */\n      add\n        /* \"#utility.yul\":10194:10241   */\n      mstore\n        /* \"#utility.yul\":10258:10389   */\n      tag_242\n        /* \"#utility.yul\":10384:10388   */\n      dup2\n        /* \"#utility.yul\":10258:10389   */\n      tag_133\n      jump\t// in\n    tag_242:\n        /* \"#utility.yul\":10250:10389   */\n      swap1\n      pop\n        /* \"#utility.yul\":9977:10396   */\n      swap2\n      swap1\n      pop\n      jump\t// out\n        /* \"#utility.yul\":10402:10566   */\n    tag_134:\n        /* \"#utility.yul\":10542:10558   */\n      0x496e76616c69642072657665616c000000000000000000000000000000000000\n        /* \"#utility.yul\":10538:10539   */\n      0x00\n        /* \"#utility.yul\":10530:10536   */\n      dup3\n        /* \"#utility.yul\":10526:10540   */\n      add\n        /* \"#utility.yul\":10519:10559   */\n      mstore\n        /* \"#utility.yul\":10402:10566   */\n      pop\n      jump\t// out\n        /* \"#utility.yul\":10572:10938   */\n    tag_135:\n        /* \"#utility.yul\":10714:10717   */\n      0x00\n        /* \"#utility.yul\":10735:10802   */\n      tag_245\n        /* \"#utility.yul\":10799:10801   */\n      0x0e\n        /* \"#utility.yul\":10794:10797   */\n      dup4\n        /* \"#utility.yul\":10735:10802   */\n      tag_117\n      jump\t// in\n    tag_245:\n        /* \"#utility.yul\":10728:10802   */\n      swap2\n      pop\n        /* \"#utility.yul\":10811:10904   */\n      tag_246\n        /* \"#utility.yul\":10900:10903   */\n      dup3\n        /* \"#utility.yul\":10811:10904   */\n      tag_134\n      jump\t// in\n    tag_246:\n        /* \"#utility.yul\":10929:10931   */\n      0x20\n        /* \"#utility.yul\":10924:10927   */\n      dup3\n        /* \"#utility.yul\":10920:10932   */\n      add\n        /* \"#utility.yul\":10913:10932   */\n      swap1\n      pop\n        /* \"#utility.yul\":10572:10938   */\n      swap2\n      swap1\n      pop\n      jump\t// out\n        /* \"#utility.yul\":10944:11363   */\n    tag_85:\n        /* \"#utility.yul\":11110:11114   */\n      0x00\n        /* \"#utility.yul\":11148:11150   */\n      0x20\n        /* \"#utility.yul\":11137:11146   */\n      dup3\n        /* \"#utility.yul\":11133:11151   */\n      add\n        /* \"#utility.yul\":11125:11151   */\n      swap1\n      pop\n        /* \"#utility.yul\":11197:11206   */\n      dup2\n        /* \"#utility.yul\":11191:11195   */\n      dup2\n        /* \"#utility.yul\":11187:11207   */\n      sub\n        /* \"#utility.yul\":11183:11184   */\n      0x00\n        /* \"#utility.yul\":11172:11181   */\n      dup4\n        /* \"#utility.yul\":11168:11185   */\n      add\n        /* \"#utility.yul\":11161:11208   */\n      mstore\n        /* \"#utility.yul\":11225:11356   */\n      tag_248\n        /* \"#utility.yul\":11351:11355   */\n      dup2\n        /* \"#utility.yul\":11225:11356   */\n      tag_135\n      jump\t// in\n    tag_248:\n        /* \"#utility.yul\":11217:11356   */\n      swap1\n      pop\n        /* \"#utility.yul\":10944:11363   */\n      swap2\n      swap1\n      pop\n      jump\t// out\n        /* \"#utility.yul\":11369:11538   */\n    tag_136:\n        /* \"#utility.yul\":11509:11530   */\n      0x4c6f7474657279206e6f74207374617274656400000000000000000000000000\n        /* \"#utility.yul\":11505:11506   */\n      0x00\n        /* \"#utility.yul\":11497:11503   */\n      dup3\n        /* \"#utility.yul\":11493:11507   */\n      add\n        /* \"#utility.yul\":11486:11531   */\n      mstore\n        /* \"#utility.yul\":11369:11538   */\n      pop\n      jump\t// out\n        /* \"#utility.yul\":11544:11910   */\n    tag_137:\n        /* \"#utility.yul\":11686:11689   */\n      0x00\n        /* \"#utility.yul\":11707:11774   */\n      tag_251\n        /* \"#utility.yul\":11771:11773   */\n      0x13\n        /* \"#utility.yul\":11766:11769   */\n      dup4\n        /* \"#utility.yul\":11707:11774   */\n      tag_117\n      jump\t// in\n    tag_251:\n        /* \"#utility.yul\":11700:11774   */\n      swap2\n      pop\n        /* \"#utility.yul\":11783:11876   */\n      tag_252\n        /* \"#utility.yul\":11872:11875   */\n      dup3\n        /* \"#utility.yul\":11783:11876   */\n      tag_136\n      jump\t// in\n    tag_252:\n        /* \"#utility.yul\":11901:11903   */\n      0x20\n        /* \"#utility.yul\":11896:11899   */\n      dup3\n        /* \"#utility.yul\":11892:11904   */\n      add\n        /* \"#utility.yul\":11885:11904   */\n      swap1\n      pop\n        /* \"#utility.yul\":11544:11910   */\n      swap2\n      swap1\n      pop\n      jump\t// out\n        /* \"#utility.yul\":11916:12335   */\n    tag_90:\n        /* \"#utility.yul\":12082:12086   */\n      0x00\n        /* \"#utility.yul\":12120:12122   */\n      0x20\n        /* \"#utility.yul\":12109:12118   */\n      dup3\n        /* \"#utility.yul\":12105:12123   */\n      add\n        /* \"#utility.yul\":12097:12123   */\n      swap1\n      pop\n        /* \"#utility.yul\":12169:12178   */\n      dup2\n        /* \"#utility.yul\":12163:12167   */\n      dup2\n        /* \"#utility.yul\":12159:12179   */\n      sub\n        /* \"#utility.yul\":12155:12156   */\n      0x00\n        /* \"#utility.yul\":12144:12153   */\n      dup4\n        /* \"#utility.yul\":12140:12157   */\n      add\n        /* \"#utility.yul\":12133:12180   */\n      mstore\n        /* \"#utility.yul\":12197:12328   */\n      tag_254\n        /* \"#utility.yul\":12323:12327   */\n      dup2\n        /* \"#utility.yul\":12197:12328   */\n      tag_137\n      jump\t// in\n    tag_254:\n        /* \"#utility.yul\":12189:12328   */\n      swap1\n      pop\n        /* \"#utility.yul\":11916:12335   */\n      swap2\n      swap1\n      pop\n      jump\t// out\n        /* \"#utility.yul\":12341:12500   */\n    tag_138:\n        /* \"#utility.yul\":12481:12492   */\n      0x546f6f206561726c790000000000000000000000000000000000000000000000\n        /* \"#utility.yul\":12477:12478   */\n      0x00\n        /* \"#utility.yul\":12469:12475   */\n      dup3\n        /* \"#utility.yul\":12465:12479   */\n      add\n        /* \"#utility.yul\":12458:12493   */\n      mstore\n        /* \"#utility.yul\":12341:12500   */\n      pop\n      jump\t// out\n        /* \"#utility.yul\":12506:12871   */\n    tag_139:\n        /* \"#utility.yul\":12648:12651   */\n      0x00\n        /* \"#utility.yul\":12669:12735   */\n      tag_257\n        /* \"#utility.yul\":12733:12734   */\n      0x09\n        /* \"#utility.yul\":12728:12731   */\n      dup4\n        /* \"#utility.yul\":12669:12735   */\n      tag_117\n      jump\t// in\n    tag_257:\n        /* \"#utility.yul\":12662:12735   */\n      swap2\n      pop\n        /* \"#utility.yul\":12744:12837   */\n      tag_258\n        /* \"#utility.yul\":12833:12836   */\n      dup3\n        /* \"#utility.yul\":12744:12837   */\n      tag_138\n      jump\t// in\n    tag_258:\n        /* \"#utility.yul\":12862:12864   */\n      0x20\n        /* \"#utility.yul\":12857:12860   */\n      dup3\n        /* \"#utility.yul\":12853:12865   */\n      add\n        /* \"#utility.yul\":12846:12865   */\n      swap1\n      pop\n        /* \"#utility.yul\":12506:12871   */\n      swap2\n      swap1\n      pop\n      jump\t// out\n        /* \"#utility.yul\":12877:13296   */\n    tag_93:\n        /* \"#utility.yul\":13043:13047   */\n      0x00\n        /* \"#utility.yul\":13081:13083   */\n      0x20\n        /* \"#utility.yul\":13070:13079   */\n      dup3\n        /* \"#utility.yul\":13066:13084   */\n      add\n        /* \"#utility.yul\":13058:13084   */\n      swap1\n      pop\n        /* \"#utility.yul\":13130:13139   */\n      dup2\n        /* \"#utility.yul\":13124:13128   */\n      dup2\n        /* \"#utility.yul\":13120:13140   */\n      sub\n        /* \"#utility.yul\":13116:13117   */\n      0x00\n        /* \"#utility.yul\":13105:13114   */\n      dup4\n        /* \"#utility.yul\":13101:13118   */\n      add\n        /* \"#utility.yul\":13094:13141   */\n      mstore\n        /* \"#utility.yul\":13158:13289   */\n      tag_260\n        /* \"#utility.yul\":13284:13288   */\n      dup2\n        /* \"#utility.yul\":13158:13289   */\n      tag_139\n      jump\t// in\n    tag_260:\n        /* \"#utility.yul\":13150:13289   */\n      swap1\n      pop\n        /* \"#utility.yul\":12877:13296   */\n      swap2\n      swap1\n      pop\n      jump\t// out\n\n    auxdata: 0xa264697066735822122011cc663fcf7a50d05b44ab004f9c9a01774c71f68593978505253ca3cecc9de164736f6c634300081e0033\n}\n",
				"bytecode": {
					"linkReferences": {},
					"object": "608060405234801561000f575f5ffd5b50604051610f45380380610f45833981810160405281019061003191906100dc565b806007819055505f6004819055505f600681905550600160085f6101000a81548160ff021916908315150217905550335f5f6101000a81548173ffffffffffffffffffffffffffffffffffffffff021916908373ffffffffffffffffffffffffffffffffffffffff16021790555050610107565b5f5ffd5b5f819050919050565b6100bb816100a9565b81146100c5575f5ffd5b50565b5f815190506100d6816100b2565b92915050565b5f602082840312156100f1576100f06100a5565b5b5f6100fe848285016100c8565b91505092915050565b610e31806101145f395ff3fe608060405234801561000f575f5ffd5b506004361061007b575f3560e01c8063ba829d7111610059578063ba829d71146100c3578063c2ca0ac5146100e1578063f14fcbc8146100fd578063f7ec2f35146101195761007b565b80631593a8c71461007f578063160344e2146100895780637b43a8e614610093575b5f5ffd5b610087610137565b005b6100916103d1565b005b6100ad60048036038101906100a891906107fc565b6104d8565b6040516100ba919061083f565b60405180910390f35b6100cb6104ed565b6040516100d89190610870565b60405180910390f35b6100fb60048036038101906100f691906108b3565b6104f3565b005b61011760048036038101906101129190610908565b610682565b005b610121610750565b60405161012e919061094d565b60405180910390f35b5f5f9054906101000a900473ffffffffffffffffffffffffffffffffffffffff1673ffffffffffffffffffffffffffffffffffffffff163373ffffffffffffffffffffffffffffffffffffffff16146101c5576040517f08c379a00000000000000000000000000000000000000000000000000000000081526004016101bc906109c0565b60405180910390fd5b60065442101561020a576040517f08c379a000000000000000000000000000000000000000000000000000000000815260040161020190610a28565b60405180910390fd5b5f60038054905011610251576040517f08c379a000000000000000000000000000000000000000000000000000000000815260040161024890610a90565b60405180910390fd5b5f5f90505f5f90505b6003805490508110156102fa5760025f6003838154811061027e5761027d610aae565b5b905f5260205f20015f9054906101000a900473ffffffffffffffffffffffffffffffffffffffff1673ffffffffffffffffffffffffffffffffffffffff1673ffffffffffffffffffffffffffffffffffffffff1681526020019081526020015f2054826102eb9190610b08565b9150808060010191505061025a565b50600380805490508261030d9190610b68565b8154811061031e5761031d610aae565b5b905f5260205f20015f9054906101000a900473ffffffffffffffffffffffffffffffffffffffff1673ffffffffffffffffffffffffffffffffffffffff166325803d646123286040518263ffffffff1660e01b81526004016103809190610bda565b5f6040518083038186803b158015610396575f5ffd5b505afa1580156103a8573d5f5f3e3d5ffd5b505050505f6004819055505f6005819055505f60068190555060035f6103ce9190610765565b50565b5f5f9054906101000a900473ffffffffffffffffffffffffffffffffffffffff1673ffffffffffffffffffffffffffffffffffffffff163373ffffffffffffffffffffffffffffffffffffffff161461045f576040517f08c379a0000000000000000000000000000000000000000000000000000000008152600401610456906109c0565b60405180910390fd5b5f600454146104a3576040517f08c379a000000000000000000000000000000000000000000000000000000000815260040161049a90610c3d565b60405180910390fd5b426004819055506007546004546104ba9190610b08565b6005819055506007546005546104d09190610b08565b600681905550565b6001602052805f5260405f205f915090505481565b60055481565b600554421015610538576040517f08c379a000000000000000000000000000000000000000000000000000000000815260040161052f90610ca5565b60405180910390fd5b60015f3373ffffffffffffffffffffffffffffffffffffffff1673ffffffffffffffffffffffffffffffffffffffff1681526020019081526020015f2054816040516020016105879190610870565b60405160208183030381529060405280519060200120146105dd576040517f08c379a00000000000000000000000000000000000000000000000000000000081526004016105d490610d0d565b60405180910390fd5b600333908060018154018082558091505060019003905f5260205f20015f9091909190916101000a81548173ffffffffffffffffffffffffffffffffffffffff021916908373ffffffffffffffffffffffffffffffffffffffff1602179055508060025f3373ffffffffffffffffffffffffffffffffffffffff1673ffffffffffffffffffffffffffffffffffffffff1681526020019081526020015f208190555050565b5f600454036106c6576040517f08c379a00000000000000000000000000000000000000000000000000000000081526004016106bd90610d75565b60405180910390fd5b60045442101561070b576040517f08c379a000000000000000000000000000000000000000000000000000000000815260040161070290610ddd565b60405180910390fd5b8060015f3373ffffffffffffffffffffffffffffffffffffffff1673ffffffffffffffffffffffffffffffffffffffff1681526020019081526020015f208190555050565b5f60085f9054906101000a900460ff16905090565b5080545f8255905f5260205f20908101906107809190610783565b50565b5b8082111561079a575f815f905550600101610784565b5090565b5f5ffd5b5f73ffffffffffffffffffffffffffffffffffffffff82169050919050565b5f6107cb826107a2565b9050919050565b6107db816107c1565b81146107e5575f5ffd5b50565b5f813590506107f6816107d2565b92915050565b5f602082840312156108115761081061079e565b5b5f61081e848285016107e8565b91505092915050565b5f819050919050565b61083981610827565b82525050565b5f6020820190506108525f830184610830565b92915050565b5f819050919050565b61086a81610858565b82525050565b5f6020820190506108835f830184610861565b92915050565b61089281610858565b811461089c575f5ffd5b50565b5f813590506108ad81610889565b92915050565b5f602082840312156108c8576108c761079e565b5b5f6108d58482850161089f565b91505092915050565b6108e781610827565b81146108f1575f5ffd5b50565b5f81359050610902816108de565b92915050565b5f6020828403121561091d5761091c61079e565b5b5f61092a848285016108f4565b91505092915050565b5f8115159050919050565b61094781610933565b82525050565b5f6020820190506109605f83018461093e565b92915050565b5f82825260208201905092915050565b7f4f6e6c79206f776e6572000000000000000000000000000000000000000000005f82015250565b5f6109aa600a83610966565b91506109b582610976565b602082019050919050565b5f6020820190508181035f8301526109d78161099e565b9050919050565b7f4c6f7474657279206e6f7420656e6465642079657400000000000000000000005f82015250565b5f610a12601583610966565b9150610a1d826109de565b602082019050919050565b5f6020820190508181035f830152610a3f81610a06565b9050919050565b7f4e6f207061727469636970616e747300000000000000000000000000000000005f82015250565b5f610a7a600f83610966565b9150610a8582610a46565b602082019050919050565b5f6020820190508181035f830152610aa781610a6e565b9050919050565b7f4e487b71000000000000000000000000000000000000000000000000000000005f52603260045260245ffd5b7f4e487b71000000000000000000000000000000000000000000000000000000005f52601160045260245ffd5b5f610b1282610858565b9150610b1d83610858565b9250828201905080821115610b3557610b34610adb565b5b92915050565b7f4e487b71000000000000000000000000000000000000000000000000000000005f52601260045260245ffd5b5f610b7282610858565b9150610b7d83610858565b925082610b8d57610b8c610b3b565b5b828206905092915050565b5f819050919050565b5f819050919050565b5f610bc4610bbf610bba84610b98565b610ba1565b610858565b9050919050565b610bd481610baa565b82525050565b5f602082019050610bed5f830184610bcb565b92915050565b7f4c6f747465727920616c726561647920737461727465640000000000000000005f82015250565b5f610c27601783610966565b9150610c3282610bf3565b602082019050919050565b5f6020820190508181035f830152610c5481610c1b565b9050919050565b7f52657665616c207068617365206e6f74207374617274656420796574000000005f82015250565b5f610c8f601c83610966565b9150610c9a82610c5b565b602082019050919050565b5f6020820190508181035f830152610cbc81610c83565b9050919050565b7f496e76616c69642072657665616c0000000000000000000000000000000000005f82015250565b5f610cf7600e83610966565b9150610d0282610cc3565b602082019050919050565b5f6020820190508181035f830152610d2481610ceb565b9050919050565b7f4c6f7474657279206e6f742073746172746564000000000000000000000000005f82015250565b5f610d5f601383610966565b9150610d6a82610d2b565b602082019050919050565b5f6020820190508181035f830152610d8c81610d53565b9050919050565b7f546f6f206561726c7900000000000000000000000000000000000000000000005f82015250565b5f610dc7600983610966565b9150610dd282610d93565b602082019050919050565b5f6020820190508181035f830152610df481610dbb565b905091905056fea264697066735822122011cc663fcf7a50d05b44ab004f9c9a01774c71f68593978505253ca3cecc9de164736f6c634300081e0033",
					"opcodes": "PUSH1 0x80 PUSH1 0x40 MSTORE CALLVALUE DUP1 ISZERO PUSH2 0xF JUMPI PUSH0 PUSH0 REVERT JUMPDEST POP PUSH1 0x40 MLOAD PUSH2 0xF45 CODESIZE SUB DUP1 PUSH2 0xF45 DUP4 CODECOPY DUP2 DUP2 ADD PUSH1 0x40 MSTORE DUP2 ADD SWAP1 PUSH2 0x31 SWAP2 SWAP1 PUSH2 0xDC JUMP JUMPDEST DUP1 PUSH1 0x7 DUP2 SWAP1 SSTORE POP PUSH0 PUSH1 0x4 DUP2 SWAP1 SSTORE POP PUSH0 PUSH1 0x6 DUP2 SWAP1 SSTORE POP PUSH1 0x1 PUSH1 0x8 PUSH0 PUSH2 0x100 EXP DUP2 SLOAD DUP2 PUSH1 0xFF MUL NOT AND SWAP1 DUP4 ISZERO ISZERO MUL OR SWAP1 SSTORE POP CALLER PUSH0 PUSH0 PUSH2 0x100 EXP DUP2 SLOAD DUP2 PUSH20 0xFFFFFFFFFFFFFFFFFFFFFFFFFFFFFFFFFFFFFFFF MUL NOT AND SWAP1 DUP4 PUSH20 0xFFFFFFFFFFFFFFFFFFFFFFFFFFFFFFFFFFFFFFFF AND MUL OR SWAP1 SSTORE POP POP PUSH2 0x107 JUMP JUMPDEST PUSH0 PUSH0 REVERT JUMPDEST PUSH0 DUP2 SWAP1 POP SWAP2 SWAP1 POP JUMP JUMPDEST PUSH2 0xBB DUP2 PUSH2 0xA9 JUMP JUMPDEST DUP2 EQ PUSH2 0xC5 JUMPI PUSH0 PUSH0 REVERT JUMPDEST POP JUMP JUMPDEST PUSH0 DUP2 MLOAD SWAP1 POP PUSH2 0xD6 DUP2 PUSH2 0xB2 JUMP JUMPDEST SWAP3 SWAP2 POP POP JUMP JUMPDEST PUSH0 PUSH1 0x20 DUP3 DUP5 SUB SLT ISZERO PUSH2 0xF1 JUMPI PUSH2 0xF0 PUSH2 0xA5 JUMP JUMPDEST JUMPDEST PUSH0 PUSH2 0xFE DUP5 DUP3 DUP6 ADD PUSH2 0xC8 JUMP JUMPDEST SWAP2 POP POP SWAP3 SWAP2 POP POP JUMP JUMPDEST PUSH2 0xE31 DUP1 PUSH2 0x114 PUSH0 CODECOPY PUSH0 RETURN INVALID PUSH1 0x80 PUSH1 0x40 MSTORE CALLVALUE DUP1 ISZERO PUSH2 0xF JUMPI PUSH0 PUSH0 REVERT JUMPDEST POP PUSH1 0x4 CALLDATASIZE LT PUSH2 0x7B JUMPI PUSH0 CALLDATALOAD PUSH1 0xE0 SHR DUP1 PUSH4 0xBA829D71 GT PUSH2 0x59 JUMPI DUP1 PUSH4 0xBA829D71 EQ PUSH2 0xC3 JUMPI DUP1 PUSH4 0xC2CA0AC5 EQ PUSH2 0xE1 JUMPI DUP1 PUSH4 0xF14FCBC8 EQ PUSH2 0xFD JUMPI DUP1 PUSH4 0xF7EC2F35 EQ PUSH2 0x119 JUMPI PUSH2 0x7B JUMP JUMPDEST DUP1 PUSH4 0x1593A8C7 EQ PUSH2 0x7F JUMPI DUP1 PUSH4 0x160344E2 EQ PUSH2 0x89 JUMPI DUP1 PUSH4 0x7B43A8E6 EQ PUSH2 0x93 JUMPI JUMPDEST PUSH0 PUSH0 REVERT JUMPDEST PUSH2 0x87 PUSH2 0x137 JUMP JUMPDEST STOP JUMPDEST PUSH2 0x91 PUSH2 0x3D1 JUMP JUMPDEST STOP JUMPDEST PUSH2 0xAD PUSH1 0x4 DUP1 CALLDATASIZE SUB DUP2 ADD SWAP1 PUSH2 0xA8 SWAP2 SWAP1 PUSH2 0x7FC JUMP JUMPDEST PUSH2 0x4D8 JUMP JUMPDEST PUSH1 0x40 MLOAD PUSH2 0xBA SWAP2 SWAP1 PUSH2 0x83F JUMP JUMPDEST PUSH1 0x40 MLOAD DUP1 SWAP2 SUB SWAP1 RETURN JUMPDEST PUSH2 0xCB PUSH2 0x4ED JUMP JUMPDEST PUSH1 0x40 MLOAD PUSH2 0xD8 SWAP2 SWAP1 PUSH2 0x870 JUMP JUMPDEST PUSH1 0x40 MLOAD DUP1 SWAP2 SUB SWAP1 RETURN JUMPDEST PUSH2 0xFB PUSH1 0x4 DUP1 CALLDATASIZE SUB DUP2 ADD SWAP1 PUSH2 0xF6 SWAP2 SWAP1 PUSH2 0x8B3 JUMP JUMPDEST PUSH2 0x4F3 JUMP JUMPDEST STOP JUMPDEST PUSH2 0x117 PUSH1 0x4 DUP1 CALLDATASIZE SUB DUP2 ADD SWAP1 PUSH2 0x112 SWAP2 SWAP1 PUSH2 0x908 JUMP JUMPDEST PUSH2 0x682 JUMP JUMPDEST STOP JUMPDEST PUSH2 0x121 PUSH2 0x750 JUMP JUMPDEST PUSH1 0x40 MLOAD PUSH2 0x12E SWAP2 SWAP1 PUSH2 0x94D JUMP JUMPDEST PUSH1 0x40 MLOAD DUP1 SWAP2 SUB SWAP1 RETURN JUMPDEST PUSH0 PUSH0 SWAP1 SLOAD SWAP1 PUSH2 0x100 EXP SWAP1 DIV PUSH20 0xFFFFFFFFFFFFFFFFFFFFFFFFFFFFFFFFFFFFFFFF AND PUSH20 0xFFFFFFFFFFFFFFFFFFFFFFFFFFFFFFFFFFFFFFFF AND CALLER PUSH20 0xFFFFFFFFFFFFFFFFFFFFFFFFFFFFFFFFFFFFFFFF AND EQ PUSH2 0x1C5 JUMPI PUSH1 0x40 MLOAD PUSH32 0x8C379A000000000000000000000000000000000000000000000000000000000 DUP2 MSTORE PUSH1 0x4 ADD PUSH2 0x1BC SWAP1 PUSH2 0x9C0 JUMP JUMPDEST PUSH1 0x40 MLOAD DUP1 SWAP2 SUB SWAP1 REVERT JUMPDEST PUSH1 0x6 SLOAD TIMESTAMP LT ISZERO PUSH2 0x20A JUMPI PUSH1 0x40 MLOAD PUSH32 0x8C379A000000000000000000000000000000000000000000000000000000000 DUP2 MSTORE PUSH1 0x4 ADD PUSH2 0x201 SWAP1 PUSH2 0xA28 JUMP JUMPDEST PUSH1 0x40 MLOAD DUP1 SWAP2 SUB SWAP1 REVERT JUMPDEST PUSH0 PUSH1 0x3 DUP1 SLOAD SWAP1 POP GT PUSH2 0x251 JUMPI PUSH1 0x40 MLOAD PUSH32 0x8C379A000000000000000000000000000000000000000000000000000000000 DUP2 MSTORE PUSH1 0x4 ADD PUSH2 0x248 SWAP1 PUSH2 0xA90 JUMP JUMPDEST PUSH1 0x40 MLOAD DUP1 SWAP2 SUB SWAP1 REVERT JUMPDEST PUSH0 PUSH0 SWAP1 POP PUSH0 PUSH0 SWAP1 POP JUMPDEST PUSH1 0x3 DUP1 SLOAD SWAP1 POP DUP2 LT ISZERO PUSH2 0x2FA JUMPI PUSH1 0x2 PUSH0 PUSH1 0x3 DUP4 DUP2 SLOAD DUP2 LT PUSH2 0x27E JUMPI PUSH2 0x27D PUSH2 0xAAE JUMP JUMPDEST JUMPDEST SWAP1 PUSH0 MSTORE PUSH1 0x20 PUSH0 KECCAK256 ADD PUSH0 SWAP1 SLOAD SWAP1 PUSH2 0x100 EXP SWAP1 DIV PUSH20 0xFFFFFFFFFFFFFFFFFFFFFFFFFFFFFFFFFFFFFFFF AND PUSH20 0xFFFFFFFFFFFFFFFFFFFFFFFFFFFFFFFFFFFFFFFF AND PUSH20 0xFFFFFFFFFFFFFFFFFFFFFFFFFFFFFFFFFFFFFFFF AND DUP2 MSTORE PUSH1 0x20 ADD SWAP1 DUP2 MSTORE PUSH1 0x20 ADD PUSH0 KECCAK256 SLOAD DUP3 PUSH2 0x2EB SWAP2 SWAP1 PUSH2 0xB08 JUMP JUMPDEST SWAP2 POP DUP1 DUP1 PUSH1 0x1 ADD SWAP2 POP POP PUSH2 0x25A JUMP JUMPDEST POP PUSH1 0x3 DUP1 DUP1 SLOAD SWAP1 POP DUP3 PUSH2 0x30D SWAP2 SWAP1 PUSH2 0xB68 JUMP JUMPDEST DUP2 SLOAD DUP2 LT PUSH2 0x31E JUMPI PUSH2 0x31D PUSH2 0xAAE JUMP JUMPDEST JUMPDEST SWAP1 PUSH0 MSTORE PUSH1 0x20 PUSH0 KECCAK256 ADD PUSH0 SWAP1 SLOAD SWAP1 PUSH2 0x100 EXP SWAP1 DIV PUSH20 0xFFFFFFFFFFFFFFFFFFFFFFFFFFFFFFFFFFFFFFFF AND PUSH20 0xFFFFFFFFFFFFFFFFFFFFFFFFFFFFFFFFFFFFFFFF AND PUSH4 0x25803D64 PUSH2 0x2328 PUSH1 0x40 MLOAD DUP3 PUSH4 0xFFFFFFFF AND PUSH1 0xE0 SHL DUP2 MSTORE PUSH1 0x4 ADD PUSH2 0x380 SWAP2 SWAP1 PUSH2 0xBDA JUMP JUMPDEST PUSH0 PUSH1 0x40 MLOAD DUP1 DUP4 SUB DUP2 DUP7 DUP1 EXTCODESIZE ISZERO DUP1 ISZERO PUSH2 0x396 JUMPI PUSH0 PUSH0 REVERT JUMPDEST POP GAS STATICCALL ISZERO DUP1 ISZERO PUSH2 0x3A8 JUMPI RETURNDATASIZE PUSH0 PUSH0 RETURNDATACOPY RETURNDATASIZE PUSH0 REVERT JUMPDEST POP POP POP POP PUSH0 PUSH1 0x4 DUP2 SWAP1 SSTORE POP PUSH0 PUSH1 0x5 DUP2 SWAP1 SSTORE POP PUSH0 PUSH1 0x6 DUP2 SWAP1 SSTORE POP PUSH1 0x3 PUSH0 PUSH2 0x3CE SWAP2 SWAP1 PUSH2 0x765 JUMP JUMPDEST POP JUMP JUMPDEST PUSH0 PUSH0 SWAP1 SLOAD SWAP1 PUSH2 0x100 EXP SWAP1 DIV PUSH20 0xFFFFFFFFFFFFFFFFFFFFFFFFFFFFFFFFFFFFFFFF AND PUSH20 0xFFFFFFFFFFFFFFFFFFFFFFFFFFFFFFFFFFFFFFFF AND CALLER PUSH20 0xFFFFFFFFFFFFFFFFFFFFFFFFFFFFFFFFFFFFFFFF AND EQ PUSH2 0x45F JUMPI PUSH1 0x40 MLOAD PUSH32 0x8C379A000000000000000000000000000000000000000000000000000000000 DUP2 MSTORE PUSH1 0x4 ADD PUSH2 0x456 SWAP1 PUSH2 0x9C0 JUMP JUMPDEST PUSH1 0x40 MLOAD DUP1 SWAP2 SUB SWAP1 REVERT JUMPDEST PUSH0 PUSH1 0x4 SLOAD EQ PUSH2 0x4A3 JUMPI PUSH1 0x40 MLOAD PUSH32 0x8C379A000000000000000000000000000000000000000000000000000000000 DUP2 MSTORE PUSH1 0x4 ADD PUSH2 0x49A SWAP1 PUSH2 0xC3D JUMP JUMPDEST PUSH1 0x40 MLOAD DUP1 SWAP2 SUB SWAP1 REVERT JUMPDEST TIMESTAMP PUSH1 0x4 DUP2 SWAP1 SSTORE POP PUSH1 0x7 SLOAD PUSH1 0x4 SLOAD PUSH2 0x4BA SWAP2 SWAP1 PUSH2 0xB08 JUMP JUMPDEST PUSH1 0x5 DUP2 SWAP1 SSTORE POP PUSH1 0x7 SLOAD PUSH1 0x5 SLOAD PUSH2 0x4D0 SWAP2 SWAP1 PUSH2 0xB08 JUMP JUMPDEST PUSH1 0x6 DUP2 SWAP1 SSTORE POP JUMP JUMPDEST PUSH1 0x1 PUSH1 0x20 MSTORE DUP1 PUSH0 MSTORE PUSH1 0x40 PUSH0 KECCAK256 PUSH0 SWAP2 POP SWAP1 POP SLOAD DUP2 JUMP JUMPDEST PUSH1 0x5 SLOAD DUP2 JUMP JUMPDEST PUSH1 0x5 SLOAD TIMESTAMP LT ISZERO PUSH2 0x538 JUMPI PUSH1 0x40 MLOAD PUSH32 0x8C379A000000000000000000000000000000000000000000000000000000000 DUP2 MSTORE PUSH1 0x4 ADD PUSH2 0x52F SWAP1 PUSH2 0xCA5 JUMP JUMPDEST PUSH1 0x40 MLOAD DUP1 SWAP2 SUB SWAP1 REVERT JUMPDEST PUSH1 0x1 PUSH0 CALLER PUSH20 0xFFFFFFFFFFFFFFFFFFFFFFFFFFFFFFFFFFFFFFFF AND PUSH20 0xFFFFFFFFFFFFFFFFFFFFFFFFFFFFFFFFFFFFFFFF AND DUP2 MSTORE PUSH1 0x20 ADD SWAP1 DUP2 MSTORE PUSH1 0x20 ADD PUSH0 KECCAK256 SLOAD DUP2 PUSH1 0x40 MLOAD PUSH1 0x20 ADD PUSH2 0x587 SWAP2 SWAP1 PUSH2 0x870 JUMP JUMPDEST PUSH1 0x40 MLOAD PUSH1 0x20 DUP2 DUP4 SUB SUB DUP2 MSTORE SWAP1 PUSH1 0x40 MSTORE DUP1 MLOAD SWAP1 PUSH1 0x20 ADD KECCAK256 EQ PUSH2 0x5DD JUMPI PUSH1 0x40 MLOAD PUSH32 0x8C379A000000000000000000000000000000000000000000000000000000000 DUP2 MSTORE PUSH1 0x4 ADD PUSH2 0x5D4 SWAP1 PUSH2 0xD0D JUMP JUMPDEST PUSH1 0x40 MLOAD DUP1 SWAP2 SUB SWAP1 REVERT JUMPDEST PUSH1 0x3 CALLER SWAP1 DUP1 PUSH1 0x1 DUP2 SLOAD ADD DUP1 DUP3 SSTORE DUP1 SWAP2 POP POP PUSH1 0x1 SWAP1 SUB SWAP1 PUSH0 MSTORE PUSH1 0x20 PUSH0 KECCAK256 ADD PUSH0 SWAP1 SWAP2 SWAP1 SWAP2 SWAP1 SWAP2 PUSH2 0x100 EXP DUP2 SLOAD DUP2 PUSH20 0xFFFFFFFFFFFFFFFFFFFFFFFFFFFFFFFFFFFFFFFF MUL NOT AND SWAP1 DUP4 PUSH20 0xFFFFFFFFFFFFFFFFFFFFFFFFFFFFFFFFFFFFFFFF AND MUL OR SWAP1 SSTORE POP DUP1 PUSH1 0x2 PUSH0 CALLER PUSH20 0xFFFFFFFFFFFFFFFFFFFFFFFFFFFFFFFFFFFFFFFF AND PUSH20 0xFFFFFFFFFFFFFFFFFFFFFFFFFFFFFFFFFFFFFFFF AND DUP2 MSTORE PUSH1 0x20 ADD SWAP1 DUP2 MSTORE PUSH1 0x20 ADD PUSH0 KECCAK256 DUP2 SWAP1 SSTORE POP POP JUMP JUMPDEST PUSH0 PUSH1 0x4 SLOAD SUB PUSH2 0x6C6 JUMPI PUSH1 0x40 MLOAD PUSH32 0x8C379A000000000000000000000000000000000000000000000000000000000 DUP2 MSTORE PUSH1 0x4 ADD PUSH2 0x6BD SWAP1 PUSH2 0xD75 JUMP JUMPDEST PUSH1 0x40 MLOAD DUP1 SWAP2 SUB SWAP1 REVERT JUMPDEST PUSH1 0x4 SLOAD TIMESTAMP LT ISZERO PUSH2 0x70B JUMPI PUSH1 0x40 MLOAD PUSH32 0x8C379A000000000000000000000000000000000000000000000000000000000 DUP2 MSTORE PUSH1 0x4 ADD PUSH2 0x702 SWAP1 PUSH2 0xDDD JUMP JUMPDEST PUSH1 0x40 MLOAD DUP1 SWAP2 SUB SWAP1 REVERT JUMPDEST DUP1 PUSH1 0x1 PUSH0 CALLER PUSH20 0xFFFFFFFFFFFFFFFFFFFFFFFFFFFFFFFFFFFFFFFF AND PUSH20 0xFFFFFFFFFFFFFFFFFFFFFFFFFFFFFFFFFFFFFFFF AND DUP2 MSTORE PUSH1 0x20 ADD SWAP1 DUP2 MSTORE PUSH1 0x20 ADD PUSH0 KECCAK256 DUP2 SWAP1 SSTORE POP POP JUMP JUMPDEST PUSH0 PUSH1 0x8 PUSH0 SWAP1 SLOAD SWAP1 PUSH2 0x100 EXP SWAP1 DIV PUSH1 0xFF AND SWAP1 POP SWAP1 JUMP JUMPDEST POP DUP1 SLOAD PUSH0 DUP3 SSTORE SWAP1 PUSH0 MSTORE PUSH1 0x20 PUSH0 KECCAK256 SWAP1 DUP2 ADD SWAP1 PUSH2 0x780 SWAP2 SWAP1 PUSH2 0x783 JUMP JUMPDEST POP JUMP JUMPDEST JUMPDEST DUP1 DUP3 GT ISZERO PUSH2 0x79A JUMPI PUSH0 DUP2 PUSH0 SWAP1 SSTORE POP PUSH1 0x1 ADD PUSH2 0x784 JUMP JUMPDEST POP SWAP1 JUMP JUMPDEST PUSH0 PUSH0 REVERT JUMPDEST PUSH0 PUSH20 0xFFFFFFFFFFFFFFFFFFFFFFFFFFFFFFFFFFFFFFFF DUP3 AND SWAP1 POP SWAP2 SWAP1 POP JUMP JUMPDEST PUSH0 PUSH2 0x7CB DUP3 PUSH2 0x7A2 JUMP JUMPDEST SWAP1 POP SWAP2 SWAP1 POP JUMP JUMPDEST PUSH2 0x7DB DUP2 PUSH2 0x7C1 JUMP JUMPDEST DUP2 EQ PUSH2 0x7E5 JUMPI PUSH0 PUSH0 REVERT JUMPDEST POP JUMP JUMPDEST PUSH0 DUP2 CALLDATALOAD SWAP1 POP PUSH2 0x7F6 DUP2 PUSH2 0x7D2 JUMP JUMPDEST SWAP3 SWAP2 POP POP JUMP JUMPDEST PUSH0 PUSH1 0x20 DUP3 DUP5 SUB SLT ISZERO PUSH2 0x811 JUMPI PUSH2 0x810 PUSH2 0x79E JUMP JUMPDEST JUMPDEST PUSH0 PUSH2 0x81E DUP5 DUP3 DUP6 ADD PUSH2 0x7E8 JUMP JUMPDEST SWAP2 POP POP SWAP3 SWAP2 POP POP JUMP JUMPDEST PUSH0 DUP2 SWAP1 POP SWAP2 SWAP1 POP JUMP JUMPDEST PUSH2 0x839 DUP2 PUSH2 0x827 JUMP JUMPDEST DUP3 MSTORE POP POP JUMP JUMPDEST PUSH0 PUSH1 0x20 DUP3 ADD SWAP1 POP PUSH2 0x852 PUSH0 DUP4 ADD DUP5 PUSH2 0x830 JUMP JUMPDEST SWAP3 SWAP2 POP POP JUMP JUMPDEST PUSH0 DUP2 SWAP1 POP SWAP2 SWAP1 POP JUMP JUMPDEST PUSH2 0x86A DUP2 PUSH2 0x858 JUMP JUMPDEST DUP3 MSTORE POP POP JUMP JUMPDEST PUSH0 PUSH1 0x20 DUP3 ADD SWAP1 POP PUSH2 0x883 PUSH0 DUP4 ADD DUP5 PUSH2 0x861 JUMP JUMPDEST SWAP3 SWAP2 POP POP JUMP JUMPDEST PUSH2 0x892 DUP2 PUSH2 0x858 JUMP JUMPDEST DUP2 EQ PUSH2 0x89C JUMPI PUSH0 PUSH0 REVERT JUMPDEST POP JUMP JUMPDEST PUSH0 DUP2 CALLDATALOAD SWAP1 POP PUSH2 0x8AD DUP2 PUSH2 0x889 JUMP JUMPDEST SWAP3 SWAP2 POP POP JUMP JUMPDEST PUSH0 PUSH1 0x20 DUP3 DUP5 SUB SLT ISZERO PUSH2 0x8C8 JUMPI PUSH2 0x8C7 PUSH2 0x79E JUMP JUMPDEST JUMPDEST PUSH0 PUSH2 0x8D5 DUP5 DUP3 DUP6 ADD PUSH2 0x89F JUMP JUMPDEST SWAP2 POP POP SWAP3 SWAP2 POP POP JUMP JUMPDEST PUSH2 0x8E7 DUP2 PUSH2 0x827 JUMP JUMPDEST DUP2 EQ PUSH2 0x8F1 JUMPI PUSH0 PUSH0 REVERT JUMPDEST POP JUMP JUMPDEST PUSH0 DUP2 CALLDATALOAD SWAP1 POP PUSH2 0x902 DUP2 PUSH2 0x8DE JUMP JUMPDEST SWAP3 SWAP2 POP POP JUMP JUMPDEST PUSH0 PUSH1 0x20 DUP3 DUP5 SUB SLT ISZERO PUSH2 0x91D JUMPI PUSH2 0x91C PUSH2 0x79E JUMP JUMPDEST JUMPDEST PUSH0 PUSH2 0x92A DUP5 DUP3 DUP6 ADD PUSH2 0x8F4 JUMP JUMPDEST SWAP2 POP POP SWAP3 SWAP2 POP POP JUMP JUMPDEST PUSH0 DUP2 ISZERO ISZERO SWAP1 POP SWAP2 SWAP1 POP JUMP JUMPDEST PUSH2 0x947 DUP2 PUSH2 0x933 JUMP JUMPDEST DUP3 MSTORE POP POP JUMP JUMPDEST PUSH0 PUSH1 0x20 DUP3 ADD SWAP1 POP PUSH2 0x960 PUSH0 DUP4 ADD DUP5 PUSH2 0x93E JUMP JUMPDEST SWAP3 SWAP2 POP POP JUMP JUMPDEST PUSH0 DUP3 DUP3 MSTORE PUSH1 0x20 DUP3 ADD SWAP1 POP SWAP3 SWAP2 POP POP JUMP JUMPDEST PUSH32 0x4F6E6C79206F776E657200000000000000000000000000000000000000000000 PUSH0 DUP3 ADD MSTORE POP JUMP JUMPDEST PUSH0 PUSH2 0x9AA PUSH1 0xA DUP4 PUSH2 0x966 JUMP JUMPDEST SWAP2 POP PUSH2 0x9B5 DUP3 PUSH2 0x976 JUMP JUMPDEST PUSH1 0x20 DUP3 ADD SWAP1 POP SWAP2 SWAP1 POP JUMP JUMPDEST PUSH0 PUSH1 0x20 DUP3 ADD SWAP1 POP DUP2 DUP2 SUB PUSH0 DUP4 ADD MSTORE PUSH2 0x9D7 DUP2 PUSH2 0x99E JUMP JUMPDEST SWAP1 POP SWAP2 SWAP1 POP JUMP JUMPDEST PUSH32 0x4C6F7474657279206E6F7420656E646564207965740000000000000000000000 PUSH0 DUP3 ADD MSTORE POP JUMP JUMPDEST PUSH0 PUSH2 0xA12 PUSH1 0x15 DUP4 PUSH2 0x966 JUMP JUMPDEST SWAP2 POP PUSH2 0xA1D DUP3 PUSH2 0x9DE JUMP JUMPDEST PUSH1 0x20 DUP3 ADD SWAP1 POP SWAP2 SWAP1 POP JUMP JUMPDEST PUSH0 PUSH1 0x20 DUP3 ADD SWAP1 POP DUP2 DUP2 SUB PUSH0 DUP4 ADD MSTORE PUSH2 0xA3F DUP2 PUSH2 0xA06 JUMP JUMPDEST SWAP1 POP SWAP2 SWAP1 POP JUMP JUMPDEST PUSH32 0x4E6F207061727469636970616E74730000000000000000000000000000000000 PUSH0 DUP3 ADD MSTORE POP JUMP JUMPDEST PUSH0 PUSH2 0xA7A PUSH1 0xF DUP4 PUSH2 0x966 JUMP JUMPDEST SWAP2 POP PUSH2 0xA85 DUP3 PUSH2 0xA46 JUMP JUMPDEST PUSH1 0x20 DUP3 ADD SWAP1 POP SWAP2 SWAP1 POP JUMP JUMPDEST PUSH0 PUSH1 0x20 DUP3 ADD SWAP1 POP DUP2 DUP2 SUB PUSH0 DUP4 ADD MSTORE PUSH2 0xAA7 DUP2 PUSH2 0xA6E JUMP JUMPDEST SWAP1 POP SWAP2 SWAP1 POP JUMP JUMPDEST PUSH32 0x4E487B7100000000000000000000000000000000000000000000000000000000 PUSH0 MSTORE PUSH1 0x32 PUSH1 0x4 MSTORE PUSH1 0x24 PUSH0 REVERT JUMPDEST PUSH32 0x4E487B7100000000000000000000000000000000000000000000000000000000 PUSH0 MSTORE PUSH1 0x11 PUSH1 0x4 MSTORE PUSH1 0x24 PUSH0 REVERT JUMPDEST PUSH0 PUSH2 0xB12 DUP3 PUSH2 0x858 JUMP JUMPDEST SWAP2 POP PUSH2 0xB1D DUP4 PUSH2 0x858 JUMP JUMPDEST SWAP3 POP DUP3 DUP3 ADD SWAP1 POP DUP1 DUP3 GT ISZERO PUSH2 0xB35 JUMPI PUSH2 0xB34 PUSH2 0xADB JUMP JUMPDEST JUMPDEST SWAP3 SWAP2 POP POP JUMP JUMPDEST PUSH32 0x4E487B7100000000000000000000000000000000000000000000000000000000 PUSH0 MSTORE PUSH1 0x12 PUSH1 0x4 MSTORE PUSH1 0x24 PUSH0 REVERT JUMPDEST PUSH0 PUSH2 0xB72 DUP3 PUSH2 0x858 JUMP JUMPDEST SWAP2 POP PUSH2 0xB7D DUP4 PUSH2 0x858 JUMP JUMPDEST SWAP3 POP DUP3 PUSH2 0xB8D JUMPI PUSH2 0xB8C PUSH2 0xB3B JUMP JUMPDEST JUMPDEST DUP3 DUP3 MOD SWAP1 POP SWAP3 SWAP2 POP POP JUMP JUMPDEST PUSH0 DUP2 SWAP1 POP SWAP2 SWAP1 POP JUMP JUMPDEST PUSH0 DUP2 SWAP1 POP SWAP2 SWAP1 POP JUMP JUMPDEST PUSH0 PUSH2 0xBC4 PUSH2 0xBBF PUSH2 0xBBA DUP5 PUSH2 0xB98 JUMP JUMPDEST PUSH2 0xBA1 JUMP JUMPDEST PUSH2 0x858 JUMP JUMPDEST SWAP1 POP SWAP2 SWAP1 POP JUMP JUMPDEST PUSH2 0xBD4 DUP2 PUSH2 0xBAA JUMP JUMPDEST DUP3 MSTORE POP POP JUMP JUMPDEST PUSH0 PUSH1 0x20 DUP3 ADD SWAP1 POP PUSH2 0xBED PUSH0 DUP4 ADD DUP5 PUSH2 0xBCB JUMP JUMPDEST SWAP3 SWAP2 POP POP JUMP JUMPDEST PUSH32 0x4C6F747465727920616C72656164792073746172746564000000000000000000 PUSH0 DUP3 ADD MSTORE POP JUMP JUMPDEST PUSH0 PUSH2 0xC27 PUSH1 0x17 DUP4 PUSH2 0x966 JUMP JUMPDEST SWAP2 POP PUSH2 0xC32 DUP3 PUSH2 0xBF3 JUMP JUMPDEST PUSH1 0x20 DUP3 ADD SWAP1 POP SWAP2 SWAP1 POP JUMP JUMPDEST PUSH0 PUSH1 0x20 DUP3 ADD SWAP1 POP DUP2 DUP2 SUB PUSH0 DUP4 ADD MSTORE PUSH2 0xC54 DUP2 PUSH2 0xC1B JUMP JUMPDEST SWAP1 POP SWAP2 SWAP1 POP JUMP JUMPDEST PUSH32 0x52657665616C207068617365206E6F7420737461727465642079657400000000 PUSH0 DUP3 ADD MSTORE POP JUMP JUMPDEST PUSH0 PUSH2 0xC8F PUSH1 0x1C DUP4 PUSH2 0x966 JUMP JUMPDEST SWAP2 POP PUSH2 0xC9A DUP3 PUSH2 0xC5B JUMP JUMPDEST PUSH1 0x20 DUP3 ADD SWAP1 POP SWAP2 SWAP1 POP JUMP JUMPDEST PUSH0 PUSH1 0x20 DUP3 ADD SWAP1 POP DUP2 DUP2 SUB PUSH0 DUP4 ADD MSTORE PUSH2 0xCBC DUP2 PUSH2 0xC83 JUMP JUMPDEST SWAP1 POP SWAP2 SWAP1 POP JUMP JUMPDEST PUSH32 0x496E76616C69642072657665616C000000000000000000000000000000000000 PUSH0 DUP3 ADD MSTORE POP JUMP JUMPDEST PUSH0 PUSH2 0xCF7 PUSH1 0xE DUP4 PUSH2 0x966 JUMP JUMPDEST SWAP2 POP PUSH2 0xD02 DUP3 PUSH2 0xCC3 JUMP JUMPDEST PUSH1 0x20 DUP3 ADD SWAP1 POP SWAP2 SWAP1 POP JUMP JUMPDEST PUSH0 PUSH1 0x20 DUP3 ADD SWAP1 POP DUP2 DUP2 SUB PUSH0 DUP4 ADD MSTORE PUSH2 0xD24 DUP2 PUSH2 0xCEB JUMP JUMPDEST SWAP1 POP SWAP2 SWAP1 POP JUMP JUMPDEST PUSH32 0x4C6F7474657279206E6F74207374617274656400000000000000000000000000 PUSH0 DUP3 ADD MSTORE POP JUMP JUMPDEST PUSH0 PUSH2 0xD5F PUSH1 0x13 DUP4 PUSH2 0x966 JUMP JUMPDEST SWAP2 POP PUSH2 0xD6A DUP3 PUSH2 0xD2B JUMP JUMPDEST PUSH1 0x20 DUP3 ADD SWAP1 POP SWAP2 SWAP1 POP JUMP JUMPDEST PUSH0 PUSH1 0x20 DUP3 ADD SWAP1 POP DUP2 DUP2 SUB PUSH0 DUP4 ADD MSTORE PUSH2 0xD8C DUP2 PUSH2 0xD53 JUMP JUMPDEST SWAP1 POP SWAP2 SWAP1 POP JUMP JUMPDEST PUSH32 0x546F6F206561726C790000000000000000000000000000000000000000000000 PUSH0 DUP3 ADD MSTORE POP JUMP JUMPDEST PUSH0 PUSH2 0xDC7 PUSH1 0x9 DUP4 PUSH2 0x966 JUMP JUMPDEST SWAP2 POP PUSH2 0xDD2 DUP3 PUSH2 0xD93 JUMP JUMPDEST PUSH1 0x20 DUP3 ADD SWAP1 POP SWAP2 SWAP1 POP JUMP JUMPDEST PUSH0 PUSH1 0x20 DUP3 ADD SWAP1 POP DUP2 DUP2 SUB PUSH0 DUP4 ADD MSTORE PUSH2 0xDF4 DUP2 PUSH2 0xDBB JUMP JUMPDEST SWAP1 POP SWAP2 SWAP1 POP JUMP INVALID LOG2 PUSH5 0x6970667358 0x22 SLT KECCAK256 GT 0xCC PUSH7 0x3FCF7A50D05B44 0xAB STOP 0x4F SWAP13 SWAP11 ADD PUSH24 0x4C71F68593978505253CA3CECC9DE164736F6C634300081E STOP CALLER "
				},
				"gasEstimates": {
					"creation": {
						"codeDepositCost": "726600",
						"executionCost": "infinite",
						"totalCost": "infinite"
					},
					"external": {
						"commit(bytes32)": "26893",
						"commits(address)": "2847",
						"endLottery()": "infinite",
						"isContract()": "2539",
						"reveal(uint256)": "infinite",
						"revealTime()": "2425",
						"startLottery()": "infinite"
					}
				},
				"methodIdentifiers": {
					"commit(bytes32)": "f14fcbc8",
					"commits(address)": "7b43a8e6",
					"endLottery()": "1593a8c7",
					"isContract()": "f7ec2f35",
					"reveal(uint256)": "c2ca0ac5",
					"revealTime()": "ba829d71",
					"startLottery()": "160344e2"
				}
			},
			"storageLayout": {
				"storage": [
					{
						"astId": 4,
						"contract": "Lottery.sol:Lottery",
						"label": "owner",
						"offset": 0,
						"slot": "0",
						"type": "t_address"
					},
					{
						"astId": 8,
						"contract": "Lottery.sol:Lottery",
						"label": "commits",
						"offset": 0,
						"slot": "1",
						"type": "t_mapping(t_address,t_bytes32)"
					},
					{
						"astId": 12,
						"contract": "Lottery.sol:Lottery",
						"label": "reveals",
						"offset": 0,
						"slot": "2",
						"type": "t_mapping(t_address,t_uint256)"
					},
					{
						"astId": 15,
						"contract": "Lottery.sol:Lottery",
						"label": "revealed",
						"offset": 0,
						"slot": "3",
						"type": "t_array(t_address)dyn_storage"
					},
					{
						"astId": 17,
						"contract": "Lottery.sol:Lottery",
						"label": "startTime",
						"offset": 0,
						"slot": "4",
						"type": "t_uint256"
					},
					{
						"astId": 19,
						"contract": "Lottery.sol:Lottery",
						"label": "revealTime",
						"offset": 0,
						"slot": "5",
						"type": "t_uint256"
					},
					{
						"astId": 21,
						"contract": "Lottery.sol:Lottery",
						"label": "endTime",
						"offset": 0,
						"slot": "6",
						"type": "t_uint256"
					},
					{
						"astId": 23,
						"contract": "Lottery.sol:Lottery",
						"label": "period",
						"offset": 0,
						"slot": "7",
						"type": "t_uint256"
					},
					{
						"astId": 25,
						"contract": "Lottery.sol:Lottery",
						"label": "iscontract",
						"offset": 0,
						"slot": "8",
						"type": "t_bool"
					}
				],
				"types": {
					"t_address": {
						"encoding": "inplace",
						"label": "address",
						"numberOfBytes": "20"
					},
					"t_array(t_address)dyn_storage": {
						"base": "t_address",
						"encoding": "dynamic_array",
						"label": "address[]",
						"numberOfBytes": "32"
					},
					"t_bool": {
						"encoding": "inplace",
						"label": "bool",
						"numberOfBytes": "1"
					},
					"t_bytes32": {
						"encoding": "inplace",
						"label": "bytes32",
						"numberOfBytes": "32"
					},
					"t_mapping(t_address,t_bytes32)": {
						"encoding": "mapping",
						"key": "t_address",
						"label": "mapping(address => bytes32)",
						"numberOfBytes": "32",
						"value": "t_bytes32"
					},
					"t_mapping(t_address,t_uint256)": {
						"encoding": "mapping",
						"key": "t_address",
						"label": "mapping(address => uint256)",
						"numberOfBytes": "32",
						"value": "t_uint256"
					},
					"t_uint256": {
						"encoding": "inplace",
						"label": "uint256",
						"numberOfBytes": "32"
					}
				}
			},
			"userdoc": {
				"kind": "user",
				"methods": {},
				"version": 1
			}
		}
	}
}