{
	"data": {
		"bytecode": {
			"linkReferences": {},
			"object": "608060405234801561000f575f5ffd5b505f5f60405161001e90610086565b6100299291906100d2565b604051809103905ff080158015610042573d5f5f3e3d5ffd5b505f5f6101000a81548173ffffffffffffffffffffffffffffffffffffffff021916908373ffffffffffffffffffffffffffffffffffffffff1602179055506100f9565b61372a80610d4f83390190565b5f73ffffffffffffffffffffffffffffffffffffffff82169050919050565b5f6100bc82610093565b9050919050565b6100cc816100b2565b82525050565b5f6040820190506100e55f8301856100c3565b6100f260208301846100c3565b9392505050565b610c49806101065f395ff3fe608060405234801561000f575f5ffd5b5060043610610086575f3560e01c8063c800409f11610059578063c800409f14610102578063d29f5ec214610120578063e4cc509a1461012a578063fb5343f31461014657610086565b8063051a5e8e1461008a5780632191ae94146100a857806334f891c9146100c6578063a2f1309e146100e4575b5f5ffd5b610092610164565b60405161009f91906108da565b60405180910390f35b6100b06101fa565b6040516100bd91906108da565b60405180910390f35b6100ce61034a565b6040516100db91906108da565b60405180910390f35b6100ec61052a565b6040516100f991906108da565b60405180910390f35b61010a610700565b60405161011791906108da565b60405180910390f35b610128610796565b005b610144600480360381019061013f919061092a565b610813565b005b61014e61089c565b60405161015b91906109cf565b60405180910390f35b5f5f5f5f9054906101000a900473ffffffffffffffffffffffffffffffffffffffff1673ffffffffffffffffffffffffffffffffffffffff1663967e6e656040518163ffffffff1660e01b8152600401602060405180830381865afa1580156101cf573d5f5f3e3d5ffd5b505050506040513d601f19601f820116820180604052508101906101f391906109fc565b1015905090565b5f5f5f5f9054906101000a900473ffffffffffffffffffffffffffffffffffffffff1673ffffffffffffffffffffffffffffffffffffffff16633c876c256040518163ffffffff1660e01b8152600401602060405180830381865afa158015610265573d5f5f3e3d5ffd5b505050506040513d601f19601f8201168201806040525081019061028991906109fc565b90505f5f5f9054906101000a900473ffffffffffffffffffffffffffffffffffffffff1673ffffffffffffffffffffffffffffffffffffffff1663483a931060646040518263ffffffff1660e01b81526004016102e69190610a60565b602060405180830381865afa158015610301573d5f5f3e3d5ffd5b505050506040513d601f19601f8201168201806040525081019061032591906109fc565b90506103e86064836103379190610aa6565b6103419190610b14565b81149250505090565b5f5f5f5f9054906101000a900473ffffffffffffffffffffffffffffffffffffffff1673ffffffffffffffffffffffffffffffffffffffff1663c043decc6040518163ffffffff1660e01b8152600401602060405180830381865afa1580156103b5573d5f5f3e3d5ffd5b505050506040513d601f19601f820116820180604052508101906103d991906109fc565b90505f5f5f9054906101000a900473ffffffffffffffffffffffffffffffffffffffff1673ffffffffffffffffffffffffffffffffffffffff1663967e6e656040518163ffffffff1660e01b8152600401602060405180830381865afa158015610445573d5f5f3e3d5ffd5b505050506040513d601f19601f8201168201806040525081019061046991906109fc565b90505f5f9054906101000a900473ffffffffffffffffffffffffffffffffffffffff1673ffffffffffffffffffffffffffffffffffffffff16638bc877456040518163ffffffff1660e01b8152600401602060405180830381865afa1580156104d4573d5f5f3e3d5ffd5b505050506040513d601f19601f820116820180604052508101906104f89190610b6e565b610520576041811061051257612328821492505050610527565b611388821492505050610527565b6001925050505b90565b5f5f5f5f9054906101000a900473ffffffffffffffffffffffffffffffffffffffff1673ffffffffffffffffffffffffffffffffffffffff1663f247e3de6040518163ffffffff1660e01b8152600401602060405180830381865afa158015610595573d5f5f3e3d5ffd5b505050506040513d601f19601f820116820180604052508101906105b991906109fc565b90505f5f5f9054906101000a900473ffffffffffffffffffffffffffffffffffffffff1673ffffffffffffffffffffffffffffffffffffffff1663c043decc6040518163ffffffff1660e01b8152600401602060405180830381865afa158015610625573d5f5f3e3d5ffd5b505050506040513d601f19601f8201168201806040525081019061064991906109fc565b90508082116106f6575f5f5f9054906101000a900473ffffffffffffffffffffffffffffffffffffffff1673ffffffffffffffffffffffffffffffffffffffff1663483a931060c86040518263ffffffff1660e01b81526004016106ad9190610bd2565b602060405180830381865afa1580156106c8573d5f5f3e3d5ffd5b505050506040513d601f19601f820116820180604052508101906106ec91906109fc565b14925050506106fd565b6001925050505b90565b5f5f5f5f9054906101000a900473ffffffffffffffffffffffffffffffffffffffff1673ffffffffffffffffffffffffffffffffffffffff16633c876c256040518163ffffffff1660e01b8152600401602060405180830381865afa15801561076b573d5f5f3e3d5ffd5b505050506040513d601f19601f8201168201806040525081019061078f91906109fc565b1015905090565b5f5f9054906101000a900473ffffffffffffffffffffffffffffffffffffffff1673ffffffffffffffffffffffffffffffffffffffff166337f65b796040518163ffffffff1660e01b81526004015f604051808303815f87803b1580156107fb575f5ffd5b505af115801561080d573d5f5f3e3d5ffd5b50505050565b5f5f9054906101000a900473ffffffffffffffffffffffffffffffffffffffff1673ffffffffffffffffffffffffffffffffffffffff166314b95631826040518263ffffffff1660e01b815260040161086c9190610bfa565b5f604051808303815f87803b158015610883575f5ffd5b505af1158015610895573d5f5f3e3d5ffd5b5050505050565b5f5f9054906101000a900473ffffffffffffffffffffffffffffffffffffffff1681565b5f8115159050919050565b6108d4816108c0565b82525050565b5f6020820190506108ed5f8301846108cb565b92915050565b5f5ffd5b5f819050919050565b610909816108f7565b8114610913575f5ffd5b50565b5f8135905061092481610900565b92915050565b5f6020828403121561093f5761093e6108f3565b5b5f61094c84828501610916565b91505092915050565b5f73ffffffffffffffffffffffffffffffffffffffff82169050919050565b5f819050919050565b5f61099761099261098d84610955565b610974565b610955565b9050919050565b5f6109a88261097d565b9050919050565b5f6109b98261099e565b9050919050565b6109c9816109af565b82525050565b5f6020820190506109e25f8301846109c0565b92915050565b5f815190506109f681610900565b92915050565b5f60208284031215610a1157610a106108f3565b5b5f610a1e848285016109e8565b91505092915050565b5f819050919050565b5f610a4a610a45610a4084610a27565b610974565b6108f7565b9050919050565b610a5a81610a30565b82525050565b5f602082019050610a735f830184610a51565b92915050565b7f4e487b71000000000000000000000000000000000000000000000000000000005f52601160045260245ffd5b5f610ab0826108f7565b9150610abb836108f7565b9250828202610ac9816108f7565b91508282048414831517610ae057610adf610a79565b5b5092915050565b7f4e487b71000000000000000000000000000000000000000000000000000000005f52601260045260245ffd5b5f610b1e826108f7565b9150610b29836108f7565b925082610b3957610b38610ae7565b5b828204905092915050565b610b4d816108c0565b8114610b57575f5ffd5b50565b5f81519050610b6881610b44565b92915050565b5f60208284031215610b8357610b826108f3565b5b5f610b9084828501610b5a565b91505092915050565b5f819050919050565b5f610bbc610bb7610bb284610b99565b610974565b6108f7565b9050919050565b610bcc81610ba2565b82525050565b5f602082019050610be55f830184610bc3565b92915050565b610bf4816108f7565b82525050565b5f602082019050610c0d5f830184610beb565b9291505056fea26469706673582212204b937de2832b055c41160d870a4643201f20f6740921ded9970d928a04dce40e64736f6c634300081e003360c060405234801561000f575f5ffd5b5060405161372a38038061372a833981810160405281019061003191906101de565b5f5f819055505f60015f6101000a81548160ff0219169083151502179055508160025f6101000a81548173ffffffffffffffffffffffffffffffffffffffff021916908373ffffffffffffffffffffffffffffffffffffffff1602179055508060035f6101000a81548173ffffffffffffffffffffffffffffffffffffffff021916908373ffffffffffffffffffffffffffffffffffffffff1602179055503373ffffffffffffffffffffffffffffffffffffffff1660808173ffffffffffffffffffffffffffffffffffffffff168152505061138860a081815250505f600160026101000a81548173ffffffffffffffffffffffffffffffffffffffff021916908373ffffffffffffffffffffffffffffffffffffffff1602179055505f60058190555060a05160048190555060018060016101000a81548160ff021916908315150217905550505061021c565b5f5ffd5b5f73ffffffffffffffffffffffffffffffffffffffff82169050919050565b5f6101ad82610184565b9050919050565b6101bd816101a3565b81146101c7575f5ffd5b50565b5f815190506101d8816101b4565b92915050565b5f5f604083850312156101f4576101f3610180565b5b5f610201858286016101ca565b9250506020610212858286016101ca565b9150509250929050565b60805160a0516134ae61027c5f395f81816114fd015261215901525f818161080401528181610a0801528181610aa001528181610da201528181611008015281816112780152818161165c01528181611738015261222001526134ae5ff3fe608060405234801561000f575f5ffd5b5060043610610204575f3560e01c8063790aa8de11610118578063c800409f116100ab578063d852545e1161007a578063d852545e14610568578063dfb986a214610586578063dff44b2f146105a4578063f247e3de146105ae578063f7ec2f35146105cc57610204565b8063c800409f146104f4578063cb01a92b14610512578063ccda832a1461052e578063d25d32b61461054c57610204565b8063a2f1309e116100e7578063a2f1309e1461047e578063ae81f0681461049c578063bccb358e146104ba578063c043decc146104d657610204565b8063790aa8de146103f45780638bc87745146104245780638da5cb5b14610442578063967e6e651461046057610204565b806338fb27ba1161019b5780634f0b03f91161016a5780634f0b03f914610362578063594db7531461037e5780635976d63b1461039c5780635f68c439146103ba5780636aa393f8146103d657610204565b806338fb27ba146102dc5780633c876c25146102f8578063483a9310146103165780634ad8a7ae1461034657610204565b806325803d64116101d757806325803d641461027c57806327a80e0d14610298578063308f838a146102b657806337f65b79146102d257610204565b806310731c6514610208578063108ece4d14610226578063134617621461024457806314b9563114610260575b5f5ffd5b6102106105ea565b60405161021d919061257c565b60405180910390f35b61022e6107d9565b60405161023b91906125d4565b60405180910390f35b61025e6004803603810190610259919061264e565b610802565b005b61027a6004803603810190610275919061268c565b610a06565b005b6102966004803603810190610291919061268c565b610a9e565b005b6102a0610b97565b6040516102ad919061257c565b60405180910390f35b6102d060048036038101906102cb91906126b7565b610cbe565b005b6102da610da0565b005b6102f660048036038101906102f191906126f5565b610ed6565b005b610300610faf565b60405161030d919061272f565b60405180910390f35b610330600480360381019061032b919061268c565b610fd9565b60405161033d919061272f565b60405180910390f35b610360600480360381019061035b919061264e565b611006565b005b61037c600480360381019061037791906126f5565b611210565b005b610386611254565b604051610393919061272f565b60405180910390f35b6103a4611262565b6040516103b1919061257c565b60405180910390f35b6103d460048036038101906103cf919061268c565b611276565b005b6103de6114fa565b6040516103eb919061272f565b60405180910390f35b61040e600480360381019061040991906126f5565b611521565b60405161041b919061257c565b60405180910390f35b61042c611645565b604051610439919061257c565b60405180910390f35b61044a61165a565b60405161045791906125d4565b60405180910390f35b61046861167e565b604051610475919061272f565b60405180910390f35b610486611686565b604051610493919061257c565b60405180910390f35b6104a46116ad565b6040516104b1919061257c565b60405180910390f35b6104d460048036038101906104cf91906126f5565b611736565b005b6104de611db9565b6040516104eb919061272f565b60405180910390f35b6104fc611dc2565b604051610509919061257c565b60405180910390f35b61052c600480360381019061052791906126f5565b611dd3565b005b610536611e66565b604051610543919061257c565b60405180910390f35b6105666004803603810190610561919061268c565b611e93565b005b610570611f2d565b60405161057d919061257c565b60405180910390f35b61058e6121c6565b60405161059b919061257c565b60405180910390f35b6105ac61221e565b005b6105b6612483565b6040516105c3919061272f565b60405180910390f35b6105d461248c565b6040516105e1919061257c565b60405180910390f35b5f5f73ffffffffffffffffffffffffffffffffffffffff16600160029054906101000a900473ffffffffffffffffffffffffffffffffffffffff1673ffffffffffffffffffffffffffffffffffffffff16036106575760015f9054906101000a900460ff161590506107d6565b60015f9054906101000a900460ff16610672575f90506107d6565b5f600160029054906101000a900473ffffffffffffffffffffffffffffffffffffffff1690508073ffffffffffffffffffffffffffffffffffffffff1663108ece4d6040518163ffffffff1660e01b8152600401602060405180830381865afa92505050801561070057506040513d601f19601f820116820180604052508101906106fd919061275c565b60015b61070d575f9150506107d6565b3073ffffffffffffffffffffffffffffffffffffffff168173ffffffffffffffffffffffffffffffffffffffff161461074a575f925050506107d6565b508073ffffffffffffffffffffffffffffffffffffffff16638bc877456040518163ffffffff1660e01b8152600401602060405180830381865afa9250505080156107b357506040513d601f19601f820116820180604052508101906107b091906127b1565b60015b6107c0575f9150506107d6565b806107cf575f925050506107d6565b5060019150505b90565b5f600160029054906101000a900473ffffffffffffffffffffffffffffffffffffffff16905090565b7f000000000000000000000000000000000000000000000000000000000000000073ffffffffffffffffffffffffffffffffffffffff163373ffffffffffffffffffffffffffffffffffffffff1614610890576040517f08c379a000000000000000000000000000000000000000000000000000000000815260040161088790612836565b60405180910390fd5b5f73ffffffffffffffffffffffffffffffffffffffff168273ffffffffffffffffffffffffffffffffffffffff16036108fe576040517f08c379a00000000000000000000000000000000000000000000000000000000081526004016108f59061289e565b60405180910390fd5b5f60065403610942576040517f08c379a000000000000000000000000000000000000000000000000000000000815260040161093990612906565b60405180910390fd5b8173ffffffffffffffffffffffffffffffffffffffff1663c2ca0ac5826040518263ffffffff1660e01b815260040161097b919061272f565b5f604051808303815f87803b158015610992575f5ffd5b505af19250505080156109a3575060015b6109e2576040517f08c379a00000000000000000000000000000000000000000000000000000000081526004016109d99061296e565b60405180910390fd5b5f6006819055505f60075f6101000a81548160ff0219169083151502179055505050565b7f000000000000000000000000000000000000000000000000000000000000000073ffffffffffffffffffffffffffffffffffffffff163373ffffffffffffffffffffffffffffffffffffffff1614610a94576040517f08c379a0000000000000000000000000000000000000000000000000000000008152600401610a8b90612836565b60405180910390fd5b8060058190555050565b7f000000000000000000000000000000000000000000000000000000000000000073ffffffffffffffffffffffffffffffffffffffff163373ffffffffffffffffffffffffffffffffffffffff161480610b455750600160029054906101000a900473ffffffffffffffffffffffffffffffffffffffff1673ffffffffffffffffffffffffffffffffffffffff163373ffffffffffffffffffffffffffffffffffffffff16145b80610b555750610b54336124a0565b5b610b94576040517f08c379a0000000000000000000000000000000000000000000000000000000008152600401610b8b906129d6565b60405180910390fd5b50565b5f5f73ffffffffffffffffffffffffffffffffffffffff16600160029054906101000a900473ffffffffffffffffffffffffffffffffffffffff1673ffffffffffffffffffffffffffffffffffffffff1603610bf65760019050610cbb565b5f600160029054906101000a900473ffffffffffffffffffffffffffffffffffffffff1690503073ffffffffffffffffffffffffffffffffffffffff168173ffffffffffffffffffffffffffffffffffffffff1663108ece4d6040518163ffffffff1660e01b8152600401602060405180830381865afa158015610c7c573d5f5f3e3d5ffd5b505050506040513d601f19601f82011682018060405250810190610ca0919061275c565b73ffffffffffffffffffffffffffffffffffffffff16149150505b90565b600160029054906101000a900473ffffffffffffffffffffffffffffffffffffffff1673ffffffffffffffffffffffffffffffffffffffff163373ffffffffffffffffffffffffffffffffffffffff161480610d4557508073ffffffffffffffffffffffffffffffffffffffff163373ffffffffffffffffffffffffffffffffffffffff16145b610d84576040517f08c379a0000000000000000000000000000000000000000000000000000000008152600401610d7b90612a3e565b60405180910390fd5b8160045f828254610d959190612a89565b925050819055505050565b7f000000000000000000000000000000000000000000000000000000000000000073ffffffffffffffffffffffffffffffffffffffff163373ffffffffffffffffffffffffffffffffffffffff1614610e2e576040517f08c379a0000000000000000000000000000000000000000000000000000000008152600401610e2590612836565b60405180910390fd5b5f5f815480929190610e3f90612abc565b919050555060015f9054906101000a900460ff16158015610ead57505f73ffffffffffffffffffffffffffffffffffffffff16600160029054906101000a900473ffffffffffffffffffffffffffffffffffffffff1673ffffffffffffffffffffffffffffffffffffffff16145b15610ed45760415f5410610ec957611b58600481905550610ed3565b6113886004819055505b5b565b8073ffffffffffffffffffffffffffffffffffffffff163373ffffffffffffffffffffffffffffffffffffffff1614610f44576040517f08c379a0000000000000000000000000000000000000000000000000000000008152600401610f3b90612b4d565b60405180910390fd5b5f600160026101000a81548173ffffffffffffffffffffffffffffffffffffffff021916908373ffffffffffffffffffffffffffffffffffffffff1602179055505f60015f6101000a81548160ff021916908315150217905550610fa6612545565b60048190555050565b5f60045460055411610fc3575f9050610fd6565b600454600554610fd39190612b6b565b90505b90565b5f5f610fe3610faf565b90506103e88382610ff49190612b9e565b610ffe9190612c0c565b915050919050565b7f000000000000000000000000000000000000000000000000000000000000000073ffffffffffffffffffffffffffffffffffffffff163373ffffffffffffffffffffffffffffffffffffffff1614611094576040517f08c379a000000000000000000000000000000000000000000000000000000000815260040161108b90612836565b60405180910390fd5b5f73ffffffffffffffffffffffffffffffffffffffff168273ffffffffffffffffffffffffffffffffffffffff16141580156110e657505f8273ffffffffffffffffffffffffffffffffffffffff163b115b611125576040517f08c379a000000000000000000000000000000000000000000000000000000000815260040161111c90612c86565b60405180910390fd5b8173ffffffffffffffffffffffffffffffffffffffff1663f14fcbc882604051602001611152919061272f565b604051602081830303815290604052805190602001206040518263ffffffff1660e01b81526004016111849190612cbc565b5f604051808303815f87803b15801561119b575f5ffd5b505af19250505080156111ac575060015b6111eb576040517f08c379a00000000000000000000000000000000000000000000000000000000081526004016111e290612d1f565b60405180910390fd5b80600681905550600160075f6101000a81548160ff0219169083151502179055505050565b80600160026101000a81548173ffffffffffffffffffffffffffffffffffffffff021916908373ffffffffffffffffffffffffffffffffffffffff16021790555050565b5f61125d612545565b905090565b5f60018054906101000a900460ff16905090565b7f000000000000000000000000000000000000000000000000000000000000000073ffffffffffffffffffffffffffffffffffffffff163373ffffffffffffffffffffffffffffffffffffffff1614611304576040517f08c379a00000000000000000000000000000000000000000000000000000000081526004016112fb90612836565b60405180910390fd5b5f73ffffffffffffffffffffffffffffffffffffffff16600160029054906101000a900473ffffffffffffffffffffffffffffffffffffffff1673ffffffffffffffffffffffffffffffffffffffff1603611394576040517f08c379a000000000000000000000000000000000000000000000000000000000815260040161138b90612d87565b60405180910390fd5b5f81116113d6576040517f08c379a00000000000000000000000000000000000000000000000000000000081526004016113cd90612def565b60405180910390fd5b60045481111561141b576040517f08c379a000000000000000000000000000000000000000000000000000000000815260040161141290612e57565b60405180910390fd5b8060045f82825461142c9190612b6b565b92505081905550600160029054906101000a900473ffffffffffffffffffffffffffffffffffffffff1673ffffffffffffffffffffffffffffffffffffffff1663308f838a82306040518363ffffffff1660e01b8152600401611490929190612e75565b5f604051808303815f87803b1580156114a7575f5ffd5b505af19250505080156114b8575060015b6114f7576040517f08c379a00000000000000000000000000000000000000000000000000000000081526004016114ee90612ee6565b60405180910390fd5b50565b5f7f0000000000000000000000000000000000000000000000000000000000000000905090565b5f5f600654036115345760019050611640565b5f73ffffffffffffffffffffffffffffffffffffffff168273ffffffffffffffffffffffffffffffffffffffff16148061158457505f8273ffffffffffffffffffffffffffffffffffffffff163b145b156115925760019050611640565b8173ffffffffffffffffffffffffffffffffffffffff16637b43a8e6306040518263ffffffff1660e01b81526004016115cb91906125d4565b602060405180830381865afa92505050801561160557506040513d601f19601f820116820180604052508101906116029190612f2e565b60015b611611575f9050611640565b600654604051602001611624919061272f565b6040516020818303038152906040528051906020012081149150505b919050565b5f60015f9054906101000a900460ff16905090565b7f000000000000000000000000000000000000000000000000000000000000000081565b5f5f54905090565b5f600454600554116116a5575f61169d60c8610fd9565b1490506116aa565b600190505b90565b5f5f73ffffffffffffffffffffffffffffffffffffffff16600160029054906101000a900473ffffffffffffffffffffffffffffffffffffffff1673ffffffffffffffffffffffffffffffffffffffff16141580611716575060015f9054906101000a900460ff165b156117245760019050611733565b61172c612545565b6004541490505b90565b7f000000000000000000000000000000000000000000000000000000000000000073ffffffffffffffffffffffffffffffffffffffff163373ffffffffffffffffffffffffffffffffffffffff16146117c4576040517f08c379a00000000000000000000000000000000000000000000000000000000081526004016117bb90612836565b60405180910390fd5b60015f9054906101000a900460ff1615611813576040517f08c379a000000000000000000000000000000000000000000000000000000000815260040161180a90612fa3565b60405180910390fd5b5f73ffffffffffffffffffffffffffffffffffffffff168173ffffffffffffffffffffffffffffffffffffffff1603611881576040517f08c379a00000000000000000000000000000000000000000000000000000000081526004016118789061300b565b60405180910390fd5b3073ffffffffffffffffffffffffffffffffffffffff168173ffffffffffffffffffffffffffffffffffffffff16036118ef576040517f08c379a00000000000000000000000000000000000000000000000000000000081526004016118e690613073565b60405180910390fd5b5f8173ffffffffffffffffffffffffffffffffffffffff163b11611948576040517f08c379a000000000000000000000000000000000000000000000000000000000815260040161193f906130db565b60405180910390fd5b5f8173ffffffffffffffffffffffffffffffffffffffff16638bc877456040518163ffffffff1660e01b8152600401602060405180830381865afa9250505080156119b157506040513d601f19601f820116820180604052508101906119ae91906127b1565b60015b6119f0576040517f08c379a00000000000000000000000000000000000000000000000000000000081526004016119e790613143565b60405180910390fd5b809150508015611a35576040517f08c379a0000000000000000000000000000000000000000000000000000000008152600401611a2c906131ab565b60405180910390fd5b5f600160029054906101000a900473ffffffffffffffffffffffffffffffffffffffff1690505f8390505f81600160026101000a81548173ffffffffffffffffffffffffffffffffffffffff021916908373ffffffffffffffffffffffffffffffffffffffff1602179055506001805f6101000a81548160ff021916908315150217905550611ac2612545565b600481905550600160029054906101000a900473ffffffffffffffffffffffffffffffffffffffff1673ffffffffffffffffffffffffffffffffffffffff1663cb01a92b306040518263ffffffff1660e01b8152600401611b2391906125d4565b5f604051808303815f87803b158015611b3a575f5ffd5b505af1925050508015611b4b575060015b611beb5782600160026101000a81548173ffffffffffffffffffffffffffffffffffffffff021916908373ffffffffffffffffffffffffffffffffffffffff1602179055505f60015f6101000a81548160ff021916908315150217905550806004819055506040517f08c379a0000000000000000000000000000000000000000000000000000000008152600401611be290613213565b60405180910390fd5b8173ffffffffffffffffffffffffffffffffffffffff166325803d648373ffffffffffffffffffffffffffffffffffffffff1663594db7536040518163ffffffff1660e01b8152600401602060405180830381865afa158015611c50573d5f5f3e3d5ffd5b505050506040513d601f19601f82011682018060405250810190611c749190613245565b6040518263ffffffff1660e01b8152600401611c90919061272f565b5f604051808303815f87803b158015611ca7575f5ffd5b505af1925050508015611cb8575060015b611d585782600160026101000a81548173ffffffffffffffffffffffffffffffffffffffff021916908373ffffffffffffffffffffffffffffffffffffffff1602179055505f60015f6101000a81548160ff021916908315150217905550806004819055506040517f08c379a0000000000000000000000000000000000000000000000000000000008152600401611d4f906132ba565b60405180910390fd5b8173ffffffffffffffffffffffffffffffffffffffff163073ffffffffffffffffffffffffffffffffffffffff167fc89ef770a4ad395ebdc22b63de541b88daf19f335056f203fa06e4154b62bb7b60405160405180910390a35050505050565b5f600454905090565b5f5f611dcc610faf565b1015905090565b8073ffffffffffffffffffffffffffffffffffffffff163373ffffffffffffffffffffffffffffffffffffffff1614611e41576040517f08c379a0000000000000000000000000000000000000000000000000000000008152600401611e3890613322565b60405180910390fd5b611e4a81611210565b6001805f6101000a81548160ff02191690831515021790555050565b5f60075f9054906101000a900460ff1615611e88575f60065414159050611e90565b5f6006541490505b90565b600160029054906101000a900473ffffffffffffffffffffffffffffffffffffffff1673ffffffffffffffffffffffffffffffffffffffff163373ffffffffffffffffffffffffffffffffffffffff1614611f23576040517f08c379a0000000000000000000000000000000000000000000000000000000008152600401611f1a9061338a565b60405180910390fd5b8060048190555050565b5f60015f9054906101000a900460ff161580611f9657505f73ffffffffffffffffffffffffffffffffffffffff16600160029054906101000a900473ffffffffffffffffffffffffffffffffffffffff1673ffffffffffffffffffffffffffffffffffffffff16145b15611fa457600190506121c3565b5f60045490505f600160029054906101000a900473ffffffffffffffffffffffffffffffffffffffff1690505f5f5f8373ffffffffffffffffffffffffffffffffffffffff1663c043decc6040518163ffffffff1660e01b8152600401602060405180830381865afa92505050801561203b57506040513d601f19601f820116820180604052508101906120389190613245565b60015b61204c575f955050505050506121c3565b809350508373ffffffffffffffffffffffffffffffffffffffff16636aa393f86040518163ffffffff1660e01b8152600401602060405180830381865afa9250505080156120b857506040513d601f19601f820116820180604052508101906120b59190613245565b60015b6120c9575f955050505050506121c3565b809250508373ffffffffffffffffffffffffffffffffffffffff1663594db7536040518163ffffffff1660e01b8152600401602060405180830381865afa92505050801561213557506040513d601f19601f820116820180604052508101906121329190613245565b60015b612146575f955050505050506121c3565b809150505f612153612545565b90505f837f00000000000000000000000000000000000000000000000000000000000000006121829190612a89565b858861218e9190612a89565b1490505f838361219e9190612a89565b86896121aa9190612a89565b111590508180156121b85750805b985050505050505050505b90565b5f3073ffffffffffffffffffffffffffffffffffffffff16600160029054906101000a900473ffffffffffffffffffffffffffffffffffffffff1673ffffffffffffffffffffffffffffffffffffffff161415905090565b7f000000000000000000000000000000000000000000000000000000000000000073ffffffffffffffffffffffffffffffffffffffff163373ffffffffffffffffffffffffffffffffffffffff16146122ac576040517f08c379a00000000000000000000000000000000000000000000000000000000081526004016122a390612836565b60405180910390fd5b60015f9054906101000a900460ff166122fa576040517f08c379a00000000000000000000000000000000000000000000000000000000081526004016122f1906133f2565b60405180910390fd5b5f600160029054906101000a900473ffffffffffffffffffffffffffffffffffffffff1690505f600160026101000a81548173ffffffffffffffffffffffffffffffffffffffff021916908373ffffffffffffffffffffffffffffffffffffffff1602179055505f60015f6101000a81548160ff021916908315150217905550612382612545565b6004819055505f73ffffffffffffffffffffffffffffffffffffffff168173ffffffffffffffffffffffffffffffffffffffff16141580156123da57505f8173ffffffffffffffffffffffffffffffffffffffff163b115b15612480578073ffffffffffffffffffffffffffffffffffffffff166338fb27ba306040518263ffffffff1660e01b815260040161241891906125d4565b5f604051808303815f87803b15801561242f575f5ffd5b505af1925050508015612440575060015b61247f576040517f08c379a00000000000000000000000000000000000000000000000000000000081526004016124769061345a565b60405180910390fd5b5b50565b5f600554905090565b5f60018054906101000a900460ff16905090565b5f5f8273ffffffffffffffffffffffffffffffffffffffff163b036124c7575f9050612540565b8173ffffffffffffffffffffffffffffffffffffffff1663f7ec2f356040518163ffffffff1660e01b8152600401602060405180830381865afa92505050801561252f57506040513d601f19601f8201168201806040525081019061252c91906127b1565b60015b61253b575f9050612540565b809150505b919050565b5f60415f541061255957611b58905061255f565b61138890505b90565b5f8115159050919050565b61257681612562565b82525050565b5f60208201905061258f5f83018461256d565b92915050565b5f73ffffffffffffffffffffffffffffffffffffffff82169050919050565b5f6125be82612595565b9050919050565b6125ce816125b4565b82525050565b5f6020820190506125e75f8301846125c5565b92915050565b5f5ffd5b6125fa816125b4565b8114612604575f5ffd5b50565b5f81359050612615816125f1565b92915050565b5f819050919050565b61262d8161261b565b8114612637575f5ffd5b50565b5f8135905061264881612624565b92915050565b5f5f60408385031215612664576126636125ed565b5b5f61267185828601612607565b92505060206126828582860161263a565b9150509250929050565b5f602082840312156126a1576126a06125ed565b5b5f6126ae8482850161263a565b91505092915050565b5f5f604083850312156126cd576126cc6125ed565b5b5f6126da8582860161263a565b92505060206126eb85828601612607565b9150509250929050565b5f6020828403121561270a576127096125ed565b5b5f61271784828501612607565b91505092915050565b6127298161261b565b82525050565b5f6020820190506127425f830184612720565b92915050565b5f81519050612756816125f1565b92915050565b5f60208284031215612771576127706125ed565b5b5f61277e84828501612748565b91505092915050565b61279081612562565b811461279a575f5ffd5b50565b5f815190506127ab81612787565b92915050565b5f602082840312156127c6576127c56125ed565b5b5f6127d38482850161279d565b91505092915050565b5f82825260208201905092915050565b7f4f6e6c79206f776e6572000000000000000000000000000000000000000000005f82015250565b5f612820600a836127dc565b915061282b826127ec565b602082019050919050565b5f6020820190508181035f83015261284d81612814565b9050919050565b7f496e76616c6964206c6f747465727279000000000000000000000000000000005f82015250565b5f6128886010836127dc565b915061289382612854565b602082019050919050565b5f6020820190508181035f8301526128b58161287c565b9050919050565b7f4e6f20636f6d6d69747465642072657665616c000000000000000000000000005f82015250565b5f6128f06013836127dc565b91506128fb826128bc565b602082019050919050565b5f6020820190508181035f83015261291d816128e4565b9050919050565b7f4c6f74746572792072657665616c206661696c656400000000000000000000005f82015250565b5f6129586015836127dc565b915061296382612924565b602082019050919050565b5f6020820190508181035f8301526129858161294c565b9050919050565b7f4e6f7420617574686f72697a656420746f2073657420616c6c6f77616e6365005f82015250565b5f6129c0601f836127dc565b91506129cb8261298c565b602082019050919050565b5f6020820190508181035f8301526129ed816129b4565b9050919050565b7f4f6e6c792073706f757365206f72206f726967696e00000000000000000000005f82015250565b5f612a286015836127dc565b9150612a33826129f4565b602082019050919050565b5f6020820190508181035f830152612a5581612a1c565b9050919050565b7f4e487b71000000000000000000000000000000000000000000000000000000005f52601160045260245ffd5b5f612a938261261b565b9150612a9e8361261b565b9250828201905080821115612ab657612ab5612a5c565b5b92915050565b5f612ac68261261b565b91507fffffffffffffffffffffffffffffffffffffffffffffffffffffffffffffffff8203612af857612af7612a5c565b5b600182019050919050565b7f4f6e6c7920706172746e65722063616e206e6f746966790000000000000000005f82015250565b5f612b376017836127dc565b9150612b4282612b03565b602082019050919050565b5f6020820190508181035f830152612b6481612b2b565b9050919050565b5f612b758261261b565b9150612b808361261b565b9250828203905081811115612b9857612b97612a5c565b5b92915050565b5f612ba88261261b565b9150612bb38361261b565b9250828202612bc18161261b565b91508282048414831517612bd857612bd7612a5c565b5b5092915050565b7f4e487b71000000000000000000000000000000000000000000000000000000005f52601260045260245ffd5b5f612c168261261b565b9150612c218361261b565b925082612c3157612c30612bdf565b5b828204905092915050565b7f496e76616c6964206c6f747465727900000000000000000000000000000000005f82015250565b5f612c70600f836127dc565b9150612c7b82612c3c565b602082019050919050565b5f6020820190508181035f830152612c9d81612c64565b9050919050565b5f819050919050565b612cb681612ca4565b82525050565b5f602082019050612ccf5f830184612cad565b92915050565b7f4c6f747465727920636f6d6d6974206661696c656400000000000000000000005f82015250565b5f612d096015836127dc565b9150612d1482612cd5565b602082019050919050565b5f6020820190508181035f830152612d3681612cfd565b9050919050565b7f4e6f2073706f75736500000000000000000000000000000000000000000000005f82015250565b5f612d716009836127dc565b9150612d7c82612d3d565b602082019050919050565b5f6020820190508181035f830152612d9e81612d65565b9050919050565b7f5a65726f206368616e67650000000000000000000000000000000000000000005f82015250565b5f612dd9600b836127dc565b9150612de482612da5565b602082019050919050565b5f6020820190508181035f830152612e0681612dcd565b9050919050565b7f4e6f7420656e6f75676820616c6c6f77616e63650000000000000000000000005f82015250565b5f612e416014836127dc565b9150612e4c82612e0d565b602082019050919050565b5f6020820190508181035f830152612e6e81612e35565b9050919050565b5f604082019050612e885f830185612720565b612e9560208301846125c5565b9392505050565b7f4661696c656420746f207472616e736665722073706f757365000000000000005f82015250565b5f612ed06019836127dc565b9150612edb82612e9c565b602082019050919050565b5f6020820190508181035f830152612efd81612ec4565b9050919050565b612f0d81612ca4565b8114612f17575f5ffd5b50565b5f81519050612f2881612f04565b92915050565b5f60208284031215612f4357612f426125ed565b5b5f612f5084828501612f1a565b91505092915050565b7f4920616d20616c7265616479206d6172726965640000000000000000000000005f82015250565b5f612f8d6014836127dc565b9150612f9882612f59565b602082019050919050565b5f6020820190508181035f830152612fba81612f81565b9050919050565b7f53706f7573652063616e6e6f74206265207a65726f20616464726573730000005f82015250565b5f612ff5601d836127dc565b915061300082612fc1565b602082019050919050565b5f6020820190508181035f83015261302281612fe9565b9050919050565b7f43616e6e6f74206d61727279206d7973656c66000000000000000000000000005f82015250565b5f61305d6013836127dc565b915061306882613029565b602082019050919050565b5f6020820190508181035f83015261308a81613051565b9050919050565b7f53706f757365206d757374206265206120636f6e7472616374000000000000005f82015250565b5f6130c56019836127dc565b91506130d082613091565b602082019050919050565b5f6020820190508181035f8301526130f2816130b9565b9050919050565b7f53706f757365206e6f7420636f6d70617469626c6500000000000000000000005f82015250565b5f61312d6015836127dc565b9150613138826130f9565b602082019050919050565b5f6020820190508181035f83015261315a81613121565b9050919050565b7f53706f75736520616c7265616479206d617272696564000000000000000000005f82015250565b5f6131956016836127dc565b91506131a082613161565b602082019050919050565b5f6020820190508181035f8301526131c281613189565b9050919050565b7f4661696c656420746f2075706461746520706172746e657200000000000000005f82015250565b5f6131fd6018836127dc565b9150613208826131c9565b602082019050919050565b5f6020820190508181035f83015261322a816131f1565b9050919050565b5f8151905061323f81612624565b92915050565b5f6020828403121561325a576132596125ed565b5b5f61326784828501613231565b91505092915050565b7f4661696c656420746f2073657420706172746e657220616c6c6f77616e6365005f82015250565b5f6132a4601f836127dc565b91506132af82613270565b602082019050919050565b5f6020820190508181035f8301526132d181613298565b9050919050565b7f4f6e6c7920706172746e65722063616e2063616c6c20746869730000000000005f82015250565b5f61330c601a836127dc565b9150613317826132d8565b602082019050919050565b5f6020820190508181035f83015261333981613300565b9050919050565b7f4f6e6c792073706f7573652063616e20736574000000000000000000000000005f82015250565b5f6133746013836127dc565b915061337f82613340565b602082019050919050565b5f6020820190508181035f8301526133a181613368565b9050919050565b7f4e6f74206d6172726965640000000000000000000000000000000000000000005f82015250565b5f6133dc600b836127dc565b91506133e7826133a8565b602082019050919050565b5f6020820190508181035f830152613409816133d0565b9050919050565b7f4661696c656420746f206e6f7469667920706172746e657200000000000000005f82015250565b5f6134446018836127dc565b915061344f82613410565b602082019050919050565b5f6020820190508181035f83015261347181613438565b905091905056fea2646970667358221220c0bd091c9bcef8bd2cbe10334da4063936a8bb83f267707910bfc5485aad189064736f6c634300081e0033",
			"opcodes": "PUSH1 0x80 PUSH1 0x40 MSTORE CALLVALUE DUP1 ISZERO PUSH2 0xF JUMPI PUSH0 PUSH0 REVERT JUMPDEST POP PUSH0 PUSH0 PUSH1 0x40 MLOAD PUSH2 0x1E SWAP1 PUSH2 0x86 JUMP JUMPDEST PUSH2 0x29 SWAP3 SWAP2 SWAP1 PUSH2 0xD2 JUMP JUMPDEST PUSH1 0x40 MLOAD DUP1 SWAP2 SUB SWAP1 PUSH0 CREATE DUP1 ISZERO DUP1 ISZERO PUSH2 0x42 JUMPI RETURNDATASIZE PUSH0 PUSH0 RETURNDATACOPY RETURNDATASIZE PUSH0 REVERT JUMPDEST POP PUSH0 PUSH0 PUSH2 0x100 EXP DUP2 SLOAD DUP2 PUSH20 0xFFFFFFFFFFFFFFFFFFFFFFFFFFFFFFFFFFFFFFFF MUL NOT AND SWAP1 DUP4 PUSH20 0xFFFFFFFFFFFFFFFFFFFFFFFFFFFFFFFFFFFFFFFF AND MUL OR SWAP1 SSTORE POP PUSH2 0xF9 JUMP JUMPDEST PUSH2 0x372A DUP1 PUSH2 0xD4F DUP4 CODECOPY ADD SWAP1 JUMP JUMPDEST PUSH0 PUSH20 0xFFFFFFFFFFFFFFFFFFFFFFFFFFFFFFFFFFFFFFFF DUP3 AND SWAP1 POP SWAP2 SWAP1 POP JUMP JUMPDEST PUSH0 PUSH2 0xBC DUP3 PUSH2 0x93 JUMP JUMPDEST SWAP1 POP SWAP2 SWAP1 POP JUMP JUMPDEST PUSH2 0xCC DUP2 PUSH2 0xB2 JUMP JUMPDEST DUP3 MSTORE POP POP JUMP JUMPDEST PUSH0 PUSH1 0x40 DUP3 ADD SWAP1 POP PUSH2 0xE5 PUSH0 DUP4 ADD DUP6 PUSH2 0xC3 JUMP JUMPDEST PUSH2 0xF2 PUSH1 0x20 DUP4 ADD DUP5 PUSH2 0xC3 JUMP JUMPDEST SWAP4 SWAP3 POP POP POP JUMP JUMPDEST PUSH2 0xC49 DUP1 PUSH2 0x106 PUSH0 CODECOPY PUSH0 RETURN INVALID PUSH1 0x80 PUSH1 0x40 MSTORE CALLVALUE DUP1 ISZERO PUSH2 0xF JUMPI PUSH0 PUSH0 REVERT JUMPDEST POP PUSH1 0x4 CALLDATASIZE LT PUSH2 0x86 JUMPI PUSH0 CALLDATALOAD PUSH1 0xE0 SHR DUP1 PUSH4 0xC800409F GT PUSH2 0x59 JUMPI DUP1 PUSH4 0xC800409F EQ PUSH2 0x102 JUMPI DUP1 PUSH4 0xD29F5EC2 EQ PUSH2 0x120 JUMPI DUP1 PUSH4 0xE4CC509A EQ PUSH2 0x12A JUMPI DUP1 PUSH4 0xFB5343F3 EQ PUSH2 0x146 JUMPI PUSH2 0x86 JUMP JUMPDEST DUP1 PUSH4 0x51A5E8E EQ PUSH2 0x8A JUMPI DUP1 PUSH4 0x2191AE94 EQ PUSH2 0xA8 JUMPI DUP1 PUSH4 0x34F891C9 EQ PUSH2 0xC6 JUMPI DUP1 PUSH4 0xA2F1309E EQ PUSH2 0xE4 JUMPI JUMPDEST PUSH0 PUSH0 REVERT JUMPDEST PUSH2 0x92 PUSH2 0x164 JUMP JUMPDEST PUSH1 0x40 MLOAD PUSH2 0x9F SWAP2 SWAP1 PUSH2 0x8DA JUMP JUMPDEST PUSH1 0x40 MLOAD DUP1 SWAP2 SUB SWAP1 RETURN JUMPDEST PUSH2 0xB0 PUSH2 0x1FA JUMP JUMPDEST PUSH1 0x40 MLOAD PUSH2 0xBD SWAP2 SWAP1 PUSH2 0x8DA JUMP JUMPDEST PUSH1 0x40 MLOAD DUP1 SWAP2 SUB SWAP1 RETURN JUMPDEST PUSH2 0xCE PUSH2 0x34A JUMP JUMPDEST PUSH1 0x40 MLOAD PUSH2 0xDB SWAP2 SWAP1 PUSH2 0x8DA JUMP JUMPDEST PUSH1 0x40 MLOAD DUP1 SWAP2 SUB SWAP1 RETURN JUMPDEST PUSH2 0xEC PUSH2 0x52A JUMP JUMPDEST PUSH1 0x40 MLOAD PUSH2 0xF9 SWAP2 SWAP1 PUSH2 0x8DA JUMP JUMPDEST PUSH1 0x40 MLOAD DUP1 SWAP2 SUB SWAP1 RETURN JUMPDEST PUSH2 0x10A PUSH2 0x700 JUMP JUMPDEST PUSH1 0x40 MLOAD PUSH2 0x117 SWAP2 SWAP1 PUSH2 0x8DA JUMP JUMPDEST PUSH1 0x40 MLOAD DUP1 SWAP2 SUB SWAP1 RETURN JUMPDEST PUSH2 0x128 PUSH2 0x796 JUMP JUMPDEST STOP JUMPDEST PUSH2 0x144 PUSH1 0x4 DUP1 CALLDATASIZE SUB DUP2 ADD SWAP1 PUSH2 0x13F SWAP2 SWAP1 PUSH2 0x92A JUMP JUMPDEST PUSH2 0x813 JUMP JUMPDEST STOP JUMPDEST PUSH2 0x14E PUSH2 0x89C JUMP JUMPDEST PUSH1 0x40 MLOAD PUSH2 0x15B SWAP2 SWAP1 PUSH2 0x9CF JUMP JUMPDEST PUSH1 0x40 MLOAD DUP1 SWAP2 SUB SWAP1 RETURN JUMPDEST PUSH0 PUSH0 PUSH0 PUSH0 SWAP1 SLOAD SWAP1 PUSH2 0x100 EXP SWAP1 DIV PUSH20 0xFFFFFFFFFFFFFFFFFFFFFFFFFFFFFFFFFFFFFFFF AND PUSH20 0xFFFFFFFFFFFFFFFFFFFFFFFFFFFFFFFFFFFFFFFF AND PUSH4 0x967E6E65 PUSH1 0x40 MLOAD DUP2 PUSH4 0xFFFFFFFF AND PUSH1 0xE0 SHL DUP2 MSTORE PUSH1 0x4 ADD PUSH1 0x20 PUSH1 0x40 MLOAD DUP1 DUP4 SUB DUP2 DUP7 GAS STATICCALL ISZERO DUP1 ISZERO PUSH2 0x1CF JUMPI RETURNDATASIZE PUSH0 PUSH0 RETURNDATACOPY RETURNDATASIZE PUSH0 REVERT JUMPDEST POP POP POP POP PUSH1 0x40 MLOAD RETURNDATASIZE PUSH1 0x1F NOT PUSH1 0x1F DUP3 ADD AND DUP3 ADD DUP1 PUSH1 0x40 MSTORE POP DUP2 ADD SWAP1 PUSH2 0x1F3 SWAP2 SWAP1 PUSH2 0x9FC JUMP JUMPDEST LT ISZERO SWAP1 POP SWAP1 JUMP JUMPDEST PUSH0 PUSH0 PUSH0 PUSH0 SWAP1 SLOAD SWAP1 PUSH2 0x100 EXP SWAP1 DIV PUSH20 0xFFFFFFFFFFFFFFFFFFFFFFFFFFFFFFFFFFFFFFFF AND PUSH20 0xFFFFFFFFFFFFFFFFFFFFFFFFFFFFFFFFFFFFFFFF AND PUSH4 0x3C876C25 PUSH1 0x40 MLOAD DUP2 PUSH4 0xFFFFFFFF AND PUSH1 0xE0 SHL DUP2 MSTORE PUSH1 0x4 ADD PUSH1 0x20 PUSH1 0x40 MLOAD DUP1 DUP4 SUB DUP2 DUP7 GAS STATICCALL ISZERO DUP1 ISZERO PUSH2 0x265 JUMPI RETURNDATASIZE PUSH0 PUSH0 RETURNDATACOPY RETURNDATASIZE PUSH0 REVERT JUMPDEST POP POP POP POP PUSH1 0x40 MLOAD RETURNDATASIZE PUSH1 0x1F NOT PUSH1 0x1F DUP3 ADD AND DUP3 ADD DUP1 PUSH1 0x40 MSTORE POP DUP2 ADD SWAP1 PUSH2 0x289 SWAP2 SWAP1 PUSH2 0x9FC JUMP JUMPDEST SWAP1 POP PUSH0 PUSH0 PUSH0 SWAP1 SLOAD SWAP1 PUSH2 0x100 EXP SWAP1 DIV PUSH20 0xFFFFFFFFFFFFFFFFFFFFFFFFFFFFFFFFFFFFFFFF AND PUSH20 0xFFFFFFFFFFFFFFFFFFFFFFFFFFFFFFFFFFFFFFFF AND PUSH4 0x483A9310 PUSH1 0x64 PUSH1 0x40 MLOAD DUP3 PUSH4 0xFFFFFFFF AND PUSH1 0xE0 SHL DUP2 MSTORE PUSH1 0x4 ADD PUSH2 0x2E6 SWAP2 SWAP1 PUSH2 0xA60 JUMP JUMPDEST PUSH1 0x20 PUSH1 0x40 MLOAD DUP1 DUP4 SUB DUP2 DUP7 GAS STATICCALL ISZERO DUP1 ISZERO PUSH2 0x301 JUMPI RETURNDATASIZE PUSH0 PUSH0 RETURNDATACOPY RETURNDATASIZE PUSH0 REVERT JUMPDEST POP POP POP POP PUSH1 0x40 MLOAD RETURNDATASIZE PUSH1 0x1F NOT PUSH1 0x1F DUP3 ADD AND DUP3 ADD DUP1 PUSH1 0x40 MSTORE POP DUP2 ADD SWAP1 PUSH2 0x325 SWAP2 SWAP1 PUSH2 0x9FC JUMP JUMPDEST SWAP1 POP PUSH2 0x3E8 PUSH1 0x64 DUP4 PUSH2 0x337 SWAP2 SWAP1 PUSH2 0xAA6 JUMP JUMPDEST PUSH2 0x341 SWAP2 SWAP1 PUSH2 0xB14 JUMP JUMPDEST DUP2 EQ SWAP3 POP POP POP SWAP1 JUMP JUMPDEST PUSH0 PUSH0 PUSH0 PUSH0 SWAP1 SLOAD SWAP1 PUSH2 0x100 EXP SWAP1 DIV PUSH20 0xFFFFFFFFFFFFFFFFFFFFFFFFFFFFFFFFFFFFFFFF AND PUSH20 0xFFFFFFFFFFFFFFFFFFFFFFFFFFFFFFFFFFFFFFFF AND PUSH4 0xC043DECC PUSH1 0x40 MLOAD DUP2 PUSH4 0xFFFFFFFF AND PUSH1 0xE0 SHL DUP2 MSTORE PUSH1 0x4 ADD PUSH1 0x20 PUSH1 0x40 MLOAD DUP1 DUP4 SUB DUP2 DUP7 GAS STATICCALL ISZERO DUP1 ISZERO PUSH2 0x3B5 JUMPI RETURNDATASIZE PUSH0 PUSH0 RETURNDATACOPY RETURNDATASIZE PUSH0 REVERT JUMPDEST POP POP POP POP PUSH1 0x40 MLOAD RETURNDATASIZE PUSH1 0x1F NOT PUSH1 0x1F DUP3 ADD AND DUP3 ADD DUP1 PUSH1 0x40 MSTORE POP DUP2 ADD SWAP1 PUSH2 0x3D9 SWAP2 SWAP1 PUSH2 0x9FC JUMP JUMPDEST SWAP1 POP PUSH0 PUSH0 PUSH0 SWAP1 SLOAD SWAP1 PUSH2 0x100 EXP SWAP1 DIV PUSH20 0xFFFFFFFFFFFFFFFFFFFFFFFFFFFFFFFFFFFFFFFF AND PUSH20 0xFFFFFFFFFFFFFFFFFFFFFFFFFFFFFFFFFFFFFFFF AND PUSH4 0x967E6E65 PUSH1 0x40 MLOAD DUP2 PUSH4 0xFFFFFFFF AND PUSH1 0xE0 SHL DUP2 MSTORE PUSH1 0x4 ADD PUSH1 0x20 PUSH1 0x40 MLOAD DUP1 DUP4 SUB DUP2 DUP7 GAS STATICCALL ISZERO DUP1 ISZERO PUSH2 0x445 JUMPI RETURNDATASIZE PUSH0 PUSH0 RETURNDATACOPY RETURNDATASIZE PUSH0 REVERT JUMPDEST POP POP POP POP PUSH1 0x40 MLOAD RETURNDATASIZE PUSH1 0x1F NOT PUSH1 0x1F DUP3 ADD AND DUP3 ADD DUP1 PUSH1 0x40 MSTORE POP DUP2 ADD SWAP1 PUSH2 0x469 SWAP2 SWAP1 PUSH2 0x9FC JUMP JUMPDEST SWAP1 POP PUSH0 PUSH0 SWAP1 SLOAD SWAP1 PUSH2 0x100 EXP SWAP1 DIV PUSH20 0xFFFFFFFFFFFFFFFFFFFFFFFFFFFFFFFFFFFFFFFF AND PUSH20 0xFFFFFFFFFFFFFFFFFFFFFFFFFFFFFFFFFFFFFFFF AND PUSH4 0x8BC87745 PUSH1 0x40 MLOAD DUP2 PUSH4 0xFFFFFFFF AND PUSH1 0xE0 SHL DUP2 MSTORE PUSH1 0x4 ADD PUSH1 0x20 PUSH1 0x40 MLOAD DUP1 DUP4 SUB DUP2 DUP7 GAS STATICCALL ISZERO DUP1 ISZERO PUSH2 0x4D4 JUMPI RETURNDATASIZE PUSH0 PUSH0 RETURNDATACOPY RETURNDATASIZE PUSH0 REVERT JUMPDEST POP POP POP POP PUSH1 0x40 MLOAD RETURNDATASIZE PUSH1 0x1F NOT PUSH1 0x1F DUP3 ADD AND DUP3 ADD DUP1 PUSH1 0x40 MSTORE POP DUP2 ADD SWAP1 PUSH2 0x4F8 SWAP2 SWAP1 PUSH2 0xB6E JUMP JUMPDEST PUSH2 0x520 JUMPI PUSH1 0x41 DUP2 LT PUSH2 0x512 JUMPI PUSH2 0x2328 DUP3 EQ SWAP3 POP POP POP PUSH2 0x527 JUMP JUMPDEST PUSH2 0x1388 DUP3 EQ SWAP3 POP POP POP PUSH2 0x527 JUMP JUMPDEST PUSH1 0x1 SWAP3 POP POP POP JUMPDEST SWAP1 JUMP JUMPDEST PUSH0 PUSH0 PUSH0 PUSH0 SWAP1 SLOAD SWAP1 PUSH2 0x100 EXP SWAP1 DIV PUSH20 0xFFFFFFFFFFFFFFFFFFFFFFFFFFFFFFFFFFFFFFFF AND PUSH20 0xFFFFFFFFFFFFFFFFFFFFFFFFFFFFFFFFFFFFFFFF AND PUSH4 0xF247E3DE PUSH1 0x40 MLOAD DUP2 PUSH4 0xFFFFFFFF AND PUSH1 0xE0 SHL DUP2 MSTORE PUSH1 0x4 ADD PUSH1 0x20 PUSH1 0x40 MLOAD DUP1 DUP4 SUB DUP2 DUP7 GAS STATICCALL ISZERO DUP1 ISZERO PUSH2 0x595 JUMPI RETURNDATASIZE PUSH0 PUSH0 RETURNDATACOPY RETURNDATASIZE PUSH0 REVERT JUMPDEST POP POP POP POP PUSH1 0x40 MLOAD RETURNDATASIZE PUSH1 0x1F NOT PUSH1 0x1F DUP3 ADD AND DUP3 ADD DUP1 PUSH1 0x40 MSTORE POP DUP2 ADD SWAP1 PUSH2 0x5B9 SWAP2 SWAP1 PUSH2 0x9FC JUMP JUMPDEST SWAP1 POP PUSH0 PUSH0 PUSH0 SWAP1 SLOAD SWAP1 PUSH2 0x100 EXP SWAP1 DIV PUSH20 0xFFFFFFFFFFFFFFFFFFFFFFFFFFFFFFFFFFFFFFFF AND PUSH20 0xFFFFFFFFFFFFFFFFFFFFFFFFFFFFFFFFFFFFFFFF AND PUSH4 0xC043DECC PUSH1 0x40 MLOAD DUP2 PUSH4 0xFFFFFFFF AND PUSH1 0xE0 SHL DUP2 MSTORE PUSH1 0x4 ADD PUSH1 0x20 PUSH1 0x40 MLOAD DUP1 DUP4 SUB DUP2 DUP7 GAS STATICCALL ISZERO DUP1 ISZERO PUSH2 0x625 JUMPI RETURNDATASIZE PUSH0 PUSH0 RETURNDATACOPY RETURNDATASIZE PUSH0 REVERT JUMPDEST POP POP POP POP PUSH1 0x40 MLOAD RETURNDATASIZE PUSH1 0x1F NOT PUSH1 0x1F DUP3 ADD AND DUP3 ADD DUP1 PUSH1 0x40 MSTORE POP DUP2 ADD SWAP1 PUSH2 0x649 SWAP2 SWAP1 PUSH2 0x9FC JUMP JUMPDEST SWAP1 POP DUP1 DUP3 GT PUSH2 0x6F6 JUMPI PUSH0 PUSH0 PUSH0 SWAP1 SLOAD SWAP1 PUSH2 0x100 EXP SWAP1 DIV PUSH20 0xFFFFFFFFFFFFFFFFFFFFFFFFFFFFFFFFFFFFFFFF AND PUSH20 0xFFFFFFFFFFFFFFFFFFFFFFFFFFFFFFFFFFFFFFFF AND PUSH4 0x483A9310 PUSH1 0xC8 PUSH1 0x40 MLOAD DUP3 PUSH4 0xFFFFFFFF AND PUSH1 0xE0 SHL DUP2 MSTORE PUSH1 0x4 ADD PUSH2 0x6AD SWAP2 SWAP1 PUSH2 0xBD2 JUMP JUMPDEST PUSH1 0x20 PUSH1 0x40 MLOAD DUP1 DUP4 SUB DUP2 DUP7 GAS STATICCALL ISZERO DUP1 ISZERO PUSH2 0x6C8 JUMPI RETURNDATASIZE PUSH0 PUSH0 RETURNDATACOPY RETURNDATASIZE PUSH0 REVERT JUMPDEST POP POP POP POP PUSH1 0x40 MLOAD RETURNDATASIZE PUSH1 0x1F NOT PUSH1 0x1F DUP3 ADD AND DUP3 ADD DUP1 PUSH1 0x40 MSTORE POP DUP2 ADD SWAP1 PUSH2 0x6EC SWAP2 SWAP1 PUSH2 0x9FC JUMP JUMPDEST EQ SWAP3 POP POP POP PUSH2 0x6FD JUMP JUMPDEST PUSH1 0x1 SWAP3 POP POP POP JUMPDEST SWAP1 JUMP JUMPDEST PUSH0 PUSH0 PUSH0 PUSH0 SWAP1 SLOAD SWAP1 PUSH2 0x100 EXP SWAP1 DIV PUSH20 0xFFFFFFFFFFFFFFFFFFFFFFFFFFFFFFFFFFFFFFFF AND PUSH20 0xFFFFFFFFFFFFFFFFFFFFFFFFFFFFFFFFFFFFFFFF AND PUSH4 0x3C876C25 PUSH1 0x40 MLOAD DUP2 PUSH4 0xFFFFFFFF AND PUSH1 0xE0 SHL DUP2 MSTORE PUSH1 0x4 ADD PUSH1 0x20 PUSH1 0x40 MLOAD DUP1 DUP4 SUB DUP2 DUP7 GAS STATICCALL ISZERO DUP1 ISZERO PUSH2 0x76B JUMPI RETURNDATASIZE PUSH0 PUSH0 RETURNDATACOPY RETURNDATASIZE PUSH0 REVERT JUMPDEST POP POP POP POP PUSH1 0x40 MLOAD RETURNDATASIZE PUSH1 0x1F NOT PUSH1 0x1F DUP3 ADD AND DUP3 ADD DUP1 PUSH1 0x40 MSTORE POP DUP2 ADD SWAP1 PUSH2 0x78F SWAP2 SWAP1 PUSH2 0x9FC JUMP JUMPDEST LT ISZERO SWAP1 POP SWAP1 JUMP JUMPDEST PUSH0 PUSH0 SWAP1 SLOAD SWAP1 PUSH2 0x100 EXP SWAP1 DIV PUSH20 0xFFFFFFFFFFFFFFFFFFFFFFFFFFFFFFFFFFFFFFFF AND PUSH20 0xFFFFFFFFFFFFFFFFFFFFFFFFFFFFFFFFFFFFFFFF AND PUSH4 0x37F65B79 PUSH1 0x40 MLOAD DUP2 PUSH4 0xFFFFFFFF AND PUSH1 0xE0 SHL DUP2 MSTORE PUSH1 0x4 ADD PUSH0 PUSH1 0x40 MLOAD DUP1 DUP4 SUB DUP2 PUSH0 DUP8 DUP1 EXTCODESIZE ISZERO DUP1 ISZERO PUSH2 0x7FB JUMPI PUSH0 PUSH0 REVERT JUMPDEST POP GAS CALL ISZERO DUP1 ISZERO PUSH2 0x80D JUMPI RETURNDATASIZE PUSH0 PUSH0 RETURNDATACOPY RETURNDATASIZE PUSH0 REVERT JUMPDEST POP POP POP POP JUMP JUMPDEST PUSH0 PUSH0 SWAP1 SLOAD SWAP1 PUSH2 0x100 EXP SWAP1 DIV PUSH20 0xFFFFFFFFFFFFFFFFFFFFFFFFFFFFFFFFFFFFFFFF AND PUSH20 0xFFFFFFFFFFFFFFFFFFFFFFFFFFFFFFFFFFFFFFFF AND PUSH4 0x14B95631 DUP3 PUSH1 0x40 MLOAD DUP3 PUSH4 0xFFFFFFFF AND PUSH1 0xE0 SHL DUP2 MSTORE PUSH1 0x4 ADD PUSH2 0x86C SWAP2 SWAP1 PUSH2 0xBFA JUMP JUMPDEST PUSH0 PUSH1 0x40 MLOAD DUP1 DUP4 SUB DUP2 PUSH0 DUP8 DUP1 EXTCODESIZE ISZERO DUP1 ISZERO PUSH2 0x883 JUMPI PUSH0 PUSH0 REVERT JUMPDEST POP GAS CALL ISZERO DUP1 ISZERO PUSH2 0x895 JUMPI RETURNDATASIZE PUSH0 PUSH0 RETURNDATACOPY RETURNDATASIZE PUSH0 REVERT JUMPDEST POP POP POP POP POP JUMP JUMPDEST PUSH0 PUSH0 SWAP1 SLOAD SWAP1 PUSH2 0x100 EXP SWAP1 DIV PUSH20 0xFFFFFFFFFFFFFFFFFFFFFFFFFFFFFFFFFFFFFFFF AND DUP2 JUMP JUMPDEST PUSH0 DUP2 ISZERO ISZERO SWAP1 POP SWAP2 SWAP1 POP JUMP JUMPDEST PUSH2 0x8D4 DUP2 PUSH2 0x8C0 JUMP JUMPDEST DUP3 MSTORE POP POP JUMP JUMPDEST PUSH0 PUSH1 0x20 DUP3 ADD SWAP1 POP PUSH2 0x8ED PUSH0 DUP4 ADD DUP5 PUSH2 0x8CB JUMP JUMPDEST SWAP3 SWAP2 POP POP JUMP JUMPDEST PUSH0 PUSH0 REVERT JUMPDEST PUSH0 DUP2 SWAP1 POP SWAP2 SWAP1 POP JUMP JUMPDEST PUSH2 0x909 DUP2 PUSH2 0x8F7 JUMP JUMPDEST DUP2 EQ PUSH2 0x913 JUMPI PUSH0 PUSH0 REVERT JUMPDEST POP JUMP JUMPDEST PUSH0 DUP2 CALLDATALOAD SWAP1 POP PUSH2 0x924 DUP2 PUSH2 0x900 JUMP JUMPDEST SWAP3 SWAP2 POP POP JUMP JUMPDEST PUSH0 PUSH1 0x20 DUP3 DUP5 SUB SLT ISZERO PUSH2 0x93F JUMPI PUSH2 0x93E PUSH2 0x8F3 JUMP JUMPDEST JUMPDEST PUSH0 PUSH2 0x94C DUP5 DUP3 DUP6 ADD PUSH2 0x916 JUMP JUMPDEST SWAP2 POP POP SWAP3 SWAP2 POP POP JUMP JUMPDEST PUSH0 PUSH20 0xFFFFFFFFFFFFFFFFFFFFFFFFFFFFFFFFFFFFFFFF DUP3 AND SWAP1 POP SWAP2 SWAP1 POP JUMP JUMPDEST PUSH0 DUP2 SWAP1 POP SWAP2 SWAP1 POP JUMP JUMPDEST PUSH0 PUSH2 0x997 PUSH2 0x992 PUSH2 0x98D DUP5 PUSH2 0x955 JUMP JUMPDEST PUSH2 0x974 JUMP JUMPDEST PUSH2 0x955 JUMP JUMPDEST SWAP1 POP SWAP2 SWAP1 POP JUMP JUMPDEST PUSH0 PUSH2 0x9A8 DUP3 PUSH2 0x97D JUMP JUMPDEST SWAP1 POP SWAP2 SWAP1 POP JUMP JUMPDEST PUSH0 PUSH2 0x9B9 DUP3 PUSH2 0x99E JUMP JUMPDEST SWAP1 POP SWAP2 SWAP1 POP JUMP JUMPDEST PUSH2 0x9C9 DUP2 PUSH2 0x9AF JUMP JUMPDEST DUP3 MSTORE POP POP JUMP JUMPDEST PUSH0 PUSH1 0x20 DUP3 ADD SWAP1 POP PUSH2 0x9E2 PUSH0 DUP4 ADD DUP5 PUSH2 0x9C0 JUMP JUMPDEST SWAP3 SWAP2 POP POP JUMP JUMPDEST PUSH0 DUP2 MLOAD SWAP1 POP PUSH2 0x9F6 DUP2 PUSH2 0x900 JUMP JUMPDEST SWAP3 SWAP2 POP POP JUMP JUMPDEST PUSH0 PUSH1 0x20 DUP3 DUP5 SUB SLT ISZERO PUSH2 0xA11 JUMPI PUSH2 0xA10 PUSH2 0x8F3 JUMP JUMPDEST JUMPDEST PUSH0 PUSH2 0xA1E DUP5 DUP3 DUP6 ADD PUSH2 0x9E8 JUMP JUMPDEST SWAP2 POP POP SWAP3 SWAP2 POP POP JUMP JUMPDEST PUSH0 DUP2 SWAP1 POP SWAP2 SWAP1 POP JUMP JUMPDEST PUSH0 PUSH2 0xA4A PUSH2 0xA45 PUSH2 0xA40 DUP5 PUSH2 0xA27 JUMP JUMPDEST PUSH2 0x974 JUMP JUMPDEST PUSH2 0x8F7 JUMP JUMPDEST SWAP1 POP SWAP2 SWAP1 POP JUMP JUMPDEST PUSH2 0xA5A DUP2 PUSH2 0xA30 JUMP JUMPDEST DUP3 MSTORE POP POP JUMP JUMPDEST PUSH0 PUSH1 0x20 DUP3 ADD SWAP1 POP PUSH2 0xA73 PUSH0 DUP4 ADD DUP5 PUSH2 0xA51 JUMP JUMPDEST SWAP3 SWAP2 POP POP JUMP JUMPDEST PUSH32 0x4E487B7100000000000000000000000000000000000000000000000000000000 PUSH0 MSTORE PUSH1 0x11 PUSH1 0x4 MSTORE PUSH1 0x24 PUSH0 REVERT JUMPDEST PUSH0 PUSH2 0xAB0 DUP3 PUSH2 0x8F7 JUMP JUMPDEST SWAP2 POP PUSH2 0xABB DUP4 PUSH2 0x8F7 JUMP JUMPDEST SWAP3 POP DUP3 DUP3 MUL PUSH2 0xAC9 DUP2 PUSH2 0x8F7 JUMP JUMPDEST SWAP2 POP DUP3 DUP3 DIV DUP5 EQ DUP4 ISZERO OR PUSH2 0xAE0 JUMPI PUSH2 0xADF PUSH2 0xA79 JUMP JUMPDEST JUMPDEST POP SWAP3 SWAP2 POP POP JUMP JUMPDEST PUSH32 0x4E487B7100000000000000000000000000000000000000000000000000000000 PUSH0 MSTORE PUSH1 0x12 PUSH1 0x4 MSTORE PUSH1 0x24 PUSH0 REVERT JUMPDEST PUSH0 PUSH2 0xB1E DUP3 PUSH2 0x8F7 JUMP JUMPDEST SWAP2 POP PUSH2 0xB29 DUP4 PUSH2 0x8F7 JUMP JUMPDEST SWAP3 POP DUP3 PUSH2 0xB39 JUMPI PUSH2 0xB38 PUSH2 0xAE7 JUMP JUMPDEST JUMPDEST DUP3 DUP3 DIV SWAP1 POP SWAP3 SWAP2 POP POP JUMP JUMPDEST PUSH2 0xB4D DUP2 PUSH2 0x8C0 JUMP JUMPDEST DUP2 EQ PUSH2 0xB57 JUMPI PUSH0 PUSH0 REVERT JUMPDEST POP JUMP JUMPDEST PUSH0 DUP2 MLOAD SWAP1 POP PUSH2 0xB68 DUP2 PUSH2 0xB44 JUMP JUMPDEST SWAP3 SWAP2 POP POP JUMP JUMPDEST PUSH0 PUSH1 0x20 DUP3 DUP5 SUB SLT ISZERO PUSH2 0xB83 JUMPI PUSH2 0xB82 PUSH2 0x8F3 JUMP JUMPDEST JUMPDEST PUSH0 PUSH2 0xB90 DUP5 DUP3 DUP6 ADD PUSH2 0xB5A JUMP JUMPDEST SWAP2 POP POP SWAP3 SWAP2 POP POP JUMP JUMPDEST PUSH0 DUP2 SWAP1 POP SWAP2 SWAP1 POP JUMP JUMPDEST PUSH0 PUSH2 0xBBC PUSH2 0xBB7 PUSH2 0xBB2 DUP5 PUSH2 0xB99 JUMP JUMPDEST PUSH2 0x974 JUMP JUMPDEST PUSH2 0x8F7 JUMP JUMPDEST SWAP1 POP SWAP2 SWAP1 POP JUMP JUMPDEST PUSH2 0xBCC DUP2 PUSH2 0xBA2 JUMP JUMPDEST DUP3 MSTORE POP POP JUMP JUMPDEST PUSH0 PUSH1 0x20 DUP3 ADD SWAP1 POP PUSH2 0xBE5 PUSH0 DUP4 ADD DUP5 PUSH2 0xBC3 JUMP JUMPDEST SWAP3 SWAP2 POP POP JUMP JUMPDEST PUSH2 0xBF4 DUP2 PUSH2 0x8F7 JUMP JUMPDEST DUP3 MSTORE POP POP JUMP JUMPDEST PUSH0 PUSH1 0x20 DUP3 ADD SWAP1 POP PUSH2 0xC0D PUSH0 DUP4 ADD DUP5 PUSH2 0xBEB JUMP JUMPDEST SWAP3 SWAP2 POP POP JUMP INVALID LOG2 PUSH5 0x6970667358 0x22 SLT KECCAK256 0x4B SWAP4 PUSH30 0xE2832B055C41160D870A4643201F20F6740921DED9970D928A04DCE40E64 PUSH20 0x6F6C634300081E003360C060405234801561000F JUMPI PUSH0 PUSH0 REVERT JUMPDEST POP PUSH1 0x40 MLOAD PUSH2 0x372A CODESIZE SUB DUP1 PUSH2 0x372A DUP4 CODECOPY DUP2 DUP2 ADD PUSH1 0x40 MSTORE DUP2 ADD SWAP1 PUSH2 0x31 SWAP2 SWAP1 PUSH2 0x1DE JUMP JUMPDEST PUSH0 PUSH0 DUP2 SWAP1 SSTORE POP PUSH0 PUSH1 0x1 PUSH0 PUSH2 0x100 EXP DUP2 SLOAD DUP2 PUSH1 0xFF MUL NOT AND SWAP1 DUP4 ISZERO ISZERO MUL OR SWAP1 SSTORE POP DUP2 PUSH1 0x2 PUSH0 PUSH2 0x100 EXP DUP2 SLOAD DUP2 PUSH20 0xFFFFFFFFFFFFFFFFFFFFFFFFFFFFFFFFFFFFFFFF MUL NOT AND SWAP1 DUP4 PUSH20 0xFFFFFFFFFFFFFFFFFFFFFFFFFFFFFFFFFFFFFFFF AND MUL OR SWAP1 SSTORE POP DUP1 PUSH1 0x3 PUSH0 PUSH2 0x100 EXP DUP2 SLOAD DUP2 PUSH20 0xFFFFFFFFFFFFFFFFFFFFFFFFFFFFFFFFFFFFFFFF MUL NOT AND SWAP1 DUP4 PUSH20 0xFFFFFFFFFFFFFFFFFFFFFFFFFFFFFFFFFFFFFFFF AND MUL OR SWAP1 SSTORE POP CALLER PUSH20 0xFFFFFFFFFFFFFFFFFFFFFFFFFFFFFFFFFFFFFFFF AND PUSH1 0x80 DUP2 PUSH20 0xFFFFFFFFFFFFFFFFFFFFFFFFFFFFFFFFFFFFFFFF AND DUP2 MSTORE POP POP PUSH2 0x1388 PUSH1 0xA0 DUP2 DUP2 MSTORE POP POP PUSH0 PUSH1 0x1 PUSH1 0x2 PUSH2 0x100 EXP DUP2 SLOAD DUP2 PUSH20 0xFFFFFFFFFFFFFFFFFFFFFFFFFFFFFFFFFFFFFFFF MUL NOT AND SWAP1 DUP4 PUSH20 0xFFFFFFFFFFFFFFFFFFFFFFFFFFFFFFFFFFFFFFFF AND MUL OR SWAP1 SSTORE POP PUSH0 PUSH1 0x5 DUP2 SWAP1 SSTORE POP PUSH1 0xA0 MLOAD PUSH1 0x4 DUP2 SWAP1 SSTORE POP PUSH1 0x1 DUP1 PUSH1 0x1 PUSH2 0x100 EXP DUP2 SLOAD DUP2 PUSH1 0xFF MUL NOT AND SWAP1 DUP4 ISZERO ISZERO MUL OR SWAP1 SSTORE POP POP POP PUSH2 0x21C JUMP JUMPDEST PUSH0 PUSH0 REVERT JUMPDEST PUSH0 PUSH20 0xFFFFFFFFFFFFFFFFFFFFFFFFFFFFFFFFFFFFFFFF DUP3 AND SWAP1 POP SWAP2 SWAP1 POP JUMP JUMPDEST PUSH0 PUSH2 0x1AD DUP3 PUSH2 0x184 JUMP JUMPDEST SWAP1 POP SWAP2 SWAP1 POP JUMP JUMPDEST PUSH2 0x1BD DUP2 PUSH2 0x1A3 JUMP JUMPDEST DUP2 EQ PUSH2 0x1C7 JUMPI PUSH0 PUSH0 REVERT JUMPDEST POP JUMP JUMPDEST PUSH0 DUP2 MLOAD SWAP1 POP PUSH2 0x1D8 DUP2 PUSH2 0x1B4 JUMP JUMPDEST SWAP3 SWAP2 POP POP JUMP JUMPDEST PUSH0 PUSH0 PUSH1 0x40 DUP4 DUP6 SUB SLT ISZERO PUSH2 0x1F4 JUMPI PUSH2 0x1F3 PUSH2 0x180 JUMP JUMPDEST JUMPDEST PUSH0 PUSH2 0x201 DUP6 DUP3 DUP7 ADD PUSH2 0x1CA JUMP JUMPDEST SWAP3 POP POP PUSH1 0x20 PUSH2 0x212 DUP6 DUP3 DUP7 ADD PUSH2 0x1CA JUMP JUMPDEST SWAP2 POP POP SWAP3 POP SWAP3 SWAP1 POP JUMP JUMPDEST PUSH1 0x80 MLOAD PUSH1 0xA0 MLOAD PUSH2 0x34AE PUSH2 0x27C PUSH0 CODECOPY PUSH0 DUP2 DUP2 PUSH2 0x14FD ADD MSTORE PUSH2 0x2159 ADD MSTORE PUSH0 DUP2 DUP2 PUSH2 0x804 ADD MSTORE DUP2 DUP2 PUSH2 0xA08 ADD MSTORE DUP2 DUP2 PUSH2 0xAA0 ADD MSTORE DUP2 DUP2 PUSH2 0xDA2 ADD MSTORE DUP2 DUP2 PUSH2 0x1008 ADD MSTORE DUP2 DUP2 PUSH2 0x1278 ADD MSTORE DUP2 DUP2 PUSH2 0x165C ADD MSTORE DUP2 DUP2 PUSH2 0x1738 ADD MSTORE PUSH2 0x2220 ADD MSTORE PUSH2 0x34AE PUSH0 RETURN INVALID PUSH1 0x80 PUSH1 0x40 MSTORE CALLVALUE DUP1 ISZERO PUSH2 0xF JUMPI PUSH0 PUSH0 REVERT JUMPDEST POP PUSH1 0x4 CALLDATASIZE LT PUSH2 0x204 JUMPI PUSH0 CALLDATALOAD PUSH1 0xE0 SHR DUP1 PUSH4 0x790AA8DE GT PUSH2 0x118 JUMPI DUP1 PUSH4 0xC800409F GT PUSH2 0xAB JUMPI DUP1 PUSH4 0xD852545E GT PUSH2 0x7A JUMPI DUP1 PUSH4 0xD852545E EQ PUSH2 0x568 JUMPI DUP1 PUSH4 0xDFB986A2 EQ PUSH2 0x586 JUMPI DUP1 PUSH4 0xDFF44B2F EQ PUSH2 0x5A4 JUMPI DUP1 PUSH4 0xF247E3DE EQ PUSH2 0x5AE JUMPI DUP1 PUSH4 0xF7EC2F35 EQ PUSH2 0x5CC JUMPI PUSH2 0x204 JUMP JUMPDEST DUP1 PUSH4 0xC800409F EQ PUSH2 0x4F4 JUMPI DUP1 PUSH4 0xCB01A92B EQ PUSH2 0x512 JUMPI DUP1 PUSH4 0xCCDA832A EQ PUSH2 0x52E JUMPI DUP1 PUSH4 0xD25D32B6 EQ PUSH2 0x54C JUMPI PUSH2 0x204 JUMP JUMPDEST DUP1 PUSH4 0xA2F1309E GT PUSH2 0xE7 JUMPI DUP1 PUSH4 0xA2F1309E EQ PUSH2 0x47E JUMPI DUP1 PUSH4 0xAE81F068 EQ PUSH2 0x49C JUMPI DUP1 PUSH4 0xBCCB358E EQ PUSH2 0x4BA JUMPI DUP1 PUSH4 0xC043DECC EQ PUSH2 0x4D6 JUMPI PUSH2 0x204 JUMP JUMPDEST DUP1 PUSH4 0x790AA8DE EQ PUSH2 0x3F4 JUMPI DUP1 PUSH4 0x8BC87745 EQ PUSH2 0x424 JUMPI DUP1 PUSH4 0x8DA5CB5B EQ PUSH2 0x442 JUMPI DUP1 PUSH4 0x967E6E65 EQ PUSH2 0x460 JUMPI PUSH2 0x204 JUMP JUMPDEST DUP1 PUSH4 0x38FB27BA GT PUSH2 0x19B JUMPI DUP1 PUSH4 0x4F0B03F9 GT PUSH2 0x16A JUMPI DUP1 PUSH4 0x4F0B03F9 EQ PUSH2 0x362 JUMPI DUP1 PUSH4 0x594DB753 EQ PUSH2 0x37E JUMPI DUP1 PUSH4 0x5976D63B EQ PUSH2 0x39C JUMPI DUP1 PUSH4 0x5F68C439 EQ PUSH2 0x3BA JUMPI DUP1 PUSH4 0x6AA393F8 EQ PUSH2 0x3D6 JUMPI PUSH2 0x204 JUMP JUMPDEST DUP1 PUSH4 0x38FB27BA EQ PUSH2 0x2DC JUMPI DUP1 PUSH4 0x3C876C25 EQ PUSH2 0x2F8 JUMPI DUP1 PUSH4 0x483A9310 EQ PUSH2 0x316 JUMPI DUP1 PUSH4 0x4AD8A7AE EQ PUSH2 0x346 JUMPI PUSH2 0x204 JUMP JUMPDEST DUP1 PUSH4 0x25803D64 GT PUSH2 0x1D7 JUMPI DUP1 PUSH4 0x25803D64 EQ PUSH2 0x27C JUMPI DUP1 PUSH4 0x27A80E0D EQ PUSH2 0x298 JUMPI DUP1 PUSH4 0x308F838A EQ PUSH2 0x2B6 JUMPI DUP1 PUSH4 0x37F65B79 EQ PUSH2 0x2D2 JUMPI PUSH2 0x204 JUMP JUMPDEST DUP1 PUSH4 0x10731C65 EQ PUSH2 0x208 JUMPI DUP1 PUSH4 0x108ECE4D EQ PUSH2 0x226 JUMPI DUP1 PUSH4 0x13461762 EQ PUSH2 0x244 JUMPI DUP1 PUSH4 0x14B95631 EQ PUSH2 0x260 JUMPI JUMPDEST PUSH0 PUSH0 REVERT JUMPDEST PUSH2 0x210 PUSH2 0x5EA JUMP JUMPDEST PUSH1 0x40 MLOAD PUSH2 0x21D SWAP2 SWAP1 PUSH2 0x257C JUMP JUMPDEST PUSH1 0x40 MLOAD DUP1 SWAP2 SUB SWAP1 RETURN JUMPDEST PUSH2 0x22E PUSH2 0x7D9 JUMP JUMPDEST PUSH1 0x40 MLOAD PUSH2 0x23B SWAP2 SWAP1 PUSH2 0x25D4 JUMP JUMPDEST PUSH1 0x40 MLOAD DUP1 SWAP2 SUB SWAP1 RETURN JUMPDEST PUSH2 0x25E PUSH1 0x4 DUP1 CALLDATASIZE SUB DUP2 ADD SWAP1 PUSH2 0x259 SWAP2 SWAP1 PUSH2 0x264E JUMP JUMPDEST PUSH2 0x802 JUMP JUMPDEST STOP JUMPDEST PUSH2 0x27A PUSH1 0x4 DUP1 CALLDATASIZE SUB DUP2 ADD SWAP1 PUSH2 0x275 SWAP2 SWAP1 PUSH2 0x268C JUMP JUMPDEST PUSH2 0xA06 JUMP JUMPDEST STOP JUMPDEST PUSH2 0x296 PUSH1 0x4 DUP1 CALLDATASIZE SUB DUP2 ADD SWAP1 PUSH2 0x291 SWAP2 SWAP1 PUSH2 0x268C JUMP JUMPDEST PUSH2 0xA9E JUMP JUMPDEST STOP JUMPDEST PUSH2 0x2A0 PUSH2 0xB97 JUMP JUMPDEST PUSH1 0x40 MLOAD PUSH2 0x2AD SWAP2 SWAP1 PUSH2 0x257C JUMP JUMPDEST PUSH1 0x40 MLOAD DUP1 SWAP2 SUB SWAP1 RETURN JUMPDEST PUSH2 0x2D0 PUSH1 0x4 DUP1 CALLDATASIZE SUB DUP2 ADD SWAP1 PUSH2 0x2CB SWAP2 SWAP1 PUSH2 0x26B7 JUMP JUMPDEST PUSH2 0xCBE JUMP JUMPDEST STOP JUMPDEST PUSH2 0x2DA PUSH2 0xDA0 JUMP JUMPDEST STOP JUMPDEST PUSH2 0x2F6 PUSH1 0x4 DUP1 CALLDATASIZE SUB DUP2 ADD SWAP1 PUSH2 0x2F1 SWAP2 SWAP1 PUSH2 0x26F5 JUMP JUMPDEST PUSH2 0xED6 JUMP JUMPDEST STOP JUMPDEST PUSH2 0x300 PUSH2 0xFAF JUMP JUMPDEST PUSH1 0x40 MLOAD PUSH2 0x30D SWAP2 SWAP1 PUSH2 0x272F JUMP JUMPDEST PUSH1 0x40 MLOAD DUP1 SWAP2 SUB SWAP1 RETURN JUMPDEST PUSH2 0x330 PUSH1 0x4 DUP1 CALLDATASIZE SUB DUP2 ADD SWAP1 PUSH2 0x32B SWAP2 SWAP1 PUSH2 0x268C JUMP JUMPDEST PUSH2 0xFD9 JUMP JUMPDEST PUSH1 0x40 MLOAD PUSH2 0x33D SWAP2 SWAP1 PUSH2 0x272F JUMP JUMPDEST PUSH1 0x40 MLOAD DUP1 SWAP2 SUB SWAP1 RETURN JUMPDEST PUSH2 0x360 PUSH1 0x4 DUP1 CALLDATASIZE SUB DUP2 ADD SWAP1 PUSH2 0x35B SWAP2 SWAP1 PUSH2 0x264E JUMP JUMPDEST PUSH2 0x1006 JUMP JUMPDEST STOP JUMPDEST PUSH2 0x37C PUSH1 0x4 DUP1 CALLDATASIZE SUB DUP2 ADD SWAP1 PUSH2 0x377 SWAP2 SWAP1 PUSH2 0x26F5 JUMP JUMPDEST PUSH2 0x1210 JUMP JUMPDEST STOP JUMPDEST PUSH2 0x386 PUSH2 0x1254 JUMP JUMPDEST PUSH1 0x40 MLOAD PUSH2 0x393 SWAP2 SWAP1 PUSH2 0x272F JUMP JUMPDEST PUSH1 0x40 MLOAD DUP1 SWAP2 SUB SWAP1 RETURN JUMPDEST PUSH2 0x3A4 PUSH2 0x1262 JUMP JUMPDEST PUSH1 0x40 MLOAD PUSH2 0x3B1 SWAP2 SWAP1 PUSH2 0x257C JUMP JUMPDEST PUSH1 0x40 MLOAD DUP1 SWAP2 SUB SWAP1 RETURN JUMPDEST PUSH2 0x3D4 PUSH1 0x4 DUP1 CALLDATASIZE SUB DUP2 ADD SWAP1 PUSH2 0x3CF SWAP2 SWAP1 PUSH2 0x268C JUMP JUMPDEST PUSH2 0x1276 JUMP JUMPDEST STOP JUMPDEST PUSH2 0x3DE PUSH2 0x14FA JUMP JUMPDEST PUSH1 0x40 MLOAD PUSH2 0x3EB SWAP2 SWAP1 PUSH2 0x272F JUMP JUMPDEST PUSH1 0x40 MLOAD DUP1 SWAP2 SUB SWAP1 RETURN JUMPDEST PUSH2 0x40E PUSH1 0x4 DUP1 CALLDATASIZE SUB DUP2 ADD SWAP1 PUSH2 0x409 SWAP2 SWAP1 PUSH2 0x26F5 JUMP JUMPDEST PUSH2 0x1521 JUMP JUMPDEST PUSH1 0x40 MLOAD PUSH2 0x41B SWAP2 SWAP1 PUSH2 0x257C JUMP JUMPDEST PUSH1 0x40 MLOAD DUP1 SWAP2 SUB SWAP1 RETURN JUMPDEST PUSH2 0x42C PUSH2 0x1645 JUMP JUMPDEST PUSH1 0x40 MLOAD PUSH2 0x439 SWAP2 SWAP1 PUSH2 0x257C JUMP JUMPDEST PUSH1 0x40 MLOAD DUP1 SWAP2 SUB SWAP1 RETURN JUMPDEST PUSH2 0x44A PUSH2 0x165A JUMP JUMPDEST PUSH1 0x40 MLOAD PUSH2 0x457 SWAP2 SWAP1 PUSH2 0x25D4 JUMP JUMPDEST PUSH1 0x40 MLOAD DUP1 SWAP2 SUB SWAP1 RETURN JUMPDEST PUSH2 0x468 PUSH2 0x167E JUMP JUMPDEST PUSH1 0x40 MLOAD PUSH2 0x475 SWAP2 SWAP1 PUSH2 0x272F JUMP JUMPDEST PUSH1 0x40 MLOAD DUP1 SWAP2 SUB SWAP1 RETURN JUMPDEST PUSH2 0x486 PUSH2 0x1686 JUMP JUMPDEST PUSH1 0x40 MLOAD PUSH2 0x493 SWAP2 SWAP1 PUSH2 0x257C JUMP JUMPDEST PUSH1 0x40 MLOAD DUP1 SWAP2 SUB SWAP1 RETURN JUMPDEST PUSH2 0x4A4 PUSH2 0x16AD JUMP JUMPDEST PUSH1 0x40 MLOAD PUSH2 0x4B1 SWAP2 SWAP1 PUSH2 0x257C JUMP JUMPDEST PUSH1 0x40 MLOAD DUP1 SWAP2 SUB SWAP1 RETURN JUMPDEST PUSH2 0x4D4 PUSH1 0x4 DUP1 CALLDATASIZE SUB DUP2 ADD SWAP1 PUSH2 0x4CF SWAP2 SWAP1 PUSH2 0x26F5 JUMP JUMPDEST PUSH2 0x1736 JUMP JUMPDEST STOP JUMPDEST PUSH2 0x4DE PUSH2 0x1DB9 JUMP JUMPDEST PUSH1 0x40 MLOAD PUSH2 0x4EB SWAP2 SWAP1 PUSH2 0x272F JUMP JUMPDEST PUSH1 0x40 MLOAD DUP1 SWAP2 SUB SWAP1 RETURN JUMPDEST PUSH2 0x4FC PUSH2 0x1DC2 JUMP JUMPDEST PUSH1 0x40 MLOAD PUSH2 0x509 SWAP2 SWAP1 PUSH2 0x257C JUMP JUMPDEST PUSH1 0x40 MLOAD DUP1 SWAP2 SUB SWAP1 RETURN JUMPDEST PUSH2 0x52C PUSH1 0x4 DUP1 CALLDATASIZE SUB DUP2 ADD SWAP1 PUSH2 0x527 SWAP2 SWAP1 PUSH2 0x26F5 JUMP JUMPDEST PUSH2 0x1DD3 JUMP JUMPDEST STOP JUMPDEST PUSH2 0x536 PUSH2 0x1E66 JUMP JUMPDEST PUSH1 0x40 MLOAD PUSH2 0x543 SWAP2 SWAP1 PUSH2 0x257C JUMP JUMPDEST PUSH1 0x40 MLOAD DUP1 SWAP2 SUB SWAP1 RETURN JUMPDEST PUSH2 0x566 PUSH1 0x4 DUP1 CALLDATASIZE SUB DUP2 ADD SWAP1 PUSH2 0x561 SWAP2 SWAP1 PUSH2 0x268C JUMP JUMPDEST PUSH2 0x1E93 JUMP JUMPDEST STOP JUMPDEST PUSH2 0x570 PUSH2 0x1F2D JUMP JUMPDEST PUSH1 0x40 MLOAD PUSH2 0x57D SWAP2 SWAP1 PUSH2 0x257C JUMP JUMPDEST PUSH1 0x40 MLOAD DUP1 SWAP2 SUB SWAP1 RETURN JUMPDEST PUSH2 0x58E PUSH2 0x21C6 JUMP JUMPDEST PUSH1 0x40 MLOAD PUSH2 0x59B SWAP2 SWAP1 PUSH2 0x257C JUMP JUMPDEST PUSH1 0x40 MLOAD DUP1 SWAP2 SUB SWAP1 RETURN JUMPDEST PUSH2 0x5AC PUSH2 0x221E JUMP JUMPDEST STOP JUMPDEST PUSH2 0x5B6 PUSH2 0x2483 JUMP JUMPDEST PUSH1 0x40 MLOAD PUSH2 0x5C3 SWAP2 SWAP1 PUSH2 0x272F JUMP JUMPDEST PUSH1 0x40 MLOAD DUP1 SWAP2 SUB SWAP1 RETURN JUMPDEST PUSH2 0x5D4 PUSH2 0x248C JUMP JUMPDEST PUSH1 0x40 MLOAD PUSH2 0x5E1 SWAP2 SWAP1 PUSH2 0x257C JUMP JUMPDEST PUSH1 0x40 MLOAD DUP1 SWAP2 SUB SWAP1 RETURN JUMPDEST PUSH0 PUSH0 PUSH20 0xFFFFFFFFFFFFFFFFFFFFFFFFFFFFFFFFFFFFFFFF AND PUSH1 0x1 PUSH1 0x2 SWAP1 SLOAD SWAP1 PUSH2 0x100 EXP SWAP1 DIV PUSH20 0xFFFFFFFFFFFFFFFFFFFFFFFFFFFFFFFFFFFFFFFF AND PUSH20 0xFFFFFFFFFFFFFFFFFFFFFFFFFFFFFFFFFFFFFFFF AND SUB PUSH2 0x657 JUMPI PUSH1 0x1 PUSH0 SWAP1 SLOAD SWAP1 PUSH2 0x100 EXP SWAP1 DIV PUSH1 0xFF AND ISZERO SWAP1 POP PUSH2 0x7D6 JUMP JUMPDEST PUSH1 0x1 PUSH0 SWAP1 SLOAD SWAP1 PUSH2 0x100 EXP SWAP1 DIV PUSH1 0xFF AND PUSH2 0x672 JUMPI PUSH0 SWAP1 POP PUSH2 0x7D6 JUMP JUMPDEST PUSH0 PUSH1 0x1 PUSH1 0x2 SWAP1 SLOAD SWAP1 PUSH2 0x100 EXP SWAP1 DIV PUSH20 0xFFFFFFFFFFFFFFFFFFFFFFFFFFFFFFFFFFFFFFFF AND SWAP1 POP DUP1 PUSH20 0xFFFFFFFFFFFFFFFFFFFFFFFFFFFFFFFFFFFFFFFF AND PUSH4 0x108ECE4D PUSH1 0x40 MLOAD DUP2 PUSH4 0xFFFFFFFF AND PUSH1 0xE0 SHL DUP2 MSTORE PUSH1 0x4 ADD PUSH1 0x20 PUSH1 0x40 MLOAD DUP1 DUP4 SUB DUP2 DUP7 GAS STATICCALL SWAP3 POP POP POP DUP1 ISZERO PUSH2 0x700 JUMPI POP PUSH1 0x40 MLOAD RETURNDATASIZE PUSH1 0x1F NOT PUSH1 0x1F DUP3 ADD AND DUP3 ADD DUP1 PUSH1 0x40 MSTORE POP DUP2 ADD SWAP1 PUSH2 0x6FD SWAP2 SWAP1 PUSH2 0x275C JUMP JUMPDEST PUSH1 0x1 JUMPDEST PUSH2 0x70D JUMPI PUSH0 SWAP2 POP POP PUSH2 0x7D6 JUMP JUMPDEST ADDRESS PUSH20 0xFFFFFFFFFFFFFFFFFFFFFFFFFFFFFFFFFFFFFFFF AND DUP2 PUSH20 0xFFFFFFFFFFFFFFFFFFFFFFFFFFFFFFFFFFFFFFFF AND EQ PUSH2 0x74A JUMPI PUSH0 SWAP3 POP POP POP PUSH2 0x7D6 JUMP JUMPDEST POP DUP1 PUSH20 0xFFFFFFFFFFFFFFFFFFFFFFFFFFFFFFFFFFFFFFFF AND PUSH4 0x8BC87745 PUSH1 0x40 MLOAD DUP2 PUSH4 0xFFFFFFFF AND PUSH1 0xE0 SHL DUP2 MSTORE PUSH1 0x4 ADD PUSH1 0x20 PUSH1 0x40 MLOAD DUP1 DUP4 SUB DUP2 DUP7 GAS STATICCALL SWAP3 POP POP POP DUP1 ISZERO PUSH2 0x7B3 JUMPI POP PUSH1 0x40 MLOAD RETURNDATASIZE PUSH1 0x1F NOT PUSH1 0x1F DUP3 ADD AND DUP3 ADD DUP1 PUSH1 0x40 MSTORE POP DUP2 ADD SWAP1 PUSH2 0x7B0 SWAP2 SWAP1 PUSH2 0x27B1 JUMP JUMPDEST PUSH1 0x1 JUMPDEST PUSH2 0x7C0 JUMPI PUSH0 SWAP2 POP POP PUSH2 0x7D6 JUMP JUMPDEST DUP1 PUSH2 0x7CF JUMPI PUSH0 SWAP3 POP POP POP PUSH2 0x7D6 JUMP JUMPDEST POP PUSH1 0x1 SWAP2 POP POP JUMPDEST SWAP1 JUMP JUMPDEST PUSH0 PUSH1 0x1 PUSH1 0x2 SWAP1 SLOAD SWAP1 PUSH2 0x100 EXP SWAP1 DIV PUSH20 0xFFFFFFFFFFFFFFFFFFFFFFFFFFFFFFFFFFFFFFFF AND SWAP1 POP SWAP1 JUMP JUMPDEST PUSH32 0x0 PUSH20 0xFFFFFFFFFFFFFFFFFFFFFFFFFFFFFFFFFFFFFFFF AND CALLER PUSH20 0xFFFFFFFFFFFFFFFFFFFFFFFFFFFFFFFFFFFFFFFF AND EQ PUSH2 0x890 JUMPI PUSH1 0x40 MLOAD PUSH32 0x8C379A000000000000000000000000000000000000000000000000000000000 DUP2 MSTORE PUSH1 0x4 ADD PUSH2 0x887 SWAP1 PUSH2 0x2836 JUMP JUMPDEST PUSH1 0x40 MLOAD DUP1 SWAP2 SUB SWAP1 REVERT JUMPDEST PUSH0 PUSH20 0xFFFFFFFFFFFFFFFFFFFFFFFFFFFFFFFFFFFFFFFF AND DUP3 PUSH20 0xFFFFFFFFFFFFFFFFFFFFFFFFFFFFFFFFFFFFFFFF AND SUB PUSH2 0x8FE JUMPI PUSH1 0x40 MLOAD PUSH32 0x8C379A000000000000000000000000000000000000000000000000000000000 DUP2 MSTORE PUSH1 0x4 ADD PUSH2 0x8F5 SWAP1 PUSH2 0x289E JUMP JUMPDEST PUSH1 0x40 MLOAD DUP1 SWAP2 SUB SWAP1 REVERT JUMPDEST PUSH0 PUSH1 0x6 SLOAD SUB PUSH2 0x942 JUMPI PUSH1 0x40 MLOAD PUSH32 0x8C379A000000000000000000000000000000000000000000000000000000000 DUP2 MSTORE PUSH1 0x4 ADD PUSH2 0x939 SWAP1 PUSH2 0x2906 JUMP JUMPDEST PUSH1 0x40 MLOAD DUP1 SWAP2 SUB SWAP1 REVERT JUMPDEST DUP2 PUSH20 0xFFFFFFFFFFFFFFFFFFFFFFFFFFFFFFFFFFFFFFFF AND PUSH4 0xC2CA0AC5 DUP3 PUSH1 0x40 MLOAD DUP3 PUSH4 0xFFFFFFFF AND PUSH1 0xE0 SHL DUP2 MSTORE PUSH1 0x4 ADD PUSH2 0x97B SWAP2 SWAP1 PUSH2 0x272F JUMP JUMPDEST PUSH0 PUSH1 0x40 MLOAD DUP1 DUP4 SUB DUP2 PUSH0 DUP8 DUP1 EXTCODESIZE ISZERO DUP1 ISZERO PUSH2 0x992 JUMPI PUSH0 PUSH0 REVERT JUMPDEST POP GAS CALL SWAP3 POP POP POP DUP1 ISZERO PUSH2 0x9A3 JUMPI POP PUSH1 0x1 JUMPDEST PUSH2 0x9E2 JUMPI PUSH1 0x40 MLOAD PUSH32 0x8C379A000000000000000000000000000000000000000000000000000000000 DUP2 MSTORE PUSH1 0x4 ADD PUSH2 0x9D9 SWAP1 PUSH2 0x296E JUMP JUMPDEST PUSH1 0x40 MLOAD DUP1 SWAP2 SUB SWAP1 REVERT JUMPDEST PUSH0 PUSH1 0x6 DUP2 SWAP1 SSTORE POP PUSH0 PUSH1 0x7 PUSH0 PUSH2 0x100 EXP DUP2 SLOAD DUP2 PUSH1 0xFF MUL NOT AND SWAP1 DUP4 ISZERO ISZERO MUL OR SWAP1 SSTORE POP POP POP JUMP JUMPDEST PUSH32 0x0 PUSH20 0xFFFFFFFFFFFFFFFFFFFFFFFFFFFFFFFFFFFFFFFF AND CALLER PUSH20 0xFFFFFFFFFFFFFFFFFFFFFFFFFFFFFFFFFFFFFFFF AND EQ PUSH2 0xA94 JUMPI PUSH1 0x40 MLOAD PUSH32 0x8C379A000000000000000000000000000000000000000000000000000000000 DUP2 MSTORE PUSH1 0x4 ADD PUSH2 0xA8B SWAP1 PUSH2 0x2836 JUMP JUMPDEST PUSH1 0x40 MLOAD DUP1 SWAP2 SUB SWAP1 REVERT JUMPDEST DUP1 PUSH1 0x5 DUP2 SWAP1 SSTORE POP POP JUMP JUMPDEST PUSH32 0x0 PUSH20 0xFFFFFFFFFFFFFFFFFFFFFFFFFFFFFFFFFFFFFFFF AND CALLER PUSH20 0xFFFFFFFFFFFFFFFFFFFFFFFFFFFFFFFFFFFFFFFF AND EQ DUP1 PUSH2 0xB45 JUMPI POP PUSH1 0x1 PUSH1 0x2 SWAP1 SLOAD SWAP1 PUSH2 0x100 EXP SWAP1 DIV PUSH20 0xFFFFFFFFFFFFFFFFFFFFFFFFFFFFFFFFFFFFFFFF AND PUSH20 0xFFFFFFFFFFFFFFFFFFFFFFFFFFFFFFFFFFFFFFFF AND CALLER PUSH20 0xFFFFFFFFFFFFFFFFFFFFFFFFFFFFFFFFFFFFFFFF AND EQ JUMPDEST DUP1 PUSH2 0xB55 JUMPI POP PUSH2 0xB54 CALLER PUSH2 0x24A0 JUMP JUMPDEST JUMPDEST PUSH2 0xB94 JUMPI PUSH1 0x40 MLOAD PUSH32 0x8C379A000000000000000000000000000000000000000000000000000000000 DUP2 MSTORE PUSH1 0x4 ADD PUSH2 0xB8B SWAP1 PUSH2 0x29D6 JUMP JUMPDEST PUSH1 0x40 MLOAD DUP1 SWAP2 SUB SWAP1 REVERT JUMPDEST POP JUMP JUMPDEST PUSH0 PUSH0 PUSH20 0xFFFFFFFFFFFFFFFFFFFFFFFFFFFFFFFFFFFFFFFF AND PUSH1 0x1 PUSH1 0x2 SWAP1 SLOAD SWAP1 PUSH2 0x100 EXP SWAP1 DIV PUSH20 0xFFFFFFFFFFFFFFFFFFFFFFFFFFFFFFFFFFFFFFFF AND PUSH20 0xFFFFFFFFFFFFFFFFFFFFFFFFFFFFFFFFFFFFFFFF AND SUB PUSH2 0xBF6 JUMPI PUSH1 0x1 SWAP1 POP PUSH2 0xCBB JUMP JUMPDEST PUSH0 PUSH1 0x1 PUSH1 0x2 SWAP1 SLOAD SWAP1 PUSH2 0x100 EXP SWAP1 DIV PUSH20 0xFFFFFFFFFFFFFFFFFFFFFFFFFFFFFFFFFFFFFFFF AND SWAP1 POP ADDRESS PUSH20 0xFFFFFFFFFFFFFFFFFFFFFFFFFFFFFFFFFFFFFFFF AND DUP2 PUSH20 0xFFFFFFFFFFFFFFFFFFFFFFFFFFFFFFFFFFFFFFFF AND PUSH4 0x108ECE4D PUSH1 0x40 MLOAD DUP2 PUSH4 0xFFFFFFFF AND PUSH1 0xE0 SHL DUP2 MSTORE PUSH1 0x4 ADD PUSH1 0x20 PUSH1 0x40 MLOAD DUP1 DUP4 SUB DUP2 DUP7 GAS STATICCALL ISZERO DUP1 ISZERO PUSH2 0xC7C JUMPI RETURNDATASIZE PUSH0 PUSH0 RETURNDATACOPY RETURNDATASIZE PUSH0 REVERT JUMPDEST POP POP POP POP PUSH1 0x40 MLOAD RETURNDATASIZE PUSH1 0x1F NOT PUSH1 0x1F DUP3 ADD AND DUP3 ADD DUP1 PUSH1 0x40 MSTORE POP DUP2 ADD SWAP1 PUSH2 0xCA0 SWAP2 SWAP1 PUSH2 0x275C JUMP JUMPDEST PUSH20 0xFFFFFFFFFFFFFFFFFFFFFFFFFFFFFFFFFFFFFFFF AND EQ SWAP2 POP POP JUMPDEST SWAP1 JUMP JUMPDEST PUSH1 0x1 PUSH1 0x2 SWAP1 SLOAD SWAP1 PUSH2 0x100 EXP SWAP1 DIV PUSH20 0xFFFFFFFFFFFFFFFFFFFFFFFFFFFFFFFFFFFFFFFF AND PUSH20 0xFFFFFFFFFFFFFFFFFFFFFFFFFFFFFFFFFFFFFFFF AND CALLER PUSH20 0xFFFFFFFFFFFFFFFFFFFFFFFFFFFFFFFFFFFFFFFF AND EQ DUP1 PUSH2 0xD45 JUMPI POP DUP1 PUSH20 0xFFFFFFFFFFFFFFFFFFFFFFFFFFFFFFFFFFFFFFFF AND CALLER PUSH20 0xFFFFFFFFFFFFFFFFFFFFFFFFFFFFFFFFFFFFFFFF AND EQ JUMPDEST PUSH2 0xD84 JUMPI PUSH1 0x40 MLOAD PUSH32 0x8C379A000000000000000000000000000000000000000000000000000000000 DUP2 MSTORE PUSH1 0x4 ADD PUSH2 0xD7B SWAP1 PUSH2 0x2A3E JUMP JUMPDEST PUSH1 0x40 MLOAD DUP1 SWAP2 SUB SWAP1 REVERT JUMPDEST DUP2 PUSH1 0x4 PUSH0 DUP3 DUP3 SLOAD PUSH2 0xD95 SWAP2 SWAP1 PUSH2 0x2A89 JUMP JUMPDEST SWAP3 POP POP DUP2 SWAP1 SSTORE POP POP POP JUMP JUMPDEST PUSH32 0x0 PUSH20 0xFFFFFFFFFFFFFFFFFFFFFFFFFFFFFFFFFFFFFFFF AND CALLER PUSH20 0xFFFFFFFFFFFFFFFFFFFFFFFFFFFFFFFFFFFFFFFF AND EQ PUSH2 0xE2E JUMPI PUSH1 0x40 MLOAD PUSH32 0x8C379A000000000000000000000000000000000000000000000000000000000 DUP2 MSTORE PUSH1 0x4 ADD PUSH2 0xE25 SWAP1 PUSH2 0x2836 JUMP JUMPDEST PUSH1 0x40 MLOAD DUP1 SWAP2 SUB SWAP1 REVERT JUMPDEST PUSH0 PUSH0 DUP2 SLOAD DUP1 SWAP3 SWAP2 SWAP1 PUSH2 0xE3F SWAP1 PUSH2 0x2ABC JUMP JUMPDEST SWAP2 SWAP1 POP SSTORE POP PUSH1 0x1 PUSH0 SWAP1 SLOAD SWAP1 PUSH2 0x100 EXP SWAP1 DIV PUSH1 0xFF AND ISZERO DUP1 ISZERO PUSH2 0xEAD JUMPI POP PUSH0 PUSH20 0xFFFFFFFFFFFFFFFFFFFFFFFFFFFFFFFFFFFFFFFF AND PUSH1 0x1 PUSH1 0x2 SWAP1 SLOAD SWAP1 PUSH2 0x100 EXP SWAP1 DIV PUSH20 0xFFFFFFFFFFFFFFFFFFFFFFFFFFFFFFFFFFFFFFFF AND PUSH20 0xFFFFFFFFFFFFFFFFFFFFFFFFFFFFFFFFFFFFFFFF AND EQ JUMPDEST ISZERO PUSH2 0xED4 JUMPI PUSH1 0x41 PUSH0 SLOAD LT PUSH2 0xEC9 JUMPI PUSH2 0x1B58 PUSH1 0x4 DUP2 SWAP1 SSTORE POP PUSH2 0xED3 JUMP JUMPDEST PUSH2 0x1388 PUSH1 0x4 DUP2 SWAP1 SSTORE POP JUMPDEST JUMPDEST JUMP JUMPDEST DUP1 PUSH20 0xFFFFFFFFFFFFFFFFFFFFFFFFFFFFFFFFFFFFFFFF AND CALLER PUSH20 0xFFFFFFFFFFFFFFFFFFFFFFFFFFFFFFFFFFFFFFFF AND EQ PUSH2 0xF44 JUMPI PUSH1 0x40 MLOAD PUSH32 0x8C379A000000000000000000000000000000000000000000000000000000000 DUP2 MSTORE PUSH1 0x4 ADD PUSH2 0xF3B SWAP1 PUSH2 0x2B4D JUMP JUMPDEST PUSH1 0x40 MLOAD DUP1 SWAP2 SUB SWAP1 REVERT JUMPDEST PUSH0 PUSH1 0x1 PUSH1 0x2 PUSH2 0x100 EXP DUP2 SLOAD DUP2 PUSH20 0xFFFFFFFFFFFFFFFFFFFFFFFFFFFFFFFFFFFFFFFF MUL NOT AND SWAP1 DUP4 PUSH20 0xFFFFFFFFFFFFFFFFFFFFFFFFFFFFFFFFFFFFFFFF AND MUL OR SWAP1 SSTORE POP PUSH0 PUSH1 0x1 PUSH0 PUSH2 0x100 EXP DUP2 SLOAD DUP2 PUSH1 0xFF MUL NOT AND SWAP1 DUP4 ISZERO ISZERO MUL OR SWAP1 SSTORE POP PUSH2 0xFA6 PUSH2 0x2545 JUMP JUMPDEST PUSH1 0x4 DUP2 SWAP1 SSTORE POP POP JUMP JUMPDEST PUSH0 PUSH1 0x4 SLOAD PUSH1 0x5 SLOAD GT PUSH2 0xFC3 JUMPI PUSH0 SWAP1 POP PUSH2 0xFD6 JUMP JUMPDEST PUSH1 0x4 SLOAD PUSH1 0x5 SLOAD PUSH2 0xFD3 SWAP2 SWAP1 PUSH2 0x2B6B JUMP JUMPDEST SWAP1 POP JUMPDEST SWAP1 JUMP JUMPDEST PUSH0 PUSH0 PUSH2 0xFE3 PUSH2 0xFAF JUMP JUMPDEST SWAP1 POP PUSH2 0x3E8 DUP4 DUP3 PUSH2 0xFF4 SWAP2 SWAP1 PUSH2 0x2B9E JUMP JUMPDEST PUSH2 0xFFE SWAP2 SWAP1 PUSH2 0x2C0C JUMP JUMPDEST SWAP2 POP POP SWAP2 SWAP1 POP JUMP JUMPDEST PUSH32 0x0 PUSH20 0xFFFFFFFFFFFFFFFFFFFFFFFFFFFFFFFFFFFFFFFF AND CALLER PUSH20 0xFFFFFFFFFFFFFFFFFFFFFFFFFFFFFFFFFFFFFFFF AND EQ PUSH2 0x1094 JUMPI PUSH1 0x40 MLOAD PUSH32 0x8C379A000000000000000000000000000000000000000000000000000000000 DUP2 MSTORE PUSH1 0x4 ADD PUSH2 0x108B SWAP1 PUSH2 0x2836 JUMP JUMPDEST PUSH1 0x40 MLOAD DUP1 SWAP2 SUB SWAP1 REVERT JUMPDEST PUSH0 PUSH20 0xFFFFFFFFFFFFFFFFFFFFFFFFFFFFFFFFFFFFFFFF AND DUP3 PUSH20 0xFFFFFFFFFFFFFFFFFFFFFFFFFFFFFFFFFFFFFFFF AND EQ ISZERO DUP1 ISZERO PUSH2 0x10E6 JUMPI POP PUSH0 DUP3 PUSH20 0xFFFFFFFFFFFFFFFFFFFFFFFFFFFFFFFFFFFFFFFF AND EXTCODESIZE GT JUMPDEST PUSH2 0x1125 JUMPI PUSH1 0x40 MLOAD PUSH32 0x8C379A000000000000000000000000000000000000000000000000000000000 DUP2 MSTORE PUSH1 0x4 ADD PUSH2 0x111C SWAP1 PUSH2 0x2C86 JUMP JUMPDEST PUSH1 0x40 MLOAD DUP1 SWAP2 SUB SWAP1 REVERT JUMPDEST DUP2 PUSH20 0xFFFFFFFFFFFFFFFFFFFFFFFFFFFFFFFFFFFFFFFF AND PUSH4 0xF14FCBC8 DUP3 PUSH1 0x40 MLOAD PUSH1 0x20 ADD PUSH2 0x1152 SWAP2 SWAP1 PUSH2 0x272F JUMP JUMPDEST PUSH1 0x40 MLOAD PUSH1 0x20 DUP2 DUP4 SUB SUB DUP2 MSTORE SWAP1 PUSH1 0x40 MSTORE DUP1 MLOAD SWAP1 PUSH1 0x20 ADD KECCAK256 PUSH1 0x40 MLOAD DUP3 PUSH4 0xFFFFFFFF AND PUSH1 0xE0 SHL DUP2 MSTORE PUSH1 0x4 ADD PUSH2 0x1184 SWAP2 SWAP1 PUSH2 0x2CBC JUMP JUMPDEST PUSH0 PUSH1 0x40 MLOAD DUP1 DUP4 SUB DUP2 PUSH0 DUP8 DUP1 EXTCODESIZE ISZERO DUP1 ISZERO PUSH2 0x119B JUMPI PUSH0 PUSH0 REVERT JUMPDEST POP GAS CALL SWAP3 POP POP POP DUP1 ISZERO PUSH2 0x11AC JUMPI POP PUSH1 0x1 JUMPDEST PUSH2 0x11EB JUMPI PUSH1 0x40 MLOAD PUSH32 0x8C379A000000000000000000000000000000000000000000000000000000000 DUP2 MSTORE PUSH1 0x4 ADD PUSH2 0x11E2 SWAP1 PUSH2 0x2D1F JUMP JUMPDEST PUSH1 0x40 MLOAD DUP1 SWAP2 SUB SWAP1 REVERT JUMPDEST DUP1 PUSH1 0x6 DUP2 SWAP1 SSTORE POP PUSH1 0x1 PUSH1 0x7 PUSH0 PUSH2 0x100 EXP DUP2 SLOAD DUP2 PUSH1 0xFF MUL NOT AND SWAP1 DUP4 ISZERO ISZERO MUL OR SWAP1 SSTORE POP POP POP JUMP JUMPDEST DUP1 PUSH1 0x1 PUSH1 0x2 PUSH2 0x100 EXP DUP2 SLOAD DUP2 PUSH20 0xFFFFFFFFFFFFFFFFFFFFFFFFFFFFFFFFFFFFFFFF MUL NOT AND SWAP1 DUP4 PUSH20 0xFFFFFFFFFFFFFFFFFFFFFFFFFFFFFFFFFFFFFFFF AND MUL OR SWAP1 SSTORE POP POP JUMP JUMPDEST PUSH0 PUSH2 0x125D PUSH2 0x2545 JUMP JUMPDEST SWAP1 POP SWAP1 JUMP JUMPDEST PUSH0 PUSH1 0x1 DUP1 SLOAD SWAP1 PUSH2 0x100 EXP SWAP1 DIV PUSH1 0xFF AND SWAP1 POP SWAP1 JUMP JUMPDEST PUSH32 0x0 PUSH20 0xFFFFFFFFFFFFFFFFFFFFFFFFFFFFFFFFFFFFFFFF AND CALLER PUSH20 0xFFFFFFFFFFFFFFFFFFFFFFFFFFFFFFFFFFFFFFFF AND EQ PUSH2 0x1304 JUMPI PUSH1 0x40 MLOAD PUSH32 0x8C379A000000000000000000000000000000000000000000000000000000000 DUP2 MSTORE PUSH1 0x4 ADD PUSH2 0x12FB SWAP1 PUSH2 0x2836 JUMP JUMPDEST PUSH1 0x40 MLOAD DUP1 SWAP2 SUB SWAP1 REVERT JUMPDEST PUSH0 PUSH20 0xFFFFFFFFFFFFFFFFFFFFFFFFFFFFFFFFFFFFFFFF AND PUSH1 0x1 PUSH1 0x2 SWAP1 SLOAD SWAP1 PUSH2 0x100 EXP SWAP1 DIV PUSH20 0xFFFFFFFFFFFFFFFFFFFFFFFFFFFFFFFFFFFFFFFF AND PUSH20 0xFFFFFFFFFFFFFFFFFFFFFFFFFFFFFFFFFFFFFFFF AND SUB PUSH2 0x1394 JUMPI PUSH1 0x40 MLOAD PUSH32 0x8C379A000000000000000000000000000000000000000000000000000000000 DUP2 MSTORE PUSH1 0x4 ADD PUSH2 0x138B SWAP1 PUSH2 0x2D87 JUMP JUMPDEST PUSH1 0x40 MLOAD DUP1 SWAP2 SUB SWAP1 REVERT JUMPDEST PUSH0 DUP2 GT PUSH2 0x13D6 JUMPI PUSH1 0x40 MLOAD PUSH32 0x8C379A000000000000000000000000000000000000000000000000000000000 DUP2 MSTORE PUSH1 0x4 ADD PUSH2 0x13CD SWAP1 PUSH2 0x2DEF JUMP JUMPDEST PUSH1 0x40 MLOAD DUP1 SWAP2 SUB SWAP1 REVERT JUMPDEST PUSH1 0x4 SLOAD DUP2 GT ISZERO PUSH2 0x141B JUMPI PUSH1 0x40 MLOAD PUSH32 0x8C379A000000000000000000000000000000000000000000000000000000000 DUP2 MSTORE PUSH1 0x4 ADD PUSH2 0x1412 SWAP1 PUSH2 0x2E57 JUMP JUMPDEST PUSH1 0x40 MLOAD DUP1 SWAP2 SUB SWAP1 REVERT JUMPDEST DUP1 PUSH1 0x4 PUSH0 DUP3 DUP3 SLOAD PUSH2 0x142C SWAP2 SWAP1 PUSH2 0x2B6B JUMP JUMPDEST SWAP3 POP POP DUP2 SWAP1 SSTORE POP PUSH1 0x1 PUSH1 0x2 SWAP1 SLOAD SWAP1 PUSH2 0x100 EXP SWAP1 DIV PUSH20 0xFFFFFFFFFFFFFFFFFFFFFFFFFFFFFFFFFFFFFFFF AND PUSH20 0xFFFFFFFFFFFFFFFFFFFFFFFFFFFFFFFFFFFFFFFF AND PUSH4 0x308F838A DUP3 ADDRESS PUSH1 0x40 MLOAD DUP4 PUSH4 0xFFFFFFFF AND PUSH1 0xE0 SHL DUP2 MSTORE PUSH1 0x4 ADD PUSH2 0x1490 SWAP3 SWAP2 SWAP1 PUSH2 0x2E75 JUMP JUMPDEST PUSH0 PUSH1 0x40 MLOAD DUP1 DUP4 SUB DUP2 PUSH0 DUP8 DUP1 EXTCODESIZE ISZERO DUP1 ISZERO PUSH2 0x14A7 JUMPI PUSH0 PUSH0 REVERT JUMPDEST POP GAS CALL SWAP3 POP POP POP DUP1 ISZERO PUSH2 0x14B8 JUMPI POP PUSH1 0x1 JUMPDEST PUSH2 0x14F7 JUMPI PUSH1 0x40 MLOAD PUSH32 0x8C379A000000000000000000000000000000000000000000000000000000000 DUP2 MSTORE PUSH1 0x4 ADD PUSH2 0x14EE SWAP1 PUSH2 0x2EE6 JUMP JUMPDEST PUSH1 0x40 MLOAD DUP1 SWAP2 SUB SWAP1 REVERT JUMPDEST POP JUMP JUMPDEST PUSH0 PUSH32 0x0 SWAP1 POP SWAP1 JUMP JUMPDEST PUSH0 PUSH0 PUSH1 0x6 SLOAD SUB PUSH2 0x1534 JUMPI PUSH1 0x1 SWAP1 POP PUSH2 0x1640 JUMP JUMPDEST PUSH0 PUSH20 0xFFFFFFFFFFFFFFFFFFFFFFFFFFFFFFFFFFFFFFFF AND DUP3 PUSH20 0xFFFFFFFFFFFFFFFFFFFFFFFFFFFFFFFFFFFFFFFF AND EQ DUP1 PUSH2 0x1584 JUMPI POP PUSH0 DUP3 PUSH20 0xFFFFFFFFFFFFFFFFFFFFFFFFFFFFFFFFFFFFFFFF AND EXTCODESIZE EQ JUMPDEST ISZERO PUSH2 0x1592 JUMPI PUSH1 0x1 SWAP1 POP PUSH2 0x1640 JUMP JUMPDEST DUP2 PUSH20 0xFFFFFFFFFFFFFFFFFFFFFFFFFFFFFFFFFFFFFFFF AND PUSH4 0x7B43A8E6 ADDRESS PUSH1 0x40 MLOAD DUP3 PUSH4 0xFFFFFFFF AND PUSH1 0xE0 SHL DUP2 MSTORE PUSH1 0x4 ADD PUSH2 0x15CB SWAP2 SWAP1 PUSH2 0x25D4 JUMP JUMPDEST PUSH1 0x20 PUSH1 0x40 MLOAD DUP1 DUP4 SUB DUP2 DUP7 GAS STATICCALL SWAP3 POP POP POP DUP1 ISZERO PUSH2 0x1605 JUMPI POP PUSH1 0x40 MLOAD RETURNDATASIZE PUSH1 0x1F NOT PUSH1 0x1F DUP3 ADD AND DUP3 ADD DUP1 PUSH1 0x40 MSTORE POP DUP2 ADD SWAP1 PUSH2 0x1602 SWAP2 SWAP1 PUSH2 0x2F2E JUMP JUMPDEST PUSH1 0x1 JUMPDEST PUSH2 0x1611 JUMPI PUSH0 SWAP1 POP PUSH2 0x1640 JUMP JUMPDEST PUSH1 0x6 SLOAD PUSH1 0x40 MLOAD PUSH1 0x20 ADD PUSH2 0x1624 SWAP2 SWAP1 PUSH2 0x272F JUMP JUMPDEST PUSH1 0x40 MLOAD PUSH1 0x20 DUP2 DUP4 SUB SUB DUP2 MSTORE SWAP1 PUSH1 0x40 MSTORE DUP1 MLOAD SWAP1 PUSH1 0x20 ADD KECCAK256 DUP2 EQ SWAP2 POP POP JUMPDEST SWAP2 SWAP1 POP JUMP JUMPDEST PUSH0 PUSH1 0x1 PUSH0 SWAP1 SLOAD SWAP1 PUSH2 0x100 EXP SWAP1 DIV PUSH1 0xFF AND SWAP1 POP SWAP1 JUMP JUMPDEST PUSH32 0x0 DUP2 JUMP JUMPDEST PUSH0 PUSH0 SLOAD SWAP1 POP SWAP1 JUMP JUMPDEST PUSH0 PUSH1 0x4 SLOAD PUSH1 0x5 SLOAD GT PUSH2 0x16A5 JUMPI PUSH0 PUSH2 0x169D PUSH1 0xC8 PUSH2 0xFD9 JUMP JUMPDEST EQ SWAP1 POP PUSH2 0x16AA JUMP JUMPDEST PUSH1 0x1 SWAP1 POP JUMPDEST SWAP1 JUMP JUMPDEST PUSH0 PUSH0 PUSH20 0xFFFFFFFFFFFFFFFFFFFFFFFFFFFFFFFFFFFFFFFF AND PUSH1 0x1 PUSH1 0x2 SWAP1 SLOAD SWAP1 PUSH2 0x100 EXP SWAP1 DIV PUSH20 0xFFFFFFFFFFFFFFFFFFFFFFFFFFFFFFFFFFFFFFFF AND PUSH20 0xFFFFFFFFFFFFFFFFFFFFFFFFFFFFFFFFFFFFFFFF AND EQ ISZERO DUP1 PUSH2 0x1716 JUMPI POP PUSH1 0x1 PUSH0 SWAP1 SLOAD SWAP1 PUSH2 0x100 EXP SWAP1 DIV PUSH1 0xFF AND JUMPDEST ISZERO PUSH2 0x1724 JUMPI PUSH1 0x1 SWAP1 POP PUSH2 0x1733 JUMP JUMPDEST PUSH2 0x172C PUSH2 0x2545 JUMP JUMPDEST PUSH1 0x4 SLOAD EQ SWAP1 POP JUMPDEST SWAP1 JUMP JUMPDEST PUSH32 0x0 PUSH20 0xFFFFFFFFFFFFFFFFFFFFFFFFFFFFFFFFFFFFFFFF AND CALLER PUSH20 0xFFFFFFFFFFFFFFFFFFFFFFFFFFFFFFFFFFFFFFFF AND EQ PUSH2 0x17C4 JUMPI PUSH1 0x40 MLOAD PUSH32 0x8C379A000000000000000000000000000000000000000000000000000000000 DUP2 MSTORE PUSH1 0x4 ADD PUSH2 0x17BB SWAP1 PUSH2 0x2836 JUMP JUMPDEST PUSH1 0x40 MLOAD DUP1 SWAP2 SUB SWAP1 REVERT JUMPDEST PUSH1 0x1 PUSH0 SWAP1 SLOAD SWAP1 PUSH2 0x100 EXP SWAP1 DIV PUSH1 0xFF AND ISZERO PUSH2 0x1813 JUMPI PUSH1 0x40 MLOAD PUSH32 0x8C379A000000000000000000000000000000000000000000000000000000000 DUP2 MSTORE PUSH1 0x4 ADD PUSH2 0x180A SWAP1 PUSH2 0x2FA3 JUMP JUMPDEST PUSH1 0x40 MLOAD DUP1 SWAP2 SUB SWAP1 REVERT JUMPDEST PUSH0 PUSH20 0xFFFFFFFFFFFFFFFFFFFFFFFFFFFFFFFFFFFFFFFF AND DUP2 PUSH20 0xFFFFFFFFFFFFFFFFFFFFFFFFFFFFFFFFFFFFFFFF AND SUB PUSH2 0x1881 JUMPI PUSH1 0x40 MLOAD PUSH32 0x8C379A000000000000000000000000000000000000000000000000000000000 DUP2 MSTORE PUSH1 0x4 ADD PUSH2 0x1878 SWAP1 PUSH2 0x300B JUMP JUMPDEST PUSH1 0x40 MLOAD DUP1 SWAP2 SUB SWAP1 REVERT JUMPDEST ADDRESS PUSH20 0xFFFFFFFFFFFFFFFFFFFFFFFFFFFFFFFFFFFFFFFF AND DUP2 PUSH20 0xFFFFFFFFFFFFFFFFFFFFFFFFFFFFFFFFFFFFFFFF AND SUB PUSH2 0x18EF JUMPI PUSH1 0x40 MLOAD PUSH32 0x8C379A000000000000000000000000000000000000000000000000000000000 DUP2 MSTORE PUSH1 0x4 ADD PUSH2 0x18E6 SWAP1 PUSH2 0x3073 JUMP JUMPDEST PUSH1 0x40 MLOAD DUP1 SWAP2 SUB SWAP1 REVERT JUMPDEST PUSH0 DUP2 PUSH20 0xFFFFFFFFFFFFFFFFFFFFFFFFFFFFFFFFFFFFFFFF AND EXTCODESIZE GT PUSH2 0x1948 JUMPI PUSH1 0x40 MLOAD PUSH32 0x8C379A000000000000000000000000000000000000000000000000000000000 DUP2 MSTORE PUSH1 0x4 ADD PUSH2 0x193F SWAP1 PUSH2 0x30DB JUMP JUMPDEST PUSH1 0x40 MLOAD DUP1 SWAP2 SUB SWAP1 REVERT JUMPDEST PUSH0 DUP2 PUSH20 0xFFFFFFFFFFFFFFFFFFFFFFFFFFFFFFFFFFFFFFFF AND PUSH4 0x8BC87745 PUSH1 0x40 MLOAD DUP2 PUSH4 0xFFFFFFFF AND PUSH1 0xE0 SHL DUP2 MSTORE PUSH1 0x4 ADD PUSH1 0x20 PUSH1 0x40 MLOAD DUP1 DUP4 SUB DUP2 DUP7 GAS STATICCALL SWAP3 POP POP POP DUP1 ISZERO PUSH2 0x19B1 JUMPI POP PUSH1 0x40 MLOAD RETURNDATASIZE PUSH1 0x1F NOT PUSH1 0x1F DUP3 ADD AND DUP3 ADD DUP1 PUSH1 0x40 MSTORE POP DUP2 ADD SWAP1 PUSH2 0x19AE SWAP2 SWAP1 PUSH2 0x27B1 JUMP JUMPDEST PUSH1 0x1 JUMPDEST PUSH2 0x19F0 JUMPI PUSH1 0x40 MLOAD PUSH32 0x8C379A000000000000000000000000000000000000000000000000000000000 DUP2 MSTORE PUSH1 0x4 ADD PUSH2 0x19E7 SWAP1 PUSH2 0x3143 JUMP JUMPDEST PUSH1 0x40 MLOAD DUP1 SWAP2 SUB SWAP1 REVERT JUMPDEST DUP1 SWAP2 POP POP DUP1 ISZERO PUSH2 0x1A35 JUMPI PUSH1 0x40 MLOAD PUSH32 0x8C379A000000000000000000000000000000000000000000000000000000000 DUP2 MSTORE PUSH1 0x4 ADD PUSH2 0x1A2C SWAP1 PUSH2 0x31AB JUMP JUMPDEST PUSH1 0x40 MLOAD DUP1 SWAP2 SUB SWAP1 REVERT JUMPDEST PUSH0 PUSH1 0x1 PUSH1 0x2 SWAP1 SLOAD SWAP1 PUSH2 0x100 EXP SWAP1 DIV PUSH20 0xFFFFFFFFFFFFFFFFFFFFFFFFFFFFFFFFFFFFFFFF AND SWAP1 POP PUSH0 DUP4 SWAP1 POP PUSH0 DUP2 PUSH1 0x1 PUSH1 0x2 PUSH2 0x100 EXP DUP2 SLOAD DUP2 PUSH20 0xFFFFFFFFFFFFFFFFFFFFFFFFFFFFFFFFFFFFFFFF MUL NOT AND SWAP1 DUP4 PUSH20 0xFFFFFFFFFFFFFFFFFFFFFFFFFFFFFFFFFFFFFFFF AND MUL OR SWAP1 SSTORE POP PUSH1 0x1 DUP1 PUSH0 PUSH2 0x100 EXP DUP2 SLOAD DUP2 PUSH1 0xFF MUL NOT AND SWAP1 DUP4 ISZERO ISZERO MUL OR SWAP1 SSTORE POP PUSH2 0x1AC2 PUSH2 0x2545 JUMP JUMPDEST PUSH1 0x4 DUP2 SWAP1 SSTORE POP PUSH1 0x1 PUSH1 0x2 SWAP1 SLOAD SWAP1 PUSH2 0x100 EXP SWAP1 DIV PUSH20 0xFFFFFFFFFFFFFFFFFFFFFFFFFFFFFFFFFFFFFFFF AND PUSH20 0xFFFFFFFFFFFFFFFFFFFFFFFFFFFFFFFFFFFFFFFF AND PUSH4 0xCB01A92B ADDRESS PUSH1 0x40 MLOAD DUP3 PUSH4 0xFFFFFFFF AND PUSH1 0xE0 SHL DUP2 MSTORE PUSH1 0x4 ADD PUSH2 0x1B23 SWAP2 SWAP1 PUSH2 0x25D4 JUMP JUMPDEST PUSH0 PUSH1 0x40 MLOAD DUP1 DUP4 SUB DUP2 PUSH0 DUP8 DUP1 EXTCODESIZE ISZERO DUP1 ISZERO PUSH2 0x1B3A JUMPI PUSH0 PUSH0 REVERT JUMPDEST POP GAS CALL SWAP3 POP POP POP DUP1 ISZERO PUSH2 0x1B4B JUMPI POP PUSH1 0x1 JUMPDEST PUSH2 0x1BEB JUMPI DUP3 PUSH1 0x1 PUSH1 0x2 PUSH2 0x100 EXP DUP2 SLOAD DUP2 PUSH20 0xFFFFFFFFFFFFFFFFFFFFFFFFFFFFFFFFFFFFFFFF MUL NOT AND SWAP1 DUP4 PUSH20 0xFFFFFFFFFFFFFFFFFFFFFFFFFFFFFFFFFFFFFFFF AND MUL OR SWAP1 SSTORE POP PUSH0 PUSH1 0x1 PUSH0 PUSH2 0x100 EXP DUP2 SLOAD DUP2 PUSH1 0xFF MUL NOT AND SWAP1 DUP4 ISZERO ISZERO MUL OR SWAP1 SSTORE POP DUP1 PUSH1 0x4 DUP2 SWAP1 SSTORE POP PUSH1 0x40 MLOAD PUSH32 0x8C379A000000000000000000000000000000000000000000000000000000000 DUP2 MSTORE PUSH1 0x4 ADD PUSH2 0x1BE2 SWAP1 PUSH2 0x3213 JUMP JUMPDEST PUSH1 0x40 MLOAD DUP1 SWAP2 SUB SWAP1 REVERT JUMPDEST DUP2 PUSH20 0xFFFFFFFFFFFFFFFFFFFFFFFFFFFFFFFFFFFFFFFF AND PUSH4 0x25803D64 DUP4 PUSH20 0xFFFFFFFFFFFFFFFFFFFFFFFFFFFFFFFFFFFFFFFF AND PUSH4 0x594DB753 PUSH1 0x40 MLOAD DUP2 PUSH4 0xFFFFFFFF AND PUSH1 0xE0 SHL DUP2 MSTORE PUSH1 0x4 ADD PUSH1 0x20 PUSH1 0x40 MLOAD DUP1 DUP4 SUB DUP2 DUP7 GAS STATICCALL ISZERO DUP1 ISZERO PUSH2 0x1C50 JUMPI RETURNDATASIZE PUSH0 PUSH0 RETURNDATACOPY RETURNDATASIZE PUSH0 REVERT JUMPDEST POP POP POP POP PUSH1 0x40 MLOAD RETURNDATASIZE PUSH1 0x1F NOT PUSH1 0x1F DUP3 ADD AND DUP3 ADD DUP1 PUSH1 0x40 MSTORE POP DUP2 ADD SWAP1 PUSH2 0x1C74 SWAP2 SWAP1 PUSH2 0x3245 JUMP JUMPDEST PUSH1 0x40 MLOAD DUP3 PUSH4 0xFFFFFFFF AND PUSH1 0xE0 SHL DUP2 MSTORE PUSH1 0x4 ADD PUSH2 0x1C90 SWAP2 SWAP1 PUSH2 0x272F JUMP JUMPDEST PUSH0 PUSH1 0x40 MLOAD DUP1 DUP4 SUB DUP2 PUSH0 DUP8 DUP1 EXTCODESIZE ISZERO DUP1 ISZERO PUSH2 0x1CA7 JUMPI PUSH0 PUSH0 REVERT JUMPDEST POP GAS CALL SWAP3 POP POP POP DUP1 ISZERO PUSH2 0x1CB8 JUMPI POP PUSH1 0x1 JUMPDEST PUSH2 0x1D58 JUMPI DUP3 PUSH1 0x1 PUSH1 0x2 PUSH2 0x100 EXP DUP2 SLOAD DUP2 PUSH20 0xFFFFFFFFFFFFFFFFFFFFFFFFFFFFFFFFFFFFFFFF MUL NOT AND SWAP1 DUP4 PUSH20 0xFFFFFFFFFFFFFFFFFFFFFFFFFFFFFFFFFFFFFFFF AND MUL OR SWAP1 SSTORE POP PUSH0 PUSH1 0x1 PUSH0 PUSH2 0x100 EXP DUP2 SLOAD DUP2 PUSH1 0xFF MUL NOT AND SWAP1 DUP4 ISZERO ISZERO MUL OR SWAP1 SSTORE POP DUP1 PUSH1 0x4 DUP2 SWAP1 SSTORE POP PUSH1 0x40 MLOAD PUSH32 0x8C379A000000000000000000000000000000000000000000000000000000000 DUP2 MSTORE PUSH1 0x4 ADD PUSH2 0x1D4F SWAP1 PUSH2 0x32BA JUMP JUMPDEST PUSH1 0x40 MLOAD DUP1 SWAP2 SUB SWAP1 REVERT JUMPDEST DUP2 PUSH20 0xFFFFFFFFFFFFFFFFFFFFFFFFFFFFFFFFFFFFFFFF AND ADDRESS PUSH20 0xFFFFFFFFFFFFFFFFFFFFFFFFFFFFFFFFFFFFFFFF AND PUSH32 0xC89EF770A4AD395EBDC22B63DE541B88DAF19F335056F203FA06E4154B62BB7B PUSH1 0x40 MLOAD PUSH1 0x40 MLOAD DUP1 SWAP2 SUB SWAP1 LOG3 POP POP POP POP POP JUMP JUMPDEST PUSH0 PUSH1 0x4 SLOAD SWAP1 POP SWAP1 JUMP JUMPDEST PUSH0 PUSH0 PUSH2 0x1DCC PUSH2 0xFAF JUMP JUMPDEST LT ISZERO SWAP1 POP SWAP1 JUMP JUMPDEST DUP1 PUSH20 0xFFFFFFFFFFFFFFFFFFFFFFFFFFFFFFFFFFFFFFFF AND CALLER PUSH20 0xFFFFFFFFFFFFFFFFFFFFFFFFFFFFFFFFFFFFFFFF AND EQ PUSH2 0x1E41 JUMPI PUSH1 0x40 MLOAD PUSH32 0x8C379A000000000000000000000000000000000000000000000000000000000 DUP2 MSTORE PUSH1 0x4 ADD PUSH2 0x1E38 SWAP1 PUSH2 0x3322 JUMP JUMPDEST PUSH1 0x40 MLOAD DUP1 SWAP2 SUB SWAP1 REVERT JUMPDEST PUSH2 0x1E4A DUP2 PUSH2 0x1210 JUMP JUMPDEST PUSH1 0x1 DUP1 PUSH0 PUSH2 0x100 EXP DUP2 SLOAD DUP2 PUSH1 0xFF MUL NOT AND SWAP1 DUP4 ISZERO ISZERO MUL OR SWAP1 SSTORE POP POP JUMP JUMPDEST PUSH0 PUSH1 0x7 PUSH0 SWAP1 SLOAD SWAP1 PUSH2 0x100 EXP SWAP1 DIV PUSH1 0xFF AND ISZERO PUSH2 0x1E88 JUMPI PUSH0 PUSH1 0x6 SLOAD EQ ISZERO SWAP1 POP PUSH2 0x1E90 JUMP JUMPDEST PUSH0 PUSH1 0x6 SLOAD EQ SWAP1 POP JUMPDEST SWAP1 JUMP JUMPDEST PUSH1 0x1 PUSH1 0x2 SWAP1 SLOAD SWAP1 PUSH2 0x100 EXP SWAP1 DIV PUSH20 0xFFFFFFFFFFFFFFFFFFFFFFFFFFFFFFFFFFFFFFFF AND PUSH20 0xFFFFFFFFFFFFFFFFFFFFFFFFFFFFFFFFFFFFFFFF AND CALLER PUSH20 0xFFFFFFFFFFFFFFFFFFFFFFFFFFFFFFFFFFFFFFFF AND EQ PUSH2 0x1F23 JUMPI PUSH1 0x40 MLOAD PUSH32 0x8C379A000000000000000000000000000000000000000000000000000000000 DUP2 MSTORE PUSH1 0x4 ADD PUSH2 0x1F1A SWAP1 PUSH2 0x338A JUMP JUMPDEST PUSH1 0x40 MLOAD DUP1 SWAP2 SUB SWAP1 REVERT JUMPDEST DUP1 PUSH1 0x4 DUP2 SWAP1 SSTORE POP POP JUMP JUMPDEST PUSH0 PUSH1 0x1 PUSH0 SWAP1 SLOAD SWAP1 PUSH2 0x100 EXP SWAP1 DIV PUSH1 0xFF AND ISZERO DUP1 PUSH2 0x1F96 JUMPI POP PUSH0 PUSH20 0xFFFFFFFFFFFFFFFFFFFFFFFFFFFFFFFFFFFFFFFF AND PUSH1 0x1 PUSH1 0x2 SWAP1 SLOAD SWAP1 PUSH2 0x100 EXP SWAP1 DIV PUSH20 0xFFFFFFFFFFFFFFFFFFFFFFFFFFFFFFFFFFFFFFFF AND PUSH20 0xFFFFFFFFFFFFFFFFFFFFFFFFFFFFFFFFFFFFFFFF AND EQ JUMPDEST ISZERO PUSH2 0x1FA4 JUMPI PUSH1 0x1 SWAP1 POP PUSH2 0x21C3 JUMP JUMPDEST PUSH0 PUSH1 0x4 SLOAD SWAP1 POP PUSH0 PUSH1 0x1 PUSH1 0x2 SWAP1 SLOAD SWAP1 PUSH2 0x100 EXP SWAP1 DIV PUSH20 0xFFFFFFFFFFFFFFFFFFFFFFFFFFFFFFFFFFFFFFFF AND SWAP1 POP PUSH0 PUSH0 PUSH0 DUP4 PUSH20 0xFFFFFFFFFFFFFFFFFFFFFFFFFFFFFFFFFFFFFFFF AND PUSH4 0xC043DECC PUSH1 0x40 MLOAD DUP2 PUSH4 0xFFFFFFFF AND PUSH1 0xE0 SHL DUP2 MSTORE PUSH1 0x4 ADD PUSH1 0x20 PUSH1 0x40 MLOAD DUP1 DUP4 SUB DUP2 DUP7 GAS STATICCALL SWAP3 POP POP POP DUP1 ISZERO PUSH2 0x203B JUMPI POP PUSH1 0x40 MLOAD RETURNDATASIZE PUSH1 0x1F NOT PUSH1 0x1F DUP3 ADD AND DUP3 ADD DUP1 PUSH1 0x40 MSTORE POP DUP2 ADD SWAP1 PUSH2 0x2038 SWAP2 SWAP1 PUSH2 0x3245 JUMP JUMPDEST PUSH1 0x1 JUMPDEST PUSH2 0x204C JUMPI PUSH0 SWAP6 POP POP POP POP POP POP PUSH2 0x21C3 JUMP JUMPDEST DUP1 SWAP4 POP POP DUP4 PUSH20 0xFFFFFFFFFFFFFFFFFFFFFFFFFFFFFFFFFFFFFFFF AND PUSH4 0x6AA393F8 PUSH1 0x40 MLOAD DUP2 PUSH4 0xFFFFFFFF AND PUSH1 0xE0 SHL DUP2 MSTORE PUSH1 0x4 ADD PUSH1 0x20 PUSH1 0x40 MLOAD DUP1 DUP4 SUB DUP2 DUP7 GAS STATICCALL SWAP3 POP POP POP DUP1 ISZERO PUSH2 0x20B8 JUMPI POP PUSH1 0x40 MLOAD RETURNDATASIZE PUSH1 0x1F NOT PUSH1 0x1F DUP3 ADD AND DUP3 ADD DUP1 PUSH1 0x40 MSTORE POP DUP2 ADD SWAP1 PUSH2 0x20B5 SWAP2 SWAP1 PUSH2 0x3245 JUMP JUMPDEST PUSH1 0x1 JUMPDEST PUSH2 0x20C9 JUMPI PUSH0 SWAP6 POP POP POP POP POP POP PUSH2 0x21C3 JUMP JUMPDEST DUP1 SWAP3 POP POP DUP4 PUSH20 0xFFFFFFFFFFFFFFFFFFFFFFFFFFFFFFFFFFFFFFFF AND PUSH4 0x594DB753 PUSH1 0x40 MLOAD DUP2 PUSH4 0xFFFFFFFF AND PUSH1 0xE0 SHL DUP2 MSTORE PUSH1 0x4 ADD PUSH1 0x20 PUSH1 0x40 MLOAD DUP1 DUP4 SUB DUP2 DUP7 GAS STATICCALL SWAP3 POP POP POP DUP1 ISZERO PUSH2 0x2135 JUMPI POP PUSH1 0x40 MLOAD RETURNDATASIZE PUSH1 0x1F NOT PUSH1 0x1F DUP3 ADD AND DUP3 ADD DUP1 PUSH1 0x40 MSTORE POP DUP2 ADD SWAP1 PUSH2 0x2132 SWAP2 SWAP1 PUSH2 0x3245 JUMP JUMPDEST PUSH1 0x1 JUMPDEST PUSH2 0x2146 JUMPI PUSH0 SWAP6 POP POP POP POP POP POP PUSH2 0x21C3 JUMP JUMPDEST DUP1 SWAP2 POP POP PUSH0 PUSH2 0x2153 PUSH2 0x2545 JUMP JUMPDEST SWAP1 POP PUSH0 DUP4 PUSH32 0x0 PUSH2 0x2182 SWAP2 SWAP1 PUSH2 0x2A89 JUMP JUMPDEST DUP6 DUP9 PUSH2 0x218E SWAP2 SWAP1 PUSH2 0x2A89 JUMP JUMPDEST EQ SWAP1 POP PUSH0 DUP4 DUP4 PUSH2 0x219E SWAP2 SWAP1 PUSH2 0x2A89 JUMP JUMPDEST DUP7 DUP10 PUSH2 0x21AA SWAP2 SWAP1 PUSH2 0x2A89 JUMP JUMPDEST GT ISZERO SWAP1 POP DUP2 DUP1 ISZERO PUSH2 0x21B8 JUMPI POP DUP1 JUMPDEST SWAP9 POP POP POP POP POP POP POP POP POP JUMPDEST SWAP1 JUMP JUMPDEST PUSH0 ADDRESS PUSH20 0xFFFFFFFFFFFFFFFFFFFFFFFFFFFFFFFFFFFFFFFF AND PUSH1 0x1 PUSH1 0x2 SWAP1 SLOAD SWAP1 PUSH2 0x100 EXP SWAP1 DIV PUSH20 0xFFFFFFFFFFFFFFFFFFFFFFFFFFFFFFFFFFFFFFFF AND PUSH20 0xFFFFFFFFFFFFFFFFFFFFFFFFFFFFFFFFFFFFFFFF AND EQ ISZERO SWAP1 POP SWAP1 JUMP JUMPDEST PUSH32 0x0 PUSH20 0xFFFFFFFFFFFFFFFFFFFFFFFFFFFFFFFFFFFFFFFF AND CALLER PUSH20 0xFFFFFFFFFFFFFFFFFFFFFFFFFFFFFFFFFFFFFFFF AND EQ PUSH2 0x22AC JUMPI PUSH1 0x40 MLOAD PUSH32 0x8C379A000000000000000000000000000000000000000000000000000000000 DUP2 MSTORE PUSH1 0x4 ADD PUSH2 0x22A3 SWAP1 PUSH2 0x2836 JUMP JUMPDEST PUSH1 0x40 MLOAD DUP1 SWAP2 SUB SWAP1 REVERT JUMPDEST PUSH1 0x1 PUSH0 SWAP1 SLOAD SWAP1 PUSH2 0x100 EXP SWAP1 DIV PUSH1 0xFF AND PUSH2 0x22FA JUMPI PUSH1 0x40 MLOAD PUSH32 0x8C379A000000000000000000000000000000000000000000000000000000000 DUP2 MSTORE PUSH1 0x4 ADD PUSH2 0x22F1 SWAP1 PUSH2 0x33F2 JUMP JUMPDEST PUSH1 0x40 MLOAD DUP1 SWAP2 SUB SWAP1 REVERT JUMPDEST PUSH0 PUSH1 0x1 PUSH1 0x2 SWAP1 SLOAD SWAP1 PUSH2 0x100 EXP SWAP1 DIV PUSH20 0xFFFFFFFFFFFFFFFFFFFFFFFFFFFFFFFFFFFFFFFF AND SWAP1 POP PUSH0 PUSH1 0x1 PUSH1 0x2 PUSH2 0x100 EXP DUP2 SLOAD DUP2 PUSH20 0xFFFFFFFFFFFFFFFFFFFFFFFFFFFFFFFFFFFFFFFF MUL NOT AND SWAP1 DUP4 PUSH20 0xFFFFFFFFFFFFFFFFFFFFFFFFFFFFFFFFFFFFFFFF AND MUL OR SWAP1 SSTORE POP PUSH0 PUSH1 0x1 PUSH0 PUSH2 0x100 EXP DUP2 SLOAD DUP2 PUSH1 0xFF MUL NOT AND SWAP1 DUP4 ISZERO ISZERO MUL OR SWAP1 SSTORE POP PUSH2 0x2382 PUSH2 0x2545 JUMP JUMPDEST PUSH1 0x4 DUP2 SWAP1 SSTORE POP PUSH0 PUSH20 0xFFFFFFFFFFFFFFFFFFFFFFFFFFFFFFFFFFFFFFFF AND DUP2 PUSH20 0xFFFFFFFFFFFFFFFFFFFFFFFFFFFFFFFFFFFFFFFF AND EQ ISZERO DUP1 ISZERO PUSH2 0x23DA JUMPI POP PUSH0 DUP2 PUSH20 0xFFFFFFFFFFFFFFFFFFFFFFFFFFFFFFFFFFFFFFFF AND EXTCODESIZE GT JUMPDEST ISZERO PUSH2 0x2480 JUMPI DUP1 PUSH20 0xFFFFFFFFFFFFFFFFFFFFFFFFFFFFFFFFFFFFFFFF AND PUSH4 0x38FB27BA ADDRESS PUSH1 0x40 MLOAD DUP3 PUSH4 0xFFFFFFFF AND PUSH1 0xE0 SHL DUP2 MSTORE PUSH1 0x4 ADD PUSH2 0x2418 SWAP2 SWAP1 PUSH2 0x25D4 JUMP JUMPDEST PUSH0 PUSH1 0x40 MLOAD DUP1 DUP4 SUB DUP2 PUSH0 DUP8 DUP1 EXTCODESIZE ISZERO DUP1 ISZERO PUSH2 0x242F JUMPI PUSH0 PUSH0 REVERT JUMPDEST POP GAS CALL SWAP3 POP POP POP DUP1 ISZERO PUSH2 0x2440 JUMPI POP PUSH1 0x1 JUMPDEST PUSH2 0x247F JUMPI PUSH1 0x40 MLOAD PUSH32 0x8C379A000000000000000000000000000000000000000000000000000000000 DUP2 MSTORE PUSH1 0x4 ADD PUSH2 0x2476 SWAP1 PUSH2 0x345A JUMP JUMPDEST PUSH1 0x40 MLOAD DUP1 SWAP2 SUB SWAP1 REVERT JUMPDEST JUMPDEST POP JUMP JUMPDEST PUSH0 PUSH1 0x5 SLOAD SWAP1 POP SWAP1 JUMP JUMPDEST PUSH0 PUSH1 0x1 DUP1 SLOAD SWAP1 PUSH2 0x100 EXP SWAP1 DIV PUSH1 0xFF AND SWAP1 POP SWAP1 JUMP JUMPDEST PUSH0 PUSH0 DUP3 PUSH20 0xFFFFFFFFFFFFFFFFFFFFFFFFFFFFFFFFFFFFFFFF AND EXTCODESIZE SUB PUSH2 0x24C7 JUMPI PUSH0 SWAP1 POP PUSH2 0x2540 JUMP JUMPDEST DUP2 PUSH20 0xFFFFFFFFFFFFFFFFFFFFFFFFFFFFFFFFFFFFFFFF AND PUSH4 0xF7EC2F35 PUSH1 0x40 MLOAD DUP2 PUSH4 0xFFFFFFFF AND PUSH1 0xE0 SHL DUP2 MSTORE PUSH1 0x4 ADD PUSH1 0x20 PUSH1 0x40 MLOAD DUP1 DUP4 SUB DUP2 DUP7 GAS STATICCALL SWAP3 POP POP POP DUP1 ISZERO PUSH2 0x252F JUMPI POP PUSH1 0x40 MLOAD RETURNDATASIZE PUSH1 0x1F NOT PUSH1 0x1F DUP3 ADD AND DUP3 ADD DUP1 PUSH1 0x40 MSTORE POP DUP2 ADD SWAP1 PUSH2 0x252C SWAP2 SWAP1 PUSH2 0x27B1 JUMP JUMPDEST PUSH1 0x1 JUMPDEST PUSH2 0x253B JUMPI PUSH0 SWAP1 POP PUSH2 0x2540 JUMP JUMPDEST DUP1 SWAP2 POP POP JUMPDEST SWAP2 SWAP1 POP JUMP JUMPDEST PUSH0 PUSH1 0x41 PUSH0 SLOAD LT PUSH2 0x2559 JUMPI PUSH2 0x1B58 SWAP1 POP PUSH2 0x255F JUMP JUMPDEST PUSH2 0x1388 SWAP1 POP JUMPDEST SWAP1 JUMP JUMPDEST PUSH0 DUP2 ISZERO ISZERO SWAP1 POP SWAP2 SWAP1 POP JUMP JUMPDEST PUSH2 0x2576 DUP2 PUSH2 0x2562 JUMP JUMPDEST DUP3 MSTORE POP POP JUMP JUMPDEST PUSH0 PUSH1 0x20 DUP3 ADD SWAP1 POP PUSH2 0x258F PUSH0 DUP4 ADD DUP5 PUSH2 0x256D JUMP JUMPDEST SWAP3 SWAP2 POP POP JUMP JUMPDEST PUSH0 PUSH20 0xFFFFFFFFFFFFFFFFFFFFFFFFFFFFFFFFFFFFFFFF DUP3 AND SWAP1 POP SWAP2 SWAP1 POP JUMP JUMPDEST PUSH0 PUSH2 0x25BE DUP3 PUSH2 0x2595 JUMP JUMPDEST SWAP1 POP SWAP2 SWAP1 POP JUMP JUMPDEST PUSH2 0x25CE DUP2 PUSH2 0x25B4 JUMP JUMPDEST DUP3 MSTORE POP POP JUMP JUMPDEST PUSH0 PUSH1 0x20 DUP3 ADD SWAP1 POP PUSH2 0x25E7 PUSH0 DUP4 ADD DUP5 PUSH2 0x25C5 JUMP JUMPDEST SWAP3 SWAP2 POP POP JUMP JUMPDEST PUSH0 PUSH0 REVERT JUMPDEST PUSH2 0x25FA DUP2 PUSH2 0x25B4 JUMP JUMPDEST DUP2 EQ PUSH2 0x2604 JUMPI PUSH0 PUSH0 REVERT JUMPDEST POP JUMP JUMPDEST PUSH0 DUP2 CALLDATALOAD SWAP1 POP PUSH2 0x2615 DUP2 PUSH2 0x25F1 JUMP JUMPDEST SWAP3 SWAP2 POP POP JUMP JUMPDEST PUSH0 DUP2 SWAP1 POP SWAP2 SWAP1 POP JUMP JUMPDEST PUSH2 0x262D DUP2 PUSH2 0x261B JUMP JUMPDEST DUP2 EQ PUSH2 0x2637 JUMPI PUSH0 PUSH0 REVERT JUMPDEST POP JUMP JUMPDEST PUSH0 DUP2 CALLDATALOAD SWAP1 POP PUSH2 0x2648 DUP2 PUSH2 0x2624 JUMP JUMPDEST SWAP3 SWAP2 POP POP JUMP JUMPDEST PUSH0 PUSH0 PUSH1 0x40 DUP4 DUP6 SUB SLT ISZERO PUSH2 0x2664 JUMPI PUSH2 0x2663 PUSH2 0x25ED JUMP JUMPDEST JUMPDEST PUSH0 PUSH2 0x2671 DUP6 DUP3 DUP7 ADD PUSH2 0x2607 JUMP JUMPDEST SWAP3 POP POP PUSH1 0x20 PUSH2 0x2682 DUP6 DUP3 DUP7 ADD PUSH2 0x263A JUMP JUMPDEST SWAP2 POP POP SWAP3 POP SWAP3 SWAP1 POP JUMP JUMPDEST PUSH0 PUSH1 0x20 DUP3 DUP5 SUB SLT ISZERO PUSH2 0x26A1 JUMPI PUSH2 0x26A0 PUSH2 0x25ED JUMP JUMPDEST JUMPDEST PUSH0 PUSH2 0x26AE DUP5 DUP3 DUP6 ADD PUSH2 0x263A JUMP JUMPDEST SWAP2 POP POP SWAP3 SWAP2 POP POP JUMP JUMPDEST PUSH0 PUSH0 PUSH1 0x40 DUP4 DUP6 SUB SLT ISZERO PUSH2 0x26CD JUMPI PUSH2 0x26CC PUSH2 0x25ED JUMP JUMPDEST JUMPDEST PUSH0 PUSH2 0x26DA DUP6 DUP3 DUP7 ADD PUSH2 0x263A JUMP JUMPDEST SWAP3 POP POP PUSH1 0x20 PUSH2 0x26EB DUP6 DUP3 DUP7 ADD PUSH2 0x2607 JUMP JUMPDEST SWAP2 POP POP SWAP3 POP SWAP3 SWAP1 POP JUMP JUMPDEST PUSH0 PUSH1 0x20 DUP3 DUP5 SUB SLT ISZERO PUSH2 0x270A JUMPI PUSH2 0x2709 PUSH2 0x25ED JUMP JUMPDEST JUMPDEST PUSH0 PUSH2 0x2717 DUP5 DUP3 DUP6 ADD PUSH2 0x2607 JUMP JUMPDEST SWAP2 POP POP SWAP3 SWAP2 POP POP JUMP JUMPDEST PUSH2 0x2729 DUP2 PUSH2 0x261B JUMP JUMPDEST DUP3 MSTORE POP POP JUMP JUMPDEST PUSH0 PUSH1 0x20 DUP3 ADD SWAP1 POP PUSH2 0x2742 PUSH0 DUP4 ADD DUP5 PUSH2 0x2720 JUMP JUMPDEST SWAP3 SWAP2 POP POP JUMP JUMPDEST PUSH0 DUP2 MLOAD SWAP1 POP PUSH2 0x2756 DUP2 PUSH2 0x25F1 JUMP JUMPDEST SWAP3 SWAP2 POP POP JUMP JUMPDEST PUSH0 PUSH1 0x20 DUP3 DUP5 SUB SLT ISZERO PUSH2 0x2771 JUMPI PUSH2 0x2770 PUSH2 0x25ED JUMP JUMPDEST JUMPDEST PUSH0 PUSH2 0x277E DUP5 DUP3 DUP6 ADD PUSH2 0x2748 JUMP JUMPDEST SWAP2 POP POP SWAP3 SWAP2 POP POP JUMP JUMPDEST PUSH2 0x2790 DUP2 PUSH2 0x2562 JUMP JUMPDEST DUP2 EQ PUSH2 0x279A JUMPI PUSH0 PUSH0 REVERT JUMPDEST POP JUMP JUMPDEST PUSH0 DUP2 MLOAD SWAP1 POP PUSH2 0x27AB DUP2 PUSH2 0x2787 JUMP JUMPDEST SWAP3 SWAP2 POP POP JUMP JUMPDEST PUSH0 PUSH1 0x20 DUP3 DUP5 SUB SLT ISZERO PUSH2 0x27C6 JUMPI PUSH2 0x27C5 PUSH2 0x25ED JUMP JUMPDEST JUMPDEST PUSH0 PUSH2 0x27D3 DUP5 DUP3 DUP6 ADD PUSH2 0x279D JUMP JUMPDEST SWAP2 POP POP SWAP3 SWAP2 POP POP JUMP JUMPDEST PUSH0 DUP3 DUP3 MSTORE PUSH1 0x20 DUP3 ADD SWAP1 POP SWAP3 SWAP2 POP POP JUMP JUMPDEST PUSH32 0x4F6E6C79206F776E657200000000000000000000000000000000000000000000 PUSH0 DUP3 ADD MSTORE POP JUMP JUMPDEST PUSH0 PUSH2 0x2820 PUSH1 0xA DUP4 PUSH2 0x27DC JUMP JUMPDEST SWAP2 POP PUSH2 0x282B DUP3 PUSH2 0x27EC JUMP JUMPDEST PUSH1 0x20 DUP3 ADD SWAP1 POP SWAP2 SWAP1 POP JUMP JUMPDEST PUSH0 PUSH1 0x20 DUP3 ADD SWAP1 POP DUP2 DUP2 SUB PUSH0 DUP4 ADD MSTORE PUSH2 0x284D DUP2 PUSH2 0x2814 JUMP JUMPDEST SWAP1 POP SWAP2 SWAP1 POP JUMP JUMPDEST PUSH32 0x496E76616C6964206C6F74746572727900000000000000000000000000000000 PUSH0 DUP3 ADD MSTORE POP JUMP JUMPDEST PUSH0 PUSH2 0x2888 PUSH1 0x10 DUP4 PUSH2 0x27DC JUMP JUMPDEST SWAP2 POP PUSH2 0x2893 DUP3 PUSH2 0x2854 JUMP JUMPDEST PUSH1 0x20 DUP3 ADD SWAP1 POP SWAP2 SWAP1 POP JUMP JUMPDEST PUSH0 PUSH1 0x20 DUP3 ADD SWAP1 POP DUP2 DUP2 SUB PUSH0 DUP4 ADD MSTORE PUSH2 0x28B5 DUP2 PUSH2 0x287C JUMP JUMPDEST SWAP1 POP SWAP2 SWAP1 POP JUMP JUMPDEST PUSH32 0x4E6F20636F6D6D69747465642072657665616C00000000000000000000000000 PUSH0 DUP3 ADD MSTORE POP JUMP JUMPDEST PUSH0 PUSH2 0x28F0 PUSH1 0x13 DUP4 PUSH2 0x27DC JUMP JUMPDEST SWAP2 POP PUSH2 0x28FB DUP3 PUSH2 0x28BC JUMP JUMPDEST PUSH1 0x20 DUP3 ADD SWAP1 POP SWAP2 SWAP1 POP JUMP JUMPDEST PUSH0 PUSH1 0x20 DUP3 ADD SWAP1 POP DUP2 DUP2 SUB PUSH0 DUP4 ADD MSTORE PUSH2 0x291D DUP2 PUSH2 0x28E4 JUMP JUMPDEST SWAP1 POP SWAP2 SWAP1 POP JUMP JUMPDEST PUSH32 0x4C6F74746572792072657665616C206661696C65640000000000000000000000 PUSH0 DUP3 ADD MSTORE POP JUMP JUMPDEST PUSH0 PUSH2 0x2958 PUSH1 0x15 DUP4 PUSH2 0x27DC JUMP JUMPDEST SWAP2 POP PUSH2 0x2963 DUP3 PUSH2 0x2924 JUMP JUMPDEST PUSH1 0x20 DUP3 ADD SWAP1 POP SWAP2 SWAP1 POP JUMP JUMPDEST PUSH0 PUSH1 0x20 DUP3 ADD SWAP1 POP DUP2 DUP2 SUB PUSH0 DUP4 ADD MSTORE PUSH2 0x2985 DUP2 PUSH2 0x294C JUMP JUMPDEST SWAP1 POP SWAP2 SWAP1 POP JUMP JUMPDEST PUSH32 0x4E6F7420617574686F72697A656420746F2073657420616C6C6F77616E636500 PUSH0 DUP3 ADD MSTORE POP JUMP JUMPDEST PUSH0 PUSH2 0x29C0 PUSH1 0x1F DUP4 PUSH2 0x27DC JUMP JUMPDEST SWAP2 POP PUSH2 0x29CB DUP3 PUSH2 0x298C JUMP JUMPDEST PUSH1 0x20 DUP3 ADD SWAP1 POP SWAP2 SWAP1 POP JUMP JUMPDEST PUSH0 PUSH1 0x20 DUP3 ADD SWAP1 POP DUP2 DUP2 SUB PUSH0 DUP4 ADD MSTORE PUSH2 0x29ED DUP2 PUSH2 0x29B4 JUMP JUMPDEST SWAP1 POP SWAP2 SWAP1 POP JUMP JUMPDEST PUSH32 0x4F6E6C792073706F757365206F72206F726967696E0000000000000000000000 PUSH0 DUP3 ADD MSTORE POP JUMP JUMPDEST PUSH0 PUSH2 0x2A28 PUSH1 0x15 DUP4 PUSH2 0x27DC JUMP JUMPDEST SWAP2 POP PUSH2 0x2A33 DUP3 PUSH2 0x29F4 JUMP JUMPDEST PUSH1 0x20 DUP3 ADD SWAP1 POP SWAP2 SWAP1 POP JUMP JUMPDEST PUSH0 PUSH1 0x20 DUP3 ADD SWAP1 POP DUP2 DUP2 SUB PUSH0 DUP4 ADD MSTORE PUSH2 0x2A55 DUP2 PUSH2 0x2A1C JUMP JUMPDEST SWAP1 POP SWAP2 SWAP1 POP JUMP JUMPDEST PUSH32 0x4E487B7100000000000000000000000000000000000000000000000000000000 PUSH0 MSTORE PUSH1 0x11 PUSH1 0x4 MSTORE PUSH1 0x24 PUSH0 REVERT JUMPDEST PUSH0 PUSH2 0x2A93 DUP3 PUSH2 0x261B JUMP JUMPDEST SWAP2 POP PUSH2 0x2A9E DUP4 PUSH2 0x261B JUMP JUMPDEST SWAP3 POP DUP3 DUP3 ADD SWAP1 POP DUP1 DUP3 GT ISZERO PUSH2 0x2AB6 JUMPI PUSH2 0x2AB5 PUSH2 0x2A5C JUMP JUMPDEST JUMPDEST SWAP3 SWAP2 POP POP JUMP JUMPDEST PUSH0 PUSH2 0x2AC6 DUP3 PUSH2 0x261B JUMP JUMPDEST SWAP2 POP PUSH32 0xFFFFFFFFFFFFFFFFFFFFFFFFFFFFFFFFFFFFFFFFFFFFFFFFFFFFFFFFFFFFFFFF DUP3 SUB PUSH2 0x2AF8 JUMPI PUSH2 0x2AF7 PUSH2 0x2A5C JUMP JUMPDEST JUMPDEST PUSH1 0x1 DUP3 ADD SWAP1 POP SWAP2 SWAP1 POP JUMP JUMPDEST PUSH32 0x4F6E6C7920706172746E65722063616E206E6F74696679000000000000000000 PUSH0 DUP3 ADD MSTORE POP JUMP JUMPDEST PUSH0 PUSH2 0x2B37 PUSH1 0x17 DUP4 PUSH2 0x27DC JUMP JUMPDEST SWAP2 POP PUSH2 0x2B42 DUP3 PUSH2 0x2B03 JUMP JUMPDEST PUSH1 0x20 DUP3 ADD SWAP1 POP SWAP2 SWAP1 POP JUMP JUMPDEST PUSH0 PUSH1 0x20 DUP3 ADD SWAP1 POP DUP2 DUP2 SUB PUSH0 DUP4 ADD MSTORE PUSH2 0x2B64 DUP2 PUSH2 0x2B2B JUMP JUMPDEST SWAP1 POP SWAP2 SWAP1 POP JUMP JUMPDEST PUSH0 PUSH2 0x2B75 DUP3 PUSH2 0x261B JUMP JUMPDEST SWAP2 POP PUSH2 0x2B80 DUP4 PUSH2 0x261B JUMP JUMPDEST SWAP3 POP DUP3 DUP3 SUB SWAP1 POP DUP2 DUP2 GT ISZERO PUSH2 0x2B98 JUMPI PUSH2 0x2B97 PUSH2 0x2A5C JUMP JUMPDEST JUMPDEST SWAP3 SWAP2 POP POP JUMP JUMPDEST PUSH0 PUSH2 0x2BA8 DUP3 PUSH2 0x261B JUMP JUMPDEST SWAP2 POP PUSH2 0x2BB3 DUP4 PUSH2 0x261B JUMP JUMPDEST SWAP3 POP DUP3 DUP3 MUL PUSH2 0x2BC1 DUP2 PUSH2 0x261B JUMP JUMPDEST SWAP2 POP DUP3 DUP3 DIV DUP5 EQ DUP4 ISZERO OR PUSH2 0x2BD8 JUMPI PUSH2 0x2BD7 PUSH2 0x2A5C JUMP JUMPDEST JUMPDEST POP SWAP3 SWAP2 POP POP JUMP JUMPDEST PUSH32 0x4E487B7100000000000000000000000000000000000000000000000000000000 PUSH0 MSTORE PUSH1 0x12 PUSH1 0x4 MSTORE PUSH1 0x24 PUSH0 REVERT JUMPDEST PUSH0 PUSH2 0x2C16 DUP3 PUSH2 0x261B JUMP JUMPDEST SWAP2 POP PUSH2 0x2C21 DUP4 PUSH2 0x261B JUMP JUMPDEST SWAP3 POP DUP3 PUSH2 0x2C31 JUMPI PUSH2 0x2C30 PUSH2 0x2BDF JUMP JUMPDEST JUMPDEST DUP3 DUP3 DIV SWAP1 POP SWAP3 SWAP2 POP POP JUMP JUMPDEST PUSH32 0x496E76616C6964206C6F74746572790000000000000000000000000000000000 PUSH0 DUP3 ADD MSTORE POP JUMP JUMPDEST PUSH0 PUSH2 0x2C70 PUSH1 0xF DUP4 PUSH2 0x27DC JUMP JUMPDEST SWAP2 POP PUSH2 0x2C7B DUP3 PUSH2 0x2C3C JUMP JUMPDEST PUSH1 0x20 DUP3 ADD SWAP1 POP SWAP2 SWAP1 POP JUMP JUMPDEST PUSH0 PUSH1 0x20 DUP3 ADD SWAP1 POP DUP2 DUP2 SUB PUSH0 DUP4 ADD MSTORE PUSH2 0x2C9D DUP2 PUSH2 0x2C64 JUMP JUMPDEST SWAP1 POP SWAP2 SWAP1 POP JUMP JUMPDEST PUSH0 DUP2 SWAP1 POP SWAP2 SWAP1 POP JUMP JUMPDEST PUSH2 0x2CB6 DUP2 PUSH2 0x2CA4 JUMP JUMPDEST DUP3 MSTORE POP POP JUMP JUMPDEST PUSH0 PUSH1 0x20 DUP3 ADD SWAP1 POP PUSH2 0x2CCF PUSH0 DUP4 ADD DUP5 PUSH2 0x2CAD JUMP JUMPDEST SWAP3 SWAP2 POP POP JUMP JUMPDEST PUSH32 0x4C6F747465727920636F6D6D6974206661696C65640000000000000000000000 PUSH0 DUP3 ADD MSTORE POP JUMP JUMPDEST PUSH0 PUSH2 0x2D09 PUSH1 0x15 DUP4 PUSH2 0x27DC JUMP JUMPDEST SWAP2 POP PUSH2 0x2D14 DUP3 PUSH2 0x2CD5 JUMP JUMPDEST PUSH1 0x20 DUP3 ADD SWAP1 POP SWAP2 SWAP1 POP JUMP JUMPDEST PUSH0 PUSH1 0x20 DUP3 ADD SWAP1 POP DUP2 DUP2 SUB PUSH0 DUP4 ADD MSTORE PUSH2 0x2D36 DUP2 PUSH2 0x2CFD JUMP JUMPDEST SWAP1 POP SWAP2 SWAP1 POP JUMP JUMPDEST PUSH32 0x4E6F2073706F7573650000000000000000000000000000000000000000000000 PUSH0 DUP3 ADD MSTORE POP JUMP JUMPDEST PUSH0 PUSH2 0x2D71 PUSH1 0x9 DUP4 PUSH2 0x27DC JUMP JUMPDEST SWAP2 POP PUSH2 0x2D7C DUP3 PUSH2 0x2D3D JUMP JUMPDEST PUSH1 0x20 DUP3 ADD SWAP1 POP SWAP2 SWAP1 POP JUMP JUMPDEST PUSH0 PUSH1 0x20 DUP3 ADD SWAP1 POP DUP2 DUP2 SUB PUSH0 DUP4 ADD MSTORE PUSH2 0x2D9E DUP2 PUSH2 0x2D65 JUMP JUMPDEST SWAP1 POP SWAP2 SWAP1 POP JUMP JUMPDEST PUSH32 0x5A65726F206368616E6765000000000000000000000000000000000000000000 PUSH0 DUP3 ADD MSTORE POP JUMP JUMPDEST PUSH0 PUSH2 0x2DD9 PUSH1 0xB DUP4 PUSH2 0x27DC JUMP JUMPDEST SWAP2 POP PUSH2 0x2DE4 DUP3 PUSH2 0x2DA5 JUMP JUMPDEST PUSH1 0x20 DUP3 ADD SWAP1 POP SWAP2 SWAP1 POP JUMP JUMPDEST PUSH0 PUSH1 0x20 DUP3 ADD SWAP1 POP DUP2 DUP2 SUB PUSH0 DUP4 ADD MSTORE PUSH2 0x2E06 DUP2 PUSH2 0x2DCD JUMP JUMPDEST SWAP1 POP SWAP2 SWAP1 POP JUMP JUMPDEST PUSH32 0x4E6F7420656E6F75676820616C6C6F77616E6365000000000000000000000000 PUSH0 DUP3 ADD MSTORE POP JUMP JUMPDEST PUSH0 PUSH2 0x2E41 PUSH1 0x14 DUP4 PUSH2 0x27DC JUMP JUMPDEST SWAP2 POP PUSH2 0x2E4C DUP3 PUSH2 0x2E0D JUMP JUMPDEST PUSH1 0x20 DUP3 ADD SWAP1 POP SWAP2 SWAP1 POP JUMP JUMPDEST PUSH0 PUSH1 0x20 DUP3 ADD SWAP1 POP DUP2 DUP2 SUB PUSH0 DUP4 ADD MSTORE PUSH2 0x2E6E DUP2 PUSH2 0x2E35 JUMP JUMPDEST SWAP1 POP SWAP2 SWAP1 POP JUMP JUMPDEST PUSH0 PUSH1 0x40 DUP3 ADD SWAP1 POP PUSH2 0x2E88 PUSH0 DUP4 ADD DUP6 PUSH2 0x2720 JUMP JUMPDEST PUSH2 0x2E95 PUSH1 0x20 DUP4 ADD DUP5 PUSH2 0x25C5 JUMP JUMPDEST SWAP4 SWAP3 POP POP POP JUMP JUMPDEST PUSH32 0x4661696C656420746F207472616E736665722073706F75736500000000000000 PUSH0 DUP3 ADD MSTORE POP JUMP JUMPDEST PUSH0 PUSH2 0x2ED0 PUSH1 0x19 DUP4 PUSH2 0x27DC JUMP JUMPDEST SWAP2 POP PUSH2 0x2EDB DUP3 PUSH2 0x2E9C JUMP JUMPDEST PUSH1 0x20 DUP3 ADD SWAP1 POP SWAP2 SWAP1 POP JUMP JUMPDEST PUSH0 PUSH1 0x20 DUP3 ADD SWAP1 POP DUP2 DUP2 SUB PUSH0 DUP4 ADD MSTORE PUSH2 0x2EFD DUP2 PUSH2 0x2EC4 JUMP JUMPDEST SWAP1 POP SWAP2 SWAP1 POP JUMP JUMPDEST PUSH2 0x2F0D DUP2 PUSH2 0x2CA4 JUMP JUMPDEST DUP2 EQ PUSH2 0x2F17 JUMPI PUSH0 PUSH0 REVERT JUMPDEST POP JUMP JUMPDEST PUSH0 DUP2 MLOAD SWAP1 POP PUSH2 0x2F28 DUP2 PUSH2 0x2F04 JUMP JUMPDEST SWAP3 SWAP2 POP POP JUMP JUMPDEST PUSH0 PUSH1 0x20 DUP3 DUP5 SUB SLT ISZERO PUSH2 0x2F43 JUMPI PUSH2 0x2F42 PUSH2 0x25ED JUMP JUMPDEST JUMPDEST PUSH0 PUSH2 0x2F50 DUP5 DUP3 DUP6 ADD PUSH2 0x2F1A JUMP JUMPDEST SWAP2 POP POP SWAP3 SWAP2 POP POP JUMP JUMPDEST PUSH32 0x4920616D20616C7265616479206D617272696564000000000000000000000000 PUSH0 DUP3 ADD MSTORE POP JUMP JUMPDEST PUSH0 PUSH2 0x2F8D PUSH1 0x14 DUP4 PUSH2 0x27DC JUMP JUMPDEST SWAP2 POP PUSH2 0x2F98 DUP3 PUSH2 0x2F59 JUMP JUMPDEST PUSH1 0x20 DUP3 ADD SWAP1 POP SWAP2 SWAP1 POP JUMP JUMPDEST PUSH0 PUSH1 0x20 DUP3 ADD SWAP1 POP DUP2 DUP2 SUB PUSH0 DUP4 ADD MSTORE PUSH2 0x2FBA DUP2 PUSH2 0x2F81 JUMP JUMPDEST SWAP1 POP SWAP2 SWAP1 POP JUMP JUMPDEST PUSH32 0x53706F7573652063616E6E6F74206265207A65726F2061646472657373000000 PUSH0 DUP3 ADD MSTORE POP JUMP JUMPDEST PUSH0 PUSH2 0x2FF5 PUSH1 0x1D DUP4 PUSH2 0x27DC JUMP JUMPDEST SWAP2 POP PUSH2 0x3000 DUP3 PUSH2 0x2FC1 JUMP JUMPDEST PUSH1 0x20 DUP3 ADD SWAP1 POP SWAP2 SWAP1 POP JUMP JUMPDEST PUSH0 PUSH1 0x20 DUP3 ADD SWAP1 POP DUP2 DUP2 SUB PUSH0 DUP4 ADD MSTORE PUSH2 0x3022 DUP2 PUSH2 0x2FE9 JUMP JUMPDEST SWAP1 POP SWAP2 SWAP1 POP JUMP JUMPDEST PUSH32 0x43616E6E6F74206D61727279206D7973656C6600000000000000000000000000 PUSH0 DUP3 ADD MSTORE POP JUMP JUMPDEST PUSH0 PUSH2 0x305D PUSH1 0x13 DUP4 PUSH2 0x27DC JUMP JUMPDEST SWAP2 POP PUSH2 0x3068 DUP3 PUSH2 0x3029 JUMP JUMPDEST PUSH1 0x20 DUP3 ADD SWAP1 POP SWAP2 SWAP1 POP JUMP JUMPDEST PUSH0 PUSH1 0x20 DUP3 ADD SWAP1 POP DUP2 DUP2 SUB PUSH0 DUP4 ADD MSTORE PUSH2 0x308A DUP2 PUSH2 0x3051 JUMP JUMPDEST SWAP1 POP SWAP2 SWAP1 POP JUMP JUMPDEST PUSH32 0x53706F757365206D757374206265206120636F6E747261637400000000000000 PUSH0 DUP3 ADD MSTORE POP JUMP JUMPDEST PUSH0 PUSH2 0x30C5 PUSH1 0x19 DUP4 PUSH2 0x27DC JUMP JUMPDEST SWAP2 POP PUSH2 0x30D0 DUP3 PUSH2 0x3091 JUMP JUMPDEST PUSH1 0x20 DUP3 ADD SWAP1 POP SWAP2 SWAP1 POP JUMP JUMPDEST PUSH0 PUSH1 0x20 DUP3 ADD SWAP1 POP DUP2 DUP2 SUB PUSH0 DUP4 ADD MSTORE PUSH2 0x30F2 DUP2 PUSH2 0x30B9 JUMP JUMPDEST SWAP1 POP SWAP2 SWAP1 POP JUMP JUMPDEST PUSH32 0x53706F757365206E6F7420636F6D70617469626C650000000000000000000000 PUSH0 DUP3 ADD MSTORE POP JUMP JUMPDEST PUSH0 PUSH2 0x312D PUSH1 0x15 DUP4 PUSH2 0x27DC JUMP JUMPDEST SWAP2 POP PUSH2 0x3138 DUP3 PUSH2 0x30F9 JUMP JUMPDEST PUSH1 0x20 DUP3 ADD SWAP1 POP SWAP2 SWAP1 POP JUMP JUMPDEST PUSH0 PUSH1 0x20 DUP3 ADD SWAP1 POP DUP2 DUP2 SUB PUSH0 DUP4 ADD MSTORE PUSH2 0x315A DUP2 PUSH2 0x3121 JUMP JUMPDEST SWAP1 POP SWAP2 SWAP1 POP JUMP JUMPDEST PUSH32 0x53706F75736520616C7265616479206D61727269656400000000000000000000 PUSH0 DUP3 ADD MSTORE POP JUMP JUMPDEST PUSH0 PUSH2 0x3195 PUSH1 0x16 DUP4 PUSH2 0x27DC JUMP JUMPDEST SWAP2 POP PUSH2 0x31A0 DUP3 PUSH2 0x3161 JUMP JUMPDEST PUSH1 0x20 DUP3 ADD SWAP1 POP SWAP2 SWAP1 POP JUMP JUMPDEST PUSH0 PUSH1 0x20 DUP3 ADD SWAP1 POP DUP2 DUP2 SUB PUSH0 DUP4 ADD MSTORE PUSH2 0x31C2 DUP2 PUSH2 0x3189 JUMP JUMPDEST SWAP1 POP SWAP2 SWAP1 POP JUMP JUMPDEST PUSH32 0x4661696C656420746F2075706461746520706172746E65720000000000000000 PUSH0 DUP3 ADD MSTORE POP JUMP JUMPDEST PUSH0 PUSH2 0x31FD PUSH1 0x18 DUP4 PUSH2 0x27DC JUMP JUMPDEST SWAP2 POP PUSH2 0x3208 DUP3 PUSH2 0x31C9 JUMP JUMPDEST PUSH1 0x20 DUP3 ADD SWAP1 POP SWAP2 SWAP1 POP JUMP JUMPDEST PUSH0 PUSH1 0x20 DUP3 ADD SWAP1 POP DUP2 DUP2 SUB PUSH0 DUP4 ADD MSTORE PUSH2 0x322A DUP2 PUSH2 0x31F1 JUMP JUMPDEST SWAP1 POP SWAP2 SWAP1 POP JUMP JUMPDEST PUSH0 DUP2 MLOAD SWAP1 POP PUSH2 0x323F DUP2 PUSH2 0x2624 JUMP JUMPDEST SWAP3 SWAP2 POP POP JUMP JUMPDEST PUSH0 PUSH1 0x20 DUP3 DUP5 SUB SLT ISZERO PUSH2 0x325A JUMPI PUSH2 0x3259 PUSH2 0x25ED JUMP JUMPDEST JUMPDEST PUSH0 PUSH2 0x3267 DUP5 DUP3 DUP6 ADD PUSH2 0x3231 JUMP JUMPDEST SWAP2 POP POP SWAP3 SWAP2 POP POP JUMP JUMPDEST PUSH32 0x4661696C656420746F2073657420706172746E657220616C6C6F77616E636500 PUSH0 DUP3 ADD MSTORE POP JUMP JUMPDEST PUSH0 PUSH2 0x32A4 PUSH1 0x1F DUP4 PUSH2 0x27DC JUMP JUMPDEST SWAP2 POP PUSH2 0x32AF DUP3 PUSH2 0x3270 JUMP JUMPDEST PUSH1 0x20 DUP3 ADD SWAP1 POP SWAP2 SWAP1 POP JUMP JUMPDEST PUSH0 PUSH1 0x20 DUP3 ADD SWAP1 POP DUP2 DUP2 SUB PUSH0 DUP4 ADD MSTORE PUSH2 0x32D1 DUP2 PUSH2 0x3298 JUMP JUMPDEST SWAP1 POP SWAP2 SWAP1 POP JUMP JUMPDEST PUSH32 0x4F6E6C7920706172746E65722063616E2063616C6C2074686973000000000000 PUSH0 DUP3 ADD MSTORE POP JUMP JUMPDEST PUSH0 PUSH2 0x330C PUSH1 0x1A DUP4 PUSH2 0x27DC JUMP JUMPDEST SWAP2 POP PUSH2 0x3317 DUP3 PUSH2 0x32D8 JUMP JUMPDEST PUSH1 0x20 DUP3 ADD SWAP1 POP SWAP2 SWAP1 POP JUMP JUMPDEST PUSH0 PUSH1 0x20 DUP3 ADD SWAP1 POP DUP2 DUP2 SUB PUSH0 DUP4 ADD MSTORE PUSH2 0x3339 DUP2 PUSH2 0x3300 JUMP JUMPDEST SWAP1 POP SWAP2 SWAP1 POP JUMP JUMPDEST PUSH32 0x4F6E6C792073706F7573652063616E2073657400000000000000000000000000 PUSH0 DUP3 ADD MSTORE POP JUMP JUMPDEST PUSH0 PUSH2 0x3374 PUSH1 0x13 DUP4 PUSH2 0x27DC JUMP JUMPDEST SWAP2 POP PUSH2 0x337F DUP3 PUSH2 0x3340 JUMP JUMPDEST PUSH1 0x20 DUP3 ADD SWAP1 POP SWAP2 SWAP1 POP JUMP JUMPDEST PUSH0 PUSH1 0x20 DUP3 ADD SWAP1 POP DUP2 DUP2 SUB PUSH0 DUP4 ADD MSTORE PUSH2 0x33A1 DUP2 PUSH2 0x3368 JUMP JUMPDEST SWAP1 POP SWAP2 SWAP1 POP JUMP JUMPDEST PUSH32 0x4E6F74206D617272696564000000000000000000000000000000000000000000 PUSH0 DUP3 ADD MSTORE POP JUMP JUMPDEST PUSH0 PUSH2 0x33DC PUSH1 0xB DUP4 PUSH2 0x27DC JUMP JUMPDEST SWAP2 POP PUSH2 0x33E7 DUP3 PUSH2 0x33A8 JUMP JUMPDEST PUSH1 0x20 DUP3 ADD SWAP1 POP SWAP2 SWAP1 POP JUMP JUMPDEST PUSH0 PUSH1 0x20 DUP3 ADD SWAP1 POP DUP2 DUP2 SUB PUSH0 DUP4 ADD MSTORE PUSH2 0x3409 DUP2 PUSH2 0x33D0 JUMP JUMPDEST SWAP1 POP SWAP2 SWAP1 POP JUMP JUMPDEST PUSH32 0x4661696C656420746F206E6F7469667920706172746E65720000000000000000 PUSH0 DUP3 ADD MSTORE POP JUMP JUMPDEST PUSH0 PUSH2 0x3444 PUSH1 0x18 DUP4 PUSH2 0x27DC JUMP JUMPDEST SWAP2 POP PUSH2 0x344F DUP3 PUSH2 0x3410 JUMP JUMPDEST PUSH1 0x20 DUP3 ADD SWAP1 POP SWAP2 SWAP1 POP JUMP JUMPDEST PUSH0 PUSH1 0x20 DUP3 ADD SWAP1 POP DUP2 DUP2 SUB PUSH0 DUP4 ADD MSTORE PUSH2 0x3471 DUP2 PUSH2 0x3438 JUMP JUMPDEST SWAP1 POP SWAP2 SWAP1 POP JUMP INVALID LOG2 PUSH5 0x6970667358 0x22 SLT KECCAK256 0xC0 0xBD MULMOD SHR SWAP12 0xCE EXTCALL 0xBD 0x2C 0xBE LT CALLER 0x4D LOG4 MOD CODECOPY CALLDATASIZE 0xA8 0xBB DUP4 CALLCODE PUSH8 0x707910BFC5485AAD XOR SWAP1 PUSH5 0x736F6C6343 STOP ADDMOD 0x1E STOP CALLER "
		},
		"gasEstimates": {
			"creation": {
				"codeDepositCost": "629000",
				"executionCost": "infinite",
				"totalCost": "infinite"
			},
			"external": {
				"echidna_age_non_negative()": "infinite",
				"echidna_no_tax_below_allowance()": "infinite",
				"echidna_tax_allowance_oap_if_single_over_65()": "infinite",
				"echidna_tax_consistency()": "infinite",
				"echidna_taxable_non_negative()": "infinite",
				"t1()": "infinite",
				"t1_haveBirthday()": "infinite",
				"t1_setIncome(uint256)": "infinite"
			}
		},
		"methodIdentifiers": {
			"echidna_age_non_negative()": "051a5e8e",
			"echidna_no_tax_below_allowance()": "a2f1309e",
			"echidna_tax_allowance_oap_if_single_over_65()": "34f891c9",
			"echidna_tax_consistency()": "2191ae94",
			"echidna_taxable_non_negative()": "c800409f",
			"t1()": "fb5343f3",
			"t1_haveBirthday()": "d29f5ec2",
			"t1_setIncome(uint256)": "e4cc509a"
		}
	},
	"abi": [
		{
			"inputs": [],
			"stateMutability": "nonpayable",
			"type": "constructor"
		},
		{
			"inputs": [],
			"name": "echidna_age_non_negative",
			"outputs": [
				{
					"internalType": "bool",
					"name": "",
					"type": "bool"
				}
			],
			"stateMutability": "view",
			"type": "function"
		},
		{
			"inputs": [],
			"name": "echidna_no_tax_below_allowance",
			"outputs": [
				{
					"internalType": "bool",
					"name": "",
					"type": "bool"
				}
			],
			"stateMutability": "view",
			"type": "function"
		},
		{
			"inputs": [],
			"name": "echidna_tax_allowance_oap_if_single_over_65",
			"outputs": [
				{
					"internalType": "bool",
					"name": "",
					"type": "bool"
				}
			],
			"stateMutability": "view",
			"type": "function"
		},
		{
			"inputs": [],
			"name": "echidna_tax_consistency",
			"outputs": [
				{
					"internalType": "bool",
					"name": "",
					"type": "bool"
				}
			],
			"stateMutability": "view",
			"type": "function"
		},
		{
			"inputs": [],
			"name": "echidna_taxable_non_negative",
			"outputs": [
				{
					"internalType": "bool",
					"name": "",
					"type": "bool"
				}
			],
			"stateMutability": "view",
			"type": "function"
		},
		{
			"inputs": [],
			"name": "t1",
			"outputs": [
				{
					"internalType": "contract Taxpayer",
					"name": "",
					"type": "address"
				}
			],
			"stateMutability": "view",
			"type": "function"
		},
		{
			"inputs": [],
			"name": "t1_haveBirthday",
			"outputs": [],
			"stateMutability": "nonpayable",
			"type": "function"
		},
		{
			"inputs": [
				{
					"internalType": "uint256",
					"name": "_income",
					"type": "uint256"
				}
			],
			"name": "t1_setIncome",
			"outputs": [],
			"stateMutability": "nonpayable",
			"type": "function"
		}
	]
}